:100000000C94B8260C94E9260C94E9260C94E92665
:100010000C94E9260C94E9260C94E9260C94E92624
:100020000C94E9260C94E9260C94E9260C94E92614
:100030000C94E9260D944B0E0C94E9260C94E926B9
:100040000C94E9260D941B800C94E9260C94E92667
:100050000C94E9260C94E9260D9460600D94010E31
:100060000C94E9260C9431470C9427470C94E9260C
:100070000C94E9260C94E9260C94E9260C94E926C4
:100080000C94A53F0C94E9260C94E9260C94E926DF
:100090000C94E9260C94E9260C94E9260C94E926A4
:1000A0000C94E9260C94E9260C94773F0C94E926ED
:1000B0000C94E9260C94E9260C94E9260C94493F0B
:1000C0000C94E9260C94E9260C94E9260C94E92674
:1000D0000C94E9260C94E9260C94E9260C94E92664
:1000E0000C94E92667476D477F478F479747C74777
:1000F0009B47C7479F47A347C747A747AB47AF475C
:10010000B847C747C3474E675567046812695A6ABC
:10011000636A736AFFCF02D0F1CFF5CFFBCF39D03E
:1001200006D00AD010D014D018D01ED022D026D09D
:1001300039D02CD030D034D0C001A8028201520175
:10014000BC023C0196028A028E027A01000278010A
:10015000A20218013C014A02EC014E017C01B001EF
:100160004C0214020E0256013001AE01BC010A011C
:10017000A001100205A84CCDB2D44EB93836A90260
:100180000C50B9918688083CA6AAAA2ABE00000095
:10019000803F07634236B79BD8A71A39685618AE16
:1001A000BAAB558C1D3CB7CC5763BD6DEDFD753EAC
:1001B000F6177231BF000000803F08000000BE92B9
:1001C0002449123EABAAAA2ABECDCCCC4C3E00009C
:1001D0000080BEABAAAAAA3E00000000BF0000003B
:1001E000803F0000000000084178D3BB4387D11353
:1001F0003D190E3CC3BD4282AD2B3E68EC8276BEFB
:10020000D98FE1A93E4C80EFFFBE01C4FF7F3F00C4
:10021000000000000D94D1250C9456490D9471787E
:100220000C94736A0C94D6500C94C3470D94B194FB
:100230000D948A0D0C9439490D948A6C0D94876A3B
:100240000D9477470D94A04C0D943F6A0C9468A7C9
:100250000D94054B0C9444FA0D9446380C948A493D
:100260000D94B2250C94AF470D9486780D94731EAF
:100270000C9485A30C9406510D94B20D0C9430D0BF
:100280000C9433490D9458470C947B7D0C94904802
:100290000C9473490C94EE500D949E260D94A80D69
:1002A0000C9434D00D942F0D0C94384B0D94AF2535
:1002B0000D941A6A0D94D1690C94886D0C94EBF925
:1002C0000C949B6B0D94316C0C94F5CF0D947D794F
:1002D0000D94CF940D94E27E0D947F2C0D948D217E
:1002E0000D9415710D94C30C0D9469210C9446A3C3
:1002F0000D94710D0D945D0D0D94C3250D94DC7955
:100300000D94AF4C0D94250D0C94E46D0C9414D009
:100310000D947D210C94FA500C94B4F90C948F47F1
:100320000D942F240D9497210C94A3470C9402D084
:100330000C94999F0D941F260C94FE700D94784A8E
:100340000D94B8250C947E7D0C94E1F90D94276CE6
:100350000C9482A10C9455670D947F480D94BE2592
:100360000D94A6250C94EC4A0C9418D00D944B1EB9
:100370000D94926C0C946D470D94B5250D945C6FA3
:100380000D941B0D0D94396A0C948C750C9469A214
:100390000C94D6A40C943BFA0C949F6B0D946A1E9B
:1003A0000C9406FC0C94DCF90D94287B0C94AB4760
:1003B0000C94976B0C943B750C949D6B0C947F473D
:1003C0000D9494210C94DC500D9471210C94AB7D10
:1003D0000C94A7490D94142E0D949E0D0D94604815
:1003E0000C94D7F90D949B790D9496470D949A210E
:1003F0000C94A7750C94F4500C94FFFD0C94CDF95B
:100400000D94670D0D9479210D9475710D94791EDD
:100410000C942CD00C945E6B0C94D2F90D94AC25FA
:100420000D94BB250C9420490D94C6250D94156A96
:100430000C9425FB0D9414470C949D780C94124950
:100440000C9497470D94B54C0C948AA40D940649CE
:100450000C94636A0D94860C0C944E670D94366C64
:100460000C947C760C94846D0C94E6F90D94707861
:100470000C9410D00D944B6A0D94D3470C94C27514
:100480000D94271F0C94DC480D9491210C941ED0E0
:100490000D9403710D94940D0D94A9250D9489214B
:1004A0000C9471750C9439D00C949F470D94CB47E4
:1004B0000C94B0720C9438FA0D94576E0C94FBCFD8
:1004C0000C94F1CF0C949B470C940B4B0C94364935
:1004D0000C9404680D94AC470C9432A20D940271F4
:1004E0000D9485210D94A50C0C94EA480C94B84702
:1004F0000D94106A0C94A7470C9467590D94B74C4F
:100500000C9406D00C947CA00D94745F0D941F6A1B
:100510000C940B4E0D944B0D0C9467470D94530D9A
:100520000C94A6480C94CE480C94FE480D94430DB0
:100530000C94E07A0D94910C0D94456A0C94FFCFC5
:100540000C943EFA0D94800D0C940AD00D94B34C8B
:100550000D94200D0D941D7A0C9422D00D94A1477A
:100560000C94E8500C94AE490C9438A20D94B14C04
:100570000D945C0C0C9412690D94390D0C94DD4DA6
:100580000C94C7470C94E2500D941F380C94326CB5
:100590000C940E740D9475210C94BA480C94B0F917
:1005A0000C94A2A60C9400510C94996B0C94567563
:1005B0000C945A6A0D942C6C0D94E8380D946D21AE
:1005C0000D9481210C9426D04E414E494E495459E8
:1005D000494E46CDCCCC3D0AD7233C17B7D138770E
:1005E000CC2B329595E6241FB14F0A000020410024
:1005F00000C84200401C4620BCBE4CCA1B0E5AAE6E
:10060000C59D7400407A10F35A00A0724E1809007C
:1006100010A5D4E80000E87648170000E40B540267
:100620000000CA9A3B000000E1F5050000809698A2
:1006300000000040420F000000A0860100000010F2
:100640002700000000E80300000000640000000034
:10065000000A00000000000100000000002C76D815
:1006600088DC674F0823DFC1DFAE59E1B1B796E5FB
:10067000E3E453C63AE651997696E8E6C28426EB5F
:10068000898C9B62ED407C6FFCEFBC9C9F40F2BA72
:10069000A56FA5F490055A2AF75C936B6CF9676D0A
:1006A000C11BFCE0E40D47FEF520E6B500D0ED905F
:1006B0002E0300943577050080841E080000204E2C
:1006C0000A000000C80C333333330F986E128311C5
:1006D00041EF8D2114893BE65516CFFEE6DB18D19C
:1006E000844B381BF77C1D901DA4BBE4242032846E
:1006F000725E228100C9F124ECA1E53D27434F4DF4
:100700004D554E49434154494F4E0044525952555C
:100710004E004552524F5253004543484F0020640B
:100720003A0020693A0020703A00496E76616C699F
:10073000642065787472756465720A00536C65652F
:10074000702E2E2E005A2050726F626520506173F9
:1007500074204265640A005A2050726F626520500E
:100760006173742042656400486F6D65205859209C
:1007700066697273740A00486F6D65205859204687
:100780006972737400205A3A200020593A200042BE
:10079000656420583A20004D65736820706F696E5B
:1007A000742063616E6E6F74206265207265736F72
:1007B0006C7665640A004D302F3120427265616BA2
:1007C0002043616C6C656400436C69636B20746FDB
:1007D00020526573756D652E2E2E004E6F204D6F65
:1007E00076652E00456E642066696C65206C6973C1
:1007F000740A00426567696E2066696C65206C69E1
:1008000073740A00526573756D696E6720534400F6
:10081000286E6F2066696C65290043757272656E7B
:10082000742066696C653A20002569792025696421
:10083000202569682025696D20256973005072693B
:100840006E742074696D653A20004520255300447C
:10085000454255473A004D3131332053003344204F
:100860005072696E746572204F46462E00434841AF
:100870004D4245525F54454D5045524154555245A5
:10088000004D4F54494F4E5F4D4F4445530054481F
:1008900045524D414C5F50524F54454354494F4E81
:1008A000004155544F5245504F52545F53445F538B
:1008B00054415455530050524F4D50545F5355506E
:1008C000504F525400454D455247454E43595F5095
:1008D000415253455200434153455F4C49474854A8
:1008E0005F4252494748544E45535300544F47477F
:1008F0004C455F4C494748545300534F4654574169
:1009000052455F504F574552004255494C445F5045
:10091000455243454E54004C4556454C494E475F61
:1009200044415441005A5F50524F42450041555492
:100930004F4C4556454C005052494E545F4A4F4229
:100940000050524F4752455353004155544F524562
:10095000504F52545F54454D5000564F4C554D45E5
:10096000545249430042494E4152595F46494C4511
:100970005F5452414E534645520053455249414CF3
:100980005F584F4E5F584F4646004649524D5741BB
:1009900052455F4E414D453A4D61726C696E204241
:1009A00075696C642034353620284769744875624F
:1009B0002920534F555243455F434F44455F55529D
:1009C0004C3A68747470733A2F2F67697468756253
:1009D0002E636F6D2F5665727461627265616B2F45
:1009E0004D61726C696E2050524F544F434F4C5FB3
:1009F00056455253494F4E3A312E30204D414348CF
:100A0000494E455F545950453A3344205072696EFF
:100A10007465722045585452554445525F434F55B2
:100A20004E543A3120555549443A38333666613987
:100A300034332D313333372D313333372D31333395
:100A4000372D3938613230646537353630370A0032
:100A50002F2F20004D31343520533C696E6465786A
:100A60003E206F7574206F662072616E6765202866
:100A7000302D31290A00416363656C6572617469C8
:100A80006F6E3A20500020466C6F773A200050720B
:100A90006F7465637465642050696E0A00206F7519
:100AA00074206F662072616E67650A00205365725C
:100AB000766F20006469730043290A0061626C65E7
:100AC0006420286D696E2074656D702000436F6C22
:100AD00064206578747275646573206172652000A6
:100AE00046696C616D656E742072756E6F757420E9
:100AF000004D34323120696E636F72726563742009
:100B0000706172616D657465722075736167650AE5
:100B100000454550524F4D204F4B0A003F28422977
:100B2000617564207261746520696D706C617573A4
:100B300069626C652E0A002053657269616C203011
:100B4000206261756420726174652073657420741D
:100B50006F20003F4B2076616C7565206F757420A7
:100B60006F662072616E67652028302D3130292E26
:100B70000A00416476616E6365204B3D00436173FA
:100B800065206C696768743A200043617365206C66
:100B9000696768743A206F66660A00506F776572FD
:100BA0002D6C6F7373207265636F766572792000A8
:100BB00019070A0C12070B07FD06726F746174693E
:100BC0006F6E206D61747269783A0A00206D6178E9
:100BD0003A00206D696E3A004178697320004D3803
:100BE000373620526573706F6E64696E672050529D
:100BF0004F4D50545F00554E4B4E4F574E2053545F
:100C00004154450047434F44455F494E464F004CD1
:100C100043445F50415553455F524553554D450040
:100C200046494C414D454E545F52554E4F55545FC9
:100C3000434F4E54494E55450046494C414D454E53
:100C4000545F52554E4F5554005075726765204D94
:100C50006F7265004572726F722077726974696E87
:100C60006720746F20454550524F4D210A00627530
:100C700073793A2070617573656420666F722069BC
:100C80006E7075740A00627573793A2070617573BD
:100C9000656420666F7220757365720A00627573F1
:100CA000793A2070726F63657373696E670A0070BA
:100CB00061757365004D363030002066696C616D7A
:100CC000656E745F72756E6F7574200066696C6115
:100CD0006D656E745F72756E6F7574205400466931
:100CE0006C616D656E7452756E6F75742054004E34
:100CF0006F20436865636B73756D20776974682036
:100D00006C696E65206E756D6265722C204C617326
:100D100074204C696E653A2000636865636B737577
:100D20006D206D69736D617463682C204C61737400
:100D3000204C696E653A20004C696E65204E756DD9
:100D4000626572206973206E6F74204C6173742029
:100D50004C696E65204E756D6265722B312C204C8E
:100D6000617374204C696E653A20004D313130005A
:100D70004D313137004D3331005344207265616489
:100D8000206572726F720A00446F6E65207072691E
:100D90006E74696E672066696C650A002121204BBC
:100DA000494C4C2063617573656420627920746FCF
:100DB0006F206D75636820696E6163746976652064
:100DC00074696D65202D2063757272656E74206381
:100DD0006F6D6D616E643A2000252723181F211D59
:100DE0001C19171B1E2E2C0C04400AFF4104090875
:100DF000070001206D61783A2000206D696E3A206D
:100E00000023646566696E652044454641554C542F
:100E10005F004B6420004B6920004B70200050495C
:100E200044204175746F74756E652066696E6973D0
:100E3000686564212050757420746865206C617346
:100E400074204B702C204B6920616E64204B642011
:100E5000636F6E7374616E74732066726F6D20625F
:100E6000656C6F7720696E746F20436F6E6669677B
:100E700075726174696F6E2E680A00504944204192
:100E800075746F74756E65206661696C6564212088
:100E900074696D656F75740A000A20436C61737321
:100EA000696320504944200A00204B643A20002006
:100EB0004B693A2000204B703A20000A204E6F20E8
:100EC0006F76657273686F6F740A002054753A20EC
:100ED00000204B753A200020643A200020626961AE
:100EE000733A2000504944204175746F74756E65E3
:100EF0002073746172740A00504944204175746F04
:100F000074756E65206661696C6564212054656D39
:100F1000706572617475726520746F6F206869679F
:100F2000680A00504944204175746F74756E6520DD
:100F30006661696C65642120426164206578747221
:100F400075646572206E756D6265720A007C4D6114
:100F5000726C696E7C002D2D2D2D2D2D00A10000B1
:100F6000006900A20000006300B00000000900C199
:100F70000000004100C20000004100C30000004129
:100F800000C40000004100C50000004100C6000090
:100F9000004145C70000004300C80000004500C9EB
:100FA0000000004500CD0000004900D10000004EC7
:100FB00000D50000004F00D60000004F00D7000011
:100FC000007800DC0000005500DD0000005900E062
:100FD0000000006100E10000006100E2000000612B
:100FE00000E30000006100E40000006100E5000093
:100FF000006100E60000006165E70000006300E8B2
:101000000000006500E90000006500EA00000065DE
:1010100000EB0000006500EC0000006900ED00003E
:10102000006900EE0000006900EF0000006900F1B7
:101030000000006E00F20000006F00F30000006F7F
:1010400000F40000006F00F50000006F00F60000E3
:10105000006F00F80000006F00F90000007500FA52
:101060000000007500FB0000007500FC000000752A
:1010700000FD0000007900FF00000079000401007D
:101080000041000501000061000601000043000767
:1010900001000063000C01000043000D010000632B
:1010A000000E01000044000F010000640011010067
:1010B0000064001901000065001F01000067003096
:1010C0000100004900310100006900410100004CAD
:1010D00000420100006C00430100004E004401008A
:1010E000006E00480100006E005901000072005AB5
:1010F00001000053005B01000073005F01000073FA
:1011000000600100005300610100007300650100F0
:101110000074006F01000075007C0100007A007D02
:101120000100005A007E0100007A00920100006672
:1011300000E302000078008403000027008503001C
:10114000002700860300004100870300002E00886E
:1011500003000045008903000048008A030000499D
:10116000008C0300004F008E03000059008F030025
:10117000004F0090030000690091030000410092BD
:101180000300004200930300005400940300003465
:1011900000950300004500960300005A00970300E5
:1011A0000048009803000030009903000049009AAD
:1011B0000300004B009B0300005E009C0300004DF9
:1011C000009D0300004E009E03000033009F0300BB
:1011D000004F00A00300006E00A10300005000A318
:1011E0000300004500A40300005400A503000059BB
:1011F00000A60300007000A70300005800A8030029
:10120000005000A90300004F00AA0300004900ABF2
:101210000300005900AC0300006100AD030000654D
:1012200000AE0300006E00AF0300006900B00300D1
:10123000007600B10300006100B20300004200B379
:101240000300007600B40300006400B503000065ED
:1012500000B60300005A00B70300006E00B8030098
:10126000003000B90300006900BA0300006B00BB46
:101270000300004C00BC0300007500BD03000076B5
:1012800000BE0300006500BF0300006F00C0030044
:10129000006E00C10300007000C20300006300C3C1
:1012A0000300006F00C40300007400C50300007653
:1012B00000C60300007000C70300005800C8030008
:1012C000005700C90300007700CA0300006900CB83
:1012D0000300007600CC0300006F00CD0300007611
:1012E00000CE030000770001040000450010040058
:1012F00000410011040000620012040000420013CB
:1013000004000054001404000051001504000045BE
:1013100000160400002A001704000045001804000D
:10132000004E00190400004E001A0400004B001B80
:1013300004000054001C0400004D001D040000487F
:10134000001E0400004F001F0400006E0020040077
:101350000050002104000043002204000054002338
:101360000400005900240400006F00250400005808
:10137000002604000055002704000079002804001E
:101380000057002904000057002A04000062002BC7
:10139000040000627C2C04000062002D0400006543
:1013A000002E0400007C4F2F040000397C30040024
:1013B00000610031040000360032040000420033B6
:1013C0000400007200340400006100350400006570
:1013D00000360400002A00370400006500380400CD
:1013E0000075003904000075003A0400006B003BF2
:1013F0000400006E003C0400006D003D0400004845
:10140000003E0400006F003F0400006E0040040036
:1014100000700041040000630042040000740043B7
:101420000400007900440400007170450400007855
:1014300000460400007500470400007900480400DD
:101440000077004904000077004A04000062004B66
:10145000040000627C4C04000062004D0400006542
:10146000004E0400007C6F4F040000670051040030
:10147000006500222000002E001E2100005078226E
:10148000210000544D902100003C2D922100002DA0
:101490003EB02100000300BB21000004003C2200FC
:1014A000007E00482200007E3D60220000213D6158
:1014B0002200003D00642200003C3D652200003E09
:1014C0003DF12300000700A03000003D0021F301A2
:1014D000000200C2F401000500A2000000EC00B010
:1014E000000000DF00E4000000E100F6000000EF73
:1014F00000F7000000FD00FC000000F500E3020022
:1015000000EB0087030000A5008F030000F40098A3
:10151000030000F2009E030000E300A3030000F6B6
:1015200000A9030000F400AC030000E000AD0300DC
:1015300000E300B1030000E000B2030000E200B5E8
:10154000030000E300B8030000F200BC030000E465
:1015500000BE030000E300C0030000F700C1030069
:1015600000E600C3030000E500902100007F009228
:101570002100007E001A220000E8001E220000F375
:101580000088250000FF0002300000A1000C3000A0
:1015900000A2000D300000A3009B300000DE009C84
:1015A000300000DF00A03000003D00A1300000A7A7
:1015B00000A2300000B100A3300000A800A4300059
:1015C00000B200A5300000A900A6300000B300A7BB
:1015D000300000AA00A8300000B400A9300000AB21
:1015E00000AA300000B500AB300000B600AC3000FF
:1015F00000B6DEAD300000B700AE300000B7DEAFA1
:10160000300000B800B0300000B8DEB1300000B9E2
:1016100000B2300000B9DEB3300000BA00B43000D0
:1016200000BADEB5300000BB00B6300000BBDEB74C
:10163000300000BC00B8300000BCDEB9300000BD96
:1016400000BA300000BDDEBB300000BE00BC300080
:1016500000BEDEBD300000BF00BE300000BFDEBFF8
:10166000300000C000C0300000C0DEC1300000C14A
:1016700000C2300000C1DEC3300000AF00C4300043
:1016800000C200C5300000C2DEC6300000C300C783
:10169000300000C3DEC8300000C400C9300000C400
:1016A000DECA300000C500CB300000C600CC3000E0
:1016B00000C700CD300000C800CE300000C900CF08
:1016C000300000CA00D0300000CADED1300000CAAD
:1016D000DFD2300000CB00D3300000CBDED43000AE
:1016E00000CBDFD5300000CC00D6300000CCDED7F8
:1016F000300000CCDFD8300000CD00D9300000CD64
:10170000DEDA300000CDDFDB300000CE00DC300060
:1017100000CEDEDD300000CEDFDE300000CF00DFA7
:10172000300000D000E0300000D100E1300000D2F5
:1017300000E2300000D300E3300000AC00E43000F1
:1017400000D400E5300000AD00E6300000D500E731
:10175000300000AE00E8300000D600E9300000D7CD
:1017600000EA300000D800EB300000D900EC300077
:1017700000DA00ED300000DB00EF300000DC00F2AA
:10178000300000A600F3300000DD00F4300000B3AC
:10179000DEF7300000DCDEFA300000A6DEFB3000B1
:1017A00000A500FC300000B000FD300000A40007E0
:1017B0004E0000FB0086510000FC0043530000FA7D
:1017C0000064FF0000A40065FF0000A50066FF00A4
:1017D00000A60067FF0000A70068FF0000A80069DE
:1017E000FF0000A9006AFF0000AA006BFF0000AB29
:1017F000006CFF0000AC006DFF0000AD006EFF004C
:1018000000AE006FFF0000AF0070FF0000B000717D
:10181000FF0000B10072FF0000B20073FF0000B3D0
:101820000074FF0000B40075FF0000B50076FF00F3
:1018300000B60077FF0000B70078FF0000B800791D
:10184000FF0000B9007AFF0000BA007BFF0000BB78
:10185000007CFF0000BC007DFF0000BD007EFF009B
:1018600000BE007FFF0000BF0080FF0000C00081BD
:10187000FF0000C10082FF0000C20083FF0000C320
:101880000084FF0000C40085FF0000C50086FF0043
:1018900000C60087FF0000C70088FF0000C800895D
:1018A000FF0000C9008AFF0000CA008BFF0000CBC8
:1018B000008CFF0000CC008DFF0000CD008EFF00EB
:1018C00000CE008FFF0000CF0090FF0000D00091FD
:1018D000FF0000D10092FF0000D20093FF0000D370
:1018E0000094FF0000D40095FF0000D50096FF0093
:1018F00000D60097FF0000D70098FF0000D800999D
:10190000FF0000D9009AFF0000DA009BFF0000DB17
:10191000009CFF0000DC009DFF0000DD009EFF003A
:1019200000DE009FFF0000DF00E5FF00005C00001C
:1019300010101010101000001414141414140000CF
:1019400015151515151500001C1F11111F0000009D
:1019500006191803130C00040E1F041C00000000DD
:101960000E1315110E00001C1018170506050004B3
:101970000A0A0A0A11110E0C12120C0000000000D3
:101980001F1511151F0000000000000102040400D3
:1019900000001C1C0C0404040201000000000004F0
:1019A00008100000000000446F6E652E0A003F49D9
:1019B0006E76616C69642073746F72616765207301
:1019C0006C6F742E0A3F557365203020746F2000B1
:1019D0004732392050322066696E69736865642E1B
:1019E0000A005859206F75747369646520707269B4
:1019F0006E7461626C65207261646975732E0A0091
:101A00003F4572726F7220696E20427573696E6510
:101A100073732043617264206D6561737572656DC7
:101A2000656E742E0A004D616E75616C6C79207064
:101A3000726F62696E6720756E726561636861625C
:101A40006C65206D657368206C6F636174696F6E7F
:101A5000732E0A0050726F62696E672061726F7533
:101A60006E642028004D65736820696E76616C692C
:101A700064617465642E2050726F62696E67206DB8
:101A80006573682E0A004D657368207A65726F650C
:101A9000642E0A0044656661756C742073746F72FD
:101AA00061676520736C6F7420302073656C6563AB
:101AB0007465642E0A004C6F6164696E67207465FA
:101AC00073745F7061747465726E2076616C756595
:101AD000732E0A0A00496E76616C6964207465731E
:101AE000745F7061747465726E2076616C75652EBA
:101AF00020282D3120746F2032290A0A004C6F6390
:101B00006174696F6E7320696E76616C696461746B
:101B100065642E0A0A00456E74697265204D65730E
:101B20006820696E76616C6964617465642E0A0A66
:101B3000004D65616E204D65736820486569676872
:101B4000743A200023206F662073616D706C65739A
:101B50003A20000A4D657368206F6E6C79207061C1
:101B6000727469616C6C7920706F70756C617465EA
:101B7000642E0A0A0050726F62696E6720506F69A6
:101B80006E74000A50726F62696E67206D657368CB
:101B900020706F696E74200020616E642074616B28
:101BA000652061206D6561737572656D656E742E5B
:101BB0000A006D6D20746869636B2E0A00427573AC
:101BC000696E6573732043617264206973200052EB
:101BD000656D6F76652026204D6561737572652091
:101BE0004265640052656D6F7665207368696D00AB
:101BF000506C616365207368696D20756E646572F1
:101C0000206E6F7A7A6C65004D65736820506F693D
:101C10006E74204D656173757265642061743A203D
:101C2000000A4D657368206F6E6C79207061727464
:101C300069616C6C7920706F70756C617465642E6D
:101C40000A00506C616365205368696D2026204D41
:101C5000656173757265004D6F76696E6720746F8C
:101C6000206E657874004D657368204564697469F9
:101C70006E672053746F7070656400446F6E6520EA
:101C800045646974696E67204D6573680A00446F26
:101C90006E652045646974696E67204D65736800E0
:101CA00046696E652054756E696E67204D65736870
:101CB0000028582C5929206F757473696465207049
:101CC00072696E7461626C65207261646975732EED
:101CD0000A004F6666736574206F7574206F662006
:101CE000626F756E64732E20283020746F2031303F
:101CF0006D6D290A0A004C6F6164206D6D00556E90
:101D00006C6F6164206D6D00416476616E63652067
:101D10004B0020022046616374002002204D617850
:101D2000002002204D696E004175746F74656D70FE
:101D3000005654726176204D696E00566D696E00D2
:101D4000566D6178204500566D6178205A00566DB9
:101D50006178205900566D6178205800416D617896
:101D6000204500416D6178205A00416D617820590D
:101D700000416D6178205800412D54726176656C88
:101D800000412D5265747261637400416363656C38
:101D900000416476616E6365642053657474696E96
:101DA000677300436D643A2053746F7700436D642A
:101DB0003A204465706C6F7900436D643A20535744
:101DC0002D4D6F646500436D643A2053656C662D3C
:101DD0005465737400436D643A20526573657400F2
:101DE0004C69676874204272696768746E657373C2
:101DF0000046616E205370656564004C6F6164201D
:101E000053657474696E677300526573746F72659D
:101E1000206661696C736166650053746F7265203A
:101E200053657474696E6773005072656865617498
:101E3000205045544720436F6E66005072656865B8
:101E4000617420504C4120436F6E6600436173659E
:101E5000204C6967687400424C546F756368004792
:101E600032380A4732392050310A4732392050334C
:101E70000A47323920410A4D353030004732380A9E
:101E800047323920503420523235350A4732392012
:101E9000410A4D353030004732392050340A4D3533
:101EA0003030004D3330332055312045302053320F
:101EB00035302043380A4D353030004D3330332033
:101EC000553120452D31205339302043380A4D35C6
:101ED0003030004D393030204B300A4D3530300035
:101EE0004D393030204B302E320A4D353030004DD8
:101EF000393030204B302E330A4D353030004D39DB
:101F00003030204B302E340A4D353030004D3930D2
:101F100030204B302E350A4D353030004D393030C1
:101F2000204B302E360A4D353030004C696E204142
:101F30006476204B302E34004C696E20416476204C
:101F40004B302E33004C696E20416476204B302E8E
:101F500032004C696E20416476204F6666004C6901
:101F60006E20416476204B302E3500504944747504
:101F70006E65204265640050494474756E65204862
:101F80006F74656E640041646A75737420506F6984
:101F90006E74204E656172004D616E75616C2055E6
:101FA000424C004C696E20416476204B302E360046
:101FB00050726F62652055424C003F454550524F6C
:101FC0004D2073746F72616765206E6F7420617647
:101FD00061696C61626C652E0A00646F6E650A004F
:101FE000496E73756666696369656E7420646174B1
:101FF000610A004578747261706F6C6174696E6714
:10200000206D6573682E2E2E0053544F505045445A
:102010002E20005072696E7465722073746F707038
:1020200065642064756520746F206572726F7273C9
:102030002E2046697820746865206572726F722060
:10204000616E6420757365204D39393920746F20B5
:10205000726573746172742E202854656D70657298
:1020600061747572652069732072657365742E20C2
:10207000536574206974206166746572207265739B
:1020800074617274696E67290A0021212053544FCC
:10209000502063616C6C6564206265636175736573
:1020A000206F6620424C546F756368206572726FB2
:1020B00072202D2072657374617274207769746860
:1020C000204D3939390A005072696E74696E672083
:1020D0004F626A656374002553202569002F2F61C4
:1020E0006374696F6E3A00627574746F6E0070721B
:1020F0006F6D70745F0073686F7700486F74656E02
:102100006420746F6F20636F6C640A0053656E64A3
:10211000204D31303820746F20726573756D650AFB
:102120000052656865617420446F6E650052656891
:10213000656174696E670052656865617400486521
:102140006174657254696D656F75740053656E6472
:10215000204D31303820746F2068656174206E6FB7
:102160007A7A6C650A004E6F7A7A6C6520506172DB
:102170006B656400706175736564004D3630303A8C
:1021800020546F6F20436F6C6400726573756D65CA
:102190006400526573756D696E6700426564204C1A
:1021A0006576656C696E6720004661696C656420C0
:1021B000746F20656E61626C6520426564204C65B9
:1021C00076656C696E670A00496E76616C69642099
:1021D0006D6573682E0A0076616C69640A53746FCA
:1021E0007261676520736C6F743A20004D65736887
:1021F00020697320003F496E76616C6964207374B6
:102200006F7261676520736C6F742E0A00000000A6
:1022100000000066420000E64200802C4300006699
:102220004320436F756E7420583A005761726E698F
:102230006E673A20486F6D696E672042756D702039
:1022400044697669736F72203C20310A00000020D7
:10225000C10000A0C00000000000002042000020DB
:1022600042000080400202020000A0400000A040A6
:102270000000A0400000704300006B4300007A4360
:10228000FFFFFF000000010000000100008000557A
:102290005555000000400033333300AAAA2A0049F4
:1022A00092240000002000C7711C0099991900D1E8
:1022B000451700555515003BB11300244912001174
:1022C000111100000010000F0F0F00E3380E004343
:1022D000790D00CCCC0C00C3300C00E8A20B0064DC
:1022E000210B00AAAA0A00703D0A009DD8090042ED
:1022F0007B090092240900DCD308008888080010BC
:1023000042080000000800F0C10700878707007539
:10231000500700711C07003EEB0600A1BC060069D7
:1023200090060066660600703E06006118060017FB
:10233000F4050074D105005BB00500B290050062A1
:102340007205005555050078390500B81E050005D1
:102350000505004EEC040087D40400A1BD040090E4
:10236000A7040049920400C17D0400EE690400C77F
:10237000560400444404005C320400082104004177
:10238000100400000004003FF00300F8E003002602
:10239000D20300C3C30300CCB503003AA803000A6C
:1023A0009B0300388E0300C08103009F750300D09B
:1023B000690300505E03001D53030034480300917D
:1023C0003D03003333030016290300381F03009731
:1023D000150300300C0300030303000BFA0200494D
:1023E000F10200BAE802005CE002002DD802002DE4
:1023F000D0020059C80200B0C0020031B90200DAB0
:10240000B10200AAAA0200A0A30200BC9C0200FA2A
:102410009502005C8F0200DF880200828202004584
:102420007C02002776020027700200436A02007CCB
:10243000640200D05E02003F590200C85302004906
:102440006E666F2053637265656E0042656420544A
:10245000656D7000486F74656E642054656D700022
:102460004732392050362043202D0048656967687F
:102470007420416D6F756E740041646A75737420C9
:102480004D65736820486569676874004732392074
:10249000503420540046696E652054756E652043A3
:1024A0006C6F736573740047323620432042256990
:1024B0002048256920500056616C6964617465206C
:1024C000437573746F6D204D657368004732380A29
:1024D00047323620432042373020483235302050B2
:1024E0000056616C6964617465204D6573682028CD
:1024F0005045544729004732380A47323620432096
:10250000423630204832303020500056616C6964C9
:10251000617465204D6573682028504C412900473F
:102520003239204A2569004C6576656C204D65730B
:1025300068005369646520506F696E747300477258
:102540006964204D657368204C6576656C696E67BB
:1025500000473239204A3000332D506F696E7420A5
:102560004C6576656C696E670047323920503320C0
:102570005220432E2569004D616E75616C204669BD
:102580006C6C2D696E0046696C6C2D696E20416D16
:102590006F756E74004D65736820696E76616C6945
:1025A00064617465642E0A00473239204900496E1F
:1025B00076616C696461746520436C6F73657374D4
:1025C00000496E76616C696461746520416C6C00D1
:1025D000473239205031204300436F6E74696E7565
:1025E0006520426564204D6573680046696C6C2DFA
:1025F000696E204D657368004275696C642043758F
:1026000073746F6D204D657368004732380A4D3121
:102610003930205337300A4D31303920533235307C
:102620000A4732392050310A4D3130342053300AB4
:102630004D313430205330004275696C64204D6553
:10264000736820285045544729004732380A4D31D5
:102650003930205336300A4D313039205332303042
:102660000A4732392050310A4D3130342053300A74
:102670004D313430205330004275696C64204D6513
:1026800073682028504C4129003F4A206F75742000
:102690006F662072616E67652028302E303120749D
:1026A0006F20302E33290A0020633A00204D393242
:1026B00020580020204D61783A200020204D696E7E
:1026C0003A2000536F667420656E6473746F707384
:1026D0003A20005761726E696E67203A20436C653C
:1026E000616E20436972636C6520726571756972F1
:1026F00065732058590A004D32342053256C6420EC
:1027000054256C64004739322E3920452573004723
:102710003120462564004731204531204633303092
:1027200030004739322E39205A2573004731205A5C
:10273000302046323030004731205825732059254B
:102740007320463330303000473120453120463247
:102750003030004D34323020532569205A25730023
:102760004D313036205025692053256900473932D4
:102770002E392045305A300A47315A320A4732380A
:1027800052305859004D343230205330205A3000E6
:1027900020496E76616C6964206578747275646531
:1027A00072200020573A007C3C3E5E2B3D3F2F5B61
:1027B0005D3B2C2A225C002062797465733B2063A8
:1027C0007263200053657474696E67732053746F6D
:1027D0007265642028004E6F20454550524F4D2EA3
:1027E0000A00454550524F4D206461746173697A07
:1027F00065206572726F722E0A003F4D6573682006
:10280000746F6F2062696720666F72204545505271
:102810004F4D2E0A0055424C2072657365740A00B4
:10282000206C6F616465642066726F6D2073746FD5
:10283000726167652E0A004D65736820003F436131
:102840006E277420656E61626C6520002073746F62
:102850007265642073657474696E67732072657441
:10286000726965766564202800202863616C637551
:102870006C6174656429210A0020213D20004545D2
:1028800050524F4D20435243206D69736D61746304
:1028900068202D202873746F726564292000496EAA
:1028A0006465783A2000204D61726C696E3D563740
:1028B00034290A00454550524F4D207665727369A0
:1028C0006F6E206D69736D61746368202845455093
:1028D000524F4D3D00000066430000664300007A01
:1028E00043000020C10000A0C00000000050726939
:1028F0006E742066726F6D204D6564696100446975
:102900007361626C6552756E6F757400496E7365A4
:1029100072742066696C616D656E7420616E6420EE
:1029200073656E64204D3130380A004D6F76652036
:1029300025736D6D004D6F766520302E316D6D0005
:102940004D6F766520316D6D004D6F7665203130AD
:102950006D6D004D6F7665204178697300486F7426
:10296000656E6420746F6F20636F6C6400457874CB
:102970007275646572004D6F7665205A004D6F76F2
:10298000652059004D6F76652058004368616E6779
:10299000652046696C616D656E7400556E6C6F6183
:1029A000642046696C616D656E74004C6F616420D3
:1029B00046696C616D656E7400507265686561741E
:1029C0002050455447005072656865617420504C32
:1029D00041005072656865617420437573746F6D52
:1029E000004261636B00486F6D6520257325732578
:1029F0007320466972737400626567696E00507572
:102A00007267654D6F726500436F6E74696E7565B0
:102A1000004C6F61642046696C616D656E74205472
:102A200000220A00556E6B6E6F776E20636F6D6DBE
:102A3000616E643A20220000002100240027002A51
:102A4000002D003000330001010000040107010ADD
:102A50000100002200250028002B002E0031003448
:102A60000002010000050108010B01000020002305
:102A700000260029002C002F003200000100000376
:102A800001060109010505050507050808080802F2
:102A90000202020A0A0808040404040101010101F7
:102AA0000101010303030303030303040707070CE6
:102AB0000C0C0C0C0C0C0C0202020206060606069C
:102AC0000606060B0B0B0B0B0B0B0B010210202049
:102AD0000808102040102040800201020108040272
:102AE00001010204081020408080402010080402E8
:102AF0000180040201804020100804020108040241
:102B00000101020408102040800102040810204046
:102B10008000000A0B02090C0D0E080703040100D7
:102B200000000000000000000000000000000000A5
:102B30000000000000000000000000000012111062
:102B40000000000000000000000000000000000085
:102B5000000000000000005374616E646172642024
:102B6000446576696174696F6E3A20003F20616444
:102B70006472657373203A20002062797465732053
:102B80006F66206D656D6F727920696E6974696119
:102B90006C697A65642E0A0A00556E61626C652064
:102BA000746F20696E697469616C697A652E0A0AAE
:102BB00000496E697469616C697A696E6720667232
:102BC0006565206D656D6F727920626C6F636B2E29
:102BD0000A0A0A00747275650A00207265747572BB
:102BE0006E3D000A4D656D6F727920436F7272758C
:102BF0007074696F6E2064657465637465642069C0
:102C00006E2066726565206D656D6F7279206172E8
:102C100065612E0A002020626C6F636B5F666F75C2
:102C20006E643D002020200A002920666F756E64C6
:102C30003D002020204D656D6F727920636F7272A8
:102C4000757074696F6E2064657465637465642063
:102C50007769746820656E645F667265655F6D652F
:102C60006D6F72793C486561700A0020656E645F23
:102C7000667265655F6D656D6F7279203C20486591
:102C8000617020002020656E645F667265655F6D0F
:102C9000656D6F72793D000A667265655F6D656D81
:102CA0006F72795F73746172743D000A666D632898
:102CB00029206E3D00636865636B5F666F725F66B7
:102CC0007265655F6D656D6F72795F636F72727546
:102CD0007074696F6E2829203D20004D31303020FE
:102CE00046200020627974657320617420000A4CCC
:102CF000617267657374206672656520626C6F63CC
:102D00006B20697320002062797465732066726598
:102D1000652061742000466F756E6420000A436F61
:102D20007272757074696E67206164647265737322
:102D30003A2000436F7272757074696E6720667214
:102D40006565206D656D6F727920626C6F636B2EA7
:102D50000A0A000A537461636B20506F696E7465D0
:102D6000722020202020202020203A20000A667295
:102D700065655F6D656D6F72795F656E642020209B
:102D8000202020203A20000A667265655F6D656D1F
:102D90006F72795F737461727420202020203A2052
:102DA000000A6273735F656E64202020202020205B
:102DB00020202020202020203A200020284E6F7440
:102DC00020796574206D65617375726564290020D2
:102DD0002041766572616765206D65617375726506
:102DE00064206261636B6C61736820286D6D293AA1
:102DF000002020536D6F6F7468696E6720286D6DB9
:102E0000293A20202020202020202020202020209F
:102E1000202020530020204261636B6C6173682086
:102E200044697374616E636520286D6D293A2020B2
:102E300020202020202000202846312E30203D2038
:102E400066756C6C2C2046302E30203D206E6F6EE7
:102E500065290A002020436F7272656374696F6E82
:102E600020416D6F756E742F466164652D6F7574AA
:102E70003A202020202046006163746976653A0A72
:102E8000004261636B6C61736820436F72726563AB
:102E900074696F6E2000446576696174696F6E00B5
:102EA00025533A202573002052616E67653A200051
:102EB0004D65616E3A200046696E697368656421EC
:102EC0000A002072616E67653A2000207369676DA1
:102ED000613A2000206D65616E3A20003A207A3A0E
:102EE0002000206F662000476F696E6720746F3A7C
:102EF00020580043570A00206469723A0020616E2E
:102F0000676C653A0053746172742072616469750C
:102F1000733A004D343820506F696E740025533A6F
:102F20002025642F256400506F736974696F6E6982
:102F30006E67207468652070726F62652E2E2E0A8F
:102F4000003F4E756D626572206F66206C65677319
:102F500020696E206D6F76656D656E74206E6F747E
:102F600020706C61757369626C652028302D313575
:102F7000292E0A003F2028582C5929206F757420CB
:102F80006F6620626F756E64732E0A003F53616D29
:102F9000706C652073697A65206E6F7420706C6147
:102FA000757369626C652028342D3530292E0A002E
:102FB0004D3438205A2D50726F626520526570650D
:102FC00061746162696C69747920546573740A0074
:102FD0003F2856296572626F7365206C6576656C53
:102FE00020696D706C61757369626C652028302D85
:102FF00034292E0A0020595A3A200020585A3A20E3
:10300000002058593A2000536B657720466163745D
:103010006F72006D696E5F736B65775F6661637475
:103020006F723A20202D31206D61785F736B657768
:103030005F666163746F723A2020310A0020746FFA
:103040006F206C6F6E6720657874727573696F6E30
:103050002070726576656E7465640A0020636F6C1B
:103060006420657874727573696F6E20707265760E
:10307000656E7465640A0054656D7065726174757F
:1030800072650050726F6265205A204F66667365E4
:1030900074004E6F7A7A6C65004D61696E004D3137
:1030A000303920532569004D3139302053256900CE
:1030B0005072656865617420504C4120456E640013
:1030C0005072656865617420504C4120426564000F
:1030D00050726568656174205045544720456E64A0
:1030E0000050726568656174205045544720426500
:1030F0006400436F6F6C646F776E0046616E20539F
:1031000070656564203D00466C6F77004D6573689F
:1031100020456469746F720024F4D43050C38E204B
:10312000C2A24017828B7011127A910D816CD90A5C
:10313000A861E108C7586607615143061E4B5D054B
:10314000C145A7041A411104093D9803713931039F
:103150004036DB0265339102D4305402802E1D02CA
:10316000632CEE01752AC501B028A001102781014A
:103170008F2564012B244B01E0223401AC211F0177
:103180008D200D01801FFC00841EED00971DDF00C7
:10319000B81CD200E61BC600201BBC00641AB2009B
:1031A000B219A8000A19A0006A189900D117910055
:1031B00040178B00B516840031167E00B3157900D8
:1031C0003A157300C7146F0058146A00EE136600B6
:1031D0008813630025135E00C7125B006C12570052
:1031E00015125400C111510070114F0021114B00F4
:1031F000D61049008D1047004610440002104200CE
:10320000C00F4000800F3E00420F3C00060F3B0005
:10321000CB0E3800930E37005C0E3500270E3400BD
:10322000F30D3200C10D3100900D3000600D2E0005
:10323000320D2D00050D2C00D90C2B00AE0C2900F1
:10324000850C29005C0C2700350C27000E0C26008D
:10325000E80B2400C40B2400A00B23007D0B2300EB
:103260005A0B2100390B2100180B2000F80A1F000F
:10327000D90A1E00BB0A1E009D0A1D00800A1D00FF
:10328000630A1C00470A1B002C0A1B00110A1A00C3
:10329000F7091A00DD091900C4091900AB09190062
:1032A000920917007B091800630917004C091600E2
:1032B00036091600200916000A091500F508150040
:1032C000E0081400CC081400B8081400A408140086
:1032D000900813007D0812006B08130058081200B4
:1032E00046081200340811002308110012081100CA
:1032F00001081100F0071000E0071000D0071000CF
:10330000C0071000B0070F00A107100091070E00C2
:1033100083070F0074070F0065070E0057070E00A4
:1033200049070E003B070D002E070E0020070D0079
:1033300013070D0006070D00F9060C00ED060D0041
:10334000E0060C00D4060C00C8060C00BC060C00FD
:10335000B0060C00A4060B0099060C008D060B00AD
:1033600082060B0077060B006C060B0061060A0054
:1033700057060B004C060A0042060A0038060A00EF
:103380002E060A0024060A001A060A001006090082
:1033900007060A00FD050900F4050900EB05090010
:1033A000E2050900D9050900D0050900C705090093
:1033B000BE050900B5050800AD050800A505090012
:1033C0009C050800940508008C0508008405080089
:1033D0007C050800740508006C05070065050800F9
:1033E0005D050700560508004E0507004705070064
:1033F0004005080038050700310507002A050700C9
:10340000230507001C050600160507000F05070029
:103410000805060002050700FB040600F504070086
:10342000EE040600E8040600E2040700DB040600E0
:10343000D5040600CF040600C9040600C304060034
:10344000BD040600B7040600B1040500AC04060084
:10345000A6040600A00405009B04060095040500D0
:10346000900406008A040500850405008004060017
:103470007A04050075040500700405006B0405005E
:1034800066040500610405005C040500570405009E
:10349000520405004D0405004804050043040500DE
:1034A0003E0404003A04050035040500300404001D
:1034B0002C04050027040400230405001E04040056
:1034C0001A04040016040500110404000D0404008D
:1034D000090405000404040000040400FC030400C3
:1034E000F8030400F4030400F0030400EC030400F8
:1034F000E8030400E4030400E0030400DC03040028
:10350000D8030400D4030400D0030400CC03040057
:10351000C8030300C503030024F404D9201BC40C12
:103520005C0E9804C4095F0265077101F405F90097
:10353000FB04B30048048700C10369005803550029
:1035400003034500BE023A008402310053022A0000
:103550002902250004022000E4011C00C801190012
:10356000AF011700980114008401130071011000CD
:103570006101100051010E0043010D0036010B00E6
:103580002B010B0020010B00150109000C010900A3
:1035900003010800FB000800F3000800EB0007002F
:1035A000E4000600DE000600D8000600D200060097
:1035B000CC000500C7000500C2000500BD000400E6
:1035C000B9000400B5000400B1000400AD0004001F
:1035D000A9000400A5000300A20003009F0004004E
:1035E0009B00030098000300950002009300030075
:1035F000900003008D0002008B0003008800020091
:103600008600020084000300810002007F000200A7
:103610007D0002007B0002007900020077000100BB
:1036200076000200740002007200010071000200C6
:103630006F0002006D0001006C0002006A000100D2
:1036400069000200670001006600010065000100DA
:1036500064000200620001006100010060000100DE
:103660005F0002005D0001005C0001005B000100E2
:103670005A000100590001005800010057000100E4
:1036800056000100550001005400010053000000E5
:1036900053000100520001005100010050000100E0
:1036A0004F0001004E0000004E0001004D000100DF
:1036B0004C0001004B0000004B0001004A000100DB
:1036C00049000100480000004800010047000100D7
:1036D00046000000460001004500000045000100D2
:1036E00044000100430000004300010042000000CC
:1036F00042000100410000004100010040000100C3
:103700003F0000003F0001003E0000003E000100BD
:103710003D0000003D0001003C0000003C000000B6
:103720003C0001003B0000003B0001003A000000AB
:103730003A000100390000003900010038000000A3
:103740003800000038000100370000003700010099
:103750003600000036000000360001003500000091
:103760003500000035000100340000003400000086
:10377000340001003300000033000000330001007A
:103780003200000032000000320001003100000071
:103790003100000031000100300000003000000066
:1037A000300001002F0000002F0000002F0000005B
:1037B0002F0001002E0000002E0000002E0001004E
:1037C0002D0000002D0000002D0000002D00010044
:1037D0002C0000002C0000002C0000002C00010038
:1037E0002B0000002B0000002B0000002B0001002C
:1037F0002A0000002A0000002A0000002A00010020
:103800002900000029000000290000002900000014
:103810002900010028000000280000002800000006
:1038200028000000280001002700000027000000F9
:1038300027000000270000002700010026000000EC
:1038400026000000260000002600000026000100DF
:1038500025000000250000002500000025000000D4
:1038600025000000250001002400000024000000C5
:1038700024000000240000002400010023000000B8
:1038800023000000230000002300000023000000AC
:10389000230000002300010022000000220000009D
:1038A000220000002200000022000000220001008F
:1038B0002100000021000000210000002100000084
:1038C0002100000021000000210001002000000074
:1038D0002000000020000000200000002000000068
:1038E0002000000020000000200001001F00000058
:1038F0001F0000001F0000001F0000001F0000004C
:103900001F0000001F0001001E0000001E0000003C
:103910001E0000001E000000232C0000B822000042
:10392000561800003A0F0000B8080000B10400006B
:10393000710200003E01000002687474703A2F2F7B
:103940006D61726C696E66772E6F726700204275CA
:10395000696C6420343536004D31303030205300EE
:103960002020506C616E6E657242756666657242AB
:10397000797465733A20002046726565204D656D47
:103980006F72793A2000436F6D70696C65643A20FC
:1039900044656320333020323031390A00204C61D5
:1039A000737420557064617465643A203230313923
:1039B0002D31322D3139207C20417574686F723A77
:1039C00020285665727461627265616B6572290A9E
:1039D000004275696C64203435360A004D61726CA2
:1039E000696E0020536F667477617265205265734B
:1039F00065740A00205761746368646F67205265BC
:103A00007365740A002042726F776E206F757420A0
:103A100052657365740A002045787465726E616C36
:103A20002052657365740A00506F77657255700A8D
:103A3000006175746F25632E670047323700657229
:103A4000726F722077726974696E6720746F206676
:103A5000696C650A00446F6E6520736176696E67F4
:103A60002066696C652E0A004D32390025532025E9
:103A70006320256320256320256300205A3A002017
:103A8000593A00656E6473746F7073206869743A94
:103A900020000400000501000300050100050400EA
:103AA000000005000300A13A9C3A973A923A255348
:103AB0002025692F256900496E76616C6964206D47
:103AC000617020747970652E0A0A003F43616E2789
:103AD0007420616374697661746520616E6420642A
:103AE00065616374697661746520617420746865CA
:103AF0002073616D652074696D652E0A0A00426F3E
:103B00007468205820262059206C6F636174696F97
:103B10006E73206D757374206265207370656369C0
:103B2000666965642E0A0A003F496E76616C6964B5
:103B300020677269642073697A6520284A29207396
:103B400070656369666965642028322D39292E0AFB
:103B50000A003F285029686173652076616C75659D
:103B600020696E76616C69642028302D36292E0A12
:103B70000A003F2856296572626F7365206C65766E
:103B8000656C20696D706C61757369626C65202865
:103B9000302D34292E0A0A003F2852296570657499
:103BA0006974696F6E20636F756E7420696E7661DB
:103BB0006C69642028312B292E0A0A00446F696E33
:103BC0006720473239005D0A0062656420706C61CD
:103BD0006E65206E6F726D616C203D205B00436FDF
:103BE000756C64206E6F7420636F6D706C657465A6
:103BF000204C5346210054696C74696E67206D65D2
:103C0000736820706F696E7420003F4572726F7226
:103C10002070726F62696E6720706F696E742E20FB
:103C200041626F7274696E67206F7065726174694A
:103C30006F6E2E0A00255320332F330054696C74A5
:103C4000696E67206D6573682028332F33290A0059
:103C5000255320322F330054696C74696E67206DD0
:103C60006573682028322F33290A00436F7272650A
:103C7000637465645F5A3D0054696C74696E6720B3
:103C8000506F696E7400255320312F330054696CD6
:103C900074696E67206D6573682028312F33290A97
:103CA0000052756E6F75742053656E736F72005598
:103CB0004E4C4F41442046494C414D454E540046E0
:103CC000494C414D454E54204348414E4745004FD5
:103CD0007574616765205265636F7665727900431C
:103CE0006F6E66696775726174696F6E004D37300B
:103CF0003220542564004D36303020423020542587
:103D000064004D373032203B2564004D3730312080
:103D1000542564004D373032004D373031004D3678
:103D20003030204230005075726765206D6F7265CB
:103D300000524553554D45204F5054494F4E533A2C
:103D4000005052494E5420504155534544002020C4
:103D50004E6F7A7A6C653A20004D31303030005326
:103D6000746F70205072696E7400526573756D6562
:103D7000205072696E740053746F70004D323100C0
:103D80004368616E6765204D6564696100417574C3
:103D90006F7374617274004E6F204D6564696100C9
:103DA00054756E65005061726B696E672E2E2E0021
:103DB00000005761697420666F720066696C616DFE
:103DC000656E74206368616E676500746F2073743C
:103DD000617274005761697420666F720066696C65
:103DE000616D656E7420756E6C6F616400004E6F5E
:103DF0007A7A6C652068656174696E6700506C65DD
:103E000061736520776169742E2E2E0000507265F3
:103E1000737320627574746F6E00746F20686561CF
:103E200074206E6F7A7A6C650000496E73657274E7
:103E30002066696C616D656E7400616E64207072DD
:103E400065737320627574746F6E00746F20636F96
:103E50006E74696E7565005761697420666F7200D3
:103E600066696C616D656E74206C6F6164000050F2
:103E70007265737320427574746F6E00746F207274
:103E80006573756D65207072696E740000576169A5
:103E90007420666F72207072696E7400746F207285
:103EA0006573756D652E2E2E00005761697420664E
:103EB0006F720066696C616D656E742070757267F3
:103EC00065000047323920503420523939392054A6
:103ED000004732380A473239205031004D6F74693B
:103EE0006F6E00372E205361766520426564204D49
:103EF00065736800362E2046696E652054756E65C0
:103F000020416C6C00352E2056616C6964617465CB
:103F1000204D65736800342E2046696E6520547507
:103F20006E6520416C6C00332E2056616C696461B3
:103F30007465204D65736800473239205033205432
:103F40003000322E20536D6172742046696C6C2DE6
:103F5000696E00312E204275696C6420436F6C6479
:103F6000204D657368004732392057004F757470D3
:103F700075742055424C20496E666F0055424C20A6
:103F8000546F6F6C73004F7574707574204D65734A
:103F900068204D6170004D6573682053746F7261C5
:103FA0006765004D657368204564697400537465E6
:103FB000702D42792D537465702055424C00473264
:103FC0003920410041637469766174652055424C23
:103FD0000047323920440044656163746976617436
:103FE000652055424C002568753A253032687500C9
:103FF00025303268753A2530326875004469736D32
:10400000697373005072696E7420506175736564D2
:10401000005061757365205072696E74004D65645F
:1040200069612052656D6F766564004D65646961F4
:1040300020496E736572746564006E6F7469666999
:10404000636174696F6E20003344205072696E742E
:1040500065722052656164792E005072696E7469D0
:104060006E672E2E2E0063616E63656C0050726960
:104070006E742041626F727465640055492041621C
:104080006F72746564004D323520500A4D32340031
:10409000526573756D6500554920506175736500F3
:1040A000726573756D65006563686F3A004572727D
:1040B0006F723A0020204D343231204900202047D1
:1040C0003239204939390A006163746976650A001A
:1040D0002053797374656D2076312E3031200020A5
:1040E00020207C0A004E414E0020202E202020005F
:1040F000207C004C43443A0A004353563A0A0020BD
:10410000666F7220003A0A0A000A42656420546F02
:10411000706F677261706879205265706F72740099
:1041200050726F62696E67204661696C65640A004F
:1041300050726F62696E67204661696C6564004AFF
:10414000756E6374696F6E2044657600457374659F
:1041500070732F6D6D005A73746570732F6D6D00E1
:104160005973746570732F6D6D0058737465707337
:104170002F6D6D00496E697400496E697469616CD8
:10418000697A6520454550524F4D0043616E636525
:104190006C204F626A656374004261636B6C61738B
:1041A000680053746570732F6D6D004A65726B0003
:1041B000416363656C65726174696F6E0056656C0E
:1041C0006F6369747900536D6F6F7468696E67000F
:1041D000436F7272656374696F6E004E6578742008
:1041E000506F696E74004E657874004E4F005945EB
:1041F000530043616E63656C204F626A656374208F
:104200003D00204A00205200454550524F4D204964
:104210006E697469616C697A65640A004D657368DA
:1042200020736176656420696E20736C6F74200062
:104230003F556E61626C6520746F207361766520F6
:104240006D65736820646174612E0A0020736C6F61
:10425000743D00206D65736865735F656E643D0035
:104260004532454E443D00206D65736820736C6F88
:10427000747320617661696C61626C652E0A003F1F
:10428000496E76616C696420736C6F742E0A004D00
:10429000657368206C6F616465642066726F6D2061
:1042A000736C6F7420003F556E61626C6520746F93
:1042B000206C6F6164206D65736820646174612E89
:1042C0000A0048617264636F6465642044656661D6
:1042D000756C742053657474696E6773204C6F61DC
:1042E0006465640A0046616872656E686569740099
:1042F00043656C73697573004B656C76696E005528
:104300006E696669656420426564204C6576656CFB
:10431000696E670020286D6D29002028696E2900CC
:1043200020204D363033200020204D3431322053B0
:104330000046696C616D656E742072756E6F757480
:104340002073656E736F723A0A0020204D34323547
:104350002046004261636B6C61736820636F6D700F
:10436000656E736174696F6E3A0A00205500466984
:104370006C616D656E74206C6F61642F756E6C6F0F
:104380006164206C656E677468733A0A0020204D82
:10439000393030204B004C696E6561722041647683
:1043A000616E63653A0A0020204D3835322049009D
:1043B000536B657720466163746F723A200A002060
:1043C000204D3835312058005A2D50726F626520CB
:1043D0004F66667365740020204D343133205300DE
:1043E000506F7765722D4C6F7373205265636F76D3
:1043F0006572793A0A0020204D3330342050002075
:104400004C0020204D33303120500050494420735F
:10441000657474696E67733A0A0020480020204D65
:104420003134352053004D6174657269616C2068C8
:10443000656174757020706172616D657465727309
:104440003A0A00206D65736865732E0A0A004545B7
:1044500050524F4D2063616E20686F6C6420000ADB
:10446000416374697665204D65736820536C6F7481
:104470003A200020204D34323020530020204D328D
:104480003035204200204A3C6A756E635F64657671
:104490003E00416476616E6365643A20423C6D691A
:1044A0006E5F7365676D656E745F74696D655F756A
:1044B000733E20533C6D696E5F666565647261741E
:1044C000653E20543C6D696E5F74726176656C5F09
:1044D00066656564726174653E0020204D3230343B
:1044E000205000416363656C65726174696F6E2072
:1044F00028756E6974732F7332293A20503C70729C
:10450000696E745F616363656C3E20523C726574D2
:10451000726163745F616363656C3E20543C7472C6
:104520006176656C5F616363656C3E0A0020204DB7
:104530003230312058004D6178696D756D204163CE
:1045400063656C65726174696F6E2028756E69743D
:10455000732F7332293A0A0020204D32303320580D
:10456000004D6178696D756D206665656472617472
:1045700065732028756E6974732F73293A0A005386
:10458000746570732070657220756E69743A0A00E4
:10459000203B20556E69747320696E200020204DE9
:1045A0003134392000203B002020473200486F6D15
:1045B000696E67204661696C6564006F70656E00A6
:1045C0005452494747455245440066696C616D65E0
:1045D0006E74007A5F6D696E00795F6D696E007848
:1045E0005F6D696E005265706F7274696E672065E9
:1045F0006E6473746F70207374617475730A000055
:10460000004843000048430000A0400000F0410083
:1046100000A0420000A0420000C8430000C442D0F5
:10462000070000D007000064000000A00F00004455
:104630006966663A200046726F6D5374703A005393
:104640007465707065723A00556E4C6576656C3AAB
:10465000004C6576656C65643A005261773A2020BB
:104660002020000A4C6F676963616C3A00436F75E4
:104670006E7420453A004361703A0050726F626573
:10468000204F6666736574205A0050726F62652011
:104690004F66667365745A3A20003F5A206F7574EE
:1046A000206F662072616E67652028003F59206F79
:1046B0007574206F662072616E676520282D003F3B
:1046C00058206F7574206F662072616E67652028B0
:1046D0002D0050726F6265204F66667365742058B6
:1046E00000656E7175657565696E672022006F6B78
:1046F00000526573656E643A200042656420436F22
:104700006F6C696E672E2E2E0042656420486561CD
:1047100074696E672E2E2E00453100626564002C90
:104720002073797374656D2073746F707065642184
:10473000204865617465725F49443A2000486561AC
:1047400074696E67204661696C65640048656174D0
:10475000696E67206661696C656400202D20496E72
:1047600076616C6964206578747275646572206E18
:10477000756D62657220210A004572723A204D41C2
:104780005854454D50004D415854454D5020747279
:1047900069676765726564004572723A204D494EDB
:1047A00054454D50004D494E54454D50207472694A
:1047B000676765726564004D3834204500202F001E
:1047C0002042403A0020403A0070012C019001271D
:1047D00001B0012201C0011D01F0011801100213F6
:1047E0000130020E016002090190020401C002FFC3
:1047F000000003FA004003F5008003F000D003EB53
:10480000002004E6007004E100E004DC004005D76D
:1048100000C005D2004006CD00D006C8008007C306
:10482000003008BE00F008B900C009B400B00AAFFB
:1048300000B00BAA00D00CA500000EA000500F9BEA
:1048400000C01096005012910000148C00C0158713
:1048500000B0178200B0197D00D01B7800001E73D5
:104860000040206E0090226900F024640040275F21
:104870000090295A00E02B5500102E500020304B9C
:104880000010324600E033410090353C00103737CD
:104890000070383200A0392D00B03A2800A03B2328
:1048A00000603C1E00103D1900903D1400103E0FAA
:1048B00000703E0A00C03E0500003F0000403FFB84
:1048C000FF803FF6FFC03FF1FF3F0043616E63652D
:1048D0006C004F6E005374617274205072696E7474
:1048E0000043616E6E6F7420656E7465722073751F
:1048F000626469723A2000052E2E00536F667420A0
:10490000456E6473746F7073004D3834004469737E
:1049100061626C6520537465707065727300473214
:10492000380A4D343820503130004D343820507220
:104930006F62652054657374004C6576656C204326
:104940006F726E65727300473238205A00486F6D7F
:1049500065205A00473238205900486F6D6520594C
:1049600000473238205800486F6D65205800417567
:10497000746F20486F6D65002053697A653A200096
:1049800043616E6E6F74206F70656E207375626424
:104990006972200053442063617264206F6B0A00C7
:1049A0006F70656E526F6F74206661696C65640A22
:1049B00000766F6C756D652E696E6974206661692D
:1049C0006C65640A00534420696E697420666169ED
:1049D0006C0A004D32332025730046696C652073E4
:1049E000656C65637465640A0046696C65206F7068
:1049F000656E65643A2000454E4420535542524F3F
:104A00005554494E450A002220706F7300222070D1
:104A10006172656E743A2200535542524F555449A3
:104A20004E452043414C4C207461726765743A22B4
:104A300000747279696E6720746F2063616C6C20FA
:104A40007375622D67636F64652066696C6573209A
:104A50007769746820746F6F206D616E79206C6562
:104A600076656C732E204D4158206C6576656C2000
:104A700069733A310A0057726974696E6720746FFE
:104A80002066696C653A200044656C6574696F6ED8
:104A9000206661696C65642C2046696C653A20006B
:104AA00046696C652064656C657465643A005344BE
:104AB000207072696E74696E672062797465200077
:104AC0004E6F74205344207072696E74696E670A69
:104AD00000667265736800646F696E67004E6F7779
:104AE00020004D313137204D657368202569204CF9
:104AF0006F6164656400473239204C2569004D318F
:104B00003137204D657368202569205361766564CF
:104B10000047323920532569004C6F61642042659B
:104B200064204D657368004D656D6F727920536C1C
:104B30006F74004E6F2053746F7261676500486F29
:104B40006D696E672058595A004732392050342019
:104B5000582573205925732052256900202D2D2DAD
:104B60002D2D004732380047323920532D31004F68
:104B70006666205072696E746572204261636B755F
:104B80007000473239205431004F757470757420AD
:104B9000666F722043535600473239205430004F1D
:104BA000757470757420666F7220486F7374004559
:104BB000646974204D65736800473239204939397A
:104BC000390A4732392050322042205430004D619A
:104BD0006E75616C6C79204275696C64204D6573EB
:104BE0006800FFFDFCFAF8F6F4F2F0EEECEAE9E713
:104BF000E5E3E1E0DEDCDAD9D7D5D4D2D0CFCDCB36
:104C0000CAC8C7C5C3C2C0BFBDBCBAB9B7B6B4B3C2
:104C1000B2B0AFADACAAA9A8A6A5A4A2A1A09E9D22
:104C20009C9A99989795949392908F8E8D8B8A8960
:104C300088878684838281807F7E7D7B7A7978777E
:104C4000767574737271706F6E6D6C6B6A6968677C
:104C5000666564636261605F5E5D5C5B5A5958586B
:104C60005756555453525150504F4E4D4C4B4A4A43
:104C70004948474646454443424241403F3E3E3D07
:104C80003C3B3B3A393838373635353433323231BC
:104C900030302F2E2E2D2C2B2B2A29292827272662
:104CA000252524232322212120201F1E1E1D1C1CFC
:104CB0001B1B1A1919181817161615151413131289
:104CC000121111100F0F0E0E0D0D0C0C0B0A0A090C
:104CD0000908080707060605050404030302020184
:104CE00000006F70656E206661696C65642C2046FB
:104CF000696C653A2000544845524D414C2052554C
:104D00004E4157415900546865726D616C2052756F
:104D10006E6177617900706F7765726F66660050BB
:104D20006C65617365205265736574005052494E1D
:104D30005445522048414C5445440025533A2025BF
:104D400053004B494C4C45442E20005072696E7400
:104D500065722068616C7465642E206B696C6C28C8
:104D6000292063616C6C6564210A000068011601EA
:104D700011241FBECFEFD1E2DEBFCDBF00E00CBFDC
:104D800013E0A0E0B2E0E6E5FEE403E00BBF02C002
:104D900007900D92A03AB107D9F728E1A0EAB3E055
:104DA00001C01D92AD37B207E1F716E2C7EBD6E2BC
:104DB00000E006C021970109802FFE010F949FA2F9
:104DC000C63BD10780E00807A9F70F94258F0D9403
:104DD00019A70C9400002F923F924F925F926F920E
:104DE0007F928F929F92AF92BF92CF92DF92EF927B
:104DF000FF920F931F93CF93DF93CDB7DEB7E0976A
:104E00000FB6F894DEBF0FBECDBF8FA72091460628
:104E10002CA781E08093460680919D128D3409F481
:104E20006EC3843511F40C94F038873411F00C946F
:104E30000B3980919B1290919C128B31910509F452
:104E400031C1BCF48430910509F4E3C01CF402972D
:104E500078F151C38431910509F41AC18531910566
:104E600009F41BC10C9709F046C30E9461AD0C9474
:104E70000D398A32910509F48CC254F48D319105B3
:104E800009F43AC10CF428C14E9709F439C133C36F
:104E90008B35910509F4F7C18C35910509F4F8C1FA
:104EA0008A35910509F027C3109273140C940D39BB
:104EB00080915F02882311F40C940D396DE1A62EC8
:104EC00063E0B62E75E7C72E72E0D72EE1EAEE2E2C
:104ED000E5E0FE2E10E0D5018D915D010E943E5C63
:104EE000882349F1812F0E9436DA762E872E982E5C
:104EF000092F80917D0D81111EC0812F0E9482A8F3
:104F0000882371F0D6012D913D914D915C91672DD3
:104F1000782D892D902F0F94A8A2762E872E02C06F
:104F2000892D902F472D582DBC01F70140835183C7
:104F3000628373830AC0F60180819181A281B3816B
:104F4000F70180839183A283B3831F5FF4E0CF0EC8
:104F5000D11C24E0E20EF11C133009F0BCCF85E433
:104F60000E943E5C882321F183E00E9436DA7B01B7
:104F70008C0183E00E9482A8882371F02091810235
:104F8000309182024091830250918402B701C8019E
:104F90000F94A8A27B0101C0C801A701BC014093E6
:104FA000AD055093AE056093AF057093B00510C08A
:104FB0008091810290918202A0918302B09184023B
:104FC0008093AD059093AE05A093AF05B093B00567
:104FD00040E050E0BA0186E40E94EA7D20E030E043
:104FE000A9010F946FA4181684F40E94315C20E08C
:104FF00030E040E752E40F9430A360937102709365
:10500000720280937302909374020E9496940C949F
:105010000D3980E50E943E5C882329F00E9455DA14
:105020006B017C0103C0C12CD12C760183E50E9469
:105030003E5C882361F00E94FA5B20E030E04AE7A2
:1050400054E40F940A9C0F94A9A36B017C010F9464
:10505000E78380914615811105C060E08CE397E0FD
:105060000F94CF370F94F50DC60ED71EE81EF91E0C
:105070000F94F50DDC01CB018C199D09AE09BF0918
:10508000B7FD02C00C940D3980E00E941641F0CFAC
:1050900081E00F94405C0C940D3980E00F94405CEB
:1050A0000C940D390E9401D481110C940D398CE0BF
:1050B000E9E8F2E0DE01119601900D928A95E1F7A0
:1050C00060E070E080E50E944EADBE016F5F7F4FF3
:1050D0000F94C7300C940D398091A00587708730EC
:1050E00011F00C94163960E08FE40E94317E81113A
:1050F0000C940D390C9416390E94A7630C940D3949
:105100002091631430916414409165145091661499
:105110006091750270917602809177029091780289
:105120000F94A8A2AB01BC0188E50E94EA7D6983C7
:105130007A838B839C83209167143091681440910B
:10514000691450916A146091790270917A02809189
:105150007B0290917C020F94A8A2AB01BC0189E56F
:105160000E94EA7D6D837E838F839887BE016B5F8B
:105170007F4FCE0101960F94EF3E882311F40C94DB
:105180000D3980E00F947A400E942B9061E085E415
:105190000E94317E182F21E041E0682FCE01019658
:1051A0000F9456446B017C019B01AC010F9450A5F8
:1051B00081115FC089809A80AB80BC8020E030E0A4
:1051C000A901C501B4010F94A49B87FD05C027E187
:1051D00037EB41E558E304C027E137EB41E558EBF5
:1051E000C501B4010F94A8A2AB01BC018FE897E000
:1051F0000F9411448D809E80AF80B88420E030E011
:10520000A901C501B4010F94A49B87FD05C027E146
:1052100037EB41E558E304C027E137EB41E558EBB4
:10522000C501B4010F94A8A2AB01BC018AE897E0C4
:105230000F94114420E030E0A901C701B6010F949A
:10524000A49B87FD05C027E137EB41E558E304C087
:1052500027E137EB41E558EBC701B6010F94A8A24F
:10526000AB01BC0185E897E00F9411448AE00E94ED
:10527000D33F0E941290113011F40F942A810E94A2
:1052800015940C940D398FE0809373140C940D39A0
:1052900080919A12882351F1893009F076C03DE15E
:1052A000C32E33E0D32E45E7E42E42E0F42E312C1A
:1052B00000E010E0D6018D916D010E943E5C8823D4
:1052C00071F0812F0E9436DAF70160837183828347
:1052D0009383133019F03324339401C001E01F5F2E
:1052E000F4E0EF0EF11C143029F744C09DE1C92E03
:1052F00093E0D92E25E7E22E22E0F22E312C00E0B9
:1053000010E0D6018D916D010E943E5C882361F111
:10531000812F0E9436DA4B015C01F7012081318137
:10532000428153810F94A7A22B013C012DEB37E35F
:1053300046E855EB0F946FA487FD0AC02DEB37E3C9
:1053400046E855E3C301B2010F94A49B181664F418
:10535000133019F03324339401C001E0D7018D924A
:105360009D92AD92BC9213971F5FB4E0EB0EF11CBF
:10537000143039F6332019F00E94E39206C000235E
:1053800021F081E892E00F94F8830E9415940C9428
:105390000D3980915F02882311F40C940D3989E452
:1053A0000E943E5C082F882321F00E94F65BE82EC5
:1053B00001C0E12C8AE40E943E5C182F882321F072
:1053C0000E94F65BF82E01C0F12C002319F0E4E0F6
:1053D000EE1528F0112349F0F4E0FF1530F487E9C9
:1053E00097E00F949D410C940D3980E1E5E7F2E0E0
:1053F000A1EAB5E001900D928A95E1F7002359F0FA
:105400008E2D0F94D13C6093A1057093A2058093DB
:10541000A3059093A405112359F08F2D0F94D13C2F
:105420006093A5057093A6058093A7059093A805A2
:1054300060E080E50E94317E8823C1F10023D1F035
:105440002091631430916414409165145091661456
:105450006091A1057091A2058091A3059091A4058A
:105460000F94A7A26093A1057093A2058093A30552
:105470009093A4051123D1F0209167143091681402
:105480004091691450916A146091A5057091A60528
:105490008091A7059091A8050F94A7A26093A505F8
:1054A0007093A6058093A7059093A80540E050E06F
:1054B000BA0186E40E94EA7D6B017C0120E030E0C5
:1054C000A9010F946FA418164CF420E030E040E7D7
:1054D00052E4C701B6010F9430A303C060E070E04E
:1054E000CB0169837A838B839C83CE0101960E94D2
:1054F000329F0C940D390E9487D20C940D39809103
:105500009B1290919C128C38910509F481C60CF085
:105510002CC18135910509F4C1C60CF097C08B31BF
:10552000910509F4ACC30CF053C08531910509F421
:1055300006C39CF58131910509F4E4C22CF402976D
:1055400008F45DC20C94ED388231910509F4C3C6AC
:10555000449711F00C94ED3883EF97E00F949D4140
:1055600089EC96E10E9477B68BE1E9ECF6E1DE0189
:10557000119601900D928A95E1F760E070E0CE01FE
:1055800001960F947C77CE0101960E94507E84EEA6
:1055900097E00F949D410C940D398831910509F4E1
:1055A000EDC26CF48631910509F4CDC2479711F034
:1055B0000C94ED38E0919812F0919912D1C2893192
:1055C000910509F443C34A9709F44BC30C94ED3891
:1055D0008A32910509F491C4ECF48E31910509F4F5
:1055E000A8C37CF48C31910509F49BC34D9711F04D
:1055F0000C94ED388091AC168E7F8093AC160C9491
:105600000D398F31910509F4CDC3809709F4A1C3F9
:105610000C94ED388B34910509F4A9C454F480330B
:10562000910509F48DC48934910509F48DC40C9455
:10563000ED388C34910509F49EC48D34910511F038
:105640000C94ED380E94B8CC0C940D398D36910530
:1056500009F4BDC40CF042C08436910509F48FC42E
:105660001CF58435910509F436C68CF48235910514
:1056700009F42AC68335910511F00C94ED38809118
:1056800073148F7E8062809373140C940D3985356A
:10569000910509F456C68C35910511F00C94ED383E
:1056A0000E9480B20C940D398A36910509F400C528
:1056B00054F48836910509F466C48936910509F4D5
:1056C000E3C40C94ED388B36910509F415C58C367E
:1056D000910511F40C940D390C94ED388337910534
:1056E00009F448C6ECF48037910511F40C940D3997
:1056F00054F48E36910509F40EC58F36910509F4E0
:105700001DC50C94ED388137910509F45CC58237CD
:10571000910511F00C94ED380F94285D0C940D391F
:105720008737910509F4D2C68CF48537910509F4C1
:105730008AC68637910511F00C94ED3800919812C5
:105740001091991294E0F12C40E0A4C6893791059C
:1057500009F4C7C60CF4BDC68D37910511F00C9441
:10576000ED380E9490AC0C940D398A3921E09207F3
:1057700011F40C940D390CF090C0823E910509F49F
:10578000DEC7D4F58B3C910509F44DC7CCF48B39B9
:10579000910509F45DC554F48139910509F4A8C651
:1057A0008539910509F4FDC60C94ED388E3B9105C1
:1057B00009F44BC5893C910509F40EC70C94ED38EA
:1057C000833D910509F460C76CF48C3C910509F4A4
:1057D0004DC78D3C910511F00C94ED380E94A7B097
:1057E0000C940D398C3D910509F451C78D3D9105FF
:1057F00009F45AC70C94ED388F32A1E09A0711F4DE
:105800000C94513514F58C32E1E09E0711F40C94A0
:10581000823474F4883121E0920709F4DCC78232C3
:10582000914011F00C94ED380F946A5C0C940D3992
:105830008D32A1E09A0711F40C9497348E32914086
:1058400011F40C940D350C94ED388039E1E09E078D
:1058500011F40C9454356CF4803321E0920711F468
:105860000C949A348336914011F40C9491380C9432
:10587000ED388139A1E09A0711F40C94573582393B
:10588000914011F00C94ED3880E00F9472810F94E8
:105890002A810E9415940C940D398C30E2E09E0709
:1058A00011F40C948C360CF04DC0863E21E092072A
:1058B00011F40C9400361CF5843AA1E09A0711F417
:1058C0000C9467356CF48C39E1E09E0711F40C946C
:1058D0005D358D39914011F40C94D3380C94ED382A
:1058E000853A21E0920711F40C946A35893A914087
:1058F00011F00C94ED380E9422E00C940D39863F93
:10590000A1E09A0711F40C946F367CF4843FE1E037
:105910009E0711F40C946C36853F914011F00C9465
:10592000ED380F9478510C940D39873F21E09207A0
:1059300011F40C947236883F914011F40C947B362C
:105940000C94ED388335A3E09A0711F40C941237C8
:105950001CF58B35E2E09E0711F40C9418377CF4AB
:105960008F3322E0920711F40C94943688359240DC
:1059700011F00C94ED380E9487AB0C940D398D3BDF
:10598000A2E09A0711F40C9492378E3B924011F4E6
:105990000C9495370C94ED388438E3E09E0711F4AD
:1059A0000C9455386CF4843523E0920711F40C9470
:1059B00015378C36934011F40C940D390C94ED3856
:1059C000873EA3E09A0711F40C94C538883EB3E0F3
:1059D0009B0711F40C94EA38803A934011F00C9430
:1059E000ED3820919812309199129091AC169260F6
:1059F0009093AC16C9010F9450760C940D39A09079
:105A00009812B090991280E50E943E5C882359F06C
:105A10000E9455DA6B017C0111E0672B682B692B22
:105A200031F410E004C010E0C12CD12C760183E5E4
:105A30000E943E5C882311F40C940E3B0E94FA5B9A
:105A400020E030E04AE754E40F940A9C0F94A9A3A5
:105A50006B017C0111110BC0672B682B692B39F48A
:105A6000A114B10421F0D5018C91811102C010E084
:105A700001C011E00F94E783112329F061E0C50113
:105A80000F94853805C060E088EC97E00F94CF371D
:105A90001091460683E08093460681E08093450698
:105AA00048E05AE266EB77E082E00E942E80C11463
:105AB000D104E104F104B1F00F94F50DC60ED71E28
:105AC000E81EF91E0F94F50DDC01CB018C199D0920
:105AD000AE09BF09B7FF0EC08091450681110C9435
