:100000000C944E270C947F270C947F270C947F2709
:100010000C947F270C947F270C947F270C947F27C8
:100020000C947F270C947F270C947F270C947F27B8
:100030000C947F270D9408740C947F270C947F27D1
:100040000C947F270D94F58F0C947F270C947F27B9
:100050000C947F270C947F270C942DCC0D948298C0
:100060000C947F270C94F6470C94EC470C947F2754
:100070000C947F270C947F270C947F270C947F2768
:100080000C94C73F0C947F270C947F270C947F27F8
:100090000C947F270C947F270C947F270C947F2748
:1000A0000C947F270C947F270C94993F0C947F2706
:1000B0000C947F270C947F270C947F270C946B3F24
:1000C0000C947F270C947F270C947F270C947F2718
:1000D0000C947F270C947F270C947F270C947F2708
:1000E0000C947F272C483248444854485C488C483C
:1000F00060488C48644868488C486C48704874482C
:100100007D488C48884872597959285A365B7E5CFC
:10011000875C975C986A716A746A9B6A776A7A6A84
:100120007D6A896A806A966A836A866A66024C0278
:10013000B0020602E802AE026202AC01C601E201B0
:1001400044019601D4025202AE02BE013C025802A2
:100150007E021C012801DC0242018C02C602CE0193
:10016000DA0120025C0288022C0270028C02EA0290
:100170008C01620105A84CCDB2D44EB93836A90223
:100180000C50B9918688083CA6AAAA2ABE00000095
:10019000803F07634236B79BD8A71A39685618AE16
:1001A000BAAB558C1D3CB7CC5763BD6DEDFD753EAC
:1001B000F6177231BF000000803F08000000BE92B9
:1001C0002449123EABAAAA2ABECDCCCC4C3E00009C
:1001D0000080BEABAAAAAA3E00000000BF0000003B
:1001E000803F0000000000084178D3BB4387D11353
:1001F0003D190E3CC3BD4282AD2B3E68EC8276BEFB
:10020000D98FE1A93E4C80EFFFBE01C4FF7F3F00C4
:10021000000000000C944B720D9459240C94FF685C
:100220000C9453C20C94DB710D94E82B0C940B725C
:100230000C94A2680D94E1260D94A1970C94B971C9
:100240000C94B3740D94C4740C948EE40C94F58FD8
:100250000D94A6970C94866A0C94D38E0C94A98D59
:100260000C9452910D9465250C94BFD50C94285A8A
:100270000D9471230C94F6680C942B630D94CE426C
:100280000C9463720D94BA970D9488950C944F61F9
:100290000C948FE40C94C6930C9404670C947A73BA
:1002A0000D948C230C94836A0C942D630C94BFE6FC
:1002B0000C946D710D948F250C9444480C9434C2A9
:1002C0000C940E730D9429980D94C5730C946A7A4E
:1002D0000C9462F80D9424750C9441E70C94FD7114
:1002E0000C9481730C9466F70D94DD230C94A98C07
:1002F0000C9439FF0C94D3690C94776A0C94746A4B
:100300000C94F8660C9400E70D944A290C9483E849
:100310000D9481670C94F45E0D941F980C94856E77
:100320000C941E720C94966A0D94A7230D948E95CE
:100330000C94BB690C944CFF0C94F2F50C94846102
:100340000C9447FF0C9472C00D9446250C943BC24C
:100350000C944C910D9470250D947A950C948261B7
:100360000C948C780C940F750C945C480C94704829
:100370000C9469720C948C480C9472590D949C9551
:100380000D9427990C9432480C947D6A0D948095B5
:100390000C944CE80D94B1740C9441C20D94CC971C
:1003A0000C9484C60C94868E0D9472730C940F92E8
:1003B0000C9460480D94D4970C949E660C947B5FCB
:1003C0000C94DF690D9484950C94D38C0C94825D0D
:1003D0000C94BFC40C9453C10C9497710C9442FFBD
:1003E0000D9424260C94C7710C9464480C94B9E5C0
:1003F0000C943DEC0C9421610C947DE80C947448B1
:100400000C9462FB0C94A4E40C94875C0D946595A9
:100410000C947B720C945AC20C949B6A0C9479597C
:100420000C940D690C9407690C9463C00C94C5D5A9
:100430000C94EF710C94DB690D94D9730C9441F911
:100440000D94DE970C9469C00C9475720C946C48F2
:100450000C9420630C94F98C0D9401980C94C3694E
:100460000C942F630C9451610C9451720C947CEE9B
:100470000D94A7730C94365B0D94A0950C94469143
:100480000C946FC00C946F720C943EFF0C944572E8
:100490000D94B2740C9473730D9472950C942C4853
:1004A0000C945D720D9496950C94D7690C945DC074
:1004B0000D94A4950C9468480D94E8970D94B76634
:1004C0000C94B68F0D9476950C947E5C0D946F957C
:1004D0000C947E680D9456230C9457C00C941A719A
:1004E0000D940B980C9454480C94F2660D94C2230E
:1004F0000C9447C20C943F720C9431630D949C97FA
:100500000C94BF690C94AD8C0C9457C20C94187366
:100510000D94F2970D9497250D9433980C94FA90BE
:100520000D9402250C94FE660C9422630C944DC22B
:100530000C9474680C94C2D50C947E610C94D59282
:100540000D9445990C947A6A0C9457720C94DF7749
:100550000C947D480C9422720D94E52B0D94A99572
:100560000D9461950C9483680D94004D0C94527316
:100570000C94E16C0C94CB690C9483710C9458919D
:100580000C9435730C9480610C9488480D94C49736
:100590000C9479680C94B8C70D949C730C94C7693B
:1005A0000C94D9D60D94DF660D9492950C94AB7192
:1005B0000C94975C0C9469730D94B0970C94CF696C
:1005C0000D9443260C9440610C94896A0C945DF45C
:1005D0000D946B950D9415980C94AF740C94806ADF
:1005E0000C949BE50C94716A0C94865F0C94986A49
:1005F0004E414E494E495459494E46CDCCCC3D0A08
:10060000D7233C17B7D13877CC2B329595E6241FEA
:10061000B14F0A000020410000C84200401C4620A3
:10062000BCBE4CCA1B0E5AAEC59D7400407A10F376
:100630005A00A0724E18090010A5D4E80000E87610
:1006400048170000E40B54020000CA9A3B00000067
:10065000E1F505000080969800000040420F000080
:1006600000A08601000000102700000000E8030041
:100670000000006400000000000A0000000000010B
:1006800000000000002C76D888DC674F0823DFC10B
:10069000DFAE59E1B1B796E5E3E453C63AE65199C6
:1006A0007696E8E6C28426EB898C9B62ED407C6FEF
:1006B000FCEFBC9C9F40F2BAA56FA5F490055A2AA6
:1006C000F75C936B6CF9676DC11BFCE0E40D47FEB2
:1006D000F520E6B500D0ED902E03009435770500A7
:1006E00080841E080000204E0A000000C80C33332E
:1006F00033330F986E12831141EF8D2114893BE63D
:100700005516CFFEE6DB18D1844B381BF77C1D90C5
:100710001DA4BBE424203284725E228100C9F1242E
:10072000ECA1E53D27434F4D4D554E4943415449BA
:100730004F4E0044525952554E004552524F52535B
:10074000004543484F0020643A0020693A00207079
:100750003A00536C6565702E2E2E005A2050726F31
:1007600062652050617374204265640A005A20500B
:10077000726F626520506173742042656400486F37
:100780006D652058592066697273740A00486F6D50
:100790006520585920466972737400205A3A200027
:1007A00020593A200042656420583A20004D657374
:1007B0006820706F696E742063616E6E6F74206262
:1007C00065207265736F6C7665640A004D302F3159
:1007D00020427265616B2043616C6C656400436C00
:1007E00069636B20746F20526573756D652E2E2EB4
:1007F000004E6F204D6F76652E00456E6420666951
:100800006C65206C6973740A00426567696E2066C6
:10081000696C65206C6973740A00526573756D6943
:100820006E6720534400286E6F2066696C6529004E
:1008300043757272656E742066696C653A20002596
:10084000697920256964202569682025696D20253E
:100850006973005072696E742074696D653A200086
:1008600044454255473A004D31313320530033441B
:10087000205072696E746572204F46462E004348C0
:10088000414D4245525F54454D5045524154555299
:1008900045004D4F54494F4E5F4D4F444553005412
:1008A0004845524D414C5F50524F54454354494F77
:1008B0004E004155544F5245504F52545F53445F80
:1008C0005354415455530050524F4D50545F53555B
:1008D00050504F525400454D455247454E43595F85
:1008E00050415253455200434153455F4C4947489C
:1008F000545F4252494748544E45535300544F4762
:10090000474C455F4C494748545300534F46545752
:100910004152455F504F574552004255494C445F44
:1009200050455243454E54004C4556454C494E4760
:100930005F44415441005A5F50524F424500415577
:10094000544F4C4556454C005052494E545F4A4F07
:10095000420050524F4752455353004155544F5255
:1009600045504F52545F54454D5000564F4C554DD5
:1009700045545249430042494E4152595F46494C01
:10098000455F5452414E53464552005345524941EA
:100990004C5F584F4E5F584F4646004649524D57A0
:1009A0004152455F4E414D453A4D61726C696E2032
:1009B0004275696C6420343536202847697448755F
:1009C000622920534F555243455F434F44455F557D
:1009D000524C3A68747470733A2F2F676974687553
:1009E000622E636F6D2F5665727461627265616B02
:1009F0002F4D61726C696E2050524F544F434F4CD3
:100A00005F56455253494F4E3A312E30204D4143A7
:100A100048494E455F545950453A33442050726915
:100A20006E7465722045585452554445525F434F89
:100A3000554E543A3220555549443A38333666615A
:100A40003934332D313333372D313333372D31337F
:100A500033372D3938613230646537353630370AEF
:100A6000002F2F20004D31343520533C696E6465D2
:100A7000783E206F7574206F662072616E67652006
:100A800028302D31290A0020466C6F773A2000501B
:100A9000726F7465637465642050696E0A00206F1C
:100AA0007574206F662072616E67650A0020536559
:100AB00072766F20006469730043290A0061626CDA
:100AC000656420286D696E2074656D702000436F29
:100AD0006C6420657874727564657320617265203A
:100AE0000046696C616D656E742072756E6F757409
:100AF00020004D34323120696E636F727265637409
:100B000020706172616D65746572207573616765CF
:100B10000A00454550524F4D204F4B0A003F284296
:100B200029617564207261746520696D706C6175EE
:100B30007369626C652E0A002053657269616C20CE
:100B40003020626175642072617465207365742061
:100B5000746F2000416476616E6365204B003F4BEB
:100B60002076616C7565206F7574206F66207261E8
:100B70006E67652028302D3130292E0A003F542021
:100B800076616C7565206F7574206F662072616E7A
:100B900067652E0A0043617365206C696768743A63
:100BA000200043617365206C696768743A206F6642
:100BB000660A00506F7765722D6C6F7373207265D3
:100BC000636F7665727920004107220C3A0733077C
:100BD0002507726F746174696F6E206D617472693C
:100BE000783A0A00206D61783A00206D696E3A000B
:100BF0004178697320004D38373620526573706F25
:100C00006E64696E672050524F4D50545F00554ED0
:100C10004B4E4F574E2053544154450047434F4489
:100C2000455F494E464F004C43445F504155534544
:100C30005F524553554D450046494C414D454E5434
:100C40005F52554E4F55545F434F4E54494E554594
:100C50000046494C414D454E545F52554E4F5554F8
:100C6000005075726765204D6F7265004572726F36
:100C7000722077726974696E6720746F20454550E1
:100C8000524F4D210A00627573793A207061757375
:100C9000656420666F7220696E7075740A006275F3
:100CA00073793A2070617573656420666F72207580
:100CB0007365720A00627573793A2070726F6365AA
:100CC0007373696E670A007061757365004D363025
:100CD00030002066696C616D656E745F72756E6F51
:100CE0007574200066696C616D656E745F72756EF7
:100CF0006F757420540046696C616D656E74527531
:100D00006E6F75742054004E6F20436865636B737B
:100D1000756D2077697468206C696E65206E756DDD
:100D20006265722C204C617374204C696E653A20A8
:100D300000636865636B73756D206D69736D6174B5
:100D400063682C204C617374204C696E653A2000F6
:100D50004C696E65204E756D626572206973206EF8
:100D60006F74204C617374204C696E65204E756DF4
:100D70006265722B312C204C617374204C696E6556
:100D80003A20004D313130004D313137004D333193
:100D90000053442072656164206572726F720A00AC
:100DA000446F6E65207072696E74696E6720666943
:100DB0006C650A002121204B494C4C2063617573FE
:100DC000656420627920746F6F206D756368206997
:100DD0006E6163746976652074696D65202D20638A
:100DE000757272656E7420636F6D6D616E643A200A
:100DF000006563686F3A004572726F723A0025278A
:100E000023181F211D1C19171B1E2E2C0C312F30CF
:100E100004400AFF4104090807000120204D343234
:100E2000312049002020473239204939390A0061F0
:100E300063746976650A002053797374656D207652
:100E4000312E303120002020207C0A004E414E00FF
:100E500020202E20202000207C004C43443A0A0011
:100E60004353563A0A0020666F7220003A0A0A007D
:100E70000A42656420546F706F67726170687920F0
:100E80005265706F72740050726F62696E672046AF
:100E900061696C65640A0050726F62696E67204612
:100EA00061696C656400446F6E652E0A003F496E8F
:100EB00076616C69642073746F7261676520736C0E
:100EC0006F742E0A3F557365203020746F200047E1
:100ED00032392050322066696E69736865642E0A63
:100EE000005859206F757473696465207072696E5B
:100EF0007461626C65207261646975732E0A003FCB
:100F00004572726F7220696E20427573696E6573E7
:100F1000732043617264206D6561737572656D65E0
:100F20006E742E0A004D616E75616C6C7920707262
:100F30006F62696E6720756E726561636861626C6D
:100F400065206D657368206C6F636174696F6E7383
:100F50002E0A0050726F62696E672061726F756E43
:100F6000642028004D65736820696E76616C696441
:100F7000617465642E2050726F62696E67206D65C2
:100F800073682E0A004D657368207A65726F656418
:100F90002E0A0044656661756C742073746F72610B
:100FA000676520736C6F7420302073656C656374A3
:100FB00065642E0A004C6F6164696E672074657306
:100FC000745F7061747465726E2076616C756573A0
:100FD0002E0A0A00496E76616C6964207465737428
:100FE0005F7061747465726E2076616C75652E2019
:100FF000282D3120746F2032290A0A004C6F63615A
:1010000074696F6E7320696E76616C696461746572
:10101000642E0A0A00456E74697265204D65736816
:1010200020696E76616C6964617465642E0A0A00D9
:10103000416D6178202A00416D6178204500416D45
:101040006178205A00416D6178205900416D6178C6
:10105000205800412D54726176656C00412D526517
:10106000747261637400416363656C004A756E63FA
:1010700074696F6E20446576002A73746570732FEF
:101080006D6D004573746570732F6D6D005A7374C8
:101090006570732F6D6D005973746570732F6D6D6E
:1010A000005873746570732F6D6D00496E6974001C
:1010B000496E697469616C697A6520454550524F83
:1010C0004D004261636B6C617368005374657073AB
:1010D0002F6D6D004A65726B00416363656C6572CC
:1010E0006174696F6E0056656C6F63697479005343
:1010F0006D6F6F7468696E6700436F7272656374B9
:10110000696F6E004F7574616765205265636F7615
:10111000657279004261636B004368616E676520A8
:1011200046696C616D656E7400436F6E66696775C4
:10113000726174696F6E003F0043616E63656C009D
:101140004D313030300053746F70205072696E74BE
:1011500000526573756D65205072696E740053742A
:101160006F70004D3231004368616E6765204D65D8
:10117000646961004175746F7374617274004E6FBD
:10118000204D656469610054756E65005374617229
:1011900074205072696E740043616E6E6F742065C6
:1011A0006E746572207375626469723A2000052E50
:1011B0002E004D6F76652025736D6D004D6F766541
:1011C00020302E316D6D004D6F766520316D6D00D4
:1011D0004D6F76652031306D6D00486F74656E64BB
:1011E00020746F6F20636F6C64005061726B696E66
:1011F000672E2E2E0000005761697420666F720002
:1012000066696C616D656E74206368616E67650008
:10121000746F207374617274005761697420666F13
:10122000720066696C616D656E7420756E6C6F61BD
:101230006400004E6F7A7A6C652068656174696E2F
:101240006700506C6561736520776169742E2E2E7E
:101250000000507265737320627574746F6E007451
:101260006F2068656174206E6F7A7A6C6500004942
:101270006E736572742066696C616D656E74006171
:101280006E6420707265737320627574746F6E0083
:10129000746F20636F6E74696E7565005761697451
:1012A00020666F720066696C616D656E74206C6F8C
:1012B00061640000507265737320427574746F6EC0
:1012C00000746F20726573756D65207072696E743D
:1012D00000005761697420666F72207072696E74C5
:1012E00000746F20726573756D652E2E2E00005789
:1012F00061697420666F720066696C616D656E74F9
:1013000020707572676500004C6F6164206D6D0020
:10131000556E6C6F6164206D6D00416476616E6323
:1013200065204B202A0020022046616374002002C1
:10133000204D6178002002204D696E004175746F68
:1013400074656D70005654726176204D696E00565A
:101350006D696E00566D6178202A00566D617820A7
:101360004500566D6178205A00566D61782059000D
:10137000566D61782058002062797465733B206354
:101380007263200053657474696E67732053746FC1
:101390007265642028004E6F20454550524F4D2EF7
:1013A0000A00454550524F4D206461746173697A5B
:1013B00065206572726F722E0A003F4D657368205A
:1013C000746F6F2062696720666F722045455052C6
:1013D0004F4D2E0A0055424C2072657365740A0009
:1013E000206C6F616465642066726F6D2073746F2A
:1013F000726167652E0A004D65736820003F436186
:101400006E277420656E61626C6520002073746FB6
:101410007265642073657474696E67732072657495
:10142000726965766564202800202863616C6375A5
:101430006C6174656429210A0020213D2000454526
:1014400050524F4D20435243206D69736D61746358
:1014500068202D202873746F726564292000496EFE
:101460006465783A2000204D61726C696E3D563794
:1014700034290A00454550524F4D207665727369F4
:101480006F6E206D69736D617463682028454550E7
:10149000524F4D3D0050726F6265205A204F666674
:1014A0007365740046616E205370656564203D006D
:1014B0004E6F7A7A6C65205374616E646279004E67
:1014C0006F7A7A6C65004D61696E004D313039205C
:1014D000532569004D3139302053256900466C6F22
:1014E00077207E00466C6F77004D657368204564F9
:1014F00069746F72004265642054656D7000486FB6
:1015000074656E642054656D700047323920503622
:101510002043202D0048656967687420416D6F7510
:101520006E740041646A757374204D657368204859
:10153000656967687400473239205034205400468A
:10154000696E652054756E6520436C6F73657374A6
:101550000047323620432042256920482569205023
:101560000056616C696461746520437573746F6DB6
:10157000204D657368004732380A473236204320D1
:10158000423730204832353020500056616C696453
:10159000617465204D6573682028504554472900C3
:1015A0004732380A4732362043204236302048320C
:1015B000303020500056616C6964617465204D655F
:1015C00073682028504C412900473239204A256948
:1015D000004C6576656C204D6573680053696465E1
:1015E00020506F696E74730047726964204D657393
:1015F00068204C6576656C696E6700473239204A11
:101600003000332D506F696E74204C6576656C69BF
:101610006E670020436F756E7420583A00576172F0
:101620006E696E673A20486F6D696E672042756D0E
:10163000702044697669736F72203C20310A000083
:101640000066430000664300007A43000020C100AA
:1016500000A0C000000000000020C10000A0C000E9
:1016600000000000002042000020420000804002F4
:1016700002020000A0400000A0400000A0400000C6
:10168000704300006B4300007A43FFFFFF0000003F
:101690000100000001000080005555550000004089
:1016A0000033333300AAAA2A004992240000002004
:1016B00000C7711C0099991900D14517005555159F
:1016C000003BB11300244912001111110000001059
:1016D000000F0F0F00E3380E0043790D00CCCC0C47
:1016E00000C3300C00E8A20B0064210B00AAAA0A78
:1016F00000703D0A009DD80900427B090092240930
:1017000000DCD308008888080010420800000008A8
:1017100000F0C107008787070075500700711C079C
:10172000003EEB0600A1BC06006990060066660656
:1017300000703E06006118060017F4050074D1051C
:10174000005BB00500B290050062720500555505BA
:101750000078390500B81E0500050505004EEC04AB
:101760000087D40400A1BD040090A704004992049E
:1017700000C17D0400EE690400C75604004444041F
:10178000005C320400082104004110040000000441
:10179000003FF00300F8E0030026D20300C3C303B8
:1017A00000CCB503003AA803000A9B0300388E035F
:1017B00000C08103009F750300D0690300505E03E1
:1017C000001D53030034480300913D0300333303ED
:1017D0000016290300381F030097150300300C037F
:1017E00000030303000BFA020049F10200BAE80209
:1017F000005CE002002DD802002DD0020059C80282
:1018000000B0C0020031B90200DAB10200AAAA0297
:1018100000A0A30200BC9C0200FA9502005C8F02AB
:1018200000DF88020082820200457C0200277602E7
:101830000027700200436A02007C640200D05E024E
:10184000003F590200C853020020746F6F206C6F74
:101850006E6720657874727573696F6E207072653B
:1018600076656E7465640A0020636F6C6420657829
:1018700074727573696F6E2070726576656E7465CB
:10188000640A004F6E0054656D7065726174757204
:10189000650050726568656174205045544700507A
:1018A00072656865617420504C41004578747275AA
:1018B000646572202A004578747275646572004D03
:1018C0006F7665205A004D6F76652059004D6F7612
:1018D00065205800536F667420456E6473746F7092
:1018E00073004D38340044697361626C6520537431
:1018F000657070657273004732380A4D3438205075
:101900003130004D34382050726F62652054657359
:1019100074004C6576656C20436F726E657273005F
:10192000473238205A00486F6D65205A00473238D8
:10193000205900486F6D6520590047323820580003
:10194000486F6D652058004175746F20486F6D6554
:10195000004D6F7665204178697300507265686547
:10196000617420504C4120456E640050726568657A
:10197000617420504C412042656400507265686576
:101980006174205045544720456E6400507265686C
:1019900065617420504554472042656400436F6F71
:1019A0006C646F776E00496E76616C69642065784F
:1019B0007472756465720A00453100626564002CBA
:1019C0002073797374656D2073746F707065642112
:1019D000204865617465725F49443A20004865613A
:1019E00074696E67204661696C656400486561745E
:1019F000696E67206661696C656400202D20496E00
:101A000076616C6964206578747275646572206EA5
:101A1000756D62657220210A004572723A204D414F
:101A20005854454D50004D415854454D5020747206
:101A300069676765726564004572723A204D494E68
:101A400054454D50004D494E54454D5020747269D7
:101A5000676765726564004D3834204500202F00AB
:101A60002042403A0020403A0045202553002057AC
:101A70003A004163746976652045787472756465CF
:101A8000723A200070012C0190012701B00122015F
:101A9000C0011D01F00118011002130130020E01F6
:101AA0006002090190020401C002FF000003FA0075
:101AB0004003F5008003F000D003EB002004E600B3
:101AC0007004E100E004DC004005D700C005D2004E
:101AD0004006CD00D006C8008007C3003008BE0015
:101AE000F008B900C009B400B00AAF00B00BAA00FA
:101AF000D00CA500000EA000500F9B00C010960057
:101B00005012910000148C00C0158700B01782009D
:101B1000B0197D00D01B7800001E730040206E00BD
:101B200090226900F024640040275F0090295A0049
:101B3000E02B5500102E500020304B001032460094
:101B4000E033410090353C001037370070383200E8
:101B5000A0392D00B03A2800A03B2300603C1E00B5
:101B6000103D1900903D1400103E0F00703E0A0019
:101B7000C03E0500003F0000403FFBFF803FF6FFF6
:101B8000C03FF1FF206D61783A2000206D696E3A08
:101B90002000526573656E643A20004265642043FC
:101BA0006F6F6C696E672E2E2E004265642048654B
:101BB0006174696E672E2E2E0023646566696E65FA
:101BC0002044454641554C545F004B6420004B690E
:101BD00020004B702000504944204175746F74758B
:101BE0006E652066696E697368656421205075743E
:101BF00020746865206C617374204B702C204B69D5
:101C000020616E64204B6420636F6E7374616E7428
:101C1000732066726F6D2062656C6F7720696E74D9
:101C20006F20436F6E66696775726174696F6E2E9F
:101C3000680A00504944204175746F74756E6520C0
:101C40006661696C6564212074696D656F75740ADD
:101C5000000A20436C617373696320504944200A71
:101C600000204B643A2000204B693A2000204B7042
:101C70003A20000A204E6F206F76657273686F6F8E
:101C8000740A002054753A2000204B753A20002039
:101C9000643A200020626961733A20005049442070
:101CA0004175746F74756E652073746172740A0087
:101CB000504944204175746F74756E652066616982
:101CC0006C6564212054656D706572617475726510
:101CD00020746F6F20686967680A0050494420418A
:101CE00075746F74756E65206661696C656421201A
:101CF000426164206578747275646572206E756DDA
:101D00006265720A007C4D61726C696E7C002D2DDB
:101D10002D2D2D2D00A10000006900A20000006300
:101D200000B00000000900C10000004100C2000036
:101D3000004100C30000004100C40000004100C594
:101D40000000004100C60000004145C700000043FC
:101D500000C80000004500C90000004500CD00009B
:101D6000004900D10000004E00D50000004F00D611
:101D70000000004F00D70000007800DC0000005594
:101D800000DD0000005900E00000006100E10000FB
:101D9000006100E20000006100E30000006100E477
:101DA0000000006100E50000006100E60000006145
:101DB00065E70000006300E80000006500E900003E
:101DC000006500EA0000006500EB0000006500EC23
:101DD0000000006900ED0000006900EE00000069ED
:101DE00000EF0000006900F10000006E00F200004A
:101DF000006F00F30000006F00F40000006F00F5BA
:101E00000000006F00F60000006F00F80000006F97
:101E100000F90000007500FA0000007500FB0000EA
:101E2000007500FC0000007500FD0000007900FF57
:101E3000000000790004010000410005010000617C
:101E4000000601000043000701000063000C0100D0
:101E50000043000D01000063000E01000044000F6C
:101E60000100006400110100006400190100006518
:101E7000001F01000067003001000049003101002F
:101E8000006900410100004C00420100006C004369
:101E90000100004E00440100006E00480100006E89
:101EA000005901000072005A01000053005B01005C
:101EB0000073005F010000730060010000530061C7
:101EC00001000073006501000074006F01000075DF
:101ED000007C0100007A007D0100005A007E0100B4
:101EE000007A00920100006600E30200007800849E
:101EF000030000270085030000270086030000413F
:101F000000870300002E00880300004500890300BD
:101F10000048008A03000049008C0300004F008E37
:101F200003000059008F0300004F00900300006978
:101F3000009103000041009203000042009303005F
:101F400000540094030000340095030000450096FF
:101F50000300005A00970300004800980300003077
:101F6000009903000049009A0300004B009B030006
:101F7000005E009C0300004D009D0300004E009E8B
:101F800003000033009F0300004F00A00300006E19
:101F900000A10300005000A30300004500A40300BB
:101FA000005400A50300005900A60300007000A71C
:101FB0000300005800A80300005000A90300004FD0
:101FC00000AA0300004900AB0300005900AC030065
:101FD000006100AD0300006500AE0300006E00AFBD
:101FE0000300006900B00300007600B10300006147
:101FF00000B20300004200B30300007600B4030007
:10200000006400B50300006500B60300005A00B785
:102010000300006E00B80300003000B9030000693F
:1020200000BA0300006B00BB0300004C00BC0300BF
:10203000007500BD0300007600BE0300006500BF10
:102040000300006F00C00300006E00C103000070B9
:1020500000C20300006300C30300006F00C403005C
:10206000007400C50300007600C60300007000C7BE
:102070000300005800C80300005700C903000077A0
:1020800000CA0300006900CB0300007600CC030007
:10209000006F00CD0300007600CE03000077000142
:1020A000040000450010040000410011040000621B
:1020B0000012040000420013040000540014040045
:1020C000005100150400004500160400002A001706
:1020D0000400004500180400004E00190400004EE2
:1020E000001A0400004B001B04000054001C0400F4
:1020F000004D001D04000048001E0400004F001F9A
:102100000400006E00200400005000210400004381
:10211000002204000054002304000059002404009D
:10212000006F002504000058002604000055002719
:10213000040000790028040000570029040000571B
:10214000002A04000062002B040000627C2C0400C2
:102150000062002D04000065002E0400007C4F2F5B
:10216000040000397C3004000061003104000036B6
:102170000032040000420033040000720034040006
:10218000006100350400006500360400002A0037B5
:102190000400006500380400007500390400007573
:1021A000003A0400006B003B0400006E003C040099
:1021B000006D003D04000048003E0400006F003F39
:1021C0000400006E00400400007000410400006341
:1021D000004204000074004304000079004404003D
:1021E0000071704504000078004604000075004747
:1021F00004000079004804000077004904000077DB
:10220000004A04000062004B040000627C4C0400A1
:102210000062004D04000065004E0400007C6F4F1A
:102220000400006700510400006500222000002E19
:10223000001E210000507822210000544D90210002
:10224000003C2D922100002D3EB02100000300BB78
:1022500021000004003C2200007E00482200007E95
:102260003D60220000213D612200003D006422000B
:10227000003C3D652200003E3DF12300000700A028
:102280003000003D0021F301000200C2F40100050E
:1022900000A2000000EC00B0000000DF00E400003D
:1022A00000E100F6000000EF00F7000000FD00FC78
:1022B000000000F500E3020000EB0087030000A52A
:1022C000008F030000F40098030000F2009E03005A
:1022D00000E300A3030000F600A9030000F400AC33
:1022E000030000E000AD030000E300B1030000E0E4
:1022F00000B2030000E200B5030000E300B80300F1
:1023000000F200BC030000E400BE030000E300C0D4
:10231000030000F700C1030000E600C3030000E56E
:1023200000902100007F00922100007E001A220010
:1023300000E8001E220000F30088250000FF0002D4
:10234000300000A1000C300000A2000D300000A3FE
:10235000009B300000DE009C300000DF00A0300059
:10236000003D00A1300000A700A2300000B100A392
:10237000300000A800A4300000B200A5300000A981
:1023800000A6300000B300A7300000AA00A830006B
:1023900000B400A9300000AB00AA300000B500ABCB
:1023A000300000B600AC300000B6DEAD300000B743
:1023B00000AE300000B7DEAF300000B800B0300033
:1023C00000B8DEB1300000B900B2300000B9DEB3B1
:1023D000300000BA00B4300000BADEB5300000BBF7
:1023E00000B6300000BBDEB7300000BC00B83000E3
:1023F00000BCDEB9300000BD00BA300000BDDEBB5D
:10240000300000BE00BC300000BEDEBD300000BFAA
:1024100000BE300000BFDEBF300000C000C0300092
:1024200000C0DEC1300000C100C2300000C1DEC308
:10243000300000AF00C4300000C200C5300000C250
:10244000DEC6300000C300C7300000C3DEC8300065
:1024500000C400C9300000C4DECA300000C500CB93
:10246000300000C600CC300000C700CD300000C8EE
:1024700000CE300000C900CF300000CA00D03000CC
:1024800000CADED1300000CADFD2300000CB00D35A
:10249000300000CBDED4300000CBDFD5300000CCE4
:1024A00000D6300000CCDED7300000CCDFD83000C2
:1024B00000CD00D9300000CDDEDA300000CDDFDB0A
:1024C000300000CE00DC300000CEDEDD300000CE7B
:1024D000DFDE300000CF00DF300000D000E0300051
:1024E00000D100E1300000D200E2300000D300E370
:1024F000300000AC00E4300000D400E5300000AD56
:1025000000E6300000D500E7300000AE00E8300003
:1025100000D600E9300000D700EA300000D800EB18
:10252000300000D900EC300000DA00ED300000DBB4
:1025300000EF300000DC00F2300000A600F33000B5
:1025400000DD00F4300000B3DEF7300000DCDEFA1E
:10255000300000A6DEFB300000A500FC300000B01B
:1025600000FD300000A400074E0000FB0086510073
:1025700000FC0043530000FA0064FF0000A4006563
:10258000FF0000A50066FF0000A60067FF0000A78F
:102590000068FF0000A80069FF0000A9006AFF00B2
:1025A00000AA006BFF0000AB006CFF0000AC006DE8
:1025B000FF0000AD006EFF0000AE006FFF0000AF37
:1025C0000070FF0000B00071FF0000B10072FF005A
:1025D00000B20073FF0000B30074FF0000B4007588
:1025E000FF0000B50076FF0000B60077FF0000B7DF
:1025F0000078FF0000B80079FF0000B9007AFF0002
:1026000000BA007BFF0000BB007CFF0000BC007D27
:10261000FF0000BD007EFF0000BE007FFF0000BF86
:102620000080FF0000C00081FF0000C10082FF00A9
:1026300000C20083FF0000C30084FF0000C40085C7
:10264000FF0000C50086FF0000C60087FF0000C72E
:102650000088FF0000C80089FF0000C9008AFF0051
:1026600000CA008BFF0000CB008CFF0000CC008D67
:10267000FF0000CD008EFF0000CE008FFF0000CFD6
:102680000090FF0000D00091FF0000D10092FF00F9
:1026900000D20093FF0000D30094FF0000D4009507
:1026A000FF0000D50096FF0000D60097FF0000D77E
:1026B0000098FF0000D80099FF0000D9009AFF00A1
:1026C00000DA009BFF0000DB009CFF0000DC009DA7
:1026D000FF0000DD009EFF0000DE009FFF0000DF26
:1026E00000E5FF00005C000010101010101000004A
:1026F00014141414141400001515151515150000E4
:102700001C1F11111F00000006191803130C0004F0
:102710000E1F041C000000000E1315110E00001CFB
:1027200010181705060500040A0A0A0A11110E0CF2
:1027300012120C00000000001F1511151F000000F0
:10274000000000010204040000001C1C0C0404042E
:102750000201000000000004081000000000004911
:102760006E666F2053637265656E00473239205084
:1027700033205220432E2569004D616E75616C2017
:1027800046696C6C2D696E0046696C6C2D696E2013
:10279000416D6F756E74004D65736820696E76616A
:1027A0006C6964617465642E0A00473239204900FF
:1027B000496E76616C696461746520436C6F736502
:1027C000737400496E76616C696461746520416C54
:1027D0006C00473239205031204300436F6E7469DA
:1027E0006E756520426564204D6573680046696CAE
:1027F0006C2D696E204D657368004275696C6420AC
:10280000437573746F6D204D657368004732380AE5
:102810004D313930205337300A4D31303920533261
:1028200035300A4732392050310A4D313034205387
:10283000300A4D313430205330004275696C6420C9
:102840004D65736820285045544729004732380A9F
:102850004D313930205336300A4D31303920533222
:1028600030300A4732392050310A4D31303420534C
:10287000300A4D313430205330004275696C642089
:102880004D6573682028504C4129004D3131372067
:102890004D657368202569204C6F6164656400474D
:1028A0003239204C2569004D313137204D65736830
:1028B000202569205361766564004732392053250D
:1028C00069004C6F616420426564204D6573680047
:1028D0004D656D6F727920536C6F74004E6F20538D
:1028E000746F7261676500486F6D696E6720585933
:1028F0005A00473239205034205825732059257307
:102900002052256900202D2D2D2D2D004732380015
:1029100047323920532D31004F6666205072696E60
:10292000746572204261636B7570004732392054C0
:1029300031004F757470757420666F722043535662
:1029400000473239205430004F757470757420661A
:102950006F7220486F737400473239205034205210
:102960003939392054004732380A4732392050313A
:10297000004D6F74696F6E0045646974204D657316
:10298000680047323920493939390A4732392050ED
:10299000322042205430004D616E75616C6C79209C
:1029A0004275696C64204D65736800372E20536151
:1029B000766520426564204D65736800362E20469A
:1029C000696E652054756E6520416C6C00352E2053
:1029D00056616C6964617465204D65736800342EBE
:1029E0002046696E652054756E6520416C6C00331D
:1029F0002E2056616C6964617465204D65736800B2
:102A000047323920503320543000322E20536D612C
:102A100072742046696C6C2D696E00312E204275EF
:102A2000696C6420436F6C64204D657368004732A5
:102A3000392057004F75747075742055424C2049E9
:102A40006E666F0055424C20546F6F6C73004F756B
:102A500074707574204D657368204D6170004D650C
:102A600073682053746F72616765004D65736820E9
:102A70004564697400537465702D42792D537465F3
:102A8000702055424C00473239204100416374693F
:102A9000766174652055424C004732392044004429
:102AA0006561637469766174652055424C002568E0
:102AB000753A25303268750025303268753A253010
:102AC00032687500556E6C6F61642046696C616D8B
:102AD000656E74202A004C6F61642046696C616DDC
:102AE000656E74202A0052756E6F75742053656E82
:102AF000736F7200554E4C4F41442046494C414D36
:102B0000454E540046494C414D454E5420434841A2
:102B10004E4745004732380A4732392050310A477C
:102B200032392050330A47323920410A4D3530308E
:102B3000004732380A473239205034205232353576
:102B40000A47323920410A4D3530300047323920AA
:102B500050340A4D353030004D333033205531205C
:102B6000453020533235302043380A4D353030005F
:102B70004D33303320553120452D3120533930200D
:102B800043380A4D353030004D393030204B300A53
:102B90004D353030004D393030204B302E320A4D1B
:102BA000353030004D393030204B302E330A4D3522
:102BB0003030004D393030204B302E340A4D353016
:102BC00030004D393030204B302E350A4D35303005
:102BD000004D393030204B302E360A4D3530300024
:102BE0004C696E20416476204B302E34004C696E67
:102BF00020416476204B302E33004C696E204164B6
:102C000076204B302E35004C696E20416476204B87
:102C1000302E32004C696E20416476204F6666008B
:102C200050494474756E652042656400504944748F
:102C3000756E6520486F74656E640041646A7573D3
:102C40007420506F696E74204E656172004D616E24
:102C500075616C2055424C004C696E2041647620B1
:102C60004B302E360050726F62652055424C004D3D
:102C700037303220542564004D3630302042302029
:102C8000542564004D373032203B2564004D3730E9
:102C9000312054256400556E6C6F61642046696C68
:102CA000616D656E74004C6F61642046696C616D86
:102CB000656E740050726568656174204375737445
:102CC0006F6D004D36303020423020542569004D64
:102CD00037303120542569004D3730322054256972
:102CE000004D37303200556E6C6F616420416C6C62
:102CF000004368616E67652046696C616D656E743E
:102D0000202A005075726765206D6F72650052450C
:102D100053554D45204F5054494F4E533A00505251
:102D2000494E54205041555345440020204E6F7A5F
:102D30007A6C653A20005374616E64617264204459
:102D40006576696174696F6E3A20003F2061646442
:102D500072657373203A2000206279746573206F66
:102D600066206D656D6F727920696E697469616C3A
:102D7000697A65642E0A0A00556E61626C6520747A
:102D80006F20696E697469616C697A652E0A0A0040
:102D9000496E697469616C697A696E6720667265EB
:102DA00065206D656D6F727920626C6F636B2E0AA2
:102DB0000A0A00747275650A002072657475726E75
:102DC0003D000A4D656D6F727920436F72727570A8
:102DD00074696F6E20646574656374656420696EE0
:102DE0002066726565206D656D6F72792061726510
:102DF000612E0A002020626C6F636B5F666F756ED8
:102E0000643D002020200A002920666F756E643D15
:102E1000002020204D656D6F727920636F7272758E
:102E20007074696F6E20646574656374656420777F
:102E300069746820656E645F667265655F6D656D57
:102E40006F72793C486561700A0020656E645F6648
:102E50007265655F6D656D6F7279203C20486561B4
:102E60007020002020656E645F667265655F6D6529
:102E70006D6F72793D000A667265655F6D656D6F95
:102E800072795F73746172743D000A666D632829FC
:102E9000206E3D00636865636B5F666F725F66728C
:102EA00065655F6D656D6F72795F636F7272757066
:102EB00074696F6E2829203D20004D313030204646
:102EC000200020627974657320617420000A4C61CF
:102ED0007267657374206672656520626C6F636BE0
:102EE00020697320002062797465732066726565BD
:102EF0002061742000466F756E6420000A436F7273
:102F000072757074696E6720616464726573733A78
:102F10002000436F7272757074696E672066726507
:102F200065206D656D6F727920626C6F636B2E0A20
:102F30000A000A537461636B20506F696E74657286
:102F40002020202020202020203A20000A667265C0
:102F5000655F6D656D6F72795F656E6420202020FE
:102F60002020203A20000A667265655F6D656D6FEE
:102F700072795F737461727420202020203A2000DF
:102F80000A6273735F656E64202020202020202059
:102F9000202020202020203A200020284E6F74205E
:102FA000796574206D6561737572656429002020F0
:102FB00041766572616765206D65617375726564E0
:102FC000206261636B6C61736820286D6D293A0023
:102FD0002020536D6F6F7468696E6720286D6D29AE
:102FE0003A202020202020202020202020202020C7
:102FF0002020530020204261636B6C617368204481
:10300000697374616E636520286D6D293A202020F4
:10301000202020202000202846312E30203D206610
:10302000756C6C2C2046302E30203D206E6F6E6506
:10303000290A002020436F7272656374696F6E20E5
:10304000416D6F756E742F466164652D6F75743AAE
:10305000202020202046006163746976653A0A00CA
:103060004261636B6C61736820436F727265637455
:10307000696F6E2000446576696174696F6E002522
:10308000533A202573002052616E67653A20004D47
:1030900065616E3A200046696E6973686564210A4D
:1030A000002072616E67653A2000207369676D6168
:1030B0003A2000206D65616E3A20003A207A3A206D
:1030C00000206F662000476F696E6720746F3A209A
:1030D000580043570A00206469723A0020616E6705
:1030E0006C653A005374617274207261646975731F
:1030F0003A004D343820506F696E740025533A20E1
:1031000025642F256400506F736974696F6E696E52
:1031100067207468652070726F62652E2E2E0A001B
:103120003F4E756D626572206F66206C6567732017
:10313000696E206D6F76656D656E74206E6F74209C
:10314000706C61757369626C652028302D3135298A
:103150002E0A003F2028582C5929206F7574206FA3
:103160006620626F756E64732E0A003F53616D7046
:103170006C652073697A65206E6F7420706C617560
:103180007369626C652028342D3530292E0A004D74
:103190003438205A2D50726F626520526570656117
:1031A000746162696C69747920546573740A003FB4
:1031B0002856296572626F7365206C6576656C2090
:1031C000696D706C61757369626C652028302D348F
:1031D000292E0A0020595A3A200020585A3A200035
:1031E0002058593A2000536B657720466163746F0D
:1031F00072006D696E5F736B65775F666163746F94
:10320000723A20202D31206D61785F736B65775F96
:10321000666163746F723A2020310A00416363650E
:103220006C65726174696F6E3A2050003F4A206F7E
:103230007574206F662072616E67652028302E30AD
:103240003120746F20302E33290A00446973616283
:103250006C6552756E6F757400496E73657274207B
:1032600066696C616D656E7420616E642073656E55
:1032700064204D3130380A006F70656E20666169D8
:103280006C65642C2046696C653A2000486F6D655A
:103290002025732573257320466972737400626557
:1032A00067696E0050757267654D6F726500436F98
:1032B0006E74696E7565004C6F61642046696C615F
:1032C0006D656E74205400220A00556E6B6E6F7728
:1032D0006E20636F6D6D616E643A20220054484524
:1032E000524D414C2052554E41574159005468654A
:1032F000726D616C2052756E6177617900706F77C5
:1033000065726F666600506C656173652052657307
:103310006574005052494E5445522048414C544522
:10332000440025533A202553004B494C4C45442E2C
:1033300020005072696E7465722068616C746564F7
:103340002E206B696C6C28292063616C6C6564218C
:103350000A0020633A00204D3932205400204D39B4
:103360003220580020204D61783A200020204D69FD
:103370006E3A2000536F667420656E6473746F70CC
:10338000733A20005761726E696E67203A20436C71
:1033900065616E20436972636C6520726571756941
:1033A0007265732058590A004D32342053256C64DD
:1033B0002054256C64004739322E3920452573008E
:1033C00047312046256400473120453120463330BF
:1033D0003030004739322E39205A257300473120CA
:1033E0005A3020463230300047312058257320595A
:1033F0002573204633303030004731204531204698
:10340000323030004D34323020532569205A257334
:10341000004D313036205025692053256900542550
:10342000692053004739322E392045305A300A4737
:10343000315A320A47323852305859004D343230FE
:10344000205330205A300020496E76616C69642028
:103450006578747275646572200043616E63656C93
:10346000204F626A65637400416476616E636564CF
:103470002053657474696E6773004E6578742050CC
:103480006F696E74004E657874004E4F0059455355
:103490000043616E63656C204F626A656374203D12
:1034A000005A20526169736500436D643A20537479
:1034B0006F7700436D643A2053572D4D6F6465005C
:1034C000436D643A204465706C6F7900436D643AD3
:1034D0002053656C662D5465737400436D643A2007
:1034E0005265736574004C6967687420427269673D
:1034F00068746E6573730046616E20537065656411
:10350000004C6F61642053657474696E6773005278
:103510006573746F7265206661696C7361666500BE
:1035200053746F72652053657474696E67730050CD
:10353000726568656174205045544720436F6E661C
:10354000005072656865617420504C4120436F6E75
:10355000660043617365204C6967687400546F6F3F
:103560006C204368616E676500424C546F756368F8
:103570000024F4D43050C38E20C2A24017828B7036
:1035800011127A910D816CD90AA861E108C75866B9
:1035900007615143061E4B5D05C145A7041A411141
:1035A00004093D9803713931034036DB02653391DC
:1035B00002D4305402802E1D02632CEE01752AC500
:1035C00001B028A001102781018F2564012B244B15
:1035D00001E0223401AC211F018D200D01801FFC70
:1035E00000841EED00971DDF00B81CD200E61BC64C
:1035F00000201BBC00641AB200B219A8000A19A06E
:10360000006A189900D117910040178B00B51684F5
:103610000031167E00B31579003A157300C7146F98
:103620000058146A00EE1366008813630025135EC9
:1036300000C7125B006C12570015125400C11151E3
:103640000070114F0021114B00D61049008D10471A
:10365000004610440002104200C00F4000800F3EA0
:1036600000420F3C00060F3B00CB0E3800930E3794
:10367000005C0E3500270E3400F30D3200C10D3111
:1036800000900D3000600D2E00320D2D00050D2C28
:1036900000D90C2B00AE0C2900850C29005C0C27EE
:1036A00000350C27000E0C2600E80B2400C40B2468
:1036B00000A00B23007D0B23005A0B2100390B21A6
:1036C00000180B2000F80A1F00D90A1E00BB0A1EB2
:1036D000009D0A1D00800A1D00630A1C00470A1B8A
:1036E000002C0A1B00110A1A00F7091A00DD09193B
:1036F00000C4091900AB091900920917007B0918C9
:1037000000630917004C0916003609160020091637
:10371000000A091500F5081500E0081400CC08148B
:1037200000B8081400A4081400900813007D0812C3
:10373000006B0813005808120046081200340811E4
:1037400000230811001208110001081100F00710F1
:1037500000E0071000D0071000C0071000B0070FEE
:1037600000A107100091070E0083070F0074070FD8
:103770000065070E0057070E0049070E003B070DB6
:10378000002E070E0020070D0013070D0006070D81
:1037900000F9060C00ED060D00E0060C00D4060C46
:1037A00000C8060C00BC060C00B0060C00A4060BFA
:1037B0000099060C008D060B0082060B0077060BA5
:1037C000006C060B0061060A0057060B004C060A47
:1037D0000042060A0038060A002E060A0024060ADD
:1037E000001A060A001006090007060A00FD05096E
:1037F00000F4050900EB050900E2050900D90509F7
:1038000000D0050900C7050900BE050900B5050877
:1038100000AD050800A50509009C050800940508F1
:10382000008C050800840508007C05080074050864
:10383000006C050700650508005D050700560508D2
:10384000004E05070047050700400508003805073A
:1038500000310507002A050700230507001C05069F
:1038600000160507000F05070008050600020507FA
:1038700000FB040600F5040700EE040600E8040659
:1038800000E2040700DB040600D5040600CF0406AE
:1038900000C9040600C3040600BD040600B7040600
:1038A00000B1040500AC040600A6040600A004054F
:1038B000009B04060095040500900406008A040598
:1038C0000085040500800406007A040500750405DF
:1038D00000700405006B0405006604050061040522
:1038E000005C04050057040500520405004D040562
:1038F0000048040500430405003E0404003A0405A2
:103900000035040500300404002C040500270404DD
:1039100000230405001E0404001A04040016040514
:1039200000110404000D040400090405000404044B
:103930000000040400FC030400F8030400F4030482
:1039400000F0030400EC030400E8030400E40304B3
:1039500000E0030400DC030400D8030400D40304E3
:1039600000D0030400CC030400C8030300C5030314
:103970000024F404D9201BC40C5C0E9804C4095F15
:103980000265077101F405F900FB04B300480487E0
:1039900000C10369005803550003034500BE023A05
:1039A000008402310053022A00290225000402206B
:1039B00000E4011C00C8011900AF011700980114B0
:1039C0000084011300710110006101100051010E0B
:1039D0000043010D0036010B002B010B0020010BF1
:1039E00000150109000C01090003010800FB000893
:1039F00000F3000800EB000700E4000600DE00060C
:103A000000D8000600D2000600CC000500C7000563
:103A100000C2000500BD000400B9000400B50004A8
:103A200000B1000400AD000400A9000400A50003DB
:103A300000A20003009F0004009B00030098000305
:103A4000009500020093000300900003008D000227
:103A5000008B00030088000200860002008400033F
:103A600000810002007F0002007D0002007B000256
:103A70000079000200770001007600020074000265
:103A80000072000100710002006F0002006D000171
:103A9000006C0002006A000100690002006700017A
:103AA0000066000100650001006400020062000180
:103AB0000061000100600001005F0002005D000184
:103AC000005C0001005B0001005A00010059000188
:103AD0000058000100570001005600010055000188
:103AE0000054000100530000005300010052000187
:103AF0000051000100500001004F0001004E000085
:103B0000004E0001004D0001004C0001004B000080
:103B1000004B0001004A000100490001004800007C
:103B20000048000100470001004600000046000177
:103B30000045000000450001004400010043000072
:103B4000004300010042000000420001004100006B
:103B50000041000100400001003F0000003F000163
:103B6000003E0000003E0001003D0000003D00015D
:103B7000003C0000003C0000003C0001003B000055
:103B8000003B0001003A0000003A0001003900004B
:103B90000039000100380000003800000038000142
:103BA000003700000037000100360000003600003A
:103BB000003600010035000000350000003500012E
:103BC0000034000000340000003400010033000025
:103BD000003300000033000100320000003200001A
:103BE000003200010031000000310000003100010E
:103BF000003000000030000000300001002F000005
:103C0000002F0000002F0000002F0001002E0000F8
:103C1000002E0000002E0001002D0000002D0000ED
:103C2000002D0000002D0001002C0000002C0000E1
:103C3000002C0000002C0001002B0000002B0000D5
:103C4000002B0000002B0001002A0000002A0000C9
:103C5000002A0000002A00010029000000290000BD
:103C600000290000002900000029000100280000B0
:103C700000280000002800000028000000280001A3
:103C80000027000000270000002700000027000098
:103C9000002700010026000000260000002600008A
:103CA000002600000026000100250000002500007D
:103CB000002500000025000000250000002500016F
:103CC0000024000000240000002400000024000064
:103CD0000024000100230000002300000023000056
:103CE0000023000000230000002300000023000147
:103CF000002200000022000000220000002200003C
:103D0000002200000022000100210000002100002C
:103D1000002100000021000000210000002100001F
:103D20000021000100200000002000000020000011
:103D30000020000000200000002000000020000003
:103D400000200001001F0000001F0000001F0000F5
:103D5000001F0000001F0000001F0000001F0001E6
:103D6000001E0000001E0000001E0000001E0000DB
:103D700000232C0000B8220000561800003A0F0063
:103D800000B8080000B1040000710200003E01000C
:103D9000007C3C3E5E2B3D3F2F5B5D3B2C2A225C32
:103DA000003F454550524F4D2073746F72616765F7
:103DB000206E6F7420617661696C61626C652E0A99
:103DC0000053544F505045442E20005072696E7479
:103DD00065722073746F70706564206475652074FB
:103DE0006F206572726F72732E2046697820746836
:103DF00065206572726F7220616E64207573652034
:103E00004D39393920746F20726573746172742E64
:103E1000202854656D7065726174757265206973D0
:103E20002072657365742E20536574206974206157
:103E3000667465722072657374617274696E672945
:103E40000A0021212053544F502063616C6C65643B
:103E50002062656361757365206F6620424C546F04
:103E6000756368206572726F72202D20726573749D
:103E70006172742077697468204D3939390A0050AD
:103E800072696E74696E67204F626A65637400259B
:103E900053202569002F2F616374696F6E3A0062A9
:103EA0007574746F6E0070726F6D70745F007368FC
:103EB0006F7700486F74656E6420746F6F20636F56
:103EC0006C640A0053656E64204D31303820746F85
:103ED00020726573756D650A0052656865617420AE
:103EE000446F6E6500526568656174696E67005263
:103EF00065686561740048656174657254696D65D3
:103F00006F75740053656E64204D31303820746FC6
:103F10002068656174206E6F7A7A6C650A004E6F56
:103F20007A7A6C65205061726B656400706175739C
:103F30006564004D3630303A20546F6F20436F6C0B
:103F40006400726573756D656400526573756D69A3
:103F50006E6700426564204C6576656C696E67200B
:103F6000004661696C656420746F20656E61626CE7
:103F70006520426564204C6576656C696E670A0051
:103F8000496E76616C6964206D6573682E0A0076EF
:103F9000616C69640A53746F7261676520736C6F3A
:103FA000743A20004D65736820697320003F496EA4
:103FB00076616C69642073746F7261676520736CDD
:103FC0006F742E0A004D65616E204D657368204840
:103FD00065696768743A200023206F662073616DFD
:103FE000706C65733A20000A4D657368206F6E6CC3
:103FF00079207061727469616C6C7920706F707572
:104000006C617465642E0A0A0050726F62696E6793
:1040100020506F696E74000A50726F62696E67207B
:104020006D65736820706F696E74200020616E6426
:104030002074616B652061206D6561737572656DBB
:10404000656E742E0A006D6D20746869636B2E0AAC
:1040500000427573696E65737320436172642069F1
:1040600073200052656D6F76652026204D65617363
:10407000757265204265640052656D6F76652073C8
:1040800068696D00506C616365207368696D2075A7
:104090006E646572206E6F7A7A6C65004D65736828
:1040A00020506F696E74204D656173757265642070
:1040B00061743A20000A4D657368206F6E6C792038
:1040C0007061727469616C6C7920706F70756C616D
:1040D0007465642E0A00506C616365205368696DD5
:1040E0002026204D656173757265004D6F76696E8F
:1040F0006720746F206E657874004D657368204585
:10410000646974696E672053746F707065640044ED
:104110006F6E652045646974696E67204D657368CC
:104120000A00446F6E652045646974696E67204DAE
:104130006573680046696E652054756E696E672008
:104140004D6573680028582C5929206F7574736960
:104150006465207072696E7461626C65207261645E
:104160006975732E0A004F6666736574206F7574E7
:10417000206F6620626F756E64732E202830207465
:104180006F2031306D6D290A0A00496E76616C69C5
:1041900064206D617020747970652E0A0A003F43B7
:1041A000616E277420616374697661746520616E45
:1041B000642064656163746976617465206174204C
:1041C0007468652073616D652074696D652E0A0AD7
:1041D00000426F7468205820262059206C6F63615C
:1041E00074696F6E73206D757374206265207370CF
:1041F000656369666965642E0A0A003F496E7661E7
:104200006C696420677269642073697A6520284A42
:1042100029207370656369666965642028322D39C9
:10422000292E0A0A003F28502968617365207661AB
:104230006C756520696E76616C69642028302D3656
:10424000292E0A0A003F2856296572626F7365207D
:104250006C6576656C20696D706C61757369626CF4
:10426000652028302D34292E0A0A003F285229655E
:104270007065746974696F6E20636F756E74206900
:104280006E76616C69642028312B292E0A0A00445D
:104290006F696E6720473239004469736D697373C3
:1042A000005072696E7420506175736564005061CE
:1042B000757365205072696E74004D656469612084
:1042C00052656D6F766564004D6564696120496E65
:1042D000736572746564006E6F7469666963617496
:1042E000696F6E20003344205072696E74657220CD
:1042F00052656164792E005072696E74696E672E22
:104300002E2E0063616E63656C005072696E7420BE
:1043100041626F727465640055492041626F727426
:104320006564004D323520500A4D323400526573B9
:10433000756D650055492050617573650072657330
:10434000756D6500204A00205200454550524F4D82
:1043500020496E697469616C697A65640A004D650B
:10436000736820736176656420696E20736C6F7466
:1043700020003F556E61626C6520746F207361761A
:1043800065206D65736820646174612E0A00207376
:104390006C6F743D00206D65736865735F656E6456
:1043A0003D004532454E443D00206D6573682073E5
:1043B0006C6F747320617661696C61626C652E0A42
:1043C000003F496E76616C696420736C6F742E0ACD
:1043D000004D657368206C6F616465642066726F60
:1043E0006D20736C6F7420003F556E61626C6520A8
:1043F000746F206C6F6164206D65736820646174F4
:10440000612E0A0048617264636F646564204465CC
:104410006661756C742053657474696E6773204CA3
:104420006F616465640A0046616872656E686569FB
:10443000740043656C73697573004B656C76696EC7
:1044400000556E696669656420426564204C657636
:10445000656C696E670020286D6D29002028696EE3
:10446000290020204D363033200020204D343132B9
:1044700020530046696C616D656E742072756E6FB5
:1044800075742073656E736F723A0A0020204D3484
:1044900032352046004261636B6C61736820636F44
:1044A0006D70656E736174696F6E3A0A00546F6F58
:1044B0006C2D6368616E67696E673A0A005431203B
:1044C0004C002055005430204C0046696C616D65ED
:1044D0006E74206C6F61642F756E6C6F6164206CFC
:1044E000656E677468733A0A0020204D39303020B9
:1044F00054004C696E65617220416476616E63653B
:104500003A0A0020204D383532204900536B657738
:1045100020466163746F723A200A0020204D3835BE
:10452000312058005A2D50726F6265204F666673B5
:1045300065740020204D343133205300506F77656F
:10454000722D4C6F7373205265636F766572793A82
:104550000A0020204D33303420500020204D3330CD
:10456000312050005049442073657474696E67733C
:104570003A0A0020480020204D3134352053004DA8
:104580006174657269616C20686561747570207012
:104590006172616D65746572733A0A00206D6573AE
:1045A0006865732E0A0A00454550524F4D206361DD
:1045B0006E20686F6C6420000A4163746976652020
:1045C0004D65736820536C6F743A200020204D3481
:1045D000323020530020204D323035204200204A16
:1045E0003C6A756E635F6465763E00416476616E19
:1045F0006365643A20423C6D696E5F7365676D6503
:104600006E745F74696D655F75733E20533C6D69B0
:104610006E5F66656564726174653E20543C6D69C9
:104620006E5F74726176656C5F66656564726174F5
:10463000653E0020204D32303420500041636365D8
:104640006C65726174696F6E2028756E6974732F62
:104650007332293A20503C7072696E745F616363F3
:10466000656C3E20523C726574726163745F616375
:1046700063656C3E20543C74726176656C5F616367
:1046800063656C3E0A0020204D32303120540020FA
:10469000204D3230312058004D6178696D756D20A4
:1046A000416363656C65726174696F6E2028756E15
:1046B0006974732F7332293A0A0020204D32303347
:1046C00020540020204D3230332058004D6178694D
:1046D0006D756D20666565647261746573202875FB
:1046E0006E6974732F73293A0A00537465707320CE
:1046F00070657220756E69743A0A00203B20556E11
:1047000069747320696E200020204D3134392000F7
:10471000203B002020473200486F6D696E672046BD
:1047200061696C6564006F70656E0054524947475B
:10473000455245440066696C616D656E74007A5F30
:104740006D696E00795F6D696E00785F6D696E00EE
:104750005265706F7274696E6720656E6473746FF2
:1047600070207374617475730A0000004843000080
:1047700048430000A0400000F0410000A0420000BB
:10478000A0420000C8430000D7430000D743D00731
:104790000000D007000064000000A00F00000268C5
:1047A0007474703A2F2F6D61726C696E66772E6F1C
:1047B000726700204275696C6420343536004D31D3
:1047C0003030302053002020506C616E6E65724294
:1047D000756666657242797465733A200020467288
:1047E0006565204D656D6F72793A2000436F6D707D
:1047F000696C65643A20446563203330203230317F
:10480000390A00204C6173742055706461746564CA
:104810003A20323031392D31322D3139207C20414E
:104820007574686F723A2028566572746162726599
:10483000616B6572290A004275696C6420343536F3
:104840000A004D61726C696E0020536F6674776167
:1048500072652052657365740A002057617463683D
:10486000646F672052657365740A002042726F7727
:104870006E206F75742052657365740A0020457848
:104880007465726E616C2052657365740A00506FB6
:1048900077657255700A006175746F25632E670025
:1048A000473237006572726F722077726974696E71
:1048B0006720746F2066696C650A00446F6E65201E
:1048C000736176696E672066696C652E0A004D32E9
:1048D0003900255320256320256320256320256387
:1048E00000205A3A0020593A00656E6473746F7064
:1048F00073206869743A20002053697A653A200071
:1049000043616E6E6F74206F70656E2073756264A4
:104910006972200053442063617264206F6B0A0047
:104920006F70656E526F6F74206661696C65640AA2
:1049300000766F6C756D652E696E697420666169AD
:104940006C65640A00534420696E6974206661696D
:104950006C0A004D32332025730046696C65207364
:10496000656C65637465640A0046696C65206F70E8
:10497000656E65643A2000454E4420535542524FBF
:104980005554494E450A002220706F730022207052
:104990006172656E743A2200535542524F55544924
:1049A0004E452043414C4C207461726765743A2235
:1049B00000747279696E6720746F2063616C6C207B
:1049C0007375622D67636F64652066696C6573201B
:1049D0007769746820746F6F206D616E79206C65E3
:1049E00076656C732E204D4158206C6576656C2081
:1049F00069733A310A0057726974696E6720746F7F
:104A00002066696C653A200044656C6574696F6E58
:104A1000206661696C65642C2046696C653A2000EB
:104A200046696C652064656C657465643A0053443E
:104A3000207072696E74696E6720627974652000F7
:104A40004E6F74205344207072696E74696E670AE9
:104A500000667265736800646F696E67004E6F77F9
:104A6000200004000005010003000501000504000A
:104A7000000005000300714A6C4A674A624A000060
:104A80000000000066420000E64200802C43000067
:104A9000664325532025692F2569005D0A0062655C
:104AA0006420706C616E65206E6F726D616C203D6C
:104AB000205B00436F756C64206E6F7420636F6DB4
:104AC000706C657465204C5346210054696C7469A0
:104AD0006E67206D65736820706F696E7420003F8B
:104AE0004572726F722070726F62696E6720706FAC
:104AF000696E742E2041626F7274696E67206F70E8
:104B000065726174696F6E2E0A00255320332F334E
:104B10000054696C74696E67206D65736820283372
:104B20002F33290A00255320322F330054696C7427
:104B3000696E67206D6573682028322F33290A005B
:104B4000436F727265637465645F5A3D0054696CAB
:104B500074696E6720506F696E7400255320312F81
:104B6000330054696C74696E67206D657368202822
:104B7000312F33290A00646F6E650A00496E737520
:104B80006666696369656E7420646174610A0045D4
:104B900078747261706F6C6174696E67206D657393
:104BA000682E2E2E00446966663A200046726F6DAC
:104BB0005374703A00537465707065723A00556EA4
:104BC0004C6576656C3A004C6576656C65643A00B8
:104BD0005261773A20202020000A4C6F6769636198
:104BE0006C3A00436F756E7420453A004361703A29
:104BF0000050726F6265204F6666736574205A00BC
:104C000050726F6265204F66667365745A3A200071
:104C10003F5A206F7574206F662072616E67652041
:104C200028003F59206F7574206F662072616E678F
:104C30006520282D003F58206F7574206F66207204
:104C4000616E676520282D0050726F6265204F6687
:104C500066736574205800656E7175657565696E5B
:104C6000672022006F6B00FFFDFCFAF8F6F4F2F00B
:104C7000EEECEAE9E7E5E3E1E0DEDCDAD9D7D5D42A
:104C8000D2D0CFCDCBCAC8C7C5C3C2C0BFBDBCBAC6
:104C9000B9B7B6B4B3B2B0AFADACAAA9A8A6A5A433
:104CA000A2A1A09E9D9C9A99989795949392908F7B
:104CB0008E8D8B8A8988878684838281807F7E7DA2
:104CC0007B7A797877767574737271706F6E6D6CAC
:104CD0006B6A696867666564636261605F5E5D5C9C
:104CE0005B5A5958585756555453525150504F4E7D
:104CF0004D4C4B4A4A494847464645444342424147
:104D0000403F3E3E3D3C3B3B3A39383837363535FF
:104D1000343332323130302F2E2E2D2C2B2B2A29AA
:104D20002928272726252524232322212120201F47
:104D30001E1E1D1C1C1B1B1A1919181817161615D8
:104D40001514131312121111100F0F0E0E0D0D0C5E
:104D50000C0B0A0A090908080707060605050404DA
:104D6000030302020100005072696E742066726FC4
:104D70006D204D656469610000002100240027005A
:104D80002A002D003000330001010000040107015A
:104D90000A0100002200250028002B002E0031000F
:104DA000340002010000050108010B010000200091
:104DB0002300260029002C002F00320000010000F3
:104DC000030106010901050505050705080808088E
:104DD000020202020A0A0808040404040101010193
:104DE000010101010303030303030303040707078E
:104DF0000C0C0C0C0C0C0C0C020202020606060633
:104E0000060606060B0B0B0B0B0B0B0B01021020FF
:104E100020080810204010204080020102010804F0
:104E20000201010204081020408080402010080484
:104E300002018004020180402010080402010804DD
:104E40000201010204081020408001020408102021
:104E5000408000000A0B02090C0D0E080703040134
:104E60000000000000000000000000000000000042
:104E7000000000000000000000000000000012110F
:104E80001000000000000000000000000000000012
:104E90000000000000000000A002C00111241FBE9D
:104EA000CFEFD1E2DEBFCDBF00E00CBF13E0A0E04A
:104EB000B2E0EAEFF7E603E00BBF02C007900D9205
:104EC000AA39B107D9F728E1AAE9B3E001C01D92D8
:104ED000AB3BB207E1F717E2CDE4D7E200E006C052
:104EE00021970109802FFE010F9471AFCC34D107B7
:104EF00080E00807A9F70F94AE9A0D94EBB30C94D9
:104F000000002F923F924F925F926F927F928F920A
:104F10009F92AF92BF92CF92DF92EF92FF920F9348
:104F20001F93CF93DF93CDB7DEB7E2970FB6F89418
:104F3000DEBF0FBECDBF89AB2091E6072EA781E073
:104F40008093E607809142118D3409F46EC3843555
:104F500011F40C94D039873411F00C94E13980911C
:104F60004011909141118B31910509F431C1BCF48C
:104F70008430910509F4E3C01CF4029778F151C321
:104F80008431910509F41AC18531910509F41BC1D9
:104F90000C9709F046C30F94AE1D0C94E3398A3286
:104FA000910509F48CC254F48D31910509F43AC18C
:104FB0000CF428C14E9709F439C133C38B359105E0
:104FC00009F4F7C18C35910509F4F8C18A359105CA
:104FD00009F027C31092120A0C94E339809126023B
:104FE000882311F40C94E33912E1A12E13E0B12EC1
:104FF00008E4C02E02E0D02E87EEE82E87E0F82EDF
:1050000010E0D5018D915D010E948B4B882349F101
:10501000812F0F943101762E872E982E092F8091A3
:10502000A90581111EC0812F0F946017882371F08C
:10503000D6012D913D914D915C91672D782D892D53
:10504000902F0F947AAF762E872E02C0892D902F45
:10505000472D582DBC01F701408351836283738330
:105060000AC0F60180819181A281B381F70180831A
:105070009183A283B3831F5FF4E0CF0ED11C24E0A1
:10508000E20EF11C133009F0BCCF85E40E948B4B7B
:10509000882321F183E00F9431017B018C0183E0AF
:1050A0000F946017882371F02091540230915502BB
:1050B0004091560250915702B701C8010F947AAF40
:1050C0007B0101C0C801A701BC014093F3075093C5
:1050D000F4076093F5077093F60710C080915402AF
:1050E00090915502A0915602B09157028093F30718
:1050F0009093F407A093F507B093F60740E050E0D3
:10510000BA0186E40F94804320E030E0A9010F94B7
:1051100041B1181684F40E94354B20E030E040E79E
:1051200052E40F9402B0609344027093450280935E
:105130004602909347020E940A9F0C94E33980E54F
:105140000E948B4B882329F00F9450016B017C0146
:1051500003C0C12CD12C760183E50E948B4B8823A0
:1051600061F00E94FE4A20E030E04AE754E40F94E8
:10517000DCA80F947BB06B017C010E94CBBE8091B8
:10518000E70A811105C060E082E597E00F94676649
:105190000F947698C60ED71EE81EF91E0F947698C7
:1051A000DC01CB018C199D09AE09BF09B7FD02C016
:1051B0000C94E33980E00E94C341F0CF81E00F946A
:1051C0000F8D0C94E33980E00F940F8D0C94E3392C
:1051D0000F94C41581110C94E3398CE0E0E9F2E0FE
:1051E000DE01119601900D928A95E1F760E070E082
:1051F00080E50F949B1DBE016F5F7F4F0F945F5F33
:105200000C94E3398091F7078770873011F00C9484
:10521000043A60E08FE40F94C74381110C94E339A2
:105220000C94043A0E94CB550C94E33920917011F0
:105230003091711140917211509173116091480237
:105240007091490280914A0290914B020F947AAF7B
:10525000AB01BC0188E50F94804369837A838B831B
:105260009C83209174113091751140917611509169
:10527000771160914C0270914D0280914E02909195
:105280004F020F947AAFAB01BC0189E50F948043C4
:105290006D837E838F839887BE016B5F7F4FCE01C6
:1052A00001960E94F34D882311F40C94E33980E0B9
:1052B0000E94C2510E94309A61E085E40F94C74376
:1052C000182F21E041E0682FCE0101960E94634F24
:1052D0006B017C019B01AC010F9422B281115FC074
:1052E00089809A80AB80BC8020E030E0A901C501B4
:1052F000B4010F9476A887FF05C027E137EB41E59D
:1053000058EB04C027E137EB41E558E3C501B40190
:105310000F947AAFAB01BC0185EA97E00E94AA55D1
:105320008D809E80AF80B88420E030E0A901C50167
:10533000B4010F9476A887FF05C027E137EB41E55C
:1053400058EB04C027E137EB41E558E3C501B40150
:105350000F947AAFAB01BC0180EA97E00E94AA5596
:1053600020E030E0A901C701B6010F9476A887FFBD
:1053700005C027E137EB41E558EB04C027E137EBE7
:1053800041E558E3C701B6010F947AAFAB01BC0108
:105390008BE997E00E94AA558AE00E94F53F0E949F
:1053A000179A113011F40F940A910E941E9E0C94CA
:1053B000E3398FE08093120A0C94E33980913F1116
:1053C000882351F1893009F076C0F2E1CF2EF3E065
:1053D000DF2EA8E4EA2EA2E0FA2E312C00E010E045
:1053E000D6018D916D010E948B4B882371F0812F26
:1053F0000F943101F70160837183828393831330AB
:1054000011F401E002C0332433941F5FF4E0EF0E87
:10541000F11C143029F744C072E1C72E73E0D72E77
:10542000E8E4EE2EE2E0FE2E312C00E010E0D601A2
:105430008D916D010E948B4B882361F1812F0F9418
:1054400031014B015C01F70120813181428153819F
:105450000F9479AF2B013C012DEB37E346E855EB78
:105460000F9441B187FD0AC02DEB37E346E855E3C1
:10547000C301B2010F9476A8181664F4133011F426
:1054800001E002C033243394D7018D929D92AD92F6
:10549000BC9213971F5FB4E0EB0EF11C143039F689
:1054A000332019F00E94EC9C06C0002321F084E513
:1054B00092E00F94BD930E941E9E0C94E33980915C
:1054C0002602882311F40C94E33989E40E948B4B63
:1054D000082F882321F00E94FA4AE82E01C0E12C0F
:1054E0008AE40E948B4B182F882321F00E94FA4AED
:1054F000F82E01C0F12C002319F0E4E0EE1528F09D
:10550000112349F0F4E0FF1530F48DEA97E00E9492
:10551000FC3F0C94E33980E1E8E4F2E0A7EEB7E069
:1055200001900D928A95E1F7002359F08E2D0E948B
:10553000D54B6093E7077093E8078093E907909352
:10554000EA07112359F08F2D0E94D54B6093EB078A
:105550007093EC078093ED079093EE0760E080E591
:105560000F94C7438823C1F10023D1F0209170111B
:105570003091711140917211509173116091E70750
:105580007091E8078091E9079091EA070F9479AF4D
:105590006093E7077093E8078093E9079093EA0721
:1055A0001123D1F020917411309175114091761131
:1055B000509177116091EB077091EC078091ED07A6
:1055C0009091EE070F9479AF6093EB077093EC071F
:1055D0008093ED079093EE0740E050E0BA0186E437
:1055E0000F9480436B017C0120E030E0A9010F940F
:1055F00041B118164CF420E030E040E752E4C70116
:10560000B6010F9402B003C060E070E0CB01698383
:105610007A838B839C83CE0101960E94E3A80C942D
:10562000E3390F9478130C94E339809140119091F1
:1056300041118C38910509F4ACC60CF029C18135B3
:10564000910509F4EFC60CF097C08B31910509F470
:10565000B4C30CF053C08531910509F40EC39CF519
:105660008131910509F4EBC22CF4029708F464C26D
:105670000C94CD398231910509F4F1C6449711F0AB
:105680000C94CD3989E098E00E94FC3F8AE69CE0CA
:105690000F94473A8BE1EAE6FCE0DE0111960190B7
:1056A0000D928A95E1F760E070E0CE0101960F94CB
:1056B0002B7BCE0101960F94E6438AEF97E00E9480
:1056C000FC3F0C94E3398831910509F4F5C26CF480
:1056D0008631910509F4D5C2479711F00C94CD3964
:1056E000E0913D11F0913E11D9C28931910509F443
:1056F0004BC34A9709F453C30C94CD398A329105B0
:1057000009F499C4ECF48E31910509F4B0C37CF42A
:105710008C31910509F4A3C34D9711F00C94CD3948
:1057200080914D0C8E7F80934D0C0C94E3398F311A
:10573000910509F4D5C3809709F4A9C30C94CD3918
:105740008B34910509F4B1C454F48033910509F404
:1057500095C48934910509F495C40C94CD398C34E1
:10576000910509F4A6C48D34910511F00C94CD393E
:105770000E946C880C94E3398D36910509F4D9C4E4
:105780000CF03FC08436910509F497C404F58435C4
:10579000910509F464C68CF48235910509F458C664
:1057A0008335910511F00C94CD398091120A8F7ECA
:1057B00080628093120A0C94E3398535910509F4CF
:1057C0007AC68C35910509F48FC60C94CD398A368A
:1057D000910509F42EC554F48836910509F471C475
:1057E0008936910509F412C50C94CD398B36910593
:1057F00009F447C58C36910511F40C94E3390C94E7
:10580000CD398337910509F409C7ECF48037910548
:1058100011F40C94E33954F48E36910509F43CC527
:105820008F36910509F44BC50C94CD39813791051C
:1058300009F48AC58237910511F00C94CD390F9483
:10584000F78D0C94E3398737910509F493C78CF4ED
:105850008537910509F44BC78637910511F00C94F3
:10586000CD3900913D1110913E1194E0F12C40E0B2
:1058700065C78937910509F488C70CF47EC78D3751
:10588000910511F00C94CD390F94DC1C0C94E33984
:105890008A3921E0920711F40C94E3390CF098C096
:1058A0008D3D910511F40C94C1340CF03FC08B3C3C
:1058B000910511F40C947134CCF48B39910509F4F1
:1058C0008AC554F48139910509F466C78539910573
:1058D00009F4BBC70C94CD398E3B910509F477C50B
:1058E000893C910509F4CCC70C94CD39833D9105D1
:1058F00011F40C949D3474F48C3C910511F40C94C7
:105900009A348D3C910511F00C94CD390F946001BF
:105910000C94E339893D910511F40C94A0348C3D2D
:10592000910511F40C94B4340C94CD398E32A1E06D
:105930009A0711F40C947A3614F58232E1E09E074E
:1059400011F40C94EF3564F4823E910511F40C943B
:105950000C358831914011F40C9458350C94CD39A4
:105960008C3231E0930711F40C94F2358D32914072
:1059700011F00C94CD390F9479220C94E3398336CD
:10598000B1E09B0711F40C9471396CF48F32F1E0A3
:105990009F0711F40C94BE368033914011F40C949F
:1059A00007360C94CD39813931E0930711F40C940A
:1059B000C1368239A1E09A0711F40C94C7368039B8
:1059C000914011F00C94CD390E94CBBE0C94E33978
:1059D0008C30E2E09E0711F40C94FE370CF04DC0C1
:1059E000863E21E0920711F40C9472371CF5843A3C
:1059F000A1E09A0711F40C94D9366CF48C39E1E0EB
:105A00009E0711F40C94CF368D39914011F40C940B
:105A1000B3390C94CD39853A21E0920711F40C94F6
:105A2000DC36893A914011F00C94CD390F94D607A9
:105A30000C94E339863FA1E09A0711F40C94E13706
:105A40007CF4843FE1E09E0711F40C94DE37853F3F
:105A5000914011F00C94CD390F94186E0C94E339E9
:105A6000873F21E0920711F40C94E437883F91407E
:105A700011F40C94ED370C94CD398335A3E09A07DB
:105A800011F40C9484382CF58B35E2E09E0711F468
:105A90000C948A387CF48F3322E0920711F40C9432
:105AA00006388835924011F00C94CD390F94B11B13
:105AB0000C94E3398D3BA2E09A0711F40C9406395B
:105AC0008E3B924011F00C94CD390F942D190C940B
:105AD000E3398438E3E09E0711F40C9409396CF43F
