:100000000C94F1240C9422250C9422250C94222586
:100010000C9422250C9422250C9422250C94222544
:100020000C9422250C9422250C9422250C94222534
:100030000C9422250D94C4560C9422250C94222550
:100040000C9422250D9455650C9422250C942225A0
:100050000C9422250C9422250D94CF5D0D940B65F4
:100060000C9422250C94A75C0C949D5C0C94222586
:100070000C9422250C9422250C9422250C942225E4
:100080000C9422250C9422250C9422250C942225D4
:100090000C9422250C9422250C9422250C942225C4
:1000A0000C9422250C9422250C9422250C942225B4
:1000B0000C9422250C9422250C9422250C942225A4
:1000C0000C9422250C9422250C9422250C94222594
:1000D0000C9422250C9422250C9422250C94222584
:1000E0000C942225DD5CE35CF55C055D0D5D3D5DFA
:1000F000115D3D5D155D195D3D5D1D5D215D255DFC
:100100002E5D3D5D395D6B02C301210289018702CD
:10011000850161011F021901AB014F01AD01B5015C
:10012000D3023501570261028B012902F901A501B1
:1001300035029B0117021102A9028B01FB01D101BB
:1001400015010701C1011D021B01DB01DF010B01CC
:10015000AD022D02BF02A7025302A1024F02DF012E
:100160003101C7017F0105A84CCDB2D44EB9383654
:10017000A9020C50B9918688083CA6AAAA2ABE00FA
:100180000000803F07634236B79BD8A71A396856EC
:1001900018AEBAAB558C1D3CB7CC5763BD6DEDFDA9
:1001A000753EF6177231BF000000803F0800000066
:1001B000BE922449123EABAAAA2ABECDCCCC4C3E5C
:1001C00000000080BEABAAAAAA3E00000000BF004B
:1001D0000000803F0000000000084178D3BB438747
:1001E000D1133D190E3CC3BD4282AD2B3E68EC825B
:1001F00076BED98FE1A93E4C80EFFFBE01C4FF7FE0
:100200003F00000000000C94963A0D948E190D9456
:1002100025640D94B0170D944D640D94F50D0D9457
:100220008A190C945E3C0C94EEE40D9467600D9476
:10023000EA360D945D2E0D9439640C94823C0C9436
:1002400061E20C94073F0D9496280C94F55C0D9494
:100250004E290D9485280D94183C0D942E560C941F
:10026000C2850D949E640D94253C0D9424600C94DD
:10027000E4E20C94A33B0C94D4E20C9461450D94FD
:1002800052430C94195D0D94E20E0D9451230C947D
:1002900036C90C94353B0C940DE40D94E3170D9482
:1002A000602E0C946F3B0D9462290C94155D0D9497
:1002B000CE4F0C94DD5C0D94313C0D9408280D94C8
:1002C000E3360D945A2E0C940BE30D947F190C9485
:1002D00040C90D946E290C94B4840D9479560D94F4
:1002E00058560D945A290D949E0E0D9450150D9448
:1002F00032550C945AC30D94F0360D94330F0D946F
:10030000B2640D94C14E0C942E5D0D94572E0C9436
:10031000F25E0D94782E0D946C600D944A290D9424
:100320002D500D9481190D948E280C940D5D0C9414
:10033000F1820D9472290D944B600D9431280C9428
:10034000F7830D94E1170D9480170D9443600D947D
:1003500056290C94EE3A0D94732E0D94632E0C9442
:1003600042450D94F6360C94115D0D9432600C9458
:100370006A3C0D9451110D946E500D942B3C0C94CD
:10038000763C0D942A640D944E2E0D9495560D9442
:10039000A8640D9473750C941E890C9437E20C9428
:1003A000DA3A0D9463600C9401860D944D150D940A
:1003B0001C440C94803A0D9443640C94CB430D94EC
:1003C000BC640D9455750D9454470C947C3C0D946D
:1003D000DD170C94023B0C946B450D94010F0C94AB
:1003E00007E40C94523B0D9402370C94313B0C946F
:1003F0001D5D0D943D600D945F600C94F0E20D94D2
:100400001F3C0D94373C0D94F9160D942B0F0D9451
:1004100066470D94AE170D9465560C94BC3D0C9434
:10042000055D0D9455600C943D5D0D940C0F0D947D
:1004300051600D9412280C94883C0D942F640D94F7
:10044000662E0D94512E0C942DC90C9452870D9448
:1004500053470D9439600C9408E30D945D640D943A
:10046000E7360C94B13B0D94162B0D9447600D9418
:10047000DF170C948E3C0C9487E20C9453C50C94BB
:10048000F6E20D9452290D946A290C94255D0C9482
:100490003F3A0C94CC3A0D94C00F0D94C6470D947E
:1004A00094640C94A7840D947B640C9406870D943B
:1004B00028600C9402E30C94E4890C94215D0D9463
:1004C000E6240D942E600C94EAE20C94703C0D949A
:1004D000DF0F0C94ED410D94752E0D940D280D94A5
:1004E000D74E0C94FCE20D9453150C941E3B0D94C6
:1004F000EF110D948C190D94790D0C940E820C94BF
:10050000D63E0C94BE3A0C94AA3A0C94B83D0D9485
:10051000542E0D945E290D9490190C94433F0C9425
:100520007BC20D949F170C943BC90C946E450C94A0
:10053000643C0D94701D0D94A1380D947A430D9474
:1005400003280D948A640C94E35C0D9479510D9406
:1005500071640D9459600D945A260D9455640D9450
:10056000FC360C94103B0C94235F0C94E5840D94A2
:1005700066290C94943C0D949C280C9499E70D9456
:1005800067640C9432C90D94C24E0C948C3B0C944D
:10059000AA3B0C940EE30C9471450C943BE20D9431
:1005A0006B570D945E150D9435600C94395D0D9468
:1005B000EC4F4E414E494E495459494E46CDCCCC54
:1005C0003D0AD7233C17B7D13877CC2B329595E627
:1005D000241FB14F0A000020410000C84200401C07
:1005E0004620BCBE4CCA1B0E5AAEC59D7400407A54
:1005F00010F35A00A0724E18090010A5D4E80000AC
:10060000E87648170000E40B54020000CA9A3B0049
:100610000000E1F505000080969800000040420FC0
:10062000000000A08601000000102700000000E884
:1006300003000000006400000000000A0000000049
:10064000000100000000002C76D888DC674F0823EA
:10065000DFC1DFAE59E1B1B796E5E3E453C63AE650
:1006600051997696E8E6C28426EB898C9B62ED4030
:100670007C6FFCEFBC9C9F40F2BAA56FA5F490057F
:100680005A2AF75C936B6CF9676DC11BFCE0E40DB3
:1006900047FEF520E6B500D0ED902E0300943577A7
:1006A000050080841E080000204E0A000000C80CCF
:1006B000333333330F986E12831141EF8D21148938
:1006C0003BE65516CFFEE6DB18D1844B381BF77C92
:1006D0001D901DA4BBE424203284725E228100C9D7
:1006E000F124ECA1E53D27434F4D4D554E49434183
:1006F00054494F4E0044525952554E004552524FA4
:100700005253004543484F0020643A0020693A00A4
:1007100020703A00536C6565702E2E2E0057617262
:100720006E696E67203A20436C65616E2043697282
:10073000636C652072657175697265732058590A1A
:10074000004D65736820706F696E742063616E6E12
:100750006F74206265207265736F6C7665640A0041
:100760004E6F204D6F76652E00456E642066696C75
:1007700065206C6973740A00426567696E2066695A
:100780006C65206C6973740A00526573756D696ECF
:100790006720534400286E6F2066696C652900430A
:1007A000757272656E742066696C653A2000256901
:1007B0007920256964202569682025696D202569CF
:1007C00073005072696E742074696D653A2000443C
:1007D000454255473A004D313133205300334420D0
:1007E0005072696E746572204F46462E0043484130
:1007F0004D4245525F54454D504552415455524526
:10080000004D4F54494F4E5F4D4F4445530054489F
:1008100045524D414C5F50524F54454354494F4E01
:10082000004155544F5245504F52545F53445F530B
:1008300054415455530050524F4D50545F535550EE
:10084000504F525400454D455247454E43595F5015
:10085000415253455200434153455F4C4947485428
:100860005F4252494748544E45535300544F4747FF
:100870004C455F4C494748545300534F46545741E9
:1008800052455F504F574552004255494C445F50C6
:10089000455243454E54004C4556454C494E475FE2
:1008A00044415441005A5F50524F42450041555413
:1008B0004F4C4556454C005052494E545F4A4F42AA
:1008C0000050524F4752455353004155544F5245E3
:1008D000504F52545F54454D5000564F4C554D4566
:1008E000545249430042494E4152595F46494C4592
:1008F0005F5452414E534645520053455249414C74
:100900005F584F4E5F584F4646004649524D57413B
:1009100052455F4E414D453A4D61726C696E2042C1
:1009200075696C64203435372028476974487562CE
:100930002920534F555243455F434F44455F55521D
:100940004C3A68747470733A2F2F676974687562D3
:100950002E636F6D2F5665727461627265616B2FC5
:100960004D61726C696E2050524F544F434F4C5F33
:1009700056455253494F4E3A312E30204D4143484F
:10098000494E455F545950453A3344205072696E80
:100990007465722045585452554445525F434F5533
:1009A0004E543A3320555549443A38333666613906
:1009B00034332D313333372D313333372D31333316
:1009C000372D3938613230646537353630370A00B3
:1009D0002F2F20004D31343520533C696E646578EB
:1009E0003E206F7574206F662072616E67652028E7
:1009F000302D31290A0020466C6F773A2000507262
:100A00006F7465637465642050696E0A006469736D
:100A10000043290A0061626C656420286D696E20BC
:100A200074656D702000436F6C6420657874727516
:100A300064657320617265200046696C616D656E46
:100A4000742072756E6F75742000454550524F4D7D
:100A5000204F4B0A003F284229617564207261745F
:100A60006520696D706C61757369626C652E0A0032
:100A70002053657269616C20302062617564207258
:100A80006174652073657420746F20004164766121
:100A90006E6365204B003F4B2076616C7565206F5F
:100AA0007574206F662072616E67652028302D3165
:100AB00030292E0A003F542076616C7565206F75D1
:100AC00074206F662072616E67652E0A0043617341
:100AD00065206C696768743A200043617365206C17
:100AE000696768743A206F66660A00506F776572AE
:100AF0002D6C6F7373207265636F76657279200059
:100B000003071918FC06F506E7064C6F6164206DB3
:100B10006D00556E6C6F6164206D6D00416476618F
:100B20006E6365204B202A0020022046616374001A
:100B30002002204D6178002002204D696E00417531
:100B4000746F74656D70005654726176204D696ED5
:100B500000566D696E00566D6178202A00566D61F1
:100B600078204500566D6178205A00566D617820D6
:100B70005900566D6178205800656E717565756510
:100B8000696E672022006F6B00526573656E643A70
:100B9000200042656420436F6F6C696E672E2E2EB5
:100BA000004265642048656174696E672E2E2E00D0
:100BB00023646566696E652044454641554C545F23
:100BC000004B6420004B6920004B702000504944CA
:100BD000204175746F74756E652066696E697368FF
:100BE0006564212050757420746865206C6173748D
:100BF000204B702C204B6920616E64204B64206375
:100C00006F6E7374616E74732066726F6D206265AF
:100C10006C6F7720696E746F20436F6E66696775BD
:100C2000726174696F6E2E680A00504944204175E4
:100C3000746F74756E65206661696C6564212074DB
:100C4000696D656F75740A000A20436C617373697E
:100C50006320504944200A00204B643A2000204B76
:100C6000693A2000204B703A20000A204E6F206F16
:100C700076657273686F6F740A002054753A2000AD
:100C8000204B753A2000206D61783A2000206D6974
:100C90006E3A200020643A200020626961733A2095
:100CA00000504944204175746F74756E65207374EB
:100CB0006172740A00504944204175746F74756EF6
:100CC00065206661696C6564212054656D7065728C
:100CD000617475726520746F6F20686967680A00B7
:100CE000504944204175746F74756E652066616962
:100CF0006C65642120426164206578747275646556
:100D000072206E756D6265720A007C4D61726C694D
:100D10006E7C002D2D2D2D2D2D00A10000006900D1
:100D2000A20000006300B00000000900C100000044
:100D30004100C20000004100C30000004100C400A7
:100D400000004100C50000004100C6000000414510
:100D5000C70000004300C80000004500C9000000B3
:100D60004500CD0000004900D10000004E00D50034
:100D700000004F00D60000004F00D70000007800B0
:100D8000DC0000005500DD0000005900E00000001C
:100D90006100E10000006100E20000006100E3008A
:100DA00000006100E40000006100E5000000610057
:100DB000E60000006165E70000006300E800000055
:100DC0006500E90000006500EA0000006500EB0036
:100DD00000006500EC0000006900ED000000690003
:100DE000EE0000006900EF0000006900F100000063
:100DF0006E00F20000006F00F30000006F00F400CE
:100E000000006F00F50000006F00F60000006F00AA
:100E1000F80000006F00F90000007500FA00000003
:100E20007500FB0000007500FC0000007500FD006F
:100E300000007900FF00000079000401000041007B
:100E400005010000610006010000430007010000E9
:100E500063000C01000043000D01000063000E015F
:100E6000000044000F010000640011010000640054
:100E70001901000065001F0100006700300100003B
:100E80004900310100006900410100004C004201AD
:100E900000006C00430100004E00440100006E00A1
:100EA000480100006E005901000072005A01000064
:100EB00053005B01000073005F01000073006001DC
:100EC0000000530061010000730065010000740020
:100ED0006F01000075007C0100007A007D010000B8
:100EE0005A007E0100007A00920100006600E302D1
:100EF000000078008403000027008503000027001D
:100F0000860300004100870300002E0088030000D4
:100F100045008903000048008A03000049008C0353
:100F200000004F008E03000059008F0300004F00A7
:100F3000900300006900910300004100920300004B
:100F40004200930300005400940300003400950312
:100F500000004500960300005A0097030000480077
:100F60009803000030009903000049009A03000034
:100F70004B009B0300005E009C0300004D009D039E
:100F800000004E009E03000033009F0300004F004E
:100F9000A00300006E00A10300005000A3030000A6
:100FA0004500A40300005400A50300005900A60357
:100FB00000007000A70300005800A80300005000C4
:100FC000A90300004F00AA0300004900AB03000082
:100FD0005900AC0300006100AD0300006500AE03E2
:100FE00000006E00AF0300006900B003000076004F
:100FF000B10300006100B20300004200B30300002F
:101000007600B40300006400B50300006500B60379
:1010100000005A00B70300006E00B8030000300063
:10102000B90300006900BA0300006B00BB030000B5
:101030004C00BC0300007500BD0300007600BE0339
:1010400000006500BF0300006F00C00300006E00D9
:10105000C10300007000C20300006300C30300006E
:101060006F00C40300007400C50300007600C603CF
:1010700000007000C70300005800C80300005700BC
:10108000C90300007700CA0300006900CB03000019
:101090007600CC0300006F00CD0300007600CE0385
:1010A000000077000104000045001004000041002A
:1010B000110400006200120400004200130400004A
:1010C00054001404000051001504000045001604EB
:1010D00000002A00170400004500180400004E001C
:1010E000190400004E001A0400004B001B0400000D
:1010F00054001C0400004D001D04000048001E04A4
:1011000000004F001F0400006E002004000050008B
:1011100021040000430022040000540023040000C6
:101120005900240400006F00250400005800260424
:101130000000550027040000790028040000570033
:101140002904000057002A04000062002B0400005C
:10115000627C2C04000062002D04000065002E0457
:1011600000007C4F2F040000397C30040000610037
:101170003104000036003204000042003304000055
:10118000720034040000610035040000650036047C
:1011900000002A00370400006500380400007500D4
:1011A0003904000075003A0400006B003B040000A5
:1011B0006E003C0400006D003D04000048003E0449
:1011C00000006F003F0400006E004004000070004B
:1011D0004104000063004204000074004304000066
:1011E0007900440400007170450400007800460452
:1011F00000007500470400007900480400007700F3
:101200004904000077004A04000062004B0400001B
:10121000627C4C04000062004D04000065004E0436
:1012200000007C6F4F04000067005104000065005F
:10123000222000002E001E210000507822210000F4
:10124000544D902100003C2D922100002D3EB021F4
:1012500000000300BB21000004003C2200007E00CF
:10126000482200007E3D60220000213D61220000F6
:101270003D00642200003C3D652200003E3DF1231C
:1012800000000700A03000003D0021F30100020033
:10129000C2F401000500A2000000EC00B000000054
:1012A000DF00E4000000E100F6000000EF00F700BE
:1012B0000000FD00FC000000F500E3020000EB0070
:1012C00087030000A5008F030000F40098030000CE
:1012D000F2009E030000E300A3030000F600A90350
:1012E0000000F400AC030000E000AD030000E300E8
:1012F000B1030000E000B2030000E200B50300000B
:10130000E300B8030000F200BC030000E400BE03E9
:101310000000E300C0030000F700C1030000E60086
:10132000C3030000E500902100007F00922100002F
:101330007E001A220000E8001E220000F30088252B
:101340000000FF0002300000A1000C300000A200ED
:101350000D300000A3009B300000DE009C30000038
:10136000DF00A03000003D00A1300000A700A23047
:101370000000B100A3300000A800A4300000B200BB
:10138000A5300000A900A6300000B300A73000007F
:10139000AA00A8300000B400A9300000AB00AA30B9
:1013A0000000B500AB300000B600AC300000B6DE87
:1013B000AD300000B700AE300000B7DEAF30000047
:1013C000B800B0300000B8DEB1300000B900B23073
:1013D0000000B9DEB3300000BA00B4300000BADE5D
:1013E000B5300000BB00B6300000BBDEB7300000F7
:1013F000BC00B8300000BCDEB9300000BD00BA301F
:101400000000BDDEBB300000BE00BC300000BEDE10
:10141000BD300000BF00BE300000BFDEBF300000A6
:10142000C000C0300000C0DEC1300000C100C230CA
:101430000000C1DEC3300000AF00C4300000C200B5
:10144000C5300000C2DEC6300000C300C730000057
:10145000C3DEC8300000C400C9300000C4DECA309A
:101460000000C500CB300000C600CC300000C70033
:10147000CD300000C800CE300000C900CF300000E1
:10148000CA00D0300000CADED1300000CADFD2303E
:101490000000CB00D3300000CBDED4300000CBDF27
:1014A000D5300000CC00D6300000CCDED7300000B4
:1014B000CCDFD8300000CD00D9300000CDDEDA30EE
:1014C0000000CDDFDB300000CE00DC300000CEDEDF
:1014D000DD300000CEDFDE300000CF00DF30000066
:1014E000D000E0300000D100E1300000D200E23056
:1014F0000000D300E3300000AC00E4300000D40072
:10150000E5300000AD00E6300000D500E730000017
:10151000AE00E8300000D600E9300000D700EA3025
:101520000000D800EB300000D900EC300000DA00F9
:10153000ED300000DB00EF300000DC00F230000096
:10154000A600F3300000DD00F4300000B3DEF73019
:101550000000DCDEFA300000A6DEFB300000A50053
:10156000FC300000B000FD300000A400074E000079
:10157000FB0086510000FC0043530000FA0064FFAA
:101580000000A40065FF0000A50066FF0000A600A3
:1015900067FF0000A70068FF0000A80069FF0000C7
:1015A000A9006AFF0000AA006BFF0000AB006CFFFF
:1015B0000000AC006DFF0000AD006EFF0000AE004B
:1015C0006FFF0000AF0070FF0000B00071FF00006F
:1015D000B10072FF0000B20073FF0000B30074FF9F
:1015E0000000B40075FF0000B50076FF0000B600F3
:1015F00077FF0000B70078FF0000B80079FF000017
:10160000B9007AFF0000BA007BFF0000BB007CFF3E
:101610000000BC007DFF0000BD007EFF0000BE009A
:101620007FFF0000BF0080FF0000C00081FF0000BE
:10163000C10082FF0000C20083FF0000C30084FFDE
:101640000000C40085FF0000C50086FF0000C60042
:1016500087FF0000C70088FF0000C80089FF000066
:10166000C9008AFF0000CA008BFF0000CB008CFF7E
:101670000000CC008DFF0000CD008EFF0000CE00EA
:101680008FFF0000CF0090FF0000D00091FF00000E
:10169000D10092FF0000D20093FF0000D30094FF1E
:1016A0000000D40095FF0000D50096FF0000D60092
:1016B00097FF0000D70098FF0000D80099FF0000B6
:1016C000D9009AFF0000DA009BFF0000DB009CFFBE
:1016D0000000DC009DFF0000DD009EFF0000DE003A
:1016E0009FFF0000DF00E5FF00005C00001010100D
:1016F0001010100000141414141414000015151503
:1017000015151500001C1F11111F000000061918E7
:1017100003130C00040E1F041C000000000E131520
:10172000110E00001C10181705060500040A0A0A0D
:101730000A11110E0C12120C00000000001F1511EE
:10174000151F000000000000010204040000001C3E
:101750001C0C040404020100000000000408100036
:1017600000000000206D61783A00206D696E3A003B
:101770004178697320005072696E746572207374C9
:101780006F707065642064756520746F2065727277
:101790006F72732E204669782074686520657272B6
:1017A0006F7220616E6420757365204D3939392060
:1017B000746F20726573746172742E202854656D85
:1017C00070657261747572652069732072657365E6
:1017D000742E2053657420697420616674657220CC
:1017E00072657374617274696E67290A004D3837C7
:1017F0003620526573706F6E64696E672050524F69
:101800004D50545F00554E4B4E4F574E2053544150
:1018100054450047434F44455F494E464F004C43B3
:10182000445F50415553455F524553554D45004621
:10183000494C414D454E545F52554E4F55545F43B0
:101840004F4E54494E55450046494C414D454E5426
:101850005F52554E4F5554005075726765204D6F5D
:101860007265004572726F722077726974696E6773
:1018700020746F20454550524F4D210A0062757308
:10188000793A2070617573656420666F7220696EA5
:101890007075740A00627573793A207061757365AA
:1018A0006420666F7220757365720A0062757379C1
:1018B0003A2070726F63657373696E670A007061B6
:1018C000757365004D363030002066696C616D655A
:1018D0006E745F72756E6F7574200066696C616DF1
:1018E000656E745F72756E6F757420540046696C16
:1018F000616D656E7452756E6F757420540053542B
:101900004F505045442E20004E6F20436865636B56
:1019100073756D2077697468206C696E65206E75CB
:101920006D6265722C204C617374204C696E653A4F
:101930002000636865636B73756D206D69736D61FD
:101940007463682C204C617374204C696E653A2076
:10195000004C696E65204E756D626572206973205A
:101960006E6F74204C617374204C696E65204E75E7
:101970006D6265722B312C204C617374204C696E42
:10198000653A20004D313130004D313137004D3353
:10199000310053442072656164206572726F720A6F
:1019A00000446F6E65207072696E74696E672066A0
:1019B000696C650A002121204B494C4C20636175FC
:1019C00073656420627920746F6F206D7563682081
:1019D000696E6163746976652074696D65202D2078
:1019E00063757272656E7420636F6D6D616E643ABB
:1019F0002000252723181F211D1C19171B1E2E2C04
:101A00000C312F302B2D2904400AFF41040908070F
:101A100000010400000501000300050100050400A9
:101A2000000005000300211A1C1A171A121A0000E0
:101A30000000000066420000E64200802C430000E7
:101A4000664320616E642074616B652061206D6562
:101A500061737572656D656E742E0A006D6D20740C
:101A60006869636B2E0A00427573696E6573732033
:101A700043617264206973200052656D6F76652042
:101A800026204D656173757265204265640052655C
:101A90006D6F7665207368696D00506C61636520B9
:101AA0007368696D20756E646572206E6F7A7A6CEA
:101AB00065004D65736820506F696E74204D6561D7
:101AC00073757265642061743A20000A4D6573680D
:101AD000206F6E6C79207061727469616C6C792012
:101AE000706F70756C617465642E0A00506C616370
:101AF00065205368696D2026204D65617375726598
:101B0000004D6F76696E6720746F206E6578740083
:101B10004D6573682045646974696E672053746FFE
:101B20007070656400446F6E652045646974696E09
:101B300067204D6573680A00446F6E6520456469CF
:101B400074696E67204D6573680046696E65205440
:101B5000756E696E67204D6573680028582C592989
:101B6000206F757473696465207072696E74616248
:101B70006C65207261646975732E0A004F66667326
:101B80006574206F7574206F6620626F756E647364
:101B90002E20283020746F2031306D6D290A0A0004
:101BA000496E76616C6964206D617020747970652E
:101BB0002E0A0A003F43616E2774206163746976C0
:101BC00061746520616E6420646561637469766127
:101BD0007465206174207468652073616D6520747C
:101BE000696D652E0A0A00426F746820582026200D
:101BF00059206C6F636174696F6E73206D757374B7
:101C0000206265207370656369666965642E0A0ADF
:101C100000473239204A20616374696F6E20726513
:101C200071756972657320612070726F62652E0A2A
:101C30000A003F285029686173652076616C7565DC
:101C400020696E76616C69642028302D36292E0A51
:101C50000A0047323920503120726571756972650A
:101C60007320612070726F62652E0A0A003F285649
:101C7000296572626F7365206C6576656C20696D8D
:101C8000706C61757369626C652028302D34292E63
:101C90000A0A003F285229657065746974696F6E7D
:101CA00020636F756E7420696E76616C696420289C
:101CB000312B292E0A0A00446F696E67204732399A
:101CC00000646F6E650A00496E73756666696369C4
:101CD000656E7420646174610A0045787472617085
:101CE0006F6C6174696E67206D6573682E2E2E00AF
:101CF0005072696E74696E67204F626A6563740022
:101D00002553202569003F454550524F4D2073749F
:101D10006F72616765206E6F7420617661696C61B6
:101D2000626C652E0A002F2F616374696F6E3A0032
:101D3000627574746F6E0070726F6D70745F007393
:101D4000686F7700486F74656E6420746F6F2063EE
:101D50006F6C640A0053656E64204D313038207416
:101D60006F20726573756D650A00526568656174F0
:101D700020446F6E6500526568656174696E670026
:101D80005265686561740048656174657254696D77
:101D9000656F75740053656E64204D313038207462
:101DA0006F2068656174206E6F7A7A6C650A004EE8
:101DB0006F7A7A6C65205061726B65640070617532
:101DC000736564004D3630303A20546F6F20436F96
:101DD0006C6400726573756D656400526573756D32
:101DE000696E6700426564204C6576656C696E6754
:101DF00020004661696C656420746F20656E6162C5
:101E00006C6520426564204C6576656C696E670A76
:101E100000496E76616C6964206D6573682E0A00F6
:101E200076616C69640A53746F7261676520736CC4
:101E30006F743A20004D65736820697320003F4934
:101E40006E76616C69642073746F7261676520736C
:101E50006C6F742E0A004D34323120696E636F72DC
:101E60007265637420706172616D6574657220754E
:101E7000736167650A003F20616464726573732053
:101E80003A2000206279746573206F66206D656D5D
:101E90006F727920696E697469616C697A65642E04
:101EA0000A0A00556E61626C6520746F20696E6964
:101EB0007469616C697A652E0A0A00496E697469F1
:101EC000616C697A696E672066726565206D656D03
:101ED0006F727920626C6F636B2E0A0A0A0074724B
:101EE00075650A002072657475726E3D000A4D6555
:101EF0006D6F727920436F7272757074696F6E20A6
:101F0000646574656374656420696E2066726565D6
:101F1000206D656D6F727920617265612E0A0020F7
:101F200020626C6F636B5F666F756E643D0020208E
:101F3000200A002920666F756E643D002020204D28
:101F4000656D6F727920636F7272757074696F6EF0
:101F500020646574656374656420776974682065BE
:101F60006E645F667265655F6D656D6F72793C4822
:101F70006561700A0020656E645F667265655F6DFD
:101F8000656D6F7279203C204865617020002020CB
:101F9000656E645F667265655F6D656D6F72793DD4
:101FA000000A667265655F6D656D6F72795F737447
:101FB0006172743D000A666D632829206E3D0063DE
:101FC0006865636B5F666F725F667265655F6D659E
:101FD0006D6F72795F636F7272757074696F6E285E
:101FE00029203D20004D31303020462000206279EC
:101FF00074657320617420000A4C617267657374A4
:10200000206672656520626C6F636B2069732000C7
:1020100020627974657320667265652061742000A2
:10202000466F756E6420000A436F72727570746932
:102030006E6720616464726573733A2000436F7247
:1020400072757074696E672066726565206D656D66
:102050006F727920626C6F636B2E0A0A000A5374E8
:1020600061636B20506F696E7465722020202020A0
:10207000202020203A20000A667265655F6D656D3C
:102080006F72795F656E64202020202020203A2026
:10209000000A667265655F6D656D6F72795F737456
:1020A00061727420202020203A20000A6273735F3E
:1020B000656E642020202020202020202020202049
:1020C00020203A200020284E6F7420796574206DFE
:1020D00065617375726564290020204176657261BF
:1020E0006765206D65617375726564206261636BFD
:1020F0006C61736820286D6D293A002020536D6F44
:102100006F7468696E6720286D6D293A2020202041
:1021100020202020202020202020202020530020AC
:10212000204261636B6C6173682044697374616EF3
:10213000636520286D6D293A202020202020202052
:1021400000202846312E30203D2066756C6C2C20F6
:1021500046302E30203D206E6F6E65290A0020200B
:10216000436F7272656374696F6E20416D6F756E37
:10217000742F466164652D6F75743A2020202020ED
:1021800046006163746976653A0A004261636B6C6C
:1021900061736820436F7272656374696F6E2000AB
:1021A000496E666F2053637265656E0042656420F8
:1021B00054656D7000486F74656E642054656D7071
:1021C000004732392050362043202D00486569678A
:1021D000687420416D6F756E740041646A75737424
:1021E000204D657368204865696768740047323917
:1021F00020503420540046696E652054756E652069
:10220000436C6F7365737400473236204320422558
:10221000692048256920500056616C6964617465C5
:1022200020437573746F6D204D65736800473238B5
:102230000A4732362043204237302048323530209A
:10224000500056616C6964617465204D6573682047
:10225000285045544729004732380A473236204330
:1022600020423630204832303020500056616C69B0
:1022700064617465204D6573682028504C412900C5
:10228000473239204A2569004C6576656C204D65DA
:102290007368005369646520506F696E74730047FA
:1022A000726964204D657368204C6576656C696E53
:1022B0006700473239204A3000332D506F696E7401
:1022C000204C6576656C696E670047323920503363
:1022D000205220432E2569004D616E75616C2046A9
:1022E000696C6C2D696E0046696C6C2D696E2041BD
:1022F0006D6F756E74004D65736820696E76616CE4
:102300006964617465642E0A0047323920490049C6
:102310006E76616C696461746520436C6F7365737C
:102320007400496E76616C696461746520416C6CFF
:1023300000473239205031204300436F6E74696E7C
:10234000756520426564204D6573680046696C6C54
:102350002D696E204D657368004275696C64204379
:102360007573746F6D204D657368004732380A4D80
:10237000313930205337300A4D313039205332351E
:10238000300A4732392050310A4D31303420533031
:102390000A4D313430205330004275696C64204D51
:1023A00065736820285045544729004732380A4D44
:1023B000313930205336300A4D31303920533230E4
:1023C000300A4732392050310A4D313034205330F1
:1023D0000A4D313430205330004275696C64204D11
:1023E0006573682028504C41290020436F756E7436
:1023F00020583A005761726E696E673A20486F6DD7
:10240000696E672042756D702044697669736F72DA
:10241000203C20310A0000006643000066430000B3
:102420007A43000020C10000A0C0000000000000AE
:1024300020C10000A0C000000000000020420000F9
:102440002042000080400202020000A0400000A0E4
:10245000400000A0400000704300006B4300007A81
:1024600043FFFFFF000000010000000100008000AA
:10247000555555000000400033333300AAAA2A0006
:102480004992240000002000C7711C00999919008E
:10249000D1451700555515003BB1130024491200D2
:1024A00011111100000010000F0F0F00E3380E0093
:1024B00043790D00CCCC0C00C3300C00E8A20B001B
:1024C00064210B00AAAA0A00703D0A009DD80900E9
:1024D000427B090092240900DCD3080088880800A8
:1024E0001042080000000800F0C1070087870700BD
:1024F00075500700711C07003EEB0600A1BC0600EA
:102500006990060066660600703E060061180600C7
:1025100017F4050074D105005BB00500B29005000A
:10252000627205005555050078390500B81E050092
:10253000050505004EEC040087D40400A1BD04008D
:1025400090A7040049920400C17D0400EE690400D4
:10255000C7560400444404005C320400082104000F
:1025600041100400000004003FF00300F8E0030005
:1025700026D20300C3C30300CCB503003AA803006E
:102580000A9B0300388E0300C08103009F7503007F
:10259000D0690300505E03001D530300344803005C
:1025A000913D03003333030016290300381F030055
:1025B00097150300300C0300030303000BFA02001D
:1025C00049F10200BAE802005CE002002DD80200E6
:1025D0002DD0020059C80200B0C0020031B902007B
:1025E000DAB10200AAAA0200A0A30200BC9C020069
:1025F000FA9502005C8F0200DF88020082820200EE
:10260000457C02002776020027700200436A020020
:102610007C640200D05E02003F590200C8530200F1
:102620002062797465733B20637263200053657484
:1026300074696E67732053746F7265642028004E4E
:102640006F20454550524F4D2E0A00454550524F80
:102650004D206461746173697A65206572726F726E
:102660002E0A003F4D65736820746F6F20626967A2
:1026700020666F7220454550524F4D2E0A0055423C
:102680004C2072657365740A00206C6F6164656428
:102690002066726F6D2073746F726167652E0A0019
:1026A0004D65736820003F43616E277420656E613D
:1026B000626C6520002073746F72656420736574AA
:1026C00074696E67732072657472696576656420DB
:1026D0002800202863616C63756C6174656429212E
:1026E0000A0020213D2000454550524F4D204352C5
:1026F00043206D69736D61746368202D20287374A5
:102700006F726564292000496E6465783A20002064
:102710004D61726C696E3D563734290A004545504B
:10272000524F4D2076657273696F6E206D69736DBF
:10273000617463682028454550524F4D3D00207418
:102740006F6F206C6F6E6720657874727573696F38
:102750006E2070726576656E7465640A0020636F22
:102760006C6420657874727573696F6E2070726521
:1027700076656E7465640A00556E6C6F6164204600
:10278000696C616D656E74202A004C6F616420462F
:10279000696C616D656E74202A0052756E6F757478
:1027A0002053656E736F7200554E4C4F4144204666
:1027B000494C414D454E540046494C414D454E54BF
:1027C000204348414E4745004732380A47323920B6
:1027D000503420523235350A47323920410A4D35BE
:1027E0003030004732392050340A4D353030004DFA
:1027F000333033205531204530205332353020439B
:10280000380A4D353030004D3330332055312045B6
:102810002D31205339302043380A4D353030004DAA
:10282000393030204B300A4D353030004D393030A2
:10283000204B302E320A4D353030004D39303020AB
:102840004B302E330A4D353030004D393030204B6F
:10285000302E340A4D353030004D393030204B3079
:102860002E350A4D353030004D393030204B302E6A
:10287000360A4D353030004C696E20416476204B6D
:10288000302E34004C696E20416476204B302E355A
:10289000004C696E20416476204B302E33004C6929
:1028A0006E20416476204B302E32004C696E204100
:1028B0006476204F66660050494474756E65204208
:1028C00065640050494474756E6520486F74656E88
:1028D000640041646A75737420506F696E74204E91
:1028E000656172004C696E20416476204B302E3653
:1028F000004D616E75616C2055424C004D37303291
:1029000020542564004D3630302042302054256458
:10291000004D373032203B2564004D373031205494
:10292000256400556E6C6F61642046696C616D654D
:102930006E74004C6F61642046696C616D656E74E5
:10294000005072656865617420437573746F6D0023
:102950004D36303020423020542569004D3730311B
:1029600020542569004D37303220542569004D37F9
:10297000303200556E6C6F616420416C6C004368AE
:10298000616E67652046696C616D656E74202A0012
:102990005075726765206D6F726500524553554DD5
:1029A00045204F5054494F4E533A005052494E54CF
:1029B000205041555345440020204E6F7A7A6C6573
:1029C0003A200020595A3A200020585A3A20002034
:1029D00058593A2000536B657720466163746F72D3
:1029E000006D696E5F736B65775F666163746F72AC
:1029F0003A20202D31206D61785F736B65775F66BB
:102A00006163746F723A2020310A00416363656C20
:102A100065726174696F6E3A2050003F4A206F758D
:102A200074206F662072616E67652028302E303109
:102A300020746F20302E33290A0020633A00204D85
:102A40003932205400204D393220580020204D6169
:102A5000783A200020204D696E3A2000536F66744A
:102A600020656E6473746F70733A20004D323420A9
:102A700053256C642054256C64004739322E39206C
:102A800045257300473120462564004731204531F4
:102A9000204633303030004739322E39205A2573E2
:102AA000004731205A30204632303000473120581C
:102AB00025732059257320463330303000473120AC
:102AC00045312046323030004D34323020532569B4
:102AD000205A2573004D313036205025692053256A
:102AE00069005425692053004739322E392045307A
:102AF0005A300A47315A320A473238523058590050
:102B00004D343230205330205A300020496E7661E7
:102B10006C6964206578747275646572200024F4B1
:102B2000D43050C38E20C2A24017828B7011127A0B
:102B3000910D816CD90AA861E108C75866076151F7
:102B400043061E4B5D05C145A7041A411104093D0A
:102B50009803713931034036DB0265339102D4307A
:102B60005402802E1D02632CEE01752AC501B02887
:102B7000A001102781018F2564012B244B01E02245
:102B80003401AC211F018D200D01801FFC00841E2B
:102B9000ED00971DDF00B81CD200E61BC600201B0D
:102BA000BC00641AB200B219A8000A19A0006A1881
:102BB0009900D117910040178B00B516840031168B
:102BC0007E00B31579003A157300C7146F005814CE
:102BD0006A00EE1366008813630025135E00C712B7
:102BE0005B006C12570015125400C1115100701196
:102BF0004F0021114B00D61049008D1047004610A0
:102C0000440002104200C00F4000800F3E00420FFF
:102C10003C00060F3B00CB0E3800930E37005C0ED5
:102C20003500270E3400F30D3200C10D3100900D38
:102C30003000600D2E00320D2D00050D2C00D90C3A
:102C40002B00AE0C2900850C29005C0C2700350CEC
:102C500027000E0C2600E80B2400C40B2400A00B58
:102C600023007D0B23005A0B2100390B2100180B88
:102C70002000F80A1F00D90A1E00BB0A1E009D0A88
:102C80001D00800A1D00630A1C00470A1B002C0A55
:102C90001B00110A1A00F7091A00DD091900C409FE
:102CA0001900AB091900920917007B091800630984
:102CB00017004C09160036091600200916000A09EB
:102CC0001500F5081500E0081400CC081400B80839
:102CD0001400A4081400900813007D0812006B086B
:102CE0001300580812004608120034081100230887
:102CF00011001208110001081100F0071000E00790
:102D00001000D0071000C0071000B0070F00A10787
:102D1000100091070E0083070F0074070F0065076E
:102D20000E0057070E0049070E003B070D002E0747
:102D30000E0020070D0013070D0006070D00F90611
:102D40000C00ED060D00E0060C00D4060C00C806D1
:102D50000C00BC060C00B0060C00A4060B00990683
:102D60000C008D060B0082060B0077060B006C062C
:102D70000B0061060A0057060B004C060A004206CB
:102D80000A0038060A002E060A0024060A001A065F
:102D90000A001006090007060A00FD050900F405EF
:102DA0000900EB050900E2050900D9050900D00575
:102DB0000900C7050900BE050900B5050800AD05F5
:102DC0000800A50509009C050800940508008C056D
:102DD0000800840508007C050800740508006C05DF
:102DE0000700650508005D050700560508004E054B
:102DF00007004705070040050800380507003105B2
:102E000007002A050700230507001C050600160514
:102E100007000F0507000805060002050700FB0470
:102E20000600F5040700EE040600E8040600E204CC
:102E30000700DB040600D5040600CF040600C90421
:102E40000600C3040600BD040600B7040600B10472
:102E50000500AC040600A6040600A00405009B04BF
:102E6000060095040500900406008A040500850408
:102E70000500800406007A0405007504050070044E
:102E800005006B04050066040500610405005C0490
:102E9000050057040500520405004D0405004804D0
:102EA0000500430405003E0404003A04050035040F
:102EB0000500300404002C0405002704040023044A
:102EC00005001E0404001A04040016040500110481
:102ED00004000D04040009040500040404000004B7
:102EE0000400FC030400F8030400F4030400F003EE
:102EF0000400EC030400E8030400E4030400E0031E
:102F00000400DC030400D8030400D4030400D0034D
:102F10000400CC030400C8030300C503030024F429
:102F200004D9201BC40C5C0E9804C4095F02650719
:102F30007101F405F900FB04B30048048700C103E4
:102F400069005803550003034500BE023A0084029D
:102F5000310053022A002902250004022000E40166
:102F60001C00C8011900AF0117009801140084016A
:102F70001300710110006101100051010E004301A6
:102F80000D0036010B002B010B0020010B00150179
:102F900009000C01090003010800FB000800F30010
:102FA0000800EB000700E4000600DE000600D80081
:102FB0000600D2000600CC000500C7000500C200D4
:102FC0000500BD000400B9000400B5000400B10014
:102FD0000400AD000400A9000400A5000300A20045
:102FE00003009F0004009B0003009800030095006D
:102FF000020093000300900003008D0002008B008C
:1030000003008800020086000200840003008100A3
:1030100002007F0002007D0002007B0002007900B8
:1030200002007700010076000200740002007200C6
:103030000100710002006F0002006D0001006C00D1
:1030400002006A00010069000200670001006600DA
:1030500001006500010064000200620001006100DF
:103060000100600001005F0002005D0001005C00E3
:1030700001005B0001005A000100590001005800E6
:1030800001005700010056000100550001005400E6
:1030900001005300000053000100520001005100E4
:1030A0000100500001004F0001004E0000004E00E2
:1030B00001004D0001004C0001004B0000004B00DE
:1030C00001004A00010049000100480000004800DA
:1030D00001004700010046000000460001004500D5
:1030E00000004500010044000100430000004300CF
:1030F00001004200000042000100410000004100C8
:103100000100400001003F0000003F0001003E00C0
:1031100000003E0001003D0000003D0001003C00B9
:1031200000003C0000003C0001003B0000003B00B0
:1031300001003A0000003A000100390000003900A7
:10314000010038000000380000003800010037009E
:103150000000370001003600000036000000360095
:10316000010035000000350000003500010034008A
:103170000000340000003400010033000000330080
:103180000000330001003200000032000000320075
:10319000010031000000310000003100010030006A
:1031A000000030000000300001002F0000002F0060
:1031B00000002F0000002F0001002E0000002E0054
:1031C00000002E0001002D0000002D0000002D0049
:1031D00000002D0001002C0000002C0000002C003D
:1031E00000002C0001002B0000002B0000002B0031
:1031F00000002B0001002A0000002A0000002A0025
:1032000000002A0001002900000029000000290018
:10321000000029000000290001002800000028000B
:1032200000002800000028000000280001002700FE
:1032300000002700000027000000270000002700F2
:1032400001002600000026000000260000002600E5
:1032500000002600010025000000250000002500D8
:1032600000002500000025000000250001002400CA
:1032700000002400000024000000240000002400BE
:1032800001002300000023000000230000002300B1
:1032900000002300000023000000230001002200A2
:1032A0000000220000002200000022000000220096
:1032B0000000220001002100000021000000210088
:1032C000000021000000210000002100000021007A
:1032D000010020000000200000002000000020006D
:1032E000000020000000200000002000000020005E
:1032F00001001F0000001F0000001F0000001F0051
:1033000000001F0000001F0000001F0001001E0041
:1033100000001E0000001E0000001E000000232C04
:103320000000B8220000561800003A0F0000B8084C
:103330000000B1040000710200003E01000054656D
:103340006D70657261747572650050726568656153
:103350007420504554470050726568656174205070
:103360004C41004E6F7A7A6C65004D61696E004D7C
:1033700031303920532569004D31393020532569CA
:103380000050726568656174205045544720456E51
:10339000640050726568656174205045544720424E
:1033A000656400436F6F6C646F776E0046616E20DA
:1033B0005370656564203D004E6F7A7A6C652053CA
:1033C00074616E6462790042616279737465702021
:1033D0005A00466C6F77207E00466C6F77004D6513
:1033E000736820456469746F72006563686F3A00A2
:1033F0004572726F723A0020204D343231204900FC
:103400002020473239204939390A006163746976CE
:10341000650A002053797374656D2076312E303142
:1034200020002020207C0A004E414E0020202E202B
:10343000202000207C004C43443A0A004353563A73
:103440000A0020666F7220003A0A0A000A42656488
:1034500020546F706F677261706879205265706F69
:10346000727400446F6E652E0A003F496E76616C7F
:1034700069642073746F7261676520736C6F742E5A
:103480000A3F557365203020746F20004732392081
:1034900050322066696E69736865642E0A00585957
:1034A000206F757473696465207072696E746162EF
:1034B0006C65207261646975732E0A003F457272F3
:1034C0006F7220696E20427573696E657373204355
:1034D000617264206D6561737572656D656E742EC1
:1034E0000A004D616E75616C6C792070726F626953
:1034F0006E6720756E726561636861626C65206DD0
:10350000657368206C6F636174696F6E732E0A0057
:103510004D657368207A65726F65642E0A00446594
:103520006661756C742073746F7261676520736C6B
:103530006F7420302073656C65637465642E0A00B7
:103540004C6F6164696E6720746573745F70617439
:103550007465726E2076616C7565732E0A0A004977
:103560006E76616C696420746573745F70617474E5
:1035700065726E2076616C75652E20282D31207461
:103580006F2032290A0A004C6F636174696F6E7391
:1035900020696E76616C6964617465642E0A0A0044
:1035A000456E74697265204D65736820696E766139
:1035B0006C6964617465642E0A0A005374616E64F8
:1035C00061726420446576696174696F6E3A2000A7
:1035D0004D65616E204D6573682048656967687444
:1035E0003A200023206F662073616D706C65733A1A
:1035F00020007C3C3E5E2B3D3F2F5B5D3B2C2A2216
:103600005C0044697361626C6552756E6F7574001D
:10361000496E736572742066696C616D656E7420A5
:10362000616E642073656E64204D3130380A006F1E
:1036300070656E206661696C65642C2046696C65F6
:103640003A2000626567696E0050757267654D6F5C
:10365000726500436F6E74696E7565004C6F6164CE
:103660002046696C616D656E74205400220A005515
:103670006E6B6E6F776E20636F6D6D616E643A2056
:103680002200544845524D414C2052554E4157411D
:103690005900546865726D616C2052756E61776176
:1036A0007900706F7765726F666600506C65617344
:1036B00065205265736574005052494E544552203E
:1036C00048414C5445440025533A202553004B496A
:1036D0004C4C45442E20005072696E74657220680F
:1036E000616C7465642E206B696C6C2829206361A1
:1036F0006C6C6564210A0043616E63656C204F62E7
:103700006A65637400416476616E63656420536525
:103710007474696E677300536D6F6F7468696E6758
:1037200000436F7272656374696F6E004E657874E2
:1037300020506F696E74004E657874004E4F0059CA
:1037400045530043616E63656C204F626A65637424
:10375000203D005A205261697365004C69676874A6
:10376000204272696768746E6573730046616E20EB
:103770005370656564004C6F6164205365747469AF
:103780006E677300526573746F7265206661696C51
:10379000736166650053746F726520536574746954
:1037A0006E677300507265686561742050455447B8
:1037B00020436F6E66005072656865617420504CDE
:1037C0004120436F6E660043617365204C696768F2
:1037D0007400546F6F6C204368616E676500416DC3
:1037E0006178202A00416D6178204500416D617843
:1037F000205A00416D6178205900416D6178205850
:1038000000412D54726176656C00412D52657472D1
:1038100061637400416363656C004A756E6374692B
:103820006F6E20446576002A73746570732F6D6D1A
:10383000004573746570732F6D6D005A73746570F5
:10384000732F6D6D005973746570732F6D6D005813
:1038500073746570732F6D6D00496E697400496EE5
:10386000697469616C697A6520454550524F4D0015
:103870004261636B6C6173680053746570732F6D84
:103880006D004A65726B00416363656C65726174BB
:10389000696F6E0056656C6F6369747900473239E1
:1038A00020503420523939392054004732380A47E1
:1038B0003239205031004D6F74696F6E00372E2001
:1038C0005361766520426564204D65736800362E2D
:1038D0002046696E652054756E6520416C6C00351C
:1038E0002E2056616C6964617465204D65736800B3
:1038F000342E2046696E652054756E6520416C6CCF
:1039000000332E2056616C6964617465204D6573C7
:10391000680047323920503320543000322E205373
:103920006D6172742046696C6C2D696E00312E20B9
:103930004275696C6420436F6C64204D6573680048
:103940004732392057004F75747075742055424CBA
:1039500020496E666F0055424C20546F6F6C7300A7
:103960004F7574707574204D657368204D617000DB
:103970004D6573682053746F72616765004D6573A0
:1039800068204564697400537465702D42792D5325
:103990007465702055424C00473239204100416324
:1039A0007469766174652055424C00473239204471
:1039B00000446561637469766174652055424C000A
:1039C0002568753A25303268750025303268753AB9
:1039D0002530326875004F757461676520526563E4
:1039E0006F76657279004261636B004368616E6750
:1039F000652046696C616D656E7400436F6E666923
:103A00006775726174696F6E003F0043616E636534
:103A10006C004D313030300053746F70205072693B
:103A20006E7400526573756D65205072696E740016
:103A300053746F70004D3231004368616E676520CA
:103A40004D65646961004175746F737461727400CF
:103A500054756E65004E6F204D6564696100537446
:103A6000617274205072696E740043616E6E6F747F
:103A700020656E746572207375626469723A200005
:103A8000052E2E005061726B696E672E2E2E00007F
:103A9000005761697420666F720066696C616D65BC
:103AA0006E74206368616E676500746F2073746163
:103AB0007274005761697420666F720066696C6188
:103AC0006D656E7420756E6C6F616400004E6F7A68
:103AD0007A6C652068656174696E6700506C656119
:103AE000736520776169742E2E2E00005072657305
:103AF0007320627574746F6E00746F2068656174F2
:103B0000206E6F7A7A6C650000496E73657274205E
:103B100066696C616D656E7400616E6420707265BB
:103B2000737320627574746F6E00746F20636F6EB0
:103B300074696E7565005761697420666F720066FE
:103B4000696C616D656E74206C6F61640000507209
:103B500065737320427574746F6E00746F207265A4
:103B600073756D65207072696E74000057616974B9
:103B700020666F72207072696E7400746F207265B7
:103B800073756D652E2E2E00005761697420666F67
:103B9000720066696C616D656E7420707572676520
:103BA0000000204A00205200454550524F4D204908
:103BB0006E697469616C697A65640A004D65736841
:103BC00020736176656420696E20736C6F742000C9
:103BD0003F556E61626C6520746F2073617665205D
:103BE0006D65736820646174612E0A0020736C6FC8
:103BF000743D00206D65736865735F656E643D009C
:103C00004532454E443D00206D65736820736C6FEE
:103C1000747320617661696C61626C652E0A003F85
:103C2000496E76616C696420736C6F742E0A004D66
:103C3000657368206C6F616465642066726F6D20C7
:103C4000736C6F7420003F556E61626C6520746FF9
:103C5000206C6F6164206D65736820646174612EEF
:103C60000A0048617264636F64656420446566613C
:103C7000756C742053657474696E6773204C6F6142
:103C80006465640A0020204D363033200020286D02
:103C90006D29002028696E290046616872656E688A
:103CA0006569740043656C73697573004B656C7668
:103CB000696E00556E696669656420426564204CD2
:103CC0006576656C696E670020204D343132205373
:103CD0000046696C616D656E742072756E6F7574E7
:103CE0002073656E736F723A0A0020204D343235AE
:103CF0002046004261636B6C61736820636F6D7076
:103D0000656E736174696F6E3A0A00546F6F6C2D43
:103D10006368616E67696E673A0A005432204C002E
:103D20005431204C002055005430204C0046696C22
:103D3000616D656E74206C6F61642F756E6C6F6160
:103D400064206C656E677468733A0A0020204D39F0
:103D500030302054004C696E656172204164766198
:103D60006E63653A0A0020204D38353220490053F1
:103D70006B657720466163746F723A200A002020D9
:103D80004D343133205300506F7765722D4C6F7373
:103D900073205265636F766572793A0A0020204D70
:103DA00033303420500020204D333031205000502B
:103DB00049442073657474696E67733A0A00204839
:103DC0000020204D3134352053004D6174657269F7
:103DD000616C2068656174757020706172616D65D9
:103DE000746572733A0A00206D65736865732E0AF4
:103DF0000A00454550524F4D2063616E20686F6C3C
:103E00006420000A416374697665204D65736820FB
:103E1000536C6F743A200020204D34323020530010
:103E200020204D323035204200204A3C6A756E63B6
:103E30005F6465763E00416476616E6365643A2036
:103E4000423C6D696E5F7365676D656E745F746922
:103E50006D655F75733E20533C6D696E5F66656589
:103E600064726174653E20543C6D696E5F7472616A
:103E700076656C5F66656564726174653E002020DE
:103E80004D323034205000416363656C657261745B
:103E9000696F6E2028756E6974732F7332293A200A
:103EA000503C7072696E745F616363656C3E205252
:103EB0003C726574726163745F616363656C3E201C
:103EC000543C74726176656C5F616363656C3E0A35
:103ED0000020204D32303120540020204D3230312E
:103EE0002058004D6178696D756D20416363656C84
:103EF00065726174696F6E2028756E6974732F73B3
:103F000032293A0A0020204D32303320540020203C
:103F10004D3230332058004D6178696D756D2066E3
:103F200065656472617465732028756E6974732F9A
:103F300073293A0A00537465707320706572207596
:103F40006E69743A0A00203B20556E6974732069CB
:103F50006E200020204D3134392000203B002020ED
:103F6000473200486F6D696E67204661696C656411
:103F7000006F70656E0054524947474552454400F2
:103F800066696C616D656E74007A5F6D696E00794B
:103F90005F6D696E00785F6D696E005265706F725B
:103FA00074696E6720656E6473746F7020737461DA
:103FB0007475730A0000004843000048430000A0E5
:103FC000400000F0410000A0420000A0420000C8F4
:103FD000430000D7430000D7430000D743D0070079
:103FE00000D007000064000000A00F00004F6E002A
:103FF0004D6F76652025736D6D004D6F76652030B1
:104000002E316D6D004D6F766520316D6D004D6FF9
:1040100076652031306D6D00486F74656E64207474
:104020006F6F20636F6C640045787472756465729D
:10403000202A004578747275646572004D6F76654C
:10404000205A004D6F76652059004D6F76652058D7
:1040500000536F667420456E6473746F7073004D07
:1040600038340044697361626C6520537465707004
:10407000657273004C6576656C20436F726E657275
:104080007300473238205A00486F6D65205A004748
:104090003238205900486F6D65205900473238206A
:1040A0005800486F6D652058004175746F20486F47
:1040B0006D65004D6F7665204178697300507265BB
:1040C0006865617420504C4120456E6400507265F3
:1040D0006865617420504C412042656400446973F6
:1040E0006D697373005072696E74205061757365E9
:1040F00064005061757365205072696E74004D657F
:104100006469612052656D6F766564004D65646910
:104110006120496E736572746564006E6F746966C0
:1041200069636174696F6E20003344205072696E58
:104130007465722052656164792E005072696E74E4
:10414000696E672E2E2E0063616E63656C0050727F
:10415000696E742041626F72746564005549204134
:10416000626F72746564004D323520500A4D3234EE
:1041700000526573756D6500554920506175736512
:1041800000726573756D65002053697A653A200089
:1041900043616E6E6F74206F70656E20737562641C
:1041A0006972200053442063617264206F6B0A00BF
:1041B0006F70656E526F6F74206661696C65640A1A
:1041C00000766F6C756D652E696E69742066616925
:1041D0006C65640A00534420696E697420666169E5
:1041E0006C0A004D32332025730046696C652073DC
:1041F000656C65637465640A0046696C65206F7060
:10420000656E65643A2000454E4420535542524F36
:104210005554494E450A002220706F7300222070C9
:104220006172656E743A2200535542524F5554499B
:104230004E452043414C4C207461726765743A22AC
:1042400000747279696E6720746F2063616C6C20F2
:104250007375622D67636F64652066696C65732092
:104260007769746820746F6F206D616E79206C655A
:1042700076656C732E204D4158206C6576656C20F8
:1042800069733A310A0057726974696E6720746FF6
:104290002066696C653A200044656C6574696F6ED0
:1042A000206661696C65642C2046696C653A200063
:1042B00046696C652064656C657465643A005344B6
:1042C000207072696E74696E67206279746520006F
:1042D0004E6F74205344207072696E74696E670A61
:1042E00000667265736800646F696E67004E6F7771
:1042F00020004D313137204D657368202569204CF1
:104300006F6164656400473239204C2569004D3186
:104310003137204D657368202569205361766564C7
:104320000047323920532569004C6F616420426593
:1043300064204D657368004D656D6F727920536C14
:104340006F74004E6F2053746F7261676500486F21
:104350006D696E672058595A004732392050342011
:10436000582573205925732052256900202D2D2DA5
:104370002D2D004732380047323920532D31004F60
:104380006666205072696E746572204261636B7557
:104390007000473239205431004F757470757420A5
:1043A000666F722043535600473239205430004F15
:1043B000757470757420666F7220486F7374004551
:1043C000646974204D657368004732392049393972
:1043D000390A4732392050322042205430004D6192
:1043E0006E75616C6C79204275696C64204D6573E3
:1043F000680002687474703A2F2F6D61726C696E78
:1044000066772E6F726700204275696C64203435C0
:1044100037004D313030302053002020506C616E19
:104420006E657242756666657242797465733A208C
:10443000002046726565204D656D6F72793A2000E7
:10444000436F6D70696C65643A2044656320333155
:1044500020323031390A00204C6173742055706469
:10446000617465643A20323031392D31322D313961
:10447000207C20417574686F723A202856657274EA
:1044800061627265616B6572290A004275696C64CC
:10449000203435370A004D61726C696E0020536F0D
:1044A0006674776172652052657365740A002057DF
:1044B00061746368646F672052657365740A0020D5
:1044C00042726F776E206F75742052657365740A3F
:1044D000002045787465726E616C20526573657456
:1044E0000A00506F77657255700A006175746F2508
:1044F000632E6700473237006572726F72207772E1
:104500006974696E6720746F2066696C650A00447F
:104510006F6E6520736176696E672066696C652EC3
:104520000A004D32390025532025632025632025BC
:104530006320256300205A3A0020593A00656E64D2
:1045400073746F7073206869743A2000496E7661E5
:104550006C69642065787472756465720A00202D38
:1045600020496E76616C6964206578747275646543
:1045700072206E756D62657220210A004572723A72
:10458000204D415854454D50004D415854454D50D3
:1045900020747269676765726564004572723A20BB
:1045A0004D494E54454D50004D494E54454D5020B7
:1045B000747269676765726564004D383420450020
:1045C000202F002042403A0020403A004520255349
:1045D0000020573A0041637469766520457874720B
:1045E000756465723A200070012C0190012701B0BA
:1045F000012201C0011D01F0011801100213013058
:10460000020E016002090190020401C002FF0000D5
:1046100003FA004003F5008003F000D003EB002014
:1046200004E6007004E100E004DC004005D700C0AF
:1046300005D2004006CD00D006C8008007C3003078
:1046400008BE00F008B900C009B400B00AAF00B05D
:104650000BAA00D00CA500000EA000500F9B00C0BC
:104660001096005012910000148C00C0158700B005
:10467000178200B0197D00D01B7800001E73004027
:10468000206E0090226900F024640040275F0090B3
:10469000295A00E02B5500102E500020304B0010FE
:1046A000324600E033410090353C0010373700704F
:1046B000383200A0392D00B03A2800A03B2300601A
:1046C0003C1E00103D1900903D1400103E0F00707C
:1046D0003E0A00C03E0500003F0000403FFBFF8057
:1046E0003FF6FFC03FF1FF5072696E742066726F33
:1046F0006D204D6564696100486F6D6520257325E7
:104700007325732046697273740000002100240031
:1047100027002A002D0030003300010100000401B1
:1047200007010A0100002200250028002B002E00AE
:104730003100340002010000050108010B010000F6
:1047400020002300260029002C002F003200000149
:104750000000030106010901050505050705080814
:104760000808020202020A0A0808040404040101FB
:104770000101010101010303030303030303040710
:1047800007070C0C0C0C0C0C0C0C020202020606A7
:104790000606060606060B0B0B0B0B0B0B0B01029A
:1047A0001020200808102040102040800201020143
:1047B00008040201010204081020408080402010FB
:1047C0000804020180040201804020100804020154
:1047D00008040201010204081020408001020408BC
:1047E0001020408000000A0B02090C0D0E08070380
:1047F00004010000000000000000000000000000B4
:1048000000000000000000000000000000000000A8
:104810001211100000000000000000000000000065
:1048200000000000000000000000FFFDFCFAF8F6A8
:10483000F4F2F0EEECEAE9E7E5E3E1E0DEDCDAD918
:10484000D7D5D4D2D0CFCDCBCAC8C7C5C3C2C0BFBD
:10485000BDBCBAB9B7B6B4B3B2B0AFADACAAA9A833
:10486000A6A5A4A2A1A09E9D9C9A99989795949381
:1048700092908F8E8D8B8A898887868483828180AF
:104880007F7E7D7B7A797877767574737271706FBD
:104890006E6D6C6B6A696867666564636261605FB0
:1048A0005E5D5C5B5A595858575655545352515097
:1048B000504F4E4D4C4B4A4A494847464645444363
:1048C000424241403F3E3E3D3C3B3B3A393838371F
:1048D000363535343332323130302F2E2E2D2C2BCD
:1048E0002B2A29292827272625252423232221216D
:1048F00020201F1E1E1D1C1C1B1B1A1919181817FF
:104900001616151514131312121111100F0F0E0E87
:104910000D0D0C0C0B0A0A09090808070706060505
:1049200005040403030202010000446966663A209C
:104930000046726F6D5374703A0053746570706501
:10494000723A00556E4C6576656C3A004C6576653A
:104950006C65643A005261773A20202020000A4CAE
:104960006F676963616C3A00436F756E7420453AF6
:10497000004361703A004D302F3120427265616B07
:104980002043616C6C656400436C69636B20746FD9
:1049900020526573756D652E2E2E004531006265BF
:1049A00064002C2073797374656D2073746F70705C
:1049B000656421204865617465725F49443A20004E
:1049C00048656174696E67204661696C656400487A
:1049D000656174696E67206661696C656400C90110
:1049E000E10111241FBECFEFD1E2DEBFCDBF00E059
:1049F0000CBF13E0A0E0B2E0E0EBFEE103E00BBF90
:104A000002C007900D92A43BB107D9F728E1A4EBAF
:104A1000B3E001C01D92AB36B207E1F714E2C0EF7C
:104A2000D4E200E006C021970109802FFE010F9417
:104A3000CC8ACF3ED10780E00807A9F70F94F07623
:104A40000D94468F0C9400002F923F924F925F92EC
:104A50006F927F928F929F92AF92BF92CF92DF928E
:104A6000EF92FF920F931F93CF93DF93CDB7DEB7F3
:104A7000C255D1090FB6F894DEBF0FBECDBF629606
:104A80008FAF62972091F0062F962FAF2F9781E07E
:104A90008093F006809129178D3409F44CC5843534
:104AA00011F40C948F37873411F00C94A037809157
:104AB0002717909128178B31910509F418C4A4F495
:104AC0008430910509F4DEC01CF4029768F12FC50B
:104AD0008431910509F401C48531910509F402C4BA
:104AE0000C9709F024C50DC18A32910509F4AFC4B1
:104AF0005CF48C31910509F414C44D9709F017C585
:104B00000E94AEF10C94A2378B35910509F419C4BB
:104B10008C35910509F41AC48A35910509F007C549
:104B2000109228090C94A23780918302882311F4F3
:104B30000C94A2374FE6A42E43E0B42E54E5C52EC4
:104B400052E0D52E61EFE62E66E0F62E10E0D5019C
:104B50008D915D010E94C6EB882349F1812F0E944F
:104B600066CD762E872E982E092F8091F50581111E
:104B70001EC0812F0E94D9CA882371F0D6012D91C1
:104B80003D914D915C91672D782D892D902F0F943B
:104B9000D58A762E872E02C0892D902F472D582D2D
:104BA000BC01F70140835183628373830AC0F6011D
:104BB00080819181A281B381F70180839183A28357
:104BC000B3831F5FF4E0CF0ED11C24E0E20EF11C92
:104BD000133009F0BCCF85E40E94C6EB882321F195
:104BE00083E00E9466CD7B018C0183E00E94D9CADC
:104BF000882371F02091600230916102409162023D
:104C000050916302B701C8010F94D58A7B0101C09E
:104C1000C801A701BC014093FD065093FE066093B6
:104C2000FF067093000710C08091600290916102AE
:104C3000A0916202B09163028093FD069093FE06FC
:104C4000A093FF06B093000786E40F944E0C20E07B
:104C500030E0A9010F949C8C181684F40E9470EB2C
:104C600020E030E040E752E40F945D8B6093500207
:104C70007093510280935202909353020E94659266
:104C80000C94A23780E50E94C6EB882329F00E948D
:104C9000DBD16B017C0103C0C12CD12C760183E5F3
:104CA0000E94C6EB882361F00E9439EB20E030E0DF
:104CB0004AE754E40F9437840F94D68B6B017C0140
:104CC0000E94D8C18091FD09811105C060E084E196
:104CD00097E00F9402430F94FF64C60ED71EE81EA0
:104CE000F91E0F94FF64DC01CB018C199D09AE09FC
:104CF000BF09B7FD02C00C94A23780E00E946E5637
:104D0000F0CF0F947B6181110C94A23760E070E0CA
:104D100080E50E94A6CCD82E65E070E083E50E9475
:104D2000A6CC7C01382E65E070E084E50E94A6CC1C
:104D3000282E40E050E060ED70E482E50E94E2EB56
:104D40004B015C018091221787FF02C00C94AF37A2
:104D500080912317837011F00C94AF3701E082E04B
:104D6000082B10912909812F0E945AEC18A619A628
:104D70001AA61BA640E050E060EA70EC4CA75DA7C5
:104D80006EA77FA718AA19AA1AAA1BAA8CE0E2E9A3
:104D9000F2E0DE015C9601900D928A95E1F732E037
:104DA000D31210C0011105C08DE197E00E9469ED9A
:104DB0008FC21C8E1D8E1E8E1F8E48A359A36AA300
:104DC0007BA324C000FD10C0809154029091550235
:104DD000A0915602B09157028C8F9D8FAE8FBF8FDE
:104DE00088A799A7AAA7BBA701FD10C08091580268
:104DF00090915902A0915A02B0915B0288A399A3A5
:104E0000AAA3BBA38CA79DA7AEA7BFA780915C0256
:104E100090915D02A0915E02B0915F028CA39DA370
:104E2000AEA3BFA388AB99ABAAABBBAB81E0D8164E
:104E300029F092E0D91609F45EC1F1C128A539A57F
:104E40004AA55BA56C8D7D8D8E8D9F8D0F94D48A28
:104E50004B015C0120E030E0A9010F94D18388234D
:104E600009F436C22CA53DA54EA55FA568A179A180
:104E70008AA19BA10F94D48A6B017C0120E030E0D1
:104E8000A9010F94D183882309F422C28CE0E4E5C0
:104E9000F2E0DE01119601900D928A95E1F71CAEC9
:104EA0001DAE1EAE1FAE88E0FE01B896DE01D496A0
:104EB00001900D928A95E1F7BE01645C7F4FCE01AF
:104EC000C4960E94F88E220C20E030E0A901C501B2
:104ED000B4010F949C8C2401350187FF04C077FA3C
:104EE000709477F8709420E030E0A901C701B60112
:104EF0000F949C8C87FF0AC0D701C601B058289632
:104F00008CAF9DAFAEAFBFAF289706C02896CCAE92
:104F1000DDAEEEAEFFAE2897A301920128966CADF0
:104F20007DAD8EAD9FAD28970F94D183181614F0E8
:104F300075016401A22DB0E02A96BFAFAEAF2A97EB
:104F4000BD01BB0F880B990B0F94D8839B01AC015B
:104F5000C701B6010F945D8B4B015C01D12CD314BA
:104F600008F055C100E0802F002E000C990B2A9606
:104F7000EEADFFAD2A978E179F070CF05CC000FFC7
:104F800005C09E01245E3F4F790103C0CE01889683
:104F90007C01A301920128966CAD7DAD8EAD9FADD5
:104FA00028970F94D183402F002E000C550B660BD1
:104FB000770B1CAA1DAA1EAA1FAA1816ECF0CB017B
:104FC000BA010F94D883A50194010F9437849B01F3
:104FD000AC0168A579A58AA59BA50F94D58A6CAF6D
:104FE0007DAF8EAF9FAFB7016C5F7F4FAE014C5C62
:104FF0005F4FCE01CC961BC0CB01BA010F94D88372
:10500000A50194010F9437849B01AC016CA57DA58B
:105010008EA59FA50F94D58A6CAF7DAF8EAF9FAF45
:10502000AE014C5C5F4FBE01645C7F4FC7010E94C4
:10503000D68E0F5F98CF022D07FD5BC000FF04C026
:10504000DE015C967D0103C0FE01B8967F01A301DD
:10505000920128966CAD7DAD8EAD9FAD28970F94D3
:10506000D183402F002E000C550B660B770B1CAA2A
:105070001DAA1EAA1FAA1816ECF0CB01BA010F94A4
:10508000D883A50194010F9437849B01AC0168A5D6
:1050900079A58AA59BA50F94D58A6CAF7DAF8EAFFD
:1050A0009FAFB7016C5F7F4FAE014C5C5F4FCE018D
:1050B000CC961BC0CB01BA010F94D883A5019401F3
:1050C0000F9437849B01AC016CA57DA58EA59FA58F
:1050D0000F94D58A6CAF7DAF8EAF9FAFAE014C5CA5
:1050E0005F4FBE01645C7F4FC7010E94D68E0150A6
:1050F000A3CFD39434CF332009F4EAC08CE0E4E5A5
:10510000F2E0DE01119601900D928A95E1F71CAE56
:105110001DAE1EAE1FAE88E0FE01B896DE01D4962D
:1051200001900D928A95E1F7BE01645C7F4FCE013C
:10513000C4960E94F88E00E0E12CF12C24961CAE5F
:105140001DAE1EAE1FAE2497B7010F2C000C880BAE
:10515000990B0F94D8832CE739ED40E25FE30F946D
:1051600037842B013C010F94588B9B01AC01C50186
:10517000B4010F9437849B01AC0168A179A18AA185
:105180009BA10F94D58A6CAF7DAF8EAF9FAFC3014B
:10519000B2010F94248D9B01AC01C501B4010F94A1
:1051A00037849B01AC016C8D7D8D8E8D9F8D0F940E
:1051B000D58A6CAB7DAB8EAB9FABAE01405C5F4FD5
:1051C000BE01645C7F4FCE01C4960E94D68EFFEF75
:1051D000EF1AFF0A2AE0E216F10409F0AFCF0F5FE1
:1051E000031508F4A9CF1CAE1DAE1EAE1FAE88E09D
:1051F000FE01B896DE01D49601900D928A95E1F7F2
:10520000BE01645C7F4FCE01C4960E94F88E1CAA3A
:105210001DAA1EAA1FAABE016C5C7F4F55C08CE060
:10522000E4E5F2E0DE01119601900D928A95E1F736
:105230001CAE1DAE1EAE1FAE88E0FE01B896DE01AC
:10524000D49601900D928A95E1F76E0134E3C30E76
:10525000D11CBE01645C7F4FC6010E94F88EFF2402
:10526000F594E79400E05601802F90E08E159F059D
:1052700034F51CAE1DAE1EAE1FAE88E0FE017C965E
:10528000D50101900D928A95E1F7BE01645C7F4FD4
:10529000C6010E94F88E1CAE1DAE1EAE1FAE88E089
:1052A000FE01B896D60101900D928A95E1F7BE01F4
:1052B000645C7F4FC6010E94F88E0F5FD5CF1CAA99
:1052C0001DAA1EAA1FAAB601CE0101960E94FE8E3B
:1052D000812F0E945AEC0C94A23781E00F94456B09
:1052E0000C94A23780E00F94456B0C94A2370F9476
:1052F0007B6181110C94A2378CE0EEE9F2E0DE01D3
:10530000119601900D928A95E1F760E070E080E5DA
:105310000E94A6CCBE016F5F7F4F0F94053E0C9498
:10532000A237809101078770873011F00C94BD3748
:1053300060E08FE40E94167B81110C94A2370C94DC
:10534000BD378FE0809328090C94A23780912617EF
:10535000882351F1893009F076C08FE6C82E83E0AA
:10536000D82E94E5E92E92E0F92E312C00E010E0E1
:10537000D6018D916D010E94C6EB882371F0812FBB
:105380000E9466CDF701608371838283938313301B
:1053900011F401E002C0332433941F5FF4E0EF0EF8
:1053A000F11C143029F744C01FE6C12E13E0D12EA2
:1053B00004E5E02E02E0F02E312C00E010E0D601F2
:1053C0008D916D010E94C6EB882361F1812F0E94AF
:1053D00066CD4B015C01F70120813181428153810F
:1053E0000F94D48A2B013C012DEB37E346E855EBB3
:1053F0000F949C8C87FD0AC02DEB37E346E855E3FC
:10540000C301B2010F94D183181664F4133011F460
:1054100001E002C033243394D7018D929D92AD9266
:10542000BC9213971F5FB4E0EB0EF11C143039F6F9
:10543000332019F00E94418F06C0002321F080E63E
:1054400092E00F941F680E94438F0C94A2378091C2
:105450008302882311F40C94A23789E40E94C6EBDE
:10546000E82E882321F00E9435EBF82E01C0F12CA4
:105470008AE40E94C6EB082F882321F00E9435EBB6
:10548000182F01C010E0EE2019F0E4E0EF1520F035
:10549000002341F0153030F081E497E00E9469ED7F
:1054A0000C94A23780E1E4E5F2E0A1EFB6E00190D0
:1054B0000D928A95E1F7EE2059F08F2D0E9410ECA5
:1054C0006093F1067093F2068093F3069093F406CE
:1054D000002359F0812F0E9410EC6093F506709321
:1054E000F6068093F7069093F80686E40F944E0C28
:1054F0006B017C0120E030E0A9010F949C8C181610
:105500004CF420E030E040E752E4C701B6010F94CC
:105510005D8B03C060E070E0CB0169837A838B838D
:105520009C83CE0101960E943E9C0C94A2370F945E
:10553000780B0C94A23780912717909128178D37FC
:10554000910509F440C60CF00EC18135910509F4AE
:105550003DC60CF07AC08A31910509F4F5C2B4F564
:105560008431910509F441C294F48131910509F423
:1055700028C244F4029710F00C948C370F946F6B90
:105580000C94A237429709F43EC60C948C378731AD
:10559000910509F44FC28CF48531910509F446C296
:1055A000469711F00C948C370F9408498091F30AB8
:1055B000877F8093F30A0C94A2378831910509F410
:1055C00050C2499709F4B5C20C948C3780329105CA
:1055D00009F431C3F4F48D31910509F415C384F451
:1055E0008B31910509F4BEC24C9711F00C948C37A5
:1055F00080912417909125170F94A14C0C94A237F9
:105600008E31910509F407C34F9709F44BC30C94ED
:105610008C378B34910509F426C454F48A329105F1
:1056200009F4EBC38934910509F40AC40C948C374E
:105630008C34910509F41BC48D34910511F00C9440
:105640008C370E94A2A80C94A2378D36910509F4DC
:105650004EC40CF03FC08436910509F40CC404F527
:105660008435910509F4CFC58CF48235910509F490
:10567000C3C58335910511F00C948C3780912809AE
:105680008F7E8062809328090C94A237853591051E
:1056900009F4BCC58C35910509F4D1C50C948C373F
:1056A0008A36910509F4A4C454F48836910509F4A6
:1056B000E6C38936910509F485C40C948C378B3682
:1056C000910509F4BBC48C36910511F40C94A237F2
:1056D0000C948C378337910509F462C6ECF480375B
:1056E000910511F40C94A23754F48E36910509F407
:1056F000AFC48F36910509F4BCC40C948C37813744
:10570000910509F4FBC48237910511F00C948C3794
:105710000F941E6C0C94A2378737910509F4ECC6E0
:105720008CF48537910509F4A4C68637910511F0EC
:105730000C948C37009124171091251794E0F12CCC
:1057400040E0BEC68837910509F4D9C6893791056E
:1057500011F00C948C371092DE0D1092DD0D0F9429
:105760005F2F0C94A2378A39F1E09F0711F40C9453
:10577000A2370CF083C0893D910509F49CC7B4F5AC
:105780008E3B910509F4F6C4ACF48139910509F416
:10579000BEC634F48C38910509F4D2C40C948C370D
:1057A0008539910509F40CC78B39910509F4E5C4D5
:1057B0000C948C378C3C910509F477C754F4893CE0
:1057C000910509F418C78B3C910509F445C70C9461
:1057D0008C378D3C910509F46BC7833D910511F021
:1057E0000C948C370E949ED30C94A2378D3231E0FA
:1057F000930711F40C946D34E4F4823E910509F49E
:10580000C6C754F48C3D910509F469C78D3D9105D7
:1058100009F472C70C948C378232B1E09B0711F403
:105820000C9413348C32914011F40C9458340C9431
:105830008C378033F1E09F0711F40C9470347CF4C2
:105840008E3231E0930711F40C94E3348F3291409F
:1058500011F00C948C370E94814B0C94A237833644
:10586000B1E09B0711F40C9433378039914011F06B
:105870000C948C370E94D8C10C94A2378C30F2E083
:105880009F0711F40C94C3350CF04DC0863E31E0F7
:10589000930711F40C9437351CF5843AB1E09B075B
:1058A00011F40C9431356CF48C39F1E09F0711F44C
:1058B0000C9427358D39914011F40C9475370C9464
:1058C0008C37853A31E0930711F40C943435893ADA
:1058D000914011F00C948C370E9439770C94A237C8
:1058E000863FB1E09B0711F40C94A6357CF4843F0D
:1058F000F1E09F0711F40C94A335853F914011F01E
:105900000C948C370F94ED310C94A237873F31E023
:10591000930711F40C94A935883F914011F40C942D
:10592000B2350C948C378435B3E09B0711F40C949A
:105930004A362CF58B35F2E09F0711F40C944D3666
:105940007CF48F3332E0930711F40C94CB35883517
:10595000924011F00C948C370E9403D00C94A23723
:105960008D3BB2E09B0711F40C94C9368E3B9240FC
:1059700011F00C948C370E9485CD0C94A237803A9C
:10598000F3E09F0709F480C16CF48C3633E0930791
:1059900011F40C94A2378438934011F40C94CC3653
:1059A0000C948C37873EB3E09B0711F40C94673757
:1059B000883E934011F00C948C370E94F2CA0C94EC
:1059C000A2378091201784FF02C00C948639809101
:1059D000221787FF02C00C948639809123178370A9
:1059E00011F00C9486390C949E3988E797E00E9458
:1059F00069ED80E19BE00E9467FA8BE1E0E1FBE06A
:105A0000DE01119601900D928A95E1F760E070E059
:105A1000CE0101960F94CD4DCE0101960E94357BAB
:105A200089E697E00E9469ED0C94A2370F947949BA
:105A30000C94A237E0912417F091251780818823D8
:105A400029F0803209F410823196F8CF60E080911D
:105A50002417909125170F94EF4C1092350D0C944C
:105A6000A23783E50E94C6EB882321F00E9425EB34
:105A70000E94C65284E50E94C6EB8823A9F00E94CA
:105A800025EB6B017C010E944EA8C092BC05D09210
:105A9000BD05E092BE05F092BF05CD28CE28CF28E7
:105AA00019F081E08093C00580915B0D8823E9F0B7
:105AB00080E090E0A8ECB1E489839A83AB83BC8357
:105AC0001C8E1D8E1E8E1F8E18A619A61AA61BA62A
:105AD00020E0AE014F5F5F4FBE01645E7F4FCE019D
