:100000000C944B250C947C250C947C250C947C251D
:100010000C947C250C947C250C947C250C947C25DC
:100020000C947C250C947C250C947C250C947C25CC
:100030000C947C250D94785C0C947C250C947C2588
:100040000C947C250D94486C0C947C250C947C2598
:100050000C947C250C947C250D94545A0D94FE6BC5
:100060000C947C250C948D5D0C94835D0C947C2504
:100070000C947C250C947C250C947C250C947C257C
:100080000C947C250C947C250C947C250C947C256C
:100090000C947C250C947C250C947C250C947C255C
:1000A0000C947C250C947C250C947C250C947C254C
:1000B0000C947C250C947C250C947C250C947C253C
:1000C0000C947C250C947C250C947C250C947C252C
:1000D0000C947C250C947C250C947C250C947C251C
:1000E0000C947C25C35DC95DDB5DEB5DF35D235E38
:1000F000F75D235EFB5DFF5D235E035E075E0B5EC7
:10010000145E235E1F5ED302B9021F01BB014701CB
:100110000F013D01CF02E50141024502F5012F012A
:10012000D5028501A5014702630249021B01EF01C7
:1001300025017102F9010D02CB01A701510139021C
:10014000D9013301CD02E3017302CB01F301AD010B
:10015000E1027B019902CB02F1026B01BF013D027A
:10016000DF02FF019B0135016D0219025901BF0138
:10017000EB0187020F0205A84CCDB2D44EB9383638
:10018000A9020C50B9918688083CA6AAAA2ABE00EA
:100190000000803F07634236B79BD8A71A396856DC
:1001A00018AEBAAB558C1D3CB7CC5763BD6DEDFD99
:1001B000753EF6177231BF000000803F0800000056
:1001C000BE922449123EABAAAA2ABECDCCCC4C3E4C
:1001D00000000080BEABAAAAAA3E00000000BF003B
:1001E0000000803F0000000000084178D3BB438737
:1001F000D1133D190E3CC3BD4282AD2B3E68EC824B
:1002000076BED98FE1A93E4C80EFFFBE01C4FF7FCF
:100210003F00000000000C9424550D94A9450D9456
:10022000C1420D94C83D0C9499D20C9456B70C94CD
:10023000F0D10C943EB50D948A580C94274A0D9435
:10024000BB420C94D5AE0C94DDD20D94C3660C94D5
:1002500074D10C944B4C0D94D5240C94CA4E0D942F
:100260009A580D949B440D94D9660D94646B0C942C
:10027000794A0D94742A0C943F4C0D94C4420C940A
:100280008E530C94867B0C94807B0C94FF5D0D94B4
:10029000BE420C9407D30D9489230C94334C0D94D7
:1002A000063D0D94CB660C94064F0D94A6620C94FB
:1002B000337D0D94876B0D9418470C94574C0C9418
:1002C000847B0D9444520D94003D0C94DB5D0D94A1
:1002D000AF050D94E5420D94366B0D94802A0D9474
:1002E000C43D0D94DC3D0C948D810C942F7D0C94B9
:1002F000BE810C94454C0D94186B0D94A2050C9482
:10030000274C0D941D490D9410080D9493590D948C
:1003100063050D9493050C9447B50D941D220D941F
:10032000D64A0C9451B50C94B5D90D94CA230D94AA
:10033000197D0C94FB5D0D945A6B0D946E2A0D94EF
:100340006D3C0D94B8060C94C35D0D94A6590D94A4
:10035000C7660C94EB5D0C94744B0D94F1660D9490
:1003600048230C94145E0C94247D0C942ED30C948E
:100370002D4C0C94827B0D94E2420C947B4D0D9499
:10038000AF6B0C94514A0C94DEB10D94C32F0C94B6
:100390005DB50C94214C0D94FA660C94654A0C944E
:1003A000DAB20D946B2A0C9443B50D94CC3D0C94A9
:1003B000537B0D94D5660D94672A0D949B280C945D
:1003C000994E0D94D74A0D94E3660D94C7420C9450
:1003D00062D10C94874A0D94916B0D94E25B0D945D
:1003E000C0660C941C4B0D94ED660D94CD420C949C
:1003F0001F5E0D94B6660D94BC3D0C943D4A0D9461
:10040000506B0D9439050C94954A0C946AB00D9478
:10041000494B0D94AA2F0D9489050D94BC660D943B
:10042000A56B0C94CB4A0D94BE060D94252C0C9410
:10043000DAD30D947D6B0C94A94A0C94BBD60C9422
:10044000E24A0C94CA3A0D943D050D94B43D0C94C7
:10045000C95D0D947A2A0C94317D0D94BD2F0C94B6
:100460007D790D94D83D0D94AB050C94F6780C94E1
:10047000FCD20D94D1660D94E94A0D94406B0D9415
:100480000C5C0D94DD420C94514C0D94CA420D94B9
:10049000AB590D94CA590D949D050D94723C0C9462
:1004A00078D40D94495C0D94CC440D94D43D0D94B6
:1004B0009B3C0D942D5C0C94235E0C94FF4A0D9490
:1004C00098050C94B2D90D94BE590C9426D30D9472
:1004D000B12F0C94C73A0D9470630D946E6B0C940D
:1004E000DE4A0D94B2660D94E7660D94740A0C947E
:1004F0002D7D0C94227D0C94237B0C94D4490C9478
:10050000F35D0C94394B0D94B83D0D94F83C0D946B
:100510009B6B0C94BBD30D94F6450C94394C0D9405
:10052000EB430C9484770C940B5E0D94FB7C0C9441
:1005300088790D941D6B0D942A230D94862A0C94B2
:10054000F75D0D9412300C944CB50C9405550D9438
:10055000D03D0D94CE620D94773C0D94B72F0C9442
:10056000075E0C946D4B0D94EF3C0C94CD3A0D94BA
:10057000A7050D94B8420D94C43A0C94564B0D94B3
:10058000C03D0C94BD4A0D948E050D94195C0D94DC
:10059000E2240C9416A90D94226B0D94DF660D9441
:1005A000D0420D947C3C0D94DF420D948E590D94F5
:1005B000D9460C947F4D0D94803F0C94035E0D94AE
:1005C000486B0D94F5660D941D480C94517B0D9469
:1005D00033220C94B0510D94E3490D94BF050D9452
:1005E0001E220D942C6B0C94427B4E414E494E4979
:1005F0005459494E46CDCCCC3D0AD7233C17B7D1F0
:100600003877CC2B329595E6241FB14F0A00002095
:10061000410000C84200401C4620BCBE4CCA1B0E14
:100620005AAEC59D7400407A10F35A00A0724E185D
:10063000090010A5D4E80000E87648170000E40B94
:1006400054020000CA9A3B000000E1F5050000805A
:10065000969800000040420F000000A086010000B4
:1006600000102700000000E8030000000064000004
:100670000000000A00000000000100000000002C43
:1006800076D888DC674F0823DFC1DFAE59E1B1B708
:1006900096E5E3E453C63AE651997696E8E6C284D5
:1006A00026EB898C9B62ED407C6FFCEFBC9C9F40ED
:1006B000F2BAA56FA5F490055A2AF75C936B6CF912
:1006C000676DC11BFCE0E40D47FEF520E6B500D0E8
:1006D000ED902E0300943577050080841E080000FD
:1006E000204E0A000000C80C333333330F986E12CB
:1006F000831141EF8D2114893BE65516CFFEE6DBD1
:1007000018D1844B381BF77C1D901DA4BBE424201A
:100710003284725E228100C9F124ECA1E53D2743B9
:100720004F4D4D554E49434154494F4E0044525947
:1007300052554E004552524F5253004543484F00C8
:1007400020643A0020693A0020703A00536C6565D5
:10075000702E2E2E005761726E696E67203A20430C
:100760006C65616E20436972636C6520726571759A
:10077000697265732058590A004D65736820706F5F
:10078000696E742063616E6E6F742062652072659D
:10079000736F6C7665640A004E6F204D6F76652E20
:1007A00000456E642066696C65206C6973740A008C
:1007B000426567696E2066696C65206C6973740AAE
:1007C00000526573756D696E6720534400286E6F23
:1007D0002066696C65290043757272656E742066C7
:1007E000696C653A200025697920256964202569AE
:1007F000682025696D20256973005072696E742028
:1008000074696D653A2000452563202553004445F1
:100810004255473A004D3131332053003344205084
:1008200072696E746572204F46462E004348414DF2
:100830004245525F54454D50455241545552450032
:100840004D4F54494F4E5F4D4F444553005448451A
:10085000524D414C5F50524F54454354494F4E0006
:100860004155544F5245504F52545F53445F535477
:10087000415455530050524F4D50545F53555050B2
:100880004F525400454D455247454E43595F5041E4
:100890005253455200434153455F4C494748545FCA
:1008A0004252494748544E45535300544F47474CD2
:1008B000455F4C494748545300534F4654574152A3
:1008C000455F504F574552004255494C445F504593
:1008D0005243454E54004C4556454C494E475F44A3
:1008E000415441005A5F50524F4245004155544FC8
:1008F0004C4556454C005052494E545F4A4F4200B9
:1009000050524F4752455353004155544F52455052
:100910004F52545F54454D5000564F4C554D455421
:100920005249430042494E4152595F46494C455F46
:100930005452414E534645520053455249414C5F33
:10094000584F4E5F584F4646004649524D57415208
:10095000455F4E414D453A4D61726C696E2042755E
:10096000696C6420343537202847697448756229DA
:1009700020534F555243455F434F44455F55524CBA
:100980003A68747470733A2F2F6769746875622EB1
:10099000636F6D2F5665727461627265616B2F4D66
:1009A00061726C696E2050524F544F434F4C5F56EA
:1009B000455253494F4E3A312E30204D414348491C
:1009C0004E455F545950453A3344205072696E7415
:1009D00065722045585452554445525F434F554E19
:1009E000543A3220555549443A38333666613934E1
:1009F000332D313333372D313333372D31333337D3
:100A00002D3938613230646537353630370A002F7A
:100A10002F20004D31343520533C696E6465783E9B
:100A2000206F7574206F662072616E6765202830B4
:100A30002D31290A0020466C6F773A200050726FE2
:100A40007465637465642050696E0A00646973009C
:100A500043290A0061626C656420286D696E207408
:100A6000656D702000436F6C6420657874727564E6
:100A7000657320617265200046696C616D656E74F6
:100A80002072756E6F75742000454550524F4D2091
:100A90004F4B0A003F2842296175642072617465DA
:100AA00020696D706C61757369626C652E0A002037
:100AB00053657269616C20302062617564207261D7
:100AC00074652073657420746F2000416476616ED4
:100AD0006365204B003F4B2076616C7565206F7518
:100AE00074206F662072616E67652028302D31306A
:100AF000292E0A003F542076616C7565206F75744D
:100B0000206F662072616E67652E0A00436173650F
:100B1000206C696768743A200043617365206C69D2
:100B20006768743A206F66660A00506F7765722DA9
:100B30006C6F7373207265636F7665727920003B0A
:100B400007581834072D071F07656E7175657565A1
:100B5000696E672022006F6B00526573656E643AA0
:100B6000200042656420436F6F6C696E672E2E2EE5
:100B7000004265642048656174696E672E2E2E0000
:100B800023646566696E652044454641554C545F53
:100B9000004B6420004B6920004B702000504944FA
:100BA000204175746F74756E652066696E6973682F
:100BB0006564212050757420746865206C617374BD
:100BC000204B702C204B6920616E64204B642063A5
:100BD0006F6E7374616E74732066726F6D206265E0
:100BE0006C6F7720696E746F20436F6E66696775EE
:100BF000726174696F6E2E680A0050494420417515
:100C0000746F74756E65206661696C65642120740B
:100C1000696D656F75740A000A20436C61737369AE
:100C20006320504944200A00204B643A2000204BA6
:100C3000693A2000204B703A20000A204E6F206F46
:100C400076657273686F6F740A002054753A2000DD
:100C5000204B753A2000206D61783A2000206D69A4
:100C60006E3A200020643A200020626961733A20C5
:100C700000504944204175746F74756E652073741B
:100C80006172740A00504944204175746F74756E26
:100C900065206661696C6564212054656D706572BC
:100CA000617475726520746F6F20686967680A00E7
:100CB000504944204175746F74756E652066616992
:100CC0006C65642120426164206578747275646586
:100CD00072206E756D6265720A007C4D61726C697E
:100CE0006E7C002D2D2D2D2D2D00A1000000690002
:100CF000A20000006300B00000000900C100000075
:100D00004100C20000004100C30000004100C400D7
:100D100000004100C50000004100C6000000414540
:100D2000C70000004300C80000004500C9000000E3
:100D30004500CD0000004900D10000004E00D50064
:100D400000004F00D60000004F00D70000007800E0
:100D5000DC0000005500DD0000005900E00000004C
:100D60006100E10000006100E20000006100E300BA
:100D700000006100E40000006100E5000000610087
:100D8000E60000006165E70000006300E800000085
:100D90006500E90000006500EA0000006500EB0066
:100DA00000006500EC0000006900ED000000690033
:100DB000EE0000006900EF0000006900F100000093
:100DC0006E00F20000006F00F30000006F00F400FE
:100DD00000006F00F50000006F00F60000006F00DB
:100DE000F80000006F00F90000007500FA00000034
:100DF0007500FB0000007500FC0000007500FD00A0
:100E000000007900FF0000007900040100004100AB
:100E10000501000061000601000043000701000019
:100E200063000C01000043000D01000063000E018F
:100E3000000044000F010000640011010000640084
:100E40001901000065001F0100006700300100006B
:100E50004900310100006900410100004C004201DD
:100E600000006C00430100004E00440100006E00D1
:100E7000480100006E005901000072005A01000094
:100E800053005B01000073005F010000730060010C
:100E90000000530061010000730065010000740050
:100EA0006F01000075007C0100007A007D010000E8
:100EB0005A007E0100007A00920100006600E30201
:100EC000000078008403000027008503000027004D
:100ED000860300004100870300002E008803000005
:100EE00045008903000048008A03000049008C0384
:100EF00000004F008E03000059008F0300004F00D8
:100F0000900300006900910300004100920300007B
:100F10004200930300005400940300003400950342
:100F200000004500960300005A00970300004800A7
:100F30009803000030009903000049009A03000064
:100F40004B009B0300005E009C0300004D009D03CE
:100F500000004E009E03000033009F0300004F007E
:100F6000A00300006E00A10300005000A3030000D6
:100F70004500A40300005400A50300005900A60387
:100F800000007000A70300005800A80300005000F4
:100F9000A90300004F00AA0300004900AB030000B2
:100FA0005900AC0300006100AD0300006500AE0312
:100FB00000006E00AF0300006900B003000076007F
:100FC000B10300006100B20300004200B30300005F
:100FD0007600B40300006400B50300006500B603AA
:100FE00000005A00B70300006E00B8030000300094
:100FF000B90300006900BA0300006B00BB030000E6
:101000004C00BC0300007500BD0300007600BE0369
:1010100000006500BF0300006F00C00300006E0009
:10102000C10300007000C20300006300C30300009E
:101030006F00C40300007400C50300007600C603FF
:1010400000007000C70300005800C80300005700EC
:10105000C90300007700CA0300006900CB03000049
:101060007600CC0300006F00CD0300007600CE03B5
:10107000000077000104000045001004000041005A
:10108000110400006200120400004200130400007A
:10109000540014040000510015040000450016041B
:1010A00000002A00170400004500180400004E004C
:1010B000190400004E001A0400004B001B0400003D
:1010C00054001C0400004D001D04000048001E04D4
:1010D00000004F001F0400006E00200400005000BC
:1010E00021040000430022040000540023040000F7
:1010F0005900240400006F00250400005800260455
:101100000000550027040000790028040000570063
:101110002904000057002A04000062002B0400008C
:10112000627C2C04000062002D04000065002E0487
:1011300000007C4F2F040000397C30040000610067
:101140003104000036003204000042003304000085
:1011500072003404000061003504000065003604AC
:1011600000002A0037040000650038040000750004
:101170003904000075003A0400006B003B040000D5
:101180006E003C0400006D003D04000048003E0479
:1011900000006F003F0400006E004004000070007B
:1011A0004104000063004204000074004304000096
:1011B0007900440400007170450400007800460482
:1011C0000000750047040000790048040000770023
:1011D0004904000077004A04000062004B0400004C
:1011E000627C4C04000062004D04000065004E0467
:1011F00000007C6F4F040000670051040000650090
:10120000222000002E001E21000050782221000024
:10121000544D902100003C2D922100002D3EB02124
:1012200000000300BB21000004003C2200007E00FF
:10123000482200007E3D60220000213D6122000026
:101240003D00642200003C3D652200003E3DF1234C
:1012500000000700A03000003D0021F30100020063
:10126000C2F401000500A2000000EC00B000000084
:10127000DF00E4000000E100F6000000EF00F700EE
:101280000000FD00FC000000F500E3020000EB00A0
:1012900087030000A5008F030000F40098030000FE
:1012A000F2009E030000E300A3030000F600A90380
:1012B0000000F400AC030000E000AD030000E30018
:1012C000B1030000E000B2030000E200B50300003B
:1012D000E300B8030000F200BC030000E400BE031A
:1012E0000000E300C0030000F700C1030000E600B7
:1012F000C3030000E500902100007F009221000060
:101300007E001A220000E8001E220000F30088255B
:101310000000FF0002300000A1000C300000A2001D
:101320000D300000A3009B300000DE009C30000068
:10133000DF00A03000003D00A1300000A700A23077
:101340000000B100A3300000A800A4300000B200EB
:10135000A5300000A900A6300000B300A7300000AF
:10136000AA00A8300000B400A9300000AB00AA30E9
:101370000000B500AB300000B600AC300000B6DEB7
:10138000AD300000B700AE300000B7DEAF30000077
:10139000B800B0300000B8DEB1300000B900B230A3
:1013A0000000B9DEB3300000BA00B4300000BADE8D
:1013B000B5300000BB00B6300000BBDEB730000027
:1013C000BC00B8300000BCDEB9300000BD00BA304F
:1013D0000000BDDEBB300000BE00BC300000BEDE41
:1013E000BD300000BF00BE300000BFDEBF300000D7
:1013F000C000C0300000C0DEC1300000C100C230FB
:101400000000C1DEC3300000AF00C4300000C200E5
:10141000C5300000C2DEC6300000C300C730000087
:10142000C3DEC8300000C400C9300000C4DECA30CA
:101430000000C500CB300000C600CC300000C70063
:10144000CD300000C800CE300000C900CF30000011
:10145000CA00D0300000CADED1300000CADFD2306E
:101460000000CB00D3300000CBDED4300000CBDF57
:10147000D5300000CC00D6300000CCDED7300000E4
:10148000CCDFD8300000CD00D9300000CDDEDA301E
:101490000000CDDFDB300000CE00DC300000CEDE0F
:1014A000DD300000CEDFDE300000CF00DF30000096
:1014B000D000E0300000D100E1300000D200E23086
:1014C0000000D300E3300000AC00E4300000D400A2
:1014D000E5300000AD00E6300000D500E730000048
:1014E000AE00E8300000D600E9300000D700EA3056
:1014F0000000D800EB300000D900EC300000DA002A
:10150000ED300000DB00EF300000DC00F2300000C6
:10151000A600F3300000DD00F4300000B3DEF73049
:101520000000DCDEFA300000A6DEFB300000A50083
:10153000FC300000B000FD300000A400074E0000A9
:10154000FB0086510000FC0043530000FA0064FFDA
:101550000000A40065FF0000A50066FF0000A600D3
:1015600067FF0000A70068FF0000A80069FF0000F7
:10157000A9006AFF0000AA006BFF0000AB006CFF2F
:101580000000AC006DFF0000AD006EFF0000AE007B
:101590006FFF0000AF0070FF0000B00071FF00009F
:1015A000B10072FF0000B20073FF0000B30074FFCF
:1015B0000000B40075FF0000B50076FF0000B60023
:1015C00077FF0000B70078FF0000B80079FF000047
:1015D000B9007AFF0000BA007BFF0000BB007CFF6F
:1015E0000000BC007DFF0000BD007EFF0000BE00CB
:1015F0007FFF0000BF0080FF0000C00081FF0000EF
:10160000C10082FF0000C20083FF0000C30084FF0E
:101610000000C40085FF0000C50086FF0000C60072
:1016200087FF0000C70088FF0000C80089FF000096
:10163000C9008AFF0000CA008BFF0000CB008CFFAE
:101640000000CC008DFF0000CD008EFF0000CE001A
:101650008FFF0000CF0090FF0000D00091FF00003E
:10166000D10092FF0000D20093FF0000D30094FF4E
:101670000000D40095FF0000D50096FF0000D600C2
:1016800097FF0000D70098FF0000D80099FF0000E6
:10169000D9009AFF0000DA009BFF0000DB009CFFEE
:1016A0000000DC009DFF0000DD009EFF0000DE006A
:1016B0009FFF0000DF00E5FF00005C00001010103D
:1016C0001010100000141414141414000015151533
:1016D00015151500001C1F11111F00000006191818
:1016E00003130C00040E1F041C000000000E131551
:1016F000110E00001C10181705060500040A0A0A3E
:101700000A11110E0C12120C00000000001F15111E
:10171000151F000000000000010204040000001C6E
:101720001C0C040404020100000000000408100066
:10173000000000004C6F6164206D6D00556E6C6F91
:101740006164206D6D00416476616E6365204B209D
:101750002A0020022046616374002002204D617837
:10176000002002204D696E004175746F74656D70C4
:10177000005654726176204D696E00566D696E0098
:10178000566D6178202A00566D6178204500566DAF
:101790006178205A00566D6178205900566D617845
:1017A000205800206D61783A00206D696E3A004142
:1017B00078697320005072696E7465722073746F5B
:1017C000707065642064756520746F206572726F37
:1017D00072732E2046697820746865206572726F76
:1017E0007220616E6420757365204D39393920741B
:1017F0006F20726573746172742E202854656D7049
:1018000065726174757265206973207265736574A1
:101810002E2053657420697420616674657220728D
:10182000657374617274696E67290A004D383736C2
:1018300020526573706F6E64696E672050524F4D11
:1018400050545F00554E4B4E4F574E205354415409
:10185000450047434F44455F494E464F004C434483
:101860005F50415553455F524553554D45004649DC
:101870004C414D454E545F52554E4F55545F434F6A
:101880004E54494E55450046494C414D454E545FD6
:1018900052554E4F5554005075726765204D6F720A
:1018A00065004572726F722077726974696E672085
:1018B000746F20454550524F4D210A00627573796F
:1018C0003A2070617573656420666F7220696E706E
:1018D00075740A00627573793A2070617573656476
:1018E00020666F7220757365720A00627573793AAB
:1018F0002070726F63657373696E670A007061753B
:101900007365004D363030002066696C616D656E20
:10191000745F72756E6F7574200066696C616D65B9
:101920006E745F72756E6F757420540046696C61D9
:101930006D656E7452756E6F757420540053544FFC
:10194000505045442E20004E6F20436865636B73F2
:10195000756D2077697468206C696E65206E756D91
:101960006265722C204C617374204C696E653A205C
:1019700000636865636B73756D206D69736D617469
:1019800063682C204C617374204C696E653A2000AA
:101990004C696E65204E756D626572206973206EAC
:1019A0006F74204C617374204C696E65204E756DA8
:1019B0006265722B312C204C617374204C696E650A
:1019C0003A20004D313130004D313137004D333147
:1019D0000053442072656164206572726F720A0060
:1019E000446F6E65207072696E74696E67206669F7
:1019F0006C650A002121204B494C4C2063617573B2
:101A0000656420627920746F6F206D75636820694A
:101A10006E6163746976652074696D65202D20633D
:101A2000757272656E7420636F6D6D616E643A20BD
:101A300000252723181F211D1C19171B1E2E2C0CD7
:101A4000312F3004400AFF4103FF3F04090807001B
:101A50000120595A3A200020585A3A20002058595B
:101A60003A2000536B657720466163746F72006D96
:101A7000696E5F736B65775F666163746F723A203E
:101A8000202D31206D61785F736B65775F666163D0
:101A9000746F723A2020310A00416363656C65728D
:101AA0006174696F6E3A2050003F4A206F75742050
:101AB0006F662072616E67652028302E3031207489
:101AC0006F20302E33290A00486F74656E64206FD2
:101AD0006666736574733A0020633A00204D3932AC
:101AE000205400204D393220580020204D61783A92
:101AF000200020204D696E3A2000536F66742065E7
:101B00006E6473746F70733A20004D323420532525
:101B10006C642054256C64004739322E39204525E9
:101B20007300473120462564004731204531204667
:101B300033303030004739322E39205A2573004770
:101B400031205A302046323030004731205825733A
:101B5000205925732046333030300047312045313D
:101B60002046323030004D34323020532569205A1F
:101B70002573004D313036205025692053256900EA
:101B80005425692053004739322E392045305A30C8
:101B90000A47315A320A47323852305859004D34C8
:101BA0003230205330205A300020496E76616C6903
:101BB0006420657874727564657220003F454550F5
:101BC000524F4D2073746F72616765206E6F742081
:101BD000617661696C61626C652E0A00627574746D
:101BE0006F6E0070726F6D70745F0073686F770056
:101BF000486F74656E6420746F6F20636F6C640A45
:101C00000053656E64204D31303820746F2072654A
:101C100073756D650A0052656865617420446F6E66
:101C20006500526568656174696E67005265686534
:101C300061740048656174657254696D656F75748F
:101C40000053656E64204D31303820746F20686514
:101C50006174206E6F7A7A6C650A004E6F7A7A6CC6
:101C600065205061726B6564007061757365640016
:101C70004D3630303A20546F6F20436F6C640072E1
:101C80006573756D656400526573756D696E670087
:101C9000426564204C6576656C696E67200046611C
:101CA000696C656420746F20656E61626C652042AA
:101CB0006564204C6576656C696E670A00496E76CE
:101CC000616C6964206D6573682E0A0076616C69C9
:101CD000640A53746F7261676520736C6F743A2085
:101CE000004D65736820697320003F496E76616C12
:101CF00069642073746F7261676520736C6F742EF2
:101D00000A004D34323120696E636F7272656374FC
:101D100020706172616D65746572207573616765AD
:101D20000A003F2061646472657373203A200020CA
:101D30006279746573206F66206D656D6F727920AE
:101D4000696E697469616C697A65642E0A0A005566
:101D50006E61626C6520746F20696E697469616C74
:101D6000697A652E0A0A00496E697469616C697A3C
:101D7000696E672066726565206D656D6F7279208A
:101D8000626C6F636B2E0A0A0A00747275650A0032
:101D90002072657475726E3D000A4D656D6F7279C3
:101DA00020436F7272757074696F6E20646574651C
:101DB0006374656420696E2066726565206D656D6B
:101DC0006F727920617265612E0A002020626C6F4B
:101DD000636B5F666F756E643D002020200A0029EA
:101DE00020666F756E643D002020204D656D6F721A
:101DF0007920636F7272757074696F6E2064657498
:101E00006563746564207769746820656E645F66D5
:101E10007265655F6D656D6F72793C486561700ACA
:101E20000020656E645F667265655F6D656D6F72DB
:101E300079203C204865617020002020656E645F39
:101E4000667265655F6D656D6F72793D000A6672D9
:101E500065655F6D656D6F72795F73746172743DF6
:101E6000000A666D632829206E3D00636865636B18
:101E70005F666F725F667265655F6D656D6F7279C3
:101E80005F636F7272757074696F6E2829203D20D0
:101E9000004D313030204620002062797465732077
:101EA000617420000A4C6172676573742066726504
:101EB0006520626C6F636B20697320002062797407
:101EC000657320667265652061742000466F756ECB
:101ED0006420000A436F7272757074696E672061C6
:101EE0006464726573733A2000436F727275707424
:101EF000696E672066726565206D656D6F72792009
:101F0000626C6F636B2E0A0A000A537461636B2064
:101F1000506F696E746572202020202020202020C0
:101F20003A20000A667265655F6D656D6F72795F54
:101F3000656E64202020202020203A20000A66724E
:101F400065655F6D656D6F72795F73746172742022
:101F5000202020203A20000A6273735F656E64209F
:101F600020202020202020202020202020203A2057
:101F70000020284E6F7420796574206D656173753B
:101F80007265642900202041766572616765206D65
:101F900065617375726564206261636B6C617368FF
:101FA00020286D6D293A002020536D6F6F74686989
:101FB0006E6720286D6D293A2020202020202020C7
:101FC0002020202020202020205300202042616358
:101FD0006B6C6173682044697374616E636520285B
:101FE0006D6D293A20202020202020200020284626
:101FF000312E30203D2066756C6C2C2046302E3002
:10200000203D206E6F6E65290A002020436F72729A
:10201000656374696F6E20416D6F756E742F4661D4
:1020200064652D6F75743A2020202020460061637E
:10203000746976653A0A004261636B6C617368206B
:10204000436F7272656374696F6E2000416D6178D1
:10205000202A00416D6178204500416D6178205A49
:1020600000416D6178205900416D61782058004130
:102070002D54726176656C00412D526574726163F6
:102080007400416363656C004A756E6374696F6EBA
:1020900020446576002A73746570732F6D6D00455A
:1020A00073746570732F6D6D005A73746570732F40
:1020B0006D6D005973746570732F6D6D0058737476
:1020C0006570732F6D6D00496E697400496E697497
:1020D00069616C697A6520454550524F4D004261F7
:1020E000636B6C6173680053746570732F6D6D0062
:1020F0004A65726B00416363656C65726174696FF8
:102100006E0056656C6F6369747900536D6F6F7400
:1021100068696E6700436F7272656374696F6E0001
:102120000400000501000300050100050400000093
:10213000050003002F212A21252120210000000075
:10214000000066420000E64200802C430000664327
:1021500020616E642074616B652061206D65617320
:102160007572656D656E742E0A006D6D20746869F8
:10217000636B2E0A00427573696E65737320436149
:102180007264206973200052656D6F766520262089
:102190004D656173757265204265640052656D6FAF
:1021A0007665207368696D00506C616365207368A3
:1021B000696D20756E646572206E6F7A7A6C650049
:1021C0004D65736820506F696E74204D656173753D
:1021D0007265642061743A20000A4D657368206F4F
:1021E0006E6C79207061727469616C6C7920706FAB
:1021F00070756C617465642E0A00506C61636520B3
:102200005368696D2026204D656173757265004DB8
:102210006F76696E6720746F206E657874004D6507
:1022200073682045646974696E672053746F7070B9
:10223000656400446F6E652045646974696E67204B
:102240004D6573680A00446F6E6520456469746962
:102250006E67204D6573680046696E652054756E23
:10226000696E67204D6573680028582C5929206FC6
:10227000757473696465207072696E7461626C65EF
:10228000207261646975732E0A004F666673657407
:10229000206F7574206F6620626F756E64732E20D8
:1022A000283020746F2031306D6D290A0A00496E84
:1022B00076616C6964206D617020747970652E0A96
:1022C0000A003F43616E277420616374697661740C
:1022D0006520616E6420646561637469766174650C
:1022E000206174207468652073616D652074696D68
:1022F000652E0A0A00426F74682058202620592053
:102300006C6F636174696F6E73206D757374206296
:1023100065207370656369666965642E0A0A004703
:102320003239204A20616374696F6E20726571755D
:102330006972657320612070726F62652E0A0A00EF
:102340003F285029686173652076616C7565206946
:102350006E76616C69642028302D36292E0A0A00B9
:10236000473239205031207265717569726573206A
:10237000612070726F62652E0A0A003F2856296537
:1023800072626F7365206C6576656C20696D706C28
:1023900061757369626C652028302D34292E0A0A14
:1023A000003F285229657065746974696F6E2063F7
:1023B0006F756E7420696E76616C69642028312BAC
:1023C000292E0A0A00446F696E672047323900647B
:1023D0006F6E650A00496E73756666696369656E3E
:1023E0007420646174610A004578747261706F6C66
:1023F0006174696E67206D6573682E2E2E005072B1
:10240000696E74696E67204F626A65637400255354
:10241000202569002F2F616374696F6E3A00206276
:10242000797465733B20637263200053657474692B
:102430006E67732053746F7265642028004E6F209E
:10244000454550524F4D2E0A00454550524F4D20A4
:102450006461746173697A65206572726F722E0AA5
:10246000003F4D65736820746F6F20626967206656
:102470006F7220454550524F4D2E0A0055424C2058
:1024800072657365740A00206C6F61646564206610
:10249000726F6D2073746F726167652E0A004D65EF
:1024A000736820003F43616E277420656E61626C23
:1024B0006520002073746F7265642073657474699D
:1024C0006E67732072657472696576656420280092
:1024D000202863616C63756C6174656429210A004E
:1024E00020213D2000454550524F4D20435243206E
:1024F0006D69736D61746368202D202873746F7229
:102500006564292000496E6465783A2000204D6199
:10251000726C696E3D563734290A00454550524F5A
:102520004D2076657273696F6E206D69736D61748D
:1025300063682028454550524F4D3D0047323920B1
:10254000503420523939392054004732380A473242
:1025500039205031004D6F74696F6E0045646974A5
:10256000204D6573680047323920493939390A47A7
:1025700032392050322042205430004D616E756156
:102580006C6C79204275696C64204D657368003706
:102590002E205361766520426564204D6573680086
:1025A000362E2046696E652054756E6520416C6C30
:1025B00000352E2056616C6964617465204D657329
:1025C0006800342E2046696E652054756E65204182
:1025D0006C6C00332E2056616C6964617465204D0B
:1025E0006573680047323920503320543000322E52
:1025F00020536D6172742046696C6C2D696E0031D8
:102600002E204275696C6420436F6C64204D6573A5
:1026100068004732392057004F7574707574205523
:10262000424C20496E666F0055424C20546F6F6CCF
:1026300073004F7574707574204D657368204D611B
:1026400070004D6573682053746F72616765004D4B
:10265000657368204564697400537465702D427910
:102660002D537465702055424C004732392041008B
:1026700041637469766174652055424C0047323974
:102680002044004465616374697661746520554235
:102690004C002568753A253032687500253032685F
:1026A000753A2530326875004C6F61642046696C5C
:1026B000616D656E74202A00556E6C6F61642046F2
:1026C000696C616D656E74202A0052756E6F757449
:1026D0002053656E736F7200554E4C4F4144204637
:1026E000494C414D454E540046494C414D454E5490
:1026F000204348414E4745004732380A4732392087
:10270000503420523235350A47323920410A4D358E
:102710003030004732392050340A4D353030004DCA
:10272000333033205531204530205332353020436B
:10273000380A4D353030004D333033205531204587
:102740002D31205339302043380A4D353030004D7B
:10275000393030204B300A4D353030004D39303073
:10276000204B302E320A4D353030004D393030207C
:102770004B302E330A4D353030004D393030204B40
:10278000302E340A4D353030004D393030204B304A
:102790002E350A4D353030004D393030204B302E3B
:1027A000360A4D353030004C696E20416476204B3E
:1027B000302E34004C696E20416476204B302E332D
:1027C000004C696E20416476204B302E35004C69F8
:1027D0006E20416476204B302E32004C696E2041D1
:1027E0006476204F66660050494474756E652042D9
:1027F00065640050494474756E6520486F74656E59
:10280000640041646A75737420506F696E74204E61
:10281000656172004C696E20416476204B302E3623
:10282000004D616E75616C2055424C004D37303261
:1028300020542564004D3630302042302054256429
:10284000004D373032203B2564004D373031205465
:10285000256400556E6C6F61642046696C616D651E
:102860006E74004C6F61642046696C616D656E74B6
:10287000005072656865617420437573746F6D00F4
:102880004D36303020423020542569004D373031EC
:1028900020542569004D37303220542569004D37CA
:1028A000303200556E6C6F616420416C6C0043687F
:1028B000616E67652046696C616D656E74202A00E3
:1028C0005075726765206D6F726500524553554DA6
:1028D00045204F5054494F4E533A005052494E54A0
:1028E000205041555345440020204E6F7A7A6C6544
:1028F0003A200020746F6F206C6F6E6720657874CB
:10290000727573696F6E2070726576656E7465643A
:102910000A0020636F6C6420657874727573696F48
:102920006E2070726576656E7465640A0043616E30
:1029300063656C204F626A65637400416476616E02
:102940006365642053657474696E6773004E6578BF
:102950007420506F696E74004E657874004E4F009D
:102960005945530043616E63656C204F626A65632D
:1029700074203D005A20526169736500326E6420F4
:102980004E6F7A7A6C65205A00326E64204E6F7AF0
:102990007A6C65205900326E64204E6F7A7A6C65CD
:1029A0002058004C69676874204272696768746EC9
:1029B000657373004E6F7A7A6C650046616E2053C2
:1029C00070656564004C6F61642053657474696E52
:1029D000677300526573746F7265206661696C730A
:1029E0006166650053746F72652053657474696E17
:1029F00067730050726568656174205045544720C4
:102A0000436F6E66005072656865617420504C417A
:102A100020436F6E660043617365204C696768747C
:102A200000546F6F6C204368616E676500546F6F70
:102A30006C204F6666736574730000006643000087
:102A4000664300007A43000020C10000A0C00000DF
:102A50000000000020C10000A0C000000000000035
:102A6000204200002042000080400202020000A03C
:102A7000400000A0400000A0400000704300006B38
:102A80004300007A43FFFFFF000000010000000147
:102A900000008000555555000000400033333300DE
:102AA000AAAA2A004992240000002000C7711C0035
:102AB00099991900D1451700555515003BB11300E0
:102AC0002449120011111100000010000F0F0F0017
:102AD000E3380E0043790D00CCCC0C00C3300C0061
:102AE000E8A20B0064210B00AAAA0A00703D0A00AC
:102AF0009DD80900427B090092240900DCD308001C
:102B0000888808001042080000000800F0C1070093
:102B10008787070075500700711C07003EEB060011
:102B2000A1BC06006990060066660600703E0600BD
:102B30006118060017F4050074D105005BB00500AC
:102B4000B290050062720500555505007839050000
:102B5000B81E0500050505004EEC040087D40400EE
:102B6000A1BD040090A7040049920400C17D0400A7
:102B7000EE690400C7560400444404005C320400BB
:102B80000821040041100400000004003FF003008D
:102B9000F8E0030026D20300C3C30300CCB5030052
:102BA0003AA803000A9B0300388E0300C08103008B
:102BB0009F750300D0690300505E03001D5303009E
:102BC00034480300913D030033330300162903000A
:102BD000381F030097150300300C030003030300A4
:102BE0000BFA020049F10200BAE802005CE00200C0
:102BF0002DD802002DD0020059C80200B0C002003A
:102C000031B90200DAB10200AAAA0200A0A30200B0
:102C1000BC9C0200FA9502005C8F0200DF88020073
:102C200082820200457C02002776020027700200A3
:102C3000436A02007C640200D05E02003F59020039
:102C4000C85302005761726E696E673A20486F6D13
:102C5000696E672042756D702044697669736F7282
:102C6000203C20310A006563686F3A004572726F3C
:102C7000723A0020204D3432312049002020473262
:102C800039204939390A006163746976650A002080
:102C900053797374656D2076312E303120002020F9
:102CA000207C0A004E414E0020202E2020200020B3
:102CB0007C004C43443A0A004353563A0A002066CB
:102CC0006F7220003A0A0A000A42656420546F704D
:102CD0006F677261706879205265706F727400441A
:102CE0006F6E652E0A003F496E76616C69642073D1
:102CF000746F7261676520736C6F742E0A3F557331
:102D000065203020746F2000473239205032206611
:102D1000696E69736865642E0A005859206F75746E
:102D200073696465207072696E7461626C6520728B
:102D300061646975732E0A003F4572726F72206973
:102D40006E20427573696E657373204361726420EF
:102D50006D6561737572656D656E742E0A004D61E7
:102D60006E75616C6C792070726F62696E67207528
:102D70006E726561636861626C65206D6573682061
:102D80006C6F636174696F6E732E0A004D657368B2
:102D9000207A65726F65642E0A0044656661756C01
:102DA000742073746F7261676520736C6F74203068
:102DB0002073656C65637465642E0A004C6F6164F2
:102DC000696E6720746573745F7061747465726E88
:102DD0002076616C7565732E0A0A00496E76616C07
:102DE000696420746573745F7061747465726E20B9
:102DF00076616C75652E20282D3120746F20322964
:102E00000A0A004C6F636174696F6E7320696E7695
:102E1000616C6964617465642E0A0A00456E7469A8
:102E20007265204D65736820696E76616C696461B6
:102E30007465642E0A0A005374616E6461726420C2
:102E4000446576696174696F6E3A20004D65616E04
:102E5000204D657368204865696768743A200023CF
:102E6000206F662073616D706C65733A200024F4E6
:102E7000D43050C38E20C2A24017828B7011127AB8
:102E8000910D816CD90AA861E108C75866076151A4
:102E900043061E4B5D05C145A7041A411104093DB7
:102EA0009803713931034036DB0265339102D43027
:102EB0005402802E1D02632CEE01752AC501B02834
:102EC000A001102781018F2564012B244B01E022F2
:102ED0003401AC211F018D200D01801FFC00841ED8
:102EE000ED00971DDF00B81CD200E61BC600201BBA
:102EF000BC00641AB200B219A8000A19A0006A182E
:102F00009900D117910040178B00B5168400311637
:102F10007E00B31579003A157300C7146F0058147A
:102F20006A00EE1366008813630025135E00C71263
:102F30005B006C12570015125400C1115100701142
:102F40004F0021114B00D61049008D10470046104C
:102F5000440002104200C00F4000800F3E00420FAC
:102F60003C00060F3B00CB0E3800930E37005C0E82
:102F70003500270E3400F30D3200C10D3100900DE5
:102F80003000600D2E00320D2D00050D2C00D90CE7
:102F90002B00AE0C2900850C29005C0C2700350C99
:102FA00027000E0C2600E80B2400C40B2400A00B05
:102FB00023007D0B23005A0B2100390B2100180B35
:102FC0002000F80A1F00D90A1E00BB0A1E009D0A35
:102FD0001D00800A1D00630A1C00470A1B002C0A02
:102FE0001B00110A1A00F7091A00DD091900C409AB
:102FF0001900AB091900920917007B091800630931
:1030000017004C09160036091600200916000A0997
:103010001500F5081500E0081400CC081400B808E5
:103020001400A4081400900813007D0812006B0817
:103030001300580812004608120034081100230833
:1030400011001208110001081100F0071000E0073C
:103050001000D0071000C0071000B0070F00A10734
:10306000100091070E0083070F0074070F0065071B
:103070000E0057070E0049070E003B070D002E07F4
:103080000E0020070D0013070D0006070D00F906BE
:103090000C00ED060D00E0060C00D4060C00C8067E
:1030A0000C00BC060C00B0060C00A4060B00990630
:1030B0000C008D060B0082060B0077060B006C06D9
:1030C0000B0061060A0057060B004C060A00420678
:1030D0000A0038060A002E060A0024060A001A060C
:1030E0000A001006090007060A00FD050900F4059C
:1030F0000900EB050900E2050900D9050900D00522
:103100000900C7050900BE050900B5050800AD05A1
:103110000800A50509009C050800940508008C0519
:103120000800840508007C050800740508006C058B
:103130000700650508005D050700560508004E05F7
:10314000070047050700400508003805070031055E
:1031500007002A050700230507001C0506001605C1
:1031600007000F0507000805060002050700FB041D
:103170000600F5040700EE040600E8040600E20479
:103180000700DB040600D5040600CF040600C904CE
:103190000600C3040600BD040600B7040600B1041F
:1031A0000500AC040600A6040600A00405009B046C
:1031B000060095040500900406008A0405008504B5
:1031C0000500800406007A040500750405007004FB
:1031D00005006B04050066040500610405005C043D
:1031E000050057040500520405004D04050048047D
:1031F0000500430405003E0404003A0405003504BC
:103200000500300404002C040500270404002304F6
:1032100005001E0404001A0404001604050011042D
:1032200004000D0404000904050004040400000463
:103230000400FC030400F8030400F4030400F0039A
:103240000400EC030400E8030400E4030400E003CA
:103250000400DC030400D8030400D4030400D003FA
:103260000400CC030400C8030300C503030024F4D6
:1032700004D9201BC40C5C0E9804C4095F026507C6
:103280007101F405F900FB04B30048048700C10391
:1032900069005803550003034500BE023A0084024A
:1032A000310053022A002902250004022000E40113
:1032B0001C00C8011900AF01170098011400840117
:1032C0001300710110006101100051010E00430153
:1032D0000D0036010B002B010B0020010B00150126
:1032E00009000C01090003010800FB000800F300BD
:1032F0000800EB000700E4000600DE000600D8002E
:103300000600D2000600CC000500C7000500C20080
:103310000500BD000400B9000400B5000400B100C0
:103320000400AD000400A9000400A5000300A200F1
:1033300003009F0004009B00030098000300950019
:10334000020093000300900003008D0002008B0038
:103350000300880002008600020084000300810050
:1033600002007F0002007D0002007B000200790065
:103370000200770001007600020074000200720073
:103380000100710002006F0002006D0001006C007E
:1033900002006A0001006900020067000100660087
:1033A000010065000100640002006200010061008C
:1033B0000100600001005F0002005D0001005C0090
:1033C00001005B0001005A00010059000100580093
:1033D0000100570001005600010055000100540093
:1033E0000100530000005300010052000100510091
:1033F0000100500001004F0001004E0000004E008F
:1034000001004D0001004C0001004B0000004B008A
:1034100001004A0001004900010048000000480086
:103420000100470001004600000046000100450081
:10343000000045000100440001004300000043007B
:103440000100420000004200010041000000410074
:103450000100400001003F0000003F0001003E006D
:1034600000003E0001003D0000003D0001003C0066
:1034700000003C0000003C0001003B0000003B005D
:1034800001003A0000003A00010039000000390054
:10349000010038000000380000003800010037004B
:1034A0000000370001003600000036000000360042
:1034B0000100350000003500000035000100340037
:1034C000000034000000340001003300000033002D
:1034D0000000330001003200000032000000320022
:1034E0000100310000003100000031000100300017
:1034F000000030000000300001002F0000002F000D
:1035000000002F0000002F0001002E0000002E0000
:1035100000002E0001002D0000002D0000002D00F5
:1035200000002D0001002C0000002C0000002C00E9
:1035300000002C0001002B0000002B0000002B00DD
:1035400000002B0001002A0000002A0000002A00D1
:1035500000002A00010029000000290000002900C5
:1035600000002900000029000100280000002800B8
:1035700000002800000028000000280001002700AB
:10358000000027000000270000002700000027009F
:103590000100260000002600000026000000260092
:1035A0000000260001002500000025000000250085
:1035B0000000250000002500000025000100240077
:1035C000000024000000240000002400000024006B
:1035D000010023000000230000002300000023005E
:1035E000000023000000230000002300010022004F
:1035F0000000220000002200000022000000220043
:103600000000220001002100000021000000210034
:103610000000210000002100000021000000210026
:103620000100200000002000000020000000200019
:10363000000020000000200000002000000020000A
:1036400001001F0000001F0000001F0000001F00FD
:1036500000001F0000001F0000001F0001001E00EE
:1036600000001E0000001E0000001E000000232CB1
:103670000000B8220000561800003A0F0000B808F9
:103680000000B1040000710200003E01000054651A
:103690006D70657261747572650050726568656100
:1036A000742050455447005072656865617420501D
:1036B0004C41004D61696E0050726568656174200F
:1036C0005045544720416C6C0050726568656174C8
:1036D000205045544720456E64207E005072656836
:1036E00065617420504554472042656400507265FE
:1036F000686561742050455447207E00436F6F6CAD
:10370000646F776E0046616E205370656564203D7E
:10371000004E6F7A7A6C65207E0042616279737424
:103720006570205A00466C6F77207E00466C6F777C
:103730000044697361626C6552756E6F75740049FF
:103740006E736572742066696C616D656E7420615C
:103750006E642073656E64204D3130380A006F70DE
:10376000656E206661696C65642C2046696C653AFB
:103770002000626567696E0050757267654D6F72F3
:103780006500436F6E74696E7565004C6F616420EF
:1037900046696C616D656E74205400220A00556E96
:1037A0006B6E6F776E20636F6D6D616E643A202271
:1037B00000544845524D414C2052554E41574159B5
:1037C00000546865726D616C2052756E6177617925
:1037D00000706F7765726F666600506C6561736527
:1037E000205265736574005052494E54455220482A
:1037F000414C5445440025533A202553004B494C35
:103800004C45442E20005072696E746572206861C8
:103810006C7465642E206B696C6C28292063616C64
:103820006C6564210A007C3C3E5E2B3D3F2F5B5D56
:103830003B2C2A225C00496E666F205363726565DB
:103840006E004D65736820696E76616C69646174A1
:1038500065642E0A00473239204900496E76616C52
:10386000696461746520436C6F7365737400496E9D
:1038700076616C696461746520416C6C0047323913
:10388000205031204300436F6E74696E756520428D
:103890006564204D6573680046696C6C2D696E2007
:1038A0004D657368004275696C6420437573746F6D
:1038B0006D204D657368004732380A4D313930202C
:1038C0005337300A4D31303920533235300A4732C0
:1038D000392050310A4D3130342053300A4D3134C3
:1038E00030205330004275696C64204D6573682048
:1038F000285045544729004732380A4D3139302085
:103900005336300A4D31303920533230300A473285
:10391000392050310A4D3130342053300A4D313482
:1039200030205330004275696C64204D6573682007
:1039300028504C4129004D313137204D65736820A6
:103940002569204C6F6164656400473239204C253D
:1039500069004D313137204D65736820256920534A
:10396000617665640047323920532569004C6F61E8
:103970006420426564204D657368004D656D6F720B
:103980007920536C6F74004E6F2053746F726167AF
:103990006500486F6D696E672058595A0047323983
:1039A0002050342058257320592573205225690052
:1039B000202D2D2D2D2D0047323800473239205330
:1039C0002D31004F6666205072696E746572204218
:1039D00061636B757000473239205431004F757444
:1039E00070757420666F7220435356004732392039
:1039F0005430004F757470757420666F7220486F74
:103A00007374004F6E004D6F76652025736D6D00E9
:103A10004D6F766520302E316D6D004D6F766520CF
:103A2000316D6D004D6F76652031306D6D00486FE2
:103A300074656E6420746F6F20636F6C64004578EA
:103A4000747275646572202A0045787472756465B5
:103A500072004D6F7665205A004D6F7665205900D3
:103A60004D6F7665205800536F667420456E647301
:103A7000746F7073004D38340044697361626C6513
:103A8000205374657070657273004C6576656C20A8
:103A9000436F726E65727300473238205A00486F68
:103AA0006D65205A00473238205900486F6D6520F7
:103AB0005900473238205800486F6D652058004142
:103AC00075746F20486F6D65004D6F766520417885
:103AD0006973005072656865617420504C412041E3
:103AE0006C6C005072656865617420504C412045D3
:103AF0006E64207E005072656865617420504C4190
:103B000020426564005072656865617420504C41C4
:103B1000207E00204A00205200454550524F4D2043
:103B2000496E697469616C697A65640A004D6573F0
:103B30006820736176656420696E20736C6F7420F1
:103B4000003F556E61626C6520746F20736176650D
:103B5000206D65736820646174612E0A0020736CA7
:103B60006F743D00206D65736865735F656E643DBD
:103B7000004532454E443D00206D65736820736CEE
:103B80006F747320617661696C61626C652E0A00E6
:103B90003F496E76616C696420736C6F742E0A0005
:103BA0004D657368206C6F616465642066726F6D2B
:103BB00020736C6F7420003F556E61626C652074D9
:103BC0006F206C6F6164206D65736820646174613F
:103BD0002E0A0048617264636F6465642044656600
:103BE00061756C742053657474696E6773204C6FD3
:103BF000616465640A0020286D6D29002028696EC3
:103C0000290046616872656E686569740043656C79
:103C100073697573004B656C76696E00556E6966E5
:103C200069656420426564204C6576656C696E67E1
:103C30000020204D363033200020204D34313220FA
:103C4000530046696C616D656E742072756E6F7598
:103C5000742073656E736F723A0A0020204D3432FF
:103C6000352046004261636B6C61736820636F6D41
:103C700070656E736174696F6E3A0A00546F6F6C91
:103C80002D6368616E67696E673A0A005431204C93
:103C9000002055005430204C0046696C616D656E03
:103CA00074206C6F61642F756E6C6F6164206C653D
:103CB0006E677468733A0A0020204D393030205402
:103CC000004C696E65617220416476616E63653A8D
:103CD0000A0020204D383532204900536B6577208B
:103CE000466163746F723A200A0020204D343133EC
:103CF000205300506F7765722D4C6F73732052659F
:103D0000636F766572793A0A0020204D3330342093
:103D1000500020204D333031205000504944207352
:103D2000657474696E67733A0A0020480020204D5C
:103D30003134352053004D6174657269616C2068BF
:103D4000656174757020706172616D657465727300
:103D50003A0A00206D65736865732E0A0A004545AE
:103D600050524F4D2063616E20686F6C6420000AD2
:103D7000416374697665204D65736820536C6F7478
:103D80003A200020204D34323020530020204D3284
:103D90003138205400486F74656E64206F66667316
:103DA0006574733A0A0020204D32303520420020DD
:103DB0004A3C6A756E635F6465763E004164766175
:103DC0006E6365643A20423C6D696E5F7365676D32
:103DD000656E745F74696D655F75733E20533C6DED
:103DE000696E5F66656564726174653E20543C6D02
:103DF000696E5F74726176656C5F66656564726139
:103E000074653E0020204D32303420500041636301
:103E1000656C65726174696F6E2028756E69747364
:103E20002F7332293A20503C7072696E745F61635F
:103E300063656C3E20523C726574726163745F61AD
:103E40006363656C3E20543C74726176656C5F619F
:103E50006363656C3E0A0020204D323031205400EF
:103E600020204D3230312058004D6178696D756DDC
:103E700020416363656C65726174696F6E2028759B
:103E80006E6974732F7332293A0A0020204D323044
:103E90003320540020204D3230332058004D6178BB
:103EA000696D756D2066656564726174657320283F
:103EB000756E6974732F73293A0A005374657073B1
:103EC0002070657220756E69743A0A00203B205597
:103ED0006E69747320696E200020204D31343920C2
:103EE00000203B002020473200486F6D696E67203C
:103EF0004661696C6564006F70656E005452494795
:103F000047455245440066696C616D656E74007A80
:103F10005F6D696E00795F6D696E00785F6D696EC7
:103F2000005265706F7274696E6720656E64737499
:103F30006F70207374617475730A0020436F756E1F
:103F40007420583A0000004843000048430000A095
:103F5000400000F0410000A0420000A0420000C864
:103F6000430000D7430000D743D0070000D007002C
:103F70000064000000A00F00004F757461676520A9
:103F80005265636F76657279004261636B004368C6
:103F9000616E67652046696C616D656E7400436F84
:103FA0006E66696775726174696F6E003F00436188
:103FB0006E63656C004D313030300053746F70208B
:103FC0005072696E7400526573756D652050726928
:103FD0006E740053746F70004D3231004368616E2F
:103FE0006765204D65646961004175746F73746124
:103FF00072740054756E65004E6F204D6564696182
:10400000005374617274205072696E740043616E63
:104010006E6F7420656E7465722073756264697268
:104020003A2000052E2E005061726B696E672E2EAD
:104030002E0000005761697420666F720066696C1B
:10404000616D656E74206368616E676500746F20D2
:104050007374617274005761697420666F720066D0
:10406000696C616D656E7420756E6C6F61640000C3
:104070004E6F7A7A6C652068656174696E6700506E
:104080006C6561736520776169742E2E2E00005077
:104090007265737320627574746F6E00746F20683C
:1040A000656174206E6F7A7A6C650000496E736585
:1040B00072742066696C616D656E7400616E642057
:1040C000707265737320627574746F6E00746F2004
:1040D000636F6E74696E7565005761697420666FF1
:1040E000720066696C616D656E74206C6F6164004E
:1040F00000507265737320427574746F6E00746F34
:1041000020726573756D65207072696E740000575A
:1041100061697420666F72207072696E7400746FCA
:1041200020726573756D652E2E2E000057616974BF
:1041300020666F720066696C616D656E74207075C3
:1041400072676500004D31303920532569004D31CB
:10415000393020532569004D6573682045646974C2
:104160006F72004265642054656D7000486F74651D
:104170006E642054656D70004732392050362043FC
:10418000202D0048656967687420416D6F756E74F5
:104190000041646A757374204D65736820486569D1
:1041A0006768740047323920503420540046696EE5
:1041B000652054756E6520436C6F7365737400479A
:1041C0003236204320422569204825692050005678
:1041D000616C696461746520437573746F6D204D03
:1041E000657368004732380A473236204320423729
:1041F00030204832353020500056616C696461745B
:1042000065204D6573682028504554472900473282
:10421000380A473236204320423630204832303088
:1042200020500056616C6964617465204D65736847
:104230002028504C412900473239204A2569004C3A
:104240006576656C204D6573680053696465205020
:104250006F696E74730047726964204D65736820DE
:104260004C6576656C696E6700473239204A3000CC
:10427000332D506F696E74204C6576656C696E677E
:1042800000473239205033205220432E2569004DFB
:10429000616E75616C2046696C6C2D696E004669B3
:1042A0006C6C2D696E20416D6F756E7400205369C2
:1042B0007A653A200043616E6E6F74206F70656E90
:1042C00020737562646972200053442063617264D4
:1042D000206F6B0A006F70656E526F6F742066619D
:1042E000696C65640A00766F6C756D652E696E6920
:1042F00074206661696C65640A00534420696E69C4
:1043000074206661696C0A004D32332025730046C3
:10431000696C652073656C65637465640A00466941
:104320006C65206F70656E65643A2000454E4420D0
:10433000535542524F5554494E450A002220706F42
:1043400073002220706172656E743A2200535542E8
:10435000524F5554494E452043414C4C2074617294
:104360006765743A2200747279696E6720746F20F1
:1043700063616C6C207375622D67636F6465206682
:10438000696C6573207769746820746F6F206D6144
:104390006E79206C6576656C732E204D4158206CCB
:1043A0006576656C2069733A310A005772697469E1
:1043B0006E6720746F2066696C653A200044656CF6
:1043C0006574696F6E206661696C65642C2046694E
:1043D0006C653A200046696C652064656C6574659F
:1043E000643A005344207072696E74696E6720628B
:1043F00079746520004E6F74205344207072696E8A
:1044000074696E670A00667265736800646F696E2E
:1044100067004E6F772000496E76616C6964206595
:10442000787472756465720A004572723A204D4163
:104430005854454D50004D415854454D50207472CC
:1044400069676765726564004572723A204D494E2E
:1044500054454D50004D494E54454D50207472699D
:10446000676765726564004D3834204500202F0071
:104470002040002042403A0020403A0020573A00B5
:104480004163746976652045787472756465723A23
:10449000200070012C0190012701B0012201C00110
:1044A0001D01F00118011002130130020E0160021B
:1044B000090190020401C002FF000003FA0040035A
:1044C000F5008003F000D003EB002004E600700448
:1044D000E100E004DC004005D700C005D200400642
:1044E000CD00D006C8008007C3003008BE00F00829
:1044F000B900C009B400B00AAF00B00BAA00D00CDC
:10450000A500000EA000500F9B00C0109600501296
:10451000910000148C00C0158700B0178200B019FC
:104520007D00D01B7800001E730040206E0090229A
:104530006900F024640040275F0090295A00E02BB6
:104540005500102E500020304B0010324600E03352
:10455000410090353C001037370070383200A039E8
:104560002D00B03A2800A03B2300603C1E00103D07
:104570001900903D1400103E0F00703E0A00C03E2E
:104580000500003F0000403FFBFF803FF6FFC03FBB
:10459000F1FF02687474703A2F2F6D61726C696E4E
:1045A00066772E6F726700204275696C642034351F
:1045B00037004D313030302053002020506C616E78
:1045C0006E657242756666657242797465733A20EB
:1045D000002046726565204D656D6F72793A200046
:1045E000436F6D70696C65643A20446563203331B4
:1045F00020323031390A00204C61737420557064C8
:10460000617465643A20323031392D31322D3139BF
:10461000207C20417574686F723A20285665727448
:1046200061627265616B6572290A004275696C642A
:10463000203435370A004D61726C696E0020536F6B
:104640006674776172652052657365740A0020573D
:1046500061746368646F672052657365740A002033
:1046600042726F776E206F75742052657365740A9D
:10467000002045787465726E616C205265736574B4
:104680000A00506F77657255700A006175746F2566
:10469000632E6700473237006572726F722077723F
:1046A0006974696E6720746F2066696C650A0044DE
:1046B0006F6E6520736176696E672066696C652E22
:1046C0000A004D323900255320256320256320251B
:1046D0006320256300205A3A0020593A00656E6431
:1046E00073746F7073206869743A20004469736D45
:1046F000697373005072696E7420506175736564DC
:10470000005061757365205072696E74004D656468
:1047100069612052656D6F766564004D65646961FD
:1047200020496E736572746564006E6F74696669A2
:10473000636174696F6E20003344205072696E7437
:1047400065722052656164792E005072696E7469D9
:104750006E672E2E2E0063616E63656C0050726969
:104760006E742041626F7274656400554920416225
:104770006F72746564004D323520500A4D3234003A
:10478000526573756D6500554920506175736500FC
:10479000726573756D65005072696E742066726F14
:1047A0006D204D6564696100486F6D652025732536
:1047B0007325732046697273740000002100240081
:1047C00027002A002D003000330001010000040101
:1047D00007010A0100002200250028002B002E00FE
:1047E0003100340002010000050108010B01000046
:1047F00020002300260029002C002F003200000199
:104800000000030106010901050505050705080863
:104810000808020202020A0A08080404040401014A
:10482000010101010101030303030303030304075F
:1048300007070C0C0C0C0C0C0C0C020202020606F6
:104840000606060606060B0B0B0B0B0B0B0B0102E9
:104850001020200808102040102040800201020192
:10486000080402010102040810204080804020104A
:1048700008040201800402018040201008040201A3
:10488000080402010102040810204080010204080B
:104890001020408000000A0B02090C0D0E080703CF
:1048A0000401000000000000000000000000000003
:1048B00000000000000000000000000000000000F8
:1048C00012111000000000000000000000000000B5
:1048D00000000000000000000000FFFDFCFAF8F6F8
:1048E000F4F2F0EEECEAE9E7E5E3E1E0DEDCDAD968
:1048F000D7D5D4D2D0CFCDCBCAC8C7C5C3C2C0BF0D
:10490000BDBCBAB9B7B6B4B3B2B0AFADACAAA9A882
:10491000A6A5A4A2A1A09E9D9C9A999897959493D0
:1049200092908F8E8D8B8A898887868483828180FE
:104930007F7E7D7B7A797877767574737271706F0C
:104940006E6D6C6B6A696867666564636261605FFF
:104950005E5D5C5B5A5958585756555453525150E6
:10496000504F4E4D4C4B4A4A4948474646454443B2
:10497000424241403F3E3E3D3C3B3B3A393838376E
:10498000363535343332323130302F2E2E2D2C2B1C
:104990002B2A2929282727262525242323222121BC
:1049A00020201F1E1E1D1C1C1B1B1A19191818174E
:1049B0001616151514131312121111100F0F0E0ED7
:1049C0000D0D0C0C0B0A0A09090808070706060555
:1049D00005040403030202010000446966663A20EC
:1049E0000046726F6D5374703A0053746570706551
:1049F000723A00556E4C6576656C3A004C6576658A
:104A00006C65643A005261773A20202020000A4CFD
:104A10006F676963616C3A00436F756E7420453A45
:104A2000004361703A004D302F3120427265616B56
:104A30002043616C6C656400436C69636B20746F28
:104A400020526573756D652E2E2E0045320045315E
:104A500000626564002C2073797374656D20737433
:104A60006F7070656421204865617465725F4944A8
:104A70003A200048656174696E67204661696C651B
:104A8000640048656174696E67206661696C65647D
:104A900000009701950211241FBECFEFD1E2DEBFC7
:104AA000CDBF00E00CBF13E0A0E0B2E0E8E6FCE21E
:104AB00003E00BBF02C007900D92A23CB107D9F7EB
:104AC00028E1A2ECB3E001C01D92A33BB207E1F7DD
:104AD00015E2CAE4D5E200E006C021970109802F63
:104AE000FE010F94A891C934D10780E00807A9F707
:104AF0000F94687E0D9422960C9400002F923F92A2
:104B00004F925F926F927F928F929F92AF92BF92DD
:104B1000CF92DF92EF92FF920F931F93CF93DF9389
:104B2000CDB7DEB7C355D1090FB6F894DEBF0FBEBF
:104B3000CDBF63968FAF63972091FE062F962FAF60
:104B40002F9781E08093FE06809157178D3409F4EA
:104B50004CC5843511F40C94EA37873411F00C9469
:104B6000FB3780915517909156178B31910509F4B9
:104B700018C4A4F48430910509F4DEC01CF4029733
:104B800068F12FC58431910509F401C4853191057F
:104B900009F402C40C9709F024C50DC18A329105AD
:104BA00009F4AFC45CF48C31910509F414C44D9739
:104BB00009F017C50E941AF30C94FD378B35910547
:104BC00009F419C48C35910509F41AC48A35910584
:104BD00009F007C5109236090C94FD3780916702E1
:104BE000882311F40C94FD371FE4A12E13E0B12E9D
:104BF00006E4C02E02E0D02E8FEFE82E86E0F82EDD
:104C000010E0D5018D915D010E94ECEC882349F103
:104C1000812F0E943762762E872E982E092F809141
:104C2000B50581111EC0812F0E94155F882371F088
:104C3000D6012D913D914D915C91672D782D892D57
:104C4000902F0F94B191762E872E02C0892D902F30
:104C5000472D582DBC01F701408351836283738334
:104C60000AC0F60180819181A281B381F70180831E
:104C70009183A283B3831F5FF4E0CF0ED11C24E0A5
:104C8000E20EF11C133009F0BCCF85E40E94ECEC7D
:104C9000882321F183E00E9437627B018C0183E04D
:104CA0000E94155F882371F02091520230915302C7
:104CB0004091540250915502B701C8010F94B1912F
:104CC0007B0101C0C801A701BC0140930B075093B1
:104CD0000C0760930D0770930E0710C0809152026D
:104CE00090915302A0915402B091550280930B070A
:104CF00090930C07A0930D07B0930E0786E40F94D2
:104D0000281620E030E0A9010F947893181684F457
:104D10000E9496EC20E030E040E752E40F94399294
:104D20006093420270934302809344029093450241
:104D30000E943EE10C94FD3780E50E94ECEC882354
:104D400029F00E942D676B017C0103C0C12CD12C7E
:104D5000760183E50E94ECEC882361F00E945FEC11
:104D600020E030E04AE754E40F94138B0F94B292A2
:104D70006B017C010E94BFD080912D0A811105C07A
:104D800060E08CE497E00F9456620F94F26BC60ECD
:104D9000D71EE81EF91E0F94F26BDC01CB018C19B3
:104DA0009D09AE09BF09B7FD02C00C94FD3780E034
:104DB0000E946F57F0CF0F94B56781110C94FD37A7
:104DC00060E070E080E50E940261D82E65E070E04E
:104DD00083E50E9402617C01382E65E070E084E585
:104DE0000E940261282E40E050E060ED70E482E510
:104DF0000E9408ED4B015C018091501787FF02C0B3
:104E00000C940A3880915117837011F00C940A3871
:104E100001E082E0082B10913709812F0E9480ED7C
:104E200018A619A61AA61BA640E050E060EA70EC8E
:104E30004CA75DA76EA77FA718AA19AA1AAA1BAA32
:104E40008CE0E4E9F2E0DE015C9601900D928A9537
:104E5000E1F732E0D31210C0011105C085E597E0FB
:104E60000E94D5EE8FC21C8E1D8E1E8E1F8E48A3F3
:104E700059A36AA37BA324C000FD10C08091460201
:104E800090914702A0914802B09149028C8F9D8F6A
:104E9000AE8FBF8F88A799A7AAA7BBA701FD10C097
:104EA00080914A0290914B02A0914C02B0914D0228
:104EB00088A399A3AAA3BBA38CA79DA7AEA7BFA7AE
:104EC00080914E0290914F02A0915002B0915102F8
:104ED0008CA39DA3AEA3BFA388AB99ABAAABBBAB7E
:104EE00081E0D81629F092E0D91609F45EC1F1C12B
:104EF00028A539A54AA55BA56C8D7D8D8E8D9F8DCE
:104F00000F94B0914B015C0120E030E0A9010F94B7
:104F1000AD8A882309F436C22CA53DA54EA55FA510
:104F200068A179A18AA19BA10F94B0916B017C012A
:104F300020E030E0A9010F94AD8A882309F422C251
:104F40008CE0E6E4F2E0DE01119601900D928A9584
:104F5000E1F71CAE1DAE1EAE1FAE88E0FE01B89696
:104F6000DE01D49601900D928A95E1F7BE01645C52
:104F70007F4FCE01C4960E9452DE220C20E030E02A
:104F8000A901C501B4010F9478932401350187FF6D
:104F900004C077FA709477F8709420E030E0A901AB
:104FA000C701B6010F94789387FF0AC0D701C601E5
:104FB000B05828968CAF9DAFAEAFBFAF289706C054
:104FC0002896CCAEDDAEEEAEFFAE2897A3019201DF
:104FD00028966CAD7DAD8EAD9FAD28970F94AD8AB0
:104FE000181614F075016401A22DB0E02A96BFAF27
:104FF000AEAF2A97BD01BB0F880B990B0F94B48AF3
:105000009B01AC01C701B6010F9439924B015C01C1
:10501000D12CD31408F055C100E0802F002E000CD5
:10502000990B2A96EEADFFAD2A978E179F070CF0CD
:105030005CC000FF05C09E01245E3F4F790103C0A4
:10504000CE0188967C01A301920128966CAD7DADBE
:105050008EAD9FAD28970F94AD8A402F002E000C87
:10506000550B660B770B1CAA1DAA1EAA1FAA1816A1
:10507000ECF0CB01BA010F94B48AA50194010F940E
:10508000138B9B01AC0168A579A58AA59BA50F94FC
:10509000B1916CAF7DAF8EAF9FAFB7016C5F7F4FAB
:1050A000AE014C5C5F4FCE01CC961BC0CB01BA0168
:1050B0000F94B48AA50194010F94138B9B01AC014A
:1050C0006CA57DA58EA59FA50F94B1916CAF7DAF0A
:1050D0008EAF9FAFAE014C5C5F4FBE01645C7F4FF3
:1050E000C7010E9430DE0F5F98CF022D07FD5BC025
:1050F00000FF04C0DE015C967D0103C0FE01B8968E
:105100007F01A301920128966CAD7DAD8EAD9FAD60
:1051100028970F94AD8A402F002E000C550B660B7C
:10512000770B1CAA1DAA1EAA1FAA1816ECF0CB0109
:10513000BA010F94B48AA50194010F94138B9B01BB
:10514000AC0168A579A58AA59BA50F94B1916CAF18
:105150007DAF8EAF9FAFB7016C5F7F4FAE014C5CF0
:105160005F4FCE01CC961BC0CB01BA010F94B48A1D
:10517000A50194010F94138B9B01AC016CA57DA537
:105180008EA59FA50F94B1916CAF7DAF8EAF9FAFF1
:10519000AE014C5C5F4FBE01645C7F4FC7010E9453
:1051A00030DE0150A3CFD39434CF332009F4EAC0CA
:1051B0008CE0E6E4F2E0DE01119601900D928A9512
:1051C000E1F71CAE1DAE1EAE1FAE88E0FE01B89624
:1051D000DE01D49601900D928A95E1F7BE01645CE0
:1051E0007F4FCE01C4960E9452DE00E0E12CF12CEC
:1051F00024961CAE1DAE1EAE1FAE2497B7010F2C19
:10520000000C880B990B0F94B48A2CE739ED40E21F
:105210005FE30F94138B2B013C010F9434929B019D
:10522000AC01C501B4010F94138B9B01AC0168A1C3
:1052300079A18AA19BA10F94B1916CAF7DAF8EAF84
:105240009FAFC301B2010F9400949B01AC01C50153
:10525000B4010F94138B9B01AC016C8D7D8D8E8DF1
:105260009F8D0F94B1916CAB7DAB8EAB9FABAE01BC
:10527000405C5F4FBE01645C7F4FCE01C4960E94CC
:1052800030DEFFEFEF1AFF0A2AE0E216F10409F020
:10529000AFCF0F5F031508F4A9CF1CAE1DAE1EAE35
:1052A0001FAE88E0FE01B896DE01D49601900D9203
:1052B0008A95E1F7BE01645C7F4FCE01C4960E94DF
:1052C00052DE1CAA1DAA1EAA1FAABE016C5C7F4F3B
:1052D00055C08CE0E6E4F2E0DE01119601900D92FB
:1052E0008A95E1F71CAE1DAE1EAE1FAE88E0FE0132
:1052F000B896DE01D49601900D928A95E1F76E0181
:1053000034E3C30ED11CBE01645C7F4FC6010E9412
:1053100052DEFF24F594E79400E05601802F90E0E0
:105320008E159F0534F51CAE1DAE1EAE1FAE88E077
:10533000FE017C96D50101900D928A95E1F7BE01A0
:10534000645C7F4FC6010E9452DE1CAE1DAE1EAED5
:105350001FAE88E0FE01B896D60101900D928A95A5
:10536000E1F7BE01645C7F4FC6010E9452DE0F5F11
:10537000D5CF1CAA1DAA1EAA1FAAB601CE0101964E
:105380000E9458DE812F0E9480ED0C94FD3781E051
:105390000F944D720C94FD3780E00F944D720C9475
:1053A000FD370F94B56781110C94FD378CE0E0EA6E
:1053B000F2E0DE01119601900D928A95E1F760E02E
:1053C00070E080E50E940261BE016F5F7F4F0F9425
:1053D000595D0C94FD3780910F078770873011F06D
:1053E0000C94183860E08FE40E944F7081110C9487
:1053F000FD370C9418388FE0809336090C94FD37F4
:1054000080915417882351F1893009F076C0EFE478
:10541000CE2EE3E0DE2EF6E4EF2EF2E0FF2E312C6E
:1054200000E010E0D6018D916D010E94ECEC882324
:1054300071F0812F0E943762F7016083718382834C
:105440009383133011F401E002C0332433941F5FBF
:10545000F4E0EF0EF11C143029F744C06FE4C62EBF
:1054600063E0D62E76E4E72E72E0F72E312C00E0D2
:1054700010E0D6018D916D010E94ECEC882361F162
:10548000812F0E9437624B015C01F701208131813D
:10549000428153810F94B0912B013C012DEB37E3F6
:1054A00046E855EB0F94789387FD0AC02DEB37E360
:1054B00046E855E3C301B2010F94AD8A181664F4AF
:1054C000133011F401E002C033243394D7018D92DC
:1054D0009D92AD92BC9213971F5FB4E0EB0EF11C4E
:1054E000143039F6332019F00E949BDE06C00023E9
:1054F00021F082E592E00F94276F0F9412350C94FF
:10550000FD3780916702882311F40C94FD3789E4FC
:105510000E94ECECE82E882321F00E945BECF82E30
:1055200001C0F12C8AE40E94ECEC082F882321F0C2
:105530000E945BEC182F01C010E0EE2019F0E4E0AF
:10554000EF1520F0002341F0153030F089E797E0A7
:105550000E94D5EE0C94FD3780E1E6E4F2E0AFEF77
:10556000B6E001900D928A95E1F7EE2059F08F2D6B
:105570000E9436ED6093FF06709300078093010749
:1055800090930207002359F0812F0E9436ED60931B
:10559000030770930407809305079093060786E43A
:1055A0000F9428166B017C0120E030E0A9010F94D4
:1055B000789318164CF420E030E040E752E4C7013D
:1055C000B6010F94399203C060E070E0CB016983AB
:1055D0007A838B839C83CE0101960E941BEB0C94F3
:1055E000FD370F9452150C94FD378091551790910B
:1055F00056178D37910509F440C60CF00EC1813560
:10560000910509F43DC60CF07AC08A31910509F480
:10561000FCC2B4F58431910509F448C294F4813197
:10562000910509F42FC244F4029710F00C94E73767
:105630000F9477720C94FD37429709F43EC60C9490
:10564000E7378731910509F456C28CF4853191050D
:1056500009F44DC2469711F00C94E7370F948B4C28
:105660008091230B877F8093230B0C94FD37883127
:10567000910509F457C2499709F4BCC20C94E73765
:105680008032910509F438C3F4F48D31910509F4A1
:105690001CC384F48B31910509F4C5C24C9711F0F9
:1056A0000C94E73780915217909153170F94245020
:1056B0000C94FD378E31910509F40EC34F9709F410
:1056C00052C30C94E7378B34910509F42DC454F47C
:1056D0008A32910509F4F2C38934910509F411C4A1
:1056E0000C94E7378C34910509F422C48D3491056C
:1056F00011F00C94E7370E94F3A40C94FD378D361B
:10570000910509F444C40CF03FC08436910509F4B6
:1057100013C404F58435910509F4CFC58CF48235A2
:10572000910509F4C3C58335910511F00C94E73751
:10573000809136098F7E8062809336090C94FD3704
:105740008535910509F4BCC58C35910509F4D1C5A1
:105750000C94E7378A36910509F496C454F48836D8
:10576000910509F4EDC38936910509F477C40C94C9
:10577000E7378B36910509F4B4C48C36910511F4E2
:105780000C94FD370C94E7378337910509F45FC615
:10579000ECF48037910511F40C94FD3754F48E36F7
:1057A000910509F4B2C48F36910509F4BFC40C9475
:1057B000E7378137910509F4FEC48237910511F06E
:1057C0000C94E7370F9426730C94FD3787379105B7
:1057D00009F4E9C68CF48537910509F4A1C686372A
:1057E000910511F00C94E73700915217109153175F
:1057F00094E0F12C40E0BBC68837910509F4D6C689
:105800008937910511F00C94E7371092FE0D109234
:10581000FD0D0F9405320C94FD378A39F1E09F0796
:1058200011F40C94FD370CF08AC08A3D910509F4FF
:10583000ADC7ECF5893C910509F434C7E4F485392A
:10584000910509F414C754F48C38910509F4D5C4B2
:105850008139910509F4B2C60C94E7378B3991056B
:1058600009F4E5C48E3B910511F00C94E7370E94D2
:1058700045460C94FD378D3C910509F46DC76CF4D9
:105880008B3C910509F43FC78C3C910511F00C94B9
:10589000E7370E945E6B0C94FD37833D910509F458
:1058A0005EC7893D910509F45DC70C94E7378D32D9
:1058B00031E0930711F40C94C734E4F4823E91056F
:1058C00009F4BFC754F48C3D910509F462C78D3DBE
:1058D000910509F46BC70C94E7378232B1E09B075E
:1058E00011F40C946D348C32914011F40C94B23458
:1058F0000C94E7378033F1E09F0711F40C94CA341D
:105900007CF48E3231E0930711F40C943D358F32E4
:10591000914011F00C94E7370E94DD400C94FD3764
:105920008336B1E09B0711F40C948E378039914097
:1059300011F00C94E7370E94BFD00C94FD378C30E7
:10594000F2E09F0711F40C941D360CF04DC0863E1A
:1059500031E0930711F40C9491351CF5843AB1E0D1
:105960009B0711F40C948B356CF48C39F1E09F0794
:1059700011F40C9481358D39914011F40C94D03789
:105980000C94E737853A31E0930711F40C948E3587
:10599000893A914011F00C94E7370E94726C0C9494
:1059A000FD37863FB1E09B0711F40C9400367CF480
:1059B000843FF1E09F0711F40C94FD35853F914041
:1059C00011F00C94E7370F94FC340C94FD37873FAB
:1059D00031E0930711F40C940336883F914011F4A1
:1059E0000C940C360C94E7378435B3E09B0711F424
:1059F0000C94A4362CF58B35F2E09F0711F40C942F
:105A0000A7367CF48F3332E0930711F40C942536DB
:105A10008835924011F00C94E7370E94E4640C94AE
:105A2000FD378D3BB2E09B0711F40C9423378E3B7E
:105A3000924011F00C94E7370E9456620C94FD37A7
:105A4000803AF3E09F0709F480C16CF48C3633E0B0
:105A5000930711F40C94FD378438934011F40C949F
:105A600026370C94E737873EB3E09B0711F40C947C
:105A7000C237883E934011F00C94E7370E942E5FA6
:105A80000C94FD3780914E1784FF02C00C94F039BE
:105A90008091501787FF02C00C94F0398091511704
:105AA000837011F00C94F0390C94083A80EB97E075
:105AB0000E94D5EE80E49BE00F94F7198BE1E0E4BF
:105AC000FBE0DE01119601900D928A95E1F760E00E
:105AD00070E0CE0101960F945051CE0101960E94C4
