:100000000C94E6240C9417250C9417250C941725B2
:100010000C9417250C9417250C9417250C94172570
:100020000C9417250C9417250C9417250C94172560
:100030000C9417250C9492F10C9417250C94172509
:100040000C9417250D941E750C9417250C941725E8
:100050000C9417250C9417250D94BC6B0C9448F147
:100060000C9417250C9455440C944B440C94172570
:100070000C9417250C9417250C9417250C94172510
:100080000C94B13D0C9417250C9417250C9417254E
:100090000C9417250C9417250C9417250C941725F0
:1000A0000C9417250C9417250C94833D0C9417255C
:1000B0000C9417250C9417250C9417250C94553D7A
:1000C0000C9417250C9417250C9417250C941725C0
:1000D0000C9417250C9417250C9417250C941725B0
:1000E0000C9417258B449144A344B344BB44EB4484
:1000F000BF44EB44C344C744EB44CB44CF44D34454
:10010000DC44EB44E74477547E542D553B568357EB
:100110008C579C5762F067F06CF076F080F0F9F045
:100120008AF092F09AF0A4F0AEF0B8F0C7F0D1F0F7
:10013000F9F0DBF0E5F0EFF00E01BE020402D002B0
:1001400052011E025E02E40212018E02A801C402E4
:10015000F802A8021E0230012201CE01D602C0021E
:100160000202F001E002B2026E012A02D802BA02D3
:10017000A402920105A84CCDB2D44EB93836A902DA
:100180000C50B9918688083CA6AAAA2ABE00000095
:10019000803F07634236B79BD8A71A39685618AE16
:1001A000BAAB558C1D3CB7CC5763BD6DEDFD753EAC
:1001B000F6177231BF000000803F08000000BE92B9
:1001C0002449123EABAAAA2ABECDCCCC4C3E00009C
:1001D0000080BEABAAAAAA3E00000000BF0000003B
:1001E000803F0000000000084178D3BB4387D11353
:1001F0003D190E3CC3BD4282AD2B3E68EC8276BEFB
:10020000D98FE1A93E4C80EFFFBE01C4FF7F3F00C4
:10021000000000000C942DA30D94553B0D94342048
:100220000C94DAA10D9445200D94A1580D94E54944
:100230000D94B9580C9466AD0C9462F00C945CACBF
:100240000C940EA50D9465200C94D3440D949558F0
:100250000C94C3A20C9421CF0C94E5F00C94496D3E
:100260000D9461200C9483570D94E95C0C940AB0B2
:100270000D948D1A0C94D1F00C94ECEF0D94603F1A
:100280000C94BCC60C94F2660D9400190C94D6A282
:100290000C949BA20C943EAC0C948CAD0C946EAF61
:1002A0000D946B3B0D9430200D9474510C94A1C6A9
:1002B0000C9491440C94E1A40C94B3440C9410A3BA
:1002C0000C9486C60D94463B0C948B440D946D6B38
:1002D0000C947E540C9492AD0D94B5580D947321EA
:1002E0000D94653B0D9466560C94A3440D94E15710
:1002F0000D94643D0C9457AD0C94CB440C94CF44B6
:100300000D94D6170D949D580C940CB50D947952FC
:100310000D94D5170C94D3CE0D944D1E0C940AC990
:100320000C9468A30D947C210C946BC60C943B56E2
:100330000C94B3A70C9431650C9429C90C944BAD63
:100340000D9441190C946FA30C9456AC0C94CDEF02
:100350000D944D200D9443490C94D6CE0C947754B3
:100360000C9450AC0C949AF00C940BAB0C9473AFAF
:100370000D9492290C94EFF00C9486AD0C94BA670E
:100380000C94B5A20C94C9A30D94931A0C946CF020
:100390000D946F550C94D8EF0C94C0670D946920A0
:1003A0000C94A3EF0D94243B0D94BD580D94414043
:1003B0000C94B8F00C9457B00C94EBC80C945E6598
:1003C0000C940AF00C94BF440C941CB20D94821946
:1003D0000C9465940C9469940C946E940C9492F023
:1003E0000D9467210C948AF00D941D490C94BE67FE
:1003F0000C9438CC0C949C570C9487A20C948C577A
:100400000C9474AC0D946A210D9426200D943055F3
:100410000C944AAC0D94623B0C9462AC0D94F74E74
:100420000C9473940C94C4C80C9476F00D94474EBD
:100430000C9489900D9405500C94D5C90D946E20A0
:100440000C9461A30D94EB170C94F9F00C94F2C684
:100450000C9444AC0D947F210C9457A20C9476A379
:100460000C9419A20C94DC440D94D1880C94D7C63A
:100470000C94A8A20C94E7440C941BC80D944B3B1D
:100480000C94766E0D94E2180C94EB440D949958EC
:100490000C94A5AF0C942FA20D94EA5C0C94B36756
:1004A0000C9413A20D94414D0C9460650C94898DAD
:1004B0000D945D570C9421B30C94E4A70D943B204C
:1004C0000D94B3880C9490D70D94A5580C942D5589
:1004D0000C9467F00D94B1580C94335E0D94283B46
:1004E0000C9468AC0C9461AD0D94E7570C94C74420
:1004F0000C94C7F00C94B6C90C947AAC0D945A3B8A
:100500000C942F650C9480F00C9443A20C941CD690
:100510000C9480AD0D945F3B0C946EAC0D9449200F
:100520000C94486B0C94688E0C94BB440D947953D6
:100530000C9417B00C9487D40C94F5C90C94C5A3F3
:100540000D943F540D94D0570D9479210C94A4F040
:100550000D945B200D9435510C94BC670D94525052
:100560000D94615A0D9470210C9462650C945CADED
:100570000C9416A20D9491210C94DBF00D9437206D
:100580000D9464210C9473A20D9453200D94284F64
:100590000D947C570C9444A30C949CAF0C947DAFA9
:1005A0000D942A200C945C650C94C3440D94842112
:1005B0000D9476210C9460940C94B1670C94CEAD9C
:1005C0000D946D210C9465A20D943F200C9415A8F8
:1005D0000C94E3C80D94495D0C9478AF0D94A95820
:1005E0000D94413B0C94F3A20D94AD580D94503BE7
:1005F0000D9457200C94AEF00D94D9574E414E49AE
:100600004E495459494E46CDCCCC3D0AD7233C17D0
:10061000B7D13877CC2B329595E6241FB14F0A001D
:100620000020410000C84200401C4620BCBE4CCA0D
:100630001B0E5AAEC59D7400407A10F35A00A0728A
:100640004E18090010A5D4E80000E876481700000D
:10065000E40B54020000CA9A3B000000E1F50500DB
:100660000080969800000040420F000000A0860124
:10067000000000102700000000E8030000000064F4
:1006800000000000000A000000000001000000005F
:10069000002C76D888DC674F0823DFC1DFAE59E134
:1006A000B1B796E5E3E453C63AE651997696E8E6A3
:1006B000C28426EB898C9B62ED407C6FFCEFBC9C76
:1006C0009F40F2BAA56FA5F490055A2AF75C936B88
:1006D0006CF9676DC11BFCE0E40D47FEF520E6B543
:1006E00000D0ED902E0300943577050080841E081D
:1006F0000000204E0A000000C80C333333330F983B
:100700006E12831141EF8D2114893BE65516CFFE01
:10071000E6DB18D1844B381BF77C1D901DA4BBE48D
:1007200024203284725E228100C9F124ECA1E53DCF
:1007300027434F4D4D554E49434154494F4E004478
:10074000525952554E004552524F5253004543485C
:100750004F0020643A0020693A0020703A00496E48
:1007600076616C69642065787472756465720A00DC
:10077000536C6565702E2E2E005761726E696E6720
:10078000203A20436C65616E20436972636C65207A
:1007900072657175697265732058590A005A205044
:1007A000726F62652050617374204265640A005A5A
:1007B0002050726F6265205061737420426564003E
:1007C000486F6D652058592066697273740A004835
:1007D0006F6D6520585920466972737400205A3A2B
:1007E000200020593A200042656420583A20004DEC
:1007F00065736820706F696E742063616E6E6F74CC
:10080000206265207265736F6C7665640A004E6FB6
:10081000204D6F76652E00456E642066696C6520FC
:100820006C6973740A00426567696E2066696C655D
:10083000206C6973740A00526573756D696E672068
:10084000534400286E6F2066696C652900437572F9
:1008500072656E742066696C653A2000534420709E
:1008600072696E74696E67206279746520004E6FDC
:1008700074205344207072696E74696E670A002593
:10088000697920256964202569682025696D2025FE
:100890006973005072696E742074696D653A200046
:1008A000452025530044454255473A004D313133E8
:1008B0002053003344205072696E746572204F4695
:1008C000462E004649524D574152455F4E414D45D7
:1008D0003A4D61726C696E20446576204275696C90
:1008E00064203435342028476974487562292053C0
:1008F0004F555243455F434F44455F55524C3A680C
:10090000747470733A2F2F6769746875622E636F01
:100910006D2F5665727461627265616B2F4D6172E5
:100920006C696E2050524F544F434F4C5F564552A6
:1009300053494F4E3A312E30204D414348494E45A0
:100940005F545950453A3344205072696E74657251
:100950002045585452554445525F434F554E543AE2
:100960003120555549443A38333666613934332D90
:10097000313333372D313333372D313333372D394D
:1009800038613230646537353630370A002F2F2012
:10099000004D31343520533C696E6465783E206FDC
:1009A0007574206F662072616E67652028302D3166
:1009B000290A0046656564726174650020466C6FA3
:1009C000773A200050726F746563746564205069D3
:1009D0006E0A00206F7574206F662072616E676505
:1009E0000A0020536572766F200064697300432902
:1009F0000A0061626C656420286D696E2074656D03
:100A0000702000436F6C6420657874727564657340
:100A100020617265200046696C616D656E7420729C
:100A2000756E6F757420004D34323120696E636FBE
:100A3000727265637420706172616D657465722095
:100A400075736167650A00454550524F4D204F4B05
:100A50000A003F4B2076616C7565206F7574206FBE
:100A6000662072616E67652028302D3130292E0A8C
:100A700000416476616E6365204B3D0043617365A0
:100A8000206C696768743A200043617365206C6963
:100A90006768743A206F66660A00506F7765722D3A
:100AA0006C6F7373207265636F7665727920004D89
:100AB00007090B46073F073107726F746174696F4E
:100AC0006E206D61747269783A0A00206D61783A1F
:100AD00000206D696E3A004178697320004D383707
:100AE0003620526573706F6E64696E672050524F86
:100AF0004D50545F00554E4B4E4F574E205354416E
:100B000054450047434F44455F494E464F004C43D0
:100B1000445F50415553455F524553554D4500463E
:100B2000494C414D454E545F52554E4F55545F43CD
:100B30004F4E54494E55450046494C414D454E5443
:100B40005F52554E4F5554005075726765204D6F7A
:100B50007265004572726F722077726974696E6790
:100B600020746F20454550524F4D210A0062757325
:100B7000793A2070617573656420666F7220696EC2
:100B80007075740A00627573793A207061757365C7
:100B90006420666F7220757365720A0062757379DE
:100BA0003A2070726F63657373696E670A007061D3
:100BB000757365004D363030002066696C616D6577
:100BC0006E745F72756E6F7574200066696C616D0E
:100BD000656E745F72756E6F757420540046696C33
:100BE000616D656E7452756E6F75742054004E6F32
:100BF00020436865636B73756D2077697468206C3A
:100C0000696E65206E756D6265722C204C6173741F
:100C1000204C696E653A2000636865636B73756D7F
:100C2000206D69736D617463682C204C617374204E
:100C30004C696E653A20004C696E65204E756D6298
:100C40006572206973206E6F74204C617374204C40
:100C5000696E65204E756D6265722B312C204C617A
:100C60007374204C696E653A20004D313130004D6F
:100C7000313137004D3331005344207265616420B7
:100C80006572726F720A00446F6E65207072696ED1
:100C900074696E672066696C650A002121204B49E2
:100CA0004C4C2063617573656420627920746F6FAA
:100CB000206D75636820696E616374697665207460
:100CC000696D65202D2063757272656E7420636F87
:100CD0006D6D616E643A20006563686F3A0045721D
:100CE000726F723A00252723181F211D1C19171B2C
:100CF0001E2E2C0C312F3004400AFF410409080736
:100D0000000120204D343231204900202047323963
:100D1000204939390A006163746976650A002053F5
:100D2000797374656D2076312E30312000202020BB
:100D30007C0A004E414E0020202E20202000207CE6
:100D4000004C43443A0A004353563A0A0020666F67
:100D50007220003A0A0A000A42656420546F706FDC
:100D6000677261706879205265706F72740050729A
:100D70006F62696E67204661696C65640A00507233
:100D80006F62696E67204661696C656400446F6ECE
:100D9000652E0A003F496E76616C69642073746F3A
:100DA0007261676520736C6F742E0A3F55736520FE
:100DB0003020746F20004732392050322066696E2F
:100DC00069736865642E0A005859206F75747369D9
:100DD0006465207072696E7461626C652072616412
:100DE0006975732E0A003F4572726F7220696E201A
:100DF000427573696E6573732043617264206D651B
:100E000061737572656D656E742E0A004D616E7545
:100E1000616C6C792070726F62696E6720756E729A
:100E20006561636861626C65206D657368206C6FD5
:100E3000636174696F6E732E0A0050726F62696E1F
:100E4000672061726F756E642028004D657368209D
:100E5000696E76616C6964617465642E2050726F8E
:100E600062696E67206D6573682E0A004D65736850
:100E7000207A65726F65642E0A0044656661756C40
:100E8000742073746F7261676520736C6F742030A7
:100E90002073656C65637465642E0A004C6F616431
:100EA000696E6720746573745F7061747465726EC7
:100EB0002076616C7565732E0A0A00496E76616C46
:100EC000696420746573745F7061747465726E20F8
:100ED00076616C75652E20282D3120746F203229A3
:100EE0000A0A004C6F636174696F6E7320696E76D5
:100EF000616C6964617465642E0A0A00456E7469E8
:100F00007265204D65736820696E76616C696461F5
:100F10007465642E0A0A003F454550524F4D2073B8
:100F2000746F72616765206E6F7420617661696CA1
:100F300061626C652E0A005374616E646172642094
:100F4000446576696174696F6E3A2000486F746514
:100F50006E6420746F6F20636F6C640A0053656E5B
:100F600064204D31303820746F20726573756D6563
:100F70000A0052656865617420446F6E65005265B1
:100F800068656174696E67005265686561740048E0
:100F9000656174657254696D656F75740053656E33
:100FA00064204D31303820746F2068656174206E84
:100FB0006F7A7A6C650A004E6F7A7A6C65205061A0
:100FC000726B656400706175736564004D36303016
:100FD0003A20546F6F20436F6C6400726573756DB7
:100FE000656400526573756D696E670042656420C3
:100FF0004C6576656C696E6720004661696C656456
:1010000020746F20656E61626C6520426564204CBF
:101010006576656C696E670A00496E76616C696415
:10102000206D6573682E0A0076616C69640A5374DA
:101030006F7261676520736C6F743A20004D657341
:101040006820697320003F496E76616C6964207383
:10105000746F7261676520736C6F742E0A0044654B
:1010600076696174696F6E0025533A2025730020FC
:1010700052616E67653A20004D65616E3A20004608
:10108000696E6973686564210A002072616E676524
:101090003A2000207369676D613A2000206D656118
:1010A0006E3A20003A207A3A2000206F66200047EE
:1010B0006F696E6720746F3A20580043570A00200A
:1010C0006469723A0020616E676C653A005374611E
:1010D0007274207261646975733A004D343820501F
:1010E0006F696E740025533A2025642F25640050E3
:1010F0006F736974696F6E696E67207468652070BC
:10110000726F62652E2E2E0A003F4E756D626572FB
:10111000206F66206C65677320696E206D6F766541
:101120006D656E74206E6F7420706C61757369628A
:101130006C652028302D3135292E0A003F20285893
:101140002C5929206F7574206F6620626F756E644C
:10115000732E0A003F53616D706C652073697A6568
:10116000206E6F7420706C61757369626C652028E5
:10117000342D3530292E0A004D3438205A2D507226
:101180006F6265205265706561746162696C697433
:101190007920546573740A003F2856296572626F7E
:1011A0007365206C6576656C20696D706C61757314
:1011B00069626C652028302D34292E0A004C6F613D
:1011C00064206D6D00556E6C6F6164206D6D004123
:1011D0006476616E6365204B005654726176204DD3
:1011E000696E00566D696E00566D6178202A005652
:1011F0006D6178204500566D6178205A00566D610A
:1012000078205900566D6178205800416D61782032
:101210002A00416D6178204500416D6178205A00B7
:10122000416D6178205900416D6178205800412D51
:1012300054726176656C00412D52657472616374FD
:1012400000416363656C004A756E6374696F6E205C
:10125000446576002A73746570732F6D6D00457355
:10126000746570732F6D6D005A73746570732F6D94
:101270006D005973746570732F6D6D0058737465CC
:1012800070732F6D6D00040000050100030005015F
:1012900000050400000005000300951290128B1257
:1012A0008612000048420000A5420000E64200808D
:1012B00013430000344325532025692F2569005D21
:1012C0000A0062656420706C616E65206E6F726DDD
:1012D000616C203D205B00436F756C64206E6F7401
:1012E00020636F6D706C657465204C53462100540B
:1012F000696C74696E67206D65736820706F696EC4
:101300007420003F4572726F722070726F62696E56
:101310006720706F696E742E2041626F7274696EFF
:1013200067206F7065726174696F6E2E0A002553B5
:1013300020332F330054696C74696E67206D6573B8
:10134000682028332F33290A00255320322F3300F9
:1013500054696C74696E67206D6573682028322F3C
:1013600033290A00436F727265637465645F5A3D86
:101370000054696C74696E6720506F696E74002543
:101380005320312F330054696C74696E67206D658A
:1013900073682028312F33290A00646F6E650A00B4
:1013A000496E73756666696369656E7420646174FD
:1013B000610A004578747261706F6C6174696E6760
:1013C000206D6573682E2E2E0053544F50504544A7
:1013D0002E20005072696E7465722073746F707085
:1013E00065642064756520746F206572726F727316
:1013F0002E2046697820746865206572726F7220AD
:10140000616E6420757365204D39393920746F2001
:10141000726573746172742E202854656D706572E4
:1014200061747572652069732072657365742E200E
:1014300053657420697420616674657220726573E7
:1014400074617274696E67290A0021212053544F18
:10145000502063616C6C65642062656361757365BF
:10146000206F6620424C546F756368206572726FFE
:1014700072202D20726573746172742077697468AC
:10148000204D3939390A002F2F616374696F6E3A24
:1014900000627574746F6E00656E640070726F6DBB
:1014A00070745F0073686F7700206D61783A200078
:1014B000206D696E3A20004D302F312042726561F7
:1014C0006B2043616C6C656400436C69636B2074D2
:1014D0006F20526573756D652E2E2E0050726F62EF
:1014E00065204F6666736574205A0050726F62659E
:1014F000204F66667365745A3A20003F5A206F7514
:1015000074206F662072616E67652028003F592045
:101510006F7574206F662072616E676520282D00DC
:101520003F58206F7574206F662072616E6765206A
:10153000282D0050726F6265204F666673657420B7
:101540005800656E7175657565696E672022006F5C
:101550006B00526573656E643A20004265642043F7
:101560006F6F6C696E672E2E2E0042656420486591
:101570006174696E672E2E2E0023646566696E6540
:101580002044454641554C545F004B6420004B6954
:1015900020004B702000504944204175746F7475D1
:1015A0006E652066696E6973686564212050757484
:1015B00020746865206C617374204B702C204B691B
:1015C00020616E64204B6420636F6E7374616E746F
:1015D000732066726F6D2062656C6F7720696E7420
:1015E0006F20436F6E66696775726174696F6E2EE6
:1015F000680A00504944204175746F74756E652007
:101600006661696C6564212074696D656F75740A23
:10161000000A20436C617373696320504944200AB7
:1016200000204B643A2000204B693A2000204B7088
:101630003A20000A204E6F206F76657273686F6FD4
:10164000740A002054753A2000204B753A2000207F
:10165000643A200020626961733A200050494420B6
:101660004175746F74756E652073746172740A00CD
:10167000504944204175746F74756E6520666169C8
:101680006C6564212054656D706572617475726556
:1016900020746F6F20686967680A005049442041D0
:1016A00075746F74756E65206661696C6564212060
:1016B000426164206578747275646572206E756D20
:1016C0006265720A00A10000006900A200000063C8
:1016D00000B00000000900C10000004100C200008D
:1016E000004100C30000004100C40000004100C5EB
:1016F0000000004100C60000004145C70000004353
:1017000000C80000004500C90000004500CD0000F1
:10171000004900D10000004E00D50000004F00D667
:101720000000004F00D70000007800DC00000055EA
:1017300000DD0000005900E00000006100E1000051
:10174000006100E20000006100E30000006100E4CD
:101750000000006100E50000006100E6000000619B
:1017600065E70000006300E80000006500E9000094
:10177000006500EA0000006500EB0000006500EC79
:101780000000006900ED0000006900EE0000006943
:1017900000EF0000006900F10000006E00F20000A0
:1017A000006F00F30000006F00F40000006F00F510
:1017B0000000006F00F60000006F00F80000006FEE
:1017C00000F90000007500FA0000007500FB000041
:1017D000007500FC0000007500FD0000007900FFAE
:1017E00000000079000401000041000501000061D3
:1017F000000601000043000701000063000C010027
:101800000043000D01000063000E01000044000FC2
:10181000010000640011010000640019010000656E
:10182000001F010000670030010000490031010085
:10183000006900410100004C00420100006C0043BF
:101840000100004E00440100006E00480100006EDF
:10185000005901000072005A01000053005B0100B2
:101860000073005F0100007300600100005300611D
:1018700001000073006501000074006F0100007535
:10188000007C0100007A007D0100005A007E01000A
:10189000007A00920100006600E3020000780084F4
:1018A0000300002700850300002700860300004195
:1018B00000870300002E0088030000450089030014
:1018C0000048008A03000049008C0300004F008E8E
:1018D00003000059008F0300004F009003000069CF
:1018E00000910300004100920300004200930300B6
:1018F0000054009403000034009503000045009656
:101900000300005A009703000048009803000030CD
:10191000009903000049009A0300004B009B03005C
:10192000005E009C0300004D009D0300004E009EE1
:1019300003000033009F0300004F00A00300006E6F
:1019400000A10300005000A30300004500A4030011
:10195000005400A50300005900A60300007000A772
:101960000300005800A80300005000A90300004F26
:1019700000AA0300004900AB0300005900AC0300BB
:10198000006100AD0300006500AE0300006E00AF13
:101990000300006900B00300007600B1030000619D
:1019A00000B20300004200B30300007600B403005D
:1019B000006400B50300006500B60300005A00B7DC
:1019C0000300006E00B80300003000B90300006996
:1019D00000BA0300006B00BB0300004C00BC030016
:1019E000007500BD0300007600BE0300006500BF67
:1019F0000300006F00C00300006E00C10300007010
:101A000000C20300006300C30300006F00C40300B2
:101A1000007400C50300007600C60300007000C714
:101A20000300005800C80300005700C903000077F6
:101A300000CA0300006900CB0300007600CC03005D
:101A4000006F00CD0300007600CE03000077000198
:101A50000400004500100400004100110400006271
:101A6000001204000042001304000054001404009B
:101A7000005100150400004500160400002A00175C
:101A80000400004500180400004E00190400004E38
:101A9000001A0400004B001B04000054001C04004A
:101AA000004D001D04000048001E0400004F001FF0
:101AB0000400006E002004000050002104000043D8
:101AC00000220400005400230400005900240400F4
:101AD000006F002504000058002604000055002770
:101AE0000400007900280400005700290400005772
:101AF000002A04000062002B040000627C2C040019
:101B00000062002D04000065002E0400007C4F2FB1
:101B1000040000397C30040000610031040000360C
:101B2000003204000042003304000072003404005C
:101B3000006100350400006500360400002A00370B
:101B400004000065003804000075003904000075C9
:101B5000003A0400006B003B0400006E003C0400EF
:101B6000006D003D04000048003E0400006F003F8F
:101B70000400006E00400400007000410400006397
:101B80000042040000740043040000790044040093
:101B9000007170450400007800460400007500479D
:101BA0000400007900480400007700490400007731
:101BB000004A04000062004B040000627C4C0400F8
:101BC0000062004D04000065004E0400007C6F4F71
:101BD0000400006700510400006500222000002E70
:101BE000001E210000507822210000544D90210059
:101BF000003C2D922100002D3EB02100000300BBCF
:101C000021000004003C2200007E00482200007EEB
:101C10003D60220000213D612200003D0064220061
:101C2000003C3D652200003E3DF12300000700A07E
:101C30003000003D0021F301000200C2F401000564
:101C400000A2000000EC00B0000000DF00E4000093
:101C500000E100F6000000EF00F7000000FD00FCCE
:101C6000000000F500E3020000EB0087030000A580
:101C7000008F030000F40098030000F2009E0300B0
:101C800000E300A3030000F600A9030000F400AC89
:101C9000030000E000AD030000E300B1030000E03A
:101CA00000B2030000E200B5030000E300B8030047
:101CB00000F200BC030000E400BE030000E300C02B
:101CC000030000F700C1030000E600C3030000E5C5
:101CD00000902100007F00922100007E001A220067
:101CE00000E8001E220000F30088250000FF00022B
:101CF000300000A1000C300000A2000D300000A355
:101D0000009B300000DE009C300000DF00A03000AF
:101D1000003D00A1300000A700A2300000B100A3E8
:101D2000300000A800A4300000B200A5300000A9D7
:101D300000A6300000B300A7300000AA00A83000C1
:101D400000B400A9300000AB00AA300000B500AB21
:101D5000300000B600AC300000B6DEAD300000B799
:101D600000AE300000B7DEAF300000B800B0300089
:101D700000B8DEB1300000B900B2300000B9DEB307
:101D8000300000BA00B4300000BADEB5300000BB4D
:101D900000B6300000BBDEB7300000BC00B8300039
:101DA00000BCDEB9300000BD00BA300000BDDEBBB3
:101DB000300000BE00BC300000BEDEBD300000BF01
:101DC00000BE300000BFDEBF300000C000C03000E9
:101DD00000C0DEC1300000C100C2300000C1DEC35F
:101DE000300000AF00C4300000C200C5300000C2A7
:101DF000DEC6300000C300C7300000C3DEC83000BC
:101E000000C400C9300000C4DECA300000C500CBE9
:101E1000300000C600CC300000C700CD300000C844
:101E200000CE300000C900CF300000CA00D0300022
:101E300000CADED1300000CADFD2300000CB00D3B0
:101E4000300000CBDED4300000CBDFD5300000CC3A
:101E500000D6300000CCDED7300000CCDFD8300018
:101E600000CD00D9300000CDDEDA300000CDDFDB60
:101E7000300000CE00DC300000CEDEDD300000CED1
:101E8000DFDE300000CF00DF300000D000E03000A7
:101E900000D100E1300000D200E2300000D300E3C6
:101EA000300000AC00E4300000D400E5300000ADAC
:101EB00000E6300000D500E7300000AE00E830005A
:101EC00000D600E9300000D700EA300000D800EB6F
:101ED000300000D900EC300000DA00ED300000DB0B
:101EE00000EF300000DC00F2300000A600F330000C
:101EF00000DD00F4300000B3DEF7300000DCDEFA75
:101F0000300000A6DEFB300000A500FC300000B071
:101F100000FD300000A400074E0000FB00865100C9
:101F200000FC0043530000FA0064FF0000A40065B9
:101F3000FF0000A50066FF0000A60067FF0000A7E5
:101F40000068FF0000A80069FF0000A9006AFF0008
:101F500000AA006BFF0000AB006CFF0000AC006D3E
:101F6000FF0000AD006EFF0000AE006FFF0000AF8D
:101F70000070FF0000B00071FF0000B10072FF00B0
:101F800000B20073FF0000B30074FF0000B40075DE
:101F9000FF0000B50076FF0000B60077FF0000B735
:101FA0000078FF0000B80079FF0000B9007AFF0058
:101FB00000BA007BFF0000BB007CFF0000BC007D7E
:101FC000FF0000BD007EFF0000BE007FFF0000BFDD
:101FD0000080FF0000C00081FF0000C10082FF0000
:101FE00000C20083FF0000C30084FF0000C400851E
:101FF000FF0000C50086FF0000C60087FF0000C785
:102000000088FF0000C80089FF0000C9008AFF00A7
:1020100000CA008BFF0000CB008CFF0000CC008DBD
:10202000FF0000CD008EFF0000CE008FFF0000CF2C
:102030000090FF0000D00091FF0000D10092FF004F
:1020400000D20093FF0000D30094FF0000D400955D
:10205000FF0000D50096FF0000D60097FF0000D7D4
:102060000098FF0000D80099FF0000D9009AFF00F7
:1020700000DA009BFF0000DB009CFF0000DC009DFD
:10208000FF0000DD009EFF0000DE009FFF0000DF7C
:1020900000E5FF00005C0052756E6F75742053659B
:1020A0006E736F7200554E4C4F41442046494C416F
:1020B0004D454E540046494C414D454E54204348F1
:1020C000414E4745004732380A4732392050310ADD
:1020D0004732392050330A47323920530A473239C0
:1020E00020410A4D353030004732380A4732392016
:1020F000503420523939390A47323920530A47328D
:102100003920410A4D353030004732392050340AE9
:102110004D353030004D333033205531204530209F
:10212000533235302043380A4D353030004D33308E
:102130003320553120452D31205339302043380A82
:102140004D353030004D393030204B300A4D353070
:1021500030004D393030204B302E320A4D35303082
:10216000004D393030204B302E330A4D35303000A1
:102170004D393030204B302E340A4D353030004D43
:10218000393030204B302E350A4D353030004D3946
:102190003030204B302E360A4D353030004C696ED1
:1021A00020416476204B302E34004C696E2041640F
:1021B00076204B302E33004C696E20416476204BE4
:1021C000302E32004C696E20416476204F666600E6
:1021D0004C696E20416476204B302E3500504944C6
:1021E000204175746F74756E6520426564005049B6
:1021F00044204175746F74756E6520456E640041AE
:10220000646A75737420506F696E74204E656172D4
:10221000004D616E75616C2055424C0050726F62CA
:10222000652055424C004C696E20416476204B304D
:102230002E36004D37303220542564004D36303074
:1022400020423020542564004D373032203B256435
:10225000004D3730312054256400556E6C6F616439
:102260002046696C616D656E74004C6F6164204638
:10227000696C616D656E740050726568656174208B
:10228000437573746F6D004D3630302042302054EA
:102290002569004D37303120542569004D373032E3
:1022A00020542569004D37303200556E6C6F6164E3
:1022B00020416C6C00556E6C6F61642046696C61E6
:1022C0006D656E74202A004C6F61642046696C61F4
:1022D0006D656E74202A004368616E6765204669EB
:1022E0006C616D656E74202A005075726765206D93
:1022F0006F726500524553554D45204F5054494F1C
:102300004E533A005052494E542050415553454483
:102310000020204E6F7A7A6C653A20004163636535
:102320006C65726174696F6E3A2050003F4A206F8D
:102330007574206F662072616E67652028302E30BC
:102340003120746F20302E33290A0020633A002098
:102350004D3932205400204D393220580020204D74
:1023600061783A200020204D696E3A2000536F6654
:102370007420656E6473746F70733A2000252900B1
:10238000257C004F464600203B2043757272656EE7
:1023900074205A00203B20456E6400203B2053747B
:1023A00061727400202854004772616469656E741C
:1023B000204D697820004D32342053256C64205420
:1023C000256C64004739322E39204525730047318A
:1023D00020462564004731204531204633303030D7
:1023E000004739322E39205A2573004731205A30A0
:1023F000204632303000473120582573205925734C
:1024000020463330303000473120453120463230CD
:1024100030004D34323020532569205A2573004D49
:102420003130362050256920532569004739322E36
:10243000392045305A300A47315A320A4732385229
:10244000305859004D343230205330205A3000205B
:10245000496E76616C696420657874727564657222
:10246000200020496E76616C696420452073746594
:1024700070706572200020452073746570706572FD
:10248000206E6F74207370656369666965640A0005
:102490000010101010101000001414141414140064
:1024A0000015151515151500001C1F11111F000032
:1024B0000006191803130C00040E1F041C00000072
:1024C000000E1315110E00001C101817050605004C
:1024D000040A0A0A0A11110E0C12120C0000000064
:1024E000001F1511151F0000000000000102040468
:1024F0000000001C1C0C0404040201000000000089
:1025000004081000000000007C4D61726C696E7C54
:10251000002D2D2D2D2D2D004D69786572003F0069
:1025200043616E63656C004F6E002020456E642031
:102530005A3A005374617274205A3A00416C6961CE
:102540007320562D746F6F6C002020456E642056EA
:102550002D746F6F6C00537461727420562D746FFC
:102560006F6C00253364252520253364252500560E
:102570002D746F6F6C73205765726520526573659B
:10258000740052657665727365204772616469658F
:102590006E74005425692D3E54256900526573659B
:1025A0007420562D746F6F6C7300546F67676C6581
:1025B000204D6978002533643B253364252500418F
:1025C000637469766520562D746F6F6C00536F6667
:1025D0007420456E6473746F7073004D383400441A
:1025E000697361626C652053746570706572730005
:1025F0004732380A4D343820503130004D343820BD
:1026000050726F62652054657374004C6576656C1A
:1026100020436F726E65727300473238205A00484B
:102620006F6D65205A00473238205900486F6D653C
:10263000205900473238205800486F6D65205800F7
:102640004175746F20486F6D650020627974657301
:102650003B20637263200053657474696E67732056
:1026600053746F7265642028004E6F2045455052A8
:102670004F4D2E0A00454550524F4D206461746104
:1026800073697A65206572726F722E0A003F4D651C
:10269000736820746F6F2062696720666F722045CF
:1026A0004550524F4D2E0A0055424C2072657365BD
:1026B000740A00206C6F616465642066726F6D201F
:1026C00073746F726167652E0A004D657368200030
:1026D0003F43616E277420656E61626C6520002047
:1026E000696E697469616C697A65642E0A0A0020F2
:1026F00073746F7265642073657474696E67732098
:1027000072657472696576656420280020286361AB
:102710006C63756C6174656429210A0020213D2079
:1027200000454550524F4D20435243206D69736D13
:1027300061746368202D202873746F72656429208A
:1027400000496E6465783A2000204D61726C696EB4
:102750003D563734290A00454550524F4D20766585
:102760007273696F6E206D69736D61746368202880
:10277000454550524F4D3D00000066430000664302
:1027800000007A43416476616E636564205365742A
:1027900074696E677300496E697400496E69746983
:1027A000616C697A6520454550524F4D0053746500
:1027B00070732F6D6D004A65726B00416363656CC9
:1027C00065726174696F6E0056656C6F63697479C8
:1027D000004E65787420506F696E74004E65787491
:1027E00000436D643A2053746F7700436D643A2060
:1027F00053572D4D6F646500436D643A20446570F6
:102800006C6F7900436D643A2053656C662D546596
:10281000737400436D643A205265736574004C69AB
:10282000676874204272696768746E6573730046E6
:10283000616E205370656564004C6F616420536560
:102840007474696E677300526573746F7265206685
:1028500061696C736166650053746F7265205365BE
:102860007474696E67730050726568656174205096
:1028700045544720436F6E66005072656865617409
:1028800020504C4120436F6E660043617365204CBD
:102890006967687400424C546F7563680047323949
:1028A00020503420523939392054004732380A47F1
:1028B0003239205031004D6F74696F6E0045646984
:1028C00074204D6573680047323920493939390A17
:1028D0004732392050322042205430004D616E750D
:1028E000616C6C79204275696C64204D6573680079
:1028F000372E205361766520426564204D657368EC
:1029000000362E2046696E652054756E6520416C38
:102910006C00352E2056616C6964617465204D65CC
:10292000736800342E2046696E652054756E6520EC
:10293000416C6C00332E2056616C696461746520B3
:102940004D657368004732392050332054300032CF
:102950002E20536D6172742046696C6C2D696E0077
:10296000312E204275696C6420436F6C64204D6584
:102970007368004732392057004F757470757420A2
:1029800055424C20496E666F0055424C20546F6F83
:102990006C73004F7574707574204D657368204DAD
:1029A0006170004D6573682053746F7261676500D4
:1029B0004D657368204564697400537465702D42D9
:1029C000792D537465702055424C004732392041AF
:1029D0000041637469766174652055424C0047324A
:1029E00039204400446561637469766174652055DB
:1029F000424C002568753A25303268750025303222
:102A000068753A253032687500202020202020206B
:102A10000025732025643B256425252000202F00F8
:102A20002042403A0020403A007C3C3E5E2B3D3F35
:102A30002F5B5D3B2C2A225C0024F4D43050C38EE3
:102A400020C2A24017828B7011127A910D816CD92D
:102A50000AA861E108C7586607615143061E4B5D2D
:102A600005C145A7041A411104093D980371393184
:102A7000034036DB0265339102D4305402802E1DB0
:102A800002632CEE01752AC501B028A00110278130
:102A9000018F2564012B244B01E0223401AC211F5E
:102AA000018D200D01801FFC00841EED00971DDFAD
:102AB00000B81CD200E61BC600201BBC00641AB282
:102AC00000B219A8000A19A0006A189900D117913C
:102AD0000040178B00B516840031167E00B31579BF
:102AE000003A157300C7146F0058146A00EE13669D
:102AF000008813630025135E00C7125B006C125739
:102B00000015125400C111510070114F0021114BDA
:102B100000D61049008D10470046104400021042B4
:102B200000C00F4000800F3E00420F3C00060F3BEC
:102B300000CB0E3800930E37005C0E3500270E34A4
:102B400000F30D3200C10D3100900D3000600D2EEC
:102B500000320D2D00050D2C00D90C2B00AE0C29D8
:102B600000850C29005C0C2700350C27000E0C2674
:102B700000E80B2400C40B2400A00B23007D0B23D2
:102B8000005A0B2100390B2100180B2000F80A1FF6
:102B900000D90A1E00BB0A1E009D0A1D00800A1DE6
:102BA00000630A1C00470A1B002C0A1B00110A1AAA
:102BB00000F7091A00DD091900C4091900AB091949
:102BC00000920917007B091800630917004C0916C9
:102BD0000036091600200916000A091500F5081527
:102BE00000E0081400CC081400B8081400A408146D
:102BF00000900813007D0812006B0813005808129B
:102C000000460812003408110023081100120811B0
:102C10000001081100F0071000E0071000D00710B5
:102C200000C0071000B0070F00A107100091070EA9
:102C30000083070F0074070F0065070E0057070E8B
:102C40000049070E003B070D002E070E0020070D60
:102C50000013070D0006070D00F9060C00ED060D28
:102C600000E0060C00D4060C00C8060C00BC060CE4
:102C700000B0060C00A4060B0099060C008D060B94
:102C80000082060B0077060B006C060B0061060A3B
:102C90000057060B004C060A0042060A0038060AD6
:102CA000002E060A0024060A001A060A0010060969
:102CB0000007060A00FD050900F4050900EB0509F7
:102CC00000E2050900D9050900D0050900C705097A
:102CD00000BE050900B5050800AD050800A50509F9
:102CE000009C050800940508008C05080084050870
:102CF000007C050800740508006C050700650508E0
:102D0000005D050700560508004E0507004705074A
:102D1000004005080038050700310507002A0507AF
:102D200000230507001C050600160507000F050710
:102D3000000805060002050700FB040600F504076D
:102D400000EE040600E8040600E2040700DB0406C7
:102D500000D5040600CF040600C9040600C304061B
:102D600000BD040600B7040600B1040500AC04066B
:102D700000A6040600A00405009B040600950405B7
:102D800000900406008A04050085040500800406FE
:102D9000007A04050075040500700405006B040545
:102DA0000066040500610405005C04050057040585
:102DB00000520405004D04050048040500430405C5
:102DC000003E0404003A0405003504050030040404
:102DD000002C04050027040400230405001E04043D
:102DE000001A04040016040500110404000D040474
:102DF00000090405000404040000040400FC0304AA
:102E000000F8030400F4030400F0030400EC0304DE
:102E100000E8030400E4030400E0030400DC03040E
:102E200000D8030400D4030400D0030400CC03043E
:102E300000C8030300C503030024F404D9201BC405
:102E40000C5C0E9804C4095F0265077101F405F972
:102E500000FB04B30048048700C103690058035510
:102E60000003034500BE023A008402310053022AE7
:102E7000002902250004022000E4011C00C80119F9
:102E800000AF0117009801140084011300710110B4
:102E9000006101100051010E0043010D0036010BCD
:102EA000002B010B0020010B00150109000C01098A
:102EB0000003010800FB000800F3000800EB000716
:102EC00000E4000600DE000600D8000600D200067E
:102ED00000CC000500C7000500C2000500BD0004CD
:102EE00000B9000400B5000400B1000400AD000406
:102EF00000A9000400A5000300A20003009F000435
:102F0000009B00030098000300950002009300035B
:102F100000900003008D0002008B00030088000277
:102F2000008600020084000300810002007F00028E
:102F3000007D0002007B00020079000200770001A2
:102F400000760002007400020072000100710002AD
:102F5000006F0002006D0001006C0002006A0001B9
:102F600000690002006700010066000100650001C1
:102F700000640002006200010061000100600001C5
:102F8000005F0002005D0001005C0001005B0001C9
:102F9000005A0001005900010058000100570001CB
:102FA00000560001005500010054000100530000CC
:102FB00000530001005200010051000100500001C7
:102FC000004F0001004E0000004E0001004D0001C6
:102FD000004C0001004B0000004B0001004A0001C2
:102FE00000490001004800000048000100470001BE
:102FF00000460000004600010045000000450001B9
:1030000000440001004300000043000100420000B2
:1030100000420001004100000041000100400001A9
:10302000003F0000003F0001003E0000003E0001A4
:10303000003D0000003D0001003C0000003C00009D
:10304000003C0001003B0000003B0001003A000092
:10305000003A00010039000000390001003800008A
:103060000038000000380001003700000037000180
:103070000036000000360000003600010035000078
:10308000003500000035000100340000003400006D
:103090000034000100330000003300000033000161
:1030A0000032000000320000003200010031000058
:1030B000003100000031000100300000003000004D
:1030C00000300001002F0000002F0000002F000042
:1030D000002F0001002E0000002E0000002E000135
:1030E000002D0000002D0000002D0000002D00012B
:1030F000002C0000002C0000002C0000002C00011F
:10310000002B0000002B0000002B0000002B000112
:10311000002A0000002A0000002A0000002A000106
:1031200000290000002900000029000000290000FB
:1031300000290001002800000028000000280000ED
:1031400000280000002800010027000000270000E0
:1031500000270000002700000027000100260000D3
:1031600000260000002600000026000000260001C6
:1031700000250000002500000025000000250000BB
:1031800000250000002500010024000000240000AC
:10319000002400000024000000240001002300009F
:1031A0000023000000230000002300000023000093
:1031B0000023000000230001002200000022000084
:1031C0000022000000220000002200000022000176
:1031D000002100000021000000210000002100006B
:1031E000002100000021000000210001002000005B
:1031F000002000000020000000200000002000004F
:10320000002000000020000000200001001F00003E
:10321000001F0000001F0000001F0000001F000032
:10322000001F0000001F0001001E0000001E000023
:10323000001E0000001E0000008E2900001A210060
:103240000088170000E80E00009A080000A904009A
:10325000006F0200003E01000002687474703A2F93
:103260002F6D61726C696E66772E6F7267002044F5
:103270006576204275696C6420343534004D3130F8
:1032800030302053002020506C616E6E65724275A4
:103290006666657242797465733A200020467265ED
:1032A00065204D656D6F72793A2000436F6D7069CE
:1032B0006C65643A20446563203232203230313903
:1032C0000A00204C61737420557064617465643A1F
:1032D00020323031392D31322D3139207C20417569
:1032E00074686F723A202856657274616272656103
:1032F0006B6572290A00446576204275696C64200A
:103300003435340A004D61726C696E0020536F666B
:1033100074776172652052657365740A0020576185
:10332000746368646F672052657365740A00204295
:10333000726F776E206F75742052657365740A0022
:103340002045787465726E616C2052657365740AED
:1033500000506F77657255700A006175746F256350
:103360002E6700473237006572726F72207772697C
:1033700074696E6720746F2066696C650A00446F1B
:103380006E6520736176696E672066696C652E0ACA
:10339000004D323900255320256320256320256305
:1033A0002025630020593A00656E6473746F707352
:1033B000206869743A200020746F6F206C6F6E670C
:1033C00020657874727573696F6E207072657665AA
:1033D0006E7465640A0020636F6C64206578747293
:1033E0007573696F6E2070726576656E7465640AB8
:1033F00000000020C10000A0C0000000000000206C
:103400004200002042000080400202020000A04072
:103410000000A0400000A0400000704300006B438B
:1034200000007A43FFFFFF000000010000000100E0
:10343000008000555555000000400033333300AA8A
:10344000AA2A004992240000002000C7711C00999C
:10345000991900D1451700555515003BB1130024AB
:1034600049120011111100000010000F0F0F00E3AE
:10347000380E0043790D00CCCC0C00C3300C00E8B2
:10348000A20B0064210B00AAAA0A00703D0A009D4D
:10349000D80900427B090092240900DCD308008887
:1034A0008808001042080000000800F0C1070087EB
:1034B00087070075500700711C07003EEB0600A14E
:1034C000BC06006990060066660600703E06006154
:1034D00018060017F4050074D105005BB00500B2B2
:1034E000900500627205005555050078390500B851
:1034F0001E0500050505004EEC040087D40400A15C
:10350000BD040090A7040049920400C17D0400EEB0
:10351000690400C7560400444404005C32040008F7
:1035200021040041100400000004003FF00300F8F3
:10353000E0030026D20300C3C30300CCB503003A66
:10354000A803000A9B0300388E0300C08103009F7C
:10355000750300D0690300505E03001D530300345F
:10356000480300913D03003333030016290300385C
:103570001F030097150300300C0300030303000B27
:10358000FA020049F10200BAE802005CE002002DF4
:10359000D802002DD0020059C80200B0C00200318C
:1035A000B90200DAB10200AAAA0200A0A30200BC7C
:1035B0009C0200FA9502005C8F0200DF8802008204
:1035C000820200457C020027760200277002004339
:1035D0006A02007C640200D05E02003F590200C80B
:1035E0005302005761726E696E673A20486F6D69C9
:1035F0006E672042756D702044697669736F722022
:103600003C20310A00496E666F2053637265656E17
:10361000004D65736820696E76616C6964617465DC
:10362000642E0A00473239204900496E76616C6980
:103630006461746520436C6F7365737400496E76C2
:10364000616C696461746520416C6C00473239209B
:103650005031204300436F6E74696E75652042657A
:1036600064204D6573680046696C6C2D696E204D51
:10367000657368004275696C6420437573746F6D7F
:10368000204D657368004732380A4D313930205378
:1036900037300A4D31303920533235300A4732390C
:1036A0002050310A4D3130342053300A4D313430FE
:1036B000205330004275696C64204D657368202882
:1036C0005045544729004732380A4D31393020538C
:1036D00036300A4D31303920533230300A473239D2
:1036E0002050310A4D3130342053300A4D313430BE
:1036F000205330004275696C64204D657368202842
:10370000504C4129004D313137204D6573682025DB
:1037100069204C6F6164656400473239204C25692B
:10372000004D313137204D65736820256920536184
:103730007665640047323920532569004C6F616417
:1037400020426564204D657368004D656D6F727928
:1037500020536C6F74004E6F2053746F72616765F5
:1037600000486F6D696E672058595A0047323920FA
:103770005034205825732059257320522569002084
:103780002D2D2D2D2D004732380047323920532D55
:1037900031004F6666205072696E74657220426116
:1037A000636B757000473239205431004F75747067
:1037B000757420666F722043535600473239205487
:1037C00030004F757470757420666F7220486F7387
:1037D00074005072696E742066726F6D204D65645E
:1037E00069610044697361626C6552756E6F7574CE
:1037F00000496E736572742066696C616D656E74E4
:1038000020616E642073656E64204D3130380A008B
:103810004D6F76652025736D6D004D6F7665203098
:103820002E316D6D004D6F766520316D6D004D6FE1
:1038300076652031306D6D004D6F76652041786979
:103840007300486F74656E6420746F6F20636F6CD3
:1038500064004578747275646572004D6F766520FA
:103860005A004D6F76652059004D6F7665205800DF
:10387000486F6D6520257325732573204669727323
:103880007400626567696E0050757267654D6F728E
:103890006500436F6E74696E7565004C6F616420DE
:1038A00046696C616D656E7420540020573A0022A1
:1038B0000A00556E6B6E6F776E20636F6D6D616E73
:1038C000643A20220000002100240027002A002D55
:1038D000003000330001010000040107010A01006B
:1038E000002200250028002B002E003100340002A9
:1038F000010000050108010B010000200023002643
:103900000029002C002F00320000010000030106F6
:103910000109010505050507050808080802020256
:10392000020A0A080804040404010101010101015A
:10393000010303030303030303040707070C0C0C31
:103940000C0C0C0C0C020202020606060606060609
:10395000060B0B0B0B0B0B0B0B01021020200808A6
:1039600010204010204080020102010804020101E1
:1039700002040810204080804020100804020180CA
:103980000402018040201008040201080402010121
:10399000020408102040800102040810204080002A
:1039A000000A0B02090C0D0E0807030401000000B9
:1039B0000000000000000000000000000000000007
:1039C00000000000000000000000001211100000C4
:1039D00000000000000000000000000000000000E7
:1039E00000000000004D65616E204D657368204841
:1039F00065696768743A200023206F662073616DE3
:103A0000706C65733A20000A4D657368206F6E6CA8
:103A100079207061727469616C6C7920706F707557
:103A20006C617465642E0A0A0050726F62696E6779
:103A300020506F696E74000A50726F62696E672061
:103A40006D65736820706F696E74200020616E640C
:103A50002074616B652061206D6561737572656DA1
:103A6000656E742E0A006D6D20746869636B2E0A92
:103A700000427573696E65737320436172642069D7
:103A800073200052656D6F76652026204D65617349
:103A9000757265204265640052656D6F76652073AE
:103AA00068696D00506C616365207368696D20758D
:103AB0006E646572206E6F7A7A6C65004D6573680E
:103AC00020506F696E74204D656173757265642056
:103AD00061743A20000A4D657368206F6E6C79201E
:103AE0007061727469616C6C7920706F70756C6153
:103AF0007465642E0A00506C616365205368696DBB
:103B00002026204D656173757265004D6F76696E74
:103B10006720746F206E657874004D65736820456A
:103B2000646974696E672053746F707065640044D3
:103B30006F6E652045646974696E67204D657368B2
:103B40000A00446F6E652045646974696E67204D94
:103B50006573680046696E652054756E696E6720EE
:103B60004D6573680028582C5929206F7574736946
:103B70006465207072696E7461626C652072616444
:103B80006975732E0A004F6666736574206F7574CD
:103B9000206F6620626F756E64732E20283020744B
:103BA0006F2031306D6D290A0A00496E76616C69AB
:103BB00064206D617020747970652E0A0A003F439D
:103BC000616E277420616374697661746520616E2B
:103BD0006420646561637469766174652061742032
:103BE0007468652073616D652074696D652E0A0ABD
:103BF00000426F7468205820262059206C6F636142
:103C000074696F6E73206D757374206265207370B4
:103C1000656369666965642E0A0A003F496E7661CC
:103C20006C696420677269642073697A6520284A28
:103C300029207370656369666965642028322D39AF
:103C4000292E0A0A003F2850296861736520766191
:103C50006C756520696E76616C69642028302D363C
:103C6000292E0A0A003F2856296572626F73652063
:103C70006C6576656C20696D706C61757369626CDA
:103C8000652028302D34292E0A0A003F2852296544
:103C90007065746974696F6E20636F756E742069E6
:103CA0006E76616C69642028312B292E0A0A004443
:103CB0006F696E67204732390054656D70657261B7
:103CC0007475726500507265686561742050455462
:103CD00047005072656865617420504C4100507215
:103CE0006F6265205A204F6666736574004E6F7A66
:103CF0007A6C65004D61696E00507265686561742B
:103D000020504C4120456E640050726568656174B6
:103D100020504C41204265640050726568656174B2
:103D2000205045544720456E6400507265686561B7
:103D30007420504554472042656400436F6F6C64A3
:103D40006F776E0046616E205370656564203D009C
:103D5000466C6F77004469736D69737300507269C4
:103D60006E742050617573656400506175736520D1
:103D70005072696E74004D656469612052656D6FA3
:103D8000766564004D6564696120496E736572747F
:103D90006564006E6F74696669636174696F6E2033
:103DA000003344205072696E7465722052656164FC
:103DB000792E005072696E74696E672E2E2E006324
:103DC000616E63656C005072696E742041626F723F
:103DD0007465640055492041626F72746564004DDA
:103DE000323520500A4D323400526573756D6500CE
:103DF000554920506175736500726573756D650076
:103E00004D31303920532569004D3139302053254B
:103E100069004D65736820456469746F720042657E
:103E2000642054656D7000486F74656E642054653D
:103E30006D70004732392050362043202D004865F0
:103E40006967687420416D6F756E740041646A75AE
:103E50007374204D6573682048656967687400470E
:103E6000323920503420540046696E652054756EF6
:103E70006520436C6F7365737400473236204320AE
:103E80004225692048256920500056616C696461AB
:103E9000746520437573746F6D204D6573680047BA
:103EA00032380A47323620432042373020483235F4
:103EB0003020500056616C6964617465204D6573F3
:103EC0006820285045544729004732380A4732367F
:103ED0002043204236302048323030205000566196
:103EE0006C6964617465204D6573682028504C418D
:103EF0002900473239204A2569004C6576656C20D7
:103F00004D657368005369646520506F696E747302
:103F10000047726964204D657368204C6576656C56
:103F2000696E6700473239204A3000332D506F697F
:103F30006E74204C6576656C696E67004732392077
:103F40005033205220432E2569004D616E75616CFF
:103F50002046696C6C2D696E0046696C6C2D696E2B
:103F600020416D6F756E74004F75746167652052E6
:103F700065636F76657279004261636B00436861C7
:103F80006E67652046696C616D656E7400436F6E87
:103F900066696775726174696F6E004D31303030DB
:103FA0000053746F70205072696E7400526573759F
:103FB0006D65205072696E740053746F70004D32DD
:103FC00031004368616E6765204D65646961005426
:103FD000756E65004E6F204D6564696100537461B4
:103FE0007274205072696E740043616E6E6F74203B
:103FF000656E746572207375626469723A2000059B
:104000002E2E003A202534642E2564206D6D00503C
:1040100061726B696E672E2E2E0000005761697405
:1040200020666F720066696C616D656E74206368EE
:10403000616E676500746F207374617274005761FC
:10404000697420666F720066696C616D656E7420BC
:10405000756E6C6F616400004E6F7A7A6C652068D3
:10406000656174696E6700506C6561736520776186
:1040700069742E2E2E000050726573732062757461
:10408000746F6E00746F2068656174206E6F7A7A49
:104090006C650000496E736572742066696C616DB1
:1040A000656E7400616E6420707265737320627552
:1040B00074746F6E00746F20636F6E74696E7565D3
:1040C000005761697420666F720066696C616D6586
:1040D0006E74206C6F6164000050726573732042CF
:1040E0007574746F6E00746F20726573756D6520E2
:1040F0007072696E7400005761697420666F722077
:104100007072696E7400746F20726573756D652EC0
:104110002E2E00005761697420666F720066696C0C
:10412000616D656E7420707572676500002053695B
:104130007A653A200043616E6E6F74206F70656E11
:104140002073756264697220005344206361726455
:10415000206F6B0A006F70656E526F6F742066611E
:10416000696C65640A00766F6C756D652E696E69A1
:1041700074206661696C65640A00534420696E6945
:1041800074206661696C0A004D3233202573004645
:10419000696C652073656C65637465640A004669C3
:1041A0006C65206F70656E65643A2000454E442052
:1041B000535542524F5554494E450A002220706FC4
:1041C00073002220706172656E743A22005355426A
:1041D000524F5554494E452043414C4C2074617216
:1041E0006765743A2200747279696E6720746F2073
:1041F00063616C6C207375622D67636F6465206604
:10420000696C6573207769746820746F6F206D61C5
:104210006E79206C6576656C732E204D4158206C4C
:104220006576656C2069733A310A00577269746962
:104230006E6720746F2066696C653A200044656C77
:104240006574696F6E206661696C65642C204669CF
:104250006C653A200046696C652064656C65746520
:10426000643A00667265736800646F696E67004E39
:104270006F772000204A00205200454550524F4D94
:1042800020496E697469616C697A65640A004D65DC
:10429000736820736176656420696E20736C6F7437
:1042A00020003F556E61626C6520746F20736176EB
:1042B00065206D65736820646174612E0A00207347
:1042C0006C6F743D00206D65736865735F656E6427
:1042D0003D004532454E443D00206D6573682073B6
:1042E0006C6F747320617661696C61626C652E0A13
:1042F000003F496E76616C696420736C6F742E0A9E
:10430000004D657368206C6F616465642066726F30
:104310006D20736C6F7420003F556E61626C652078
:10432000746F206C6F6164206D65736820646174C4
:10433000612E0A0048617264636F6465642044659D
:104340006661756C742053657474696E6773204C74
:104350006F616465640A00556E6966696564204230
:104360006564204C6576656C696E670020204D366B
:104370003033200020204D34313220530046696C08
:10438000616D656E742072756E6F75742073656EE5
:10439000736F723A0A0020550046696C616D656E54
:1043A00074206C6F61642F756E6C6F6164206C6536
:1043B0006E677468733A0A0020204D393030204B04
:1043C000004C696E65617220416476616E63653A86
:1043D0000A0020204D3835312058005A2D50726F78
:1043E0006265204F66667365740020204D3431335A
:1043F000205300506F7765722D4C6F737320526598
:10440000636F766572793A0A0020204D333034208C
:104410005000204C0020204D3330312050005049B6
:10442000442073657474696E67733A0A002046000D
:1044300020480020204D3134352053004D617465F3
:104440007269616C20686561747570207061726159
:104450006D65746572733A0A00206D6573686573E3
:104460002E0A0A00454550524F4D2063616E206868
:104470006F6C6420000A416374697665204D657332
:104480006820536C6F743A200020204D3432302065
:10449000530020204D323035204200204A3C6A75BE
:1044A0006E635F6465763E00416476616E63656449
:1044B0003A20423C6D696E5F7365676D656E745F2F
:1044C00074696D655F75733E20533C6D696E5F6600
:1044D000656564726174653E20543C6D696E5F74FD
:1044E000726176656C5F66656564726174653E00D5
:1044F00020204D323034205000416363656C65727A
:104500006174696F6E2028756E6974732F73322918
:104510003A20503C7072696E745F616363656C3EF3
:1045200020523C726574726163745F616363656C91
:104530003E20543C74726176656C5F616363656CA8
:104540003E0A0020204D32303120540020204D32D0
:1045500030312058004D6178696D756D204163637D
:10456000656C65726174696F6E2028756E6974730D
:104570002F7332293A0A0020204D32303320540064
:1045800020204D3230332058004D6178696D756DB3
:10459000206665656472617465732028756E697440
:1045A000732F73293A0A0053746570732070657213
:1045B00020756E69743A0A0020204D313439204349
:1045C000203B20556E69747320696E2043656C73BF
:1045D0006975730A0020286D6D290020204732314B
:1045E000202020203B20556E69747320696E206D59
:1045F0006D00486F6D696E67204661696C65640087
:104600006F70656E005452494747455245440066F5
:10461000696C616D656E74007A5F6D696E00795FBB
:104620006D696E00785F6D696E005265706F7274AF
:10463000696E6720656E6473746F70207374617443
:1046400075730A0020436F756E7420583A00204538
:104650003A0000009643000096430000A04000008E
:10466000F0410000A0420000A0420000C84300004A
:10467000D7430000D743B80B0000B80B000064001C
:10468000000088130000453100626564002C20732F
:10469000797374656D2073746F7070656421204840
:1046A00065617465725F49443A20004865617469C8
:1046B0006E67204661696C65640048656174696E67
:1046C00067206661696C656400202D20496E766103
:1046D0006C6964206578747275646572206E756D9E
:1046E00062657220210A004572723A204D41585489
:1046F000454D50004D415854454D502074726967E6
:104700006765726564004572723A204D494E5445A2
:104710004D50004D494E54454D50207472696767A5
:1047200065726564004D383420450070012C01909D
:10473000012701B0012201C0011D01F00118011083
:1047400002130130020E016002090190020401C04F
:1047500002FF000003FA004003F5008003F000D0E0
:1047600003EB002004E6007004E100E004DC0040FC
:1047700005D700C005D2004006CD00D006C8008095
:1047800007C3003008BE00F008B900C009B400B08B
:104790000AAF00B00BAA00D00CA500000EA000507C
:1047A0000F9B00C01096005012910000148C00C0A6
:1047B000158700B0178200B0197D00D01B7800006B
:1047C0001E730040206E0090226900F024640040B7
:1047D000275F0090295A00E02B5500102E50002032
:1047E000304B0010324600E033410090353C001061
:1047F00037370070383200A0392D00B03A2800A0B9
:104800003B2300603C1E00103D1900903D14001039
:104810003E0F00703E0A00C03E0500003F00004011
:104820003FFBFF803FF6FFC03FF1FF206C696D69E1
:1048300074656420746F2000204D61782000FFFDB6
:10484000FCFAF8F6F4F2F0EEECEAE9E7E5E3E1E091
:10485000DEDCDAD9D7D5D4D2D0CFCDCBCAC8C7C544
:10486000C3C2C0BFBDBCBAB9B7B6B4B3B2B0AFADC6
:10487000ACAAA9A8A6A5A4A2A1A09E9D9C9A99981D
:104880009795949392908F8E8D8B8A898887868452
:10489000838281807F7E7D7B7A7978777675747369
:1048A0007271706F6E6D6C6B6A6968676665646360
:1048B0006261605F5E5D5C5B5A595858575655544B
:1048C00053525150504F4E4D4C4B4A4A494847461F
:1048D00046454443424241403F3E3E3D3C3B3B3ADD
:1048E00039383837363535343332323130302F2E8F
:1048F0002E2D2C2B2B2A2929282727262525242332
:104900002322212120201F1E1E1D1C1C1B1B1A19C7
:104910001918181716161515141313121211111051
:104920000F0F0E0E0D0D0C0C0B0A0A0909080807D3
:1049300007060605050404030302020100006F7068
:10494000656E206661696C65642C2046696C653A09
:104950002000544845524D414C2052554E4157413C
:104960005900546865726D616C2052756E61776193
:104970007900706F7765726F666600506C65617361
:1049800065205265736574005052494E544552205B
:1049900048414C5445440025533A202553004B4987
:1049A0004C4C45442E20005072696E74657220682C
:1049B000616C7465642E206B696C6C2829206361BE
:1049C0006C6C6564210A00003402600211241FBE71
:1049D000CFEFD1E2DEBFCDBF00E00CBF13E0A0E01F
:1049E000B2E0E2E2F6E303E00BBF02C007900D92F3
:1049F000A83AB107D9F72AE1A8EAB3E001C01D92AD
:104A0000A933B207E1F714E2C5EED4E200E006C034
:104A100021970109802FFE010F948C96C43ED10787
:104A200080E00807A9F70F947B800D94FF9A0C94FF
:104A300000002F923F924F925F926F927F928F92DF
:104A40009F92AF92BF92CF92DF92EF92FF920F931D
:104A50001F93CF93DF93CDB7DEB7C155D1090FB602
:104A6000F894DEBF0FBECDBF61968FAF61972091E6
:104A7000DF132E962FAF2E9721E02093DF13809126
:104A80000C058D3409F43EC6843511F40C948E3730
:104A9000873411F00C94B23780910A0590910B0580
:104AA0008C31910509F41BC4ACF48430910509F4F0
:104AB000CEC01CF4029758F121C68531910511F43E
:104AC0000C94B4378B31910509F4EFC30C9709F0BE
:104AD00015C6FCC08A32910509F45EC544F48D31D7
:104AE000910509F40CC44E9709F40DC407C68B3523
:104AF000910509F4CBC48C35910509F4CCC48A35F1
:104B0000910509F0FBC510921B160C94B4378091E7
:104B10005302882311F40C94B43716E4A12E13E049
:104B2000B12E05E4C02E03E1D02E8EE6E82E82E001
:104B3000F82E10E0D5018D915D010E94EB4788238E
:104B4000D9F00E9469472B013C01812F0E945196A8
:104B5000882359F0F7012081318142815381C301BB
:104B6000B2010F9495962B013C01D6014D925D92B6
:104B70006D927C9213970AC0F70180819181A28186
:104B8000B381F60180839183A283B3831F5FF4E036
:104B9000CF0ED11C24E0E20EF11C133059F685E44F
:104BA0000E94EB47882301F10E9469476B017C0159
:104BB00083E00E945196882371F020917A0230910F
:104BC0007B0240917C0250917D02C701B6010F9497
:104BD00095966B017C01C0925113D0925213E092D2
:104BE0005313F092541310C080917A0290917B027B
:104BF000A0917C02B0917D02809351139093521347
:104C0000A0935313B093541340E050E0BA0186E4EC
:104C10000E94D38020E030E0A9010F945C98181620
:104C200084F40E94694720E030E040E752E40F94AA
:104C30001D9760936A0270936B0280936C0290934D
:104C40006D020E9466980F94E40D0C94B43780E5D1
:104C50000E94EB47882329F00E9442996B017C0156
:104C600003C0C12CD12C760183E50E94EB47882339
:104C700061F00E94694720E030E04AE754E40F9475
:104C800005900F9496976B017C010F945179809158
:104C90000017811105C060E080E797E00F94CD48D0
:104CA0000E943CF1C60ED71EE81EF91E0E943CF180
:104CB000DC01CB018C199D09AE09BF09B7FD02C00B
:104CC0000C94B43780E00E94DC3FF0CF0F942A248C
:104CD00081110C94B43760E070E080E50E94D598B3
:104CE000D82E65E070E083E50E94D5987C01382ECF
:104CF00065E070E084E50E94D598282E40E050E001
:104D000060ED70E482E50E94D3804B015C018091EC
:104D10000F0587FF02C00C94C13780911005837086
:104D200011F00C94C13711E002E0012B10911C1618
:104D3000812F0E94624D8CE0FE01B896DF01282F82
:104D40001D922A95E9F7DE015C96FD01282F11924C
:104D50002A95E9F740E050E060E271EC4C8F5D8FFE
:104D60006E8F7F8F32E0D31215C0011105C089E725
:104D700097E00E94E63D94C29E012F5F3F4FF901EC
:104D800011928A95E9F78CE0F90101900D928A95CC
:104D9000E1F724C000FD10C080916E0290916F0277
:104DA000A0917002B09171028C8F9D8FAE8FBF8FDA
:104DB00088A799A7AAA7BBA701FD10C0809172027E
:104DC00090917302A0917402B091750288A399A387
:104DD000AAA3BBA38CA79DA7AEA7BFA7809176026D
:104DE00090917702A0917802B09179028CA39DA353
:104DF000AEA3BFA388AB99ABAAABBBABF1E0DF1608
:104E000029F022E0D21609F45EC1F1C128A539A526
:104E10004AA55BA56C8D7D8D8E8D9F8D0F9494968C
:104E20004B015C0120E030E0A9010F949F8F8823A3
:104E300009F436C22CA53DA54EA55FA568A179A1B0
:104E40008AA19BA10F9494966B017C0120E030E035
:104E5000A9010F949F8F882309F422C28CE0EEE60B
:104E6000F2E0DE01119601900D928A95E1F71CAEF9
:104E70001DAE1EAE1FAE88E0FE01B896DE01D496D0
:104E800001900D928A95E1F7BE01645C7F4FCE01DF
:104E9000C4960F94000C220C20E030E0A901C5015B
:104EA000B4010F945C982401350187FF04C077FAA0
:104EB000709477F8709420E030E0A901C701B60142
:104EC0000F945C9887FF0AC0D701C601B058289696
:104ED0008CAF9DAFAEAFBFAF289706C02896CCAEC3
:104EE000DDAEEEAEFFAE2897A301920128966CAD21
:104EF0007DAD8EAD9FAD28970F949F8F181614F03F
:104F000075016401A22DB0E02A96BFAFAEAF2A971B
:104F1000BD01BB0F880B990B0F94A68F9B01AC01B1
:104F2000C701B6010F941D974B015C01D12CD3141E
:104F300008F055C100E0802F002E000C990B2A9636
:104F4000EEADFFAD2A978E179F070CF05CC000FFF7
:104F500005C09E01245E3F4F790103C0CE018896B3
:104F60007C01A301920128966CAD7DAD8EAD9FAD05
:104F700028970F949F8F402F002E000C550B660B27
:104F8000770B1CAA1DAA1EAA1FAA1816ECF0CB01AB
:104F9000BA010F94A68FA50194010F9405909B016F
:104FA000AC0168A579A58AA59BA50F9495966CAFD1
:104FB0007DAF8EAF9FAFB7016C5F7F4FAE014C5C92
:104FC0005F4FCE01CC961BC0CB01BA010F94A68FC8
:104FD000A50194010F9405909B01AC016CA57DA5E2
:104FE0008EA59FA50F9495966CAF7DAF8EAF9FAFAA
:104FF000AE014C5C5F4FBE01645C7F4FC7010F94F4
:10500000DE0B0F5F98CF022D07FD5BC000FF04C0D1
:10501000DE015C967D0103C0FE01B8967F01A3010D
:10502000920128966CAD7DAD8EAD9FAD28970F9403
:105030009F8F402F002E000C550B660B770B1CAA80
:105040001DAA1EAA1FAA1816ECF0CB01BA010F94D4
:10505000A68FA50194010F9405909B01AC0168A552
:1050600079A58AA59BA50F9495966CAF7DAF8EAF61
:105070009FAFB7016C5F7F4FAE014C5C5F4FCE01BD
:10508000CC961BC0CB01BA010F94A68FA501940149
:105090000F9405909B01AC016CA57DA58EA59FA5E5
:1050A0000F9495966CAF7DAF8EAF9FAFAE014C5C09
:1050B0005F4FBE01645C7F4FC7010F94DE0B015050
:1050C000A3CFD39434CF332009F4EAC08CE0EEE6CA
:1050D000F2E0DE01119601900D928A95E1F71CAE87
:1050E0001DAE1EAE1FAE88E0FE01B896DE01D4965E
:1050F00001900D928A95E1F7BE01645C7F4FCE016D
:10510000C4960F94000C00E0E12CF12C24961CAE08
:105110001DAE1EAE1FAE2497B7010F2C000C880BDE
:10512000990B0F94A68F2CE739ED40E25FE30F94C3
:1051300005902B013C010F9418979B01AC01C50110
:10514000B4010F9405909B01AC0168A179A18AA1DB
:105150009BA10F9495966CAF7DAF8EAF9FAFC301AF
:10516000B2010F94E4989B01AC01C501B4010F9406
:1051700005909B01AC016C8D7D8D8E8D9F8D0F9464
:1051800095966CAB7DAB8EAB9FABAE01405C5F4F39
:10519000BE01645C7F4FCE01C4960F94DE0BFFEF1F
:1051A000EF1AFF0A2AE0E216F10409F0AFCF0F5F11
:1051B000031508F4A9CF1CAE1DAE1EAE1FAE88E0CD
:1051C000FE01B896DE01D49601900D928A95E1F722
:1051D000BE01645C7F4FCE01C4960F94000C1CAAE4
:1051E0001DAA1EAA1FAABE016C5C7F4F55C08CE091
:1051F000EEE6F2E0DE01119601900D928A95E1F75C
:105200001CAE1DAE1EAE1FAE88E0FE01B896DE01DC
:10521000D49601900D928A95E1F76E0134E3C30EA6
:10522000D11CBE01645C7F4FC6010F94000CFF24AB
:10523000F594E79400E05601802F90E08E159F05CD
:1052400034F51CAE1DAE1EAE1FAE88E0FE017C968E
:10525000D50101900D928A95E1F7BE01645C7F4F04
:10526000C6010F94000C1CAE1DAE1EAE1FAE88E032
:10527000FE01B896D60101900D928A95E1F7BE0124
:10528000645C7F4FC6010F94000C0F5FD5CF1CAA42
:105290001DAA1EAA1FAAB601CE0101960F94060CE4
:1052A000812F0E94624D0C94B4370F942A248111EF
:1052B0000C94B4378CE0E2E8F2E0DE011196019044
:1052C0000D928A95E1F760E070E080E50E94D59844
:1052D000BE016F5F7F4F0F940F420C94B4378091E3
:1052E00044138770873011F00C94D03760E08FE45E
:1052F0000E94E05881110C94B4370C94D0370E946E
:1053000012510C94B43720910B1630910C16409129
:105310000D1650910E1660916E0270916F02809181
:105320007002909171020F949596AB01BC0188E5D3
:105330000E94D38069837A838B839C8320910F168C
:105340003091101640911116509112166091720210
:105350007091730280917402909175020F949596EA
:10536000AB01BC0189E50E94D3806D837E838F836E
:105370009887BE016B5F7F4FCE0101960E94474A1E
:10538000882311F40C94B43780E00E94624D0F948E
:10539000B10A61E085E40E94E058182F21E041E065
:1053A000682FCE0101960E94BF4B6B017C019B01CF
:1053B000AC010F943D9981115FC089809A80AB80C8
:1053C000BC8020E030E0A901C501B4010F949F8F9B
:1053D00087FF05C027E137EB41E558EB04C027E123
:1053E00037EB41E558E3C501B4010F949596AB0145
:1053F000BC0187EE97E00E949F3F8D809E80AF802A
:10540000B88420E030E0A901C501B4010F949F8F5A
:1054100087FF05C027E137EB41E558EB04C027E1E2
:1054200037EB41E558E3C501B4010F949596AB0104
:10543000BC0182EE97E00E949F3F20E030E0A9018E
:10544000C701B6010F949F8F87FF05C027E137EB97
:1054500041E558EB04C027E137EB41E558E3C701CC
:10546000B6010F949596AB01BC018DED97E00E94BB
:105470009F3F8AE00E94DF3D0F94980A113011F49B
:105480000F9433760F94B1670C94B4378FE0809308
:105490001B160C94B43780910905882351F189308B
:1054A00009F076C0E6E4AE2EE3E0BE2EFEE6CF2E97
:1054B000F2E0DF2E00E010E0F12CD5018D915D01CE
:1054C0000E94EB47882369F00E946947F6016083D8
:1054D000718382839383F3E0FF1202C011E001C065
:1054E00001E0F39424E0C20ED11C34E0F312E5CFC6
:1054F00044C066E4C62E63E0D62E7EE6E72E72E058
:10550000F72E00E010E0312CD6018D916D010E9444
:10551000EB47882359F10E9469474B015C01F70171
:1055200020813181428153810F9494962B013C015B
:105530002DEB37E346E855EB0F945C9887FD0AC0E6
:105540002DEB37E346E855E3C301B2010F949F8F7B
:10555000181664F4F3E03F1202C011E001C001E04C
:10556000D7018D929D92AD92BC9213973394B4E083
:10557000EB0EF11CE4E03E12C7CF002319F00F94AC
:10558000B20C06C0112321F08AE792E00F946279F1
:105590000F94B1670C94B43780915302882311F4AF
:1055A0000C94B43789E40E94EB47082F882321F03C
:1055B0000E946547E82E01C0E12C8AE40E94EB4777
:1055C000182F882321F00E946547F82E01C0F12C86
:1055D000002319F0F4E0FE1528F0112349F024E02F
:1055E0002F1530F48FEE97E00E94E63D0C94B4370F
:1055F00080E1EEE6F2E0A5E4B3E101900D928A9538
:10560000E1F7002359F08E2D0E941E486093451348
:10561000709346138093471390934813112359F0C6
:105620008F2D0E941E486093491370934A138093F4
:105630004B1390934C1360E080E50E94E058882360
:10564000C1F10023D1F020910B1630910C1640913E
:105650000D1650910E16609145137091461380916E
:105660004713909148130F94949660934513709349
:10567000461380934713909348131123D1F0209140
:105680000F1630911016409111165091121660911C
:10569000491370914A1380914B1390914C130F94BE
:1056A00094966093491370934A1380934B1390938D
:1056B0004C1340E050E0BA0186E40E94D3806B01B5
:1056C0007C0120E030E0A9010F945C9818164CF49E
:1056D00020E030E040E752E4C701B6010F941D9787
:1056E00003C060E070E0CB0169837A838B839C8385
:1056F000CE0101960F946E170C94B4370F9442218B
:105700000C94B43780910A0590910B058D37910563
:1057100009F4AAC50CF012C18D34910509F49AC49C
:105720000CF07CC08A31910509F407C3B4F58431CB
:10573000910509F453C294F48131910509F43AC2F8
:1057400044F4029710F00C948B370E94F48C0C9464
:10575000B437429709F4A8C50C948B37873191056B
:1057600009F461C28CF48531910509F458C2469759
:1057700011F00C948B370F94735E80916818877FBB
:10578000809368180C94B4378831910509F462C28B
:10579000499709F4C7C20C948B378032910509F4FC
:1057A00044C3F4F48D31910509F428C384F48B319A
:1057B000910509F4D0C24C9711F00C948B3780916D
:1057C0000705909108050F940C620C94B4378E3144
:1057D000910509F41AC34F9709F45EC30C948B37F3
:1057E0008934910509F422C464F48A32910509F4DC
:1057F000FDC3C09711F00C948B370E947E600C940F
:10580000B4378B34910509F422C48C34910511F01E
:105810000C948B370E942AC30C94B4378D369105B3
:1058200009F436C40CF03FC08C35910509F458C515
:1058300004F58335910509F430C58CF48135910563
:1058400009F415C58235910511F00C948B378091C0
:105850001B168F7D806180931B160C94B4378435A2
:10586000910509F421C58535910509F420C50C94ED
:105870008B378A36910509F433C454F48836910580
:1058800009F4EBC38936910509F414C40C948B37E1
:105890008B36910509F446C48C36910511F40C94AD
:1058A000B4370C948B378337910509F4C1C5FCF4E8
:1058B0008037910511F40C94B43754F48E36910569
:1058C00009F43DC48F36910509F44AC40C948B3712
:1058D0008137910509F489C48237910511F00C9440
:1058E0008B370F9451790F94B1670C94B437873785
:1058F000910509F4E5C58CF48537910509F49DC53A
:105900008637910511F00C948B37009107051091A3
:10591000080594E0F12C40E0B7C58837910509F4FB
:10592000D2C58937910511F00C948B371092F70589
:105930001092F6050F942C650C94B437803931E041
:10594000930711F40C94A3350CF084C0833D9105AA
:1059500009F4E9C6ECF5863A910509F450C6E4F479
:10596000833A910509F410C654F48C38910509F472
:105970005EC48139910509F4AEC50C948B37843A25
:10598000910509F429C6853A910511F00C948B37DD
:105990000E9466980C94B4378B3C910509F47DC63F
:1059A00054F48E3B910509F45CC4893C910509F4DB
:1059B00029C60C948B378C3C910509F4B1C68D3CFB
:1059C000910511F00C948B370E9452990C94B437C6
:1059D0008C32B1E09B0709F4E4C7ECF4823E9105F8
:1059E00009F4FCC654F48C3D910509F49FC68D3D25
:1059F000910509F4A8C60C948B378831F1E09F0714
:105A000009F438C78232914011F00C948B370E9410
:105A1000538C0C94B4378F3231E0930711F40C940B
:105A2000A03564F48D32B1E09B0709F4CFC78E3204
:105A3000914011F40C945C350C948B378033F1E079
:105A40009F0709F4C6C78336914011F40C9432378E
:105A50000C948B37883F31E0930711F40C945F3638
:105A60000CF05AC0843AB1E09B0711F40C94C03595
:105A700044F58A39F1E09F0711F40C94B437A4F48B
:105A8000813931E0930711F40C94A63582399140A5
:105A900011F00C948B3780E00F947B760F94337663
:105AA0000F94B1670C94B4378C39B1E09B0711F4B3
:105AB0000C94AC358D39914011F40C9474370C94DE
:105AC0008B37853FF1E09F0711F40C9459367CF435
:105AD000853A31E0930711F40C94C335843F91402B
