:100000000C9456250C9487250C9487250C948725F1
:100010000C9487250C9487250C9487250C948725B0
:100020000C9487250C9487250C9487250C948725A0
:100030000C9487250C94D6E50C9487250C94872581
:100040000C9487250D946F040C9487250C948725B8
:100050000C9487250C9487250D9460640D944B1B9C
:100060000C9487250C940C4F0C94024F0C9487250C
:100070000C9487250C9487250C9487250C94872550
:100080000C9487250C9487250C9487250C94872540
:100090000C9487250C9487250C9487250C94872530
:1000A0000C9487250C9487250C9487250C94872520
:1000B0000C9487250C9487250C9487250C94872510
:1000C0000C9487250C9487250C9487250C94872500
:1000D0000C9487250C9487250C9487250C948725F0
:1000E0000C948725424F484F5A4F6A4F724FA24F88
:1000F000764FA24F7A4F7E4FA24F824F864F8A4F44
:10010000934FA24F9E4FF701950191025B022B0284
:1001100067015701D702BD02E102A3011B0177026B
:10012000A701DD027302D701C3012902BB018702C7
:100130006B0145011B02B5011F01C301A702930119
:10014000D902D90197023D017102E901F5016D0261
:10015000F901FD013F02CB0133020F018D01F501D1
:100160008F029D01B50205A84CCDB2D44EB93836E8
:10017000A9020C50B9918688083CA6AAAA2ABE00FA
:100180000000803F07634236B79BD8A71A396856EC
:1001900018AEBAAB558C1D3CB7CC5763BD6DEDFDA9
:1001A000753EF6177231BF000000803F0800000066
:1001B000BE922449123EABAAAA2ABECDCCCC4C3E5C
:1001C00000000080BEABAAAAAA3E00000000BF004B
:1001D0000000803F0000000000084178D3BB438747
:1001E000D1133D190E3CC3BD4282AD2B3E68EC825B
:1001F00076BED98FE1A93E4C80EFFFBE01C4FF7FE0
:100200003F00000000000D9467450C94424F0C9491
:10021000653B0C946F590C949A440C94973A0D9446
:10022000CA1A0C94764F0C948D730C9469760D94C5
:10023000A52D0C94013C0D945B110C94D4400D94AD
:10024000BD190D9473510D9459450C94D33A0D94E6
:10025000DD440C94583B0D9419460C94D3530C94E4
:10026000B6710C9435610C9476440D94EF420C9465
:1002700070440C9499930D94E6430D946F1A0C946A
:10028000B03B0C94484F0C9488440D94AF190C94D7
:100290005A4F0C944B9A0C9494440D9421460D940F
:1002A00011640C9465730C94C0D50C94693C0D9446
:1002B00052110C9471960C948A4F0D94FC440C943A
:1002C000A2590D94B0420C94163C0C94864F0D9498
:1002D0004F110D9425460D94AB190C947E4F0C9440
:1002E0004E710C94303B0C94FFE40D94AB500C9485
:1002F000003B0C94B6740D94B02F0C9477590C9469
:100300008A530C94143B0C947C440D94E1470C9458
:10031000723B0C94CD3B0D9435460D94D41A0C943D
:100320006A4F0D94AB1B0D94C7190D9443110C9497
:1003300033710D947E840D94861F0D94E81A0C94ED
:100340001FE50C9426810D9458110C94083C0D94D3
:1003500099190C9460730C94443B0C949E4F0C942C
:1003600069F50C9418560C94F8D30D94B9190D94A2
:1003700093300C94D0D20D94A1190C94385B0C944A
:100380006D7D0C94C85B0D94D0190C9472400D9443
:100390003D460C9482440D94B11A0C945E9A0C94D0
:1003A0002B450D94632F0C9475590C94D63A0D94EB
:1003B00092190D94651A0C94EA3B0C946E770C9488
:1003C00056730C94E9D20C94D5E40C94A3400D948C
:1003D000D7320D94831A0C947A4F0D94862E0C9478
:1003E00068710C9474710D9429460D94FC1A0D9447
:1003F00063110D94951A0C94CB7A0D949D1A0C945C
:1004000072590C9437E50C94EC3A0C94FFD20C948E
:10041000627C0C94A03D0C94C27B0D94D1500D9441
:1004200031460C945B730C94549A0C940CE50D9427
:1004300061450C94B67A0D94B5190C94EFD20C94D6
:100440003F710C94D03A0C94824F0C9453E50D9468
:1004500060840D949D190D944C110C94C15B0C9407
:10046000217C0C94A6590D94BB1A0C94933B0C94CC
:10047000803B0C94DAD20C94F3ED0C94DFD20D9403
:10048000A71A0C94C8530C94B9520D949F2C0C9439
:100490007A710C94D5D20C94F2530C9478940C94F9
:1004A00093730C94A24F0C94A0440C9484730C94FA
:1004B000E4D20C94FED30D9446110C94724F0C941C
:1004C0000F3C0C94FA530C9422820C94CE5B0C9447
:1004D0006E710C94A9530C946A500D948D1A0D945E
:1004E000D2300D94791A0D948C190C948E440D947D
:1004F00096190C94DFD40C94B9D70D942D460C9416
:10050000813D0C9444710C94CA5B0C94A6540D94D8
:10051000A7190C94C5700C94B57A0C94BF5B0D941C
:10052000DE1A0D9449110D941D460D949D330D94C2
:100530006A1A0D94C0540C94A4590C9438560C9417
:10054000223B0C94B2D20D9450450C94CA740D9475
:10055000C3190C94CBD20C94CD3D0C94AED20C9418
:10056000ECD20C9485E60C9475500D94F21A0D940F
:1005700039460C94934F0C94653C0D9455110C9492
:10058000D4F30C94CC5B0C94A8590D94552E0D9477
:10059000922C0C9449710C9487540C942D710C94EA
:1005A000A6440D9415460C94E07B0C940DE50D9437
:1005B0005E110D94CB190C94509A0D9488190D94DA
:1005C000D7310D9470110C94F4780C9423E50C94AD
:1005D0002F5F0C946A440C9446530C9410520C9464
:1005E000599A4E414E494E495459494E46CDCCCC6C
:1005F0003D0AD7233C17B7D13877CC2B329595E6F7
:10060000241FB14F0A000020410000C84200401CD6
:100610004620BCBE4CCA1B0E5AAEC59D7400407A23
:1006200010F35A00A0724E18090010A5D4E800007B
:10063000E87648170000E40B54020000CA9A3B0019
:100640000000E1F505000080969800000040420F90
:10065000000000A08601000000102700000000E854
:1006600003000000006400000000000A0000000019
:10067000000100000000002C76D888DC674F0823BA
:10068000DFC1DFAE59E1B1B796E5E3E453C63AE620
:1006900051997696E8E6C28426EB898C9B62ED4000
:1006A0007C6FFCEFBC9C9F40F2BAA56FA5F490054F
:1006B0005A2AF75C936B6CF9676DC11BFCE0E40D83
:1006C00047FEF520E6B500D0ED902E030094357777
:1006D000050080841E080000204E0A000000C80C9F
:1006E000333333330F986E12831141EF8D21148908
:1006F0003BE65516CFFEE6DB18D1844B381BF77C62
:100700001D901DA4BBE424203284725E228100C9A6
:10071000F124ECA1E53D27434F4D4D554E49434152
:1007200054494F4E0044525952554E004552524F73
:100730005253004543484F0020643A0020693A0074
:1007400020703A00496E76616C6964206578747235
:10075000756465720A00536C6565702E2E2E005705
:1007600061726E696E67203A20436C65616E20434A
:100770006972636C65207265717569726573205862
:10078000590A004D65736820706F696E742063614B
:100790006E6E6F74206265207265736F6C7665642F
:1007A0000A004E6F204D6F76652E00456E64206600
:1007B000696C65206C6973740A00426567696E2014
:1007C00066696C65206C6973740A00526573756D97
:1007D000696E6720534400286E6F2066696C652936
:1007E0000043757272656E742066696C653A20000C
:1007F00025697920256964202569682025696D208F
:10080000256973005072696E742074696D653A20B1
:1008100000452025530044454255473A004D3131AB
:10082000332053003344205072696E746572204F38
:1008300046462E004348414D4245525F54454D5077
:1008400045524154555245004D4F54494F4E5F4D0E
:100850004F44455300544845524D414C5F50524F10
:1008600054454354494F4E004155544F5245504F03
:1008700052545F53445F5354415455530050524FA8
:100880004D50545F535550504F525400454D4552B2
:1008900047454E43595F50415253455200434153DF
:1008A000455F4C494748545F4252494748544E457A
:1008B000535300544F47474C455F4C4947485453A6
:1008C00000534F4654574152455F504F57455200D1
:1008D0004255494C445F50455243454E54004C45A7
:1008E00056454C494E475F44415441005A5F50526F
:1008F0004F4245004155544F4C4556454C005052CF
:10090000494E545F4A4F420050524F47524553534D
:10091000004155544F5245504F52545F54454D502D
:1009200000564F4C554D45545249430042494E41A3
:1009300052595F46494C455F5452414E53464552C9
:100940000053455249414C5F584F4E5F584F464601
:10095000004649524D574152455F4E414D453A4D33
:1009600061726C696E204275696C64203435372081
:10097000284769744875622920534F555243455F93
:10098000434F44455F55524C3A68747470733A2F24
:100990002F6769746875622E636F6D2F5665727468
:1009A00061627265616B2F4D61726C696E2050528D
:1009B0004F544F434F4C5F56455253494F4E3A3177
:1009C0002E30204D414348494E455F545950453AD9
:1009D0003344205072696E746572204558545255E4
:1009E0004445525F434F554E543A31205555494482
:1009F0003A38333666613934332D313333372D315C
:100A00003333372D313333372D3938613230646524
:100A100037353630370A002F2F20004D313435203E
:100A2000533C696E6465783E206F7574206F662054
:100A300072616E67652028302D31290A0020466CCE
:100A40006F773A200050726F74656374656420504C
:100A5000696E0A006469730043290A0061626C656B
:100A60006420286D696E2074656D702000436F6C82
:100A70006420657874727564657320617265200006
:100A800046696C616D656E742072756E6F75742049
:100A900000454550524F4D204F4B0A003F284229F8
:100AA000617564207261746520696D706C61757325
:100AB00069626C652E0A002053657269616C203092
:100AC000206261756420726174652073657420749E
:100AD0006F20003F4B2076616C7565206F75742028
:100AE0006F662072616E67652028302D3130292EA7
:100AF0000A00416476616E6365204B3D004361737B
:100B000065206C696768743A200043617365206CE6
:100B1000696768743A206F66660A00506F7765727D
:100B20002D6C6F7373207265636F76657279200028
:100B30003307930C2C07250717070010101010100F
:100B400010000014141414141400001515151515B4
:100B50001500001C1F11111F0000000619180313B7
:100B60000C00040E1F041C000000000E1315110ED3
:100B700000001C10181705060500040A0A0A0A11CD
:100B8000110E0C12120C00000000001F1511151F91
:100B9000000000000000010204040000001C1C0C06
:100BA000040404020100000000000408100000001A
:100BB00000007C4D61726C696E7C002D2D2D2D2DF9
:100BC0002D004C6F6164206D6D00556E6C6F61641B
:100BD000206D6D00416476616E6365204B00206D71
:100BE00061783A00206D696E3A004178697320009F
:100BF0005072696E7465722073746F7070656420D2
:100C000064756520746F206572726F72732E204652
:100C1000697820746865206572726F7220616E64F5
:100C200020757365204D39393920746F20726573D2
:100C3000746172742E202854656D706572617475CC
:100C400072652069732072657365742E2053657414
:100C500020697420616674657220726573746172B4
:100C600074696E67290A004D3837362052657370F3
:100C70006F6E64696E672050524F4D50545F00553F
:100C80004E4B4E4F574E2053544154450047434F0F
:100C900044455F494E464F004C43445F50415553D5
:100CA000455F524553554D450046494C414D454ED3
:100CB000545F52554E4F55545F434F4E54494E5515
:100CC000450046494C414D454E545F52554E4F5597
:100CD00054005075726765204D6F726500457272E1
:100CE0006F722077726974696E6720746F20454552
:100CF00050524F4D210A00627573793A2070617528
:100D000073656420666F7220696E7075740A006284
:100D10007573793A2070617573656420666F72200F
:100D2000757365720A00627573793A2070726F6329
:100D3000657373696E670A007061757365004D367F
:100D40003030002066696C616D656E745F72756E1F
:100D50006F7574200066696C616D656E745F727585
:100D60006E6F757420540046696C616D656E7452C7
:100D7000756E6F757420540053544F505045442E77
:100D800020004E6F20436865636B73756D20776933
:100D90007468206C696E65206E756D6265722C20BA
:100DA0004C617374204C696E653A2000636865631A
:100DB0006B73756D206D69736D617463682C204C65
:100DC000617374204C696E653A20004C696E652031
:100DD0004E756D626572206973206E6F74204C6170
:100DE0007374204C696E65204E756D6265722B318F
:100DF0002C204C617374204C696E653A20004D3193
:100E00003130004D313137004D33310053442072C1
:100E1000656164206572726F720A00446F6E6520AE
:100E20007072696E74696E672066696C650A00216C
:100E300021204B494C4C20636175736564206279B5
:100E400020746F6F206D75636820696E61637469CB
:100E500076652074696D65202D2063757272656EEC
:100E60007420636F6D6D616E643A2000252723182E
:100E70001F211D1C19171B1E2E2C0C312F302B2D42
:100E80002904400AFF410409080700014164766112
:100E90006E6365642053657474696E677300496E90
:100EA000697400496E697469616C697A65204545A9
:100EB00050524F4D0043616E63656C204F626A650E
:100EC0006374004261636B6C617368005374657096
:100ED000732F6D6D004A65726B00416363656C65CD
:100EE000726174696F6E0056656C6F636974790026
:100EF000536D6F6F7468696E6700436F72726563DC
:100F000074696F6E004E65787420506F696E74005E
:100F10004E657874004E4F005945530043616E632F
:100F2000656C204F626A656374203D004C69676898
:100F300074204272696768746E6573730046616EEF
:100F4000205370656564004C6F6164205365747450
:100F5000696E677300526573746F726520666169AC
:100F60006C736166650053746F72652053657474A9
:100F7000696E6773005072656865617420504554EE
:100F80004720436F6E66005072656865617420503B
:100F90004C4120436F6E660043617365204C696766
:100FA00068740020022046616374002002204D61B5
:100FB00078002002204D696E004175746F74656D74
:100FC00070005654726176204D696E00566D696EE0
:100FD00000566D6178202A00566D617820450056D4
:100FE0006D6178205A00566D6178205900566D6108
:100FF00078205800416D6178202A00416D61782089
:101000004500416D6178205A00416D61782059009A
:10101000416D6178205800412D54726176656C00F5
:10102000412D5265747261637400416363656C00A5
:101030004A756E6374696F6E20446576002A737416
:101040006570732F6D6D004573746570732F6D6DD2
:10105000005A73746570732F6D6D005973746570E9
:10106000732F6D6D005873746570732F6D6D004430
:101070006966663A200046726F6D5374703A005389
:101080007465707065723A00556E4C6576656C3AA1
:10109000004C6576656C65643A005261773A2020B1
:1010A0002020000A4C6F676963616C3A00436F75DA
:1010B0006E7420453A004361703A004D302F312064
:1010C000427265616B2043616C6C656400436C69BE
:1010D000636B20746F20526573756D652E2E2E0024
:1010E000656E7175657565696E672022006F6B00AE
:1010F000526573656E643A200042656420436F6FE9
:101100006C696E672E2E2E004265642048656174FE
:10111000696E672E2E2E0023646566696E65204415
:10112000454641554C545F004B6420004B692000FC
:101130004B702000504944204175746F74756E6582
:101140002066696E69736865642120507574207427
:101150006865206C617374204B702C204B69206192
:101160006E64204B6420636F6E7374616E747320C1
:1011700066726F6D2062656C6F7720696E746F2088
:10118000436F6E66696775726174696F6E2E680A67
:1011900000504944204175746F74756E6520666116
:1011A000696C6564212074696D656F75740A000A45
:1011B00020436C617373696320504944200A002006
:1011C0004B643A2000204B693A2000204B703A20B3
:1011D000000A204E6F206F76657273686F6F740A15
:1011E000002054753A2000204B753A2000206D6194
:1011F000783A2000206D696E3A200020643A200081
:1012000020626961733A2000504944204175746F2F
:1012100074756E652073746172740A0050494420BD
:101220004175746F74756E65206661696C656421C3
:101230002054656D706572617475726520746F6F8E
:1012400020686967680A00504944204175746F74CA
:10125000756E65206661696C656421204261642059
:101260006578747275646572206E756D6265720A58
:1012700000A10000006900A20000006300B00000AF
:10128000000900C10000004100C20000004100C38D
:101290000000004100C40000004100C50000004102
:1012A00000C60000004145C70000004300C8000020
:1012B000004500C90000004500CD0000004900D1F4
:1012C0000000004E00D50000004F00D60000004F87
:1012D00000D70000007800DC0000005500DD0000B1
:1012E000005900E00000006100E10000006100E240
:1012F0000000006100E30000006100E40000006104
:1013000000E50000006100E60000006165E7000004
:10131000006300E80000006500E90000006500EAE5
:101320000000006500EB0000006500EC00000069B3
:1013300000ED0000006900EE0000006900EF000011
:10134000006900F10000006E00F20000006F00F381
:101350000000006F00F40000006F00F50000006F57
:1013600000F60000006F00F80000006F00F90000B8
:10137000007500FA0000007500FB0000007500FC1D
:101380000000007500FD0000007900FF00000079FA
:101390000004010000410005010000610006010099
:1013A0000043000701000063000C01000043000D32
:1013B00001000063000E01000044000F0100006402
:1013C000001101000064001901000065001F010008
:1013D0000067003001000049003101000069004150
:1013E0000100004C00420100006C00430100004E6F
:1013F00000440100006E00480100006E0059010029
:101400000072005A01000053005B01000073005F8E
:1014100001000073006001000053006101000073CF
:10142000006501000074006F01000075007C010080
:10143000007A007D0100005A007E0100007A0092CF
:101440000100006600E3020000780084030000272A
:101450000085030000270086030000410087030089
:10146000002E008803000045008903000048008A20
:1014700003000049008C0300004F008E0300005958
:10148000008F0300004F00900300006900910300EB
:1014900000410092030000420093030000540094B6
:1014A0000300003400950300004500960300005A35
:1014B00000970300004800980300003000990300E3
:1014C0000049009A0300004B009B0300005E009C53
:1014D0000300004D009D0300004E009E03000033FA
:1014E000009F0300004F00A00300006E00A1030056
:1014F000005000A30300004500A40300005400A511
:101500000300005900A60300007000A70300005864
:1015100000A80300005000A90300004F00AA030028
:10152000004900AB0300005900AC0300006100ADAE
:101530000300006500AE0300006E00AF0300006909
:1015400000B00300007600B10300006100B20300A8
:10155000004200B30300007600B40300006400B54D
:101560000300006500B60300005A00B70300006ED8
:1015700000B80300003000B90300006900BA03009E
:10158000006B00BB0300004C00BC0300007500BDF5
:101590000300007600BE0300006500BF0300006F7B
:1015A00000C00300006E00C10300007000C2030011
:1015B000006300C30300006F00C40300007400C593
:1015C0000300007600C60300007000C70300005847
:1015D00000C80300005700C90300007700CA0300D9
:1015E000006900CB0300007600CC0300006F00CD43
:1015F0000300007600CE03000077000104000045E0
:1016000000100400004100110400006200120400F8
:10161000004200130400005400140400005100159F
:101620000400004500160400002A001704000045CD
:1016300000180400004E00190400004E001A0400B7
:10164000004B001B04000054001C0400004D001D52
:1016500004000048001E0400004F001F0400006E3C
:101660000020040000500021040000430022040078
:10167000005400230400005900240400006F0025DA
:1016800004000058002604000055002704000079DB
:10169000002804000057002904000057002A040015
:1016A0000062002B040000627C2C04000062002D0C
:1016B00004000065002E0400007C4F2F0400003958
:1016C0007C30040000610031040000360032040068
:1016D0000042003304000072003404000061003551
:1016E0000400006500360400002A0037040000658D
:1016F000003804000075003904000075003A040049
:10170000006B003B0400006E003C0400006D003DD7
:1017100004000048003E0400006F003F0400006E1B
:101720000040040000700041040000630042040017
:101730000074004304000079004404000071704507
:10174000040000780046040000750047040000799A
:10175000004804000077004904000077004A0400B4
:101760000062004B040000627C4C04000062004DEB
:1017700004000065004E0400007C6F4F0400006709
:1017800000510400006500222000002E001E2100F0
:1017900000507822210000544D902100003C2D92F1
:1017A0002100002D3EB02100000300BB21000004F9
:1017B000003C2200007E00482200007E3D602200A6
:1017C00000213D612200003D00642200003C3D6597
:1017D0002200003E3DF12300000700A03000003D44
:1017E0000021F301000200C2F401000500A2000084
:1017F00000EC00B0000000DF00E4000000E100F6B3
:10180000000000EF00F7000000FD00FC000000F504
:1018100000E3020000EB0087030000A5008F030037
:1018200000F40098030000F2009E030000E300A310
:10183000030000F600A9030000F400AC030000E080
:1018400000AD030000E300B1030000E000B20300BC
:1018500000E200B5030000E300B8030000F200BCA2
:10186000030000E400BE030000E300C0030000F733
:1018700000C1030000E600C3030000E50090210062
:10188000007F00922100007E001A220000E8001E66
:10189000220000F30088250000FF0002300000A1B4
:1018A000000C300000A2000D300000A3009B3000AF
:1018B00000DE009C300000DF00A03000003D00A1F1
:1018C000300000A700A2300000B100A3300000A843
:1018D00000A4300000B200A5300000A900A630002E
:1018E00000B300A7300000AA00A8300000B400A98F
:1018F000300000AB00AA300000B500AB300000B6ED
:1019000000AC300000B6DEAD300000B700AE3000F5
:1019100000B7DEAF300000B800B0300000B8DEB174
:10192000300000B900B2300000B9DEB3300000BAB8
:1019300000B4300000BADEB5300000BB00B63000A5
:1019400000BBDEB7300000BC00B8300000BCDEB920
:10195000300000BD00BA300000BDDEBB300000BE6C
:1019600000BC300000BEDEBD300000BF00BE300055
:1019700000BFDEBF300000C000C0300000C0DEC1CC
:10198000300000C100C2300000C1DEC3300000AF33
:1019900000C4300000C200C5300000C2DEC6300006
:1019A00000C300C7300000C3DEC8300000C400C957
:1019B000300000C4DECA300000C500CB300000C6D5
:1019C00000CC300000C700CD300000C800CE300091
:1019D00000C900CF300000CA00D0300000CADED1FC
:1019E000300000CADFD2300000CB00D3300000CB83
:1019F000DED4300000CBDFD5300000CC00D6300084
:101A000000CCDED7300000CCDFD8300000CD00D9CC
:101A1000300000CDDEDA300000CDDFDB300000CE5C
:101A200000DC300000CEDEDD300000CEDFDE300036
:101A300000CF00DF300000D000E0300000D100E136
:101A4000300000D200E2300000D300E3300000ACF0
:101A500000E4300000D400E5300000AD00E63000C6
:101A600000D500E7300000AE00E8300000D600E905
:101A7000300000D700EA300000D800EB300000D979
:101A800000EC300000DA00ED300000DB00EF300049
:101A900000DC00F2300000A600F3300000DD00F4AE
:101AA000300000B3DEF7300000DCDEFA300000A6C4
:101AB000DEFB300000A500FC300000B000FD30006F
:101AC00000A400074E0000FB0086510000FC00430C
:101AD000530000FA0064FF0000A40065FF0000A5A9
:101AE0000066FF0000A60067FF0000A70068FF0077
:101AF00000A80069FF0000A9006AFF0000AA006BAF
:101B0000FF0000AB006CFF0000AC006DFF0000ADFB
:101B1000006EFF0000AE006FFF0000AF0070FF001E
:101B200000B00071FF0000B10072FF0000B200734E
:101B3000FF0000B30074FF0000B40075FF0000B5A3
:101B40000076FF0000B60077FF0000B70078FF00C6
:101B500000B80079FF0000B9007AFF0000BA007BEE
:101B6000FF0000BB007CFF0000BC007DFF0000BD4B
:101B7000007EFF0000BE007FFF0000BF0080FF006E
:101B800000C00081FF0000C10082FF0000C200838E
:101B9000FF0000C30084FF0000C40085FF0000C5F3
:101BA0000086FF0000C60087FF0000C70088FF0016
:101BB00000C80089FF0000C9008AFF0000CA008B2E
:101BC000FF0000CB008CFF0000CC008DFF0000CD9B
:101BD000008EFF0000CE008FFF0000CF0090FF00BE
:101BE00000D00091FF0000D10092FF0000D20093CE
:101BF000FF0000D30094FF0000D40095FF0000D543
:101C00000096FF0000D60097FF0000D70098FF0065
:101C100000D80099FF0000D9009AFF0000DA009B6D
:101C2000FF0000DB009CFF0000DC009DFF0000DDEA
:101C3000009EFF0000DE009FFF0000DF00E5FF00C8
:101C4000005C004D69786572003F0043616E63651A
:101C50006C004F6E002020456E64205A3A00537489
:101C6000617274205A3A00416C69617320562D7478
:101C70006F6F6C002020456E6420562D746F6F6C62
:101C800000537461727420562D746F6F6C00436F33
:101C90006D6D697420562D746F6F6C204D697800DE
:101CA0004379636C65204D697800436F6D706F6E8A
:101CB000656E74203D00562D746F6F6C73205765F0
:101CC000726520526573657400526576657273653E
:101CD000204772616469656E74005425692D3E5415
:101CE000256900526573657420562D746F6F6C738F
:101CF0000041637469766520562D746F6F6C0053D4
:101D00006F667420456E6473746F7073004D383461
:101D10000044697361626C6520537465707065720C
:101D200073004C6576656C20436F726E657273004C
:101D3000473238205A00486F6D65205A00473238C4
:101D4000205900486F6D65205900473238205800EF
:101D5000486F6D652058004175746F20486F6D6540
:101D600000496E666F2053637265656E00473239B5
:101D7000204900496E76616C696461746520436C2A
:101D80006F7365737400496E76616C696461746524
:101D900020416C6C00473239205031204300436FA2
:101DA0006E74696E756520426564204D65736800C8
:101DB00046696C6C2D696E204D65736800427569CB
:101DC0006C6420437573746F6D204D6573680047B4
:101DD00032380A4D313930205337300A4D313039DD
:101DE00020533235300A4732392050310A4D3130D4
:101DF000342053300A4D313430205330004275695D
:101E00006C64204D6573682028504554472900476D
:101E100032380A4D313930205336300A4D3130399D
:101E200020533230300A4732392050310A4D313098
:101E3000342053300A4D313430205330004275691C
:101E40006C64204D6573682028504C4129004D3149
:101E50003137204D657368202569204C6F616465BA
:101E60006400473239204C2569004D313137204D0F
:101E700065736820256920536176656400473239AF
:101E800020532569004C6F616420426564204D65D4
:101E90007368004D656D6F727920536C6F74004EDE
:101EA0006F2053746F7261676500486F6D696E676C
:101EB0002058595A00473239205034205825732071
:101EC0005925732052256900202D2D2D2D2D0047D9
:101ED00032380047323920532D31004F666620508A
:101EE00072696E746572204261636B75700047326F
:101EF00039205431004F757470757420666F7220EC
:101F000043535600473239205430004F7574707572
:101F10007420666F7220486F737400456469742082
:101F20004D6573680047323920493939390A4732DB
:101F3000392050322042205430004D616E75616C62
:101F40006C79204275696C64204D657368000000EF
:101F500066430000664300007A43000020C1000091
:101F6000A0C0000000002062797465733B2063729A
:101F700063200053657474696E67732053746F72C5
:101F800065642028004E6F20454550524F4D2E0A63
:101F900000454550524F4D206461746173697A6504
:101FA000206572726F722E0A003F4D65736820744F
:101FB0006F6F2062696720666F7220454550524FEF
:101FC0004D2E0A0055424C2072657365740A00203C
:101FD0006C6F616465642066726F6D2073746F72DC
:101FE0006167652E0A004D65736820003F43616E8E
:101FF000277420656E61626C6520002073746F72B7
:1020000065642073657474696E6773207265747299
:102010006965766564202800202863616C63756CAF
:102020006174656429210A0020213D200045455046
:10203000524F4D20435243206D69736D6174636844
:10204000202D202873746F726564292000496E6406
:1020500065783A2000204D61726C696E3D563734C8
:10206000290A00454550524F4D2076657273696FBD
:102070006E206D69736D6174636820284545505208
:102080004F4D3D0052756E6F75742053656E736FC2
:102090007200554E4C4F41442046494C414D454EEF
:1020A000540046494C414D454E54204348414E470B
:1020B00045004732380A47323920503420523235F1
:1020C000350A47323920410A4D3530300047323920
:1020D0002050340A4D353030004D333033205531E7
:1020E00020453020533235302043380A4D353030CA
:1020F000004D33303320553120452D3120533930B8
:102100002043380A4D353030004D393030204B30C7
:102110000A4D353030004D393030204B302E320AE8
:102120004D353030004D393030204B302E330A4D94
:10213000353030004D393030204B302E340A4D359B
:102140003030004D393030204B302E350A4D35308F
:1021500030004D393030204B302E360A4D3530307E
:10216000004C696E20416476204B302E34004C695F
:102170006E20416476204B302E33004C696E204136
:102180006476204B302E35004C696E2041647620F9
:102190004B302E32004C696E20416476204F6666CB
:1021A0000050494474756E6520426564005049448E
:1021B00074756E6520486F74656E640041646A755D
:1021C000737420506F696E74204E656172004C69A3
:1021D0006E20416476204B302E36004D616E756165
:1021E0006C2055424C004D37303220542564004D50
:1021F00036303020423020542564004D37303220B4
:102200003B2564004D3730312054256400556E6CF9
:102210006F61642046696C616D656E74004C6F611E
:10222000642046696C616D656E7400507265686506
:10223000617420437573746F6D004D3630302042E9
:102240003020542569004D37303120542569004D28
:102250003730322054256900556E6C6F616420461A
:10226000696C616D656E74202A004D3730320055FF
:102270006E6C6F616420416C6C004C6F6164204631
:10228000696C616D656E74202A004368616E6765D4
:102290002046696C616D656E74202A005075726706
:1022A00065206D6F726500524553554D45204F5066
:1022B00054494F4E533A005052494E5420504155C4
:1022C0005345440020204E6F7A7A6C653A200020F6
:1022D0002F002042403A0020403A007C3C3E5E2BDA
:1022E0003D3F2F5B5D3B2C2A225C0024F4D4305010
:1022F000C38E20C2A24017828B7011127A910D8179
:102300006CD90AA861E108C7586607615143061EE7
:102310004B5D05C145A7041A411104093D9803719D
:102320003931034036DB0265339102D430540280E8
:102330002E1D02632CEE01752AC501B028A00110E4
:102340002781018F2564012B244B01E0223401AC4D
:10235000211F018D200D01801FFC00841EED0097C0
:102360001DDF00B81CD200E61BC600201BBC0064A9
:102370001AB200B219A8000A19A0006A189900D16F
:1023800017910040178B00B516840031167E00B3FC
:102390001579003A157300C7146F0058146A00EEDF
:1023A0001366008813630025135E00C7125B006C80
:1023B00012570015125400C111510070114F002125
:1023C000114B00D61049008D104700461044000202
:1023D000104200C00F4000800F3E00420F3C00063C
:1023E0000F3B00CB0E3800930E37005C0E350027F4
:1023F0000E3400F30D3200C10D3100900D3000603D
:102400000D2E00320D2D00050D2C00D90C2B00AE29
:102410000C2900850C29005C0C2700350C27000EC8
:102420000C2600E80B2400C40B2400A00B23007D25
:102430000B23005A0B2100390B2100180B2000F848
:102440000A1F00D90A1E00BB0A1E009D0A1D00803B
:102450000A1D00630A1C00470A1B002C0A1B0011FE
:102460000A1A00F7091A00DD091900C4091900AB9E
:10247000091900920917007B091800630917004C1D
:1024800009160036091600200916000A091500F57C
:10249000081500E0081400CC081400B8081400A4C3
:1024A000081400900813007D0812006B08130058F0
:1024B0000812004608120034081100230811001207
:1024C00008110001081100F0071000E0071000D00B
:1024D000071000C0071000B0070F00A107100091FF
:1024E000070E0083070F0074070F0065070E0057E3
:1024F000070E0049070E003B070D002E070E0020B7
:10250000070D0013070D0006070D00F9060C00ED7E
:10251000060D00E0060C00D4060C00C8060C00BC3A
:10252000060C00B0060C00A4060B0099060C008DEA
:10253000060B0082060B0077060B006C060B006191
:10254000060A0057060B004C060A0042060A00382D
:10255000060A002E060A0024060A001A060A0010BF
:1025600006090007060A00FD050900F4050900EB4D
:10257000050900E2050900D9050900D0050900C7D1
:10258000050900BE050900B5050800AD050800A550
:102590000509009C050800940508008C05080084C6
:1025A0000508007C050800740508006C0507006537
:1025B0000508005D050700560508004E05070047A1
:1025C0000507004005080038050700310507002A07
:1025D000050700230507001C050600160507000F68
:1025E0000507000805060002050700FB040600F5C4
:1025F000040700EE040600E8040600E2040700DB1E
:10260000040600D5040600CF040600C9040600C372
:10261000040600BD040600B7040600B1040500ACC2
:10262000040600A6040600A00405009B040600950D
:10263000040500900406008A040500850405008056
:102640000406007A04050075040500700405006B9B
:1026500004050066040500610405005C04050057DC
:10266000040500520405004D04050048040500431C
:102670000405003E0404003A04050035040500305A
:102680000404002C04050027040400230405001E94
:102690000404001A04040016040500110404000DCB
:1026A000040400090405000404040000040400FC00
:1026B000030400F8030400F4030400F0030400EC36
:1026C000030400E8030400E4030400E0030400DC66
:1026D000030400D8030400D4030400D0030400CC96
:1026E000030400C8030300C503030024F404D92035
:1026F0001BC40C5C0E9804C4095F0265077101F4E9
:1027000005F900FB04B30048048700C103690058C1
:1027100003550003034500BE023A00840231005312
:10272000022A002902250004022000E4011C00C83E
:10273000011900AF01170098011400840113007102
:102740000110006101100051010E0043010D00361F
:10275000010B002B010B0020010B00150109000CDF
:1027600001090003010800FB000800F3000800EB6A
:10277000000700E4000600DE000600D8000600D2D4
:10278000000600CC000500C7000500C2000500BD22
:10279000000400B9000400B5000400B1000400AD5D
:1027A000000400A9000400A5000300A20003009F8C
:1027B0000004009B000300980003009500020093B2
:1027C000000300900003008D0002008B00030088CE
:1027D0000002008600020084000300810002007FE6
:1027E0000002007D0002007B0002007900020077F9
:1027F0000001007600020074000200720001007106
:102800000002006F0002006D0001006C0002006A0F
:102810000001006900020067000100660001006518
:10282000000100640002006200010061000100601C
:102830000001005F0002005D0001005C0001005B20
:102840000001005A00010059000100580001005722
:102850000001005600010055000100540001005322
:10286000000000530001005200010051000100501F
:102870000001004F0001004E0000004E0001004D1D
:102880000001004C0001004B0000004B0001004A19
:102890000001004900010048000000480001004715
:1028A0000001004600000046000100450000004510
:1028B0000001004400010043000000430001004209
:1028C0000000004200010041000000410001004002
:1028D0000001003F0000003F0001003E0000003EFC
:1028E0000001003D0000003D0001003C0000003CF4
:1028F0000000003C0001003B0000003B0001003AEA
:102900000000003A000100390000003900010038E1
:1029100000000038000000380001003700000037D8
:1029200000010036000000360000003600010035CE
:1029300000000035000000350001003400000034C4
:1029400000000034000100330000003300000033B9
:1029500000010032000000320000003200010031AE
:1029600000000031000000310001003000000030A4
:10297000000000300001002F0000002F0000002F99
:102980000000002F0001002E0000002E0000002E8D
:102990000001002D0000002D0000002D0000002D82
:1029A0000001002C0000002C0000002C0000002C76
:1029B0000001002B0000002B0000002B0000002B6A
:1029C0000001002A0000002A0000002A0000002A5E
:1029D0000001002900000029000000290000002952
:1029E0000000002900010028000000280000002845
:1029F0000000002800000028000100270000002738
:102A0000000000270000002700000027000100262A
:102A1000000000260000002600000026000000261E
:102A20000001002500000025000000250000002511
:102A30000000002500000025000100240000002403
:102A400000000024000000240000002400010023F6
:102A500000000023000000230000002300000023EA
:102A600000000023000000230001002200000022DB
:102A700000000022000000220000002200000022CE
:102A800000010021000000210000002100000021C1
:102A900000000021000000210000002100010020B2
:102AA00000000020000000200000002000000020A6
:102AB0000000002000000020000000200001001F96
:102AC0000000001F0000001F0000001F0000001F8A
:102AD0000000001F0000001F0001001E0000001E7B
:102AE0000000001E0000001E00000042270000A1A0
:102AF0001F0000C61600009A0E000082080000A306
:102B00000400006D0200003E0100003F45455052A8
:102B10004F4D2073746F72616765206E6F74206112
:102B20007661696C61626C652E0A00726573756D01
:102B3000656400526573756D696E67004265642057
:102B40004C6576656C696E6720004661696C6564EA
:102B500020746F20656E61626C6520426564204C54
:102B60006576656C696E670A00496E76616C6964AA
:102B7000206D6573682E0A0076616C69640A53746F
:102B80006F7261676520736C6F743A20004D6573D6
:102B90006820697320003F496E76616C6964207318
:102BA000746F7261676520736C6F742E0A004D3408
:102BB000323120696E636F72726563742070617266
:102BC000616D657465722075736167650A003F20E9
:102BD00061646472657373203A20002062797465C1
:102BE00073206F66206D656D6F727920696E6974F0
:102BF00069616C697A65642E0A0A00556E61626CBF
:102C00006520746F20696E697469616C697A652EDC
:102C10000A0A00496E697469616C697A696E672095
:102C200066726565206D656D6F727920626C6F6389
:102C30006B2E0A0A0A00747275650A0020726574A8
:102C400075726E3D000A4D656D6F727920436F722B
:102C500072757074696F6E20646574656374656401
:102C600020696E2066726565206D656D6F727920D2
:102C7000617265612E0A002020626C6F636B5F6673
:102C80006F756E643D002020200A002920666F7554
:102C90006E643D002020204D656D6F727920636F5A
:102CA0007272757074696F6E2064657465637465A3
:102CB00064207769746820656E645F667265655F1D
:102CC0006D656D6F72793C486561700A0020656EB4
:102CD000645F667265655F6D656D6F7279203C201B
:102CE0004865617020002020656E645F66726565CE
:102CF0005F6D656D6F72793D000A667265655F6D27
:102D0000656D6F72795F73746172743D000A666DF0
:102D1000632829206E3D00636865636B5F666F7290
:102D20005F667265655F6D656D6F72795F636F7207
:102D300072757074696F6E2829203D20004D313006
:102D40003020462000206279746573206174200071
:102D50000A4C617267657374206672656520626CE7
:102D60006F636B206973200020627974657320663D
:102D70007265652061742000466F756E6420000ADC
:102D8000436F7272757074696E67206164647265F6
:102D900073733A2000436F7272757074696E6720A6
:102DA00066726565206D656D6F727920626C6F6308
:102DB0006B2E0A0A000A537461636B20506F696EB0
:102DC0007465722020202020202020203A20000A34
:102DD000667265655F6D656D6F72795F656E6420A3
:102DE0002020202020203A20000A667265655F6D51
:102DF000656D6F72795F737461727420202020207A
:102E00003A20000A6273735F656E642020202020E0
:102E1000202020202020202020203A200020284E82
:102E20006F7420796574206D6561737572656429AE
:102E300000202041766572616765206D656173755C
:102E4000726564206261636B6C61736820286D6DCC
:102E5000293A002020536D6F6F7468696E672028CF
:102E60006D6D293A202020202020202020202020A5
:102E70002020202020530020204261636B6C61736E
:102E8000682044697374616E636520286D6D293A0A
:102E9000202020202020202000202846312E3020F5
:102EA0003D2066756C6C2C2046302E30203D206E07
:102EB0006F6E65290A002020436F72726563746922
:102EC0006F6E20416D6F756E742F466164652D6F56
:102ED00075743A202020202046006163746976656D
:102EE0003A0A004261636B6C61736820436F7272CF
:102EF000656374696F6E200020595A3A200020588B
:102F00005A3A20002058593A2000536B65772046E2
:102F10006163746F72006D696E5F736B65775F6676
:102F20006163746F723A20202D31206D61785F7378
:102F30006B65775F666163746F723A2020310A00B7
:102F4000416363656C65726174696F6E3A2050000D
:102F50003F4A206F7574206F662072616E6765202E
:102F600028302E303120746F20302E33290A002073
:102F7000746F6F206C6F6E672065787472757369FB
:102F80006F6E2070726576656E7465640A002063EA
:102F90006F6C6420657874727573696F6E207072DF
:102FA0006576656E7465640A0054656D706572615E
:102FB000747572650050726568656174205045547F
:102FC00047005072656865617420504C41004E6F37
:102FD0007A7A6C65004D61696E0050726568656152
:102FE0007420504C4120456E6400507265686561E4
:102FF0007420504C412042656400507265686561E0
:1030000074205045544720456E64005072656865D1
:10301000617420504554472042656400436F6F6CD3
:10302000646F776E0046616E205370656564203D65
:10303000004261627973746570205A00466C6F7744
:103040000020633A00204D3932205400204D39329F
:1030500020580020204D61783A200020204D696ED4
:103060003A2000536F667420656E6473746F7073DA
:103070003A2000252900257C00203B2043757272F0
:10308000656E74205A00203B20456E6400203B2072
:10309000537461727400202854004772616469653A
:1030A0006E74204D697820004D32342053256C64B5
:1030B0002054256C64004739322E39204525730091
:1030C00047312046256400473120453120463330C2
:1030D0003030004739322E39205A257300473120CD
:1030E0005A3020463230300047312058257320595D
:1030F000257320463330303000473120453120469B
:10310000323030004D34323020532569205A257337
:10311000004D31303620502569205325690047394C
:10312000322E392045305A300A47315A320A473256
:103130003852305859004D343230205330205A30F4
:103140000020496E76616C696420657874727564DC
:103150006572200020496E76616C69642045207399
:1031600074657070657220002045207374657070FE
:103170006572206E6F74207370656369666965643B
:103180000A002053697A653A200043616E6E6F74BD
:10319000206F70656E2073756264697220005344FD
:1031A0002063617264206F6B0A006F70656E526FEE
:1031B0006F74206661696C65640A00766F6C756D6A
:1031C000652E696E6974206661696C65640A0053D6
:1031D0004420696E6974206661696C0A004D32335F
:1031E0002025730046696C652073656C65637465A2
:1031F000640A0046696C65206F70656E65643A20EC
:1032000000454E4420535542524F5554494E450AAD
:10321000002220706F73002220706172656E743A14
:103220002200535542524F5554494E452043414C7C
:103230004C207461726765743A2200747279696E09
:103240006720746F2063616C6C207375622D6763F7
:103250006F64652066696C65732077697468207493
:103260006F6F206D616E79206C6576656C732E20B2
:103270004D4158206C6576656C2069733A310A00BF
:1032800057726974696E6720746F2066696C653A5D
:10329000200044656C6574696F6E206661696C65B9
:1032A000642C2046696C653A200046696C65206490
:1032B000656C657465643A005344207072696E747D
:1032C000696E67206279746520004E6F74205344E4
:1032D000207072696E74696E670A00667265736841
:1032E00000646F696E67004E6F77200002473239C5
:1032F00020503420523939392054004732380A4797
:103300003239205031004D6F74696F6E00372E20B6
:103310005361766520426564204D65736800362EE2
:103320002046696E652054756E6520416C6C0035D1
:103330002E2056616C6964617465204D6573680068
:10334000342E2046696E652054756E6520416C6C84
:1033500000332E2056616C6964617465204D65737D
:10336000680047323920503320543000322E205329
:103370006D6172742046696C6C2D696E00312E206F
:103380004275696C6420436F6C64204D65736800FE
:103390004732392057004F75747075742055424C70
:1033A00020496E666F0055424C20546F6F6C73005D
:1033B0004F7574707574204D657368204D61700091
:1033C0004D6573682053746F72616765004D657356
:1033D00068204564697400537465702D42792D53DB
:1033E0007465702055424C004732392041004163DA
:1033F0007469766174652055424C00473239204427
:1034000000446561637469766174652055424C00BF
:103410002568753A25303268750025303268753A6E
:103420002530326875006563686F3A004572726FC7
:10343000723A0020204D343231204900202047329A
:1034400039204939390A006163746976650A0020B8
:1034500053797374656D2076312E30312000202031
:10346000207C0A004E414E0020202E2020200020EB
:103470007C004C43443A0A004353563A0A00206603
:103480006F7220003A0A0A000A42656420546F7085
:103490006F677261706879205265706F7274004452
:1034A0006F6E652E0A003F496E76616C6964207309
:1034B000746F7261676520736C6F742E0A3F557369
:1034C00065203020746F200047323920503220664A
:1034D000696E69736865642E0A005859206F7574A7
:1034E00073696465207072696E7461626C652072C4
:1034F00061646975732E0A003F4572726F722069AC
:103500006E20427573696E65737320436172642027
:103510006D6561737572656D656E742E0A004D611F
:103520006E75616C6C792070726F62696E67207560
:103530006E726561636861626C65206D6573682099
:103540006C6F636174696F6E732E0A004D657368EA
:10355000207A65726F65642E0A0044656661756C39
:10356000742073746F7261676520736C6F742030A0
:103570002073656C65637465642E0A004C6F61642A
:10358000696E6720746573745F7061747465726EC0
:103590002076616C7565732E0A0A00496E76616C3F
:1035A000696420746573745F7061747465726E20F1
:1035B00076616C75652E20282D3120746F2032299C
:1035C0000A0A004C6F636174696F6E7320696E76CE
:1035D000616C6964617465642E0A0A00456E7469E1
:1035E0007265204D65736820696E76616C696461EF
:1035F0007465642E0A0A00000020C10000A0C0000B
:103600000000000000204200002042000080400234
:1036100002020000A0400000A0400000A040000006
:10362000704300006B4300007A43FFFFFF0000007F
:1036300001000000010000800055555500000040C9
:103640000033333300AAAA2A004992240000002044
:1036500000C7711C0099991900D1451700555515DF
:10366000003BB11300244912001111110000001099
:10367000000F0F0F00E3380E0043790D00CCCC0C87
:1036800000C3300C00E8A20B0064210B00AAAA0AB8
:1036900000703D0A009DD80900427B090092240970
:1036A00000DCD308008888080010420800000008E9
:1036B00000F0C107008787070075500700711C07DD
:1036C000003EEB0600A1BC06006990060066660697
:1036D00000703E06006118060017F4050074D1055D
:1036E000005BB00500B290050062720500555505FB
:1036F0000078390500B81E0500050505004EEC04EC
:103700000087D40400A1BD040090A70400499204DE
:1037100000C17D0400EE690400C75604004444045F
:10372000005C320400082104004110040000000481
:10373000003FF00300F8E0030026D20300C3C303F8
:1037400000CCB503003AA803000A9B0300388E039F
:1037500000C08103009F750300D0690300505E0321
:10376000001D53030034480300913D03003333032D
:103770000016290300381F030097150300300C03BF
:1037800000030303000BFA020049F10200BAE80249
:10379000005CE002002DD802002DD0020059C802C2
:1037A00000B0C0020031B90200DAB10200AAAA02D8
:1037B00000A0A30200BC9C0200FA9502005C8F02EC
:1037C00000DF88020082820200457C020027760228
:1037D0000027700200436A02007C640200D05E028F
:1037E000003F590200C8530200FFFDFCFAF8F6F44E
:1037F000F2F0EEECEAE9E7E5E3E1E0DEDCDAD9D786
:10380000D5D4D2D0CFCDCBCAC8C7C5C3C2C0BFBD27
:10381000BCBAB9B7B6B4B3B2B0AFADACAAA9A8A69A
:10382000A5A4A2A1A09E9D9C9A99989795949392E5
:10383000908F8E8D8B8A8988878684838281807F12
:103840007E7D7B7A797877767574737271706F6E1E
:103850006D6C6B6A696867666564636261605F5E10
:103860005D5C5B5A595858575655545352515050F5
:103870004F4E4D4C4B4A4A494847464645444342C1
:103880004241403F3E3E3D3C3B3B3A39383837367B
:103890003535343332323130302F2E2E2D2C2B2B28
:1038A0002A292928272726252524232322212120C8
:1038B000201F1E1E1D1C1C1B1B1A19191818171659
:1038C00016151514131312121111100F0F0E0E0DE1
:1038D0000D0C0C0B0A0A090908080707060605055E
:1038E0000404030302020100005761726E696E67EF
:1038F0003A20486F6D696E672042756D702044698B
:103900007669736F72203C20310A005072696E74C0
:103910002066726F6D204D65646961004469736152
:10392000626C6552756E6F757400496E7365727462
:103930002066696C616D656E7420616E64207365CC
:103940006E64204D3130380A004D6F766520257346
:103950006D6D004D6F766520302E316D6D004D6FB1
:10396000766520316D6D004D6F76652031306D6D5F
:10397000004D6F7665204178697300486F74656EFD
:103980006420746F6F20636F6C6400457874727587
:10399000646572004D6F7665205A004D6F76652024
:1039A00059004D6F7665205800486F6D652025736E
:1039B0002573257320466972737400626567696EAA
:1039C0000050757267654D6F726500436F6E746964
:1039D0006E7565004C6F61642046696C616D656E43
:1039E0007420540020573A00220A00556E6B6E6F07
:1039F000776E20636F6D6D616E643A202200000067
:103A000020002300260029002C002F003200000196
:103A10000000030106010901050505050705080861
:103A20000808020202020A0A080804040404010148
:103A3000010101010101030303030303030304075D
:103A400007070C0C0C0C0C0C0C0C020202020606F4
:103A50000606060606060B0B0B0B0B0B0B0B0102E7
:103A60001020200808102040102040800201020190
:103A70000804020101020408102040808040201048
:103A800008040201800402018040201008040201A1
:103A90000804020101020408102040800102040809
:103AA0001020408000000A0B02090C0D0E080703CD
:103AB0000401000000000000000000000000000001
:103AC00000000000000000000000000000000000F6
:103AD00012111000000000000000000000000000B3
:103AE00000000000000000000000687474703A2FAD
:103AF0002F6D61726C696E66772E6F72670020425F
:103B000075696C6420343537004D313030302053C6
:103B1000002020506C616E6E65724275666665723B
:103B200042797465733A20002046726565204D65C0
:103B30006D6F72793A2000436F6D70696C65643AFD
:103B40002044656320333120323031390A00204C63
:103B500061737420557064617465643A2032303149
:103B6000392D31322D3139207C20417574686F72C6
:103B70003A20285665727461627265616B657229BC
:103B80000A004275696C64203435370A004D617251
:103B90006C696E0020536F667477617265205265A0
:103BA0007365740A00205761746368646F672052FC
:103BB000657365740A002042726F776E206F7574AA
:103BC0002052657365740A002045787465726E61D1
:103BD0006C2052657365740A00506F77657255707A
:103BE0000A006175746F25632E67004732370065E0
:103BF00072726F722077726974696E6720746F20B9
:103C000066696C650A00446F6E6520736176696E43
:103C1000672066696C652E0A004D323900255320F5
:103C200025632025632025632025630020593A0061
:103C3000656E6473746F7073206869743A20000055
:103C4000002100240027002A002D0030003300014D
:103C5000010000040107010A0100002200250028DC
:103C6000002B002E00310034000201000005010885
:103C7000010B01040000050100030005010005041B
:103C800000000005000300823C7D3C783C733C0052
:103C9000000000000066420000E64200802C430065
:103CA000006643646F6E650A00496E7375666669E7
:103CB0006369656E7420646174610A00457874728A
:103CC00061706F6C6174696E67206D6573682E2E0C
:103CD0002E005072696E74696E67204F626A656368
:103CE00074002553202569002F2F616374696F6E5E
:103CF0003A00627574746F6E0070726F6D70745FED
:103D00000073686F7700486F74656E6420746F6F1E
:103D100020636F6C640A0053656E64204D31303847
:103D200020746F20726573756D650A005265686551
:103D3000617420446F6E6500526568656174696ED8
:103D40006700526568656174004865617465725406
:103D5000696D656F75740053656E64204D31303840
:103D600020746F2068656174206E6F7A7A6C650AC2
:103D7000004E6F7A7A6C65205061726B65640070DA
:103D80006175736564004D3630303A20546F6F2092
:103D9000436F6C64004D31303920532569004D313B
:103DA000393020532569004D657368204564697476
:103DB0006F72004265642054656D7000486F7465D1
:103DC0006E642054656D70004732392050362043B0
:103DD000202D0048656967687420416D6F756E74A9
:103DE0000041646A757374204D6573682048656985
:103DF0006768740047323920503420540046696E99
:103E0000652054756E6520436C6F7365737400474D
:103E1000323620432042256920482569205000562B
:103E2000616C696461746520437573746F6D204DB6
:103E3000657368004732380A4732362043204237DC
:103E400030204832353020500056616C696461740E
:103E500065204D6573682028504554472900473236
:103E6000380A47323620432042363020483230303C
:103E700020500056616C6964617465204D657368FB
:103E80002028504C412900473239204A2569004CEE
:103E90006576656C204D65736800536964652050D4
:103EA0006F696E74730047726964204D6573682092
:103EB0004C6576656C696E6700473239204A300080
:103EC000332D506F696E74204C6576656C696E6732
:103ED00000473239205033205220432E2569004DAF
:103EE000616E75616C2046696C6C2D696E00466967
:103EF0006C6C2D696E20416D6F756E74004D65732D
:103F00006820696E76616C6964617465642E0A006C
:103F10006F70656E005452494747455245440066EC
:103F2000696C616D656E74007A5F6D696E00795FB2
:103F30006D696E00785F6D696E005265706F7274A6
:103F4000696E6720656E6473746F7020737461743A
:103F500075730A0020436F756E7420583A004F75D0
:103F600074616765205265636F766572790042619E
:103F7000636B004368616E67652046696C616D65BF
:103F80006E7400436F6E66696775726174696F6EF7
:103F9000004D313030300053746F70205072696EB4
:103FA0007400526573756D65205072696E740053AC
:103FB000746F70004D3231004368616E6765204D4B
:103FC00065646961004175746F7374617274004E49
:103FD0006F204D656469610054756E6500537461AE
:103FE0007274205072696E740043616E6E6F74203B
:103FF000656E746572207375626469723A2000059B
:104000002E2E003A202534642E2564206D6D00503C
:1040100061726B696E672E2E2E0000005761697405
:1040200020666F720066696C616D656E74206368EE
:10403000616E676500746F207374617274005761FC
:10404000697420666F720066696C616D656E7420BC
:10405000756E6C6F616400004E6F7A7A6C652068D3
:10406000656174696E6700506C6561736520776186
:1040700069742E2E2E000050726573732062757461
:10408000746F6E00746F2068656174206E6F7A7A49
:104090006C650000496E736572742066696C616DB1
:1040A000656E7400616E6420707265737320627552
:1040B00074746F6E00746F20636F6E74696E7565D3
:1040C000005761697420666F720066696C616D6586
:1040D0006E74206C6F6164000050726573732042CF
:1040E0007574746F6E00746F20726573756D6520E2
:1040F0007072696E7400005761697420666F722077
:104100007072696E7400746F20726573756D652EC0
:104110002E2E00005761697420666F720066696C0C
:10412000616D656E74207075726765000044697317
:104130006D697373005072696E7420506175736598
:1041400064005061757365205072696E74004D652E
:104150006469612052656D6F766564004D656469C0
:104160006120496E736572746564006E6F74696670
:1041700069636174696F6E20003344205072696E08
:104180007465722052656164792E005072696E7494
:10419000696E672E2E2E0063616E63656C0050722F
:1041A000696E742041626F727465640055492041E4
:1041B000626F72746564004D323520500A4D32349E
:1041C00000526573756D65005549205061757365C2
:1041D00000726573756D65005374616E646172641D
:1041E00020446576696174696F6E3A20004D65619F
:1041F0006E204D657368204865696768743A2000D1
:1042000023206F662073616D706C65733A20002007
:10421000616E642074616B652061206D65617375EA
:1042200072656D656E742E0A006D6D207468696329
:104230006B2E0A00427573696E6573732043617259
:1042400064206973200052656D6F76652026204DCD
:10425000656173757265204265640052656D6F76A5
:1042600065207368696D00506C61636520736869CF
:104270006D20756E646572206E6F7A7A6C65004D84
:1042800065736820506F696E74204D656173757237
:1042900065642061743A20000A4D657368206F6E72
:1042A0006C79207061727469616C6C7920706F70C8
:1042B000756C617465642E0A00506C6163652053EF
:1042C00068696D2026204D656173757265004D6FBC
:1042D00076696E6720746F206E657874004D657323
:1042E000682045646974696E672053746F707065E7
:1042F0006400446F6E652045646974696E67204D83
:104300006573680A00446F6E652045646974696E60
:1043100067204D6573680046696E652054756E6947
:104320006E67204D6573680028582C5929206F75D9
:104330007473696465207072696E7461626C652063
:104340007261646975732E0A004F66667365742026
:104350006F7574206F6620626F756E64732E2028EF
:104360003020746F2031306D6D290A0A00496E7655
:10437000616C6964206D617020747970652E0A0A21
:10438000003F43616E2774206163746976617465D0
:1043900020616E6420646561637469766174652070
:1043A0006174207468652073616D652074696D6542
:1043B0002E0A0A00426F7468205820262059206C6B
:1043C0006F636174696F6E73206D757374206265BD
:1043D000207370656369666965642E0A0A00473256
:1043E00039204A20616374696F6E20726571756946
:1043F00072657320612070726F62652E0A0A003F39
:10440000285029686173652076616C756520696E36
:1044100076616C69642028302D36292E0A0A0047FF
:10442000323920503120726571756972657320616F
:104430002070726F62652E0A0A003F285629657245
:10444000626F7365206C6576656C20696D706C6158
:10445000757369626C652028302D34292E0A0A0094
:104460003F285229657065746974696F6E20636FA7
:10447000756E7420696E76616C69642028312B2911
:104480002E0A0A00446F696E6720473239004531B1
:1044900000626564002C2073797374656D207374F9
:1044A0006F7070656421204865617465725F49446E
:1044B0003A200048656174696E67204661696C65E1
:1044C000640048656174696E67206661696C656443
:1044D00000202D20496E76616C69642065787472C5
:1044E00075646572206E756D62657220210A0045E3
:1044F00072723A204D415854454D50004D41585428
:10450000454D502074726967676572656400457235
:10451000723A204D494E54454D50004D494E544538
:104520004D5020747269676765726564004D383458
:1045300020450070012C0190012701B0012201C02B
:10454000011D01F00118011002130130020E01607B
:1045500002090190020401C002FF000003FA0040BA
:1045600003F5008003F000D003EB002004E60070A8
:1045700004E100E004DC004005D700C005D20040A3
:1045800006CD00D006C8008007C3003008BE00F08A
:1045900008B900C009B400B00AAF00B00BAA00D03F
:1045A0000CA500000EA000500F9B00C010960050FC
:1045B00012910000148C00C0158700B0178200B063
:1045C000197D00D01B7800001E730040206E009003
:1045D000226900F024640040275F0090295A00E01F
:1045E0002B5500102E500020304B0010324600E0BA
:1045F00033410090353C001037370070383200A04E
:10460000392D00B03A2800A03B2300603C1E00106A
:104610003D1900903D1400103E0F00703E0A00C08E
:104620003E0500003F0000403FFBFF803FF6FFC01B
:104630003FF1FF204A00205200454550524F4D2087
:10464000496E697469616C697A65640A004D6573C5
:104650006820736176656420696E20736C6F7420C6
:10466000003F556E61626C6520746F2073617665E2
:10467000206D65736820646174612E0A0020736C7C
:104680006F743D00206D65736865735F656E643D92
:10469000004532454E443D00206D65736820736CC3
:1046A0006F747320617661696C61626C652E0A00BB
:1046B0003F496E76616C696420736C6F742E0A00DA
:1046C0004D657368206C6F616465642066726F6D00
:1046D00020736C6F7420003F556E61626C652074AE
:1046E0006F206C6F6164206D657368206461746114
:1046F0002E0A0048617264636F64656420446566D5
:1047000061756C742053657474696E6773204C6FA7
:10471000616465640A0020286D6D29002028696E97
:10472000290046616872656E686569740043656C4E
:1047300073697573004B656C76696E00556E6966BA
:1047400069656420426564204C6576656C696E67B6
:104750000020204D363033200020204D34313220CF
:10476000530046696C616D656E742072756E6F756D
:10477000742073656E736F723A0A0020204D3432D4
:10478000352046004261636B6C61736820636F6D16
:1047900070656E736174696F6E3A0A002055004649
:1047A000696C616D656E74206C6F61642F756E6CE1
:1047B0006F6164206C656E677468733A0A0020202C
:1047C0004D393030204B004C696E65617220416478
:1047D00076616E63653A0A0020204D3835322049F3
:1047E00000536B657720466163746F723A200A004C
:1047F00020204D343133205300506F7765722D4C9B
:104800006F7373205265636F766572793A0A002080
:10481000204D333034205000204C0020204D3330C8
:10482000312050005049442073657474696E677379
:104830003A0A0020480020204D3134352053004DE5
:104840006174657269616C2068656174757020704F
:104850006172616D65746572733A0A00206D6573EB
:104860006865732E0A0A00454550524F4D2063611A
:104870006E20686F6C6420000A416374697665205D
:104880004D65736820536C6F743A200020204D34BE
:10489000323020530020204D323035204200204A53
:1048A0003C6A756E635F6465763E00416476616E56
:1048B0006365643A20423C6D696E5F7365676D6540
:1048C0006E745F74696D655F75733E20533C6D69EE
:1048D0006E5F66656564726174653E20543C6D6907
:1048E0006E5F74726176656C5F6665656472617433
:1048F000653E0020204D3230342050004163636516
:104900006C65726174696F6E2028756E6974732F9F
:104910007332293A20503C7072696E745F61636330
:10492000656C3E20523C726574726163745F6163B2
:1049300063656C3E20543C74726176656C5F6163A4
:1049400063656C3E0A0020204D3230312054002037
:10495000204D3230312058004D6178696D756D20E1
:10496000416363656C65726174696F6E2028756E52
:104970006974732F7332293A0A0020204D32303384
:1049800020540020204D3230332058004D6178698A
:104990006D756D2066656564726174657320287538
:1049A0006E6974732F73293A0A005374657073200B
:1049B00070657220756E69743A0A00203B20556E4E
:1049C00069747320696E200020204D313439200035
:1049D000203B002020473200486F6D696E672046FB
:1049E00061696C65640000004843000048430000B2
:1049F000A0400000F0410000A0420000A0420000E2
:104A0000C8430000D7430000D7430000D743D00776
:104A10000000D007000064000000A00F00006F70CD
:104A2000656E206661696C65642C2046696C653A28
:104A30002000544845524D414C2052554E4157415B
:104A40005900546865726D616C2052756E617761B2
:104A50007900706F7765726F666600506C65617380
:104A600065205265736574005052494E544552207A
:104A700048414C5445440025533A202553004B49A6
:104A80004C4C45442E20005072696E74657220684B
:104A9000616C7465642E206B696C6C2829206361DD
:104AA0006C6C6564210A00009901270211241FBE65
:104AB000CFEFD1E2DEBFCDBF00E00CBF13E0A0E03E
:104AC000B2E0ECE3FCE203E00BBF02C007900D9202
:104AD000AE3BB107D9F728E1AEEBB3E001C01D92C0
:104AE000A13BB207E1F715E2C5E5D5E200E006C05B
:104AF00021970109802FFE010F949291C435D107AF
:104B000080E00807A9F70F94637E0D940C960C942F
:104B100000002F923F924F925F926F927F928F92FE
:104B20009F92AF92BF92CF92DF92EF92FF920F933C
:104B30001F93CF93DF93CDB7DEB7C255D1090FB620
:104B4000F894DEBF0FBECDBF62968FAF6297209103
:104B5000690F2F962FAF2F9721E02093690F809137
:104B60005C058D3409F44EC5843511F40C94C337BB
:104B7000873411F00C94E33780915A0590915B05CE
:104B80008B31910509F41AC4A4F48430910509F419
:104B9000E0C01CF4029768F131C58431910509F435
:104BA00003C48531910509F404C40C9709F026C5A6
:104BB0000FC18A32910509F4B1C45CF48C319105BE
:104BC00009F416C44D9709F019C50E94B1FC0C9464
:104BD000E5378B35910509F41BC48C35910509F433
:104BE0001CC48A35910509F009C51092F7120C947E
:104BF000E53780916B02882311F40C94E5372EE49D
:104C0000A22E23E0B22E3AE8C32E32E0D32E40E8A3
:104C1000E42E4EE0F42E10E0D5018D915D010E944E
:104C2000F1F7882349F1812F0E944DB4762E872E0B
:104C3000982E092F8091580D81111EC0812F0E943E
:104C400024DA882371F0D6012D913D914D915C912C
:104C5000672D782D892D902F0F949B91762E872E7E
:104C600002C0892D902F472D582DBC01F70140839C
:104C70005183628373830AC0F60180819181A2818E
:104C8000B381F70180839183A283B3831F5FF4E034
:104C9000CF0ED11C24E0E20EF11C133009F0BCCF82
:104CA00085E40E94F1F7882321F183E00E944DB44E
:104CB0007B018C0183E00E9424DA882371F020912B
:104CC0009602309197024091980250919902B70153
:104CD000C8010F949B917B0101C0C801A701BC01D1
:104CE00040938C0E50938D0E60938E0E70938F0EAA
:104CF00010C08091960290919702A0919802B09175
:104D0000990280938C0E90938D0EA0938E0EB0938B
:104D10008F0E86E40F94F51220E030E0A9010F9485
:104D20006293181684F40E949BF720E030E040E77D
:104D300052E40F94239260938602709387028093CB
:104D40008802909389020E9448E00F9484370C9463
:104D5000E53780E50E94F1F7882329F00E946CB4C2
:104D60006B017C0103C0C12CD12C760183E50E942C
:104D7000F1F7882361F00E9464F720E030E04AE711
:104D800054E40F94FD8A0F949C926B017C010F9464
:104D90005E068091DF13811105C060E086E597E033
:104DA0000F945B500F943F1BC60ED71EE81EF91ED2
:104DB0000F943F1BDC01CB018C199D09AE09BF0983
:104DC000B7FD02C00C94E53780E00E94E748F0CFC1
:104DD0000F94FB1481110C94E53760E070E080E5DE
:104DE0000E94D2E0D82E65E070E083E50E94D2E018
:104DF0007C01382E65E070E084E50E94D2E0282E28
:104E000040E050E060ED70E482E50E940DF84B0157
:104E10005C018091550587FF02C00C94F2378091A8
:104E20005605837011F00C94F23711E002E0012B6B
:104E30001091F812812F0E9485F818A619A61AA6BB
:104E40001BA640E050E060EA70EC4CA75DA76EA79F
:104E50007FA718AA19AA1AAA1BAA8CE0EAE9F2E00D
:104E6000DE015C9601900D928A95E1F732E0D31253
:104E700010C0011105C08FE597E00E9494F98FC220
:104E80001C8E1D8E1E8E1F8E48A359A36AA37BA362
:104E900024C000FD10C080918A0290918B02A091E5
:104EA0008C02B0918D028C8F9D8FAE8FBF8F88A7A3
:104EB00099A7AAA7BBA701FD10C080918E0290916F
:104EC0008F02A0919002B091910288A399A3AAA306
:104ED000BBA38CA79DA7AEA7BFA78091920290917C
:104EE0009302A0919402B09195028CA39DA3AEA3CE
:104EF000BFA388AB99ABAAABBBAB81E0D81629F0B6
:104F000092E0D91609F45EC1F1C128A539A54AA5D8
:104F10005BA56C8D7D8D8E8D9F8D0F949A914B012D
:104F20005C0120E030E0A9010F94978A882309F4FE
:104F300036C22CA53DA54EA55FA568A179A18AA181
:104F40009BA10F949A916B017C0120E030E0A901B4
:104F50000F94978A882309F422C28CE0EAE8F2E0F1
:104F6000DE01119601900D928A95E1F71CAE1DAEFF
:104F70001EAE1FAE88E0FE01B896DE01D496019009
:104F80000D928A95E1F7BE01645C7F4FCE01C49615
:104F90000F94E935220C20E030E0A901C501B401ED
:104FA0000F9462932401350187FF04C077FA70944F
:104FB00077F8709420E030E0A901C701B6010F94A2
:104FC000629387FF0AC0D701C601B05828968CAFFC
:104FD0009DAFAEAFBFAF289706C02896CCAEDDAE72
:104FE000EEAEFFAE2897A301920128966CAD7DAD81
:104FF0008EAD9FAD28970F94978A181614F07501FF
:105000006401A22DB0E02A96BFAFAEAF2A97BD01D2
:10501000BB0F880B990B0F949E8A9B01AC01C701B3
:10502000B6010F9423924B015C01D12CD31408F0EC
:1050300055C100E0802F002E000C990B2A96EEAD92
:10504000FFAD2A978E179F070CF05CC000FF05C0CC
:105050009E01245E3F4F790103C0CE0188967C01FA
:10506000A301920128966CAD7DAD8EAD9FAD2897C2
:105070000F94978A402F002E000C550B660B770B70
:105080001CAA1DAA1EAA1FAA1816ECF0CB01BA0171
:105090000F949E8AA50194010F94FD8A9B01AC0197
:1050A00068A579A58AA59BA50F949B916CAF7DAF50
:1050B0008EAF9FAFB7016C5F7F4FAE014C5C5F4F0F
:1050C000CE01CC961BC0CB01BA010F949E8AA501DC
:1050D00094010F94FD8A9B01AC016CA57DA58EA562
:1050E0009FA50F949B916CAF7DAF8EAF9FAFAE012C
:1050F0004C5C5F4FBE01645C7F4FC7010F94C735A6
:105100000F5F98CF022D07FD5BC000FF04C0DE01DA
:105110005C967D0103C0FE01B8967F01A301920158
:1051200028966CAD7DAD8EAD9FAD28970F94978A74
:10513000402F002E000C550B660B770B1CAA1DAAE6
:105140001EAA1FAA1816ECF0CB01BA010F949E8A72
:10515000A50194010F94FD8A9B01AC0168A579A576
:105160008AA59BA50F949B916CAF7DAF8EAF9FAF2F
:10517000B7016C5F7F4FAE014C5C5F4FCE01CC96A8
:105180001BC0CB01BA010F949E8AA50194010F9414
:10519000FD8A9B01AC016CA57DA58EA59FA50F94F2
:1051A0009B916CAF7DAF8EAF9FAFAE014C5C5F4FFC
:1051B000BE01645C7F4FC7010F94C7350150A3CF78
:1051C000D39434CF332009F4EAC08CE0EAE8F2E06B
:1051D000DE01119601900D928A95E1F71CAE1DAE8D
:1051E0001EAE1FAE88E0FE01B896DE01D496019097
:1051F0000D928A95E1F7BE01645C7F4FCE01C496A3
:105200000F94E93500E0E12CF12C24961CAE1DAE84
:105210001EAE1FAE2497B7010F2C000C880B990B04
:105220000F949E8A2CE739ED40E25FE30F94FD8AEC
:105230002B013C010F941E929B01AC01C501B401EE
:105240000F94FD8A9B01AC0168A179A18AA19BA161
:105250000F949B916CAF7DAF8EAF9FAFC301B20136
:105260000F94EA939B01AC01C501B4010F94FD8A30
:105270009B01AC016C8D7D8D8E8D9F8D0F949B91CC
:105280006CAB7DAB8EAB9FABAE01405C5F4FBE01A4
:10529000645C7F4FCE01C4960F94C735FFEFEF1AC1
:1052A000FF0A2AE0E216F10409F0AFCF0F5F031501
:1052B00008F4A9CF1CAE1DAE1EAE1FAE88E0FE01E5
:1052C000B896DE01D49601900D928A95E1F7BE0161
:1052D000645C7F4FCE01C4960F94E9351CAA1DAAC9
:1052E0001EAA1FAABE016C5C7F4F55C08CE0EAE885
:1052F000F2E0DE01119601900D928A95E1F71CAE65
:105300001DAE1EAE1FAE88E0FE01B896DE01D4963B
:1053100001900D928A95E1F76E0134E3C30ED11C22
:10532000BE01645C7F4FC6010F94E935FF24F594FC
:10533000E79400E05601802F90E08E159F0534F52C
:105340001CAE1DAE1EAE1FAE88E0FE017C96D501E0
:1053500001900D928A95E1F7BE01645C7F4FC60112
:105360000F94E9351CAE1DAE1EAE1FAE88E0FE01E7
:10537000B896D60101900D928A95E1F7BE01645C62
:105380007F4FC6010F94E9350F5FD5CF1CAA1DAA28
:105390001EAA1FAAB601CE0101960F94EF35812FE8
:1053A0000E9485F80C94E53781E00E94EE6D0C9424
:1053B000E53780E00E94EE6D0C94E5370F94FB1406
:1053C00081110C94E5378CE0E6EAF2E0DE011196FB
:1053D00001900D928A95E1F760E070E080E50E940F
:1053E000D2E0BE016F5F7F4F0F945E4B0C94E537A8
:1053F00080917F0E8770873011F00C94013860E047
:105400008FE40E940CBA81110C94E5370C9401389A
:105410008FE08093F7120C94E5378091590588232B
:1054200051F1893009F076C0BEE4CB2EB3E0DB2E1B
:105430001AE8E12E12E0F12E312C00E010E0D60146
:105440008D916D010E94F1F7882371F0812F0E94E8
:105450004DB4F7016083718382839383133011F419
:1054600001E002C0332433941F5FF4E0EF0EF11C1F
:10547000143029F744C0FEE4CF2EF3E0DF2EAAE873
:10548000EA2EA2E0FA2E312C00E010E0D6018D9138
:105490006D010E94F1F7882361F1812F0E944DB4C4
:1054A0004B015C01F70120813181428153810F94CE
:1054B0009A912B013C012DEB37E346E855EB0F9415
:1054C000629387FD0AC02DEB37E346E855E3C3013D
:1054D000B2010F94978A181664F4133011F401E0A6
:1054E00002C033243394D7018D929D92AD92BC9229
:1054F00013971F5FB4E0EB0EF11C143039F6332024
:1055000019F00F94323606C0002321F086E992E0AC
:105510000F946F060F9434360C94E53780916B022C
:10552000882311F40C94E53789E40E94F1F7E82E02
:10553000882321F00E9460F7F82E01C0F12C8AE444
:105540000E94F1F7082F882321F00E9460F7182F9E
:1055500001C010E0EE2019F0E4E0EF1520F0002388
:1055600041F0153030F083E897E00E9494F90C94F4
:10557000E53780E1EAE8F2E0A0E8BEE001900D92B4
:105580008A95E1F7EE2059F08F2D0E943BF8609349
:10559000800E7093810E8093820E9093830E002371
:1055A00059F0812F0E943BF86093840E7093850E12
:1055B0008093860E9093870E86E40F94F5126B010C
:1055C0007C0120E030E0A9010F94629318164CF49E
:1055D00020E030E040E752E4C701B6010F94239287
:1055E00003C060E070E0CB0169837A838B839C8386
:1055F000CE0101960F9449420C94E5370F94211186
:105600000C94E53780915A0590915B058C38910593
:1056100009F437C60CF09EC18235910509F471C6B4
:105620000CF0B0C08B31910509F48AC30CF056C060
:105630008531910509F4E4C2B4F58131910509F48D
:10564000CBC244F4029710F00C94C0370E94186E3D
:105650000C94E5378231910509F461C6449711F045
:105660000C94C0378AEB97E00E9494F982EF94E1A2
:105670000E94719E8BE1E2EFF4E1DE011196019050
:105680000D928A95E1F760E070E0CE0101960E94EC
:105690008CECCE0101960E942BBA8BEA97E00E9417
:1056A00094F90C94E5378831910509F4C8C26CF47B
:1056B0008631910509F4A8C2479711F00C94C037C0
:1056C000E0915705F0915805ACC28931910509F474
:1056D0001EC34A9709F426C30C94C0378A32910539
:1056E00009F46CC4ECF48E31910509F483C37CF4A5
:1056F0008C31910509F476C34D9711F00C94C037A5
:105700008091D5148E7F8093D5140C94E5378F311A
:10571000910509F4A8C3809709F47CC30C94C037A1
:105720008C34910509F47EC46CF48934910509F434
:1057300068C48B34910511F00C94C0370E94FD466B
:105740000C94E5378D34910509F46FC481359105CA
:1057500011F00C94C0370F9498640E94C18F0F947D
:1057600012080E94D34668EE73E080E090E00E9449
:1057700003F90E94104760E084E298E00F945B50C8
:105780000C94E5378E36910509F403C5DCF58836AF
:10579000910509F44DC4E4F48535910509F4C2C5B9
:1057A00054F48335910509F4B3C58435910509F4A2
:1057B000B6C50C94C0378C35910509F4CCC5843638
:1057C000910511F00C94C0370E9453B70C94E53743
:1057D0008B36910509F4D0C454F48936910509F447
:1057E00093C48A36910509F4A5C40C94C0378C364D
:1057F000910511F40C94E5378D36910509F433C405
:105800000C94C0378537910509F459C60CF083C054
:105810008137910509F413C55CF48F36910509F4BD
:10582000C9C48037910511F40C94E5370C94C03746
:105830008237910509F440C68337910511F00C9425
:10584000C03781E599E00E9494F960E081E499E035
:105850000E94AD6E60E08CE299E00E94AD6E61E066
:105860008EEA9EE00E94AD6E60E081E299E00E94C7
:10587000AD6E61E081E199E00E94AD6E60E088E08C
:1058800099E00E94AD6E61E08EEF98E00E94AD6EEF
:1058900061E084EF98E00E94AD6E60E08CEE98E0ED
:1058A0000E94AD6E61E08EED98E00E94AD6E61E009
:1058B00080ED98E00E94AD6E60E081EC98E00E947F
:1058C000AD6E61E083EB98E00E94AD6E61E08DE922
:1058D00098E00E94AD6E61E08CE898E00E94AD6EA9
:1058E00061E08DE798E00E94AD6E61E088E698E0A7
:1058F0000E94AD6E61E085E598E00E94AD6E60E0CB
:1059000088E498E00E94AD6E60E084E398E00E9435
:10591000AD6E0C94E5378837910509F41BC66CF41D
:105920008637910509F4DCC58737910511F00C9491
:10593000C0370F9413370C94E5378937910509F474
:1059400011C68D37910511F00C94C0370E9494DF79
:105950000C94E5378039F1E09F0711F40C948935F8
:105960000CF080C08D3C910509F412C7ECF5853A26
:10597000910509F4ADC6CCF48B39910509F49BC4AB
:1059800054F48139910509F4F4C58539910509F478
:1059900049C60C94C037833A910509F45EC6843A2F
:1059A000910509F482C60C94C037893C910509F42D
:1059B00095C66CF4863A910509F48DC68E3B910527
:1059C00011F00C94C0370E942A690C94E5378B3C87
:1059D000910509F4B4C68C3C910511F00C94C037C4
:1059E0000E94D7B30C94E5378C32A1E09A0709F4F2
:1059F000BEC7CCF48D3D910509F4DDC654F4833D5A
:105A0000910509F4C8C68C3D910509F4C7C60C94EC
:105A1000C037823E910509F419C78232914009F4DA
:105A200061C70C94C0378F32F1E09F0711F40C94DA
:105A3000863564F48D3231E0930709F4ADC78E32B8
:105A4000914011F40C9442350C94C0378033B1E08E
:105A50009B0709F4A4C78336914011F40C94643772
:105A60000C94C037883FF1E09F0711F40C940E3678
:105A70000CF055C0893A31E0930711F40C94993534
:105A80001CF58D39B1E09B0711F40C94A6376CF42A
:105A90008A39F1E09F0711F40C94E5378C39914075
:105AA00011F40C948C350C94C037843A31E0930790
:105AB00011F40C949635853A914011F00C94C0374E
:105AC0000E9450BB0C94E537853FB1E09B0711F471
:105AD0000C9408367CF4863EF1E09F0711F40C9498
