:100000000C9432230C9463230C9463230C94632389
:100010000C9463230C9463230C9463230C94632348
:100020000C9463230C9463230C9463230C94632338
:100030000C9463230D94DA570C9463230C9463237C
:100040000C9463230D94C2090C9463230C946323D2
:100050000C9463230C9463230D94CE150D94996A2C
:100060000C9463230C944E4D0C94444D0C946323D8
:100070000C9463230C9463230C9463230C946323E8
:100080000C9463230C9463230C9463230C946323D8
:100090000C9463230C9463230C9463230C946323C8
:1000A0000C9463230C9463230C9463230C946323B8
:1000B0000C9463230C9463230C9463230C946323A8
:1000C0000C9463230C9463230C9463230C94632398
:1000D0000C9463230C9463230C9463230C94632388
:1000E0000C946323844D8A4D9C4DAC4DB44DE44D2E
:1000F000B84DE44DBC4DC04DE44DC44DC84DCC4D44
:10010000D54DE44DE04DC0B6A3B6A6B6C3B6A9B66C
:10011000ACB6AFB6BBB6B2B6CEB6B5B6B8B6690178
:10012000F7029902370199029902990299029902FC
:1001300099029902990299029902990299029902E7
:1001400099029902990299029902990299029902D7
:10015000990299029902990299023B029902990225
:1001600099029902990299029902990281019902D0
:1001700099029902990299029902990299029902A7
:1001800099023F0167013901C3027D019302E30136
:10019000E7023F02DD01CB025302CF028502D90103
:1001A000A102E702190295015B01D5016D01CB01A6
:1001B000EF024502B501A301D10299019B010B0297
:1001C0006502F301B701B5012B02CD02430205A878
:1001D0004CCDB2D44EB93836A9020C50B9918688AC
:1001E000083CA6AAAA2ABE000000803F0763423648
:1001F000B79BD8A71A39685618AEBAAB558C1D3CB8
:10020000B7CC5763BD6DEDFD753EF6177231BF007B
:100210000000803F08000000BE922449123EABAAB5
:10022000AA2ABECDCCCC4C3E00000080BEABAAAA10
:10023000AA3E00000000BF000000803F0000000058
:1002400000084178D3BB4387D1133D190E3CC3BD91
:100250004282AD2B3E68EC8276BED98FE1A93E4C3E
:1002600080EFFFBE01C4FF7F3F00000000000D943F
:10027000CF610D94BF680C94565B0D94CB5F0D94C9
:10028000E6610C940D5B0C94BE910C94C0B60C947A
:100290007E9B0C9463B70C941F990C94BBB60C9482
:1002A0000BF50C94A6990C94C89C0C94498E0C9454
:1002B000A3B90C949C900D94F4680D94491F0C9470
:1002C000205C0C9420F50C9486C20C94A6B60D9478
:1002D0006E600D9493610C94809B0D94B8690C949E
:1002E000975D0C94905B0C942BF80C9416F60D947F
:1002F000AA570C94988B0C94AEAF0D94B1680C94E3
:10030000DD5A0D94A2610C947C9B0C94B5B60C94B0
:10031000E0900D94721F0C948EB20C94844D0C944A
:10032000B0890C9494B20C940A910D94F0680D94D9
:10033000476F0D94EB690D94F5690C9490B90C948A
:10034000AA890C94A9B60D94DB690C94C84D0C9441
:10035000A1C30C94F4BF0C9491B20C949FBA0C946A
:100360001C5C0C949BBC0C94E4C40D944A6A0D94E0
:10037000226A0C9481890C946EB20C94F2380C941D
:1003800074940C948A4D0C9497B20C9444B90C94C8
:10039000A5BA0C9404600D94BD690C941C600D9476
:1003A000D15F0C94E0C30C94665D0D94B3690C941A
:1003B0003AC10D94E2680C946B9B0D94CA680C943E
:1003C00045B70C945CB00D94BB680D942B280C942D
:1003D00017630C94F9C00C94EE5B0C949D8B0D94F8
:1003E000CE5F0C9454600D94186A0C94C69C0C94C7
:1003F00028B70C94E04D0D945B4C0C94C3B60C9450
:10040000F38F0C949C4D0C942CB50C9494C30C94C9
:10041000A8AF0C9459B70D94FF690C9490890C9473
:10042000355B0C94468D0C94DD910C9432650C94E4
:1004300086B20D94EC680C94355D0C94EF380C94F6
:10044000CA9C0C940A600C94495F0C947A5A0C94E0
:10045000D3700C94B0C60D942C6A0C944FB70C94C6
:1004600024AF0C94C95A0C9477C70C94CEB60C9454
:100470007BC10C94A78B0D94C9610C94A3B60D9409
:10048000C6680C94B1990D94406A0D94D1690C948E
:100490007AB20C94F8890C94FF5A0C94B8B60C9468
:1004A00013B80C94BD870D94D4680C9429910C94C6
:1004B00010600C94A0AF0C94B7C20D94A14B0D9496
:1004C00013130C9497AF0C9416600D94096A0C9456
:1004D000F8620C94AD970C94A0B90C947EB20C9475
:1004E000735B0C94B44D0C9466B20D94C84B0C9491
:1004F000C49C0C9460B80C94829B0C94EC5F0C949C
:10050000A7970C940AF50C94F85F0D94DE680C9490
:10051000BC890C94F25F0C9486890C94D54D0C9494
:10052000215B0C94AFB60D94B5680C94B6890C940D
:100530004AB70D9471600C94EE380C94CC4D0C9429
:10054000BC4D0D94E6680C94B1610C94B2B60C9459
:10055000B84D0C945EB70C94B35A0C94F25B0C94A7
:10056000C04D0C94C45B0C9443AF0C94AA970C94AC
:100570007A9B0C9431910C94FF900D9480570D94BC
:10058000831F0C94A6B90D94C2680C94E5AE0C942C
:100590006AB20C94E44D0D94D0680D94366A0D94B3
:1005A000D8680D94E3690C94A28B0C949F880C94EA
:1005B000C0F90C948B890C942CB70C944C9B0D9423
:1005C000656F0C9434F60C94F15A0C9482B20D942D
:1005D000F9680C94FE5F0C941CB70C9434FB0D94DA
:1005E000C7690C94CC9C0C948AB20C94C44D0D94A5
:1005F00038600C94435B0C94AC4D0C94ACB60C94EA
:1006000076B20C9472B20C947B920C9454B70C9406
:10061000AD5B4E414E494E495459494E46CDCCCC26
:100620003D0AD7233C17B7D13877CC2B329595E6C6
:10063000241FB14F0A000020410000C84200401CA6
:100640004620BCBE4CCA1B0E5AAEC59D7400407AF3
:1006500010F35A00A0724E18090010A5D4E800004B
:10066000E87648170000E40B54020000CA9A3B00E9
:100670000000E1F505000080969800000040420F60
:10068000000000A08601000000102700000000E824
:1006900003000000006400000000000A00000000E9
:1006A000000100000000002C76D888DC674F08238A
:1006B000DFC1DFAE59E1B1B796E5E3E453C63AE6F0
:1006C00051997696E8E6C28426EB898C9B62ED40D0
:1006D0007C6FFCEFBC9C9F40F2BAA56FA5F490051F
:1006E0005A2AF75C936B6CF9676DC11BFCE0E40D53
:1006F00047FEF520E6B500D0ED902E030094357747
:10070000050080841E080000204E0A000000C80C6E
:10071000333333330F986E12831141EF8D211489D7
:100720003BE65516CFFEE6DB18D1844B381BF77C31
:100730001D901DA4BBE424203284725E228100C976
:10074000F124ECA1E53D27434F4D4D554E49434122
:1007500054494F4E0044525952554E004552524F43
:100760005253004543484F0020643A0020693A0044
:1007700020703A00496E76616C6964206578747205
:10078000756465720A00536C6565702E2E2E0057D5
:1007900061726E696E67203A20436C65616E20431A
:1007A0006972636C65207265717569726573205832
:1007B000590A004D65736820706F696E742063611B
:1007C0006E6E6F74206265207265736F6C766564FF
:1007D0000A004E6F204D6F76652E00456E642066D0
:1007E000696C65206C6973740A00426567696E20E4
:1007F00066696C65206C6973740A00526573756D67
:10080000696E6720534400286E6F2066696C652905
:100810000043757272656E742066696C653A2000DB
:1008200025697920256964202569682025696D205E
:10083000256973005072696E742074696D653A2081
:1008400000452025530044454255473A004D31317B
:10085000332053003344205072696E746572204F08
:1008600046462E004348414D4245525F54454D5047
:1008700045524154555245004D4F54494F4E5F4DDE
:100880004F44455300544845524D414C5F50524FE0
:1008900054454354494F4E004155544F5245504FD3
:1008A00052545F53445F5354415455530050524F78
:1008B0004D50545F535550504F525400454D455282
:1008C00047454E43595F50415253455200434153AF
:1008D000455F4C494748545F4252494748544E454A
:1008E000535300544F47474C455F4C494748545376
:1008F00000534F4654574152455F504F57455200A1
:100900004255494C445F50455243454E54004C4576
:1009100056454C494E475F44415441005A5F50523E
:100920004F4245004155544F4C4556454C0050529E
:10093000494E545F4A4F420050524F47524553531D
:10094000004155544F5245504F52545F54454D50FD
:1009500000564F4C554D45545249430042494E4173
:1009600052595F46494C455F5452414E5346455299
:100970000053455249414C5F584F4E5F584F4646D1
:10098000004649524D574152455F4E414D453A4D03
:1009900061726C696E204275696C64203435372051
:1009A000284769744875622920534F555243455F63
:1009B000434F44455F55524C3A68747470733A2FF4
:1009C0002F6769746875622E636F6D2F5665727438
:1009D00061627265616B2F4D61726C696E2050525D
:1009E0004F544F434F4C5F56455253494F4E3A3147
:1009F0002E30204D414348494E455F545950453AA9
:100A00003344205072696E746572204558545255B3
:100A10004445525F434F554E543A31205555494451
:100A20003A38333666613934332D313333372D312B
:100A30003333372D313333372D39386132306465F4
:100A400037353630370A002F2F20004D313435200E
:100A5000533C696E6465783E206F7574206F662024
:100A600072616E67652028302D31290A0020466C9E
:100A70006F773A200050726F74656374656420501C
:100A8000696E0A006469730043290A0061626C653B
:100A90006420286D696E2074656D702000436F6C52
:100AA00064206578747275646573206172652000D6
:100AB00046696C616D656E742072756E6F75742019
:100AC000004D34323120696E636F72726563742039
:100AD000706172616D657465722075736167650A16
:100AE00000454550524F4D204F4B0A003F284229A8
:100AF000617564207261746520696D706C617573D5
:100B000069626C652E0A002053657269616C203041
:100B1000206261756420726174652073657420744D
:100B20006F20003F4B2076616C7565206F757420D7
:100B30006F662072616E67652028302D3130292E56
:100B40000A00416476616E6365204B3D004361732A
:100B500065206C696768743A200043617365206C96
:100B6000696768743A206F66660A00506F7765722D
:100B70002D6C6F7373207265636F766572792000D8
:100B800063072B135C07550747076F6B00526573AC
:100B9000656E643A200042656420436F6F6C696E35
:100BA000672E2E2E004265642048656174696E6769
:100BB0002E2E2E0023646566696E652044454641ED
:100BC000554C545F004B6420004B6920004B702053
:100BD00000504944204175746F74756E65206669D4
:100BE0006E6973686564212050757420746865208F
:100BF0006C617374204B702C204B6920616E6420F3
:100C00004B6420636F6E7374616E74732066726FD1
:100C10006D2062656C6F7720696E746F20436F6E14
:100C200066696775726174696F6E2E680A00504953
:100C300044204175746F74756E65206661696C65DA
:100C400064212074696D656F75740A000A20436C15
:100C5000617373696320504944200A00204B643A51
:100C60002000204B693A2000204B703A20000A20D7
:100C70004E6F206F76657273686F6F740A00205430
:100C8000753A2000204B753A2000206D61783A209B
:100C900000206D696E3A200020643A2000206269CD
:100CA00061733A2000504944204175746F74756E29
:100CB000652073746172740A005049442041757450
:100CC0006F74756E65206661696C6564212054657A
:100CD0006D706572617475726520746F6F206869DC
:100CE00067680A00504944204175746F74756E65D9
:100CF000206661696C6564212042616420657874B6
:100D00007275646572206E756D6265720A00457257
:100D1000723A207574663820666F6E74206E6F7438
:100D200020696E697469616C697A65642E00256852
:100D3000753A253032687500256875642025303293
:100D400068753A253032687500000C0D00FE070208
:100D50002603BC017FFE08FE08FE05080806000009
:100D600040F0C88888987810050808060000C0F888
:100D70008888888888F80505050600012030F83045
:100D8000200508080600002070F820202020E0053B
:100D900009090600FF2070A8A8B8888870200506F9
:100DA00006060001E08CEA8C8A0A0509090600FFA4
:100DB000F8A88888888888A8F8050A0A0600FE200E
:100DC0005050505088A8A8887003030306000340C1
:100DD000A040FFFFFFFFFFFFFFFFFFFFFFFFFFFF41
:100DE000FFFFFFFFFFFFFFFF0000000605FF0107F9
:100DF00007060200808080808000800303030601D4
:100E000005A0A0A005060606000050F85050F850B6
:100E10000509090600FF2070A8A07028A870200509
:100E20000707060000C8C810204098980507070665
:100E3000000040A0A040A8906801030306020580BE
:100E400080800309090601FF2040408080804040E7
:100E5000200309090601FF804040202020404080F7
:100E600005070706000020A8702070A820050505CA
:100E70000600012020F820200203030601FFC040E5
:100E800080050101060003F8020202060100C0C04D
:100E900005070706000008101020404080050707DE
:100EA000060000708898A8C888700307070601002C
:100EB00040C040404040E005070706000070880839
:100EC000102040F8050707060000F80810300888D1
:100ED0007005070706000010305090F81010050745
:100EE00007060000F880F00808887005070706006C
:100EF00000304080F0888870050707060000F80879
:100F000010102020200507070600007088887088D0
:100F1000887005070706000070888878081060024E
:100F20000505060100C0C000C0C00206060601FF9C
:100F3000C0C000C04080030505060101204080407C
:100F400020050303060002F800F803050506010169
:100F50008040204080050707060000708810202090
:100F600000200507070600007088B8A8B880700543
:100F70000707060000708888F88888880507070634
:100F80000000F04848704848F00507070600007068
:100F9000888080808870050707060000F048484870
:100FA0004848F0050707060000F88080F08080F8C8
:100FB000050707060000F88080F08080800507079D
:100FC000060000708880809888700507070600007A
:100FD000888888F8888888030707060100E0404071
:100FE000404040E005070706000038101010109040
:100FF000600507070600008890A0C0A0908805073C
:1010000007060000808080808080F80507070600C2
:101010000088D8A88888888805070706000088887F
:10102000C8A89888880507070600007088888888FF
:101030008870050707060000F08888F0808080052A
:10104000070706000070888888A8906805070706CB
:101050000000F08888F0A09088050707060000705F
:10106000888070088870050707060000F820202097
:101070002020200507070600008888888888887057
:101080000507070600008888888850502005070754
:1010900006000088888888A8A85005070706000071
:1010A00088885020508888050707060000888850E7
:1010B00020202020050707060000F80810204080A7
:1010C000F80309090601FFE080808080808080E0CD
:1010D000050707060000804040201010080309099A
:1010E0000601FFE020202020202020E00503030649
:1010F00000052050880501010600FEF803030306E1
:1011000001058040200505050600007008788878F4
:101110000507070600008080F0888888F00505052F
:101120000600007080808870050707060000080828
:1011300078888888780505050600007088F080703A
:10114000050707060000304840E04040400507071B
:101150000600FE708888887808700507070600007A
:101160008080F0888888880307070601004000C057
:10117000404040E00409090601FE10003010101044
:1011800010906005070706000080808890E0908836
:10119000030707060100C04040404040E005050548
:1011A000060000D0A8A8A8A8050505060000B0C83C
:1011B00088888805050506000070888888700507FE
:1011C000070600FEF0888888F08080050707060083
:1011D000FE78888888780808050505060000B0C8EC
:1011E00080808005050506000078807008F00507FE
:1011F000070600002020F82020201805050506001D
:101200000088888898680505050600008888885049
:10121000200505050600008888A8A85005050506D4
:10122000000088502050880507070600FE8888883F
:1012300050204080050505060000F8102040F80306
:1012400009090601FF20404040804040402001093C
:10125000090602FF808080808080808080030909E9
:101260000601FF80404040204040408005030306C7
:10127000000248A890FF206D61783A00206D696EE9
:101280003A004178697320005072696E746572206B
:1012900073746F707065642064756520746F206569
:1012A00072726F72732E20466978207468652065AB
:1012B00072726F7220616E6420757365204D3939CA
:1012C0003920746F20726573746172742E202854F3
:1012D000656D7065726174757265206973207265E1
:1012E0007365742E2053657420697420616674657B
:1012F000722072657374617274696E67290A004D99
:1013000038373620526573706F6E64696E6720508F
:10131000524F4D50545F00554E4B4E4F574E205339
:10132000544154450047434F44455F494E464F00A2
:101330004C43445F50415553455F524553554D45CD
:101340000046494C414D454E545F52554E4F555401
:101350005F434F4E54494E55450046494C414D451B
:101360004E545F52554E4F5554005075726765206C
:101370004D6F7265004572726F7220777269746981
:101380006E6720746F20454550524F4D210A006210
:101390007573793A2070617573656420666F722089
:1013A000696E7075740A00627573793A20706175A0
:1013B00073656420666F7220757365720A006275CA
:1013C00073793A2070726F63657373696E670A0090
:1013D0007061757365004D363030002066696C6150
:1013E0006D656E745F72756E6F7574200066696CE2
:1013F000616D656E745F72756E6F75742054004612
:10140000696C616D656E7452756E6F7574205400F1
:1014100053544F505045442E20004E6F2043686572
:10142000636B73756D2077697468206C696E6520D5
:101430006E756D6265722C204C617374204C696E00
:10144000653A2000636865636B73756D206D697321
:101450006D617463682C204C617374204C696E65F7
:101460003A20004C696E65204E756D626572206988
:1014700073206E6F74204C617374204C696E65200C
:101480004E756D6265722B312C204C617374204C4B
:10149000696E653A20004D313130004D31313700F1
:1014A0004D33310053442072656164206572726F60
:1014B000720A00446F6E65207072696E74696E679F
:1014C0002066696C650A002121204B494C4C206341
:1014D000617573656420627920746F6F206D756328
:1014E0006820696E6163746976652074696D652032
:1014F0002D2063757272656E7420636F6D6D616E01
:10150000643A2000252723181F211D1C19171B1EB4
:101510002E2C0C04400AFF41040908070001202872
:101520004E6F7420796574206D65617375726564A2
:101530002900202041766572616765206D656173C1
:1015400075726564206261636B6C61736820286DDD
:101550006D293A002020536D6F6F7468696E6720A3
:10156000286D6D293A2020202020202020202020B6
:10157000202020202020530020204261636B6C61DA
:1015800073682044697374616E636520286D6D29EA
:101590003A202020202020202000202846312E30F4
:1015A000203D2066756C6C2C2046302E30203D206E
:1015B0006E6F6E65290A002020436F727265637436
:1015C000696F6E20416D6F756E742F466164652D75
:1015D0006F75743A2020202020460061637469767C
:1015E000653A0A004261636B6C61736820436F72F5
:1015F00072656374696F6E200020595A3A2000208A
:10160000585A3A20002058593A2000536B657720E9
:10161000466163746F72006D696E5F736B65775FAF
:10162000666163746F723A20202D31206D61785F9E
:10163000736B65775F666163746F723A2020310A5D
:1016400000416363656C65726174696F6E3A205026
:10165000003F4A206F7574206F662072616E676567
:101660002028302E303120746F20302E33290A008C
:1016700020633A00204D393220580020204D6178F7
:101680003A200020204D696E3A2000536F66742086
:10169000656E6473746F70733A20004D323420535A
:1016A000256C642054256C64004739322E3920455E
:1016B00025730047312046256400473120453120FD
:1016C0004633303030004739322E39205A257300E6
:1016D0004731205A302046323030004731205825DB
:1016E0007320592573204633303030004731204570
:1016F000312046323030004D3432302053256920BD
:101700005A2573004D313036205025692053256904
:10171000004739322E392045305A300A47315A3283
:101720000A47323852305859004D34323020533045
:10173000205A300020496E76616C696420657874A7
:10174000727564657220004C6F6164206D6D005588
:101750006E6C6F6164206D6D00416476616E6365CF
:10176000204B0020082046616374002008204D6152
:1017700078002008204D696E004175746F74656DA6
:1017800070005654726176204D696E00566D696E18
:1017900000566D6178204500566D6178205A0056DC
:1017A0006D6178205900566D61782058003F45459D
:1017B00050524F4D2073746F72616765206E6F7465
:1017C00020617661696C61626C652E0A00507269F5
:1017D0006E74696E67204F626A65637400255320DA
:1017E0002569002F2F616374696F6E3A006275740A
:1017F000746F6E0070726F6D70745F0073686F77D6
:1018000000486F74656E6420746F6F20636F6C6442
:101810000A0053656E64204D31303820746F207299
:101820006573756D650A0052656865617420446F63
:101830006E6500526568656174696E67005265681F
:101840006561740048656174657254696D656F7592
:10185000740053656E64204D31303820746F2068F9
:10186000656174206E6F7A7A6C650A004E6F7A7AC1
:101870006C65205061726B6564007061757365649E
:10188000004D3630303A20546F6F20436F6C640047
:10189000726573756D656400526573756D696E6709
:1018A00000426564204C6576656C696E6720004671
:1018B00061696C656420746F20656E61626C65207F
:1018C000426564204C6576656C696E670A00496EF6
:1018D00076616C6964206D6573682E0A0076616CB0
:1018E00069640A53746F7261676520736C6F743A30
:1018F00020004D65736820697320003F496E766152
:101900006C69642073746F7261676520736C6F74A7
:101910002E0A003F2061646472657373203A2000D0
:10192000206279746573206F66206D656D6F7279C2
:1019300020696E697469616C697A65642E0A0A00AF
:10194000556E61626C6520746F20696E697469619F
:101950006C697A652E0A0A00496E697469616C695E
:101960007A696E672066726565206D656D6F727944
:1019700020626C6F636B2E0A0A0A00747275650A26
:10198000002072657475726E3D000A4D656D6F7250
:101990007920436F7272757074696F6E206465741C
:1019A000656374656420696E2066726565206D6587
:1019B0006D6F727920617265612E0A002020626C61
:1019C0006F636B5F666F756E643D002020200A00B8
:1019D0002920666F756E643D002020204D656D6F77
:1019E000727920636F7272757074696F6E206465AE
:1019F000746563746564207769746820656E645FDC
:101A0000667265655F6D656D6F72793C4865617082
:101A10000A0020656E645F667265655F6D656D6F57
:101A20007279203C204865617020002020656E643A
:101A30005F667265655F6D656D6F72793D000A6600
:101A40007265655F6D656D6F72795F7374617274D5
:101A50003D000A666D632829206E3D00636865635A
:101A60006B5F666F725F667265655F6D656D6F72E5
:101A7000795F636F7272757074696F6E2829203D8B
:101A800020004D313030204620002062797465738B
:101A900020617420000A4C6172676573742066725D
:101AA000656520626C6F636B20697320002062792A
:101AB00074657320667265652061742000466F75D9
:101AC0006E6420000A436F7272757074696E6720CD
:101AD000616464726573733A2000436F727275704B
:101AE00074696E672066726565206D656D6F7279C9
:101AF00020626C6F636B2E0A0A000A537461636B79
:101B000020506F696E7465722020202020202020D4
:101B1000203A20000A667265655F6D656D6F7279A7
:101B20005F656E64202020202020203A20000A6675
:101B30007265655F6D656D6F72795F7374617274E4
:101B400020202020203A20000A6273735F656E64B3
:101B50002020202020202020202020202020203A6B
:101B60002000040000050100030005010005040039
:101B7000000005000300711B6C1B671B621B00004B
:101B8000000000007F420000FF4200403F43000091
:101B90007F435374616E6461726420446576696149
:101BA00074696F6E3A20004D65616E204D657368F3
:101BB000204865696768743A200023206F662073A7
:101BC000616D706C65733A200020616E64207461F1
:101BD0006B652061206D6561737572656D656E74EE
:101BE0002E0A006D6D20746869636B2E0A004275C1
:101BF00073696E657373204361726420697320009A
:101C000052656D6F76652026204D6561737572652E
:101C1000204265640052656D6F7665207368696D5A
:101C200000506C616365207368696D20756E646532
:101C300072206E6F7A7A6C65004D65736820506F04
:101C4000696E74204D656173757265642061743AC4
:101C500020000A4D657368206F6E6C792070617288
:101C60007469616C6C7920706F70756C61746564F7
:101C70002E0A00506C616365205368696D20262030
:101C80004D656173757265004D6F76696E6720747E
:101C90006F206E657874004D6573682045646974C3
:101CA000696E672053746F7070656400446F6E6571
:101CB0002045646974696E67204D6573680A004445
:101CC0006F6E652045646974696E67204D65736841
:101CD0000046696E652054756E696E67204D6573A8
:101CE000680028582C5929206F7574736964652021
:101CF0007072696E7461626C65207261646975737B
:101D00002E0A004F6666736574206F7574206F66C7
:101D100020626F756E64732E20283020746F20311E
:101D2000306D6D290A0A00496E76616C6964206D18
:101D3000617020747970652E0A0A003F43616E2736
:101D40007420616374697661746520616E642064D7
:101D50006561637469766174652061742074686577
:101D60002073616D652074696D652E0A0A00426FEB
:101D70007468205820262059206C6F636174696F45
:101D80006E73206D7573742062652073706563696E
:101D9000666965642E0A0A00473239204A20616369
:101DA00074696F6E20726571756972657320612048
:101DB00070726F62652E0A0A003F285029686173AD
:101DC000652076616C756520696E76616C6964204A
:101DD00028302D36292E0A0A00473239205031206A
:101DE000726571756972657320612070726F6265CA
:101DF0002E0A0A003F2856296572626F7365206CAF
:101E00006576656C20696D706C61757369626C656F
:101E10002028302D34292E0A0A003F2852296570C7
:101E200065746974696F6E20636F756E7420696E76
:101E300076616C69642028312B292E0A0A00446FD0
:101E4000696E672047323900646F6E650A00496E1B
:101E500073756666696369656E7420646174610A8E
:101E6000004578747261706F6C6174696E67206D83
:101E70006573682E2E2E004F6E0054656D7065726E
:101E800061747572650043616E6E6F7420656E7467
:101E90006572207375626469723A2000022E2E000A
:101EA000536F667420456E6473746F7073004D38A1
:101EB000340044697361626C6520537465707065A9
:101EC0007273004C6576656C20436F726E65727339
:101ED00000473238205A00486F6D65205A0047325B
:101EE00038205900486F6D65205900473238205816
:101EF00000486F6D652058004175746F20486F6D04
:101F000065005072656865617420504C4120456ED3
:101F100064005072656865617420504C41204265D0
:101F200064005072656865617420504554472045CF
:101F30006E64005072656865617420504554472096
:101F40004265640043616E63656C204F626A65633D
:101F50007400416476616E636564205365747469CE
:101F60006E6773004E65787420506F696E74004E12
:101F7000657874004E4F005945530043616E6365A8
:101F80006C204F626A656374203D004C6967687419
:101F9000204272696768746E6573730046616E20D3
:101FA0005370656564004C6F616420536574746997
:101FB0006E677300526573746F7265206661696C39
:101FC000736166650053746F72652053657474693C
:101FD0006E677300507265686561742050455447A0
:101FE00020436F6E66005072656865617420504CC6
:101FF0004120436F6E660043617365204C696768DA
:1020000074004732380A4732392050342052323572
:10201000350A47323920410A4D35303000473239D0
:102020002050340A4D353030004D33303320553197
:1020300020453020533235302043380A4D3530307A
:10204000004D33303320553120452D312053393068
:102050002043380A4D353030004D393030204B3078
:102060000A4D353030004D393030204B302E320A99
:102070004D353030004D393030204B302E330A4D45
:10208000353030004D393030204B302E340A4D354C
:102090003030004D393030204B302E350A4D353040
:1020A00030004D393030204B302E360A4D3530302F
:1020B000004C696E20416476204B302E35004C690F
:1020C0006E20416476204B302E34004C696E2041E6
:1020D0006476204B302E33004C696E2041647620AC
:1020E0004B302E32004C696E20416476204F66667C
:1020F0000050494474756E6520426564005049443F
:1021000074756E6520486F74656E640041646A750D
:10211000737420506F696E74204E656172004C6953
:102120006E20416476204B302E36004D616E756115
:102130006C2055424C00416D6178204500416D6135
:1021400078205A00416D6178205900416D617820F6
:102150005800412D54726176656C00412D526574B2
:102160007261637400416363656C004A756E6374E9
:10217000696F6E20446576004573746570732F6DCA
:102180006D005A73746570732F6D6D0059737465AB
:1021900070732F6D6D005873746570732F6D6D00C3
:1021A000496E697400496E697469616C697A652069
:1021B000454550524F4D004261636B6C617368003E
:1021C00053746570732F6D6D004A65726B004163C7
:1021D00063656C65726174696F6E0056656C6F63E0
:1021E00069747900536D6F6F7468696E6700436F2F
:1021F0007272656374696F6E0000007F4300007F38
:102200004300007A432062797465733B20637263F4
:10221000200053657474696E67732053746F726520
:10222000642028004E6F20454550524F4D2E0A0025
:10223000454550524F4D206461746173697A652041
:102240006572726F722E0A003F4D65736820746F5D
:102250006F2062696720666F7220454550524F4D6E
:102260002E0A0055424C2072657365740A00206C7A
:102270006F616465642066726F6D2073746F726144
:1022800067652E0A004D65736820003F43616E2725
:102290007420656E61626C6520002073746F7265D6
:1022A000642073657474696E6773207265747269F3
:1022B00065766564202800202863616C63756C6115
:1022C00074656429210A0020213D200045455052B3
:1022D0004F4D20435243206D69736D6174636820D4
:1022E0002D202873746F726564292000496E64651F
:1022F000783A2000204D61726C696E3D5637342962
:102300000A00454550524F4D2076657273696F6ED5
:10231000206D69736D617463682028454550524F84
:102320004D3D0052756E6F75742053656E736F72FC
:1023300000554E4C4F41442046494C414D454E546A
:102340000046494C414D454E54204348414E474577
:10235000004F7574616765205265636F76657279A9
:1023600000436F6E66696775726174696F6E003FD6
:102370000043616E63656C004D3730322054256434
:10238000004D36303020423020542564004D373027
:1023900032203B2564004D37303120542564004DF8
:1023A000373032004D373031004D3630302042303A
:1023B000005075726765206D6F7265005245535508
:1023C0004D45204F5054494F4E533A005052494EBC
:1023D00054205041555345440020204E6F7A7A6C6A
:1023E000653A20004D313030300053746F7020500A
:1023F00072696E7400526573756D65205072696EF6
:10240000740053746F70004D3231004368616E6721
:1024100065204D65646961004175746F7374617204
:10242000740054756E65004E6F204D6564696100DF
:102430005374617274205072696E74005061726BD3
:10244000696E672E2E2E0000005761697420666F3A
:10245000720066696C616D656E74206368616E6799
:102460006500746F20737461727400576169742021
:10247000666F720066696C616D656E7420756E6C56
:102480006F616400004E6F7A7A6C652068656174D4
:10249000696E6700506C6561736520776169742EA1
:1024A0002E2E0000507265737320627574746F6E07
:1024B00000746F2068656174206E6F7A7A6C6500B5
:1024C00000496E736572742066696C616D656E7427
:1024D00000616E6420707265737320627574746F2E
:1024E0006E00746F20636F6E74696E75650057615E
:1024F000697420666F720066696C616D656E742028
:102500006C6F61640000507265737320427574745F
:102510006F6E00746F20726573756D6520707269DF
:102520006E7400005761697420666F722070726962
:102530006E7400746F20726573756D652E2E2E009B
:10254000005761697420666F720066696C616D6521
:102550006E7420707572676500004E6F7A7A6C65D4
:10256000004D61696E004D31303920532569004DB1
:102570003139302053256900436F6F6C646F776E7B
:102580000046616E205370656564203D00426162C3
:102590007973746570205A00466C6F77004D6573CF
:1025A0006820456469746F72004265642054656DEB
:1025B0007000486F74656E642054656D700047321A
:1025C000392050362043202D004865696768742003
:1025D000416D6F756E740000FE0003FF8007C7C079
:1025E0000701E00000E00000F00000700400700E41
:1025F00000701F00703F80F00E00E00F01E007C781
:10260000C003FF8000FE0000FE0003FF8007C7C07C
:102610000F01E00E00E03F80F01F00700E0070041C
:1026200000700000700000F00000E00701E007C744
:10263000C003FF8000FE000E000E000E000E000E14
:10264000000E000E000E007FC03F801F000E000431
:102650000004000E001F003F807FC00E000E000E21
:10266000000E000E000E000E000E00FFFFFF7F8028
:10267000FFC0FFC0FFC07F807F80FFC0FFC0FFC0E2
:102680003F001E000C00496E666F20536372656543
:102690006E0041646A757374204D657368204865E7
:1026A0006967687400473239205034205400466905
:1026B0006E652054756E6520436C6F73657374008E
:1026C00047323620432042256920482569205000A2
:1026D00056616C696461746520437573746F6D2015
:1026E0004D657368004732380A473236204320422E
:1026F0003730204832353020500056616C696461B3
:102700007465204D6573682028504554472900475B
:1027100032380A47323620432042363020483230A1
:102720003020500056616C6964617465204D65739A
:10273000682028504C412900473239204A25690039
:102740004C6576656C204D6573680053696465203F
:10275000506F696E74730047726964204D657368C9
:10276000204C6576656C696E6700473239204A30C7
:1027700000332D506F696E74204C6576656C696E00
:102780006700473239205033205220432E256900FC
:102790004D616E75616C2046696C6C2D696E0046EA
:1027A000696C6C2D696E20416D6F756E74004D659E
:1027B000736820696E76616C6964617465642E0A61
:1027C00000473239204900496E76616C6964617452
:1027D0006520436C6F7365737400496E76616C6934
:1027E0006461746520416C6C00473239205031209F
:1027F0004300436F6E74696E756520426564204DB9
:102800006573680046696C6C2D696E204D65736850
:10281000004275696C6420437573746F6D204D655B
:102820007368004732380A4D313930205337300A47
:102830004D31303920533235300A4732392050314A
:102840000A4D3130342053300A4D3134302053306A
:10285000004275696C64204D6573682028504554AA
:102860004729004732380A4D313930205336300A73
:102870004D31303920533230300A4732392050310F
:102880000A4D3130342053300A4D3134302053302A
:10289000004275696C64204D6573682028504C4176
:1028A00029004D313137204D657368202569204C52
:1028B0006F6164656400473239204C2569004D31F1
:1028C0003137204D65736820256920536176656432
:1028D0000047323920532569004C6F6164204265FE
:1028E00064204D657368004D656D6F727920536C7F
:1028F0006F74004E6F2053746F72616765002074AF
:102900006F6F206C6F6E6720657874727573696F76
:102910006E2070726576656E7465640A0020636F60
:102920006C6420657874727573696F6E207072655F
:1029300076656E7465640A0024F4D43050C38E202A
:10294000C2A24017828B7011127A910D816CD90A44
:10295000A861E108C7586607615143061E4B5D0533
:10296000C145A7041A411104093D98037139310387
:102970004036DB0265339102D4305402802E1D02B2
:10298000632CEE01752AC501B028A0011027810132
:102990008F2564012B244B01E0223401AC211F015F
:1029A0008D200D01801FFC00841EED00971DDF00AF
:1029B000B81CD200E61BC600201BBC00641AB20083
:1029C000B219A8000A19A0006A189900D11791003D
:1029D00040178B00B516840031167E00B3157900C0
:1029E0003A157300C7146F0058146A00EE1366009E
:1029F0008813630025135E00C7125B006C1257003A
:102A000015125400C111510070114F0021114B00DB
:102A1000D61049008D1047004610440002104200B5
:102A2000C00F4000800F3E00420F3C00060F3B00ED
:102A3000CB0E3800930E37005C0E3500270E3400A5
:102A4000F30D3200C10D3100900D3000600D2E00ED
:102A5000320D2D00050D2C00D90C2B00AE0C2900D9
:102A6000850C29005C0C2700350C27000E0C260075
:102A7000E80B2400C40B2400A00B23007D0B2300D3
:102A80005A0B2100390B2100180B2000F80A1F00F7
:102A9000D90A1E00BB0A1E009D0A1D00800A1D00E7
:102AA000630A1C00470A1B002C0A1B00110A1A00AB
:102AB000F7091A00DD091900C4091900AB0919004A
:102AC000920917007B091800630917004C091600CA
:102AD00036091600200916000A091500F508150028
:102AE000E0081400CC081400B8081400A40814006E
:102AF000900813007D0812006B081300580812009C
:102B000046081200340811002308110012081100B1
:102B100001081100F0071000E0071000D0071000B6
:102B2000C0071000B0070F00A107100091070E00AA
:102B300083070F0074070F0065070E0057070E008C
:102B400049070E003B070D002E070E0020070D0061
:102B500013070D0006070D00F9060C00ED060D0029
:102B6000E0060C00D4060C00C8060C00BC060C00E5
:102B7000B0060C00A4060B0099060C008D060B0095
:102B800082060B0077060B006C060B0061060A003C
:102B900057060B004C060A0042060A0038060A00D7
:102BA0002E060A0024060A001A060A00100609006A
:102BB00007060A00FD050900F4050900EB050900F8
:102BC000E2050900D9050900D0050900C70509007B
:102BD000BE050900B5050800AD050800A5050900FA
:102BE0009C050800940508008C0508008405080071
:102BF0007C050800740508006C05070065050800E1
:102C00005D050700560508004E050700470507004B
:102C10004005080038050700310507002A050700B0
:102C2000230507001C050600160507000F05070011
:102C30000805060002050700FB040600F50407006E
:102C4000EE040600E8040600E2040700DB040600C8
:102C5000D5040600CF040600C9040600C30406001C
:102C6000BD040600B7040600B1040500AC0406006C
:102C7000A6040600A00405009B04060095040500B8
:102C8000900406008A0405008504050080040600FF
:102C90007A04050075040500700405006B04050046
:102CA00066040500610405005C0405005704050086
:102CB000520405004D0405004804050043040500C6
:102CC0003E0404003A040500350405003004040005
:102CD0002C04050027040400230405001E0404003E
:102CE0001A04040016040500110404000D04040075
:102CF000090405000404040000040400FC030400AB
:102D0000F8030400F4030400F0030400EC030400DF
:102D1000E8030400E4030400E0030400DC0304000F
:102D2000D8030400D4030400D0030400CC0304003F
:102D3000C8030300C503030024F404D9201BC40CFA
:102D40005C0E9804C4095F0265077101F405F9007F
:102D5000FB04B30048048700C10369005803550011
:102D600003034500BE023A008402310053022A00E8
:102D70002902250004022000E4011C00C8011900FA
:102D8000AF011700980114008401130071011000B5
:102D90006101100051010E0043010D0036010B00CE
:102DA0002B010B0020010B00150109000C0109008B
:102DB00003010800FB000800F3000800EB00070017
:102DC000E4000600DE000600D8000600D20006007F
:102DD000CC000500C7000500C2000500BD000400CE
:102DE000B9000400B5000400B1000400AD00040007
:102DF000A9000400A5000300A20003009F00040036
:102E00009B0003009800030095000200930003005C
:102E1000900003008D0002008B0003008800020078
:102E20008600020084000300810002007F0002008F
:102E30007D0002007B0002007900020077000100A3
:102E400076000200740002007200010071000200AE
:102E50006F0002006D0001006C0002006A000100BA
:102E600069000200670001006600010065000100C2
:102E700064000200620001006100010060000100C6
:102E80005F0002005D0001005C0001005B000100CA
:102E90005A000100590001005800010057000100CC
:102EA00056000100550001005400010053000000CD
:102EB00053000100520001005100010050000100C8
:102EC0004F0001004E0000004E0001004D000100C7
:102ED0004C0001004B0000004B0001004A000100C3
:102EE00049000100480000004800010047000100BF
:102EF00046000000460001004500000045000100BA
:102F000044000100430000004300010042000000B3
:102F100042000100410000004100010040000100AA
:102F20003F0000003F0001003E0000003E000100A5
:102F30003D0000003D0001003C0000003C0000009E
:102F40003C0001003B0000003B0001003A00000093
:102F50003A0001003900000039000100380000008B
:102F60003800000038000100370000003700010081
:102F70003600000036000000360001003500000079
:102F8000350000003500010034000000340000006E
:102F90003400010033000000330000003300010062
:102FA0003200000032000000320001003100000059
:102FB000310000003100010030000000300000004E
:102FC000300001002F0000002F0000002F00000043
:102FD0002F0001002E0000002E0000002E00010036
:102FE0002D0000002D0000002D0000002D0001002C
:102FF0002C0000002C0000002C0000002C00010020
:103000002B0000002B0000002B0000002B00010013
:103010002A0000002A0000002A0000002A00010007
:1030200029000000290000002900000029000000FC
:1030300029000100280000002800000028000000EE
:1030400028000000280001002700000027000000E1
:1030500027000000270000002700010026000000D4
:1030600026000000260000002600000026000100C7
:1030700025000000250000002500000025000000BC
:1030800025000000250001002400000024000000AD
:1030900024000000240000002400010023000000A0
:1030A0002300000023000000230000002300000094
:1030B0002300000023000100220000002200000085
:1030C0002200000022000000220000002200010077
:1030D000210000002100000021000000210000006C
:1030E000210000002100000021000100200000005C
:1030F0002000000020000000200000002000000050
:103100002000000020000000200001001F0000003F
:103110001F0000001F0000001F0000001F00000033
:103120001F0000001F0001001E0000001E00000024
:103130001E0000001E000000232C0000B82200002A
:10314000561800003A0F0000B8080000B104000053
:10315000710200003E0100007C3C3E5E2B3D3F2F93
:103160005B5D3B2C2A225C004732392050342052D0
:103170003939392054004732380A47323920503122
:10318000004D6F74696F6E00486F6D696E672058EF
:10319000595A004732392050342058257320592578
:1031A000732052256900202D2D2D2D2D00473238FA
:1031B0000047323920532D31004F66662050726926
:1031C0006E746572204261636B75700047323920FE
:1031D0005431004F757470757420666F72204353BC
:1031E0005600473239205430004F75747075742082
:1031F000666F7220486F73740045646974204D6572
:1032000073680047323920493939390A4732392041
:1032100050322042205430004D616E75616C6C79E3
:10322000204275696C64204D65736800372E205309
:1032300061766520426564204D65736800362E20F6
:1032400046696E652054756E6520416C6C00352EA4
:103250002056616C6964617465204D657368003443
:103260002E2046696E652054756E6520416C6C0099
:10327000332E2056616C6964617465204D657368F6
:103280000047323920503320543000322E20536D05
:103290006172742046696C6C2D696E00312E20427B
:1032A00075696C6420436F6C64204D6573680047DA
:1032B00032392057004F75747075742055424C2078
:1032C000496E666F0055424C20546F6F6C73004F0F
:1032D0007574707574204D657368204D6170004D74
:1032E0006573682053746F72616765004D6573681C
:1032F000204564697400537465702D42792D5374B0
:1033000065702055424C00473239204100416374BA
:1033100069766174652055424C004732392044007B
:10332000446561637469766174652055424C00653B
:1033300063686F3A004572726F723A0020204D3414
:1033400032312049002020473239204939390A00DA
:103350006163746976650A002053797374656D2022
:1033600076312E303120002020207C0A004E414E44
:103370000020202E20202000207C004C43443A0ACC
:10338000004353563A0A0020666F7220003A0A0A38
:10339000000A42656420546F706F677261706879CB
:1033A000205265706F727400446F6E652E0A003F84
:1033B000496E76616C69642073746F726167652011
:1033C000736C6F742E0A3F557365203020746F2024
:1033D000004732392050322066696E69736865642F
:1033E0002E0A005859206F757473696465207072D5
:1033F000696E7461626C65207261646975732E0A0E
:10340000003F4572726F7220696E20427573696E5B
:103410006573732043617264206D656173757265B5
:103420006D656E742E0A004D616E75616C6C79204D
:1034300070726F62696E6720756E72656163686134
:10344000626C65206D657368206C6F636174696F71
:103450006E732E0A004D657368207A65726F65641D
:103460002E0A0044656661756C742073746F726116
:10347000676520736C6F7420302073656C656374AE
:1034800065642E0A004C6F6164696E672074657311
:10349000745F7061747465726E2076616C756573AB
:1034A0002E0A0A00496E76616C6964207465737433
:1034B0005F7061747465726E2076616C75652E2024
:1034C000282D3120746F2032290A0A004C6F636165
:1034D00074696F6E7320696E76616C69646174657E
:1034E000642E0A0A00456E74697265204D65736822
:1034F00020696E76616C6964617465642E0A0A00E5
:10350000000020C100000000000000000000204278
:1035100000002042000080400202020000A04000A3
:1035200000A0400000A0400080844300007F4300D2
:10353000007A43FFFFFF00000001000000010000CF
:103540008000555555000000400033333300AAAACF
:103550002A004992240000002000C7711C0099999C
:103560001900D1451700555515003BB113002449EA
:10357000120011111100000010000F0F0F00E338AE
:103580000E0043790D00CCCC0C00C3300C00E8A237
:103590000B0064210B00AAAA0A00703D0A009DD806
:1035A0000900427B090092240900DCD308008888C6
:1035B00008001042080000000800F0C107008787DB
:1035C000070075500700711C07003EEB0600A1BC08
:1035D00006006990060066660600703E06006118E7
:1035E000060017F4050074D105005BB00500B29029
:1035F0000500627205005555050078390500B81EB2
:103600000500050505004EEC040087D40400A1BDAB
:10361000040090A7040049920400C17D0400EE69F3
:103620000400C7560400444404005C32040008212E
:10363000040041100400000004003FF00300F8E023
:10364000030026D20300C3C30300CCB503003AA88D
:1036500003000A9B0300388E0300C08103009F759E
:103660000300D0690300505E03001D53030034487B
:103670000300913D03003333030016290300381F74
:10368000030097150300300C0300030303000BFA3B
:10369000020049F10200BAE802005CE002002DD805
:1036A00002002DD0020059C80200B0C0020031B99A
:1036B0000200DAB10200AAAA0200A0A30200BC9C88
:1036C0000200FA9502005C8F0200DF88020082820D
:1036D0000200457C02002776020027700200436A40
:1036E00002007C640200D05E02003F590200C85311
:1036F0000200FFFDFCFAF8F6F4F2F0EEECEAE9E77E
:10370000E5E3E1E0DEDCDAD9D7D5D4D2D0CFCDCB3A
:10371000CAC8C7C5C3C2C0BFBDBCBAB9B7B6B4B3C7
:10372000B2B0AFADACAAA9A8A6A5A4A2A1A09E9D27
:103730009C9A99989795949392908F8E8D8B8A8965
:1037400088878684838281807F7E7D7B7A79787783
:10375000767574737271706F6E6D6C6B6A69686781
:10376000666564636261605F5E5D5C5B5A59585870
:103770005756555453525150504F4E4D4C4B4A4A48
:103780004948474646454443424241403F3E3E3D0C
:103790003C3B3B3A393838373635353433323231C1
:1037A00030302F2E2E2D2C2B2B2A29292827272667
:1037B000252524232322212120201F1E1E1D1C1C01
:1037C0001B1B1A191918181716161515141313128E
:1037D000121111100F0F0E0E0D0D0C0C0B0A0A0911
:1037E0000908080707060605050404030302020189
:1037F00000005761726E696E673A20486F6D696E9E
:10380000672042756D702044697669736F72203C41
:1038100020310A00453100626564002C2073797301
:1038200074656D2073746F707065642120486561E4
:103830007465725F49443A200048656174696E6737
:10384000204661696C65640048656174696E672033
:103850006661696C656400202D20496E76616C6933
:1038600064206578747275646572206E756D62652A
:103870007220210A004572723A204D415854454D3C
:1038800050004D415854454D50207472696767652A
:10389000726564004572723A204D494E54454D5050
:1038A000004D494E54454D502074726967676572EA
:1038B0006564004D3834204500202F002042403AF6
:1038C0000020403A0020573A0070012C0190012757
:1038D00001B0012201C0011D01F001180110021305
:1038E0000130020E016002090190020401C002FFD2
:1038F000000003FA004003F5008003F000D003EB62
:10390000002004E6007004E100E004DC004005D77C
:1039100000C005D2004006CD00D006C8008007C315
:10392000003008BE00F008B900C009B400B00AAF0A
:1039300000B00BAA00D00CA500000EA000500F9BF9
:1039400000C01096005012910000148C00C0158722
:1039500000B0178200B0197D00D01B7800001E73E4
:103960000040206E0090226900F024640040275F30
:103970000090295A00E02B5500102E500020304BAB
:103980000010324600E033410090353C00103737DC
:103990000070383200A0392D00B03A2800A03B2337
:1039A00000603C1E00103D1900903D1400103E0FB9
:1039B00000703E0A00C03E0500003F0000403FFB93
:1039C000FF803FF6FFC03FF1FF2053697A653A2040
:1039D0000043616E6E6F74206F70656E2073756248
:1039E000646972200053442063617264206F6B0A23
:1039F000006F70656E526F6F74206661696C6564EC
:103A00000A00766F6C756D652E696E69742066614B
:103A1000696C65640A00534420696E6974206661AC
:103A2000696C0A004D32332025730046696C6520AD
:103A300073656C65637465640A0046696C65206F24
:103A400070656E65643A2000454E442053554252DD
:103A50004F5554494E450A002220706F73002220B2
:103A6000706172656E743A2200535542524F55543C
:103A7000494E452043414C4C207461726765743A4D
:103A80002200747279696E6720746F2063616C6CB8
:103A9000207375622D67636F64652066696C65735A
:103AA000207769746820746F6F206D616E79206C67
:103AB0006576656C732E204D4158206C6576656C7B
:103AC0002069733A310A0057726974696E6720740D
:103AD0006F2066696C653A200044656C6574696F97
:103AE0006E206661696C65642C2046696C653A20BD
:103AF0000046696C652064656C657465643A0053C2
:103B000044207072696E74696E67206279746520F2
:103B1000004E6F74205344207072696E74696E6732
:103B20000A00667265736800646F696E67004E6FA5
:103B30007720001FE03FF03FF03FF01FE01FE03F25
:103B4000F03FF03FF00FC0078003001FE02010207F
:103B500010201010201020201020103030084004B9
:103B600080030001FF000618C0081F20101F9014DA
:103B70001F102E1E082F1C082FB8083FFC083FFFFF
:103B8000F8207FF8203BE82071E820F0E811F050A1
:103B900013F01009F0200630C001FF0001FF0006FD
:103BA00030C009F02011F01010F01020F068203122
:103BB000E82039E8207FF83FFFF83FFC082F38085D
:103BC0002E18082C1E08101E10101F10081F20068B
:103BD00018C001FF0001FF000600C0090120178383
:103BE000D01783D02FC7E827C7C821FF08207C083B
:103BF000207C08207C0821FF0827C7C82FC7E817AA
:103C000083D01783D00901200600C001FF00FFFF09
:103C1000C04000202000101000080800040400022A
:103C200003FFFF02220004440004440002220001BA
:103C30001100FFFFC04088A02111101222080800C7
:103C40000404000203FFFF6F70656E206661696CFB
:103C500065642C2046696C653A2000544845524DF5
:103C6000414C2052554E4157415900546865726D80
:103C7000616C2052756E6177617900706F77657243
:103C80006F666600506C656173652052657365747C
:103C9000005052494E5445522048414C544544002E
:103CA00025533A202553004B494C4C45442E2000C7
:103CB0005072696E7465722068616C7465642E2040
:103CC0006B696C6C28292063616C6C6564210A0047
:103CD0006F70656E0054524947474552454400662F
:103CE000696C616D656E74007A5F6D696E00795FF5
:103CF0006D696E00785F6D696E005265706F7274E9
:103D0000696E6720656E6473746F7020737461747C
:103D100075730A0020436F756E7420583A00446929
:103D2000736D697373005072696E7420506175739E
:103D30006564005061757365205072696E74004D42
:103D4000656469612052656D6F766564004D6564D8
:103D5000696120496E736572746564006E6F746981
:103D60006669636174696F6E200033442050726924
:103D70006E7465722052656164792E005072696EAE
:103D800074696E672E2E2E0063616E63656C005041
:103D900072696E742041626F7274656400554920C7
:103DA00041626F72746564004D323520500A4D32A5
:103DB0003400526573756D65005549205061757307
:103DC0006500726573756D65005072696E7420666A
:103DD000726F6D204D656469610044697361626C46
:103DE0006552756E6F757400496E736572742066E6
:103DF000696C616D656E7420616E642073656E64BC
:103E0000204D3130380A004368616E67652046698D
:103E10006C616D656E7400556E6C6F6164204669EF
:103E20006C616D656E74004C6F61642046696C61F5
:103E30006D656E74005072656865617420504554FC
:103E400047005072656865617420504C41005072A3
:103E5000656865617420437573746F6D00426163BA
:103E60006B00486F6D6520257325732573204669A7
:103E700072737400626567696E0050757267654D94
:103E80006F726500436F6E74696E7565004C6F618B
:103E9000642046696C616D656E74205400220A00CE
:103EA000556E6B6E6F776E20636F6D6D616E643AE9
:103EB00020220002687474703A2F2F6D61726C6951
:103EC0006E66772E6F7267004275696C64203435B8
:103ED00037004D313030302053002020506C616E5F
:103EE0006E657242756666657242797465733A20D2
:103EF000002046726565204D656D6F72793A20002D
:103F0000436F6D70696C65643A204465632033319A
:103F100020323031390A00204C61737420557064AE
:103F2000617465643A20323031392D31322D3139A6
:103F3000207C20417574686F723A2028566572742F
:103F400061627265616B6572290A004275696C6411
:103F5000203435370A004D61726C696E0020536F52
:103F60006674776172652052657365740A00205724
:103F700061746368646F672052657365740A00201A
:103F800042726F776E206F75742052657365740A84
:103F9000002045787465726E616C2052657365749B
:103FA0000A00506F77657255700A006175746F254D
:103FB000632E6700473237006572726F7220777226
:103FC0006974696E6720746F2066696C650A0044C5
:103FD0006F6E6520736176696E672066696C652E09
:103FE0000A004D3239002553202563202563202502
:103FF0006320256300205A3A0020593A00656E6418
:1040000073746F7073206869743A20001FFFFFFF9C
:10401000FFFFFF600000000001FF40000000000003
:10402000FF8000000000007F83CF00000C303F873E
:10403000FF80000C301F867980000C000F8C30C789
:10404000838C30E78C30CFC7CC31F38C30DCECEC98
:1040500033B98C30D86C6C33198C30D06C0C33196C
:104060008C30D86C0C33198C30DC6C0E3B198C30D6
:10407000CF7C079F198C30C77C038F19400000004C
:10408000000002600000000000061FFFFFFFFFFFAE
:10409000F8204A00205200454550524F4D20496EAD
:1040A000697469616C697A65640A004D657368209A
:1040B000736176656420696E20736C6F7420003FB5
:1040C000556E61626C6520746F2073617665206D3A
:1040D00065736820646174612E0A0020736C6F74CC
:1040E0003D00206D65736865735F656E643D0045D6
:1040F00032454E443D00206D65736820736C6F74CB
:104100007320617661696C61626C652E0A003F49BB
:104110006E76616C696420736C6F742E0A004D6555
:104120007368206C6F616465642066726F6D2073C4
:104130006C6F7420003F556E61626C6520746F2057
:104140006C6F6164206D65736820646174612E0A10
:104150000048617264636F646564204465666175DC
:104160006C742053657474696E6773204C6F61645E
:1041700065640A0020286D6D29002028696E2900D9
:1041800046616872656E686569740043656C736941
:104190007573004B656C76696E00556E696669656E
:1041A0006420426564204C6576656C696E6700200A
:1041B000204D363033200020204D34313220530042
:1041C00046696C616D656E742072756E6F757420D2
:1041D00073656E736F723A0A0020204D34323520B9
:1041E00046004261636B6C61736820636F6D70653C
:1041F0006E736174696F6E3A0A0020550046696CEF
:10420000616D656E74206C6F61642F756E6C6F618B
:1042100064206C656E677468733A0A0020204D391B
:104220003030204B004C696E6561722041647661CC
:104230006E63653A0A0020204D383532204900531C
:104240006B657720466163746F723A200A00202004
:104250004D343133205300506F7765722D4C6F739E
:1042600073205265636F766572793A0A0020204D9B
:10427000333034205000204C0020204D333031208A
:1042800050005049442073657474696E67733A0A2C
:104290000020480020204D3134352053004D6174FA
:1042A000657269616C2068656174757020706172F7
:1042B000616D65746572733A0A00206D6573686597
:1042C000732E0A0A00454550524F4D2063616E20FF
:1042D000686F6C6420000A416374697665204D65DF
:1042E000736820536C6F743A200020204D343230B4
:1042F00020530020204D323035204200204A3C6AB5
:10430000756E635F6465763E00416476616E6365D9
:10431000643A20423C6D696E5F7365676D656E74CB
:104320005F74696D655F75733E20533C6D696E5FA8
:1043300066656564726174653E20543C6D696E5FAC
:1043400074726176656C5F66656564726174653E02
:104350000020204D323034205000416363656C658D
:10436000726174696F6E2028756E6974732F733271
:10437000293A20503C7072696E745F616363656CAA
:104380003E20523C726574726163745F6163636561
:104390006C3E20543C74726176656C5F616363654A
:1043A0006C3E0A0020204D3230312058004D61789B
:1043B000696D756D20416363656C65726174696FC9
:1043C0006E2028756E6974732F7332293A0A0020A3
:1043D000204D3230332058004D6178696D756D2065
:1043E0006665656472617465732028756E6974739F
:1043F0002F73293A0A005374657073207065722018
:10440000756E69743A0A00203B20556E69747320FA
:10441000696E200020204D3134392000203B0020DF
:1044200020473200486F6D696E67204661696C6590
:10443000640000004843000048430000A040000022
:10444000F0410000A0420000A0420000C84300006C
:10445000C442D0070000D007000064000000A00F95
:104460000000446966663A200046726F6D537470AE
:104470003A00537465707065723A00556E4C6576FB
:10448000656C3A004C6576656C65643A00526177FC
:104490003A20202020000A4C6F676963616C3A0063
:1044A000436F756E7420453A004361703A004D3099
:1044B0002F3120427265616B2043616C6C65640032
:1044C000436C69636B20746F20526573756D652E44
:1044D0002E2E00656E7175657565696E6720220008
:1044E00000002100240027002A002D0030003300A6
:1044F00001010000040107010A010000220025005B
:1045000028002B002E0031003400020100000501BC
:1045100008010B01000020002300260029002C00C8
:104520002F0032000001000003010601090105050A
:104530000505070508080808020202020A0A080819
:104540000404040401010101010101010303030347
:1045500003030303040707070C0C0C0C0C0C0C0CD6
:104560000202020206060606060606060B0B0B0BE7
:104570000B0B0B0B0102102020080810204010200C
:104580004080020102010804020101020408102017
:104590004080804020100804020180040201804015
:1045A000201008040201080402010102040810207E
:1045B0004080010204081020408000000A0B02091C
:1045C0000C0D0E08070304010000000000000000AD
:1045D00000000000000000000000000000000000DB
:1045E0000000000000001211100000000000000098
:1045F00000000000000000000000000000000000BB
:104600004D6F76652025736D6D004D6F766520309A
:104610002E316D6D004D6F766520316D6D004D6FE3
:1046200076652031306D6D004D6F7665204178697B
:104630007300486F74656E6420746F6F20636F6CD5
:1046400064004578747275646572004D6F766520FC
:104650005A004D6F76652059004D6F7665205800E1
:10466000DF02970111241FBECFEFD1E2DEBFCDBF25
:1046700000E00CBF13E0A0E0B2E0ECEAF2E103E0FE
:104680000BBF02C007900D92AE37B107D9F729E1F1
:10469000AEE7B3E001C01D92A034B207E1F713E228
:1046A000C1E3D3E200E006C021970109802FFE019B
:1046B0000F94CA84C033D10780E00807A9F70F948C
:1046C0004D740D9444890C9400002F923F924F92A8
:1046D0005F926F927F928F929F92AF92BF92CF9292
:1046E000DF92EF92FF920F931F93CF93DF93CDB79B
:1046F000DEB7C055D1090FB6F894DEBF0FBECDBFEF
:1047000060968FAF609720913E172D962FAF2D9713
:1047100081E080933E17809126198D3409F490C270
:10472000843511F40C946933873411F00C9484337C
:1047300080912419909125198B31910509F45CC160
:10474000A4F48430910509F4DEC01CF4029768F1EA
:1047500073C28431910509F445C18531910509F48D
:1047600046C10C9709F068C20DC18A32910509F45F
:10477000F3C15CF48C31910509F458C14D9709F0EF
:104780005BC20F9404020C9486338B35910509F4B7
:104790005DC18C35910509F45EC18A35910509F03A
:1047A0004BC21092CC110C9486338091380288232E
:1047B00011F40C94863376E5A72E73E0B72EEBE464
:1047C000CE2EE2E0DE2EF3E5EF2EFDE0FF2E10E030
:1047D000D5018D915D010E9444FD882349F1812F0F
:1047E0000E943751762E872E982E092F8091830CA8
:1047F00081111EC0812F0E94D54E882371F0D601F1
:104800002D913D914D915C91672D782D892D902FA3
:104810000F94D384762E872E02C0892D902F472D9A
:10482000582DBC01F70140835183628373830AC012
:10483000F60180819181A281B381F7018083918308
:10484000A283B3831F5FF4E0CF0ED11C24E0E20EFD
:10485000F11C133009F0BCCF85E40E9444FD88238D
:1048600021F183E00E9437517B018C0183E00E949B
:10487000D54E882371F02091570230915802409113
:10488000590250915A02B701C8010F94D3847B0199
:1048900001C0C801A701BC0140935F0D5093600D9A
:1048A0006093610D7093620D10C0809157029091DA
:1048B0005802A0915902B0915A0280935F0D9093D3
:1048C000600DA093610DB093620D86E40F94F551D5
:1048D00020E030E0A9010F949A86181684F40E9413
:1048E000EEFC20E030E040E752E40F945B856093FB
:1048F0004702709348028093490290934A020F94B2
:10490000A93A0C94863380E50E9444FD882329F05F
:104910000E944C546B017C0103C0C12CD12C760148
:1049200083E50E9444FD882361F00E94B7FC20E0EB
:1049300030E04AE754E40F94357E0F94D4856B0140
:104940007C010F94A80B80919F12811105C060E03B
:1049500086E897E00F945D4B0F948D6AC60ED71EC4
:10496000E81EF91E0F948D6ADC01CB018C199D099C
:10497000AE09BF09B7FD02C00C94863380E00E94E7
:104980002F47F0CF0F94585481110C94863360E078
:1049900070E080E50E949650F82E65E070E083E5B7
:1049A0000E9496506C01382E65E070E084E50E940C
:1049B0009650282E40E050E060ED70E482E50E94C1
:1049C00060FD4B015C0180911F1987FF02C00C94B0
:1049D000933380912019837011F00C94933311E07C
:1049E0000C945A3681E00F94CD650C94863380E0A8
:1049F0000F94CD650C9486330F94585481110C9408
:104A000086338CE0E5E9F2E0DE01119601900D922B
:104A10008A95E1F760E070E080E50E949650BE0163
:104A20006F5F7F4F0F948E460C9486338091520DAA
:104A30008770873011F00C945C3660E08FE40E9440
:104A4000FB6781110C9486330C945C368FE0809365
:104A5000CC110C94863380912319882351F189302D
:104A600009F076C036E5C32E33E0D32E4BE4E42EB6
:104A700042E0F42E312C00E010E0D6018D916D0162
:104A80000E9444FD882371F0812F0E943751F70165
:104A90006083718382839383133019F033243394BA
:104AA00001C001E01F5FF4E0EF0EF11C143029F7A4
:104AB00044C096E5C92E93E0D92E2BE4E22E22E0E5
:104AC000F22E312C00E010E0D6018D916D010E9494
:104AD00044FD882361F1812F0E9437514B015C0115
:104AE000F70120813181428153810F94D2842B01BF
:104AF0003C012DEB37E346E855EB0F949A8687FD92
:104B00000AC02DEB37E346E855E3C301B2010F9429
:104B1000CF7D181664F4133019F03324339401C098
:104B200001E0D7018D929D92AD92BC9213971F5FC9
:104B3000B4E0EB0EF11C143039F6332019F00F9469
:104B4000923906C0002321F087E592E00F94B90B5B
:104B50000F9494390C94863380913802882311F491
:104B60000C94863389E40E9444FDE82E882321F0CA
:104B70000E94B3FCF82E01C0F12C8AE40E9444FD8F
:104B8000082F882321F00E94B3FC182F01C010E0E9
:104B9000EE2019F0E4E0EF1520F0002341F015308D
:104BA00030F083EB97E00E94E7FE0C94863380E1BF
:104BB000EBE4F2E0A3E5BDE001900D928A95E1F708
:104BC000EE2059F08F2D0E948EFD6093530D70934F
:104BD000540D8093550D9093560D002359F0812F5D
:104BE0000E948EFD6093570D7093580D8093590D60
:104BF00090935A0D86E40F94F5516B017C0120E0EF
:104C000030E0A9010F949A8618164CF420E030E0A9
:104C100040E752E4C701B6010F945B8503C060E032
:104C200070E0CB0169837A838B839C83CE010196EC
:104C30000F9443450C9486330F94E7510C948633BC
:104C400080912419909125198937910509F420C77D
:104C50000CF0F4C08135910509F41DC60CF07AC042
:104C60008A31910509F4DAC2B4F58431910509F469
:104C700024C294F48131910509F40BC244F40297E3
:104C800010F00C9466330F94F7650C9486334297BA
:104C900009F425C60C9466338731910509F432C2B4
:104CA0008CF48531910509F429C2469711F00C94D2
:104CB00066330F94F9218091C413877F8093C413C6
:104CC0000C9486338831910509F435C2499709F46B
:104CD0009AC20C9466338032910509F416C3F4F439
:104CE0008D31910509F4FAC284F48B31910509F4F0
:104CF000A3C24C9711F00C946633809121199091C6
:104D000022190F9492250C9486338E31910509F463
:104D1000ECC24F9709F430C30C9466338B34910581
:104D200009F42AC454F48A32910509F4D0C38934B1
:104D3000910509F4EFC30C9466338C34910509F4A2
:104D40001FC48D34910511F00C9466330E94B9ABE9
:104D50000C9486338C36910511F40C94863374F5DB
:104D60008C35910509F4D7C584F48335910509F490
:104D7000AFC50CF4A6C58435910509F4B0C58535D9
:104D8000910509F4AFC50C9466338936910509F491
:104D900080C454F48436910509F4F6C3883691052D
:104DA00009F4F6C30C9466338A36910509F487C476
:104DB0008B36910509F4A6C40C94663382379105AD
:104DC00009F4ACC5D4F48F36910509F4BBC454F48E
:104DD0008D36910509F400C48E36910509F4A0C4FE
:104DE0000C9466338037910511F40C948633813727
:104DF000910509F4EBC40C9466338637910509F4E8
:104E00000AC654F48337910509F48BC5853791059B
:104E100009F4F0C50C9466338737910509F435C65B
:104E20008837910511F00C94663381E080935D170B
:104E300080935C170F949E3A0C9486338A39F1E084
:104E40009F0711F40C9486330CF082C0833D9105CA
:104E500009F4E6C6CCF58B39910509F4F6C4C4F41F
:104E60008C38910509F4D4C44CF48D37910511F0B8
:104E70000C9466330E9497530C94863381399105C4
:104E800009F40DC68539910509F462C60C946633A0
:104E90008B3C910509F49EC654F48E3B910509F4B0
:104EA000D1C4893C910509F46EC60C9466338C3CE0
:104EB000910509F4B2C68D3C910511F00C9466334E
:104EC0000E945C540C9486338D3231E0930709F4D0
:104ED000AEC7D4F4823E910509F4FDC654F48C3D6E
:104EE000910509F4A0C68D3D910509F4A9C60C945D
:104EF00066338232B1E09B0709F439C78C329140A6
:104F000009F480C70C9466338033F1E09F0709F4FD
:104F100091C77CF48E3231E0930711F40C948D2FFD
:104F20008F32914011F00C9466330E94023D0C9434
:104F300086338336B1E09B0711F40C940D3380392E
:104F4000914011F00C9466330F94A80B0C948633A7
:104F50008C30F2E09F0711F40C940D310CF04DC031
:104F6000863E31E0930711F40C9481301CF5843AAD
:104F7000B1E09B0711F40C94E82F6CF48C39F1E04C
:104F80009F0711F40C94D12F8D39914011F40C949A
:104F90004F330C946633853A31E0930711F40C9447
:104FA000EB2F893A914011F00C9466330E945659C8
:104FB0000C948633863FB1E09B0711F40C94F030DB
:104FC0007CF4843FF1E09F0711F40C94ED30853FB1
:104FD000914011F00C9466330F946B5B0C94863304
:104FE000873F31E0930711F40C94F330883F9140F0
:104FF00011F40C94FC300C9466338435B3E09B07B9
:1050000011F40C9494311CF58B35F2E09F0711F4E8
:105010000C9497317CF48F3332E0930711F40C94A5
:1050200015318835924011F00C9466330E949752E6
:105030000C9486338D3BB2E09B0711F40C94113233
:105040008E3B924011F40C9414320C946633803AE7
:10505000F3E09F0709F482C16CF48C3633E09307C8
:1050600011F40C9486338438934011F40C94D132AB
:105070000C946633873EB3E09B0711F40C944133E4
:10508000883E934011F00C9466330E94EE4E0C94CF
:10509000863380911D1984FF02C00C942B388091B7
:1050A0001F1987FF02C00C942B3880912019837040
:1050B00011F00C942B380C9442388AEE97E00E9441
:1050C000E7FE81EE93E10E94AEEC8BE1E1EEF3E1CD
:1050D000DE01119601900D928A95E1F760E070E093
:1050E000CE0101960F94BE26CE0101960E941A6849
:1050F0008BED97E00E94E7FE0C9486330F946A22B2
:105100000C948633E0912119F09122198081882333
:1051100029F0803209F410823196F8CF60E0809156
:105120002119909122190F94E02510927C0F109272
:105130007B0F0C94863383E50E9444FD882321F085
:105140000E94A3FC0E944D4484E50E9444FD8823F4
:10515000A9F00E94A3FC6B017C010E9465ABC09288
:105160003C05D0923D05E0923E05F0923F05CD28EA
:10517000CE28CF2819F081E08093400580910D0F53
:105180008823E9F080E090E0A8ECB1E489839A8379
:10519000AB83BC831C8E1D8E1E8E1F8E18A619A677
:1051A0001AA61BA620E0AE014F5F5F4FBE01645EF2
:1051B0007F4FCE0188960E94B46A0C9486330E9479
:1051C0001945882381F00F940A220E943D4583E20D
:1051D00092E10F94AF211092271910922819109282
:1051E000291910922A1961E082EC9DE30E949C69C2
:1051F0004EE15DE36BEF77E085E00E94AD6A0F94CE
:10520000364C0C9486338091C41382FF03C08B7F8D
:105210008093C4130E9497530C9486338091C413D7
:1052200083FD02C00C94863383E50E9444FD811106
:105230000C944C380C94863383E40E94FBFC882346
:1052400019F181E198E00E94E7FE809128158823FA
:1052500091F0BE016F5F7F4F85E295E10E9425F0DE
:105260008E010F5F1F4FD8018D918D01882339F07A
:105270000E94EC45F8CF87E098E00E94E7FE8AE0C4
:105280000E94EC450C94863383E50E9444FD8823FC
:1052900009F10E94D767182F90E0CD970CF01CE31E
:1052A000109382030F948D6A6B017C01212F30E0F3
:1052B000A8EEB3E00F947984C60ED71EE81EF91E3F
:1052C000C0927E03D0927F03E0928003F09281032C
:1052D0000C9486330F9488210C9486338091C413E8
:1052E0008E7F8093C4130C9486338091C41383FD06
:1052F00002C00C9486330F94CD5180912119909166
:1053000022190F94D3240C9486338091C41382FD08
:105310000F94A80B8091C41383FD02C00C948633B4
:1053200060E080E50E94FB67182F682F80912119AB
:10533000909122190F94E02583E50E9444FD882373
:1053400021F00E94A3FC0E944D440F940A221111E7
:105350000C9486330E943D450C948633209121198C
:10536000309122199091C41392609093C413C90193
:105370000F9492250C9486330E9431AB7B018C01F3
:1053800020E831E541E050E00F942584C9016DE645
:1053900071E00F94A2844B015C01C801B70120E1C8
:1053A0003EE040E050E00F942584CA01B90128E1B5
:1053B00030E040E050E00F942584762E672EC62E14
:1053C000D72E8CE3282E312C412C512CC801B7014B
:1053D000A20191010F942584F62EE72ECA01B9018E
:1053E000A20191010F942584CB018E010F5F1F4F05
:1053F0008114910499F0EF92FF927F936F936F92D3
:105400007F92BF92AF929F928F9280E298E09F939B
:105410008F931F930F930F94677D13C0A114B10452
:10542000B1F0EF92FF927F936F936F927F92BF9252
:10543000AF9284E298E09F938F931F930F930F9402
:10544000677D0FB6F894DEBF0FBECDBF30C0CD284C
:1054500079F0EF92FF927F936F936F927F9288E241
:1054600098E09F938F931F930F930F94677DE9CFDD
:10547000892B69F0EF92FF927F936F938CE298E013
:105480009F938F931F930F930F94677DDACFEF92C3
:10549000FF9280E398E09F938F931F930F930F9455
:1054A000677D0F900F900F900F900F900F9060E01E
:1054B000C8010F94014C0F94A001B80184E398E057
:1054C0000F9489018AE00E94EC450C94863383E5B1
:1054D0000E9444FD882311F40C9486330E94D76700
:1054E000F82E66E070E080E50E9451FD8C0197FF88
:1054F00002C00C948633E82E60E089E40E94FB67CA
:1055000081110C945138802F0F948C6D811100C43F
:105510000C94513880E50E94FBFC8823A1F00E9486
:10552000B7FC20E030E048EC52E40F94357E0F9455
:10553000D4856031B7E27B0710F060E177E27093C9
:105540007C0F60937B0F82E50E94FBFC882311F4A3
:105550000C9486330E944C549B01AC01ACE3B0E048
:105560000F94668460937D0F70937E0F80937F0FFE
:105570009093800F0C9486330E943D450C948633A3
:105580000E94A4AB0C9486330E944E650C94863323
:105590008091840C83FF02C00C9486330E94AC4E31
:1055A00087FF02C00C94863383E50E9444FD882364
:1055B00079F00E9403510F94CD858B01CB010E949D
:1055C000E3F30C34110524F40E94B9AB0F94364C6C
:1055D0000F94516E0C9486338091840C83FF02C02B
:1055E0000C9486330E94AC4EF82E87FF02C00C94B8
:1055F000863383E50E9444FD082F811106C082E5B1
:105600000E9444FD182F8823C1F10E9403510F947A
:10561000CD85CB010E94E3F30E94035120E030E0EE
:1056200046E952E40F94CF7D181614F40C947038A8
:105630000E94B9AB0F94364C6091F0117091F1114A
:10564000072E000C880B990B0F94D67D4B015C0143
:105650004090EC115090ED116090EE117090EF11B0
:10566000A30192010F949A86181614F40C947438BE
:10567000002311F40C94863811E00F94516E11231D
:1056800011F40C948633602F8F2D0F944D140C94CD
:1056900086330E94AC4E182F87FD0AC08AE89BE033
:1056A0000E94E7FE812F0F94B0138AE00E94EC4520
:1056B0002D96EFAD2D97E0933E170C94D43880E5EE
:1056C0000F941653182F833010F00C94863381E416
:1056D0000E94FBFC882321F06091CE1170E002C093
:1056E0006FEF70E083E50E949650E12FF0E0E25307
:1056F000FE4E8F3F910519F010F08FEF90E0808300
:105700000C94863380E50F941653833010F00C947C
:105710008633E82FF0E0E253FE4E10820C9486337D
:105720008EE40E9444FD882311F40C9486330E9479
:10573000A3FC6093960370939703809398039093D0
:105740009903E4C783E50E94FBFC882329F083E5E5
:105750000F9416538093840C0F94A00186E498E074
:105760000E94E7FE8091840C882369F110E8E12E05
:105770001BE0F12E00E010E020E08091840C90E02E
:10578000A0E0B0E0002E04C0B695A7959795879548
:105790000A94D2F780FF0EC0DD24D394D20E2223C8
:1057A00019F08CE20E94EC45F701859194910E94DA
:1057B000E7FE2D2D0F5F1F4FF2E0EF0EF11C0530BD
:1057C0001105D9F65CCD80E89CE357CD83E50E94B6
:1057D00044FD882371F00E94D767282F30E02D33D5
:1057E00031051CF48093000291C78CE38093000282
:1057F0008DC70F94A0014091000250E060E070E07E
:105800008DE498E00F943D018AE00E94EC457EC74C
:105810008091840C83FD7AC783E50E9444FD882330
:1058200009F474C70E9403510F94CD856E3671053B
:1058300014F06EE670E07093DA116093D9110F9452
:10584000131364C70E94714261C783E50E9444FD3F
:10585000882309F45BC70E94D767182F90E0CD9783
:105860000CF01CE3109387030F948D6A6B017C018D
:10587000212F30E0A8EEB3E00F947984C60ED71E36
:10588000E81EF91EC0928303D0928403E092850340
:10589000F09286033BC70F9406160E94B9AB0F9493
:1058A000580D0E94134568EE73E080E090E00E947E
:1058B00056FE0E94584560E084E598E00F945D4BE9
:1058C00025C78091CC118F7D80618093CC111EC73C
:1058D0008091CC118F7E80628093CC1117C70E947B
:1058E000A95014C783E50E94FBFC882309F40EC766
:1058F0000E94B7FC20E030E04AE754E40F94357E84
:105900000F94D485609388037093890380938A03EE
:1059100090938B03FBC60E944057F8C60F94A6666F
:10592000F5C681E899E00E94E7FE60E081E799E032
:105930000F948C6660E08CE599E00F948C6661E0D2
:1059400080EB91E20F948C6660E081E599E00F9422
:105950008C6661E081E499E00F948C6660E088E3F6
:1059600099E00F948C6661E08EE299E00F948C666A
:1059700061E084E299E00F948C6660E08CE199E04C
:105980000F948C6661E08EE099E00F948C6661E084
:1059900080E099E00F948C6660E081EF98E00F94CE
:1059A0008C6661E083EE98E00F948C6661E08DEC8C
:1059B00098E00F948C6661E08CEB98E00F948C6615
:1059C00061E08DEA98E00F948C6661E088E998E0E8
:1059D0000F948C6661E085E898E00F948C6660E037
:1059E00088E798E00F948C6660E084E698E00F9476
:1059F0008C668CC68091211990912219009741F0F4
:105A0000DC012C91222321F060E00F94014C7EC632
:105A10000F94364C7BC6009121191091221994E005
:105A2000F12C40E0915021F1F8018081282F2B7F4B
:105A3000213421F421812133D9F407C08035C1F408
:105A4000818180538A3048F013C0813421F085343D
:105A500021F441E002C0FF24F39498012E5F3F4FF0
:105A600089012F5F3F4FF80180818032C9F3DACF7F
:105A700041110F94A001FF2021F087E49AE00E94D9
:105A8000E7FEC8010E94094741C60F94733A3EC61B
:105A900010925D1710925C170F949E3A37C660E023
:105AA00070E083E50E9451FD8C0111270230110541
:105AB0003CF00F949C018BE49AE00E94E7FE26C61E
:105AC00088E40E9444FD8823A9F00E94B3FC863933
:105AD00091053CF08530F1E09F072CF084E091E0E7
