:100000000C94CF230C9400240C9400240C94002412
:100010000C9400240C9400240C9400240C940024D0
:100020000C9400240C9400240C9400240C940024C0
:100030000C9400240D94BC630C9400240C940024B4
:100040000C9400240D9451760C9400240C940024FC
:100050000C9400240C9400240D949C060D9472635F
:100060000C9400240C94764B0C946C4B0C94002450
:100070000C9400240C9400240C9400240C94002470
:100080000C9400240C9400240C9400240C94002460
:100090000C9400240C9400240C9400240C94002450
:1000A0000C9400240C9400240C9400240C94002440
:1000B0000C9400240C9400240C9400240C94002430
:1000C0000C9400240C9400240C9400240C94002420
:1000D0000C9400240C9400240C9400240C94002410
:1000E0000C940024AC4BB24BC44BD44BDC4B0C4CAB
:1000F000E04B0C4CE44BE84B0C4CEC4BF04BF44B12
:10010000FD4B0C4C084C1AC9BFC7F8C756C9F8C7F5
:10011000F8C7F8C7F8C7F8C7F8C7F8C7F8C7F8C7E7
:10012000F8C7F8C7F8C7F8C7F8C7F8C7F8C7F8C7D7
:10013000F8C7F8C7F8C7F8C7F8C7F8C7F8C7F8C7C7
:10014000F8C750C9F8C7F8C7F8C7F8C7F8C7F8C75D
:10015000F8C7F8C729C9F8C7F8C7F8C7F8C7F8C774
:10016000F8C7F8C7F8C7F8C7F8C76DC9F5C75D0283
:1001700005024702770281020503E102B501BD02D3
:100180009901B3027501FB02190205034102D7026E
:10019000DD0163028901E3018501F50283024F025B
:1001A00019030F025301EB02EF01610165028302A3
:1001B0000B03AD02CD014D020302A1029902D90247
:1001C00055011B03A501810187010303B10205A8A5
:1001D0004CCDB2D44EB93836A9020C50B9918688AC
:1001E000083CA6AAAA2ABE000000803F0763423648
:1001F000B79BD8A71A39685618AEBAAB558C1D3CB8
:10020000B7CC5763BD6DEDFD753EF6177231BF007B
:100210000000803F08000000BE922449123EABAAB5
:10022000AA2ABECDCCCC4C3E00000080BEABAAAA10
:10023000AA3E00000000BF000000803F0000000058
:1002400000084178D3BB4387D1133D190E3CC3BD91
:100250004282AD2B3E68EC8276BED98FE1A93E4C3E
:1002600080EFFFBE01C4FF7F3F00000000000C9440
:1002700012710C94EC4B0C94143D0D946F5A0D9428
:10028000B2360D940F340C94CAC60D94C54F0D941C
:10029000714F0C9442730D946B450C94F23D0C9489
:1002A000D33D0C94643F0D948D440D949D550C9456
:1002B000FD4B0C945FE60D948E500D94434F0D94BE
:1002C00096500D94B0440C9499E10D946D570D9493
:1002D0005A450C945C3B0C9445390C94BBE10D944D
:1002E0009A500D9477350C9460D40D94A23C0D94E3
:1002F00078580D94E65C0D9453330C941AC90D9400
:1003000042630D94A3550D9403560D945F440D94D0
:10031000B9550D9450440C94C44B0C94D3E10C94F7
:10032000DC4B0C94DD700D9430620C947ED00D94F7
:10033000AA500D94983C0D94DC4F0C94C14D0C9434
:1003400037730D9407330D94E35C0D94AC550D9405
:10035000F2330C940C710D94524F0D9461330C9444
:10036000E2420D94217D0C94E84B0D948E3C0C944C
:10037000D2E20C94CCE20C94D44B0D9492500C9499
:1003800073E10D94C2720C94B5E10C94D0E10C941D
:100390006AD40C940C4C0C9435AC0D94D8440C9449
:1003A000F44B0D94F25C0D9459560D94D64F0D9468
:1003B00017620C9479B10C94084C0D94B83C0C94D1
:1003C000F8C70D94FE5C0D9455440D9497330D942D
:1003D00031450C9485CE0C9470830D9434340D9477
:1003E000A1440C94E2B10C94E04B0D94C2550C94D2
:1003F00046730C9450C90C9428AE0C943AAD0D94ED
:1004000093370C94F5C70D9494550D94863C0D9438
:1004100018630D94E35B0C94053C0C94AC4B0D9469
:1004200083440C94AE720C9440730D941E620D9430
:10043000AE500D94AA3C0D944D4F0D949D5E0C94BE
:10044000CDE10D9489330D949E390D9444560D944D
:1004500038000D948A500C9465D40D9474370C9424
:10046000B4E30C9435730D948E360C94F7AD0C9464
:100470009B7A0C943A390C9455C70D9407720C94DE
:1004800058C70D94B03C0D94B8330D942D340D9491
:10049000753C0C94C7C60C941F3D0D94BB550D9430
:1004A00073440D94A6500D944F570C94AEB30C9416
:1004B000A6CD0D9482360D94A5330D94833C0C94F7
:1004C000923C0D9431330D944B440D94BA440C94EA
:1004D000BFC70D94C1550C94DF700D949E500C94C1
:1004E000A9E10D94AC360C94D63C0C9457D40D94E1
:1004F000793C0D947C360C9475B40C9475B00D94C5
:1005000026340D947F3C0D94E2440C94C1E10D948B
:1005100075330C94F24D0C94DF420D94DF5C0C9417
:1005200044730C943E3D0C94F53C0C946DC90D94B1
:1005300094360D94BE550D9436620D945E340C9431
:10054000BDC90D9497550C94E03A0C94843F0D94DA
:10055000F85C0C94C5780C9456C90D94CE440D9457
:1005600024620D94A9550D949C3C0D941D330D945B
:10057000A8350C94E44B0D94A2500D94943C0D942A
:10058000A6360C944DE10C9429C90D94CE4F0C94D1
:1005900052AF0D942F720C940E710C9449E10D948E
:1005A000A0360C94F04B0C9454C70C9405AF0D94EA
:1005B000B43C0D949A550C94463D0C9410710C94D7
:1005C000AFE10D948A3C0D94C0370D9488360C949D
:1005D0005CD40D94B2500D9497440C94B3760D9462
:1005E000C6320C94C7E10D94484F0D9469440D94A4
:1005F000D5330C94EAAD0D94A63C0D943F7D0D943B
:10060000D9350C9436B00D94A6550D94BD3C0D947F
:100610005C520D949A4D0D94C4440D94EC5C0C9472
:10062000B24B0D949A360D9445330D942A620D9475
:1006300062340D947B440D94A0554E414E494E4971
:100640005459494E46CDCCCC3D0AD7233C17B7D19F
:100650003877CC2B329595E6241FB14F0A00002045
:10066000410000C84200401C4620BCBE4CCA1B0EC4
:100670005AAEC59D7400407A10F35A00A0724E180D
:10068000090010A5D4E80000E87648170000E40B44
:1006900054020000CA9A3B000000E1F5050000800A
:1006A000969800000040420F000000A08601000064
:1006B00000102700000000E80300000000640000B4
:1006C0000000000A00000000000100000000002CF3
:1006D00076D888DC674F0823DFC1DFAE59E1B1B7B8
:1006E00096E5E3E453C63AE651997696E8E6C28485
:1006F00026EB898C9B62ED407C6FFCEFBC9C9F409D
:10070000F2BAA56FA5F490055A2AF75C936B6CF9C1
:10071000676DC11BFCE0E40D47FEF520E6B500D097
:10072000ED902E0300943577050080841E080000AC
:10073000204E0A000000C80C333333330F986E127A
:10074000831141EF8D2114893BE65516CFFEE6DB80
:1007500018D1844B381BF77C1D901DA4BBE42420CA
:100760003284725E228100C9F124ECA1E53D274369
:100770004F4D4D554E49434154494F4E00445259F7
:1007800052554E004552524F5253004543484F0078
:1007900020643A0020693A0020703A00536C656585
:1007A000702E2E2E005761726E696E67203A2043BC
:1007B0006C65616E20436972636C6520726571754A
:1007C000697265732058590A004D65736820706F0F
:1007D000696E742063616E6E6F742062652072654D
:1007E000736F6C7665640A004E6F204D6F76652ED0
:1007F00000456E642066696C65206C6973740A003C
:10080000426567696E2066696C65206C6973740A5D
:1008100000526573756D696E6720534400286E6FD2
:100820002066696C65290043757272656E74206676
:10083000696C653A2000256979202569642025695D
:10084000682025696D20256973005072696E7420D7
:1008500074696D653A200044454255473A004D3170
:1008600031332053003344205072696E7465722016
:100870004F46462E004348414D4245525F54454D38
:100880005045524154555245004D4F54494F4E5FCB
:100890004D4F44455300544845524D414C5F5052D2
:1008A0004F54454354494F4E004155544F524550C3
:1008B0004F52545F53445F53544154555300505268
:1008C0004F4D50545F535550504F525400454D4575
:1008D0005247454E43595F504152534552004341A0
:1008E00053455F4C494748545F4252494748544E2C
:1008F00045535300544F47474C455F4C4947485474
:100900005300534F4654574152455F504F5745523D
:10091000004255494C445F50455243454E54004CAB
:100920004556454C494E475F44415441005A5F503B
:10093000524F4245004155544F4C4556454C00508E
:1009400052494E545F4A4F420050524F475245530E
:1009500053004155544F5245504F52545F54454DEA
:100960005000564F4C554D45545249430042494E54
:100970004152595F46494C455F5452414E5346459A
:10098000520053455249414C5F584F4E5F584F46B5
:1009900046004649524D574152455F4E414D453AFA
:1009A0004D61726C696E204275696C642034353714
:1009B00020284769744875622920534F5552434592
:1009C0005F434F44455F55524C3A68747470733AB4
:1009D0002F2F6769746875622E636F6D2F5665726D
:1009E0007461627265616B2F4D61726C696E20502B
:1009F000524F544F434F4C5F56455253494F4E3A16
:100A0000312E30204D414348494E455F54595045A1
:100A10003A3344205072696E7465722045585452BE
:100A2000554445525F434F554E543A33205555492E
:100A3000443A38333666613934332D313333372D08
:100A4000313333372D313333372D39386132306418
:100A50006537353630370A002F2F20004D313435B9
:100A600020533C696E6465783E206F7574206F6614
:100A70002072616E67652028302D31290A002046DA
:100A80006C6F773A200050726F74656374656420F0
:100A900050696E0A006469730043290A0061626C40
:100AA000656420286D696E2074656D702000436F49
:100AB0006C6420657874727564657320617265205A
:100AC0000046696C616D656E742072756E6F757429
:100AD0002000454550524F4D204F4B0A003F2842C1
:100AE00029617564207261746520696D706C61752F
:100AF0007369626C652E0A002053657269616C200F
:100B000030206261756420726174652073657420A1
:100B1000746F2000416476616E6365204B003F4B2B
:100B20002076616C7565206F7574206F6620726128
:100B30006E67652028302D3130292E0A003F542061
:100B400076616C7565206F7574206F662072616EBA
:100B500067652E0A0043617365206C696768743AA3
:100B6000200043617365206C696768743A206F6682
:100B7000660A00506F7765722D6C6F737320726513
:100B8000636F7665727920008B07720D84077D078D
:100B90006F07416476616E636564205365747469A0
:100BA0006E677300496E697400496E697469616C9F
:100BB000697A6520454550524F4D0043616E63652B
:100BC0006C204F626A656374004261636B6C617391
:100BD000680053746570732F6D6D004A65726B0009
:100BE000416363656C65726174696F6E0056656C14
:100BF0006F6369747900536D6F6F7468696E670015
:100C0000436F7272656374696F6E004E657874200D
:100C1000506F696E74004E657874004E4F005945F0
:100C2000530043616E63656C204F626A6563742094
:100C30003D005A205261697365004C6967687420F1
:100C40004272696768746E6573730046616E205303
:100C500070656564004C6F61642053657474696EDF
:100C6000677300526573746F7265206661696C7397
:100C70006166650053746F72652053657474696EA4
:100C80006773005072656865617420504554472051
:100C9000436F6E66005072656865617420504C4108
:100CA00020436F6E660043617365204C696768740A
:100CB00000546F6F6C204368616E676500206D6142
:100CC000783A00206D696E3A0041786973200050CF
:100CD00072696E7465722073746F707065642064DD
:100CE000756520746F206572726F72732E2046696D
:100CF0007820746865206572726F7220616E64205E
:100D0000757365204D39393920746F20726573749D
:100D10006172742E202854656D70657261747572ED
:100D2000652069732072657365742E205365742085
:100D3000697420616674657220726573746172747F
:100D4000696E67290A004D38373620526573706F17
:100D50006E64696E672050524F4D50545F00554E7F
:100D60004B4E4F574E2053544154450047434F4438
:100D7000455F494E464F004C43445F5041555345F3
:100D80005F524553554D450046494C414D454E54E3
:100D90005F52554E4F55545F434F4E54494E554543
:100DA0000046494C414D454E545F52554E4F5554A7
:100DB000005075726765204D6F7265004572726FE5
:100DC000722077726974696E6720746F2045455090
:100DD000524F4D210A00627573793A207061757324
:100DE000656420666F7220696E7075740A006275A2
:100DF00073793A2070617573656420666F7220752F
:100E00007365720A00627573793A2070726F636558
:100E10007373696E670A007061757365004D3630D3
:100E200030002066696C616D656E745F72756E6FFF
:100E30007574200066696C616D656E745F72756EA5
:100E40006F757420540046696C616D656E745275DF
:100E50006E6F757420540053544F505045442E20EB
:100E6000004E6F20436865636B73756D20776974FE
:100E700068206C696E65206E756D6265722C204C01
:100E8000617374204C696E653A2000636865636B1A
:100E900073756D206D69736D617463682C204C618E
:100EA0007374204C696E653A20004C696E65204E63
:100EB000756D626572206973206E6F74204C61736A
:100EC00074204C696E65204E756D6265722B312CF5
:100ED000204C617374204C696E653A20004D3131AD
:100EE00030004D313137004D3331005344207265AD
:100EF0006164206572726F720A00446F6E652070C3
:100F000072696E74696E672066696C650A002121DA
:100F1000204B494C4C2063617573656420627920D5
:100F2000746F6F206D75636820696E616374697694
:100F3000652074696D65202D2063757272656E740D
:100F400020636F6D6D616E643A2000252723181FA2
:100F5000211D1C19171B1E2E2C0C312F302B2D2957
:100F600004400AFF410409080700010400000501CC
:100F70000003000501000504000000050003007ADD
:100F80000F750F700F6B0F0000000000007F420014
:100F900000FF4200403F4300007F4320616E642019
:100FA00074616B652061206D6561737572656D6537
:100FB0006E742E0A006D6D20746869636B2E0A00D2
:100FC000427573696E65737320436172642069733F
:100FD000200052656D6F76652026204D6561737522
:100FE0007265204265640052656D6F766520736896
:100FF000696D00506C616365207368696D20756E62
:10100000646572206E6F7A7A6C65004D6573682036
:10101000506F696E74204D656173757265642061EF
:10102000743A20000A4D657368206F6E6C792070E9
:1010300061727469616C6C7920706F70756C617429
:1010400065642E0A00506C616365205368696D20E9
:1010500026204D656173757265004D6F76696E6708
:1010600020746F206E657874004D65736820456448
:101070006974696E672053746F7070656400446FA3
:101080006E652045646974696E67204D6573680AF2
:1010900000446F6E652045646974696E67204D6514
:1010A00073680046696E652054756E696E67204DE1
:1010B0006573680028582C5929206F75747369640A
:1010C00065207072696E7461626C6520726164691A
:1010D00075732E0A004F6666736574206F757420F1
:1010E0006F6620626F756E64732E20283020746FD7
:1010F0002031306D6D290A0A00496E76616C696491
:10110000206D617020747970652E0A0A003F43617A
:101110006E277420616374697661746520616E6402
:1011200020646561637469766174652061742074FC
:1011300068652073616D652074696D652E0A0A000B
:10114000426F7468205820262059206C6F636174A8
:10115000696F6E73206D757374206265207370659E
:101160006369666965642E0A0A00473239204A209D
:10117000616374696F6E2072657175697265732041
:10118000612070726F62652E0A0A003F285029683C
:101190006173652076616C756520696E76616C6936
:1011A000642028302D36292E0A0A00473239205073
:1011B0003120726571756972657320612070726F7C
:1011C00062652E0A0A003F2856296572626F7365B0
:1011D000206C6576656C20696D706C6175736962F1
:1011E0006C652028302D34292E0A0A003F28522908
:1011F000657065746974696F6E20636F756E7420B5
:10120000696E76616C69642028312B292E0A0A00E8
:10121000446F696E672047323900646F6E650A005B
:10122000496E73756666696369656E74206461747E
:10123000610A004578747261706F6C6174696E67E1
:10124000206D6573682E2E2E005072696E74696E63
:1012500067204F626A656374002553202569003F4B
:10126000454550524F4D2073746F72616765206E13
:101270006F7420617661696C61626C652E0A002F63
:101280002F616374696F6E3A00627574746F6E00DB
:1012900070726F6D70745F0073686F7700486F7461
:1012A000656E6420746F6F20636F6C640A00536511
:1012B0006E64204D31303820746F20726573756D07
:1012C000650A0052656865617420446F6E6500525E
:1012D0006568656174696E67005265686561740070
:1012E00048656174657254696D656F757400536506
:1012F0006E64204D31303820746F20686561742031
:101300006E6F7A7A6C650A004E6F7A7A6C6520503F
:1013100061726B656400706175736564004D363091
:10132000303A20546F6F20436F6C640072657375A0
:101330006D656400526573756D696E670042656422
:10134000204C6576656C696E6720004661696C6546
:101350006420746F20656E61626C65204265642054
:101360004C6576656C696E670A00496E76616C69DA
:1013700064206D6573682E0A0076616C69640A5397
:10138000746F7261676520736C6F743A20004D65ED
:10139000736820697320003F496E76616C69642030
:1013A00073746F7261676520736C6F742E0A004DE1
:1013B00034323120696E636F7272656374207061BC
:1013C00072616D657465722075736167650A003FAF
:1013D0002061646472657373203A2000206279741E
:1013E0006573206F66206D656D6F727920696E6917
:1013F0007469616C697A65642E0A0A00556E6162CF
:101400006C6520746F20696E697469616C697A65B6
:101410002E0A0A00496E697469616C697A696E679F
:101420002066726565206D656D6F727920626C6FE4
:10143000636B2E0A0A0A00747275650A00207265D1
:101440007475726E3D000A4D656D6F727920436F41
:101450007272757074696F6E20646574656374650B
:101460006420696E2066726565206D656D6F7279A6
:1014700020617265612E0A002020626C6F636B5FD1
:10148000666F756E643D002020200A002920666F7B
:10149000756E643D002020204D656D6F727920636C
:1014A0006F7272757074696F6E20646574656374B1
:1014B0006564207769746820656E645F667265652F
:1014C0005F6D656D6F72793C486561700A002065DB
:1014D0006E645F667265655F6D656D6F7279203CE5
:1014E000204865617020002020656E645F6672652B
:1014F000655F6D656D6F72793D000A667265655F47
:101500006D656D6F72795F73746172743D000A6608
:101510006D632829206E3D00636865636B5F666FAD
:10152000725F667265655F6D656D6F72795F636F1F
:101530007272757074696F6E2829203D20004D31DC
:101540003030204620002062797465732061742059
:10155000000A4C617267657374206672656520626B
:101560006C6F636B2069732000206279746573204F
:10157000667265652061742000466F756E64200098
:101580000A436F7272757074696E67206164647269
:101590006573733A2000436F7272757074696E6779
:1015A0002066726565206D656D6F727920626C6F63
:1015B000636B2E0A0A000A537461636B20506F69D3
:1015C0006E7465722020202020202020203A2000E8
:1015D0000A667265655F6D656D6F72795F656E64D1
:1015E000202020202020203A20000A667265655FB6
:1015F0006D656D6F72795F73746172742020202045
:10160000203A20000A6273735F656E6420202020F8
:1016100020202020202020202020203A20002028C8
:101620004E6F7420796574206D65617375726564A1
:101630002900202041766572616765206D656173C0
:1016400075726564206261636B6C61736820286DDC
:101650006D293A002020536D6F6F7468696E6720A2
:10166000286D6D293A2020202020202020202020B5
:10167000202020202020530020204261636B6C61D9
:1016800073682044697374616E636520286D6D29E9
:101690003A202020202020202000202846312E30F3
:1016A000203D2066756C6C2C2046302E30203D206D
:1016B0006E6F6E65290A002020436F727265637435
:1016C000696F6E20416D6F756E742F466164652D74
:1016D0006F75743A2020202020460061637469767B
:1016E000653A0A004261636B6C61736820436F72F4
:1016F00072656374696F6E20002008204661637410
:10170000002008204D6178002008204D696E0041BE
:1017100075746F74656D70005654726176204D69F2
:101720006E00566D696E00566D6178202A00566D08
:101730006178204500566D6178205A00566D6178B9
:10174000205900566D6178205800416D6178202A3B
:1017500000416D6178204500416D6178205A00415B
:101760006D6178205900416D6178205800412D54F9
:10177000726176656C00412D52657472616374000C
:10178000416363656C004A756E6374696F6E2044D3
:101790006576002A73746570732F6D6D00457374E0
:1017A0006570732F6D6D005A73746570732F6D6D56
:1017B000005973746570732F6D6D00587374657084
:1017C000732F6D6D004D6F74696F6E004732392055
:1017D00057004F75747075742055424C20496E66E1
:1017E0006F0055424C20546F6F6C73004F757470CE
:1017F0007574204D657368204D6170004D65736888
:101800002053746F72616765004D6573682045648D
:10181000697400537465702D42792D53746570207E
:1018200055424C004732392041004163746976616A
:1018300074652055424C00473239204400446561AC
:10184000637469766174652055424C001FE03FF077
:101850003FF03FF01FE01FE03FF03FF03FF00FC0D0
:10186000078003001FE020102010201010201020FF
:1018700020102010303008400480030001FF0006D3
:1018800018C0081F20101F90141F102E1E082F1C98
:10189000082FB8083FFC083FFFF8207FF8203BE8FE
:1018A0002071E820F0E811F05013F01009F0200644
:1018B00030C001FF0001FF000630C009F02011F028
:1018C0001010F01020F0682031E82039E8207FF86F
:1018D0003FFFF83FFC082F38082E18082C1E081070
:1018E0001E10101F10081F200618C001FF0001FF66
:1018F000000600C00901201783D01783D02FC7E846
:1019000027C7C821FF08207C08207C08207C0821EC
:10191000FF0827C7C82FC7E81783D01783D009014E
:10192000200600C001FF00FFFFC040002020001083
:1019300010000808000404000203FFFF0222000454
:101940004400044400022200011100FFFFC040884F
:10195000A021111012220808000404000203FFFF56
:101960002062797465733B20637263200053657451
:1019700074696E67732053746F7265642028004E1B
:101980006F20454550524F4D2E0A00454550524F4D
:101990004D206461746173697A65206572726F723B
:1019A0002E0A003F4D65736820746F6F206269676F
:1019B00020666F7220454550524F4D2E0A00554209
:1019C0004C2072657365740A00206C6F61646564F5
:1019D0002066726F6D2073746F726167652E0A00E6
:1019E0004D65736820003F43616E277420656E610A
:1019F000626C6520002073746F7265642073657477
:101A000074696E67732072657472696576656420A7
:101A10002800202863616C63756C617465642921FA
:101A20000A0020213D2000454550524F4D20435291
:101A300043206D69736D61746368202D2028737471
:101A40006F726564292000496E6465783A20002031
:101A50004D61726C696E3D563734290A0045455018
:101A6000524F4D2076657273696F6E206D69736D8C
:101A7000617463682028454550524F4D3D002074E5
:101A80006F6F206C6F6E6720657874727573696F05
:101A90006E2070726576656E7465640A0020636FEF
:101AA0006C6420657874727573696F6E20707265EE
:101AB00076656E7465640A004D31303920532569AE
:101AC000004D3139302053256900496E666F20532F
:101AD000637265656E004265642054656D700048F0
:101AE0006F74656E642054656D7000473239205004
:101AF000362043202D0048656967687420416D6F6A
:101B0000756E740041646A757374204D6573682046
:101B100048656967687400473239205034205400A2
:101B200046696E652054756E6520436C6F736573EE
:101B30007400473236204320422569204825692019
:101B4000500056616C696461746520437573746FED
:101B50006D204D657368004732380A47323620439E
:101B600020423730204832353020500056616C69B1
:101B700064617465204D6573682028504554472979
:101B8000004732380A473236204320423630204858
:101B900032303020500056616C6964617465204DAC
:101BA0006573682028504C412900473239204A2566
:101BB00069004C6576656C204D65736800536964F7
:101BC0006520506F696E74730047726964204D65BB
:101BD0007368204C6576656C696E67004732392002
:101BE0004A3000332D506F696E74204C6576656CF9
:101BF000696E6700473239205033205220432E252A
:101C000069004D616E75616C2046696C6C2D696E62
:101C10000046696C6C2D696E20416D6F756E7400A5
:101C20004D65736820696E76616C69646174656482
:101C30002E0A00473239204900496E76616C69648A
:101C400061746520436C6F7365737400496E7661CF
:101C50006C696461746520416C6C004732392050B6
:101C600031204300436F6E74696E75652042656470
:101C7000204D6573680046696C6C2D696E204D655A
:101C80007368004275696C6420437573746F6D20CE
:101C90004D657368004732380A4D3139302053376B
:101CA000300A4D31303920533235300A473239202D
:101CB00050310A4D3130342053300A4D3134302008
:101CC0005330004275696C64204D6573682028505C
:101CD00045544729004732380A4D313930205336B0
:101CE000300A4D31303920533230300A47323920F2
:101CF00050310A4D3130342053300A4D31343020C8
:101D00005330004275696C64204D6573682028501B
:101D10004C41290020436F756E7420583A0057617A
:101D2000726E696E673A20486F6D696E6720427502
:101D30006D702044697669736F72203C20310A000F
:101D400000007F4300007F4300007A43000020C171
:101D500000000000000000000000204200002042BF
:101D6000000080400202020000A0400000A04000ED
:101D700000A0400080844300007F4300007A43FFBE
:101D8000FFFF000000010000000100008000555529
:101D900055000000400033333300AAAA2A004992BC
:101DA000240000002000C7711C0099991900D1453A
:101DB0001700555515003BB11300244912001111AD
:101DC0001100000010000F0F0F00E3380E004379E0
:101DD0000D00CCCC0C00C3300C00E8A20B00642139
:101DE0000B00AAAA0A00703D0A009DD80900427B98
:101DF000090092240900DCD30800888808001042FA
:101E0000080000000800F0C1070087870700755030
:101E10000700711C07003EEB0600A1BC060069909C
:101E2000060066660600703E06006118060017F49C
:101E3000050074D105005BB00500B2900500627228
:101E400005005555050078390500B81E0500050543
:101E500005004EEC040087D40400A1BD040090A747
:101E6000040049920400C17D0400EE690400C756D5
:101E70000400444404005C320400082104004110C2
:101E80000400000004003FF00300F8E0030026D245
:101E90000300C3C30300CCB503003AA803000A9BA8
:101EA0000300388E0300C08103009F750300D069D2
:101EB0000300505E03001D53030034480300913DAE
:101EC00003003333030016290300381F030097155E
:101ED0000300300C0300030303000BFA020049F176
:101EE0000200BAE802005CE002002DD802002DD00A
:101EF000020059C80200B0C0020031B90200DAB1D4
:101F00000200AAAA0200A0A30200BC9C0200FA954B
:101F100002005C8F0200DF88020082820200457CA2
:101F200002002776020027700200436A02007C64E8
:101F30000200D05E02003F590200C8530200457201
:101F4000723A207574663820666F6E74206E6F74F6
:101F500020696E697469616C697A65642E00256810
:101F6000753A253032687500256875642025303251
:101F700068753A253032687500000C0D00FE0702C6
:101F80002603BC017FFE08FE08FE050808060000C7
:101F900040F0C88888987810050808060000C0F846
:101FA0008888888888F80505050600012030F83003
:101FB000200508080600002070F820202020E005F9
:101FC00009090600FF2070A8A8B8888870200506B7
:101FD00006060001E08CEA8C8A0A0509090600FF62
:101FE000F8A88888888888A8F8050A0A0600FE20CC
:101FF0005050505088A8A88870030303060003407F
:10200000A040FFFFFFFFFFFFFFFFFFFFFFFFFFFFFE
:10201000FFFFFFFFFFFFFFFF0000000605FF0107B6
:102020000706020080808080800080030303060191
:1020300005A0A0A005060606000050F85050F85074
:102040000509090600FF2070A8A07028A8702005C7
:102050000707060000C8C810204098980507070623
:10206000000040A0A040A89068010303060205807C
:1020700080800309090601FF2040408080804040A5
:10208000200309090601FF804040202020404080B5
:1020900005070706000020A8702070A82005050588
:1020A0000600012020F820200203030601FFC040A3
:1020B00080050101060003F8020202060100C0C00B
:1020C000050707060000081010204040800507079C
:1020D000060000708898A8C88870030707060100EA
:1020E00040C040404040E0050707060000708808F7
:1020F000102040F8050707060000F808103008888F
:102100007005070706000010305090F81010050702
:1021100007060000F880F008088870050707060029
:1021200000304080F0888870050707060000F80836
:10213000101020202005070706000070888870888E
:10214000887005070706000070888878081060020C
:102150000505060100C0C000C0C00206060601FF5A
:10216000C0C000C04080030505060101204080403A
:1021700020050303060002F800F803050506010127
:10218000804020408005070706000070881020204E
:1021900000200507070600007088B8A8B880700501
:1021A0000707060000708888F888888805070706F2
:1021B0000000F04848704848F00507070600007026
:1021C000888080808870050707060000F04848482E
:1021D0004848F0050707060000F88080F08080F886
:1021E000050707060000F88080F08080800507075B
:1021F0000600007088808098887005070706000038
:10220000888888F8888888030707060100E040402E
:10221000404040E0050707060000381010101090FD
:10222000600507070600008890A0C0A090880507F9
:1022300007060000808080808080F8050707060080
:102240000088D8A88888888805070706000088883D
:10225000C8A89888880507070600007088888888BD
:102260008870050707060000F08888F080808005E8
:10227000070706000070888888A890680507070689
:102280000000F08888F0A09088050707060000701D
:10229000888070088870050707060000F820202055
:1022A0002020200507070600008888888888887015
:1022B0000507070600008888888850502005070712
:1022C00006000088888888A8A8500507070600002F
:1022D00088885020508888050707060000888850A5
:1022E00020202020050707060000F8081020408065
:1022F000F80309090601FFE080808080808080E08B
:102300000507070600008040402010100803090957
:102310000601FFE020202020202020E00503030606
:1023200000052050880501010600FEF8030303069E
:1023300001058040200505050600007008788878B2
:102340000507070600008080F0888888F0050505ED
:1023500006000070808088700507070600000808E6
:1023600078888888780505050600007088F08070F8
:10237000050707060000304840E0404040050707D9
:102380000600FE7088888878087005070706000038
:102390008080F0888888880307070601004000C015
:1023A000404040E00409090601FE10003010101002
:1023B00010906005070706000080808890E09088F4
:1023C000030707060100C04040404040E005050506
:1023D000060000D0A8A8A8A8050505060000B0C8FA
:1023E00088888805050506000070888888700507BC
:1023F000070600FEF0888888F08080050707060041
:10240000FE78888888780808050505060000B0C8A9
:1024100080808005050506000078807008F00507BB
:10242000070600002020F8202020180505050600DA
:102430000088888898680505050600008888885007
:10244000200505050600008888A8A8500505050692
:10245000000088502050880507070600FE888888FD
:1024600050204080050505060000F8102040F803C4
:1024700009090601FF2040404080404040200109FA
:10248000090602FF808080808080808080030909A7
:102490000601FF8040404020404040800503030685
:1024A000000248A890FF556E6C6F61642046696C0D
:1024B000616D656E74202A004C6F61642046696C02
:1024C000616D656E74202A0052756E6F75742053AD
:1024D000656E736F7200554E4C4F41442046494C17
:1024E000414D454E540046494C414D454E542043C4
:1024F00048414E4745004732380A47323920503468
:1025000020523235350A47323920410A4D353030B4
:10251000004732392050340A4D353030004D3330C9
:102520003320553120453020533235302043380A8E
:102530004D353030004D33303320553120452D316D
:10254000205339302043380A4D353030004D393072
:1025500030204B300A4D353030004D393030204B73
:10256000302E320A4D353030004D393030204B306E
:102570002E330A4D353030004D393030204B302E5F
:10258000340A4D353030004D393030204B302E3547
:102590000A4D353030004D393030204B302E360A60
:1025A0004D353030004C696E20416476204B302E22
:1025B00035004C696E20416476204B302E34004C3F
:1025C000696E20416476204B302E33004C696E20BA
:1025D000416476204B302E32004C696E2041647687
:1025E000204F66660050494474756E6520426564EC
:1025F000004C696E20416476204B302E36005049E5
:102600004474756E6520486F74656E640041646A39
:1026100075737420506F696E74204E656172004D41
:10262000616E75616C2055424C004D37303220543C
:102630002564004D36303020423020542564004D52
:10264000373032203B2564004D373031205425642B
:1026500000556E6C6F61642046696C616D656E74C7
:10266000004C6F61642046696C616D656E7400504A
:1026700072656865617420437573746F6D004D36C3
:10268000303020423020542569004D3730312054FD
:102690002569004D37303220542569004D373032DE
:1026A00000556E6C6F616420416C6C004368616E14
:1026B00067652046696C616D656E74202A005075EF
:1026C000726765206D6F726500524553554D452008
:1026D0004F5054494F4E533A005052494E54205097
:1026E00041555345440020204E6F7A7A6C653A205C
:1026F0000020595A3A200020585A3A2000205859B0
:102700003A2000536B657720466163746F72006DE9
:10271000696E5F736B65775F666163746F723A2091
:10272000202D31206D61785F736B65775F66616323
:10273000746F723A2020310A00416363656C6572E0
:102740006174696F6E3A2050003F4A206F757420A3
:102750006F662072616E67652028302E30312074DC
:102760006F20302E33290A0020633A00204D393281
:10277000205400204D393220580020204D61783AF5
:10278000200020204D696E3A2000536F667420654A
:102790006E6473746F70733A20004D323420532589
:1027A0006C642054256C64004739322E392045254D
:1027B00073004731204625640047312045312046CB
:1027C00033303030004739322E39205A25730047D4
:1027D00031205A302046323030004731205825739E
:1027E00020592573204633303030004731204531A1
:1027F0002046323030004D34323020532569205A83
:102800002573004D3130362050256920532569004D
:102810005425692053004739322E392045305A302B
:102820000A47315A320A47323852305859004D342B
:102830003230205330205A300020496E76616C6966
:1028400064206578747275646572200054656D70DB
:102850006572617475726500507265686561742097
:1028600050455447005072656865617420504C4172
:10287000004E6F7A7A6C65004D61696E005072652A
:1028800068656174205045544720456E640050725D
:102890006568656174205045544720426564004373
:1028A0006F6F6C646F776E0046616E205370656564
:1028B00064203D004E6F7A7A6C65205374616E64BB
:1028C0006279004261627973746570205A00466CC7
:1028D0006F77207E00466C6F77004D6573682045EA
:1028E0006469746F720000FE0003FF8007C7C007B1
:1028F00001E00000E00000F00000700400700E0035
:10290000701F00703F80F00E00E00F01E007C7C0AD
:1029100003FF8000FE0000FE0003FF8007C7C00F1A
:1029200001E00E00E03F80F01F00700E0070040018
:10293000700000700000F00000E00701E007C7C071
:1029400003FF8000FE000E000E000E000E000E00C1
:102950000E000E000E007FC03F801F000E0004001E
:1029600004000E001F003F807FC00E000E000E000E
:102970000E000E000E000E000E00FFFFFF7F80FF16
:10298000C0FFC0FFC07F807F80FFC0FFC0FFC03F8F
:10299000001E000C0024F4D43050C38E20C2A2408C
:1029A00017828B7011127A910D816CD90AA861E19E
:1029B00008C7586607615143061E4B5D05C145A710
:1029C000041A411104093D9803713931034036DB83
:1029D0000265339102D4305402802E1D02632CEE26
:1029E00001752AC501B028A001102781018F256437
:1029F000012B244B01E0223401AC211F018D200D5D
:102A000001801FFC00841EED00971DDF00B81CD262
:102A100000E61BC600201BBC00641AB200B219A855
:102A2000000A19A0006A189900D117910040178B6D
:102A300000B516840031167E00B31579003A15737F
:102A400000C7146F0058146A00EE13660088136301
:102A50000025135E00C7125B006C1257001512545C
:102A600000C111510070114F0021114B00D61049C7
:102A7000008D1047004610440002104200C00F4075
:102A800000800F3E00420F3C00060F3B00CB0E388B
:102A900000930E37005C0E3500270E3400F30D3224
:102AA00000C10D3100900D3000600D2E00320D2D53
:102AB00000050D2C00D90C2B00AE0C2900850C292B
:102AC000005C0C2700350C27000E0C2600E80B24B8
:102AD00000C40B2400A00B23007D0B23005A0B2104
:102AE00000390B2100180B2000F80A1F00D90A1E1C
:102AF00000BB0A1E009D0A1D00800A1D00630A1CFF
:102B000000470A1B002C0A1B00110A1A00F7091AB9
:102B100000DD091900C4091900AB09190092091751
:102B2000007B091800630917004C091600360916C6
:102B300000200916000A091500F5081500E0081420
:102B400000CC081400B8081400A40814009008135E
:102B5000007D0812006B0813005808120046081286
:102B60000034081100230811001208110001081197
:102B700000F0071000E0071000D0071000C0071099
:102B800000B0070F00A107100091070E0083070F88
:102B90000074070F0065070E0057070E0049070E67
:102BA000003B070D002E070E0020070D0013070D38
:102BB0000006070D00F9060C00ED060D00E0060CFE
:102BC00000D4060C00C8060C00BC060C00B0060CB5
:102BD00000A4060B0099060C008D060B0082060B64
:102BE0000077060B006C060B0061060A0057060B07
:102BF000004C060A0042060A0038060A002E060AA1
:102C00000024060A001A060A001006090007060A30
:102C100000FD050900F4050900EB050900E20509BE
:102C200000D9050900D0050900C7050900BE05093E
:102C300000B5050800AD050800A50509009C0508BC
:102C400000940508008C050800840508007C050830
:102C500000740508006C050700650508005D0507A0
:102C600000560508004E0507004705070040050807
:102C70000038050700310507002A0507002305076E
:102C8000001C050600160507000F050700080506CD
:102C90000002050700FB040600F5040700EE040629
:102CA00000E8040600E2040700DB040600D5040681
:102CB00000CF040600C9040600C3040600BD0406D4
:102CC00000B7040600B1040500AC040600A6040623
:102CD00000A00405009B040600950405009004066E
:102CE000008A04050085040500800406007A0405B6
:102CF0000075040500700405006B040500660405FA
:102D000000610405005C0405005704050052040539
:102D1000004D04050048040500430405003E04047A
:102D2000003A04050035040500300404002C0405B5
:102D30000027040400230405001E0404001A0404F0
:102D40000016040500110404000D04040009040524
:102D5000000404040000040400FC030400F803045D
:102D600000F4030400F0030400EC030400E803048F
:102D700000E4030400E0030400DC030400D80304BF
:102D800000D4030400D0030400CC030400C80303F0
:102D900000C503030024F404D9201BC40C5C0E9866
:102DA00004C4095F0265077101F405F900FB04B36F
:102DB0000048048700C10369005803550003034518
:102DC00000BE023A008402310053022A0029022583
:102DD0000004022000E4011C00C8011900AF011723
:102DE00000980114008401130071011000610110AA
:102DF0000051010E0043010D0036010B002B010BA9
:102E00000020010B00150109000C01090003010855
:102E100000FB000800F3000800EB000700E40006D8
:102E200000DE000600D8000600D2000600CC000537
:102E300000C7000500C2000500BD000400B9000481
:102E400000B5000400B1000400AD000400A90004B6
:102E500000A5000300A20003009F0004009B0003E4
:102E60000098000300950002009300030090000307
:102E7000008D0002008B0003008800020086000223
:102E80000084000300810002007F0002007D000238
:102E9000007B00020079000200770001007600024A
:102EA000007400020072000100710002006F000255
:102EB000006D0001006C0002006A00010069000260
:102EC0000067000100660001006500010064000267
:102ED000006200010061000100600001005F00026B
:102EE000005D0001005C0001005B0001005A000170
:102EF0000059000100580001005700010056000170
:102F0000005500010054000100530000005300016F
:102F1000005200010051000100500001004F00016B
:102F2000004E0000004E0001004D0001004C000169
:102F3000004B0000004B0001004A00010049000165
:102F40000048000000480001004700010046000062
:102F5000004600010045000000450001004400015A
:102F60000043000000430001004200000042000155
:102F7000004100000041000100400001003F00004E
:102F8000003F0001003E0000003E0001003D000047
:102F9000003D0001003C0000003C0000003C00013E
:102FA000003B0000003B0001003A0000003A000135
:102FB000003900000039000100380000003800002E
:102FC0000038000100370000003700010036000023
:102FD000003600000036000100350000003500001A
:102FE000003500010034000000340000003400010E
:102FF0000033000000330000003300010032000005
:1030000000320000003200010031000000310000F9
:1030100000310001003000000030000000300001ED
:10302000002F0000002F0000002F0000002F0001E3
:10303000002E0000002E0000002E0001002D0000D8
:10304000002D0000002D0000002D0001002C0000CC
:10305000002C0000002C0000002C0001002B0000C0
:10306000002B0000002B0000002B0001002A0000B4
:10307000002A0000002A0000002A000100290000A8
:10308000002900000029000000290000002900019B
:103090000028000000280000002800000028000090
:1030A0000028000100270000002700000027000082
:1030B0000027000000270001002600000026000075
:1030C0000026000000260000002600010025000068
:1030D000002500000025000000250000002500005C
:1030E000002500010024000000240000002400004E
:1030F0000024000000240001002300000023000041
:103100000023000000230000002300000023000033
:103110000023000100220000002200000022000025
:103120000022000000220000002200010021000017
:10313000002100000021000000210000002100000B
:1031400000210000002100010020000000200000FC
:1031500000200000002000000020000000200000EF
:103160000020000000200001001F0000001F0000E0
:10317000001F0000001F0000001F0000001F0000D3
:10318000001F0001001E0000001E0000001E0000C5
:10319000001E000000232C0000B82200005618007A
:1031A000003A0F0000B8080000B1040000710200EE
:1031B000003E0100006F70656E206661696C656499
:1031C0002C2046696C653A2000220A00556E6B6E11
:1031D0006F776E20636F6D6D616E643A20220054CC
:1031E0004845524D414C2052554E4157415900548B
:1031F0006865726D616C2052756E617761790070DF
:103200006F7765726F666600506C656173652052FA
:1032100065736574005052494E5445522048414CE4
:103220005445440025533A202553004B494C4C4506
:10323000442E20005072696E7465722068616C744F
:1032400065642E206B696C6C28292063616C6C6549
:1032500064210A00496E76616C6964206578747235
:10326000756465720A0048656174696E672046611D
:10327000696C65640048656174696E6720666169A0
:103280006C656400202D20496E76616C6964206550
:1032900078747275646572206E756D626572202136
:1032A0000A004572723A204D415854454D50004D28
:1032B000415854454D502074726967676572656462
:1032C000004572723A204D494E54454D50004D49CB
:1032D0004E54454D5020747269676765726564008D
:1032E0004D3834204500202F002042403A00204035
:1032F0003A00452025530020573A0041637469760F
:10330000652045787472756465723A200070012CEE
:103310000190012701B0012201C0011D01F0011837
:10332000011002130130020E016002090190020433
:1033300001C002FF000003FA004003F5008003F023
:1033400000D003EB002004E6007004E100E004DCA0
:10335000004005D700C005D2004006CD00D006C809
:10336000008007C3003008BE00F008B900C009B4EF
:1033700000B00AAF00B00BAA00D00CA500000EA050
:1033800000500F9B00C01096005012910000148C4A
:1033900000C0158700B0178200B0197D00D01B78DF
:1033A00000001E730040206E0090226900F024642B
:1033B0000040275F0090295A00E02B5500102E5046
:1033C0000020304B0010324600E033410090353C85
:1033D000001037370070383200A0392D00B03A287D
:1033E00000A03B2300603C1E00103D1900903D14DE
:1033F00000103E0F00703E0A00C03E0500003F0076
:1034000000403FFBFF803FF6FFC03FF1FF4469668D
:10341000663A200046726F6D5374703A00537465BB
:10342000707065723A00556E4C6576656C3A004C6A
:103430006576656C65643A005261773A20202020F9
:10344000000A4C6F676963616C3A00436F756E7474
:1034500020453A004361703A004D302F31204272CE
:1034600065616B2043616C6C656400436C69636BE0
:1034700020746F20526573756D652E2E2E00656E5B
:103480007175657565696E672022006F6B00526506
:1034900073656E643A200042656420436F6F6C6907
:1034A0006E672E2E2E004265642048656174696E39
:1034B000672E2E2E0023646566696E65204445469E
:1034C00041554C545F004B6420004B6920004B7009
:1034D0002000504944204175746F74756E652066F4
:1034E000696E69736865642120507574207468651D
:1034F000206C617374204B702C204B6920616E64CA
:10350000204B6420636F6E7374616E7473206672F7
:103510006F6D2062656C6F7720696E746F20436FEA
:103520006E66696775726174696F6E2E680A005005
:103530004944204175746F74756E65206661696CCD
:103540006564212074696D656F75740A000A2043F3
:103550006C617373696320504944200A00204B64F6
:103560003A2000204B693A2000204B703A20000A94
:10357000204E6F206F76657273686F6F740A00203B
:1035800054753A2000204B753A2000206D61783A3E
:103590002000206D696E3A200020643A20002062ED
:1035A0006961733A2000504944204175746F747505
:1035B0006E652073746172740A005049442041752D
:1035C000746F74756E65206661696C656421205442
:1035D000656D706572617475726520746F6F2068B7
:1035E0006967680A00504944204175746F74756EAC
:1035F00065206661696C656421204261642065789C
:10360000747275646572206E756D6265720A00650C
:1036100063686F3A004572726F723A0020204D3431
:1036200032312049002020473239204939390A00F7
:103630006163746976650A002053797374656D203F
:1036400076312E303120002020207C0A004E414E61
:103650000020202E20202000207C004C43443A0AE9
:10366000004353563A0A0020666F7220003A0A0A55
:10367000000A42656420546F706F677261706879E8
:10368000205265706F727400446F6E652E0A003FA1
:10369000496E76616C69642073746F72616765202E
:1036A000736C6F742E0A3F557365203020746F2041
:1036B000004732392050322066696E69736865644C
:1036C0002E0A005859206F757473696465207072F2
:1036D000696E7461626C65207261646975732E0A2B
:1036E000003F4572726F7220696E20427573696E79
:1036F0006573732043617264206D656173757265D3
:103700006D656E742E0A004D616E75616C6C79206A
:1037100070726F62696E6720756E72656163686151
:10372000626C65206D657368206C6F636174696F8E
:103730006E732E0A004D657368207A65726F65643A
:103740002E0A0044656661756C742073746F726133
:10375000676520736C6F7420302073656C656374CB
:1037600065642E0A004C6F6164696E67207465732E
:10377000745F7061747465726E2076616C756573C8
:103780002E0A0A00496E76616C6964207465737450
:103790005F7061747465726E2076616C75652E2041
:1037A000282D3120746F2032290A0A004C6F636182
:1037B00074696F6E7320696E76616C69646174659B
:1037C000642E0A0A00456E74697265204D6573683F
:1037D00020696E76616C6964617465642E0A0A0002
:1037E0005374616E646172642044657669617469C2
:1037F0006F6E3A20004D65616E204D6573682048FC
:1038000065696768743A200023206F662073616DD4
:10381000706C65733A20007C3C3E5E2B3D3F2F5B15
:103820005D3B2C2A225C004C6F6164206D6D00555D
:103830006E6C6F6164206D6D00416476616E6365CE
:10384000204B202A005072696E742066726F6D20C2
:103850004D656469610044697361626C6552756E9F
:103860006F757400496E736572742066696C616D62
:10387000656E7420616E642073656E64204D313016
:10388000380A00486F6D652025732573257320461F
:103890006972737400626567696E0050757267655E
:1038A0004D6F726500436F6E74696E7565004C6F85
:1038B00061642046696C616D656E7420540000007F
:1038C0002100240027002A002D00300033000101D0
:1038D0000000040107010A01000022002500280061
:1038E0002B002E0031003400020100000501080108
:1038F0000B01000020002300260029002C002F00CF
:10390000320000010000030106010901050505055B
:10391000070508080808020202020A0A0808040447
:103920000404010101010101010103030303030375
:103930000303040707070C0C0C0C0C0C0C0C020204
:10394000020206060606060606060B0B0B0B0B0B01
:103950000B0B01021020200808102040102040808E
:103960000201020108040201010204081020408043
:1039700080402010080402018004020180402010D1
:10398000080402010804020101020408102040801A
:10399000010204081020408000000A0B02090C0DEF
:1039A0000E080703040100000000000000000000F2
:1039B0000000000000000000000000000000000007
:1039C00000000000121110000000000000000000C4
:1039D0000000000000000000000000000000205374
:1039E000697A653A200043616E6E6F74206F70656E
:1039F0006E207375626469722000534420636172A3
:103A000064206F6B0A006F70656E526F6F74206672
:103A100061696C65640A00766F6C756D652E696E00
:103A20006974206661696C65640A00534420696E9C
:103A30006974206661696C0A004D32332025730079
:103A400046696C652073656C65637465640A00463D
:103A5000696C65206F70656E65643A2000454E4460
:103A600020535542524F5554494E450A002220706A
:103A70006F73002220706172656E743A2200535594
:103A800042524F5554494E452043414C4C2074619D
:103A9000726765743A2200747279696E6720746F78
:103AA0002063616C6C207375622D67636F646520A1
:103AB00066696C6573207769746820746F6F206D18
:103AC000616E79206C6576656C732E204D415820AF
:103AD0006C6576656C2069733A310A0057726974B7
:103AE000696E6720746F2066696C653A20004465D2
:103AF0006C6574696F6E206661696C65642C204624
:103B0000696C653A200046696C652064656C657473
:103B100065643A005344207072696E74696E672060
:103B20006279746520004E6F74205344207072696E
:103B30006E74696E670A00667265736800646F6907
:103B40006E67004E6F7720004F7574616765205275
:103B500065636F76657279004261636B00436861EB
:103B60006E67652046696C616D656E7400436F6EAB
:103B700066696775726174696F6E003F0043616EBC
:103B800063656C004D313030300053746F702050DD
:103B900072696E7400526573756D65205072696E3E
:103BA000740053746F70004D3231004368616E676A
:103BB00065204D65646961004175746F737461724D
:103BC00074004E6F204D656469610054756E650028
:103BD0005374617274205072696E740043616E6E2A
:103BE0006F7420656E746572207375626469723AD1
:103BF0002000022E2E005061726B696E672E2E2EF1
:103C00000000005761697420666F720066696C611C
:103C10006D656E74206368616E676500746F2073F4
:103C200074617274005761697420666F720066690E
:103C30006C616D656E7420756E6C6F616400004E12
:103C40006F7A7A6C652068656174696E6700506C84
:103C50006561736520776169742E2E2E00005072A5
:103C600065737320627574746F6E00746F2068657D
:103C70006174206E6F7A7A6C650000496E736572AC
:103C8000742066696C616D656E7400616E6420708D
:103C90007265737320627574746F6E00746F206345
:103CA0006F6E74696E7565005761697420666F7216
:103CB0000066696C616D656E74206C6F61640000F4
:103CC000507265737320427574746F6E00746F2048
:103CD000726573756D65207072696E74000057614E
:103CE000697420666F72207072696E7400746F2040
:103CF000726573756D652E2E2E00005761697420F4
:103D0000666F720066696C616D656E7420707572A5
:103D10006765000047323920503420523939392044
:103D200054004732380A473239205031004D313182
:103D300037204D657368202569204C6F6164656488
:103D400000473239204C2569004D313137204D650F
:103D500073682025692053617665640047323920F5
:103D6000532569004C6F616420426564204D657382
:103D700068004D656D6F727920536C6F74004E6FE3
:103D80002053746F7261676500486F6D696E6720BC
:103D900058595A0047323920503420582573205939
:103DA00025732052256900202D2D2D2D2D00473201
:103DB000380047323920532D31004F66662050724B
:103DC000696E746572204261636B757000473239A9
:103DD000205431004F757470757420666F722043E3
:103DE000535600473239205430004F757470757443
:103DF00020666F7220486F73740045646974204DAB
:103E00006573680047323920493939390A473239F0
:103E10002050322042205430004D616E75616C6C30
:103E200079204275696C64204D65736800372E20D7
:103E30005361766520426564204D65736800362EB7
:103E40002046696E652054756E6520416C6C0035A6
:103E50002E2056616C6964617465204D657368003D
:103E6000342E2046696E652054756E6520416C6C59
:103E700000332E2056616C6964617465204D657352
:103E8000680047323920503320543000322E2053FE
:103E90006D6172742046696C6C2D696E00312E2044
:103EA0004275696C6420436F6C64204D65736800D3
:103EB0004F6E004D6F76652025736D6D004D6F76EA
:103EC0006520302E316D6D004D6F766520316D6D42
:103ED000004D6F76652031306D6D00486F74656EF2
:103EE0006420746F6F20636F6C6400457874727522
:103EF000646572202A004578747275646572004D9D
:103F00006F7665205A004D6F76652059004D6F76AB
:103F100065205800536F667420456E6473746F702B
:103F200073004D38340044697361626C65205374CA
:103F3000657070657273004C6576656C20436F72B6
:103F40006E65727300473238205A00486F6D6520E5
:103F50005A00473238205900486F6D652059004794
:103F60003238205800486F6D652058004175746FD5
:103F700020486F6D65004D6F76652041786973004C
:103F80005072656865617420504C4120456E640034
:103F90005072656865617420504C41204265640030
:103FA00002687474703A2F2F6D61726C696E667757
:103FB0002E6F7267004275696C6420343537004D8E
:103FC000313030302053002020506C616E6E6572AD
:103FD00042756666657242797465733A20002046C0
:103FE000726565204D656D6F72793A2000436F6D83
:103FF00070696C65643A2044656320333120323047
:1040000031390A00204C6173742055706461746505
:10401000643A20323031392D31322D3139207C2033
:10402000417574686F723A202856657274616272C5
:1040300065616B6572290A004275696C64203435CC
:10404000370A004D61726C696E0020536F66747799
:104050006172652052657365740A0020576174634C
:1040600068646F672052657365740A002042726F3E
:10407000776E206F75742052657365740A00204551
:10408000787465726E616C2052657365740A0050B5
:104090006F77657255700A006175746F25632E67BE
:1040A00000473237006572726F72207772697469E7
:1040B0006E6720746F2066696C650A00446F6E65D8
:1040C00020736176696E672066696C652E0A004D03
:1040D00032390025532025632025632025632025C0
:1040E0006300205A3A0020593A00656E6473746F79
:1040F0007073206869743A20001FFFFFFFFFFFFF05
:10410000600000000001FF400000000000FF800090
:10411000000000007F83CF00000C303F87FF80004D
:104120000C301F867980000C000F8C30C7838C30D8
:10413000E78C30CFC7CC31F38C30DCECEC33B98C6E
:1041400030D86C6C33198C30D06C0C33198C30D85F
:104150006C0C33198C30DC6C0E3B198C30CF7C0727
:104160009F198C30C77C038F1940000000000002AB
:10417000600000000000061FFFFFFFFFFFF8204A5D
:1041800000205200454550524F4D20496E697469D8
:10419000616C697A65640A004D65736820736176A5
:1041A000656420696E20736C6F7420003F556E61EA
:1041B000626C6520746F2073617665206D6573682D
:1041C00020646174612E0A0020736C6F743D0020BE
:1041D0006D65736865735F656E643D004532454E7D
:1041E000443D00206D65736820736C6F74732061AB
:1041F0007661696C61626C652E0A003F496E76617A
:104200006C696420736C6F742E0A004D65736820AE
:104210006C6F616465642066726F6D20736C6F747F
:1042200020003F556E61626C6520746F206C6F6179
:1042300064206D65736820646174612E0A004861B2
:104240007264636F6465642044656661756C742094
:1042500053657474696E6773204C6F616465640A9A
:104260000020204D363033200020286D6D2900209D
:1042700028696E290046616872656E686569740018
:1042800043656C73697573004B656C76696E005598
:104290006E696669656420426564204C6576656C6C
:1042A000696E670020204D34313220530046696C1E
:1042B000616D656E742072756E6F75742073656EB6
:1042C000736F723A0A0020204D3432352046004286
:1042D00061636B6C61736820636F6D70656E736191
:1042E00074696F6E3A0A00546F6F6C2D6368616E6B
:1042F00067696E673A0A005432204C005431204CF2
:10430000002055005430204C0046696C616D656E8C
:1043100074206C6F61642F756E6C6F6164206C65C6
:104320006E677468733A0A0020204D39303020548B
:10433000004C696E65617220416476616E63653A16
:104340000A0020204D383532204900536B65772014
:10435000466163746F723A200A0020204D34313375
:10436000205300506F7765722D4C6F737320526528
:10437000636F766572793A0A0020204D333034201D
:10438000500020204D3330312050005049442073DC
:10439000657474696E67733A0A0020480020204DE6
:1043A0003134352053004D6174657269616C206849
:1043B000656174757020706172616D65746572738A
:1043C0003A0A00206D65736865732E0A0A00454538
:1043D00050524F4D2063616E20686F6C6420000A5C
:1043E000416374697665204D65736820536C6F7402
:1043F0003A200020204D34323020530020204D320E
:104400003035204200204A3C6A756E635F646576F1
:104410003E00416476616E6365643A20423C6D699A
:104420006E5F7365676D656E745F74696D655F75EA
:10443000733E20533C6D696E5F666565647261749E
:10444000653E20543C6D696E5F74726176656C5F89
:1044500066656564726174653E0020204D323034BB
:10446000205000416363656C65726174696F6E20F2
:1044700028756E6974732F7332293A20503C70721C
:10448000696E745F616363656C3E20523C72657453
:10449000726163745F616363656C3E20543C747247
:1044A0006176656C5F616363656C3E0A0020204D38
:1044B00032303120540020204D3230312058004D10
:1044C0006178696D756D20416363656C65726174B7
:1044D000696F6E2028756E6974732F7332293A0ADA
:1044E0000020204D32303320540020204D32303314
:1044F0002058004D6178696D756D20666565647240
:10450000617465732028756E6974732F73293A0A74
:104510000053746570732070657220756E69743A0B
:104520000A00203B20556E69747320696E200020BC
:10453000204D3134392000203B00202047320048F4
:104540006F6D696E67204661696C6564006F7065A8
:104550006E005452494747455245440066696C61B4
:104560006D656E74007A5F6D696E00795F6D696E5E
:1045700000785F6D696E005265706F7274696E6766
:1045800020656E6473746F70207374617475730A40
:104590000000004843000048430000A0400000F035
:1045A000410000A0420000A0420000C8430000D724
:1045B000430000D7430000D743D0070000D00700D6
:1045C0000064000000A00F00004469736D697373FC
:1045D000005072696E74205061757365640050619B
:1045E000757365205072696E74004D656469612051
:1045F00052656D6F766564004D6564696120496E32
:10460000736572746564006E6F7469666963617462
:10461000696F6E20003344205072696E7465722099
:1046200052656164792E005072696E74696E672EEE
:104630002E2E0063616E63656C005072696E74208B
:1046400041626F727465640055492041626F7274F3
:104650006564004D323520500A4D32340052657386
:10466000756D6500554920506175736500726573FD
:10467000756D6500FFFDFCFAF8F6F4F2F0EEECEA79
:10468000E9E7E5E3E1E0DEDCDAD9D7D5D4D2D0CF73
:10469000CDCBCAC8C7C5C3C2C0BFBDBCBAB9B7B607
:1046A000B4B3B2B0AFADACAAA9A8A6A5A4A2A1A06C
:1046B0009E9D9C9A99989795949392908F8E8D8BAE
:1046C0008A8988878684838281807F7E7D7B7A79D0
:1046D0007877767574737271706F6E6D6C6B6A69D2
:1046E0006867666564636261605F5E5D5C5B5A59C2
:1046F00058585756555453525150504F4E4D4C4B9D
:104700004A4A4948474646454443424241403F3E63
:104710003E3D3C3B3B3A3938383736353534333219
:10472000323130302F2E2E2D2C2B2B2A29292827C1
:104730002726252524232322212120201F1E1E1D5C
:104740001C1C1B1B1A1919181817161615151413EB
:104750001312121111100F0F0E0E0D0D0C0C0B0A6F
:104760000A090908080707060605050404030302E9
:1047700002010000453100626564002C20737973EA
:1047800074656D2073746F70706564212048656175
:104790007465725F49443A200000FD02B1011124A2
:1047A0001FBECFEFD1E2DEBFCDBF00E00CBF13E0F4
:1047B000A0E0B2E0E6E9FCE203E00BBF02C0079034
:1047C0000D92AC38B107D9F729E1ACE8B3E001C0EC
:1047D0001D92AA3BB207E1F713E2CEECD3E200E070
:1047E00006C021970109802FFE010F94BF91CD3C97
:1047F000D10780E00807A9F70F940A810D94399634
:104800000C9400002F923F924F925F926F927F9292
:104810008F929F92AF92BF92CF92DF92EF92FF92D0
:104820000F931F93CF93DF93CDB7DEB7C255D10956
:104830000FB6F894DEBF0FBECDBF62968FAF629702
:104840002091EF0F2F962FAF2F9781E08093EF0FDE
:104850008091C90E8D3409F44BC5843511F40C9444
:104860008A36873411F00C949B368091C70E909154
:10487000C80E8B31910509F417C4A4F48430910556
:1048800009F4DEC01CF4029768F12EC5843191054D
:1048900009F400C48531910509F401C40C9709F0AD
:1048A00023C50DC18A32910509F4AEC45CF48C3184
:1048B000910509F413C44D9709F016C50F94B12161
:1048C0000C949D368B35910509F418C48C359105EF
:1048D00009F419C48A35910509F006C510929808A3
:1048E0000C949D3680916102882311F40C949D36BE
:1048F00043E5A42E43E0B42E57E4C52E52E0D52E56
:1049000060EFE62E6FE0F62E10E0D5018D915D018F
:104910000F94C91B882349F1812F0E9458D8762E05
:10492000872E982E092F80917A0581111EC0812F24
:104930000E94CBD5882371F0D6012D913D914D91E8
:104940005C91672D782D892D902F0F94C891762E2C
:10495000872E02C0892D902F472D582DBC01F701BD
:1049600040835183628373830AC0F6018081918101
:10497000A281B381F70180839183A283B3831F5FF8
:10498000F4E0CF0ED11C24E0E20EF11C133009F04C
:10499000BCCF85E40F94C91B882321F183E00E94DA
:1049A00058D87B018C0183E00E94CBD5882371F01D
:1049B0002091530230915402409155025091560279
:1049C000B701C8010F94C8917B0101C0C801A701BC
:1049D000BC014093FC0F5093FD0F6093FE0F70934A
:1049E000FF0F10C08091530290915402A091550284
:1049F000B09156028093FC0F9093FD0FA093FE0F91
:104A0000B093FF0F86E40F94913E20E030E0A901BF
:104A10000F948F93181684F40F94731B20E030E0EA
:104A200040E752E40F945092609343027093440223
:104A300080934502909346020E9485BC0C949D365B
:104A400080E50F94C91B882329F00E94CDDC6B01FF
:104A50007C0103C0C12CD12C760183E50F94C91BC6
:104A6000882361F00F943C1B20E030E04AE754E4D7
:104A70000F942A8B0F94C9926B017C010E94C6AAE5
:104A800080916D09811105C060E08CE997E00F9479
:104A9000C3710F942545C60ED71EE81EF91E0F944C
:104AA0002545DC01CB018C199D09AE09BF09B7FD75
:104AB00002C00C949D3680E00E943945F0CF0F94DF
:104AC000F74081110C949D3660E070E080E50E9413
:104AD00098D7D82E65E070E083E50E9498D77C01D6
:104AE000382E65E070E084E50E9498D7282E40E0DB
:104AF00050E060ED70E482E50F94E51B4B015C0132
:104B00008091C20E87FF02C00C94AA368091C30E1A
:104B1000837011F00C94AA3601E082E0082B10910A
:104B20009908812F0F945D1C18A619A61AA61BA61A
:104B30001CA61DA61EA61FA618AA19AA1AAA1BAA59
:104B400080E090E0A0E2B1EC8C8F9D8FAE8FBF8FA4
:104B500018A219A21AA21BA21CA21DA21EA21FA269
:104B600032E0D3120CC0011105C085EA97E00F9422
:104B70006C1D8BC21C8E1D8E1E8E1F8E24C000FDD0
:104B800010C08091470290914802A0914902B091D3
:104B90004A028C8F9D8FAE8FBF8F88A799A7AAA737
:104BA000BBA701FD10C080914B0290914C02A091D7
:104BB0004D02B0914E0288A399A3AAA3BBA38CA7D0
:104BC0009DA7AEA7BFA780914F0290915002A091E0
:104BD0005102B09152028CA39DA3AEA3BFA388AB98
:104BE00099ABAAABBBAB81E0D81629F092E0D916FD
:104BF00009F45EC1F1C128A539A54AA55BA56C8D54
:104C00007D8D8E8D9F8D0F94C7914B015C0120E0AF
:104C100030E0A9010F94C48A882309F436C22CA578
:104C20003DA54EA55FA568A179A18AA19BA10F947E
:104C3000C7916B017C0120E030E0A9010F94C48A88
:104C4000882309F422C28CE0E7E4F2E0DE01119649
:104C500001900D928A95E1F71CAE1DAE1EAE1FAEFF
:104C600088E0FE01B896DE01D49601900D928A95F7
:104C7000E1F7BE01645C7F4FCE01C4960E9488B903
:104C8000220C20E030E0A901C501B4010F948F93FC
:104C90002401350187FF04C077FA709477F8709487
:104CA00020E030E0A901C701B6010F948F9387FF80
:104CB0000AC0D701C601B05828968CAF9DAFAEAFE1
:104CC000BFAF289706C02896CCAEDDAEEEAEFFAEE5
:104CD0002897A301920128966CAD7DAD8EAD9FAD56
:104CE00028970F94C48A181614F075016401A22D38
:104CF000B0E02A96BFAFAEAF2A97BD01BB0F880BBD
:104D0000990B0F94CB8A9B01AC01C701B6010F949C
:104D100050924B015C01D12CD31408F055C100E036
:104D2000802F002E000C990B2A96EEADFFAD2A972E
:104D30008E179F070CF05CC000FF05C09E01245E2B
:104D40003F4F790103C0CE0188967C01A3019201F7
:104D500028966CAD7DAD8EAD9FAD28970F94C48A1B
:104D6000402F002E000C550B660B770B1CAA1DAABA
:104D70001EAA1FAA1816ECF0CB01BA010F94CB8A19
:104D8000A50194010F942A8B9B01AC0168A579A51C
:104D90008AA59BA50F94C8916CAF7DAF8EAF9FAFD6
:104DA000B7016C5F7F4FAE014C5C5F4FCE01CC967C
:104DB0001BC0CB01BA010F94CB8AA50194010F94BB
:104DC0002A8B9B01AC016CA57DA58EA59FA50F9498
:104DD000C8916CAF7DAF8EAF9FAFAE014C5C5F4FA3
:104DE000BE01645C7F4FC7010E9466B90F5F98CF18
:104DF000022D07FD5BC000FF04C0DE015C967D0153
:104E000003C0FE01B8967F01A301920128966CAD04
:104E10007DAD8EAD9FAD28970F94C48A402F002E94
:104E2000000C550B660B770B1CAA1DAA1EAA1FAA05
:104E30001816ECF0CB01BA010F94CB8AA5019401AE
:104E40000F942A8B9B01AC0168A579A58AA59BA527
:104E50000F94C8916CAF7DAF8EAF9FAFB7016C5F01
:104E60007F4FAE014C5C5F4FCE01CC961BC0CB0197
:104E7000BA010F94CB8AA50194010F942A8B9B0150
:104E8000AC016CA57DA58EA59FA50F94C8916CAFB4
:104E90007DAF8EAF9FAFAE014C5C5F4FBE01645CD7
:104EA0007F4FC7010E9466B90150A3CFD39434CF7E
:104EB000332009F4EAC08CE0E7E4F2E0DE01119669
:104EC00001900D928A95E1F71CAE1DAE1EAE1FAE8D
:104ED00088E0FE01B896DE01D49601900D928A9585
:104EE000E1F7BE01645C7F4FCE01C4960E9488B991
:104EF00000E0E12CF12C24961CAE1DAE1EAE1FAEC0
:104F00002497B7010F2C000C880B990B0F94CB8AB8
:104F10002CE739ED40E25FE30F942A8B2B013C0133
:104F20000F944B929B01AC01C501B4010F942A8BE5
:104F30009B01AC0168A179A18AA19BA10F94C891A2
:104F40006CAF7DAF8EAF9FAFC301B2010F941794CA
:104F50009B01AC01C501B4010F942A8B9B01AC01EC
:104F60006C8D7D8D8E8D9F8D0F94C8916CAB7DABBC
:104F70008EAB9FABAE01405C5F4FBE01645C7F4F68
:104F8000CE01C4960E9466B9FFEFEF1AFF0A2AE02D
:104F9000E216F10409F0AFCF0F5F031508F4A9CFB3
:104FA0001CAE1DAE1EAE1FAE88E0FE01B896DE013F
:104FB000D49601900D928A95E1F7BE01645C7F4F13
:104FC000CE01C4960E9488B91CAA1DAA1EAA1FAAB7
:104FD000BE016C5C7F4F55C08CE0E7E4F2E0DE017F
:104FE000119601900D928A95E1F71CAE1DAE1EAE92
:104FF0001FAE88E0FE01B896DE01D49601900D92B6
:105000008A95E1F76E0134E3C30ED11CBE01645CE6
:105010007F4FC6010E9488B9FF24F594E79400E011
:105020005601802F90E08E159F0534F51CAE1DAE05
:105030001EAE1FAE88E0FE017C96D50101900D9258
:105040008A95E1F7BE01645C7F4FC6010E9488B972
:105050001CAE1DAE1EAE1FAE88E0FE01B896D60196
:1050600001900D928A95E1F7BE01645C7F4FC60105
:105070000E9488B90F5FD5CF1CAA1DAA1EAA1FAA1D
:10508000B601CE0101960E948EB9812F0F945D1C4E
:105090000C949D3681E00F94DE170C949D3680E0D1
:1050A0000F94DE170C949D360F94F74081110C94E9
:1050B0009D368CE0E2EAF2E0DE01119601900D925D
:1050C0008A95E1F760E070E080E50E9498D7BE0124
:1050D0006F5F7F4F0F94F46C0C949D36809100109D
:1050E0008770873011F00C94B83660E08FE40E942E
:1050F000E56981110C949D360C94B8368FE080934D
:1051000098080C949D368091C60E882351F1893001
:1051100009F076C083E5C82E83E0D82E97E4E92E07
:1051200092E0F92E312C00E010E0D6018D916D0156
:105130000F94C91B882371F0812F0E9458D8F70162
:105140006083718382839383133011F401E002C082
:10515000332433941F5FF4E0EF0EF11C143029F771
:1051600044C013E5C12E13E0D12E07E4E02E02E087
:10517000F02E312C00E010E0D6018D916D010F94DE
:10518000C91B882361F1812F0E9458D84B015C0113
:10519000F70120813181428153810F94C7912B0106
:1051A0003C012DEB37E346E855EB0F948F9387FDD9
:1051B0000AC02DEB37E346E855E3C301B2010F9473
:1051C000C48A181664F4133011F401E002C03324C9
:1051D0003394D7018D929D92AD92BC9213971F5F2D
:1051E000B4E0EB0EF11C143039F6332019F00E94B4
:1051F000D1B906C0002321F083E592E00F941B791A
:105200000E94D3B90C949D3680916102882311F4D9
:105210000C949D3689E40F94C91BE82E882321F055
:105220000F94381BF82E01C0F12C8AE40F94C91B8F
:10523000082F882321F00F94381B182F01C010E08D
:10524000EE2019F0E4E0EF1520F0002341F01530D6
:1052500030F089EC97E00F946C1D0C949D3680E142
:10526000E7E4F2E0A0EFBFE001900D928A95E1F74C
:10527000EE2059F08F2D0F94131C6093F00F709354
:10528000F10F8093F20F9093F30F002359F0812FC9
:105290000F94131C6093F40F7093F50F8093F60F27
:1052A0009093F70F86E40F94913E6B017C0120E010
:1052B00030E0A9010F948F9318164CF420E030E0F1
:1052C00040E752E4C701B6010F94509203C060E07A
:1052D00070E0CB0169837A838B839C83CE01019636
:1052E0000E945CC60C949D360F942A000C949D3647
:1052F0008091C70E9091C80E8D37910509F461C653
:105300000CF00EC18135910509F45EC60CF07AC02F
:105310008A31910509F4F7C2B4F58431910509F495
:1053200041C294F48131910509F428C244F40297F2
:1053300010F00C9487360F9408180C949D36429701
:1053400009F45FC60C9487368731910509F44FC282
:105350008CF48531910509F446C2469711F00C94FE
:1053600087360F94E1478091920A877F8093920A53
:105370000C949D368831910509F452C2499709F47D
:10538000B7C20C9487368032910509F433C3F4F424
:105390008D31910509F417C384F48B31910509F41B
:1053A000C0C24C9711F00C9487368091C40E909136
:1053B000C50E0F947A4B0C949D368E31910509F4ED
:1053C00009C34F9709F44DC30C9487368B3491056C
:1053D00009F447C454F48A32910509F4EDC38934C1
:1053E000910509F40CC40C9487368C34910509F4AA
:1053F0003CC48D34910511F00C9487360E94FE90C8
:105400000C949D368D36910509F46FC40CF03FC0A5
:105410008436910509F42DC404F58435910509F409
:10542000F0C58CF48235910509F4E4C58335910506
:1054300011F00C948736809198088F7E806280935B
:1054400098080C949D368535910509F4DDC58C3599
:10545000910509F4F2C50C9487368A36910509F452
:10546000C5C454F48836910509F407C489369105FA
:1054700009F4A6C40C9487368B36910509F4DCC474
:105480008C36910511F40C949D360C948736833735
:10549000910509F480C6ECF48037910511F40C9461
:1054A0009D3654F48E36910509F4D0C48F3691059B
:1054B00009F4DDC40C9487368137910509F41CC5C5
:1054C0008237910511F00C9487360F94B7180C941D
:1054D0009D368737910509F40AC78CF48537910505
:1054E00009F4C2C68637910511F00C9487360091F5
:1054F000C40E1091C50E94E0F12C40E0DCC6883754
:10550000910509F4F7C68937910511F00C94873697
:1055100010929210109291100F9470650C949D3619
:105520008A39F1E09F0711F40C949D360CF083C08A
:10553000893D910509F4BAC7B4F58E3B910509F48C
:1055400017C5ACF48139910509F4DCC634F48C3804
:10555000910509F4F3C40C9487368539910509F453
:105560002AC78B39910509F406C50C9487368C3C03
:10557000910509F495C754F4893C910509F436C79F
:105580008B3C910509F463C70C9487368D3C9105DB
:1055900009F489C7833D910511F00C9487360E9468
:1055A00090DE0C949D368D3231E0930711F40C940B
:1055B0006833E4F4823E910509F4E4C754F48C3D69
:1055C000910509F487C78D3D910509F490C70C94A6
:1055D00087368232B1E09B0711F40C940E338C3283
:1055E000914011F40C9453330C9487368033F1E0DE
:1055F0009F0711F40C946B337CF48E3231E09307E7
:1056000011F40C94DE338F32914011F00C948736F4
:105610000F94B10D0C949D368336B1E09B0711F4C5
:105620000C942E368039914011F00C9487360E94EC
:10563000C6AA0C949D368C30F2E09F0711F40C94AE
:10564000BE340CF04DC0863E31E0930711F40C944B
:1056500032341CF5843AB1E09B0711F40C942C34DD
:105660006CF48C39F1E09F0711F40C9422348D39DD
:10567000914011F40C9470360C948736853A31E0E1
:10568000930711F40C942F34893A914011F00C9443
:1056900087360E9408660C949D36863FB1E09B07D2
:1056A00011F40C94A1347CF4843FF1E09F0711F4D1
:1056B0000C949E34853F914011F00C9487360F94E2
:1056C000FE670C949D36873F31E0930711F40C94EC
:1056D000A434883F914011F40C94AD340C94873677
:1056E0008435B3E09B0711F40C9445352CF58B35CC
:1056F000F2E09F0711F40C9448357CF48F3332E0CC
:10570000930711F40C94C6348835924011F00C9430
:1057100087360E94F5DA0C949D368D3BB2E09B07EC
:1057200011F40C94C4358E3B924011F00C948736E2
:105730000E9477D80C949D36803AF3E09F0709F4D5
:1057400082C16CF48C3633E0930711F40C949D36CF
:105750008438934011F40C94C7350C948736873EF7
:10576000B3E09B0711F40C946236883E934011F02D
:105770000C9487360E94E4D50C949D368091C00E1F
:1057800084FF02C00C9481388091C20E87FF02C052
:105790000C9481388091C30E837011F00C94813881
:1057A0000C94993880E098E00F946C1D8FEA9AE091
:1057B0000F946A2A8BE1EFEAFAE0DE01119601907C
:1057C0000D928A95E1F760E070E0CE0101960F94AA
:1057D000A64CCE0101960E94046A81EF97E00F94D7
:1057E0006C1D0C949D360F9452480C949D36E0919C
:1057F000C40EF091C50E8081882329F0803209F40F
:1058000010823196F8CF60E08091C40E9091C50E61
:105810000F94C84B1092FC041092FB040C949D361C
:1058200083E50F94C91B882321F00F94281B0F9444
:10583000F61484E50F94C91B8823A9F00F94281B44
:105840006B017C010E94AA90C0924105D092420552
:10585000E0924305F0924405CD28CE28CF2819F0D8
:1058600081E080934505809102108823E9F080E073
:1058700090E0A8ECB1E489839A83AB83BC831C8E4F
:105880001D8E1E8E1F8E18A619A61AA61BA620E016
:10589000AE014F5F5F4FBE01645E7F4FCE018896C1
:1058A0000E94B76C0C949D360E942343882381F09C
:1058B0000F94F2470E94474381EF98E00F94974777
:1058C0001092CA0E1092CB0E1092CC0E1092CD0EEA
:1058D00061E08DE696E40E949E6B49EC55E461E13F
:1058E00078E085E00E94B06C0F949D720C949D3618
:1058F0008091920A82FF03C08B7F8093920A0E945C
:1059000017DC0C949D368091920A83FD02C00C94A2
:105910009D3683E50F94C91B81110C94A4380C9417
:105920009D3683E40F94801B882319F187E298E069
:105930000F946C1D8091F60B882391F0BE016F5F70
:105940007F4F83EF9BE00F94E12D8E010F5F1F4F80
:10595000D8018D918D01882339F00E94F643F8CF4C
:105960008DE198E00F946C1D8AE00E94F6430C9440
:105970009D3683E50F94C91B882309F10E94B56900
:10598000182F90E0CD970CF01CE3109390030F9428
:1059900025456B017C01212F30E0A8EEB3E00F9488
:1059A0006E91C60ED71EE81EF91EC0928C03D092CF
:1059B0008D03E0928E03F0928F030C949D360F942A
:1059C00070470C949D368091920A8E7F8093920A44
:1059D0000C949D368091920A83FD02C00C949D36F2
:1059E0000F9410008091C40E9091C50E0F94BB4A85
:1059F0000C949D368091920A82FD0E94C6AA8091E5
:105A0000920A83FD02C00C949D3660E080E50E94FE
:105A1000E569182F682F8091C40E9091C50E0F94E0
:105A2000C84B83E50F94C91B882321F00F94281BD2
:105A30000F94F6140F94F24711110C949D360E94A6
:105A400047430C949D362091C40E3091C50E909121
:105A5000920A92609093920AC9010F947A4B0C9427
:105A60009D360E9476907B018C0120E831E541E073
:105A700050E00F941A91C9016DE671E00F9497916F
:105A80004B015C01C801B70120E13EE040E050E07D
:105A90000F941A91CA01B90128E130E040E050E0CA
:105AA0000F941A91762E672EC62ED72EBCE32B2E7E
:105AB000312C412C512CC801B701A20191010F9446
:105AC0001A91F62EE72ECA01B901A20191010F9495
:105AD0001A91CB018E010F5F1F4F8114910499F031
