:100000000C94C9230C94FA230C94FA230C94FA232D
:100010000C94FA230C94FA230C94FA230C94FA23EC
:100020000C94FA230C94FA230C94FA230C94FA23DC
:100030000C94FA230D94B6630C94FA230C94FA23CF
:100040000C94FA230D943B760C94FA230C94FA2327
:100050000C94FA230C94FA230C9477F00D946C63AF
:100060000C94FA230C94694B0C945F4B0C94FA2378
:100070000C94FA230C94FA230C94FA230C94FA238C
:100080000C94FA230C94FA230C94FA230C94FA237C
:100090000C94FA230C94FA230C94FA230C94FA236C
:1000A0000C94FA230C94FA230C94FA230C94FA235C
:1000B0000C94FA230C94FA230C94FA230C94FA234C
:1000C0000C94FA230C94FA230C94FA230C94FA233C
:1000D0000C94FA230C94FA230C94FA230C94FA232C
:1000E0000C94FA239F4BA54BB74BC74BCF4BFF4B01
:1000F000D34BFF4BD74BDB4BFF4BDF4BE34BE74B7C
:10010000F04BFF4BFB4B18C9BDC7F6C754C9F6C728
:10011000F6C7F6C7F6C7F6C7F6C7F6C7F6C7F6C7F7
:10012000F6C7F6C7F6C7F6C7F6C7F6C7F6C7F6C7E7
:10013000F6C7F6C7F6C7F6C7F6C7F6C7F6C7F6C7D7
:10014000F6C74EC9F6C7F6C7F6C7F6C7F6C7F6C76D
:10015000F6C7F6C727C9F6C7F6C7F6C7F6C7F6C784
:10016000F6C7F6C7F6C7F6C7F6C76BC9F3C7A3014C
:10017000D501F9011B025501DB026D02CF016701B8
:1001800013037B0193021F023702DB021B03F902F8
:10019000EB0203039B01EB01F302E5012F0297023F
:1001A0006102DB0163024D0257028302B3012F0299
:1001B000F7028D02AD02D502930111023D015D01EE
:1001C0008F0271025D02A901F1022B02E90105A86B
:1001D0004CCDB2D44EB93836A9020C50B9918688AC
:1001E000083CA6AAAA2ABE000000803F0763423648
:1001F000B79BD8A71A39685618AEBAAB558C1D3CB8
:10020000B7CC5763BD6DEDFD753EF6177231BF007B
:100210000000803F08000000BE922449123EABAAB5
:10022000AA2ABECDCCCC4C3E00000080BEABAAAA10
:10023000AA3E00000000BF000000803F0000000058
:1002400000084178D3BB4387D1133D190E3CC3BD91
:100250004282AD2B3E68EC8276BED98FE1A93E4C3E
:1002600080EFFFBE01C4FF7F3F00000000000D943F
:1002700072580C94BDC70D9454450D94B8550C9408
:1002800027C90D944D330D9471350C9452D40D94AF
:10029000FD550C9400710C94F6C70D94AC720C943F
:1002A000ED3D0D948C500C9434730D94793C0C946A
:1002B000DA420C94413D0C9455E10D9494550D9403
:1002C00094360C947CD00C94B44D0C94FB4B0D9450
:1002D0008E3C0C9464980C9435390D943D4F0D94DC
:1002E0005C340D9420340C94A4CD0C94DB4B0D9411
:1002F000D95C0D9418620D94963C0D94695A0C9437
:1003000048990C94DEE20C944C960C94C5C60C945F
:100310008D3C0C94D3E10D9411620D94BA370D9479
:1003200049570D9401330D948E550C9487990D9473
:1003300019720D94CF330D944A440C94879D0D94FB
:10034000DD5B0C94D9E10D947D3C0C9453C70D9466
:10035000AE320D949D550C947F3F0C94DCE10D94CE
:10036000975E0D94BB550D94B4440D9488500C9435
:1003700030730D9498390C9440390D94D04F0C94EF
:10038000393D0C94B74B0D9424620D94D64F0C94C8
:10039000573B0D94474F0C94E54D0C940F3D0D9435
:1003A000883C0C94DB3A0D949F330D94803C0C9464
:1003B000B5E10D944C4F0D947D440D94F25C0D9479
:1003C000944D0C943A970D94A0360D9463440C947C
:1003D000E74B0D94A3550D944F440D9484500C9409
:1003E000A5E10C9452C70C946BC90D942E340C9457
:1003F0007FE10D946F3C0C9417980D9490500D94E0
:100400009A360D9458340C94CDE10C94D13C0C9454
:10041000D8E20D94AC360C9460D40C94A3760D9471
:1004200053560D9491550C945BD40C94FC960C94FB
:1004300032730D9465450D94733C0D941E620D94BA
:10044000A03C0C9447950C94C8C60D949C500C94F9
:10045000CF700D9417330D94A0550D942B330D943C
:10046000DC440D942A620D94A4500C9425730D94D1
:10047000A43C0D9409340D94AC500C94CE3D0C94D6
:10048000F49A0D94A8500D943E7D0D94A6360C94CC
:10049000003C0D9430620D942B450D9491440D94C5
:1004A000BC550D945B330C94E34B0C9465D40D94C4
:1004B0009B440D9456520C941A3D0D94A6550D94E0
:1004C000F85C0D9475440D9487440C9454C90C94B5
:1004D000F04B0D946B4F0C949F4B0D94843C0C94FB
:1004E0008B7A0D949A550C94DF4B0C94CF4B0C9453
:1004F0004EC90C94C0E30C94CD700D94A2350D94AC
:100500003E560D9412630D94AA440D943F330C94FF
:10051000BBC90D9498500C94C1E10D94C8440D943E
:1005200097550C9409970D949C3C0D947C360D9432
:100530006D440C94FC700D94E65C0D9476360C942E
:10054000C74B0D94A0500D94BF4F0D94EC5C0D94CF
:10055000B2330D94E05C0C94F3C70D94D2440C9428
:10056000A54B0D94EC330C9413EA0D948E360C9439
:100570006BE60D9482360C9483CE0D94424F0C940E
:1005800057D40D94C84F0C94D74B0C9436730C94DD
:10059000B5780C945F3F0D9427340C9418C90D94D2
:1005A00083330C94FF4B0D946F330D94B5550C941D
:1005B0008B9A0D943C630D94B73C0C9459E10C94C8
:1005C000C09C0C94C7E10D946E370D9491330C943C
:1005D00027730C94FE700D94B23C0C9402710C9431
:1005E000F03C0D94B3550D9459440C94DD420D9498
:1005F000BE440D94AE3C0D94DD5C0C94DFE10C9494
:10060000BBE10D94F1710D9445440C949E720C94D1
:10061000D34B0C9460830D94207D0D9467570D94FB
:10062000D3350C9456C70D94923C0D948D370D9490
:1006300088360D9494500D94AA3C4E414E494E4933
:100640005459494E46CDCCCC3D0AD7233C17B7D19F
:100650003877CC2B329595E6241FB14F0A00002045
:10066000410000C84200401C4620BCBE4CCA1B0EC4
:100670005AAEC59D7400407A10F35A00A0724E180D
:10068000090010A5D4E80000E87648170000E40B44
:1006900054020000CA9A3B000000E1F5050000800A
:1006A000969800000040420F000000A08601000064
:1006B00000102700000000E80300000000640000B4
:1006C0000000000A00000000000100000000002CF3
:1006D00076D888DC674F0823DFC1DFAE59E1B1B7B8
:1006E00096E5E3E453C63AE651997696E8E6C28485
:1006F00026EB898C9B62ED407C6FFCEFBC9C9F409D
:10070000F2BAA56FA5F490055A2AF75C936B6CF9C1
:10071000676DC11BFCE0E40D47FEF520E6B500D097
:10072000ED902E0300943577050080841E080000AC
:10073000204E0A000000C80C333333330F986E127A
:10074000831141EF8D2114893BE65516CFFEE6DB80
:1007500018D1844B381BF77C1D901DA4BBE42420CA
:100760003284725E228100C9F124ECA1E53D274369
:100770004F4D4D554E49434154494F4E00445259F7
:1007800052554E004552524F5253004543484F0078
:1007900020643A0020693A0020703A00536C656585
:1007A000702E2E2E005761726E696E67203A2043BC
:1007B0006C65616E20436972636C6520726571754A
:1007C000697265732058590A004D65736820706F0F
:1007D000696E742063616E6E6F742062652072654D
:1007E000736F6C7665640A004E6F204D6F76652ED0
:1007F00000456E642066696C65206C6973740A003C
:10080000426567696E2066696C65206C6973740A5D
:1008100000526573756D696E6720534400286E6FD2
:100820002066696C65290043757272656E74206676
:10083000696C653A2000256979202569642025695D
:10084000682025696D20256973005072696E7420D7
:1008500074696D653A200044454255473A004D3170
:1008600031332053003344205072696E7465722016
:100870004F46462E004348414D4245525F54454D38
:100880005045524154555245004D4F54494F4E5FCB
:100890004D4F44455300544845524D414C5F5052D2
:1008A0004F54454354494F4E004155544F524550C3
:1008B0004F52545F53445F53544154555300505268
:1008C0004F4D50545F535550504F525400454D4575
:1008D0005247454E43595F504152534552004341A0
:1008E00053455F4C494748545F4252494748544E2C
:1008F00045535300544F47474C455F4C4947485474
:100900005300534F4654574152455F504F5745523D
:10091000004255494C445F50455243454E54004CAB
:100920004556454C494E475F44415441005A5F503B
:10093000524F4245004155544F4C4556454C00508E
:1009400052494E545F4A4F420050524F475245530E
:1009500053004155544F5245504F52545F54454DEA
:100960005000564F4C554D45545249430042494E54
:100970004152595F46494C455F5452414E5346459A
:10098000520053455249414C5F584F4E5F584F46B5
:1009900046004649524D574152455F4E414D453AFA
:1009A0004D61726C696E204275696C642034353714
:1009B00020284769744875622920534F5552434592
:1009C0005F434F44455F55524C3A68747470733AB4
:1009D0002F2F6769746875622E636F6D2F5665726D
:1009E0007461627265616B2F4D61726C696E20502B
:1009F000524F544F434F4C5F56455253494F4E3A16
:100A0000312E30204D414348494E455F54595045A1
:100A10003A3344205072696E7465722045585452BE
:100A2000554445525F434F554E543A32205555492F
:100A3000443A38333666613934332D313333372D08
:100A4000313333372D313333372D39386132306418
:100A50006537353630370A002F2F20004D313435B9
:100A600020533C696E6465783E206F7574206F6614
:100A70002072616E67652028302D31290A002046DA
:100A80006C6F773A200050726F74656374656420F0
:100A900050696E0A006469730043290A0061626C40
:100AA000656420286D696E2074656D702000436F49
:100AB0006C6420657874727564657320617265205A
:100AC0000046696C616D656E742072756E6F757429
:100AD0002000454550524F4D204F4B0A003F2842C1
:100AE00029617564207261746520696D706C61752F
:100AF0007369626C652E0A002053657269616C200F
:100B000030206261756420726174652073657420A1
:100B1000746F2000416476616E6365204B003F4B2B
:100B20002076616C7565206F7574206F6620726128
:100B30006E67652028302D3130292E0A003F542061
:100B400076616C7565206F7574206F662072616EBA
:100B500067652E0A0043617365206C696768743AA3
:100B6000200043617365206C696768743A206F6682
:100B7000660A00506F7765722D6C6F737320726513
:100B8000636F7665727920008B07720D84077D078D
:100B90006F07416476616E636564205365747469A0
:100BA0006E677300496E697400496E697469616C9F
:100BB000697A6520454550524F4D0043616E63652B
:100BC0006C204F626A656374004261636B6C617391
:100BD000680053746570732F6D6D004A65726B0009
:100BE000416363656C65726174696F6E0056656C14
:100BF0006F6369747900536D6F6F7468696E670015
:100C0000436F7272656374696F6E004E657874200D
:100C1000506F696E74004E657874004E4F005945F0
:100C2000530043616E63656C204F626A6563742094
:100C30003D005A205261697365004C6967687420F1
:100C40004272696768746E6573730046616E205303
:100C500070656564004C6F61642053657474696EDF
:100C6000677300526573746F7265206661696C7397
:100C70006166650053746F72652053657474696EA4
:100C80006773005072656865617420504554472051
:100C9000436F6E66005072656865617420504C4108
:100CA00020436F6E660043617365204C696768740A
:100CB00000546F6F6C204368616E676500206D6142
:100CC000783A00206D696E3A0041786973200050CF
:100CD00072696E7465722073746F707065642064DD
:100CE000756520746F206572726F72732E2046696D
:100CF0007820746865206572726F7220616E64205E
:100D0000757365204D39393920746F20726573749D
:100D10006172742E202854656D70657261747572ED
:100D2000652069732072657365742E205365742085
:100D3000697420616674657220726573746172747F
:100D4000696E67290A004D38373620526573706F17
:100D50006E64696E672050524F4D50545F00554E7F
:100D60004B4E4F574E2053544154450047434F4438
:100D7000455F494E464F004C43445F5041555345F3
:100D80005F524553554D450046494C414D454E54E3
:100D90005F52554E4F55545F434F4E54494E554543
:100DA0000046494C414D454E545F52554E4F5554A7
:100DB000005075726765204D6F7265004572726FE5
:100DC000722077726974696E6720746F2045455090
:100DD000524F4D210A00627573793A207061757324
:100DE000656420666F7220696E7075740A006275A2
:100DF00073793A2070617573656420666F7220752F
:100E00007365720A00627573793A2070726F636558
:100E10007373696E670A007061757365004D3630D3
:100E200030002066696C616D656E745F72756E6FFF
:100E30007574200066696C616D656E745F72756EA5
:100E40006F757420540046696C616D656E745275DF
:100E50006E6F757420540053544F505045442E20EB
:100E6000004E6F20436865636B73756D20776974FE
:100E700068206C696E65206E756D6265722C204C01
:100E8000617374204C696E653A2000636865636B1A
:100E900073756D206D69736D617463682C204C618E
:100EA0007374204C696E653A20004C696E65204E63
:100EB000756D626572206973206E6F74204C61736A
:100EC00074204C696E65204E756D6265722B312CF5
:100ED000204C617374204C696E653A20004D3131AD
:100EE00030004D313137004D3331005344207265AD
:100EF0006164206572726F720A00446F6E652070C3
:100F000072696E74696E672066696C650A002121DA
:100F1000204B494C4C2063617573656420627920D5
:100F2000746F6F206D75636820696E616374697694
:100F3000652074696D65202D2063757272656E740D
:100F400020636F6D6D616E643A2000252723181FA2
:100F5000211D1C19171B1E2E2C0C312F3004400A8A
:100F6000FF41040908070001040000050100030017
:100F7000050100050400000005000300770F720F53
:100F80006D0F680F0000000000007F420000FF426C
:100F900000403F4300007F4320616E642074616B1A
:100FA000652061206D6561737572656D656E742E67
:100FB0000A006D6D20746869636B2E0A00427573B8
:100FC000696E6573732043617264206973200052F7
:100FD000656D6F76652026204D656173757265209D
:100FE0004265640052656D6F7665207368696D00B7
:100FF000506C616365207368696D20756E646572FD
:10100000206E6F7A7A6C65004D65736820506F6949
:101010006E74204D656173757265642061743A2049
:10102000000A4D657368206F6E6C79207061727470
:1010300069616C6C7920706F70756C617465642E79
:101040000A00506C616365205368696D2026204D4D
:10105000656173757265004D6F76696E6720746F98
:10106000206E657874004D65736820456469746905
:101070006E672053746F7070656400446F6E6520F6
:1010800045646974696E67204D6573680A00446F32
:101090006E652045646974696E67204D65736800EC
:1010A00046696E652054756E696E67204D6573687C
:1010B0000028582C5929206F757473696465207055
:1010C00072696E7461626C65207261646975732EF9
:1010D0000A004F6666736574206F7574206F662012
:1010E000626F756E64732E20283020746F2031304B
:1010F0006D6D290A0A00496E76616C6964206D6124
:101100007020747970652E0A0A003F43616E27745F
:1011100020616374697661746520616E6420646522
:1011200061637469766174652061742074686520F8
:1011300073616D652074696D652E0A0A00426F74D3
:1011400068205820262059206C6F636174696F6E87
:1011500073206D75737420626520737065636966B2
:101160006965642E0A0A00473239204A2061637497
:10117000696F6E2072657175697265732061207088
:10118000726F62652E0A0A003F28502968617365F4
:101190002076616C756520696E76616C69642028C3
:1011A000302D36292E0A0A0047323920503120725C
:1011B0006571756972657320612070726F62652E4A
:1011C0000A0A003F2856296572626F7365206C65B4
:1011D00076656C20696D706C61757369626C6520F1
:1011E00028302D34292E0A0A003F285229657065BF
:1011F000746974696F6E20636F756E7420696E76A2
:10120000616C69642028312B292E0A0A00446F6919
:101210006E672047323900646F6E650A00496E734D
:10122000756666696369656E7420646174610A003D
:101230004578747261706F6C6174696E67206D655A
:1012400073682E2E2E005072696E74696E67204F7F
:10125000626A656374002553202569003F45455047
:10126000524F4D2073746F72616765206E6F7420EA
:10127000617661696C61626C652E0A002F2F616373
:1012800074696F6E3A00627574746F6E0070726F7D
:101290006D70745F0073686F7700486F74656E647B
:1012A00020746F6F20636F6C640A0053656E642056
:1012B0004D31303820746F20726573756D650A008A
:1012C00052656865617420446F6E6500526568659B
:1012D0006174696E67005265686561740048656194
:1012E00074657254696D656F75740053656E642022
:1012F0004D31303820746F2068656174206E6F7ACC
:101300007A6C650A004E6F7A7A6C65205061726B58
:10131000656400706175736564004D3630303A2045
:10132000546F6F20436F6C6400726573756D6564F4
:1013300000526573756D696E6700426564204C6587
:1013400076656C696E6720004661696C656420741F
:101350006F20656E61626C6520426564204C657625
:10136000656C696E670A00496E76616C6964206D10
:101370006573682E0A0076616C69640A53746F7233
:1013800061676520736C6F743A20004D6573682047
:10139000697320003F496E76616C69642073746FD5
:1013A0007261676520736C6F742E0A004D343231A0
:1013B00020696E636F727265637420706172616D13
:1013C000657465722075736167650A003F2061640A
:1013D0006472657373203A2000206279746573200B
:1013E0006F66206D656D6F727920696E69746961D1
:1013F0006C697A65642E0A0A00556E61626C65201C
:10140000746F20696E697469616C697A652E0A0A65
:1014100000496E697469616C697A696E67206672E9
:101420006565206D656D6F727920626C6F636B2EE0
:101430000A0A0A00747275650A0020726574757272
:101440006E3D000A4D656D6F727920436F72727543
:101450007074696F6E206465746563746564206977
:101460006E2066726565206D656D6F7279206172A0
:1014700065612E0A002020626C6F636B5F666F757A
:101480006E643D002020200A002920666F756E647E
:101490003D002020204D656D6F727920636F727260
:1014A000757074696F6E206465746563746564201B
:1014B0007769746820656E645F667265655F6D65E7
:1014C0006D6F72793C486561700A0020656E645FDB
:1014D000667265655F6D656D6F7279203C20486549
:1014E000617020002020656E645F667265655F6DC7
:1014F000656D6F72793D000A667265655F6D656D39
:101500006F72795F73746172743D000A666D63284F
:1015100029206E3D00636865636B5F666F725F666E
:101520007265655F6D656D6F72795F636F727275FD
:101530007074696F6E2829203D20004D31303020B5
:1015400046200020627974657320617420000A4C83
:10155000617267657374206672656520626C6F6383
:101560006B20697320002062797465732066726550
:10157000652061742000466F756E6420000A436F19
:101580007272757074696E672061646472657373DA
:101590003A2000436F7272757074696E67206672CC
:1015A0006565206D656D6F727920626C6F636B2E5F
:1015B0000A0A000A537461636B20506F696E746588
:1015C000722020202020202020203A20000A66724D
:1015D00065655F6D656D6F72795F656E6420202053
:1015E000202020203A20000A667265655F6D656DD7
:1015F0006F72795F737461727420202020203A200A
:10160000000A6273735F656E642020202020202012
:1016100020202020202020203A200020284E6F74F7
:1016200020796574206D6561737572656429002089
:101630002041766572616765206D656173757265BD
:1016400064206261636B6C61736820286D6D293A58
:10165000002020536D6F6F7468696E6720286D6D70
:10166000293A202020202020202020202020202057
:10167000202020530020204261636B6C617368203E
:1016800044697374616E636520286D6D293A20206A
:1016900020202020202000202846312E30203D20F0
:1016A00066756C6C2C2046302E30203D206E6F6E9F
:1016B00065290A002020436F7272656374696F6E3A
:1016C00020416D6F756E742F466164652D6F757462
:1016D0003A202020202046006163746976653A0A2A
:1016E000004261636B6C61736820436F7272656363
:1016F00074696F6E20002008204661637400200822
:10170000204D6178002008204D696E004175746F8E
:1017100074656D70005654726176204D696E005686
:101720006D696E00566D6178202A00566D617820D3
:101730004500566D6178205A00566D617820590039
:10174000566D6178205800416D6178202A00416D06
:101750006178204500416D6178205A00416D6178C3
:10176000205900416D6178205800412D54726176F6
:10177000656C00412D52657472616374004163634E
:10178000656C004A756E6374696F6E2044657600FF
:101790002A73746570732F6D6D0045737465707373
:1017A0002F6D6D005A73746570732F6D6D005973D2
:1017B000746570732F6D6D005873746570732F6D41
:1017C0006D004D6F74696F6E004732392057004FBE
:1017D00075747075742055424C20496E666F0055C3
:1017E000424C20546F6F6C73004F75747075742089
:1017F0004D657368204D6170004D657368205374AA
:101800006F72616765004D65736820456469740097
:10181000537465702D42792D537465702055424C78
:101820000047323920410041637469766174652054
:1018300055424C0047323920440044656163746965
:10184000766174652055424C001FE03FF03FF03F49
:10185000F01FE01FE03FF03FF03FF00FC0078003B4
:10186000001FE02010201020101020102020102039
:1018700010303008400480030001FF000618C00843
:101880001F20101F90141F102E1E082F1C082FB889
:10189000083FFC083FFFF8207FF8203BE82071E874
:1018A00020F0E811F05013F01009F0200630C001CC
:1018B000FF0001FF000630C009F02011F01010F009
:1018C0001020F0682031E82039E8207FF83FFFF849
:1018D0003FFC082F38082E18082C1E08101E101068
:1018E0001F10081F200618C001FF0001FF0006009E
:1018F000C00901201783D01783D02FC7E827C7C896
:1019000021FF08207C08207C08207C0821FF082774
:10191000C7C82FC7E81783D01783D0090120060056
:10192000C001FF00FFFFC040002020001010000891
:1019300008000404000203FFFF0222000444000424
:101940004400022200011100FFFFC04088A02111C5
:101950001012220808000404000203FFFF2062792D
:101960007465733B20637263200053657474696E01
:1019700067732053746F7265642028004E6F204592
:101980004550524F4D2E0A00454550524F4D206450
:1019900061746173697A65206572726F722E0A00D4
:1019A0003F4D65736820746F6F2062696720666FB2
:1019B0007220454550524F4D2E0A0055424C207220
:1019C000657365740A00206C6F61646564206672DB
:1019D0006F6D2073746F726167652E0A004D6573B9
:1019E0006820003F43616E277420656E61626C65FC
:1019F00020002073746F7265642073657474696E5F
:101A000067732072657472696576656420280020AA
:101A10002863616C63756C6174656429210A002018
:101A2000213D2000454550524F4D20435243206DEB
:101A300069736D61746368202D202873746F7265FB
:101A400064292000496E6465783A2000204D617257
:101A50006C696E3D563734290A00454550524F4D4A
:101A60002076657273696F6E206D69736D61746342
:101A7000682028454550524F4D3D004D31303920AA
:101A8000532569004D3139302053256900496E6670
:101A90006F2053637265656E004265642054656D06
:101AA0007000486F74656E642054656D7000473235
:101AB000392050362043202D00486569676874201E
:101AC000416D6F756E740041646A757374204D6565
:101AD000736820486569676874004732392050345C
:101AE00020540046696E652054756E6520436C6F06
:101AF00073657374004732362043204225692048BD
:101B0000256920500056616C6964617465204375D5
:101B100073746F6D204D657368004732380A473221
:101B2000362043204237302048323530205000568E
:101B3000616C6964617465204D6573682028504547
:101B4000544729004732380A47323620432042366C
:101B500030204832303020500056616C6964617426
:101B600065204D6573682028504C41290047323963
:101B7000204A2569004C6576656C204D65736800C8
:101B80005369646520506F696E74730047726964AD
:101B9000204D657368204C6576656C696E670047FB
:101BA0003239204A3000332D506F696E74204C65F5
:101BB00076656C696E6700473239205033205220B9
:101BC000432E2569004D616E75616C2046696C6C11
:101BD0002D696E0046696C6C2D696E20416D6F75C4
:101BE0006E74004D65736820696E76616C6964611E
:101BF0007465642E0A00473239204900496E7661C7
:101C00006C696461746520436C6F7365737400491B
:101C10006E76616C696461746520416C6C0047325A
:101C200039205031204300436F6E74696E75652012
:101C3000426564204D6573680046696C6C2D696E61
:101C4000204D657368004275696C64204375737438
:101C50006F6D204D657368004732380A4D31393059
:101C6000205337300A4D31303920533235300A474E
:101C700032392050310A4D3130342053300A4D3141
:101C80003430205330004275696C64204D657368B0
:101C900020285045544729004732380A4D31393001
:101CA000205336300A4D31303920533230300A4714
:101CB00032392050310A4D3130342053300A4D3101
:101CC0003430205330004275696C64204D65736870
:101CD0002028504C41290020436F756E7420583ADB
:101CE000005761726E696E673A20486F6D696E6762
:101CF0002042756D702044697669736F72203C20B4
:101D0000310A0000007F4300007F4300007A430057
:101D10000020C10000000000000000000020420080
:101D2000002042000080400202020000A0400000AB
:101D3000A0400000A0400080844300007F430000DA
:101D40007A43FFFFFF000000010000000100008057
:101D500000555555000000400033333300AAAA2A2D
:101D6000004992240000002000C7711C00999919B5
:101D700000D1451700555515003BB11300244912F9
:101D80000011111100000010000F0F0F00E3380EBA
:101D90000043790D00CCCC0C00C3300C00E8A20B42
:101DA0000064210B00AAAA0A00703D0A009DD80910
:101DB00000427B090092240900DCD30800888808CF
:101DC000001042080000000800F0C10700878707E4
:101DD0000075500700711C07003EEB0600A1BC0611
:101DE000006990060066660600703E0600611806EF
:101DF0000017F4050074D105005BB00500B2900532
:101E000000627205005555050078390500B81E05B9
:101E100000050505004EEC040087D40400A1BD04B4
:101E20000090A7040049920400C17D0400EE6904FB
:101E300000C7560400444404005C32040008210436
:101E40000041100400000004003FF00300F8E0032C
:101E50000026D20300C3C30300CCB503003AA80395
:101E6000000A9B0300388E0300C08103009F7503A6
:101E700000D0690300505E03001D53030034480383
:101E800000913D03003333030016290300381F037C
:101E90000097150300300C0300030303000BFA0244
:101EA0000049F10200BAE802005CE002002DD8020D
:101EB000002DD0020059C80200B0C0020031B902A2
:101EC00000DAB10200AAAA0200A0A30200BC9C0290
:101ED00000FA9502005C8F0200DF88020082820215
:101EE00000457C02002776020027700200436A0248
:101EF000007C640200D05E02003F590200C8530219
:101F00000020746F6F206C6F6E6720657874727537
:101F100073696F6E2070726576656E7465640A0011
:101F200020636F6C6420657874727573696F6E20BE
:101F300070726576656E7465640A004572723A2047
:101F40007574663820666F6E74206E6F7420696ECB
:101F5000697469616C697A65642E002568753A2533
:101F60003032687500256875642025303268753A0E
:101F7000253032687500000C0D00FE07022603BCF8
:101F8000017FFE08FE08FE05080806000040F0C8B4
:101F90008888987810050808060000C0F8888888A6
:101FA0008888F80505050600012030F8302005086E
:101FB000080600002070F820202020E0050909060E
:101FC00000FF2070A8A8B8888870200506060600C3
:101FD00001E08CEA8C8A0A0509090600FFF8A88846
:101FE00088888888A8F8050A0A0600FE2050505004
:101FF0005088A8A8887003030306000340A040FF90
:10200000FFFFFFFFFFFFFFFFFFFFFFFFFFFFFFFFE0
:10201000FFFFFFFFFF0000000605FF0107070602A4
:102020000080808080800080030303060105A0A05B
:10203000A005060606000050F85050F850050909A2
:102040000600FF2070A8A07028A8702005070706CA
:102050000000C8C8102040989805070706000040F7
:10206000A0A040A8906801030306020580808003B9
:1020700009090601FF20404080808040402003097C
:10208000090601FF804040202020404080050707CE
:1020900006000020A8702070A82005050506000194
:1020A0002020F820200203030601FFC04080050124
:1020B00001060003F8020202060100C0C00507077E
:1020C00006000008101020404080050707060000A9
:1020D000708898A8C8887003070706010040C040B0
:1020E000404040E0050707060000708808102040C7
:1020F000F8050707060000F8081030088870050783
:102100000706000010305090F81010050707060071
:1021100000F880F0080888700507070600003040C6
:1021200080F0888870050707060000F80810102066
:1021300020200507070600007088887088887005D1
:1021400007070600007088887808106002050506F9
:102150000100C0C000C0C00206060601FFC0C000EA
:10216000C040800305050601012040804020050392
:1021700003060002F800F80305050601018040206F
:102180004080050707060000708810202000200509
:1021900007070600007088B8A8B880700507070612
:1021A0000000708888F8888888050707060000F016
:1021B0004848704848F0050707060000708880808E
:1021C000808870050707060000F04848484848F036
:1021D000050707060000F88080F08080F8050707F3
:1021E000060000F88080F080808005070706000068
:1021F00070888080988870050707060000888888A6
:10220000F8888888030707060100E0404040404006
:10221000E005070706000038101010109060050751
:10222000070600008890A0C0A09088050707060058
:1022300000808080808080F805070706000088D82D
:10224000A8888888880507070600008888C8A89895
:1022500088880507070600007088888888887005C8
:102260000707060000F08888F080808005070706D1
:10227000000070888888A89068050707060000F0AD
:102280008888F0A090880507070600007088807095
:10229000088870050707060000F82020202020206D
:1022A0000507070600008888888888887005070762
:1022B000060000888888885050200507070600001F
:1022C00088888888A8A850050707060000888850D5
:1022D00020508888050707060000888850202020A5
:1022E00020050707060000F80810204080F80309C1
:1022F000090601FFE080808080808080E00507077C
:10230000060000804040201010080309090601FF64
:10231000E020202020202020E005030306000520E7
:1023200050880501010600FEF8030303060105803D
:102330004020050505060000700878887805070725
:102340000600008080F0888888F0050505060000FA
:102350007080808870050707060000080878888864
:1023600088780505050600007088F080700507076D
:10237000060000304840E04040400507070600FEE8
:10238000708888887808700507070600008080F04C
:10239000888888880307070601004000C040404045
:1023A000E00409090601FE100030101010109060C2
:1023B00005070706000080808890E09088030707E3
:1023C000060100C04040404040E005050506000011
:1023D000D0A8A8A8A8050505060000B0C888888868
:1023E0000505050600007088888870050707060047
:1023F000FEF0888888F080800507070600FE788850
:102400008888780808050505060000B0C880808027
:1024100005050506000078807008F005070706002E
:10242000002020F8202020180505050600008888D7
:1024300088986805050506000088888850200505ED
:10244000050600008888A8A8500505050600008834
:10245000502050880507070600FE888888502040D5
:1024600080050505060000F8102040F8030909065C
:1024700001FF204040408040404020010909060201
:10248000FF8080808080808080800309090601FFB2
:102490008040404020404040800503030600024841
:1024A000A890FF556E6C6F61642046696C616D6524
:1024B0006E74202A004C6F61642046696C616D6502
:1024C0006E74202A0052756E6F75742053656E739A
:1024D0006F7200554E4C4F41442046494C414D458A
:1024E0004E540046494C414D454E54204348414EC0
:1024F0004745004732380A4732392050342052329B
:1025000035350A47323920410A4D353030004732DF
:10251000392050340A4D353030004D33303320559A
:102520003120453020533235302043380A4D353084
:1025300030004D33303320553120452D3120533973
:10254000302043380A4D353030004D393030204B83
:10255000300A4D353030004D393030204B302E327E
:102560000A4D353030004D393030204B302E330A93
:102570004D353030004D393030204B302E340A4D3F
:10258000353030004D393030204B302E350A4D3546
:102590003030004D393030204B302E360A4D35303A
:1025A00030004C696E20416476204B302E34004C54
:1025B000696E20416476204B302E33004C696E20CA
:1025C000416476204B302E32004C696E2041647697
:1025D000204B302E35004C696E20416476204F66CA
:1025E000660050494474756E652042656400504928
:1025F0004474756E6520486F74656E640041646A4A
:1026000075737420506F696E74204E656172004D51
:10261000616E75616C2055424C004C696E204164BE
:1026200076204B302E36004D373032205425640052
:102630004D36303020423020542564004D37303242
:10264000203B2564004D3730312054256400556E01
:102650006C6F61642046696C616D656E74004C6FCF
:1026600061642046696C616D656E740050726568C6
:1026700065617420437573746F6D004D3630302082
:10268000423020542569004D3730312054256900EF
:102690004D37303220542569004D37303200556EA9
:1026A0006C6F616420416C6C004368616E676520EB
:1026B00046696C616D656E74202A0050757267659D
:1026C000206D6F726500524553554D45204F505453
:1026D000494F4E533A005052494E542050415553A1
:1026E00045440020204E6F7A7A6C653A20002059CC
:1026F0005A3A200020585A3A20002058593A2000CF
:10270000536B657720466163746F72006D696E5F0D
:10271000736B65775F666163746F723A20202D3149
:10272000206D61785F736B65775F666163746F724C
:102730003A2020310A00416363656C6572617469F7
:102740006F6E3A2050003F4A206F7574206F6620EC
:1027500072616E67652028302E303120746F203012
:102760002E33290A0020633A00204D3932205400CC
:10277000204D393220580020204D61783A20002029
:10278000204D696E3A2000536F667420656E647345
:10279000746F70733A20004D32342053256C6420DE
:1027A00054256C64004739322E3920452573004783
:1027B00031204625640047312045312046333030F2
:1027C00030004739322E39205A2573004731205ABC
:1027D00030204632303000473120582573205925AB
:1027E00073204633303030004731204531204632A7
:1027F0003030004D34323020532569205A25730083
:102800004D31303620502569205325690054256903
:102810002053004739322E392045305A300A47318B
:102820005A320A47323852305859004D343230202B
:102830005330205A300020496E76616C69642065FF
:1028400078747275646572200054656D706572618C
:1028500074757265005072656865617420504554E6
:1028600047005072656865617420504C41004E6F9E
:102870007A7A6C65004D61696E00507265686561B9
:1028800074205045544720456E6400507265686559
:10289000617420504554472042656400436F6F6C5B
:1028A000646F776E0046616E205370656564203DED
:1028B000004E6F7A7A6C65205374616E64627900A1
:1028C0004261627973746570205A00466C6F77209C
:1028D0007E00466C6F77004D6573682045646974AF
:1028E0006F720000FE0003FF8007C7C00701E00011
:1028F00000E00000F00000700400700E00701F0087
:10290000703F80F00E00E00F01E007C7C003FF80BA
:1029100000FE0000FE0003FF8007C7C00F01E00EAD
:1029200000E03F80F01F00700E0070040070000097
:10293000700000F00000E00701E007C7C003FF805F
:1029400000FE000E000E000E000E000E000E000E27
:10295000000E007FC03F801F000E00040004000E28
:10296000001F003F807FC00E000E000E000E000E04
:10297000000E000E000E00FFFFFF7F80FFC0FFC0B3
:10298000FFC07F807F80FFC0FFC0FFC03F001E00F0
:102990000C00496E76616C696420657874727564A8
:1029A00065720A0048656174696E67204661696CEA
:1029B00065640048656174696E67206661696C656D
:1029C0006400202D20496E76616C696420657874FE
:1029D0007275646572206E756D62657220210A00E1
:1029E0004572723A204D415854454D50004D415862
:1029F00054454D502074726967676572656400457F
:102A000072723A204D494E54454D50004D494E5436
:102A1000454D5020747269676765726564004D3872
:102A200034204500202F002042403A0020403A0048
:102A3000452025530020573A00416374697665208C
:102A400045787472756465723A200070012C0190AB
:102A5000012701B0012201C0011D01F00118011080
:102A600002130130020E016002090190020401C04C
:102A700002FF000003FA004003F5008003F000D0DD
:102A800003EB002004E6007004E100E004DC0040F9
:102A900005D700C005D2004006CD00D006C8008092
:102AA00007C3003008BE00F008B900C009B400B088
:102AB0000AAF00B00BAA00D00CA500000EA0005079
:102AC0000F9B00C01096005012910000148C00C0A3
:102AD000158700B0178200B0197D00D01B78000068
:102AE0001E730040206E0090226900F024640040B4
:102AF000275F0090295A00E02B5500102E5000202F
:102B0000304B0010324600E033410090353C00105D
:102B100037370070383200A0392D00B03A2800A0B5
:102B20003B2300603C1E00103D1900903D14001036
:102B30003E0F00703E0A00C03E0500003F0000400E
:102B40003FFBFF803FF6FFC03FF1FF6F70656E20D7
:102B50006661696C65642C2046696C653A200022C8
:102B60000A00556E6B6E6F776E20636F6D6D616ED0
:102B7000643A202200544845524D414C2052554E53
:102B80004157415900546865726D616C2052756EF1
:102B90006177617900706F7765726F666600506C5F
:102BA00065617365205265736574005052494E54D7
:102BB00045522048414C5445440025533A20255362
:102BC000004B494C4C45442E20005072696E746590
:102BD000722068616C7465642E206B696C6C2829A6
:102BE0002063616C6C6564210A00446966663A2062
:102BF0000046726F6D5374703A005374657070655F
:102C0000723A00556E4C6576656C3A004C65766597
:102C10006C65643A005261773A20202020000A4C0B
:102C20006F676963616C3A00436F756E7420453A53
:102C3000004361703A004D302F3120427265616B64
:102C40002043616C6C656400436C69636B20746F36
:102C500020526573756D652E2E2E00656E7175653B
:102C60007565696E672022006F6B00526573656E33
:102C7000643A200042656420436F6F6C696E672E72
:102C80002E2E004265642048656174696E672E2EA1
:102C90002E0023646566696E652044454641554CA7
:102CA000545F004B6420004B6920004B70200050A3
:102CB0004944204175746F74756E652066696E694C
:102CC00073686564212050757420746865206C6198
:102CD0007374204B702C204B6920616E64204B6410
:102CE00020636F6E7374616E74732066726F6D20F3
:102CF00062656C6F7720696E746F20436F6E6669D2
:102D00006775726174696F6E2E680A0050494420BD
:102D10004175746F74756E65206661696C656421B8
:102D20002074696D656F75740A000A20436C6173C5
:102D300073696320504944200A00204B643A200004
:102D4000204B693A2000204B703A20000A204E6F39
:102D5000206F76657273686F6F740A002054753A3D
:102D60002000204B753A2000206D61783A20002029
:102D70006D696E3A200020643A2000206269617318
:102D80003A2000504944204175746F74756E652077
:102D900073746172740A00504944204175746F74F1
:102DA000756E65206661696C6564212054656D707F
:102DB0006572617475726520746F6F2068696768E9
:102DC0000A00504944204175746F74756E65206621
:102DD00061696C6564212042616420657874727554
:102DE000646572206E756D6265720A0024F4D430D9
:102DF00050C38E20C2A24017828B7011127A910D9F
:102E0000816CD90AA861E108C75866076151430679
:102E10001E4B5D05C145A7041A411104093D9803E5
:102E2000713931034036DB0265339102D4305402EC
:102E3000802E1D02632CEE01752AC501B028A00169
:102E4000102781018F2564012B244B01E0223401DE
:102E5000AC211F018D200D01801FFC00841EED00A0
:102E6000971DDF00B81CD200E61BC600201BBC006B
:102E7000641AB200B219A8000A19A0006A189900D1
:102E8000D117910040178B00B516840031167E00D3
:102E9000B31579003A157300C7146F0058146A000F
:102EA000EE1366008813630025135E00C7125B00F3
:102EB0006C12570015125400C111510070114F00CF
:102EC00021114B00D61049008D10470046104400D8
:102ED00002104200C00F4000800F3E00420F3C0035
:102EE000060F3B00CB0E3800930E37005C0E35000A
:102EF000270E3400F30D3200C10D3100900D30006B
:102F0000600D2E00320D2D00050D2C00D90C2B006C
:102F1000AE0C2900850C29005C0C2700350C27001D
:102F20000E0C2600E80B2400C40B2400A00B230089
:102F30007D0B23005A0B2100390B2100180B2000B8
:102F4000F80A1F00D90A1E00BB0A1E009D0A1D00B8
:102F5000800A1D00630A1C00470A1B002C0A1B0084
:102F6000110A1A00F7091A00DD091900C40919002D
:102F7000AB091900920917007B09180063091700B3
:102F80004C09160036091600200916000A0915001A
:102F9000F5081500E0081400CC081400B808140067
:102FA000A4081400900813007D0812006B08130099
:102FB00058081200460812003408110023081100B6
:102FC0001208110001081100F0071000E0071000BE
:102FD000D0071000C0071000B0070F00A1071000B5
:102FE00091070E0083070F0074070F0065070E009E
:102FF00057070E0049070E003B070D002E070E0075
:1030000020070D0013070D0006070D00F9060C0040
:10301000ED060D00E0060C00D4060C00C8060C00FE
:10302000BC060C00B0060C00A4060B0099060C00B0
:103030008D060B0082060B0077060B006C060B005A
:1030400061060A0057060B004C060A0042060A00F9
:1030500038060A002E060A0024060A001A060A008C
:103060001006090007060A00FD050900F40509001D
:10307000EB050900E2050900D9050900D0050900A2
:10308000C7050900BE050900B5050800AD05080023
:10309000A50509009C050800940508008C0508009A
:1030A000840508007C050800740508006C0507000D
:1030B000650508005D050700560508004E05070078
:1030C00047050700400508003805070031050700DF
:1030D0002A050700230507001C0506001605070042
:1030E0000F0507000805060002050700FB0406009F
:1030F000F5040700EE040600E8040600E2040700F9
:10310000DB040600D5040600CF040600C90406004F
:10311000C3040600BD040600B7040600B1040500A0
:10312000AC040600A6040600A00405009B040600EB
:1031300095040500900406008A0405008504050036
:10314000800406007A04050075040500700405007B
:103150006B04050066040500610405005C040500BD
:1031600057040500520405004D04050048040500FD
:10317000430405003E0404003A040500350405003C
:10318000300404002C040500270404002304050077
:103190001E0404001A0404001604050011040400AF
:1031A0000D040400090405000404040000040400E4
:1031B000FC030400F8030400F4030400F00304001B
:1031C000EC030400E8030400E4030400E00304004B
:1031D000DC030400D8030400D4030400D00304007B
:1031E000CC030400C8030300C503030024F404D97E
:1031F000201BC40C5C0E9804C4095F0265077101B2
:10320000F405F900FB04B30048048700C10369001A
:103210005803550003034500BE023A008402310002
:1032200053022A002902250004022000E4011C00A8
:10323000C8011900AF0117009801140084011300A0
:10324000710110006101100051010E0043010D00D9
:1032500036010B002B010B0020010B0015010900AA
:103260000C01090003010800FB000800F30008003E
:10327000EB000700E4000600DE000600D8000600B0
:10328000D2000600CC000500C7000500C200050002
:10329000BD000400B9000400B5000400B100040042
:1032A000AD000400A9000400A5000300A200030073
:1032B0009F0004009B00030098000300950002009B
:1032C00093000300900003008D0002008B000300B8
:1032D00088000200860002008400030081000200D2
:1032E0007F0002007D0002007B00020079000200E6
:1032F00077000100760002007400020072000100F5
:10330000710002006F0002006D0001006C000200FD
:103310006A00010069000200670001006600010008
:10332000650001006400020062000100610001000C
:10333000600001005F0002005D0001005C00010010
:103340005B0001005A000100590001005800010013
:103350005700010056000100550001005400010013
:103360005300000053000100520001005100010011
:10337000500001004F0001004E0000004E0001000F
:103380004D0001004C0001004B0000004B0001000B
:103390004A00010049000100480000004800010007
:1033A0004700010046000000460001004500000003
:1033B00045000100440001004300000043000100FB
:1033C00042000000420001004100000041000100F5
:1033D000400001003F0000003F0001003E000000EF
:1033E0003E0001003D0000003D0001003C000000E7
:1033F0003C0000003C0001003B0000003B000100DD
:103400003A0000003A0001003900000039000100D4
:1034100038000000380000003800010037000000CC
:1034200037000100360000003600000036000100C1
:1034300035000000350000003500010034000000B8
:1034400034000000340001003300000033000000AD
:1034500033000100320000003200000032000100A1
:103460003100000031000000310001003000000098
:1034700030000000300001002F0000002F0000008D
:103480002F0000002F0001002E0000002E00000081
:103490002E0001002D0000002D0000002D00000076
:1034A0002D0001002C0000002C0000002C0000006A
:1034B0002C0001002B0000002B0000002B0000005E
:1034C0002B0001002A0000002A0000002A00000052
:1034D0002A00010029000000290000002900000046
:1034E0002900000029000100280000002800000039
:1034F000280000002800000028000100270000002C
:10350000270000002700000027000000270001001E
:103510002600000026000000260000002600000013
:103520002600010025000000250000002500000005
:1035300025000000250000002500010024000000F7
:1035400024000000240000002400000024000100EA
:1035500023000000230000002300000023000000DF
:1035600023000000230000002300010022000000CF
:1035700022000000220000002200000022000000C3
:1035800022000100210000002100000021000000B5
:1035900021000000210000002100000021000100A6
:1035A000200000002000000020000000200000009B
:1035B000200000002000000020000000200001008A
:1035C0001F0000001F0000001F0000001F0000007F
:1035D0001F0000001F0000001F0001001E0000006F
:1035E0001E0000001E0000001E000000232C000032
:1035F000B8220000561800003A0F0000B80800007A
:10360000B1040000710200003E0100006563686FB4
:103610003A004572726F723A0020204D34323120E8
:1036200049002020473239204939390A0061637442
:103630006976650A002053797374656D2076312EA2
:10364000303120002020207C0A004E414E002020F6
:103650002E20202000207C004C43443A0A00435393
:10366000563A0A0020666F7220003A0A0A000A429F
:10367000656420546F706F6772617068792052655D
:10368000706F727400446F6E652E0A003F496E764B
:10369000616C69642073746F7261676520736C6F0D
:1036A000742E0A3F557365203020746F2000473216
:1036B000392050322066696E69736865642E0A008D
:1036C0005859206F757473696465207072696E74DF
:1036D00061626C65207261646975732E0A003F45F2
:1036E00072726F7220696E20427573696E657373B2
:1036F0002043617264206D6561737572656D656EDE
:10370000742E0A004D616E75616C6C792070726F59
:1037100062696E6720756E726561636861626C656F
:10372000206D657368206C6F636174696F6E732EB2
:103730000A004D657368207A65726F65642E0A0011
:1037400044656661756C742073746F72616765207F
:10375000736C6F7420302073656C65637465642EC0
:103760000A004C6F6164696E6720746573745F70E2
:1037700061747465726E2076616C7565732E0A0AC9
:1037800000496E76616C696420746573745F706162
:10379000747465726E2076616C75652E20282D31EB
:1037A00020746F2032290A0A004C6F636174696FBC
:1037B0006E7320696E76616C6964617465642E0A4B
:1037C0000A00456E74697265204D65736820696EE4
:1037D00076616C6964617465642E0A0A00537461D1
:1037E0006E6461726420446576696174696F6E3AD3
:1037F00020004D65616E204D6573682048656967DE
:1038000068743A200023206F662073616D706C65C8
:10381000733A20007C3C3E5E2B3D3F2F5B5D3B2C92
:103820002A225C004C6F6164206D6D00556E6C6FD8
:103830006164206D6D00416476616E6365204B208C
:103840002A005072696E742066726F6D204D656437
:1038500069610044697361626C6552756E6F75745D
:1038600000496E736572742066696C616D656E7473
:1038700020616E642073656E64204D3130380A001B
:10388000486F6D6520257325732573204669727313
:103890007400626567696E0050757267654D6F727E
:1038A0006500436F6E74696E7565004C6F616420CE
:1038B00046696C616D656E7420540000002100241F
:1038C0000027002A002D0030003300010100000411
:1038D0000107010A0100002200250028002B002E0C
:1038E000003100340002010000050108010B010055
:1038F0000020002300260029002C002F00320000A9
:103900000100000301060109010505050507050879
:10391000080808020202020A0A0808040404040152
:103920000101010101010103030303030303030474
:103930000707070C0C0C0C0C0C0C0C020202020604
:10394000060606060606060B0B0B0B0B0B0B0B01F4
:1039500002102020080810204010204080020102A0
:103960000108040201010204081020408080402068
:1039700010080402018004020180402010080402A3
:103980000108040201010204081020408001020421
:10399000081020408000000A0B02090C0D0E0807D9
:1039A000030401000000000000000000000000000F
:1039B0000000000000000000000000000000000007
:1039C00000121110000000000000000000000000C4
:1039D00000000000000000000000002053697A652C
:1039E0003A200043616E6E6F74206F70656E2073B5
:1039F0007562646972200053442063617264206FB1
:103A00006B0A006F70656E526F6F74206661696C2F
:103A100065640A00766F6C756D652E696E69742039
:103A20006661696C65640A00534420696E6974209C
:103A30006661696C0A004D32332025730046696C5B
:103A4000652073656C65637465640A0046696C651E
:103A5000206F70656E65643A2000454E44205355D2
:103A600042524F5554494E450A002220706F730050
:103A70002220706172656E743A2200535542524F93
:103A80005554494E452043414C4C20746172676542
:103A9000743A2200747279696E6720746F206361D2
:103AA0006C6C207375622D67636F64652066696C4A
:103AB0006573207769746820746F6F206D616E790B
:103AC000206C6576656C732E204D4158206C6576B0
:103AD000656C2069733A310A0057726974696E67C0
:103AE00020746F2066696C653A200044656C6574CB
:103AF000696F6E206661696C65642C2046696C652F
:103B00003A200046696C652064656C657465643AAA
:103B1000005344207072696E74696E672062797414
:103B20006520004E6F74205344207072696E746972
:103B30006E670A00667265736800646F696E67007D
:103B40004E6F7720004F7574616765205265636F13
:103B500076657279004261636B004368616E6765E8
:103B60002046696C616D656E7400436F6E666967AF
:103B700075726174696F6E003F0043616E63656CBE
:103B8000004D313030300053746F70205072696EC8
:103B90007400526573756D65205072696E740053C0
:103BA000746F70004D3231004368616E6765204D5F
:103BB00065646961004175746F7374617274004E5D
:103BC0006F204D656469610054756E6500537461C2
:103BD0007274205072696E740043616E6E6F74204F
:103BE000656E746572207375626469723A200002B2
:103BF0002E2E005061726B696E672E2E2E00000013
:103C00005761697420666F720066696C616D656EDC
:103C100074206368616E676500746F2073746172ED
:103C200074005761697420666F720066696C616D1B
:103C3000656E7420756E6C6F616400004E6F7A7AE9
:103C40006C652068656174696E6700506C656173AE
:103C50006520776169742E2E2E0000507265737393
:103C600020627574746F6E00746F206865617420D3
:103C70006E6F7A7A6C650000496E736572742066A7
:103C8000696C616D656E7400616E6420707265733D
:103C90007320627574746F6E00746F20636F6E743E
:103CA000696E7565005761697420666F7200666998
:103CB0006C616D656E74206C6F616400005072659C
:103CC000737320427574746F6E00746F2072657325
:103CD000756D65207072696E74000057616974209B
:103CE000666F72207072696E7400746F20726573F3
:103CF000756D652E2E2E00005761697420666F72F7
:103D00000066696C616D656E742070757267650020
:103D10000047323920503420523939392054004775
:103D200032380A473239205031004D313137204D79
:103D3000657368202569204C6F61646564004732B3
:103D400039204C2569004D313137204D657368208D
:103D5000256920536176656400473239205325690F
:103D6000004C6F616420426564204D657368004DAE
:103D7000656D6F727920536C6F74004E6F205374B1
:103D80006F7261676500486F6D696E672058595A98
:103D9000004732392050342058257320592573208C
:103DA00052256900202D2D2D2D2D0047323800473A
:103DB000323920532D31004F6666205072696E747F
:103DC0006572204261636B7570004732392054314F
:103DD000004F757470757420666F722043535600DF
:103DE000473239205430004F757470757420666FF7
:103DF0007220486F73740045646974204D65736860
:103E00000047323920493939390A4732392050328E
:103E10002042205430004D616E75616C6C792042F7
:103E200075696C64204D65736800372E2053617688
:103E30006520426564204D65736800362E20466912
:103E40006E652054756E6520416C6C00352E2056D1
:103E5000616C6964617465204D65736800342E205F
:103E600046696E652054756E6520416C6C00332E7A
:103E70002056616C6964617465204D657368004704
:103E8000323920503320543000322E20536D61726D
:103E9000742046696C6C2D696E00312E2042756964
:103EA0006C6420436F6C64204D657368004F6E0036
:103EB0004D6F76652025736D6D004D6F76652030F2
:103EC0002E316D6D004D6F766520316D6D004D6F3B
:103ED00076652031306D6D00486F74656E642074B6
:103EE0006F6F20636F6C64004578747275646572DF
:103EF000202A004578747275646572004D6F76658E
:103F0000205A004D6F76652059004D6F7665205818
:103F100000536F667420456E6473746F7073004D48
:103F200038340044697361626C6520537465707045
:103F3000657273004C6576656C20436F726E6572B6
:103F40007300473238205A00486F6D65205A004789
:103F50003238205900486F6D6520590047323820AB
:103F60005800486F6D652058004175746F20486F88
:103F70006D65004D6F7665204178697300507265FC
:103F80006865617420504C4120456E640050726534
:103F90006865617420504C41204265640002687479
:103FA00074703A2F2F6D61726C696E66772E6F7226
:103FB00067004275696C6420343537004D3130300C
:103FC000302053002020506C616E6E657242756621
:103FD00066657242797465733A20002046726565A1
:103FE000204D656D6F72793A2000436F6D70696C7A
:103FF00065643A2044656320333120323031390A18
:1040000000204C61737420557064617465643A20BB
:10401000323031392D31322D3139207C20417574C7
:10402000686F723A20285665727461627265616BBE
:104030006572290A004275696C64203435370A00BC
:104040004D61726C696E0020536F667477617265A2
:104050002052657365740A00205761746368646F49
:10406000672052657365740A002042726F776E2074
:104070006F75742052657365740A00204578746505
:10408000726E616C2052657365740A00506F7765BB
:104090007255700A006175746F25632E6700473290
:1040A00037006572726F722077726974696E67206B
:1040B000746F2066696C650A00446F6E65207361D9
:1040C00076696E672066696C652E0A004D3239008C
:1040D00025532025632025632025632025630020A8
:1040E0005A3A0020593A00656E6473746F707320F9
:1040F0006869743A20001FFFFFFFFFFFFF600000A8
:10410000000001FF400000000000FF8000000000F0
:10411000007F83CF00000C303F87FF80000C301FF2
:10412000867980000C000F8C30C7838C30E78C3090
:10413000CFC7CC31F38C30DCECEC33B98C30D86C9D
:104140006C33198C30D06C0C33198C30D86C0C3328
:10415000198C30DC6C0E3B198C30CF7C079F198C8E
:1041600030C77C038F19400000000000026000008F
:10417000000000061FFFFFFFFFFFF8204A0020524B
:1041800000454550524F4D20496E697469616C6914
:104190007A65640A004D65736820736176656420F2
:1041A000696E20736C6F7420003F556E61626C65A0
:1041B00020746F2073617665206D6573682064617B
:1041C00074612E0A0020736C6F743D00206D65735E
:1041D0006865735F656E643D004532454E443D0041
:1041E000206D65736820736C6F74732061766169EC
:1041F0006C61626C652E0A003F496E76616C696481
:1042000020736C6F742E0A004D657368206C6F61AB
:104210006465642066726F6D20736C6F7420003F5C
:10422000556E61626C6520746F206C6F6164206DE7
:1042300065736820646174612E0A0048617264636A
:104240006F6465642044656661756C7420536574A1
:1042500074696E6773204C6F616465640A0020287E
:104260006D6D29002028696E290046616872656EAF
:10427000686569740043656C73697573004B656CA0
:1042800076696E00556E69666965642042656420D2
:104290004C6576656C696E670020204D36303320A2
:1042A0000020204D34313220530046696C616D6529
:1042B0006E742072756E6F75742073656E736F7295
:1042C0003A0A0020204D3432352046004261636BAB
:1042D0006C61736820636F6D70656E736174696F74
:1042E0006E3A0A00546F6F6C2D6368616E67696E79
:1042F000673A0A005431204C002055005430204CBD
:104300000046696C616D656E74206C6F61642F7519
:104310006E6C6F6164206C656E677468733A0A0036
:1043200020204D3930302054004C696E6561722078
:10433000416476616E63653A0A0020204D3835325B
:10434000204900536B657720466163746F723A2091
:104350000A0020204D343133205300506F776572AE
:104360002D4C6F7373205265636F766572793A0ACC
:104370000020204D33303420500020204D33303188
:104380002050005049442073657474696E67733A15
:104390000A0020480020204D3134352053004D6163
:1043A00074657269616C20686561747570207061F4
:1043B00072616D65746572733A0A00206D65736889
:1043C00065732E0A0A00454550524F4D2063616EB9
:1043D00020686F6C6420000A416374697665204D23
:1043E00065736820536C6F743A200020204D34327E
:1043F0003020530020204D323035204200204A3CEE
:104400006A756E635F6465763E00416476616E63D3
:1044100065643A20423C6D696E5F7365676D656ED9
:10442000745F74696D655F75733E20533C6D696E92
:104430005F66656564726174653E20543C6D696EAB
:104440005F74726176656C5F6665656472617465E0
:104450003E0020204D323034205000416363656CB3
:1044600065726174696F6E2028756E6974732F733D
:1044700032293A20503C7072696E745F61636365E3
:104480006C3E20523C726574726163745F61636359
:10449000656C3E20543C74726176656C5F61636349
:1044A000656C3E0A0020204D32303120540020201F
:1044B0004D3230312058004D6178696D756D204165
:1044C0006363656C65726174696F6E2028756E69CF
:1044D00074732F7332293A0A0020204D3230332072
:1044E000540020204D3230332058004D6178696DE2
:1044F000756D206665656472617465732028756EDC
:104500006974732F73293A0A0053746570732070AD
:10451000657220756E69743A0A00203B20556E69F9
:10452000747320696E200020204D31343920002022
:104530003B002020473200486F6D696E672046615E
:10454000696C6564006F70656E0054524947474559
:104550005245440066696C616D656E74007A5F6DEA
:10456000696E00795F6D696E00785F6D696E0052EB
:1045700065706F7274696E6720656E6473746F70B6
:10458000207374617475730A00000048430000488A
:10459000430000A0400000F0410000A0420000A045
:1045A000420000C8430000D7430000D743D00700B3
:1045B00000D007000064000000A00F0000446973F1
:1045C0006D697373005072696E7420506175736504
:1045D00064005061757365205072696E74004D659A
:1045E0006469612052656D6F766564004D6564692C
:1045F0006120496E736572746564006E6F746966DC
:1046000069636174696F6E20003344205072696E73
:104610007465722052656164792E005072696E74FF
:10462000696E672E2E2E0063616E63656C0050729A
:10463000696E742041626F7274656400554920414F
:10464000626F72746564004D323520500A4D323409
:1046500000526573756D650055492050617573652D
:1046600000726573756D6500FFFDFCFAF8F6F4F2F3
:10467000F0EEECEAE9E7E5E3E1E0DEDCDAD9D7D514
:10468000D4D2D0CFCDCBCAC8C7C5C3C2C0BFBDBCB2
:10469000BAB9B7B6B4B3B2B0AFADACAAA9A8A6A523
:1046A000A4A2A1A09E9D9C9A99989795949392906C
:1046B0008F8E8D8B8A8988878684838281807F7E96
:1046C0007D7B7A797877767574737271706F6E6DA1
:1046D0006C6B6A696867666564636261605F5E5D92
:1046E0005C5B5A5958585756555453525150504F75
:1046F0004E4D4C4B4A4A4948474646454443424240
:1047000041403F3E3E3D3C3B3B3A393838373635F9
:1047100035343332323130302F2E2E2D2C2B2B2AA4
:104720002929282727262525242323222121202043
:104730001F1E1E1D1C1C1B1B1A19191818171616D4
:10474000151514131312121111100F0F0E0E0D0D5B
:104750000C0C0B0A0A0909080807070606050504D8
:104760000403030202010000453100626564002C6D
:104770002073797374656D2073746F707065642134
:10478000204865617465725F49443A200000430225
:104790000B0311241FBECFEFD1E2DEBFCDBF00E07F
:1047A0000CBF13E0A0E0B2E0E8E6FCE203E00BBFE0
:1047B00002C007900D92A638B107D9F729E1A6E803
:1047C000B3E001C01D92AC38B207E1F713E2C8ECC8
:1047D000D3E200E006C021970109802FFE010F946B
:1047E000A891C73CD10780E00807A9F70F94098179
:1047F0000D9422960C9400002F923F924F925F925C
:104800006F927F928F929F92AF92BF92CF92DF92E0
:10481000EF92FF920F931F93CF93DF93CDB7DEB745
:10482000C255D1090FB6F894DEBF0FBECDBF629658
:104830008FAF62972091D10F2F962FAF2F9781E0E6
:104840008093D10F8091620E8D3409F44BC584356D
:1048500011F40C948536873411F00C9496368091BF
:10486000600E9091610E8B31910509F417C4A4F488
:104870008430910509F4DEC01CF4029768F12EC55E
:104880008431910509F400C48531910509F401C40E
:104890000C9709F023C50DC18A32910509F4AEC405
:1048A0005CF48C31910509F413C44D9709F016C5D9
:1048B0000F9499210C9498368B35910509F418C4FE
:1048C0008C35910509F419C48A35910509F006C59E
:1048D00010927A090C94983680912C02882311F456
:1048E0000C9498364DE4A42E43E0B42E59E3C52E23
:1048F00052E0D52E62EDE62E6FE0F62E10E0D501E7
:104900008D915D010F94B11B882349F1812F0E9485
:1049100053D8762E872E982E092F8091DD05811190
:104920001EC0812F0E94C6D5882371F0D6012D911B
:104930003D914D915C91672D782D892D902F0F948D
:10494000B191762E872E02C0892D902F472D582D9C
:10495000BC01F70140835183628373830AC0F6016F
:1049600080819181A281B381F70180839183A283A9
:10497000B3831F5FF4E0CF0ED11C24E0E20EF11CE4
:10498000133009F0BCCF85E40F94B11B882321F1CB
:1049900083E00E9453D87B018C0183E00E94C6D53E
:1049A000882371F0209145023091460240914702E0
:1049B00050914802B701C8010F94B1917B0101C029
:1049C000C801A701BC014093DE0F5093DF0F609335
:1049D000E00F7093E10F10C0809145029091460264
:1049E000A0914702B09148028093DE0F9093DF0FB1
:1049F000A093E00FB093E10F86E40F948B3E20E08C
:104A000030E0A9010F947893181684F40F945B1B7F
:104A100020E030E040E752E40F9439926093350291
:104A20007093360280933702909338020E9497A5C4
:104A30000C94983680E50F94B11B882329F00E94CE
:104A4000C8DC6B017C0103C0C12CD12C760183E54D
:104A50000F94B11B882361F00F94241B20E030E0F9
:104A60004AE754E40F94138B0F94B2926B017C01CC
:104A70000E9456C580914F0A811105C060E08CE903
:104A800097E00F94AD710F941F45C60ED71EE81E18
:104A9000F91E0F941F45DC01CB018C199D09AE094D
:104AA000BF09B7FD02C00C94983680E00E943245E1
:104AB000F0CF0F94F14081110C94983660E070E0D3
:104AC00080E50E9493D7D82E65E070E083E50E94D0
:104AD00093D77C01382E65E070E084E50E9493D77F
:104AE000282E40E050E060ED70E482E50F94CD1B8D
:104AF0004B015C0180915B0E87FF02C00C94A536D0
:104B000080915C0E837011F00C94A53601E082E078
:104B1000082B10917B09812F0F94451C18A619A60C
:104B20001AA61BA61CA61DA61EA61FA618AA19AA71
:104B30001AAA1BAA80E090E0A0E2B1EC8C8F9D8FB6
:104B4000AE8FBF8F18A219A21AA21BA21CA21DA26F
:104B50001EA21FA232E0D3120CC0011105C085EACB
:104B600097E00F94541D8BC21C8E1D8E1E8E1F8EBF
:104B700024C000FD10C08091390290913A02A091AA
:104B80003B02B0913C028C8F9D8FAE8FBF8F88A768
:104B900099A7AAA7BBA701FD10C080913D029091E3
:104BA0003E02A0913F02B091400288A399A3AAA31C
:104BB000BBA38CA79DA7AEA7BFA7809141029091F0
:104BC0004202A0914302B09144028CA39DA3AEA3E4
:104BD000BFA388AB99ABAAABBBAB81E0D81629F0D9
:104BE00092E0D91609F45EC1F1C128A539A54AA5FC
:104BF0005BA56C8D7D8D8E8D9F8D0F94B0914B013B
:104C00005C0120E030E0A9010F94AD8A882309F40B
:104C100036C22CA53DA54EA55FA568A179A18AA1A4
:104C20009BA10F94B0916B017C0120E030E0A901C1
:104C30000F94AD8A882309F422C28CE0E9E3F2E004
:104C4000DE01119601900D928A95E1F71CAE1DAE22
:104C50001EAE1FAE88E0FE01B896DE01D49601902C
:104C60000D928A95E1F7BE01645C7F4FCE01C49638
:104C70000E949AA2220C20E030E0A901C501B401F3
:104C80000F9478932401350187FF04C077FA70945C
:104C900077F8709420E030E0A901C701B6010F94C5
:104CA000789387FF0AC0D701C601B05828968CAF09
:104CB0009DAFAEAFBFAF289706C02896CCAEDDAE95
:104CC000EEAEFFAE2897A301920128966CAD7DADA4
:104CD0008EAD9FAD28970F94AD8A181614F075010C
:104CE0006401A22DB0E02A96BFAFAEAF2A97BD01F6
:104CF000BB0F880B990B0F94B48A9B01AC01C701C1
:104D0000B6010F9439924B015C01D12CD31408F0F9
:104D100055C100E0802F002E000C990B2A96EEADB5
:104D2000FFAD2A978E179F070CF05CC000FF05C0EF
:104D30009E01245E3F4F790103C0CE0188967C011D
:104D4000A301920128966CAD7DAD8EAD9FAD2897E5
:104D50000F94AD8A402F002E000C550B660B770B7D
:104D60001CAA1DAA1EAA1FAA1816ECF0CB01BA0194
:104D70000F94B48AA50194010F94138B9B01AC018D
:104D800068A579A58AA59BA50F94B1916CAF7DAF5D
:104D90008EAF9FAFB7016C5F7F4FAE014C5C5F4F32
:104DA000CE01CC961BC0CB01BA010F94B48AA501E9
:104DB00094010F94138B9B01AC016CA57DA58EA56E
:104DC0009FA50F94B1916CAF7DAF8EAF9FAFAE0139
:104DD0004C5C5F4FBE01645C7F4FC7010E9478A2AC
:104DE0000F5F98CF022D07FD5BC000FF04C0DE01FE
:104DF0005C967D0103C0FE01B8967F01A30192017C
:104E000028966CAD7DAD8EAD9FAD28970F94AD8A81
:104E1000402F002E000C550B660B770B1CAA1DAA09
:104E20001EAA1FAA1816ECF0CB01BA010F94B48A7F
:104E3000A50194010F94138B9B01AC0168A579A582
:104E40008AA59BA50F94B1916CAF7DAF8EAF9FAF3C
:104E5000B7016C5F7F4FAE014C5C5F4FCE01CC96CB
:104E60001BC0CB01BA010F94B48AA50194010F9421
:104E7000138B9B01AC016CA57DA58EA59FA50F94FE
:104E8000B1916CAF7DAF8EAF9FAFAE014C5C5F4F09
:104E9000BE01645C7F4FC7010E9478A20150A3CF7E
:104EA000D39434CF332009F4EAC08CE0E9E3F2E094
:104EB000DE01119601900D928A95E1F71CAE1DAEB0
:104EC0001EAE1FAE88E0FE01B896DE01D4960190BA
:104ED0000D928A95E1F7BE01645C7F4FCE01C496C6
:104EE0000E949AA200E0E12CF12C24961CAE1DAE8B
:104EF0001EAE1FAE2497B7010F2C000C880B990B28
:104F00000F94B48A2CE739ED40E25FE30F94138BE2
:104F10002B013C010F9434929B01AC01C501B401FB
:104F20000F94138B9B01AC0168A179A18AA19BA16D
:104F30000F94B1916CAF7DAF8EAF9FAFC301B20143
:104F40000F9400949B01AC01C501B4010F94138B25
:104F50009B01AC016C8D7D8D8E8D9F8D0F94B191D9
:104F60006CAB7DAB8EAB9FABAE01405C5F4FBE01C7
:104F7000645C7F4FCE01C4960E9478A2FFEFEF1AC7
:104F8000FF0A2AE0E216F10409F0AFCF0F5F031524
:104F900008F4A9CF1CAE1DAE1EAE1FAE88E0FE0108
:104FA000B896DE01D49601900D928A95E1F7BE0184
:104FB000645C7F4FCE01C4960E949AA21CAA1DAACF
:104FC0001EAA1FAABE016C5C7F4F55C08CE0E9E3AE
:104FD000F2E0DE01119601900D928A95E1F71CAE88
:104FE0001DAE1EAE1FAE88E0FE01B896DE01D4965F
:104FF00001900D928A95E1F76E0134E3C30ED11C46
:10500000BE01645C7F4FC6010E949AA2FF24F59402
:10501000E79400E05601802F90E08E159F0534F54F
:105020001CAE1DAE1EAE1FAE88E0FE017C96D50103
:1050300001900D928A95E1F7BE01645C7F4FC60135
:105040000E949AA21CAE1DAE1EAE1FAE88E0FE01ED
:10505000B896D60101900D928A95E1F7BE01645C85
:105060007F4FC6010E949AA20F5FD5CF1CAA1DAA2E
:105070001EAA1FAAB601CE0101960E94A0A2812FEE
:105080000F94451C0C94983681E00F940A0C0C94F4
:10509000983680E00F940A0C0C9498360F94F140E7
:1050A00081110C9498368CE0ECE9F2E0DE01119667
:1050B00001900D928A95E1F760E070E080E50E9432
:1050C00093D7BE016F5F7F4F0F94DE6C0C949836C0
:1050D0008091E20F8770873011F00C94B33660E056
:1050E0008FE40E94D86981110C9498360C94B336E1
:1050F0008FE080937A090C94983680915F0E882314
:1051000051F1893009F076C08DE4C82E83E0D82EA5
:1051100099E3E92E92E0F92E312C00E010E0D6015F
:105120008D916D010F94B11B882371F0812F0E9426
:1051300053D8F7016083718382839383133011F412
:1051400001E002C0332433941F5FF4E0EF0EF11C42
:10515000143029F744C01DE4C12E13E0D12E09E319
:10516000E02E02E0F02E312C00E010E0D6018D910F
:105170006D010F94B11B882361F1812F0E9453D8D8
:105180004B015C01F70120813181428153810F94F1
:10519000B0912B013C012DEB37E346E855EB0F9422
:1051A000789387FD0AC02DEB37E346E855E3C3014A
:1051B000B2010F94AD8A181664F4133011F401E0B3
:1051C00002C033243394D7018D929D92AD92BC924C
:1051D00013971F5FB4E0EB0EF11C143039F6332047
:1051E00019F00E94E3A206C0002321F085E492E0BA
:1051F0000F941A790E94E5A20C94983680912C02A3
:10520000882311F40C94983689E40F94B11BE82E8E
:10521000882321F00F94201BF82E01C0F12C8AE482
:105220000F94B11B082F882321F00F94201B182FF7
:1052300001C010E0EE2019F0E4E0EF1520F00023AB
:1052400041F0153030F089EC97E00F94541D0C9428
:10525000983680E1E9E3F2E0A2EDBFE001900D9223
:105260008A95E1F7EE2059F08F2D0F94FB1B609388
:10527000D20F7093D30F8093D40F9093D50F002348
:1052800059F0812F0F94FB1B6093D60F7093D70FAB
:105290008093D80F9093D90F86E40F948B3E6B01C7
:1052A0007C0120E030E0A9010F94789318164CF4AB
:1052B00020E030E040E752E4C701B6010F94399294
:1052C00003C060E070E0CB0169837A838B839C83A9
:1052D000CE0101960E946EAF0C9498360F94CC01CB
:1052E0000C9498368091600E9091610E8D379105E7
:1052F00009F461C60CF00EC18135910509F45EC652
:105300000CF07AC08A31910509F4F7C2B4F5843102
:10531000910509F441C294F48131910509F428C240
:1053200044F4029710F00C9482360F94340C0C94D1
:105330009836429709F45FC60C94823687319105FE
:1053400009F44FC28CF48531910509F446C24697A1
:1053500011F00C9482360F94DB478091740B877F99
:105360008093740B0C9498368831910509F452C2DD
:10537000499709F4B7C20C9482368032910509F43A
:1053800033C3F4F48D31910509F417C384F48B31E0
:10539000910509F4C0C24C9711F00C9482368091AB
:1053A0005D0E90915E0E0F94744B0C9498368E3176
:1053B000910509F409C34F9709F44DC30C94823643
:1053C0008B34910509F447C454F48A32910509F4E9
:1053D000EDC38934910509F40CC40C9482368C34E5
:1053E000910509F43CC48D34910511F00C9482367A
:1053F0000E9408910C9498368D36910509F46FC47B
:105400000CF03FC08436910509F42DC404F58435B1
:10541000910509F4F0C58CF48235910509F4E4C5D1
:105420008335910511F00C94823680917A098F7E34
:10543000806280937A090C9498368535910509F439
:10544000DDC58C35910509F4F2C50C9482368A3697
:10545000910509F4C5C454F48836910509F407C4CC
:105460008936910509F4A6C40C9482368B369105D1
:1054700009F4DCC48C36910511F40C9498360C9424
:1054800082368337910509F480C6ECF480379105A4
:1054900011F40C94983654F48E36910509F4D0C466
:1054A0008F36910509F4DDC40C948236813791055D
:1054B00009F41CC58237910511F00C9482360F94C3
:1054C000E30C0C9498368737910509F40AC78CF4DD
:1054D0008537910509F4C2C68637910511F00C9401
:1054E000823600915D0E10915E0E94E0F12C40E04A
:1054F000DCC68837910509F4F7C68937910511F0A4
:105500000C94823610927410109273100F944B65A5
:105510000C9498368A39F1E09F0711F40C94983670
:105520000CF083C0893D910509F4BAC7B4F58E3BF0
:10553000910509F417C5ACF48139910509F4DCC66D
:1055400034F48C38910509F4F3C40C94823685390F
:10555000910509F42AC78B39910509F406C50C9405
:1055600082368C3C910509F495C754F4893C910529
:1055700009F436C78B3C910509F463C70C94823655
:105580008D3C910509F489C7833D910511F00C9478
:1055900082360E949CDE0C9498368D3231E093075F
:1055A00011F40C946233E4F4823E910509F4E4C7EB
:1055B00054F48C3D910509F487C78D3D910509F49C
:1055C00090C70C9482368232B1E09B0711F40C94A0
:1055D00008338C32914011F40C944D330C94823684
:1055E0008033F1E09F0711F40C9465337CF48E3224
:1055F00031E0930711F40C94D8338F32914011F0BD
:105600000C9482360F94DD010C9498368336B1E009
:105610009B0711F40C9429368039914011F00C94B9
:1056200082360E9456C50C9498368C30F2E09F0763
:1056300011F40C94B8340CF04DC0863E31E0930761
:1056400011F40C942C341CF5843AB1E09B0711F44E
:105650000C9426346CF48C39F1E09F0711F40C940F
:105660001C348D39914011F40C946B360C948236B5
:10567000853A31E0930711F40C942934893A91402A
:1056800011F00C9482360E94FB650C949836863F8C
:10569000B1E09B0711F40C949B347CF4843FF1E05F
:1056A0009F0711F40C949834853F914011F00C94AD
:1056B00082360F94E2670C949836873F31E0930767
:1056C00011F40C949E34883F914011F40C94A7344B
:1056D0000C9482368435B3E09B0711F40C943F356B
:1056E0002CF58B35F2E09F0711F40C9442357CF4D5
:1056F0008F3332E0930711F40C94C0348835924014
:1057000011F00C9482360E94F0DA0C9498368D3B9E
:10571000B2E09B0711F40C94BE358E3B924011F021
:105720000C9482360E9472D80C949836803AF3E03A
:105730009F0709F482C16CF48C3633E0930711F4AF
:105740000C9498368438934011F40C94C1350C9421
:105750008236873EB3E09B0711F40C945D36883E99
:10576000934011F00C9482360E94DFD50C94983649
:105770008091590E84FF02C00C947C3880915B0E9E
:1057800087FF02C00C947C3880915C0E837011F00E
:105790000C947C380C94943880E098E00F94541D5D
:1057A00081E99BE00F94522A8BE1E1E9FBE0DE0105
:1057B000119601900D928A95E1F760E070E0CE01BC
:1057C00001960F94A04CCE0101960E94F76981EFDB
:1057D00097E00F94541D0C9498360F944C480C94F9
:1057E0009836E0915D0EF0915E0E8081882329F05D
:1057F000803209F410823196F8CF60E080915D0E1E
:1058000090915E0E0F94C24B1092F6041092F50424
:105810000C94983683E50F94B11B882321F00F94E4
:10582000101B0F94220984E50F94B11B8823A9F063
:105830000F94101B6B017C010E94B490C0923B0539
:10584000D0923C05E0923D05F0923E05CD28CE2851
:10585000CF2819F081E080933F058091E40F8823E1
:10586000E9F080E090E0A8ECB1E489839A83AB830F
:10587000BC831C8E1D8E1E8E1F8E18A619A61AA6FE
:105880001BA620E0AE014F5F5F4FBE01645E7F4FFD
:10589000CE0188960E94A76C0C9498360E941C43F7
:1058A000882381F00F94EC470E94404383ED99E0F8
:1058B0000F9491471092630E1092640E1092650E31
:1058C0001092660E61E081E696E40E948E6B4DEBCD
:1058D00055E461E178E085E00E94A06C0F94877246
:1058E0000C9498368091740B82FF03C08B7F809359
:1058F000740B0E9412DC0C9498368091740B83FD1B
:1059000002C00C94983683E50F94B11B81110C945E
:105910009F380C94983683E40F94681B882319F100
:1059200087E298E00F94541D8091D80C882391F061
:10593000BE016F5F7F4F85ED9CE00F94C92D8E01F6
:105940000F5F1F4FD8018D918D01882339F00E9480
:10595000EF43F8CF8DE198E00F94541D8AE00E9448
:10596000EF430C94983683E50F94B11B882309F11B
:105970000E94A869182F90E0CD970CF01CE31093BB
:105980008A030F941F456B017C01212F30E0A8EEA4
:10599000B3E00F945791C60ED71EE81EF91EC092B1
:1059A0008603D0928703E0928803F09289030C94D7
:1059B00098360F946A470C9498368091740B8E7FBA
:1059C0008093740B0C9498368091740B83FD02C005
:1059D0000C9498360F94B20180915D0E90915E0EFA
:1059E0000F94B54A0C9498368091740B82FD0E94F6
:1059F00056C58091740B83FD02C00C94983660E00C
:105A000080E50E94D869182F682F80915D0E9091D3
:105A10005E0E0F94C24B83E50F94B11B882321F0D7
:105A20000F94101B0F9422090F94EC4711110C9442
:105A300098360E9440430C94983620915D0E309128
:105A40005E0E9091740B92609093740BC9010F9449
:105A5000744B0C9498360E9480907B018C0120E856
:105A600031E541E050E00F940391C9016DE671E02A
:105A70000F9480914B015C01C801B70120E13EE029
:105A800040E050E00F940391CA01B90128E130E0F1
:105A900040E050E00F940391762E672EC62ED72E4D
:105AA000BCE32B2E312C412C512CC801B701A20193
:105AB00091010F940391F62EE72ECA01B901A201BC
:105AC00091010F940391CB018E010F5F1F4F811441
:105AD000910499F0EF92FF927F936F936F927F9270
