:100000000C942C240C945D240C945D240C945D249D
:100010000C945D240C945D240C945D240C945D245C
:100020000C945D240C945D240C945D240C945D244C
:100030000C945D240D94125D0C945D240C945D244D
:100040000C945D240D9491790C945D240C945D24A2
:100050000C945D240C945D240D9450660D94C85C42
:100060000C945D240C94B5550C94AB550C945D2404
:100070000C945D240C945D240C945D240C945D24FC
:100080000C945D240C945D240C945D240C945D24EC
:100090000C945D240C945D240C945D240C945D24DC
:1000A0000C945D240C945D240C945D240C945D24CC
:1000B0000C945D240C945D240C945D240C945D24BC
:1000C0000C945D240C945D240C945D240C945D24AC
:1000D0000C945D240C945D240C945D240C945D249C
:1000E0000C945D24EB55F155035613561B564B5695
:1000F0001F564B56235627564B562B562F563356C4
:100100003C564B564756BBE260E199E1F7E299E174
:1001100099E199E199E199E199E199E199E199E10F
:1001200099E199E199E199E199E199E199E199E1FF
:1001300099E199E199E199E199E199E199E199E1EF
:1001400099E1F1E299E199E199E199E199E199E186
:1001500099E199E1CAE299E199E199E199E199E19D
:1001600099E199E199E199E199E10EE396E1FB01C9
:10017000F901F10231021903A3012B037701E70210
:100180003D02BF016501E101AD01A301F3016D0174
:10019000B102A502390263018F02E701CB0113020C
:1001A0000B0315035B025D01970269014902CB0154
:1001B0000D030B0227038F01030309029B01F302C6
:1001C0001102F502D302E9029D02A1019501790114
:1001D0008D0253015F01FF01A3021B037F0105A8EC
:1001E0004CCDB2D44EB93836A9020C50B99186889C
:1001F000083CA6AAAA2ABE000000803F0763423638
:10020000B79BD8A71A39685618AEBAAB558C1D3CA7
:10021000B7CC5763BD6DEDFD753EF6177231BF006B
:100220000000803F08000000BE922449123EABAAA5
:10023000AA2ABECDCCCC4C3E00000080BEABAAAA00
:10024000AA3E00000000BF000000803F0000000048
:1002500000084178D3BB4387D1133D190E3CC3BD81
:100260004282AD2B3E68EC8276BED98FE1A93E4C2E
:1002700080EFFFBE01C4FF7F3F00000000000C9430
:10028000DD490C9499E10D943A210D94074C0C949E
:10029000FC9F0C942E480C943A710C94719C0D9414
:1002A0007B560D9430210D948F650C94F6E00C94E0
:1002B00083790D9472560C94F49B0D94444B0D94D9
:1002C000A2650D940E380D94024B0D949C420D9432
:1002D000FA550D945D4B0C94EA9F0D94AE420C942C
:1002E000DE9F0C9446470D94985C0C9458710D94C5
:1002F00088420D9496640C943C560D94C4850D94DC
:1003000086640D94FF3E0C94DD9C0C94389D0C94F7
:1003100033560C94049F0C94359F0C94D39E0D94EB
:10032000685C0D940A210D94D4320D94565C0C94A3
:10033000EFA00C94D7490D946B5C0C9444700D9411
:10034000FF550D94535C0D94B7420C9460E10C94EE
:1003500068E00C94BA9D0C94563A0D94A4420D9406
:10036000FB3D0D94184C0C9496E10C941CA10C943C
:10037000999C0C9488430D9453570C94503E0D94C3
:1003800096420C94C9E90C94AAE90D948B3C0D9407
:10039000DA320C94FF3A0D948F4B0D94D83C0C94A8
:1003A000DA390C94433B0C948C3B0C9402A00C94D3
:1003B000213C0C94CA760C94BDE90C946BE00C942F
:1003C00057A40D94A0420D94C2320D94DE4B0D94AF
:1003D000164B0D944E210D94B7230C94F5E00C941C
:1003E000B59C0C941B9D0D94AA420C94859C0C9476
:1003F00027560D9480420D947D420D94C8390D947A
:10040000A7650C9413560C94F69F0D9456210C94EA
:100410005EE30D94445C0D947B4B0C94B4790C9486
:10042000C99C0D944A5C0D94204B0D944B570D9430
:10043000CE320D945F570C94729D0C94A79C0D9432
:1004400035210C94CC490C942A480C94EB550C940F
:1004500034450D94E0200D9465220D943B570C9487
:10046000EE6F0D9473420D9444210D946F750D94AD
:10047000F5550D94FD4A0C945A740D9492420D94C6
:1004800037570C94E49F0D945F220D9408380D9417
:1004900047540D94674B0D94C8320C94EB9C0C940C
:1004A00047560D947D3B0D941E560C9423560C9488
:1004B0008B430C94EC470D943A4B0D9452210D94C0
:1004C000BF320C942B560C94C2EB0C94B23D0C949E
:1004D000D9490C9408A00C94AFE90C94F09F0C94AB
:1004E00063720D94E4200C94FD470D941A380D941A
:1004F000BB390C94C8390C94F1E20C94D89F0C943D
:100500001F560C940EA00D946E5C0C94DB490D9458
:1005100069380C945D9C0D9447570D948A650D9431
:100520000C4B0C9499430C94F9E00D94A6850D9412
:100530004E4B0C94559D0C94AC6F0D94665C0C94D2
:100540008E430C94CAE20D94BA650D94F84A0C944B
:100550005F9A0C94FE9C0C944B560D9414380D9499
:1005600089560D94B2420D9483560D94F0550D9416
:1005700001380C942F560D9457570D94405E0D94EE
:1005800009590D941E260C9425910C9403560D9434
:10059000BC3D0C94909D0C94CE490D9443570C9403
:1005A0002F700C94403C0D94595C0D94BB320C940C
:1005B000479C0D944F570C9430480D94AB400C94CD
:1005C000B8E90D9472410C942C480C9447E70D94B3
:1005D0008E420D94505C0C94623B0C94F1550D943A
:1005E00047750D946F420D94475C0D944D5C0D94CE
:1005F0005B570C94CE750C94F7E20C94AD6F0C9491
:10060000899D0D9449210D94415C0C94FB470C94F9
:100610006D3B0C94943B0D94284B0D94714B0C94B2
:10062000BE9D0C94BBE20D9466210D94304B0C944E
:10063000CD470D9479420D94C6650C9479A20C9423
:100640001B560D94CD3A0D94AE3B0D943F210D9465
:10065000854B0C9493400D9484420C940EE30C94BF
:10066000D0A00D9402760D943F570D9479340C94DC
:10067000B3E94E414E494E495459494E46CDCCCC32
:100680003D0AD7233C17B7D13877CC2B329595E666
:10069000241FB14F0A000020410000C84200401C46
:1006A0004620BCBE4CCA1B0E5AAEC59D7400407A93
:1006B00010F35A00A0724E18090010A5D4E80000EB
:1006C000E87648170000E40B54020000CA9A3B0089
:1006D0000000E1F505000080969800000040420F00
:1006E000000000A08601000000102700000000E8C4
:1006F00003000000006400000000000A0000000089
:10070000000100000000002C76D888DC674F082329
:10071000DFC1DFAE59E1B1B796E5E3E453C63AE68F
:1007200051997696E8E6C28426EB898C9B62ED406F
:100730007C6FFCEFBC9C9F40F2BAA56FA5F49005BE
:100740005A2AF75C936B6CF9676DC11BFCE0E40DF2
:1007500047FEF520E6B500D0ED902E0300943577E6
:10076000050080841E080000204E0A000000C80C0E
:10077000333333330F986E12831141EF8D21148977
:100780003BE65516CFFEE6DB18D1844B381BF77CD1
:100790001D901DA4BBE424203284725E228100C916
:1007A000F124ECA1E53D27434F4D4D554E494341C2
:1007B00054494F4E0044525952554E004552524FE3
:1007C0005253004543484F0020643A0020693A00E4
:1007D00020703A00536C6565702E2E2E00576172A2
:1007E0006E696E67203A20436C65616E20436972C2
:1007F000636C652072657175697265732058590A5A
:10080000004D65736820706F696E742063616E6E51
:100810006F74206265207265736F6C7665640A0080
:100820004E6F204D6F76652E00456E642066696CB4
:1008300065206C6973740A00426567696E20666999
:100840006C65206C6973740A00526573756D696E0E
:100850006720534400286E6F2066696C6529004349
:10086000757272656E742066696C653A2000256940
:100870007920256964202569682025696D2025690E
:1008800073005072696E742074696D653A2000457A
:1008900025632025530044454255473A004D3131E8
:1008A000332053003344205072696E746572204FB8
:1008B00046462E004348414D4245525F54454D50F7
:1008C00045524154555245004D4F54494F4E5F4D8E
:1008D0004F44455300544845524D414C5F50524F90
:1008E00054454354494F4E004155544F5245504F83
:1008F00052545F53445F5354415455530050524F28
:100900004D50545F535550504F525400454D455231
:1009100047454E43595F504152534552004341535E
:10092000455F4C494748545F4252494748544E45F9
:10093000535300544F47474C455F4C494748545325
:1009400000534F4654574152455F504F5745520050
:100950004255494C445F50455243454E54004C4526
:1009600056454C494E475F44415441005A5F5052EE
:100970004F4245004155544F4C4556454C0050524E
:10098000494E545F4A4F420050524F4752455353CD
:10099000004155544F5245504F52545F54454D50AD
:1009A00000564F4C554D45545249430042494E4123
:1009B00052595F46494C455F5452414E5346455249
:1009C0000053455249414C5F584F4E5F584F464681
:1009D000004649524D574152455F4E414D453A4DB3
:1009E00061726C696E204275696C64203435372001
:1009F000284769744875622920534F555243455F13
:100A0000434F44455F55524C3A68747470733A2FA3
:100A10002F6769746875622E636F6D2F56657274E7
:100A200061627265616B2F4D61726C696E2050520C
:100A30004F544F434F4C5F56455253494F4E3A31F6
:100A40002E30204D414348494E455F545950453A58
:100A50003344205072696E74657220455854525563
:100A60004445525F434F554E543A32205555494400
:100A70003A38333666613934332D313333372D31DB
:100A80003333372D313333372D39386132306465A4
:100A900037353630370A002F2F20004D31343520BE
:100AA000533C696E6465783E206F7574206F6620D4
:100AB00072616E67652028302D31290A0020466C4E
:100AC0006F773A200050726F7465637465642050CC
:100AD000696E0A006469730043290A0061626C65EB
:100AE0006420286D696E2074656D702000436F6C02
:100AF0006420657874727564657320617265200086
:100B000046696C616D656E742072756E6F757420C8
:100B100000454550524F4D204F4B0A003F28422977
:100B2000617564207261746520696D706C617573A4
:100B300069626C652E0A002053657269616C203011
:100B4000206261756420726174652073657420741D
:100B50006F2000416476616E6365204B003F4B203F
:100B600076616C7565206F7574206F662072616E9A
:100B700067652028302D3130292E0A003F54207619
:100B8000616C7565206F7574206F662072616E6789
:100B9000652E0A0043617365206C696768743A20AA
:100BA0000043617365206C696768743A206F6666FC
:100BB0000A00506F7765722D6C6F737320726563D6
:100BC0006F766572792000C307990EBC07B507A739
:100BD0000743616E63656C204F626A656374004110
:100BE0006476616E6365642053657474696E6773BF
:100BF00000536D6F6F7468696E6700436F72726542
:100C00006374696F6E004E65787420506F696E74FE
:100C1000004E657874004E4F005945530043616E95
:100C200063656C204F626A656374203D005A2052F0
:100C30006169736500326E64204E6F7A7A6C65204C
:100C40005A00326E64204E6F7A7A6C6520590032F9
:100C50006E64204E6F7A7A6C652058004C69676824
:100C600074204272696768746E657373004E6F7AA0
:100C70007A6C650046616E205370656564004C6F48
:100C800061642053657474696E6773005265737490
:100C90006F7265206661696C736166650053746F7D
:100CA00072652053657474696E677300507265686D
:100CB000656174205045544720436F6E6600507242
:100CC000656865617420504C4120436F6E66004337
:100CD000617365204C6967687400546F6F6C2043C2
:100CE00068616E676500546F6F6C204F6666736550
:100CF0007473005654726176204D696E00566D69AA
:100D00006E00566D6178202A00566D61782045008E
:100D1000566D6178205A00566D6178205900566DE5
:100D20006178205800416D6178202A00416D61781A
:100D3000204500416D6178205A00416D617820594D
:100D400000416D6178205800412D54726176656CC8
:100D500000412D5265747261637400416363656C78
:100D6000004A756E6374696F6E20446576002A735D
:100D7000746570732F6D6D004573746570732F6D9E
:100D80006D005A73746570732F6D6D0059737465BF
:100D900070732F6D6D005873746570732F6D6D00D7
:100DA000496E697400496E697469616C697A65207D
:100DB000454550524F4D004261636B6C6173680052
:100DC00053746570732F6D6D004A65726B004163DB
:100DD00063656C65726174696F6E0056656C6F63F4
:100DE00069747900206D61783A00206D696E3A006F
:100DF0004178697320005072696E74657220737453
:100E00006F707065642064756520746F2065727200
:100E10006F72732E2046697820746865206572723F
:100E20006F7220616E6420757365204D39393920E9
:100E3000746F20726573746172742E202854656D0E
:100E4000706572617475726520697320726573656F
:100E5000742E205365742069742061667465722055
:100E600072657374617274696E67290A004D383750
:100E70003620526573706F6E64696E672050524FF2
:100E80004D50545F00554E4B4E4F574E20535441DA
:100E900054450047434F44455F494E464F004C433D
:100EA000445F50415553455F524553554D450046AB
:100EB000494C414D454E545F52554E4F55545F433A
:100EC0004F4E54494E55450046494C414D454E54B0
:100ED0005F52554E4F5554005075726765204D6FE7
:100EE0007265004572726F722077726974696E67FD
:100EF00020746F20454550524F4D210A0062757392
:100F0000793A2070617573656420666F7220696E2E
:100F10007075740A00627573793A20706175736533
:100F20006420666F7220757365720A00627573794A
:100F30003A2070726F63657373696E670A0070613F
:100F4000757365004D363030002066696C616D65E3
:100F50006E745F72756E6F7574200066696C616D7A
:100F6000656E745F72756E6F757420540046696C9F
:100F7000616D656E7452756E6F75742054005354B4
:100F80004F505045442E20004E6F20436865636BE0
:100F900073756D2077697468206C696E65206E7555
:100FA0006D6265722C204C617374204C696E653AD9
:100FB0002000636865636B73756D206D69736D6187
:100FC0007463682C204C617374204C696E653A2000
:100FD000004C696E65204E756D62657220697320E4
:100FE0006E6F74204C617374204C696E65204E7571
:100FF0006D6265722B312C204C617374204C696ECC
:10100000653A20004D313130004D313137004D33DC
:10101000310053442072656164206572726F720AF8
:1010200000446F6E65207072696E74696E67206629
:10103000696C650A002121204B494C4C2063617585
:1010400073656420627920746F6F206D756368200A
:10105000696E6163746976652074696D65202D2001
:1010600063757272656E7420636F6D6D616E643A44
:101070002000252723181F211D1C19171B1E2E2C8D
:101080000C312F3004400AFF4103FF3F04090807D9
:10109000000120595A3A200020585A3A200020587E
:1010A000593A2000536B657720466163746F720074
:1010B0006D696E5F736B65775F666163746F723ABB
:1010C00020202D31206D61785F736B65775F6661DD
:1010D00063746F723A2020310A00416363656C6566
:1010E000726174696F6E3A2050003F4A206F7574C8
:1010F000206F662072616E67652028302E303120A7
:10110000746F20302E33290A00486F74656E642096
:101110006F6666736574733A0020633A00204D3938
:1011200032205400204D393220580020204D617863
:101130003A200020204D696E3A2000536F667420DB
:10114000656E6473746F70733A20004D32342053AF
:10115000256C642054256C64004739322E392045B3
:101160002573004731204625640047312045312052
:101170004633303030004739322E39205A2573003B
:101180004731205A30204632303000473120582530
:1011900073205925732046333030300047312045C5
:1011A000312046323030004D343230205325692012
:1011B0005A2573004D31303620502569205325695A
:1011C000005425692053004739322E392045305AC2
:1011D000300A47315A320A47323852305859004D96
:1011E000343230205330205A300020496E76616C02
:1011F000696420657874727564657220003F4545A6
:1012000050524F4D2073746F72616765206E6F741A
:1012100020617661696C61626C652E0A006275748A
:10122000746F6E0070726F6D70745F0073686F77AB
:1012300000486F74656E6420746F6F20636F6C6418
:101240000A0053656E64204D31303820746F20726F
:101250006573756D650A0052656865617420446F39
:101260006E6500526568656174696E6700526568F5
:101270006561740048656174657254696D656F7568
:10128000740053656E64204D31303820746F2068CF
:10129000656174206E6F7A7A6C650A004E6F7A7A97
:1012A0006C65205061726B65640070617573656474
:1012B000004D3630303A20546F6F20436F6C64001D
:1012C000726573756D656400526573756D696E67DF
:1012D00000426564204C6576656C696E6720004647
:1012E00061696C656420746F20656E61626C652055
:1012F000426564204C6576656C696E670A00496ECC
:1013000076616C6964206D6573682E0A0076616C85
:1013100069640A53746F7261676520736C6F743A05
:1013200020004D65736820697320003F496E766127
:101330006C69642073746F7261676520736C6F747D
:101340002E0A004D34323120696E636F727265630C
:101350007420706172616D65746572207573616768
:10136000650A003F2061646472657373203A20004F
:10137000206279746573206F66206D656D6F727978
:1013800020696E697469616C697A65642E0A0A0065
:10139000556E61626C6520746F20696E6974696155
:1013A0006C697A652E0A0A00496E697469616C6914
:1013B0007A696E672066726565206D656D6F7279FA
:1013C00020626C6F636B2E0A0A0A00747275650ADC
:1013D000002072657475726E3D000A4D656D6F7206
:1013E0007920436F7272757074696F6E20646574D2
:1013F000656374656420696E2066726565206D653D
:101400006D6F727920617265612E0A002020626C16
:101410006F636B5F666F756E643D002020200A006D
:101420002920666F756E643D002020204D656D6F2C
:10143000727920636F7272757074696F6E20646563
:10144000746563746564207769746820656E645F91
:10145000667265655F6D656D6F72793C4865617038
:101460000A0020656E645F667265655F6D656D6F0D
:101470007279203C204865617020002020656E64F0
:101480005F667265655F6D656D6F72793D000A66B6
:101490007265655F6D656D6F72795F73746172748B
:1014A0003D000A666D632829206E3D006368656310
:1014B0006B5F666F725F667265655F6D656D6F729B
:1014C000795F636F7272757074696F6E2829203D41
:1014D00020004D3130302046200020627974657341
:1014E00020617420000A4C61726765737420667213
:1014F000656520626C6F636B2069732000206279E0
:1015000074657320667265652061742000466F758E
:101510006E6420000A436F7272757074696E672082
:10152000616464726573733A2000436F7272757000
:1015300074696E672066726565206D656D6F72797E
:1015400020626C6F636B2E0A0A000A537461636B2E
:1015500020506F696E74657220202020202020208A
:10156000203A20000A667265655F6D656D6F72795D
:101570005F656E64202020202020203A20000A662B
:101580007265655F6D656D6F72795F73746172749A
:1015900020202020203A20000A6273735F656E6469
:1015A0002020202020202020202020202020203A21
:1015B000200020284E6F7420796574206D6561735A
:1015C0007572656429002020417665726167652027
:1015D0006D65617375726564206261636B6C6173C4
:1015E0006820286D6D293A002020536D6F6F746854
:1015F000696E6720286D6D293A2020202020202048
:101600002020202020202020202053002020426164
:10161000636B6C6173682044697374616E636520E9
:10162000286D6D293A20202020202020200020280D
:1016300046312E30203D2066756C6C2C2046302EB5
:1016400030203D206E6F6E65290A002020436F72A6
:1016500072656374696F6E20416D6F756E742F468D
:101660006164652D6F75743A20202020204600614A
:1016700063746976653A0A004261636B6C617368F2
:1016800020436F7272656374696F6E2000496E66E5
:101690006F2053637265656E0047323920503420E5
:1016A00052393939205400473239204900496E7681
:1016B000616C696461746520436C6F736573740059
:1016C000496E76616C696461746520416C6C004799
:1016D0003239205031204300436F6E74696E756556
:1016E00020426564204D6573680046696C6C2D6905
:1016F0006E204D657368004732380A4732392050F2
:1017000031004275696C6420437573746F6D204DB0
:10171000657368004732380A4D313930205337300D
:101720000A4D31303920533235300A473239205092
:10173000310A4D3130342053300A4D31343020538A
:1017400030004275696C64204D65736820285045EF
:10175000544729004732380A4D313930205336304A
:101760000A4D31303920533230300A473239205057
:10177000310A4D3130342053300A4D31343020534A
:1017800030004275696C64204D6573682028504CA8
:101790004129004D313137204D657368202569207E
:1017A0004C6F6164656400473239204C2569004DF7
:1017B000313137204D657368202569205361766586
:1017C000640047323920532569004C6F6164204220
:1017D0006564204D657368004D656D6F72792053A7
:1017E0006C6F74004E6F2053746F726167650048B0
:1017F0006F6D696E672058595A004732392050344E
:1018000020582573205925732052256900202D2D3D
:101810002D2D2D004732380047323920532D31000D
:101820004F6666205072696E746572204261636B08
:10183000757000473239205431004F7574707574DB
:1018400020666F72204353560047323920543000CF
:101850004F757470757420666F7220486F737400D2
:1018600045646974204D65736800473239204939F1
:1018700039390A4732392050322042205430004D45
:10188000616E75616C6C79204275696C64204D6580
:10189000736800372E205361766520426564204DC1
:1018A00065736800362E2046696E652054756E6536
:1018B00020416C6C00352E2056616C696461746542
:1018C000204D65736800342E2046696E652054757E
:1018D0006E6520416C6C00332E2056616C6964612A
:1018E0007465204D657368004732392050332054A9
:1018F0003000322E20536D6172742046696C6C2D5D
:10190000696E00312E204275696C6420436F6C64EF
:10191000204D657368000400000501000300050107
:1019200000050400000005000300251920191B19FB
:1019300016190000000000007F420000FF42004036
:101940003F4300007F4320616E642074616B65201B
:1019500061206D6561737572656D656E742E0A0028
:101960006D6D20746869636B2E0A00427573696E31
:101970006573732043617264206973200052656D42
:101980006F76652026204D6561737572652042650E
:10199000640052656D6F7665207368696D00506CE8
:1019A000616365207368696D20756E646572206E71
:1019B0006F7A7A6C65004D65736820506F696E743C
:1019C000204D656173757265642061743A20000A68
:1019D0004D657368206F6E6C7920706172746961F7
:1019E0006C6C7920706F70756C617465642E0A0080
:1019F000506C616365205368696D2026204D6561D8
:101A000073757265004D6F76696E6720746F206E16
:101A1000657874004D6573682045646974696E6704
:101A20002053746F7070656400446F6E6520456468
:101A30006974696E67204D6573680A00446F6E654E
:101A40002045646974696E67204D65736800466956
:101A50006E652054756E696E67204D657368002849
:101A6000582C5929206F75747369646520707269E8
:101A70006E7461626C65207261646975732E0A0010
:101A80004F6666736574206F7574206F6620626F91
:101A9000756E64732E20283020746F2031306D6D88
:101AA000290A0A00496E76616C6964206D617020B4
:101AB000747970652E0A0A003F43616E27742061B5
:101AC0006374697661746520616E64206465616326
:101AD000746976617465206174207468652073612F
:101AE0006D652074696D652E0A0A00426F74682066
:101AF0005820262059206C6F636174696F6E7320C3
:101B00006D757374206265207370656369666965BD
:101B1000642E0A0A00473239204A20616374696FD3
:101B20006E20726571756972657320612070726FC5
:101B300062652E0A0A003F28502968617365207685
:101B4000616C756520696E76616C69642028302D42
:101B500036292E0A0A004732392050312072657129
:101B6000756972657320612070726F62652E0A0A52
:101B7000003F2856296572626F7365206C65766533
:101B80006C20696D706C61757369626C65202830BA
:101B90002D34292E0A0A003F285229657065746980
:101BA00074696F6E20636F756E7420696E76616CF8
:101BB00069642028312B292E0A0A00446F696E6758
:101BC0002047323900646F6E650A00496E7375668E
:101BD00066696369656E7420646174610A004578A2
:101BE000747261706F6C6174696E67206D65736883
:101BF0002E2E2E005072696E74696E67204F626AD5
:101C0000656374002553202569002F2F6163746973
:101C10006F6E3A004D6F74696F6E0047323920570E
:101C2000004F75747075742055424C20496E666F74
:101C30000055424C20546F6F6C73004F7574707573
:101C400074204D657368204D6170004D6573682088
:101C500053746F72616765004D65736820456469F0
:101C60007400537465702D42792D5374657020553E
:101C7000424C0047323920410041637469766174F7
:101C8000652055424C004732392044004465616369
:101C90007469766174652055424C001FE03FF03F47
:101CA000F03FF01FE01FE03FF03FF03FF00FC007B4
:101CB0008003001FE0201020102010102010202092
:101CC00010201030300840048003009B1C9B1CB384
:101CD0001CB31C01FF000618C0081F20101F901421
:101CE0001F102E1E082F1C082FB8083FFC083FFFAE
:101CF000F8207FF8203BE82071E820F0E811F05050
:101D000013F01009F0200630C001FF0001FF0006AB
:101D100030C009F02011F01010F01020F0682031D0
:101D2000E82039E8207FF83FFFF83FFC082F38080B
:101D30002E18082C1E08101E10101F10081F200639
:101D400018C001FF0001FF000600C0090120178331
:101D5000D01783D02FC7E827C7C821FF08207C08E9
:101D6000207C08207C0821FF0827C7C82FC7E81758
:101D700083D01783D00901200600C001FF00FFFFB8
:101D8000C0400020200010100008080004040002D9
:101D900003FFFF0222000444000444000222000169
:101DA0001100FFFFC04088A0211110122208080076
:101DB0000404000203FFFF4C6F6164206D6D005549
:101DC0006E6C6F6164206D6D00416476616E636559
:101DD000204B202A00200820466163740020082040
:101DE0004D6178002008204D696E004175746F7454
:101DF000656D700066696C616D656E74007A5F6D0B
:101E0000696E00795F6D696E00785F6D696E005272
:101E100065706F7274696E6720656E6473746F703D
:101E2000207374617475730A0020436F756E74209B
:101E3000583A005761726E696E673A20486F6D6953
:101E40006E672042756D702044697669736F7220E9
:101E50003C20310A0000007F4300007F4300007AED
:101E600043000020C100000000000000000000202E
:101E70004200002042000080400202020000A04018
:101E80000000A0400000A0400080844300007F4389
:101E900000007A43FFFFFF00000001000000010086
:101EA000008000555555000000400033333300AA30
:101EB000AA2A004992240000002000C7711C009942
:101EC000991900D1451700555515003BB113002451
:101ED00049120011111100000010000F0F0F00E354
:101EE000380E0043790D00CCCC0C00C3300C00E858
:101EF000A20B0064210B00AAAA0A00703D0A009DF3
:101F0000D80900427B090092240900DCD30800882C
:101F10008808001042080000000800F0C107008790
:101F200087070075500700711C07003EEB0600A1F3
:101F3000BC06006990060066660600703E060061F9
:101F400018060017F4050074D105005BB00500B257
:101F5000900500627205005555050078390500B8F6
:101F60001E0500050505004EEC040087D40400A101
:101F7000BD040090A7040049920400C17D0400EE56
:101F8000690400C7560400444404005C320400089D
:101F900021040041100400000004003FF00300F899
:101FA000E0030026D20300C3C30300CCB503003A0C
:101FB000A803000A9B0300388E0300C08103009F22
:101FC000750300D0690300505E03001D5303003405
:101FD000480300913D030033330300162903003802
:101FE0001F030097150300300C0300030303000BCD
:101FF000FA020049F10200BAE802005CE002002D9A
:10200000D802002DD0020059C80200B0C002003131
:10201000B90200DAB10200AAAA0200A0A30200BC21
:102020009C0200FA9502005C8F0200DF88020082A9
:10203000820200457C0200277602002770020043DE
:102040006A02007C640200D05E02003F590200C8B0
:1020500053020020746F6F206C6F6E672065787478
:10206000727573696F6E2070726576656E746564E3
:102070000A0020636F6C6420657874727573696FF1
:102080006E2070726576656E7465640A00206279F0
:102090007465733B20637263200053657474696ECA
:1020A00067732053746F7265642028004E6F20455B
:1020B0004550524F4D2E0A00454550524F4D206419
:1020C00061746173697A65206572726F722E0A009D
:1020D0003F4D65736820746F6F2062696720666F7B
:1020E0007220454550524F4D2E0A0055424C2072E9
:1020F000657365740A00206C6F61646564206672A4
:102100006F6D2073746F726167652E0A004D657381
:102110006820003F43616E277420656E61626C65C4
:1021200020002073746F7265642073657474696E27
:102130006773207265747269657665642028002073
:102140002863616C63756C6174656429210A0020E1
:10215000213D2000454550524F4D20435243206DB4
:1021600069736D61746368202D202873746F7265C4
:1021700064292000496E6465783A2000204D617220
:102180006C696E3D563734290A00454550524F4D13
:102190002076657273696F6E206D69736D6174630B
:1021A000682028454550524F4D3D004572723A20F7
:1021B0007574663820666F6E74206E6F7420696E59
:1021C000697469616C697A65642E002568753A25C1
:1021D0003032687500256875642025303268753A9C
:1021E000253032687500000C0D00FE07022603BC86
:1021F000017FFE08FE08FE05080806000040F0C842
:102200008888987810050808060000C0F888888833
:102210008888F80505050600012030F830200508FB
:10222000080600002070F820202020E0050909069B
:1022300000FF2070A8A8B888887020050606060050
:1022400001E08CEA8C8A0A0509090600FFF8A888D3
:1022500088888888A8F8050A0A0600FE2050505091
:102260005088A8A8887003030306000340A040FF1D
:10227000FFFFFFFFFFFFFFFFFFFFFFFFFFFFFFFF6E
:10228000FFFFFFFFFF0000000605FF010707060232
:102290000080808080800080030303060105A0A0E9
:1022A000A005060606000050F85050F85005090930
:1022B0000600FF2070A8A07028A870200507070658
:1022C0000000C8C810204098980507070600004085
:1022D000A0A040A890680103030602058080800347
:1022E00009090601FF20404080808040402003090A
:1022F000090601FF8040402020204040800507075C
:1023000006000020A8702070A82005050506000121
:102310002020F820200203030601FFC040800501B1
:1023200001060003F8020202060100C0C00507070B
:102330000600000810102040408005070706000036
:10234000708898A8C8887003070706010040C0403D
:10235000404040E005070706000070880810204054
:10236000F8050707060000F8081030088870050710
:102370000706000010305090F810100507070600FF
:1023800000F880F008088870050707060000304054
:1023900080F0888870050707060000F808101020F4
:1023A000202005070706000070888870888870055F
:1023B0000707060000708888780810600205050687
:1023C0000100C0C000C0C00206060601FFC0C00078
:1023D000C040800305050601012040804020050320
:1023E00003060002F800F8030505060101804020FD
:1023F0004080050707060000708810202000200597
:1024000007070600007088B8A8B88070050707069F
:102410000000708888F8888888050707060000F0A3
:102420004848704848F0050707060000708880801B
:10243000808870050707060000F04848484848F0C3
:10244000050707060000F88080F08080F805070780
:10245000060000F88080F0808080050707060000F5
:102460007088808098887005070706000088888833
:10247000F8888888030707060100E0404040404094
:10248000E0050707060000381010101090600507DF
:10249000070600008890A0C0A090880507070600E6
:1024A00000808080808080F805070706000088D8BB
:1024B000A8888888880507070600008888C8A89823
:1024C0008888050707060000708888888888700556
:1024D0000707060000F08888F0808080050707065F
:1024E000000070888888A89068050707060000F03B
:1024F0008888F0A090880507070600007088807023
:10250000088870050707060000F8202020202020FA
:1025100005070706000088888888888870050707EF
:1025200006000088888888505020050707060000AC
:1025300088888888A8A85005070706000088885062
:102540002050888805070706000088885020202032
:1025500020050707060000F80810204080F803094E
:10256000090601FFE080808080808080E005070709
:10257000060000804040201010080309090601FFF2
:10258000E020202020202020E00503030600052075
:1025900050880501010600FEF803030306010580CB
:1025A00040200505050600007008788878050707B3
:1025B0000600008080F0888888F005050506000088
:1025C00070808088700507070600000808788888F2
:1025D00088780505050600007088F08070050707FB
:1025E000060000304840E04040400507070600FE76
:1025F000708888887808700507070600008080F0DA
:10260000888888880307070601004000C0404040D2
:10261000E00409090601FE1000301010101090604F
:1026200005070706000080808890E0908803070770
:10263000060100C04040404040E00505050600009E
:10264000D0A8A8A8A8050505060000B0C8888888F5
:1026500005050506000070888888700507070600D4
:10266000FEF0888888F080800507070600FE7888DD
:102670008888780808050505060000B0C8808080B5
:1026800005050506000078807008F00507070600BC
:10269000002020F820202018050505060000888865
:1026A000889868050505060000888888502005057B
:1026B000050600008888A8A85005050506000088C2
:1026C000502050880507070600FE88888850204063
:1026D00080050505060000F8102040F803090906EA
:1026E00001FF20404040804040402001090906028F
:1026F000FF8080808080808080800309090601FF40
:1027000080404040204040408005030306000248CE
:10271000A890FF4C6F61642046696C616D656E74B2
:10272000202A00556E6C6F61642046696C616D658E
:102730006E74202A0052756E6F75742053656E7327
:102740006F7200554E4C4F41442046494C414D4517
:102750004E540046494C414D454E54204348414E4D
:102760004745004732380A47323920503420523228
:1027700035350A47323920410A4D3530300047326D
:10278000392050340A4D353030004D333033205528
:102790003120453020533235302043380A4D353012
:1027A00030004D33303320553120452D3120533901
:1027B000302043380A4D353030004D393030204B11
:1027C000300A4D353030004D393030204B302E320C
:1027D0000A4D353030004D393030204B302E330A21
:1027E0004D353030004D393030204B302E340A4DCD
:1027F000353030004D393030204B302E350A4D35D4
:102800003030004D393030204B302E360A4D3530C7
:1028100030004C696E20416476204B302E34004CE1
:10282000696E20416476204B302E33004C696E2057
:10283000416476204B302E32004C696E2041647624
:10284000204F66660050494474756E652042656489
:10285000004C696E20416476204B302E3500504983
:102860004474756E6520486F74656E640041646AD7
:1028700075737420506F696E74204E656172004CE0
:10288000696E20416476204B302E36004D616E75A6
:10289000616C2055424C004D373032205425640085
:1028A0004D36303020423020542564004D373032D0
:1028B000203B2564004D3730312054256400556E8F
:1028C0006C6F61642046696C616D656E74004C6F5D
:1028D00061642046696C616D656E74005072656854
:1028E00065617420437573746F6D004D3630302010
:1028F000423020542569004D37303120542569007D
:102900004D37303220542569004D37303200556E36
:102910006C6F616420416C6C004368616E67652078
:1029200046696C616D656E74202A0050757267652A
:10293000206D6F726500524553554D45204F5054E0
:10294000494F4E533A005052494E5420504155532E
:1029500045440020204E6F7A7A6C653A2000446925
:1029600066663A200046726F6D5374703A00537475
:1029700065707065723A00556E4C6576656C3A000C
:102980004C6576656C65643A005261773A20202088
:1029900020000A4C6F676963616C3A00436F756E83
:1029A0007420453A004361703A004D302F31204287
:1029B0007265616B2043616C6C656400436C696394
:1029C0006B20746F20526573756D652E2E2E006519
:1029D0006E7175657565696E672022006F6B0052B8
:1029E0006573656E643A200042656420436F6F6CC6
:1029F000696E672E2E2E00426564204865617469F9
:102A00006E672E2E2E0023646566696E6520444530
:102A10004641554C545F004B6420004B6920004BED
:102A2000702000504944204175746F74756E6520A4
:102A300066696E69736865642120507574207468D6
:102A400065206C617374204B702C204B6920616E83
:102A500064204B6420636F6E7374616E74732066C0
:102A6000726F6D2062656C6F7720696E746F2043A2
:102A70006F6E66696775726174696F6E2E680A00A1
:102A8000504944204175746F74756E6520666169A4
:102A90006C6564212074696D656F75740A000A2085
:102AA000436C617373696320504944200A00204BD2
:102AB000643A2000204B693A2000204B703A2000F5
:102AC0000A204E6F206F76657273686F6F740A000C
:102AD0002054753A2000204B753A2000206D617813
:102AE0003A2000206D696E3A200020643A200020D0
:102AF000626961733A2000504944204175746F74D3
:102B0000756E652073746172740A005049442041E7
:102B100075746F74756E65206661696C65642120DB
:102B200054656D706572617475726520746F6F2085
:102B3000686967680A00504944204175746F74756C
:102B40006E65206661696C65642120426164206560
:102B500078747275646572206E756D6265720A00B4
:102B60006563686F3A004572726F723A0020204DBB
:102B70003432312049002020473239204939390A7E
:102B8000006163746976650A002053797374656D1A
:102B90002076312E303120002020207C0A004E414A
:102BA0004E0020202E20202000207C004C43443A60
:102BB0000A004353563A0A0020666F7220003A0A10
:102BC0000A000A42656420546F706F677261706812
:102BD00079205265706F727400446F6E652E0A0022
:102BE0003F496E76616C69642073746F72616765CA
:102BF00020736C6F742E0A3F557365203020746FFC
:102C000020004732392050322066696E697368654A
:102C1000642E0A005859206F7574736964652070BA
:102C200072696E7461626C65207261646975732E7D
:102C30000A003F4572726F7220696E204275736997
:102C40006E6573732043617264206D656173757284
:102C5000656D656E742E0A004D616E75616C6C79E0
:102C60002070726F62696E6720756E72656163684D
:102C700061626C65206D657368206C6F6361746957
:102C80006F6E732E0A004D657368207A65726F65EA
:102C9000642E0A0044656661756C742073746F72EB
:102CA00061676520736C6F7420302073656C656399
:102CB0007465642E0A004C6F6164696E67207465E8
:102CC00073745F7061747465726E2076616C756583
:102CD000732E0A0A00496E76616C6964207465730C
:102CE000745F7061747465726E2076616C75652EA8
:102CF00020282D3120746F2032290A0A004C6F637E
:102D00006174696F6E7320696E76616C6964617459
:102D100065642E0A0A00456E74697265204D6573FC
:102D20006820696E76616C6964617465642E0A0A54
:102D3000005374616E6461726420446576696174E5
:102D4000696F6E3A20004D65616E204D6573682095
:102D50004865696768743A200023206F66207361B4
:102D60006D706C65733A20006F70656E20666169E6
:102D70006C65642C2046696C653A2000220A005577
:102D80006E6B6E6F776E20636F6D6D616E643A204F
:102D90002200544845524D414C2052554E41574116
:102DA0005900546865726D616C2052756E6177616F
:102DB0007900706F7765726F666600506C6561733D
:102DC00065205265736574005052494E5445522037
:102DD00048414C5445440025533A202553004B4963
:102DE0004C4C45442E20005072696E746572206808
:102DF000616C7465642E206B696C6C28292063619A
:102E00006C6C6564210A0024F4D43050C38E20C257
:102E1000A24017828B7011127A910D816CD90AA889
:102E200061E108C7586607615143061E4B5D05C145
:102E300045A7041A411104093D9803713931034033
:102E400036DB0265339102D4305402802E1D0263BA
:102E50002CEE01752AC501B028A001102781018F31
:102E60002564012B244B01E0223401AC211F018D8C
:102E7000200D01801FFC00841EED00971DDF00B8AF
:102E80001CD200E61BC600201BBC00641AB200B2B4
:102E900019A8000A19A0006A189900D117910040DA
:102EA000178B00B516840031167E00B31579003AF1
:102EB000157300C7146F0058146A00EE136600887B
:102EC00013630025135E00C7125B006C12570015D8
:102ED000125400C111510070114F0021114B00D646
:102EE0001049008D1047004610440002104200C0F7
:102EF0000F4000800F3E00420F3C00060F3B00CB0E
:102F00000E3800930E37005C0E3500270E3400F3A8
:102F10000D3200C10D3100900D3000600D2E0032D9
:102F20000D2D00050D2C00D90C2B00AE0C290085B1
:102F30000C29005C0C2700350C27000E0C2600E83D
:102F40000B2400C40B2400A00B23007D0B23005A8C
:102F50000B2100390B2100180B2000F80A1F00D9A3
:102F60000A1E00BB0A1E009D0A1D00800A1D006388
:102F70000A1C00470A1B002C0A1B00110A1A00F742
:102F8000091A00DD091900C4091900AB09190092DA
:102F90000917007B091800630917004C0916003651
:102FA000091600200916000A091500F5081500E0A9
:102FB000081400CC081400B8081400A408140090E9
:102FC0000813007D0812006B081300580812004611
:102FD0000812003408110023081100120811000122
:102FE000081100F0071000E0071000D0071000C023
:102FF000071000B0070F00A107100091070E008313
:10300000070F0074070F0065070E0057070E0049F1
:10301000070E003B070D002E070E0020070D0013C2
:10302000070D0006070D00F9060C00ED060D00E087
:10303000060C00D4060C00C8060C00BC060C00B040
:10304000060C00A4060B0099060C008D060B0082EE
:10305000060B0077060B006C060B0061060A005792
:10306000060B004C060A0042060A0038060A002E2B
:10307000060A0024060A001A060A001006090007BC
:10308000060A00FD050900F4050900EB050900E248
:10309000050900D9050900D0050900C7050900BECA
:1030A000050900B5050800AD050800A50509009C47
:1030B000050800940508008C050800840508007CBC
:1030C000050800740508006C050700650508005D2B
:1030D000050700560508004E050700470507004094
:1030E00005080038050700310507002A05070023F9
:1030F0000507001C050600160507000F0507000858
:1031000005060002050700FB040600F5040700EEB3
:10311000040600E8040600E2040700DB040600D50C
:10312000040600CF040600C9040600C3040600BD5F
:10313000040600B7040600B1040500AC040600A6AE
:10314000040600A00405009B0406009504050090F9
:103150000406008A04050085040500800406007A40
:1031600004050075040500700405006B0405006685
:10317000040500610405005C0405005704050052C5
:103180000405004D04050048040500430405003E05
:103190000404003A04050035040500300404002C42
:1031A00004050027040400230405001E0404001A7B
:1031B00004040016040500110404000D04040009B1
:1031C0000405000404040000040400FC030400F8E7
:1031D000030400F4030400F0030400EC030400E81B
:1031E000030400E4030400E0030400DC030400D84B
:1031F000030400D4030400D0030400CC030400C87B
:10320000030300C503030024F404D9201BC40C5C91
:103210000E9804C4095F0265077101F405F900FB0B
:1032200004B30048048700C1036900580355000334
:10323000034500BE023A008402310053022A0029ED
:1032400002250004022000E4011C00C8011900AF9F
:10325000011700980114008401130071011000612E
:1032600001100051010E0043010D0036010B002B2F
:10327000010B0020010B00150109000C01090003DE
:10328000010800FB000800F3000800EB000700E461
:10329000000600DE000600D8000600D2000600CCC2
:1032A000000500C7000500C2000500BD000400B90C
:1032B000000400B5000400B1000400AD000400A942
:1032C000000400A5000300A20003009F0004009B6F
:1032D0000003009800030095000200930003009093
:1032E0000003008D0002008B0003008800020086AE
:1032F00000020084000300810002007F0002007DC4
:103300000002007B000200790002007700010076D5
:103310000002007400020072000100710002006FE0
:103320000002006D0001006C0002006A00010069EB
:1033300000020067000100660001006500010064F2
:103340000002006200010061000100600001005FF6
:103350000002005D0001005C0001005B0001005AFA
:1033600000010059000100580001005700010056FB
:1033700000010055000100540001005300000053FB
:103380000001005200010051000100500001004FF7
:103390000001004E0000004E0001004D0001004CF5
:1033A0000001004B0000004B0001004A00010049F1
:1033B00000010048000000480001004700010046ED
:1033C00000000046000100450000004500010044E7
:1033D00000010043000000430001004200000042E1
:1033E0000001004100000041000100400001003FD9
:1033F0000000003F0001003E0000003E0001003DD3
:103400000000003D0001003C0000003C0000003CCA
:103410000001003B0000003B0001003A0000003AC0
:1034200000010039000000390001003800000038B8
:1034300000000038000100370000003700010036AE
:1034400000000036000000360001003500000035A5
:10345000000000350001003400000034000000349A
:10346000000100330000003300000033000100328F
:103470000000003200000032000100310000003185
:10348000000000310001003000000030000000307A
:103490000001002F0000002F0000002F0000002F6F
:1034A0000001002E0000002E0000002E0001002D63
:1034B0000000002D0000002D0000002D0001002C58
:1034C0000000002C0000002C0000002C0001002B4C
:1034D0000000002B0000002B0000002B0001002A40
:1034E0000000002A0000002A0000002A0001002934
:1034F0000000002900000029000000290000002928
:10350000000100280000002800000028000000281A
:10351000000000280001002700000027000000270D
:103520000000002700000027000100260000002600
:1035300000000026000000260000002600010025F3
:1035400000000025000000250000002500000025E7
:1035500000000025000100240000002400000024D9
:1035600000000024000000240001002300000023CC
:1035700000000023000000230000002300000023BF
:1035800000000023000100220000002200000022B1
:1035900000000022000000220000002200010021A3
:1035A0000000002100000021000000210000002197
:1035B0000000002100000021000100200000002088
:1035C000000000200000002000000020000000207B
:1035D00000000020000000200001001F0000001F6C
:1035E0000000001F0000001F0000001F0000001F5F
:1035F0000000001F0001001E0000001E0000001E51
:103600000000001E000000232C0000B8220000561D
:103610001800003A0F0000B8080000B10400007163
:103620000200003E01000054656D706572617475A2
:10363000726500507265686561742050455447009A
:103640005072656865617420504C41004D61696E2F
:103650000050726568656174205045544720416C84
:103660006C00507265686561742050455447204570
:103670006E64207E00507265686561742050455408
:10368000472042656400507265686561742050454A
:103690005447207E00436F6F6C646F776E00466105
:1036A0006E205370656564203D004E6F7A7A6C65BC
:1036B000207E004261627973746570205A00466C06
:1036C0006F77207E00466C6F77007C3C3E5E2B3D22
:1036D0003F2F5B5D3B2C2A225C004F6E004D6F76C6
:1036E000652025736D6D004D6F766520302E316D30
:1036F0006D004D6F766520316D6D004D6F766520E4
:1037000031306D6D00486F74656E6420746F6F208A
:10371000636F6C64004578747275646572202A006A
:103720004578747275646572004D6F7665205A0035
:103730004D6F76652059004D6F7665205800536FA8
:10374000667420456E6473746F7073004D38340076
:1037500044697361626C652053746570706572733F
:10376000004C6576656C20436F726E65727300471E
:103770003238205A00486F6D65205A004732382091
:103780005900486F6D65205900473238205800486D
:103790006F6D652058004175746F20486F6D65002E
:1037A0004D6F766520417869730050726568656178
:1037B0007420504C4120416C6C005072656865610A
:1037C0007420504C4120456E64207E005072656824
:1037D00065617420504C41204265640050726568F8
:1037E00065617420504C41207E004D3130392053AA
:1037F0002569004D31393020532569004D657368C6
:1038000020456469746F72004265642054656D7070
:1038100000486F74656E642054656D7000473239DE
:103820002050362043202D00486569676874204188
:103830006D6F756E740041646A757374204D6573A5
:103840006820486569676874004732392050342021
:10385000540046696E652054756E6520436C6F7325
:10386000657374004732362043204225692048257D
:103870006920500056616C696461746520437573FA
:10388000746F6D204D657368004732380A473236D1
:1038900020432042373020483235302050005661D6
:1038A0006C6964617465204D6573682028504554C7
:1038B0004729004732380A47323620432042363003
:1038C000204832303020500056616C696461746564
:1038D000204D6573682028504C412900473239201B
:1038E0004A2569004C6576656C204D657368005308
:1038F00069646520506F696E747300477269642053
:103900004D657368204C6576656C696E670047325B
:1039100039204A3000332D506F696E74204C657623
:10392000656C696E6700473239205033205220435E
:103930002E2569004D616E75616C2046696C6C2D99
:10394000696E0046696C6C2D696E20416D6F756EF5
:1039500074004D65736820696E76616C696461748A
:1039600065642E0A0000FE0003FF8007C7C0070140
:10397000E00000E00000F00000700400700E007035
:103980001F00703F80F00E00E00F01E007C7C0038A
:10399000FF8000FE0000FE0003FF8007C7C00F018C
:1039A000E00E00E03F80F01F00700E007004007019
:1039B0000000700000F00000E00701E007C7C0034E
:1039C000FF8000FE000E000E000E000E000E000E26
:1039D000000E000E007FC03F801F000E0004000498
:1039E000000E001F003F807FC00E000E000E000E74
:1039F000000E000E000E000E00FFFFFF7F80FFC0D4
:103A0000FFC0FFC07F807F80FFC0FFC0FFC03F00BE
:103A10001E000C005072696E742066726F6D204D2E
:103A2000656469610044697361626C6552756E6FAB
:103A3000757400496E736572742066696C616D659A
:103A40006E7420616E642073656E64204D31303871
:103A50000A00486F6D65202573257325732046691C
:103A600072737400626567696E0050757267654DA8
:103A70006F726500436F6E74696E7565004C6F619F
:103A8000642046696C616D656E74205400000021ED
:103A900000240027002A002D00300033000101001F
:103AA00000040107010A0100002200250028002B64
:103AB000002E003100340002010000050108010B56
:103AC00001000020002300260029002C002F0032D6
:103AD00000000100000301060109010505050507B5
:103AE0000508080808020202020A0A080804040479
:103AF00004010101010101010103030303030303A5
:103B000003040707070C0C0C0C0C0C0C0C02020233
:103B10000206060606060606060B0B0B0B0B0B0B26
:103B20000B010210202008081020401020408002C5
:103B300001020108040201010204081020408080F3
:103B40004020100804020180040201804020100877
:103B5000040201080402010102040810204080014F
:103B60000204081020408000000A0B02090C0D0E10
:103B7000080703040100000000000000000000002E
:103B80000000000000000000000000000000000035
:103B900000000012111000000000000000000000F2
:103BA0000000000000000000000000000020536939
:103BB0007A653A200043616E6E6F74206F70656E97
:103BC00020737562646972200053442063617264DB
:103BD000206F6B0A006F70656E526F6F74206661A4
:103BE000696C65640A00766F6C756D652E696E6927
:103BF00074206661696C65640A00534420696E69CB
:103C000074206661696C0A004D32332025730046CA
:103C1000696C652073656C65637465640A00466948
:103C20006C65206F70656E65643A2000454E4420D7
:103C3000535542524F5554494E450A002220706F49
:103C400073002220706172656E743A2200535542EF
:103C5000524F5554494E452043414C4C207461729B
:103C60006765743A2200747279696E6720746F20F8
:103C700063616C6C207375622D67636F6465206689
:103C8000696C6573207769746820746F6F206D614B
:103C90006E79206C6576656C732E204D4158206CD2
:103CA0006576656C2069733A310A005772697469E8
:103CB0006E6720746F2066696C653A200044656CFD
:103CC0006574696F6E206661696C65642C20466955
:103CD0006C653A200046696C652064656C657465A6
:103CE000643A005344207072696E74696E67206292
:103CF00079746520004E6F74205344207072696E91
:103D000074696E670A00667265736800646F696E35
:103D100067004E6F7720004F7574616765205265AC
:103D2000636F76657279004261636B004368616E10
:103D300067652046696C616D656E7400436F6E66E1
:103D4000696775726174696F6E003F0043616E63ED
:103D5000656C004D313030300053746F70205072FC
:103D6000696E7400526573756D65205072696E746A
:103D70000053746F70004D3231004368616E6765A7
:103D8000204D65646961004175746F73746172746C
:103D90000054756E65004E6F204D65646961005377
:103DA00074617274205072696E740043616E6E6F3C
:103DB0007420656E746572207375626469723A204E
:103DC00000022E2E005061726B696E672E2E2E003F
:103DD00000005761697420666F720066696C616DDE
:103DE000656E74206368616E676500746F2073741C
:103DF000617274005761697420666F720066696C45
:103E0000616D656E7420756E6C6F616400004E6F3D
:103E10007A7A6C652068656174696E6700506C65BC
:103E200061736520776169742E2E2E0000507265D3
:103E3000737320627574746F6E00746F20686561AF
:103E400074206E6F7A7A6C650000496E73657274C7
:103E50002066696C616D656E7400616E64207072BD
:103E600065737320627574746F6E00746F20636F76
:103E70006E74696E7565005761697420666F7200B3
:103E800066696C616D656E74206C6F6164000050D2
:103E90007265737320427574746F6E00746F207254
:103EA0006573756D65207072696E74000057616985
:103EB0007420666F72207072696E7400746F207265
:103EC0006573756D652E2E2E00005761697420662E
:103ED0006F720066696C616D656E742070757267D3
:103EE00065000002687474703A2F2F6D61726C69FE
:103EF0006E66772E6F7267004275696C6420343588
:103F000037004D313030302053002020506C616E2E
:103F10006E657242756666657242797465733A20A1
:103F2000002046726565204D656D6F72793A2000FC
:103F3000436F6D70696C65643A204465632033316A
:103F400020323031390A00204C617374205570647E
:103F5000617465643A20323031392D31322D313976
:103F6000207C20417574686F723A202856657274FF
:103F700061627265616B6572290A004275696C64E1
:103F8000203435370A004D61726C696E0020536F22
:103F90006674776172652052657365740A002057F4
:103FA00061746368646F672052657365740A0020EA
:103FB00042726F776E206F75742052657365740A54
:103FC000002045787465726E616C2052657365746B
:103FD0000A00506F77657255700A006175746F251D
:103FE000632E6700473237006572726F72207772F6
:103FF0006974696E6720746F2066696C650A004495
:104000006F6E6520736176696E672066696C652ED8
:104010000A004D32390025532025632025632025D1
:104020006320256300205A3A0020593A00656E64E7
:1040300073746F7073206869743A20001FFFFFFF6C
:10404000FFFFFF600000000001FF400000000000D3
:10405000FF8000000000007F83CF00000C303F870E
:10406000FF80000C301F867980000C000F8C30C759
:10407000838C30E78C30CFC7CC31F38C30DCECEC68
:1040800033B98C30D86C6C33198C30D06C0C33193C
:104090008C30D86C0C33198C30DC6C0E3B198C30A6
:1040A000CF7C079F198C30C77C038F19400000001C
:1040B000000002600000000000061FFFFFFFFFFF7E
:1040C000F8496E76616C6964206578747275646510
:1040D000720A004572723A204D415854454D5000C5
:1040E0004D415854454D502074726967676572653B
:1040F00064004572723A204D494E54454D50004D72
:10410000494E54454D502074726967676572656405
:10411000004D3834204500202F0020400020424030
:104120003A0020403A0020573A00416374697665AE
:104130002045787472756465723A200070012C0114
:1041400090012701B0012201C0011D01F0011801F9
:104150001002130130020E016002090190020401F5
:10416000C002FF000003FA004003F5008003F000E6
:10417000D003EB002004E6007004E100E004DC0062
:104180004005D700C005D2004006CD00D006C800CB
:104190008007C3003008BE00F008B900C009B400B1
:1041A000B00AAF00B00BAA00D00CA500000EA00012
:1041B000500F9B00C01096005012910000148C000C
:1041C000C0158700B0178200B0197D00D01B7800A1
:1041D000001E730040206E0090226900F0246400ED
:1041E00040275F0090295A00E02B5500102E500008
:1041F00020304B0010324600E033410090353C0047
:104200001037370070383200A0392D00B03A28003E
:10421000A03B2300603C1E00103D1900903D14009F
:10422000103E0F00703E0A00C03E0500003F000037
:10423000403FFBFF803FF6FFC03FF1FF204A0020D8
:104240005200454550524F4D20496E697469616C6A
:10425000697A65640A004D657368207361766564E8
:1042600020696E20736C6F7420003F556E61626C24
:104270006520746F2073617665206D6573682064B6
:104280006174612E0A0020736C6F743D00206D65AF
:10429000736865735F656E643D004532454E443D0D
:1042A00000206D65736820736C6F74732061766194
:1042B000696C61626C652E0A003F496E76616C69BB
:1042C0006420736C6F742E0A004D657368206C6FE8
:1042D000616465642066726F6D20736C6F7420007A
:1042E0003F556E61626C6520746F206C6F61642055
:1042F0006D65736820646174612E0A0048617264A0
:10430000636F6465642044656661756C74205365F1
:104310007474696E6773204C6F616465640A002071
:10432000286D6D29002028696E2900466168726534
:104330006E686569740043656C73697573004B65DD
:104340006C76696E00556E696669656420426564C5
:10435000204C6576656C696E670020204D363033E1
:10436000200020204D34313220530046696C616DAD
:10437000656E742072756E6F75742073656E736FE1
:10438000723A0A0020204D343235204600426163E3
:104390006B6C61736820636F6D70656E73617469B7
:1043A0006F6E3A0A00546F6F6C2D6368616E6769B7
:1043B0006E673A0A005431204C00205500543020DA
:1043C0004C0046696C616D656E74206C6F61642F82
:1043D000756E6C6F6164206C656E677468733A0A01
:1043E0000020204D3930302054004C696E656172D8
:1043F00020416476616E63653A0A0020204D3835AD
:1044000032204900536B657720466163746F723ABE
:10441000200A0020204D343133205300506F77653F
:10442000722D4C6F7373205265636F766572793AA3
:104430000A0020204D33303420500020204D3330EE
:10444000312050005049442073657474696E67735D
:104450003A0A0020480020204D3134352053004DC9
:104460006174657269616C20686561747570207033
:104470006172616D65746572733A0A00206D6573CF
:104480006865732E0A0A00454550524F4D206361FE
:104490006E20686F6C6420000A4163746976652041
:1044A0004D65736820536C6F743A200020204D34A2
:1044B000323020530020204D323138205400486FD4
:1044C00074656E64206F6666736574733A0A0020C3
:1044D000204D323035204200204A3C6A756E635FC1
:1044E0006465763E00416476616E6365643A20429D
:1044F0003C6D696E5F7365676D656E745F74696D41
:10450000655F75733E20533C6D696E5F66656564DB
:10451000726174653E20543C6D696E5F74726176A1
:10452000656C5F66656564726174653E0020204D50
:10453000323034205000416363656C657261746988
:104540006F6E2028756E6974732F7332293A20506C
:104550003C7072696E745F616363656C3E20523CAF
:10456000726574726163745F616363656C3E20544D
:104570003C74726176656C5F616363656C3E0A00D2
:1045800020204D32303120540020204D3230312057
:1045900058004D6178696D756D20416363656C6588
:1045A000726174696F6E2028756E6974732F73322F
:1045B000293A0A0020204D32303320540020204D6B
:1045C0003230332058004D6178696D756D20666515
:1045D000656472617465732028756E6974732F73D6
:1045E000293A0A0053746570732070657220756EE5
:1045F00069743A0A00203B20556E69747320696E15
:10460000200020204D3134392000203B002020475D
:104610003200486F6D696E67204661696C656400A1
:104620006F70656E0054524947474552454400003B
:10463000004843000048430000A0400000F0410053
:1046400000A0420000A0420000C8430000D7430081
:1046500000D743D0070000D007000064000000A08E
:104660000F00004469736D697373005072696E7452
:1046700020506175736564005061757365205072D8
:10468000696E74004D656469612052656D6F766571
:1046900064004D6564696120496E73657274656478
:1046A000006E6F74696669636174696F6E200033B0
:1046B00044205072696E7465722052656164792E6F
:1046C000005072696E74696E672E2E2E0063616EE3
:1046D00063656C005072696E742041626F7274651C
:1046E000640055492041626F72746564004D323533
:1046F00020500A4D323400526573756D650055497E
:1047000020506175736500726573756D6500FFFDFE
:10471000FCFAF8F6F4F2F0EEECEAE9E7E5E3E1E0C2
:10472000DEDCDAD9D7D5D4D2D0CFCDCBCAC8C7C575
:10473000C3C2C0BFBDBCBAB9B7B6B4B3B2B0AFADF7
:10474000ACAAA9A8A6A5A4A2A1A09E9D9C9A99984E
:104750009795949392908F8E8D8B8A898887868483
:10476000838281807F7E7D7B7A797877767574739A
:104770007271706F6E6D6C6B6A6968676665646391
:104780006261605F5E5D5C5B5A595858575655547C
:1047900053525150504F4E4D4C4B4A4A4948474650
:1047A00046454443424241403F3E3E3D3C3B3B3A0E
:1047B00039383837363535343332323130302F2EC0
:1047C0002E2D2C2B2B2A2929282727262525242363
:1047D0002322212120201F1E1E1D1C1C1B1B1A19F9
:1047E0001918181716161515141313121211111083
:1047F0000F0F0E0E0D0D0C0C0B0A0A090908080705
:104800000706060505040403030202010000453201
:1048100000453100626564002C2073797374656D06
:104820002073746F707065642120486561746572CF
:104830005F49443A200048656174696E67204661AB
:10484000696C65640048656174696E6720666169BA
:104850006C6564007D01950211241FBECFEFD1E28B
:10486000DEBFCDBF00E00CBF13E0A0E0B2E0E8E7A0
:10487000FCE303E00BBF02C007900D92AC39B10717
:10488000D9F72AE1ACE9B3E001C01D92A430B20728
:10489000E1F714E2CBE2D4E200E006C0219701097F
:1048A000802FFE010F94B099CA32D10780E008072B
:1048B000A9F70F94E0880D942A9E0C9400002F9283
:1048C0003F924F925F926F927F928F929F92AF92A0
:1048D000BF92CF92DF92EF92FF920F931F93CF93ED
:1048E000DF93CDB7DEB7C355D1090FB6F894DEBF5D
:1048F0000FBECDBF63968FAF63972091D40E2F96D6
:104900002FAF2F9781E08093D40E809181068D3454
:1049100009F44BC5843511F40C94F636873411F044
:104920000C94073780917F06909180068B3191051A
:1049300009F417C4A4F48430910509F4DEC01CF412
:10494000029768F12EC58431910509F400C48531C0
:10495000910509F401C40C9709F023C50DC18A32F1
:10496000910509F4AEC45CF48C31910509F413C4CB
:104970004D9709F016C50F9468040C9409378B35D0
:10498000910509F418C48C35910509F419C48A35C8
:10499000910509F006C51092BA080C940937809168
:1049A0008B02882311F40C9409371BE5A12E13E028
:1049B000B12E0BE2C02E02E0D02E85EDE82E8EE067
:1049C000F82E10E0D5018D915D010E943AFE8823FA
:1049D00049F1812F0E945F5A762E872E982E092F3B
:1049E00080912A0681111EC0812F0E943D57882385
:1049F00071F0D6012D913D914D915C91672D782DEF
:104A0000892D902F0F94B999762E872E02C0892D6B
:104A1000902F472D582DBC01F701408351836283AD
:104A200073830AC0F60180819181A281B381F7016D
:104A300080839183A283B3831F5FF4E0CF0ED11CE8
:104A400024E0E20EF11C133009F0BCCF85E40E9493
:104A50003AFE882321F183E00E945F5A7B018C019A
:104A600083E00E943D57882371F0209137023091F6
:104A700038024091390250913A02B701C8010F94AF
:104A8000B9997B0101C0C801A701BC014093E10EA7
:104A90005093E20E6093E30E7093E40E10C0809189
:104AA000370290913802A0913902B0913A02809376
:104AB000E10E9093E20EA093E30EB093E40E86E431
:104AC0000F948B4420E030E0A9010F94809B1816CE
:104AD00084F40E94E4FD20E030E040E752E40F94CB
:104AE000419A609327027093280280932902909341
:104AF0002A020E94C8AE0C94093780E50E943AFE53
:104B0000882329F00E94555F6B017C0103C0C12CF2
:104B1000D12C760183E50E943AFE882361F00E9441
:104B2000ADFD20E030E04AE754E40F941B930F946E
:104B3000BA9A6B017C010E9491CE8091B1098111DA
:104B400005C060E084ED97E00F9403750F94D24B9D
:104B5000C60ED71EE81EF91E0F94D24BDC01CB0106
:104B60008C199D09AE09BF09B7FD02C00C94093725
:104B700080E00E94934FF0CF0F94EB4681110C948C
:104B8000093760E070E080E50E942A59D82E65E080
:104B900070E083E50E942A597C01382E65E070E0C0
:104BA00084E50E942A59282E40E050E060ED70E430
:104BB00082E50E9456FE4B015C0180917A0687FFD8
:104BC00002C00C94163780917B06837011F00C9410
:104BD000163701E082E0082B1091BB08812F0E945C
:104BE000CEFE18A619A61AA61BA61CA61DA61EA6B2
:104BF0001FA618AA19AA1AAA1BAA80E090E0A0E290
:104C0000B1EC8C8F9D8FAE8FBF8F18A219A21AA204
:104C10001BA21CA21DA21EA21FA232E0D3120CC016
:104C2000011105C08DED97E00F9423008BC21C8EFF
:104C30001D8E1E8E1F8E24C000FD10C080912B0281
:104C400090912C02A0912D02B0912E028C8F9D8FFD
:104C5000AE8FBF8F88A799A7AAA7BBA701FD10C0D9
:104C600080912F0290913002A0913102B0913202D6
:104C700088A399A3AAA3BBA38CA79DA7AEA7BFA7F0
:104C80008091330290913402A0913502B0913602A6
:104C90008CA39DA3AEA3BFA388AB99ABAAABBBABC0
:104CA00081E0D81629F092E0D91609F45EC1F1C16D
:104CB00028A539A54AA55BA56C8D7D8D8E8D9F8D10
:104CC0000F94B8994B015C0120E030E0A9010F94EA
:104CD000B592882309F436C22CA53DA54EA55FA543
:104CE00068A179A18AA19BA10F94B8996B017C015D
:104CF00020E030E0A9010F94B592882309F422C284
:104D00008CE0EBE2F2E0DE01119601900D928A95C3
:104D1000E1F71CAE1DAE1EAE1FAE88E0FE01B896D8
:104D2000DE01D49601900D928A95E1F7BE01645C94
:104D30007F4FCE01C4960E94BBAB220C20E030E036
:104D4000A901C501B4010F94809B2401350187FF9F
:104D500004C077FA709477F8709420E030E0A901ED
:104D6000C701B6010F94809B87FF0AC0D701C60117
:104D7000B05828968CAF9DAFAEAFBFAF289706C096
:104D80002896CCAEDDAEEEAEFFAE2897A301920121
:104D900028966CAD7DAD8EAD9FAD28970F94B592E2
:104DA000181614F075016401A22DB0E02A96BFAF69
:104DB000AEAF2A97BD01BB0F880B990B0F94BC9225
:104DC0009B01AC01C701B6010F94419A4B015C01F4
:104DD000D12CD31408F055C100E0802F002E000C18
:104DE000990B2A96EEADFFAD2A978E179F070CF010
:104DF0005CC000FF05C09E01245E3F4F790103C0E7
:104E0000CE0188967C01A301920128966CAD7DAD00
:104E10008EAD9FAD28970F94B592402F002E000CB9
:104E2000550B660B770B1CAA1DAA1EAA1FAA1816E3
:104E3000ECF0CB01BA010F94BC92A50194010F9440
:104E40001B939B01AC0168A579A58AA59BA50F942E
:104E5000B9996CAF7DAF8EAF9FAFB7016C5F7F4FDD
:104E6000AE014C5C5F4FCE01CC961BC0CB01BA01AA
:104E70000F94BC92A50194010F941B939B01AC016C
:104E80006CA57DA58EA59FA50F94B9996CAF7DAF3C
:104E90008EAF9FAFAE014C5C5F4FBE01645C7F4F35
:104EA000C7010E9499AB0F5F98CF022D07FD5BC031
:104EB00000FF04C0DE015C967D0103C0FE01B896D0
:104EC0007F01A301920128966CAD7DAD8EAD9FADA3
:104ED00028970F94B592402F002E000C550B660BAF
:104EE000770B1CAA1DAA1EAA1FAA1816ECF0CB014C
:104EF000BA010F94BC92A50194010F941B939B01DE
:104F0000AC0168A579A58AA59BA50F94B9996CAF4A
:104F10007DAF8EAF9FAFB7016C5F7F4FAE014C5C32
:104F20005F4FCE01CC961BC0CB01BA010F94BC924F
:104F3000A50194010F941B939B01AC016CA57DA569
:104F40008EA59FA50F94B9996CAF7DAF8EAF9FAF23
:104F5000AE014C5C5F4FBE01645C7F4FC7010E9495
:104F600099AB0150A3CFD39434CF332009F4EAC0D6
:104F70008CE0EBE2F2E0DE01119601900D928A9551
:104F8000E1F71CAE1DAE1EAE1FAE88E0FE01B89666
:104F9000DE01D49601900D928A95E1F7BE01645C22
:104FA0007F4FCE01C4960E94BBAB00E0E12CF12CF8
:104FB00024961CAE1DAE1EAE1FAE2497B7010F2C5B
:104FC000000C880B990B0F94BC922CE739ED40E252
:104FD0005FE30F941B932B013C010F943C9A9B01C0
:104FE000AC01C501B4010F941B939B01AC0168A1F6
:104FF00079A18AA19BA10F94B9996CAF7DAF8EAFB7
:105000009FAFC301B2010F94089C9B01AC01C50185
:10501000B4010F941B939B01AC016C8D7D8D8E8D23
:105020009F8D0F94B9996CAB7DAB8EAB9FABAE01EE
:10503000405C5F4FBE01645C7F4FCE01C4960E940E
:1050400099ABFFEFEF1AFF0A2AE0E216F10409F02C
:10505000AFCF0F5F031508F4A9CF1CAE1DAE1EAE77
:105060001FAE88E0FE01B896DE01D49601900D9245
:105070008A95E1F7BE01645C7F4FCE01C4960E9421
:10508000BBAB1CAA1DAA1EAA1FAABE016C5C7F4F47
:1050900055C08CE0EBE2F2E0DE01119601900D923A
:1050A0008A95E1F71CAE1DAE1EAE1FAE88E0FE0174
:1050B000B896DE01D49601900D928A95E1F76E01C3
:1050C00034E3C30ED11CBE01645C7F4FC6010E9455
:1050D000BBABFF24F594E79400E05601802F90E0ED
:1050E0008E159F0534F51CAE1DAE1EAE1FAE88E0BA
:1050F000FE017C96D50101900D928A95E1F7BE01E3
:10510000645C7F4FC6010E94BBAB1CAE1DAE1EAEE1
:105110001FAE88E0FE01B896D60101900D928A95E7
:10512000E1F7BE01645C7F4FC6010E94BBAB0F5F1D
:10513000D5CF1CAA1DAA1EAA1FAAB601CE01019690
:105140000E94C1AB812F0E94CEFE0C94093781E0F2
:105150000E94FDF90C94093780E00E94FDF90C943F
:1051600009370F94EB4681110C9409378CE0E4EA7F
:10517000F2E0DE01119601900D928A95E1F760E070
:1051800070E080E50E942A59BE016F5F7F4F0F9447
:1051900034700C9409378091E50E8770873011F0D8
:1051A0000C94243760E08FE40E94776881110C949E
:1051B00009370C9424378FE08093BA080C94093790
:1051C00080917E06882351F1893009F076C0EBE5A5
:1051D000CE2EE3E0DE2EFBE2EF2EF2E0FF2E312CAE
:1051E00000E010E0D6018D916D010E943AFE882307
:1051F00071F0812F0E945F5AF7016083718382836F
:105200009383133011F401E002C0332433941F5F01
:10521000F4E0EF0EF11C143029F744C06BE5C62E04
:1052200063E0D62E7BE2E72E72E0F72E312C00E011
:1052300010E0D6018D916D010E943AFE882361F144
:10524000812F0E945F5A4B015C01F701208131815F
:10525000428153810F94B8992B013C012DEB37E328
:1052600046E855EB0F94809B87FD0AC02DEB37E392
:1052700046E855E3C301B2010F94B592181664F4E1
:10528000133011F401E002C033243394D7018D921E
:105290009D92AD92BC9213971F5FB4E0EB0EF11C90
:1052A000143039F6332019F00E9404AC06C00023F4
:1052B00021F087E392E00F94707C0E9406AC0C947E
:1052C000093780918B02882311F40C94093789E403
:1052D0000E943AFEE82E882321F00E94A9FDF82EB4
:1052E00001C0F12C8AE40E943AFE082F882321F0A5
:1052F0000E94A9FD182F01C010E0EE2019F0E4E093
:10530000EF1520F0002341F0153030F081E098E0F7
:105310000F9423000C94093780E1EBE2F2E0A5ED55
:10532000BEE001900D928A95E1F7EE2059F08F2DA5
:105330000E9484FE6093D50E7093D60E8093D70E94
:105340009093D80E002359F0812F0E9484FE609321
:10535000D90E7093DA0E8093DB0E9093DC0E86E408
:105360000F948B446B017C0120E030E0A9010F9485
:10537000809B18164CF420E030E040E752E4C7016F
:10538000B6010F94419A03C060E070E0CB016983DD
:105390007A838B839C83CE0101960E94A3B80C94E0
:1053A00009370F9416150C94093780917F06909158
:1053B00080068D37910509F462C60CF00EC1813567
:1053C000910509F45FC60CF07AC08A31910509F4A1
:1053D000FEC2B4F58431910509F448C294F48131D8
:1053E000910509F42FC244F4029710F00C94F3369F
:1053F0000E9427FA0C940937429709F460C60C946E
:10540000F3368731910509F456C28CF48531910544
:1054100009F44DC2469711F00C94F3360F948E4E5A
:105420008091D60A877F8093D60A0C9409378831F9
:10543000910509F459C2499709F4BEC20C94F33698
:105440008032910509F43AC3F4F48D31910509F4E1
:105450001EC384F48B31910509F4C7C24C9711F037
:105460000C94F33680917C0690917D060F94275220
:105470000C9409378E31910509F410C34F9709F444
:1054800054C30C94F3368B34910509F44EC454F490
:105490008A32910509F4F4C38934910509F413C4DF
:1054A0000C94F3368C34910509F443C48D34910582
:1054B00011F00C94F3360E9458DC0C9409378D36A9
:1054C000910509F465C40CF03FC08436910509F4D8
:1054D00034C404F58435910509F4F1C58CF48235A2
:1054E000910509F4E5C58335910511F00C94F33667
:1054F0008091BA088F7E80628093BA080C94093735
:105500008535910509F4DEC58C35910509F4F3C59F
:105510000C94F3368A36910509F4B8C454F48836ED
:10552000910509F40EC48936910509F499C40C94C7
:10553000F3368B36910509F4D6C48C36910511F4F7
:105540000C9409370C94F3368337910509F481C61E
:10555000ECF48037910511F40C94093754F48E362D
:10556000910509F4D4C48F36910509F4E1C40C9473
:10557000F3368137910509F420C58237910511F082
:105580000C94F3360E94D6FA0C94093787379105AC
:1055900009F40BC78CF48537910509F4C3C6863727
:1055A000910511F00C94F33600917C0610917D0664
:1055B00094E0F12C40E0DDC68837910509F4F8C687
:1055C0008937910511F00C94F33610926A0F1092FE
:1055D000690F0F94F6670C9409378A39F1E09F0739
:1055E00011F40C9409370CF08AC08A3D910509F436
:1055F000CFC7ECF5893C910509F456C7E4F4853929
:10560000910509F436C754F48C38910509F4F7C4B0
:105610008139910509F4D4C60C94F3368B39910580
:1056200009F407C58E3B910511F00C94F3360E94E6
:10563000E2F40C9409378D3C910509F48FC76CF4A2
:105640008B3C910509F461C78C3C910511F00C94D9
:10565000F3360E9486630C940937833D910509F463
:1056600080C7893D910509F47FC70C94F3368D32CC
:1056700031E0930711F40C94C933E4F4823E9105B0
:1056800009F4E1C754F48C3D910509F484C78D3DBC
:10569000910509F48DC70C94F3368232B1E09B0773
:1056A00011F40C946F338C32914011F40C94B43398
:1056B0000C94F3368033F1E09F0711F40C94CC3353
:1056C0007CF48E3231E0930711F40C943F348F3226
:1056D000914011F00C94F3360E947AEF0C94093744
:1056E0008336B1E09B0711F40C949A3680399140CF
:1056F00011F00C94F3360E9491CE0C9409378C3043
:10570000F2E09F0711F40C9429350CF04DC0863E51
:1057100031E0930711F40C949D341CF5843AB1E008
:105720009B0711F40C9497346CF48C39F1E09F07CB
:1057300011F40C9483348D39914011F40C94DC36BF
:105740000C94F336853A31E0930711F40C949A34B3
:10575000893A914011F00C94F3360E949A640C94AB
:105760000937863FB1E09B0711F40C940C357CF4AB
:10577000843FF1E09F0711F40C940935853F914077
:1057800011F00C94F3360F94ED6A0C940937873FAF
:1057900031E0930711F40C940F35883F914011F4D8
:1057A0000C9418350C94F3368435B3E09B0711F450
:1057B0000C94B0352CF58B35F2E09F0711F40C9466
:1057C000B3357CF48F3332E0930711F40C94313508
:1057D0008835924011F00C94F3360E940C5D0C94C5
:1057E00009378D3BB2E09B0711F40C942F368E3BAA
:1057F000924011F00C94F3360E947E5A0C940937B3
:10580000803AF3E09F0709F482C16CF48C3633E0F0
:10581000930711F40C9409378438934011F40C94D5
:1058200032360C94F336873EB3E09B0711F40C94A8
:10583000CE36883E934011F00C94F3360E945657B2
:105840000C9409378091780684FF02C00C94FC38D0
:1058500080917A0687FF02C00C94FC3880917B0609
:10586000837011F00C94FC380C94143988E398E0A0
:105870000F94230083EF9AE00F94952A8BE1E3EFD6
:10588000FAE0DE01119601900D928A95E1F760E051
:1058900070E0CE0101960F945353CE0101960E9401
:1058A000966889E298E00F9423000C9409370F94CE
:1058B000FF4E0C940937E0917C06F0917D068081C3
:1058C000882329F0803209F410823196F8CF60E005
:1058D00080917C0690917D060F947552109215056B
:1058E000109214050C94093783E50E943AFE882330
:1058F00021F00E9499FD0E9415F784E50E943AFE6E
:105900008823A9F00E9499FD6B017C010E9404DCB0
:10591000C0924B06D0924C06E0924D06F0924E0695
:10592000CD28CE28CF2819F081E080934F068091B2
:10593000E70E8823E9F080E090E0A8ECB1E48983E9
:105940009A83AB83BC831C8E1D8E1E8E1F8E18A661
:1059500019A61AA61BA620E0AE014F5F5F4FBE013D
:10596000645E7F4FCE0188960E94676B0C94093766
:105970000E947D4D882381F00F949F4E0E94A14D7F
:1059800080E399E00F94444E1092820610928306B1
:10599000109284061092850661E087E097E40E94E9
:1059A0003F7A43E656E469E478E085E00E94606B64
:1059B0000F94DD750C9409378091D60A82FF03C0DD
:1059C0008B7F8093D60A0E94675E0C940937809182
:1059D000D60A83FD02C00C94093783E50E943AFE83
:1059E00081110C941F390C94093783E40E94F1FD56
:1059F000882319F18FE598E00F94230080913A0CE9
:105A0000882391F0BE016F5F7F4F87E39CE00F9486
:105A10000C2E8E010F5F1F4FD8018D918D018823B1
:105A200039F00E94504EF8CF85E598E00F9423009E
:105A30008AE00E94504E0C94093783E50E943AFE9A
:105A4000882309F10E944768182F90E0CD970CF049
:105A50001CE31093A0030F94D24B6B017C01212F08
:105A600030E0A8EEB3E00F945F99C60ED71EE81E93
:105A7000F91EC0929C03D0929D03E0929E03F09287
:105A80009F030C9409370F941D4E0C940937809195
:105A9000D60A8E7F8093D60A0C9409378091D60A55
:105AA00083FD02C00C9409370F94FC1480917C068E
:105AB00090917D060F9468510C9409378091D60A15
:105AC00082FD0E9491CE8091D60A83FD02C00C9483
:105AD000093760E080E50E947768182F682F809171
