:100000000C942E240C945F240C945F240C945F2495
:100010000C945F240C945F240C945F240C945F2454
:100020000C945F240C945F240C945F240C945F2444
:100030000C945F240D9481500C945F240C945F24E5
:100040000C945F240D9439180C945F240C945F2455
:100050000C945F240C945F240D94DB620D94E77E76
:100060000C945F240C9450750C9446750C945F248A
:100070000C945F240C945F240C945F240C945F24F4
:100080000C945F240C945F240C945F240C945F24E4
:100090000C945F240C945F240C945F240C945F24D4
:1000A0000C945F240C945F240C945F240C945F24C4
:1000B0000C945F240C945F240C945F240C945F24B4
:1000C0000C945F240C945F240C945F240C945F24A4
:1000D0000C945F240C945F240C945F240C945F2494
:1000E0000C945F2486758C759E75AE75B675E67535
:1000F000BA75E675BE75C275E675C675CA75CE75F4
:10010000D775E675E275FDC1A2C0DBC039C2DBC0A0
:10011000DBC0DBC0DBC0DBC0DBC0DBC0DBC0DBC007
:10012000DBC0DBC0DBC0DBC0DBC0DBC0DBC0DBC0F7
:10013000DBC0DBC0DBC0DBC0DBC0DBC0DBC0DBC0E7
:10014000DBC033C2DBC0DBC0DBC0DBC0DBC0DBC07D
:10015000DBC0DBC00CC2DBC0DBC0DBC0DBC0DBC094
:10016000DBC0DBC0DBC0DBC0DBC050C2D8C0930249
:100170005D02A302BB01C302A1014301E701F10239
:10018000DD02C3013F026F01FF025101F302E302EE
:10019000B302CF018502230373017B01C50249022B
:1001A000DD01B302CD02EB015B0201020702010394
:1001B0003901F502C901190323025102D702F301E3
:1001C000CB020D030B02C901B3012D02ED0205A8FC
:1001D0004CCDB2D44EB93836A9020C50B9918688AC
:1001E000083CA6AAAA2ABE000000803F0763423648
:1001F000B79BD8A71A39685618AEBAAB558C1D3CB8
:10020000B7CC5763BD6DEDFD753EF6177231BF007B
:100210000000803F08000000BE922449123EABAAB5
:10022000AA2ABECDCCCC4C3E00000080BEABAAAA10
:10023000AA3E00000000BF000000803F0000000058
:1002400000084178D3BB4387D1133D190E3CC3BD91
:100250004282AD2B3E68EC8276BED98FE1A93E4C3E
:1002600080EFFFBE01C4FF7F3F00000000000D943F
:10027000DA410D94157E0C9408B50D9463370C94F7
:1002800022990D94C7420D94FD540C94CE790C9490
:100290006EA40D940B5E0C9416A90C94C5AC0C9432
:1002A000589B0D94D67C0C94177A0C9433C20C9402
:1002B00022480C941D9C0C94EA7A0C94E7AC0D94A3
:1002C000C8410D9407410C94B59E0D94435D0D9467
:1002D000AA410C94349B0C94FDC10C942F9B0D945B
:1002E000E47C0C941EA50D94F97C0D94515D0D9445
:1002F000383E0C94A2C00D94FD7C0D9469710D9450
:1003000051500C940C7A0C94D4AC0D94903E0D94F6
:10031000193F0C94DFB40C94A0DB0C94AF7F0C94C9
:10032000A3B10C940E820D94BC410C94BBAC0D9403
:10033000FF5D0C9469A30C94A7A10C94B89F0C9436
:100340008DDB0D94FA540C94ADBF0C94E4AC0C947A
:1003500008820C94CA750D94623F0C94619B0C94B6
:10036000D09B0C94BE750D947A7E0C948A790D9472
:10037000E93D0C940CC20D94F1540D94E6410C949B
:100380007CFC0C94E47F0D9403550C94FF810C9439
:1003900092DB0D94987E0C9496DB0D94E0410D94C5
:1003A000EB7C0C9437C00D94075E0C9407990C9469
:1003B000DF690C94B6AC0C94DBC00D940B7D0C94EF
:1003C00013990D94CE5B0D94DF3E0D94603E0D9419
:1003D00009550C94E67F0D94157D0D948C620D9457
:1003E00077380C9454780D944D7E0C94D8C00C94AE
:1003F000B7D70D94D6400D94ED3C0C949BDB0D9437
:100400008F5B0D94017E0C94ADAF0C940C820D9417
:10041000067E0D94B6410D94707E0C945CA50D94EF
:10042000C4820D94363F0D94A8420C949E750C9492
:10043000DFD40C94A0C20D94CE410C944E990C9430
:100440006AA70C94E3AD0D94317E0C9475870C94DF
:100450003BC00C94A9A70C940AF40D94847E0C94D0
:10046000E2750D94CC3E0C9418990C9438C00C9401
:1004700039C20D94F4420C943E7A0C9486750D9416
:1004800006550C94CAAC0D94B0410C94BA750D94F9
:100490007C3E0D94077D0C947C7C0D94135E0D9432
:1004A000903F0D94397E0C94C0AC0C94EAAC0C9443
:1004B00078810D940D370D94197D0D94EE540C94A4
:1004C000AABF0C9439A60C9450C20C94B6750C9427
:1004D0009DAC0D94793B0C94C2750C9448990C9486
:1004E00001820D9482390C9499AC0C94367A0C9458
:1004F000B27F0C94FD780D94BE3E0C94B57F0C94A5
:1005000042990C941D990C946F850D94EF7C0C947A
:10051000B77F0C94D7750D940F5E0D94D4410D9454
:100520001B5E0C948A990D940E550D94223E0C94EA
:10053000BED50D94275E0D94E65C0C94ADA80C948A
:10054000CE750D948F710D94F4540D94B13E0C94AE
:100550000A820D943A5D0D94E2820D94543F0C94FE
:100560005C7C0D94175E0D941E7D0C94E2AA0D9494
:100570008C3F0C943C990C94A9AB0D94D15F0C94D6
:10058000E6750C94AE760D94F7540D94037D0D949E
:100590004C3E0D944D3F0D94577E0D94117D0C945F
:1005A000399B0D94035E0C94B9760C94E27F0D9404
:1005B000437E0C94CB7A0D941F5E0D941B550C94C6
:1005C000169D0C9486A60D94E07C0D94A5400D9488
:1005D000C75C0D9422440C94C6750D948E7E0C94C9
:1005E000E87F0D9400550D94DA7C0D941F7E0C94D9
:1005F0002A9B0D944B5D0D94C2410C94ED790D94A2
:10060000E77C0D940B7E0C94CBAE0C94AE750D94E0
:10061000A43E0D94CC360C94CFAC0D94667E0D9414
:100620005B3F0C9419B50D9427500D94CB360D9467
:1006300059380D94297E0D94235E0C9453480D94E3
:1006400022720D94FC3E0D94F57C0C94DD9B0D9470
:100650006E3E0D944E370C948C750C942BA50C9417
:10066000E9AD4E414E494E495459494E46CDCCCC48
:100670003D0AD7233C17B7D13877CC2B329595E676
:10068000241FB14F0A000020410000C84200401C56
:100690004620BCBE4CCA1B0E5AAEC59D7400407AA3
:1006A00010F35A00A0724E18090010A5D4E80000FB
:1006B000E87648170000E40B54020000CA9A3B0099
:1006C0000000E1F505000080969800000040420F10
:1006D000000000A08601000000102700000000E8D4
:1006E00003000000006400000000000A0000000099
:1006F000000100000000002C76D888DC674F08233A
:10070000DFC1DFAE59E1B1B796E5E3E453C63AE69F
:1007100051997696E8E6C28426EB898C9B62ED407F
:100720007C6FFCEFBC9C9F40F2BAA56FA5F49005CE
:100730005A2AF75C936B6CF9676DC11BFCE0E40D02
:1007400047FEF520E6B500D0ED902E0300943577F6
:10075000050080841E080000204E0A000000C80C1E
:10076000333333330F986E12831141EF8D21148987
:100770003BE65516CFFEE6DB18D1844B381BF77CE1
:100780001D901DA4BBE424203284725E228100C926
:10079000F124ECA1E53D27434F4D4D554E494341D2
:1007A00054494F4E0044525952554E004552524FF3
:1007B0005253004543484F0020643A0020693A00F4
:1007C00020703A00496E76616C69642065787472B5
:1007D000756465720A00536C6565702E2E2E005785
:1007E00061726E696E67203A20436C65616E2043CA
:1007F0006972636C652072657175697265732058E2
:10080000590A004D65736820706F696E74206361CA
:100810006E6E6F74206265207265736F6C766564AE
:100820000A004E6F204D6F76652E00456E6420667F
:10083000696C65206C6973740A00426567696E2093
:1008400066696C65206C6973740A00526573756D16
:10085000696E6720534400286E6F2066696C6529B5
:100860000043757272656E742066696C653A20008B
:1008700025697920256964202569682025696D200E
:10088000256973005072696E742074696D653A2031
:1008900000452025530044454255473A004D31312B
:1008A000332053003344205072696E746572204FB8
:1008B00046462E004348414D4245525F54454D50F7
:1008C00045524154555245004D4F54494F4E5F4D8E
:1008D0004F44455300544845524D414C5F50524F90
:1008E00054454354494F4E004155544F5245504F83
:1008F00052545F53445F5354415455530050524F28
:100900004D50545F535550504F525400454D455231
:1009100047454E43595F504152534552004341535E
:10092000455F4C494748545F4252494748544E45F9
:10093000535300544F47474C455F4C494748545325
:1009400000534F4654574152455F504F5745520050
:100950004255494C445F50455243454E54004C4526
:1009600056454C494E475F44415441005A5F5052EE
:100970004F4245004155544F4C4556454C0050524E
:10098000494E545F4A4F420050524F4752455353CD
:10099000004155544F5245504F52545F54454D50AD
:1009A00000564F4C554D45545249430042494E4123
:1009B00052595F46494C455F5452414E5346455249
:1009C0000053455249414C5F584F4E5F584F464681
:1009D000004649524D574152455F4E414D453A4DB3
:1009E00061726C696E204275696C64203435372001
:1009F000284769744875622920534F555243455F13
:100A0000434F44455F55524C3A68747470733A2FA3
:100A10002F6769746875622E636F6D2F56657274E7
:100A200061627265616B2F4D61726C696E2050520C
:100A30004F544F434F4C5F56455253494F4E3A31F6
:100A40002E30204D414348494E455F545950453A58
:100A50003344205072696E74657220455854525563
:100A60004445525F434F554E543A31205555494401
:100A70003A38333666613934332D313333372D31DB
:100A80003333372D313333372D39386132306465A4
:100A900037353630370A002F2F20004D31343520BE
:100AA000533C696E6465783E206F7574206F6620D4
:100AB00072616E67652028302D31290A0020466C4E
:100AC0006F773A200050726F7465637465642050CC
:100AD000696E0A006469730043290A0061626C65EB
:100AE0006420286D696E2074656D702000436F6C02
:100AF0006420657874727564657320617265200086
:100B000046696C616D656E742072756E6F757420C8
:100B100000454550524F4D204F4B0A003F28422977
:100B2000617564207261746520696D706C617573A4
:100B300069626C652E0A002053657269616C203011
:100B4000206261756420726174652073657420741D
:100B50006F20003F4B2076616C7565206F757420A7
:100B60006F662072616E67652028302D3130292E26
:100B70000A00416476616E6365204B3D00436173FA
:100B800065206C696768743A200043617365206C66
:100B9000696768743A206F66660A00506F776572FD
:100BA0002D6C6F7373207265636F766572792000A8
:100BB000B307B515AC07A507970720595A3A200087
:100BC00020585A3A20002058593A2000536B657734
:100BD00020466163746F72006D696E5F736B657739
:100BE0005F666163746F723A20202D31206D6178E9
:100BF0005F736B65775F666163746F723A20203153
:100C00000A00416363656C65726174696F6E3A20B6
:100C100050003F4A206F7574206F662072616E67C6
:100C2000652028302E303120746F20302E33290A71
:100C30000020633A00204D3932205400204D3932D3
:100C400020580020204D61783A200020204D696E08
:100C50003A2000536F667420656E6473746F70730E
:100C60003A2000252900257C00203B204375727224
:100C7000656E74205A00203B20456E6400203B20A6
:100C8000537461727400202854004772616469656E
:100C90006E74204D697820004D32342053256C64E9
:100CA0002054256C64004739322E392045257300C5
:100CB00047312046256400473120453120463330F6
:100CC0003030004739322E39205A25730047312001
:100CD0005A30204632303000473120582573205991
:100CE00025732046333030300047312045312046CF
:100CF000323030004D34323020532569205A25736C
:100D0000004D313036205025692053256900473980
:100D1000322E392045305A300A47315A320A47328A
:100D20003852305859004D343230205330205A3028
:100D30000020496E76616C69642065787472756410
:100D40006572200020496E76616C696420452073CD
:100D50007465707065722000204520737465707032
:100D60006572206E6F74207370656369666965646F
:100D70000A0004000005010003000501000504004D
:100D8000000005000300810D7C0D770D720D000041
:100D9000000000007F420000FF4200403F4300008F
:100DA0007F4320616E642074616B652061206D65F6
:100DB00061737572656D656E742E0A006D6D2074B9
:100DC0006869636B2E0A00427573696E65737320E0
:100DD00043617264206973200052656D6F766520EF
:100DE00026204D6561737572652042656400526509
:100DF0006D6F7665207368696D00506C6163652066
:100E00007368696D20756E646572206E6F7A7A6C96
:100E100065004D65736820506F696E74204D656183
:100E200073757265642061743A20000A4D657368B9
:100E3000206F6E6C79207061727469616C6C7920BE
:100E4000706F70756C617465642E0A00506C61631C
:100E500065205368696D2026204D65617375726544
:100E6000004D6F76696E6720746F206E6578740030
:100E70004D6573682045646974696E672053746FAB
:100E80007070656400446F6E652045646974696EB6
:100E900067204D6573680A00446F6E65204564697C
:100EA00074696E67204D6573680046696E652054ED
:100EB000756E696E67204D6573680028582C592936
:100EC000206F757473696465207072696E746162F5
:100ED0006C65207261646975732E0A004F666673D3
:100EE0006574206F7574206F6620626F756E647311
:100EF0002E20283020746F2031306D6D290A0A00B1
:100F0000496E76616C6964206D61702074797065DA
:100F10002E0A0A003F43616E27742061637469766C
:100F200061746520616E64206465616374697661D3
:100F30007465206174207468652073616D65207428
:100F4000696D652E0A0A00426F74682058202620B9
:100F500059206C6F636174696F6E73206D75737463
:100F6000206265207370656369666965642E0A0A8C
:100F700000473239204A20616374696F6E207265C0
:100F800071756972657320612070726F62652E0AD7
:100F90000A003F285029686173652076616C756589
:100FA00020696E76616C69642028302D36292E0AFE
:100FB0000A004732392050312072657175697265B7
:100FC0007320612070726F62652E0A0A003F2856F6
:100FD000296572626F7365206C6576656C20696D3A
:100FE000706C61757369626C652028302D34292E10
:100FF0000A0A003F285229657065746974696F6E2A
:1010000020636F756E7420696E76616C6964202848
:10101000312B292E0A0A00446F696E672047323946
:1010200000646F6E650A00496E7375666669636970
:10103000656E7420646174610A0045787472617031
:101040006F6C6174696E67206D6573682E2E2E005B
:101050005072696E74696E67204F626A65637400CE
:101060002553202569002F2F616374696F6E3A0044
:10107000627574746F6E0070726F6D70745F007360
:10108000686F77003F454550524F4D2073746F7223
:10109000616765206E6F7420617661696C61626C56
:1010A000652E0A00486F74656E6420746F6F20634C
:1010B0006F6C640A0053656E64204D3130382074C3
:1010C0006F20726573756D650A005265686561749D
:1010D00020446F6E6500526568656174696E6700D3
:1010E0005265686561740048656174657254696D24
:1010F000656F75740053656E64204D31303820740F
:101100006F2068656174206E6F7A7A6C650A004E94
:101110006F7A7A6C65205061726B656400706175DE
:10112000736564004D3630303A20546F6F20436F42
:101130006C6400726573756D656400526573756DDE
:10114000696E6700426564204C6576656C696E6700
:1011500020004661696C656420746F20656E616271
:101160006C6520426564204C6576656C696E670A23
:1011700000496E76616C6964206D6573682E0A00A3
:1011800076616C69640A53746F7261676520736C71
:101190006F743A20004D65736820697320003F49E1
:1011A0006E76616C69642073746F72616765207319
:1011B0006C6F742E0A004D34323120696E636F7289
:1011C0007265637420706172616D657465722075FB
:1011D000736167650A003F20616464726573732000
:1011E0003A2000206279746573206F66206D656D0A
:1011F0006F727920696E697469616C697A65642EB1
:101200000A0A00556E61626C6520746F20696E6910
:101210007469616C697A652E0A0A00496E6974699D
:10122000616C697A696E672066726565206D656DAF
:101230006F727920626C6F636B2E0A0A0A007472F7
:1012400075650A002072657475726E3D000A4D6501
:101250006D6F727920436F7272757074696F6E2052
:10126000646574656374656420696E206672656583
:10127000206D656D6F727920617265612E0A0020A4
:1012800020626C6F636B5F666F756E643D0020203B
:10129000200A002920666F756E643D002020204DD5
:1012A000656D6F727920636F7272757074696F6E9D
:1012B000206465746563746564207769746820656B
:1012C0006E645F667265655F6D656D6F72793C48CF
:1012D0006561700A0020656E645F667265655F6DAA
:1012E000656D6F7279203C20486561702000202078
:1012F000656E645F667265655F6D656D6F72793D81
:10130000000A667265655F6D656D6F72795F7374F3
:101310006172743D000A666D632829206E3D00638A
:101320006865636B5F666F725F667265655F6D654A
:101330006D6F72795F636F7272757074696F6E280A
:1013400029203D20004D3130302046200020627998
:1013500074657320617420000A4C61726765737450
:10136000206672656520626C6F636B206973200074
:10137000206279746573206672656520617420004F
:10138000466F756E6420000A436F727275707469DF
:101390006E6720616464726573733A2000436F72F4
:1013A00072757074696E672066726565206D656D13
:1013B0006F727920626C6F636B2E0A0A000A537495
:1013C00061636B20506F696E74657220202020204D
:1013D000202020203A20000A667265655F6D656DE9
:1013E0006F72795F656E64202020202020203A20D3
:1013F000000A667265655F6D656D6F72795F737403
:1014000061727420202020203A20000A6273735FEA
:10141000656E6420202020202020202020202020F5
:1014200020203A200020284E6F7420796574206DAA
:10143000656173757265642900202041766572616B
:101440006765206D65617375726564206261636BA9
:101450006C61736820286D6D293A002020536D6FF0
:101460006F7468696E6720286D6D293A20202020EE
:101470002020202020202020202020202053002059
:10148000204261636B6C6173682044697374616EA0
:10149000636520286D6D293A2020202020202020FF
:1014A00000202846312E30203D2066756C6C2C20A3
:1014B00046302E30203D206E6F6E65290A002020B8
:1014C000436F7272656374696F6E20416D6F756EE4
:1014D000742F466164652D6F75743A20202020209A
:1014E00046006163746976653A0A004261636B6C19
:1014F00061736820436F7272656374696F6E200058
:10150000206D61783A00206D696E3A004178697308
:1015100020005072696E7465722073746F7070650C
:10152000642064756520746F206572726F72732E0B
:101530002046697820746865206572726F72206138
:101540006E6420757365204D39393920746F2072AF
:101550006573746172742E202854656D70657261B4
:10156000747572652069732072657365742E2053DB
:101570006574206974206166746572207265737485
:10158000617274696E67290A004D383736205265DA
:1015900073706F6E64696E672050524F4D50545F88
:1015A00000554E4B4E4F574E205354415445004723
:1015B000434F44455F494E464F004C43445F5041C2
:1015C0005553455F524553554D450046494C414D95
:1015D000454E545F52554E4F55545F434F4E5449FC
:1015E0004E55450046494C414D454E545F52554E6F
:1015F0004F5554005075726765204D6F72650045F8
:1016000072726F722077726974696E6720746F20CE
:10161000454550524F4D210A00627573793A20704A
:10162000617573656420666F7220696E7075740AE7
:1016300000627573793A2070617573656420666F16
:101640007220757365720A00627573793A20707240
:101650006F63657373696E670A0070617573650007
:101660004D363030002066696C616D656E745F7256
:10167000756E6F7574200066696C616D656E745F60
:1016800072756E6F757420540046696C616D656E7D
:101690007452756E6F757420540053544F505045FA
:1016A000442E20004E6F20436865636B73756D2078
:1016B00077697468206C696E65206E756D626572FD
:1016C0002C204C617374204C696E653A200063686D
:1016D00065636B73756D206D69736D617463682CE0
:1016E000204C617374204C696E653A20004C696E21
:1016F00065204E756D626572206973206E6F74206F
:101700004C617374204C696E65204E756D62657214
:101710002B312C204C617374204C696E653A20008B
:101720004D313130004D313137004D3331005344AC
:101730002072656164206572726F720A00446F6E78
:1017400065207072696E74696E672066696C650ADF
:10175000002121204B494C4C206361757365642046
:10176000627920746F6F206D75636820696E6163A4
:10177000746976652074696D65202D2063757272B9
:10178000656E7420636F6D6D616E643A200025276D
:1017900023181F211D1C19171B1E2E2C0C312F3036
:1017A00004400AFF41040908070001416476616EA4
:1017B0006365642053657474696E677300496E696C
:1017C0007400496E697469616C697A652045455099
:1017D000524F4D0043616E63656C204F626A6563D2
:1017E00074004261636B6C6173680053746570735D
:1017F0002F6D6D004A65726B00416363656C6572A5
:101800006174696F6E0056656C6F6369747900531B
:101810006D6F6F7468696E6700436F727265637491
:10182000696F6E004E65787420506F696E74004E5B
:10183000657874004E4F005945530043616E6365EF
:101840006C204F626A656374203D004C6967687460
:10185000204272696768746E6573730046616E201A
:101860005370656564004C6F6164205365747469DE
:101870006E677300526573746F7265206661696C80
:10188000736166650053746F726520536574746983
:101890006E677300507265686561742050455447E7
:1018A00020436F6E66005072656865617420504C0D
:1018B0004120436F6E660043617365204C69676821
:1018C000740020082046616374002008204D617870
:1018D000002008204D696E004175746F74656D704D
:1018E000005654726176204D696E00566D696E0027
:1018F000566D6178202A00566D6178204500566D3E
:101900006178205A00566D6178205900566D6178D3
:10191000205800416D6178202A00416D6178204592
:1019200000416D6178205A00416D61782059004175
:101930006D6178205800412D54726176656C0041CC
:101940002D5265747261637400416363656C004A73
:10195000756E6374696F6E20446576002A737465D2
:1019600070732F6D6D004573746570732F6D6D000E
:101970005A73746570732F6D6D005973746570734D
:101980002F6D6D005873746570732F6D6D000000BE
:101990007F4300007F4300007A43206279746573BF
:1019A0003B20637263200053657474696E67732013
:1019B00053746F7265642028004E6F204545505265
:1019C0004F4D2E0A00454550524F4D2064617461C1
:1019D00073697A65206572726F722E0A003F4D65D9
:1019E000736820746F6F2062696720666F7220458C
:1019F0004550524F4D2E0A0055424C20726573657A
:101A0000740A00206C6F616465642066726F6D20DB
:101A100073746F726167652E0A004D6573682000EC
:101A20003F43616E277420656E61626C6520002003
:101A300073746F7265642073657474696E67732064
:101A40007265747269657665642028002028636178
:101A50006C63756C6174656429210A0020213D2046
:101A600000454550524F4D20435243206D69736DE0
:101A700061746368202D202873746F726564292057
:101A800000496E6465783A2000204D61726C696E81
:101A90003D563734290A00454550524F4D20766552
:101AA0007273696F6E206D69736D6174636820284D
:101AB000454550524F4D3D003A202534642E256453
:101AC000206D6D004D69786572003F0043616E6363
:101AD000656C004F6E002020456E64205A3A00531A
:101AE00074617274205A3A00416C69617320562DFA
:101AF000746F6F6C002020456E6420562D746F6FDC
:101B00006C00537461727420562D746F6F6C0025D5
:101B10003364252520253364252500562D746F6FE9
:101B20006C73205765726520526573657400526549
:101B30007665727365204772616469656E740054DE
:101B400025692D3E54256900526573657420562D14
:101B5000746F6F6C7300546F67676C65204D6978A4
:101B6000002533643B253364252500416374697681
:101B70006520562D746F6F6C00536F667420456E30
:101B80006473746F7073004D38340044697361621C
:101B90006C65205374657070657273004C65766572
:101BA0006C20436F726E65727300473238205A00A2
:101BB000486F6D65205A00473238205900486F6DD4
:101BC00065205900473238205800486F6D6520580D
:101BD000004175746F20486F6D65004D31303920BC
:101BE000532569004D3139302053256900496E660F
:101BF0006F2053637265656E004265642054656DA5
:101C00007000486F74656E642054656D70004732D3
:101C1000392050362043202D0048656967687420BC
:101C2000416D6F756E740041646A757374204D6503
:101C300073682048656967687400473239205034FA
:101C400020540046696E652054756E6520436C6FA4
:101C5000736573740047323620432042256920485B
:101C6000256920500056616C696461746520437574
:101C700073746F6D204D657368004732380A4732C0
:101C8000362043204237302048323530205000562D
:101C9000616C6964617465204D65736820285045E6
:101CA000544729004732380A47323620432042360B
:101CB00030204832303020500056616C69646174C5
:101CC00065204D6573682028504C41290047323902
:101CD000204A2569004C6576656C204D6573680067
:101CE0005369646520506F696E747300477269644C
:101CF000204D657368204C6576656C696E6700479A
:101D00003239204A3000332D506F696E74204C6593
:101D100076656C696E670047323920503320522057
:101D2000432E2569004D616E75616C2046696C6CAF
:101D30002D696E0046696C6C2D696E20416D6F7562
:101D40006E74004D65736820696E76616C696461BC
:101D50007465642E0A00473239204900496E766165
:101D60006C696461746520436C6F736573740049BA
:101D70006E76616C696461746520416C6C004732F9
:101D800039205031204300436F6E74696E756520B1
:101D9000426564204D6573680046696C6C2D696E00
:101DA000204D657368004275696C642043757374D7
:101DB0006F6D204D657368004732380A4D313930F8
:101DC000205337300A4D31303920533235300A47ED
:101DD00032392050310A4D3130342053300A4D31E0
:101DE0003430205330004275696C64204D6573684F
:101DF00020285045544729004732380A4D313930A0
:101E0000205336300A4D31303920533230300A47B2
:101E100032392050310A4D3130342053300A4D319F
:101E20003430205330004275696C64204D6573680E
:101E30002028504C41290054656D7065726174759D
:101E400072650050726568656174205045544700A2
:101E50005072656865617420504C41004E6F7A7A0B
:101E60006C65004D61696E00507265686561742033
:101E7000504C4120456E6400507265686561742065
:101E8000504C412042656400507265686561742061
:101E90005045544720456E64005072656865617412
:101EA00020504554472042656400436F6F6C646F57
:101EB000776E0046616E205370656564203D004278
:101EC00061627973746570205A00466C6F77004DBB
:101ED00065736820456469746F720000FE0003FF3B
:101EE0008007C7C00701E00000E00000F0000070BC
:101EF0000400700E00701F00703F80F00E00E00FB5
:101F000001E007C7C003FF8000FE0000FE0003FFE2
:101F10008007C7C00F01E00E00E03F80F01F007097
:101F20000E00700400700000700000F00000E00778
:101F300001E007C7C003FF8000FE000E000E000E88
:101F4000000E000E000E000E000E007FC03F801F2E
:101F5000000E00040004000E001F003F807FC00E32
:101F6000000E000E000E000E000E000E000E00FF10
:101F7000FFFF7F80FFC0FFC0FFC07F807F80FFC06A
:101F8000FFC0FFC03F001E000C002053697A653A75
:101F9000200043616E6E6F74206F70656E207375E4
:101FA00062646972200053442063617264206F6B25
:101FB0000A006F70656E526F6F74206661696C65A0
:101FC000640A00766F6C756D652E696E69742066A3
:101FD00061696C65640A00534420696E6974206607
:101FE00061696C0A004D32332025730046696C65C7
:101FF0002073656C65637465640A0046696C6520CE
:102000006F70656E65643A2000454E44205355421A
:10201000524F5554494E450A002220706F730022DA
:1020200020706172656E743A2200535542524F55CA
:1020300054494E452043414C4C207461726765748D
:102040003A2200747279696E6720746F2063616C44
:102050006C207375622D67636F64652066696C65BB
:1020600073207769746820746F6F206D616E7920BA
:102070006C6576656C732E204D4158206C657665D5
:102080006C2069733A310A0057726974696E67206F
:10209000746F2066696C653A200044656C657469EC
:1020A0006F6E206661696C65642C2046696C653AC8
:1020B000200046696C652064656C657465643A004F
:1020C0005344207072696E74696E6720627974651A
:1020D00020004E6F74205344207072696E74696ED4
:1020E000670A00667265736800646F696E67004E08
:1020F0006F7720004572723A207574663820666FDB
:102100006E74206E6F7420696E697469616C697A8F
:1021100065642E002568753A25303268750025689B
:1021200075642025303268753A25303268750000B4
:102130000C0D00FE07022603BC017FFE08FE08FE10
:1021400005080806000040F0C8888898781005083F
:1021500008060000C0F88888888888F80505050604
:1021600000012030F830200508080600002070F833
:1021700020202020E00509090600FF2070A8A8B84B
:1021800088887020050606060001E08CEA8C8A0A21
:102190000509090600FFF8A88888888888A8F80536
:1021A0000A0A0600FE205050505088A8A8887003E4
:1021B000030306000340A040FFFFFFFFFFFFFFFFF8
:1021C000FFFFFFFFFFFFFFFFFFFFFFFFFFFF00001D
:1021D000000605FF0107070602008080808080005E
:1021E00080030303060105A0A0A005060606000063
:1021F00050F85050F8500509090600FF2070A8A0BB
:102200007028A87020050707060000C8C8102040E5
:10221000989805070706000040A0A040A890680114
:1022200003030602058080800309090601FF2040A0
:10223000408080804040200309090601FF80404023
:1022400020202040408005070706000020A87020BD
:1022500070A8200505050600012020F820200203B3
:10226000030601FFC04080050101060003F80202D9
:1022700002060100C0C00507070600000810102074
:10228000404080050707060000708898A8C888703D
:1022900003070706010040C040404040E005070733
:1022A000060000708808102040F8050707060000A7
:1022B000F808103008887005070706000010305035
:1022C00090F81010050707060000F880F00808884D
:1022D00070050707060000304080F0888870050709
:1022E00007060000F8081010202020050707060048
:1022F000007088887088887005070706000070885D
:102300008878081060020505060100C0C000C0C042
:102310000206060601FFC0C000C040800305050696
:1023200001012040804020050303060002F800F868
:1023300003050506010180402040800507070600CF
:102340000070881020200020050707060000708814
:10235000B8A8B88070050707060000708888F8885C
:102360008888050707060000F04848704848F005CF
:1023700007070600007088808080887005070706C0
:102380000000F04848484848F0050707060000F8F4
:102390008080F08080F8050707060000F88080F054
:1023A000808080050707060000708880809888700C
:1023B000050707060000888888F8888888030707CB
:1023C000060100E04040404040E0050707060000ED
:1023D000381010101090600507070600008890A0C4
:1023E000C0A090880507070600008080808080805C
:1023F000F805070706000088D8A888888888050798
:10240000070600008888C8A898888805070706007E
:102410000070888888888870050707060000F088A3
:1024200088F080808005070706000070888888A8EB
:102430009068050707060000F08888F0A0908805DE
:102440000707060000708880700888700507070677
:102450000000F82020202020200507070600008823
:10246000888888888870050707060000888888881B
:1024700050502005070706000088888888A8A850C3
:102480000507070600008888502050888805070740
:10249000060000888850202020200507070600003D
:1024A000F80810204080F80309090601FFE0808049
:1024B0008080808080E00507070600008040402083
:1024C0001010080309090601FFE020202020202029
:1024D00020E00503030600052050880501010600E1
:1024E000FEF80303030601058040200505050600EC
:1024F0000070087888780507070600008080F0885B
:102500008888F00505050600007080808870050742
:102510000706000008087888888878050505060001
:10252000007088F08070050707060000304840E022
:102530004040400507070600FE70888888780870CC
:102540000507070600008080F08888888803070751
:102550000601004000C0404040E00409090601FEB9
:102560001000301010101090600507070600008062
:10257000808890E09088030707060100C040404033
:102580004040E0050505060000D0A8A8A8A805055C
:1025900005060000B0C8888888050505060000709B
:1025A000888888700507070600FEF0888888F08014
:1025B000800507070600FE788888887808080505E2
:1025C00005060000B0C8808080050505060000787B
:1025D000807008F00507070600002020F820202062
:1025E0001805050506000088888898680505050611
:1025F000000088888850200505050600008888A806
:10260000A8500505050600008850205088050707DA
:102610000600FE88888850204080050505060000D9
:10262000F8102040F80309090601FF2040404080CF
:10263000404040200109090602FF808080808080A0
:102640008080800309090601FF804040402040400F
:10265000408005030306000248A890FF6563686F89
:102660003A004572726F723A0020204D34323120A8
:1026700049002020473239204939390A0061637402
:102680006976650A002053797374656D2076312E62
:10269000303120002020207C0A004E414E002020B6
:1026A0002E20202000207C004C43443A0A00435353
:1026B000563A0A0020666F7220003A0A0A000A425F
:1026C000656420546F706F6772617068792052651D
:1026D000706F727400446F6E652E0A003F496E760B
:1026E000616C69642073746F7261676520736C6FCD
:1026F000742E0A3F557365203020746F20004732D6
:10270000392050322066696E69736865642E0A004C
:102710005859206F757473696465207072696E749E
:1027200061626C65207261646975732E0A003F45B1
:1027300072726F7220696E20427573696E65737371
:102740002043617264206D6561737572656D656E9D
:10275000742E0A004D616E75616C6C792070726F19
:1027600062696E6720756E726561636861626C652F
:10277000206D657368206C6F636174696F6E732E72
:102780000A004D657368207A65726F65642E0A00D1
:1027900044656661756C742073746F72616765203F
:1027A000736C6F7420302073656C65637465642E80
:1027B0000A004C6F6164696E6720746573745F70A2
:1027C00061747465726E2076616C7565732E0A0A89
:1027D00000496E76616C696420746573745F706122
:1027E000747465726E2076616C75652E20282D31AB
:1027F00020746F2032290A0A004C6F636174696F7C
:102800006E7320696E76616C6964617465642E0A0A
:102810000A00456E74697265204D65736820696EA3
:1028200076616C6964617465642E0A0A0053746190
:102830006E6461726420446576696174696F6E3A92
:1028400020004D65616E204D65736820486569679D
:1028500068743A200023206F662073616D706C6588
:10286000733A200052756E6F75742053656E736FE6
:102870007200554E4C4F41442046494C414D454E07
:10288000540046494C414D454E54204348414E4723
:1028900045004732380A4732392050342052323509
:1028A000350A47323920410A4D3530300047323938
:1028B0002050340A4D353030004D333033205531FF
:1028C00020453020533235302043380A4D353030E2
:1028D000004D33303320553120452D3120533930D0
:1028E0002043380A4D353030004D393030204B30E0
:1028F0000A4D353030004D393030204B302E320A01
:102900004D353030004D393030204B302E330A4DAC
:10291000353030004D393030204B302E340A4D35B3
:102920003030004D393030204B302E350A4D3530A7
:1029300030004D393030204B302E360A4D35303096
:10294000004C696E20416476204B302E35004C6976
:102950006E20416476204B302E34004C696E20414D
:102960006476204B302E36004C696E204164762010
:102970004B302E33004C696E20416476204B302E54
:1029800032004C696E20416476204F6666005049E3
:102990004474756E65204265640050494474756ED8
:1029A0006520486F74656E640041646A75737420B5
:1029B000506F696E74204E656172004D616E756175
:1029C0006C2055424C004D37303220542564004D68
:1029D00036303020423020542564004D37303220CC
:1029E0003B2564004D3730312054256400556E6C12
:1029F0006F61642046696C616D656E74004C6F6137
:102A0000642046696C616D656E740050726568651E
:102A1000617420437573746F6D004D363030204201
:102A20003020542569004D37303120542569004D40
:102A300037303220542569004D37303200556E6CE6
:102A40006F616420416C6C004C6F61642046696C5E
:102A5000616D656E74202A00556E6C6F616420464E
:102A6000696C616D656E74202A004368616E6765EC
:102A70002046696C616D656E74202A00507572671E
:102A800065206D6F726500524553554D45204F507E
:102A900054494F4E533A005052494E5420504155DC
:102AA0005345440020204E6F7A7A6C653A2000200E
:102AB000746F6F206C6F6E672065787472757369C0
:102AC0006F6E2070726576656E7465640A002063AF
:102AD0006F6C6420657874727573696F6E207072A4
:102AE0006576656E7465640A004D6F74696F6E007B
:102AF0004732392057004F75747075742055424C19
:102B000020496E666F0055424C20546F6F6C730005
:102B10004F7574707574204D657368204D61700039
:102B20004D6573682053746F72616765004D6573FE
:102B300068204564697400537465702D42792D5383
:102B40007465702055424C00473239204100416382
:102B50007469766174652055424C004732392044CF
:102B600000446561637469766174652055424C0068
:102B700025732025643B2564252520001FE03FF0B8
:102B80003FF03FF01FE01FE03FF03FF03FF00FC08D
:102B9000078003001FE020102010201010201020BC
:102BA00020102010303008400480030001FF000690
:102BB00018C0081F20101F90141F102E1E082F1C55
:102BC000082FB8083FFC083FFFF8207FF8203BE8BB
:102BD0002071E820F0E811F05013F01009F0200601
:102BE00030C001FF0001FF000630C009F02011F0E5
:102BF0001010F01020F0682031E82039E8207FF82C
:102C00003FFFF83FFC082F38082E18082C1E08102C
:102C10001E10101F10081F200618C001FF0001FF22
:102C2000000600C00901201783D01783D02FC7E802
:102C300027C7C821FF08207C08207C08207C0821A9
:102C4000FF0827C7C82FC7E81783D01783D009010B
:102C5000200600C001FF00FFFFC040002020001040
:102C600010000808000404000203FFFF0222000411
:102C70004400044400022200011100FFFFC040880C
:102C8000A021111012220808000404000203FFFF13
:102C9000446966663A200046726F6D5374703A005C
:102CA000537465707065723A00556E4C6576656C4C
:102CB0003A004C6576656C65643A005261773A205B
:102CC000202020000A4C6F676963616C3A00436FF3
:102CD000756E7420453A004361703A004D302F31D3
:102CE00020427265616B2043616C6C656400436CCB
:102CF00069636B20746F20526573756D652E2E2E7F
:102D000000656E7175657565696E672022006F6B71
:102D100000526573656E643A200042656420436F1B
:102D20006F6C696E672E2E2E0042656420486561C7
:102D300074696E672E2E2E0023646566696E6520A9
:102D400044454641554C545F004B6420004B69207C
:102D5000004B702000504944204175746F74756EAB
:102D6000652066696E6973686564212050757420FA
:102D7000746865206C617374204B702C204B692043
:102D8000616E64204B6420636F6E7374616E747344
:102D90002066726F6D2062656C6F7720696E746F4C
:102DA00020436F6E66696775726174696F6E2E6815
:102DB0000A00504944204175746F74756E65206631
:102DC00061696C6564212074696D656F75740A00B2
:102DD0000A20436C617373696320504944200A00E0
:102DE000204B643A2000204B693A2000204B703A77
:102DF00020000A204E6F206F76657273686F6F74C3
:102E00000A002054753A2000204B753A2000206DAE
:102E100061783A2000206D696E3A200020643A20E3
:102E20000020626961733A20005049442041757462
:102E30006F74756E652073746172740A0050494432
:102E4000204175746F74756E65206661696C656488
:102E5000212054656D706572617475726520746FA0
:102E60006F20686967680A00504944204175746F93
:102E700074756E65206661696C65642120426164C9
:102E8000206578747275646572206E756D62657206
:102E90000A0024F4D43050C38E20C2A24017828B83
:102EA0007011127A910D816CD90AA861E108C75896
:102EB0006607615143061E4B5D05C145A7041A41D3
:102EC0001104093D9803713931034036DB02653343
:102ED0009102D4305402802E1D02632CEE01752A1B
:102EE000C501B028A001102781018F2564012B2482
:102EF0004B01E0223401AC211F018D200D01801F08
:102F0000FC00841EED00971DDF00B81CD200E61BFC
:102F1000C600201BBC00641AB200B219A8000A192E
:102F2000A0006A189900D117910040178B00B516C0
:102F3000840031167E00B31579003A157300C7146A
:102F40006F0058146A00EE1366008813630025139F
:102F50005E00C7125B006C12570015125400C111BD
:102F6000510070114F0021114B00D61049008D10F7
:102F700047004610440002104200C00F4000800F7E
:102F80003E00420F3C00060F3B00CB0E3800930E74
:102F900037005C0E3500270E3400F30D3200C10DF2
:102FA0003100900D3000600D2E00320D2D00050D0A
:102FB0002C00D90C2B00AE0C2900850C29005C0CD0
:102FC0002700350C27000E0C2600E80B2400C40B4C
:102FD0002400A00B23007D0B23005A0B2100390B8A
:102FE0002100180B2000F80A1F00D90A1E00BB0A96
:102FF0001E009D0A1D00800A1D00630A1C00470A6E
:103000001B002C0A1B00110A1A00F7091A00DD091F
:103010001900C4091900AB091900920917007B09AE
:103020001800630917004C0916003609160020091C
:1030300016000A091500F5081500E0081400CC0870
:103040001400B8081400A4081400900813007D08A8
:1030500012006B08130058081200460812003408CA
:103060001100230811001208110001081100F007D7
:103070001000E0071000D0071000C0071000B007D4
:103080000F00A107100091070E0083070F007407BF
:103090000F0065070E0057070E0049070E003B079B
:1030A0000D002E070E0020070D0013070D00060768
:1030B0000D00F9060C00ED060D00E0060C00D4062C
:1030C0000C00C8060C00BC060C00B0060C00A406E0
:1030D0000B0099060C008D060B0082060B0077068C
:1030E0000B006C060B0061060A0057060B004C062D
:1030F0000A0042060A0038060A002E060A002406C4
:103100000A001A060A001006090007060A00FD0553
:103110000900F4050900EB050900E2050900D905DD
:103120000900D0050900C7050900BE050900B5055D
:103130000800AD050800A50509009C0508009405D8
:1031400008008C050800840508007C05080074054B
:1031500008006C050700650508005D0507005605B9
:1031600008004E0507004705070040050800380520
:103170000700310507002A050700230507001C0585
:103180000600160507000F050700080506000205E2
:103190000700FB040600F5040700EE040600E8043F
:1031A0000600E2040700DB040600D5040600CF0495
:1031B0000600C9040600C3040600BD040600B704E7
:1031C0000600B1040500AC040600A6040600A00435
:1031D00005009B04060095040500900406008A047F
:1031E000050085040500800406007A0405007504C6
:1031F0000500700405006B04050066040500610409
:1032000005005C04050057040500520405004D0448
:10321000050048040500430405003E0404003A0488
:10322000050035040500300404002C0405002704C3
:103230000400230405001E0404001A0404001604FC
:103240000500110404000D04040009040500040431
:10325000040000040400FC030400F8030400F40369
:103260000400F0030400EC030400E8030400E4039A
:103270000400E0030400DC030400D8030400D403CA
:103280000400D0030400CC030400C8030300C503FA
:10329000030024F404D9201BC40C5C0E9804C40958
:1032A0005F0265077101F405F900FB04B3004804EF
:1032B0008700C10369005803550003034500BE029F
:1032C0003A008402310053022A0029022500040238
:1032D0002000E4011C00C8011900AF01170098018B
:1032E00014008401130071011000610110005101EC
:1032F0000E0043010D0036010B002B010B002001D5
:103300000B00150109000C01090003010800FB0076
:103310000800F3000800EB000700E4000600DE00F0
:103320000600D8000600D2000600CC000500C70049
:103330000500C2000500BD000400B9000400B5008E
:103340000400B1000400AD000400A9000400A500C1
:103350000300A20003009F0004009B0003009800EC
:1033600003009500020093000300900003008D000D
:1033700002008B0003008800020086000200840027
:103380000300810002007F0002007D0002007B003C
:10339000020079000200770001007600020074004C
:1033A000020072000100710002006F0002006D0057
:1033B00001006C0002006A00010069000200670061
:1033C0000100660001006500010064000200620067
:1033D000010061000100600001005F0002005D006B
:1033E00001005C0001005B0001005A00010059006F
:1033F000010058000100570001005600010055006F
:10340000010054000100530000005300010052006D
:10341000010051000100500001004F0001004E006A
:1034200000004E0001004D0001004C0001004B0067
:1034300000004B0001004A00010049000100480063
:10344000000048000100470001004600000046005F
:103450000100450000004500010044000100430058
:103460000000430001004200000042000100410052
:10347000000041000100400001003F0000003F004B
:1034800001003E0000003E0001003D0000003D0044
:1034900001003C0000003C0000003C0001003B003B
:1034A00000003B0001003A0000003A000100390032
:1034B000000039000100380000003800000038002A
:1034C0000100370000003700010036000000360020
:1034D0000000360001003500000035000000350016
:1034E000010034000000340000003400010033000B
:1034F0000000330000003300010032000000320001
:1035000000003200010031000000310000003100F5
:1035100001003000000030000000300001002F00EA
:1035200000002F0000002F0000002F0001002E00DF
:1035300000002E0000002E0001002D0000002D00D4
:1035400000002D0000002D0001002C0000002C00C8
:1035500000002C0000002C0001002B0000002B00BC
:1035600000002B0000002B0001002A0000002A00B0
:1035700000002A0000002A000100290000002900A4
:103580000000290000002900000029000100280097
:10359000000028000000280000002800000028008B
:1035A000010027000000270000002700000027007E
:1035B0000000270001002600000026000000260071
:1035C0000000260000002600010025000000250064
:1035D0000000250000002500000025000000250057
:1035E000010024000000240000002400000024004A
:1035F000000024000100230000002300000023003D
:10360000000023000000230000002300000023002E
:103610000100220000002200000022000000220021
:103620000000220000002200010021000000210013
:103630000000210000002100000021000000210006
:1036400000002100010020000000200000002000F8
:1036500000002000000020000000200000002000EA
:103660000000200001001F0000001F0000001F00DC
:1036700000001F0000001F0000001F0000001F00CE
:1036800001001E0000001E0000001E0000001E00C1
:1036900000008E2900001A21000088170000E80EA3
:1036A00000009A080000A90400006F0200003E011B
:1036B0000000000020C10000000000000000000029
:1036C000204200002042000080400202020000A0D0
:1036D000400000A0400000A0400080844300007F24
:1036E0004300007A43FFFFFF0000000100000001DB
:1036F0000000800055555500000040003333330072
:10370000AAAA2A004992240000002000C7711C00C8
:1037100099991900D1451700555515003BB1130073
:103720002449120011111100000010000F0F0F00AA
:10373000E3380E0043790D00CCCC0C00C3300C00F4
:10374000E8A20B0064210B00AAAA0A00703D0A003F
:103750009DD80900427B090092240900DCD30800AF
:10376000888808001042080000000800F0C1070027
:103770008787070075500700711C07003EEB0600A5
:10378000A1BC06006990060066660600703E060051
:103790006118060017F4050074D105005BB0050040
:1037A000B290050062720500555505007839050094
:1037B000B81E0500050505004EEC040087D4040082
:1037C000A1BD040090A7040049920400C17D04003B
:1037D000EE690400C7560400444404005C3204004F
:1037E0000821040041100400000004003FF0030021
:1037F000F8E0030026D20300C3C30300CCB50300E6
:103800003AA803000A9B0300388E0300C08103001E
:103810009F750300D0690300505E03001D53030031
:1038200034480300913D030033330300162903009D
:10383000381F030097150300300C03000303030037
:103840000BFA020049F10200BAE802005CE0020053
:103850002DD802002DD0020059C80200B0C00200CD
:1038600031B90200DAB10200AAAA0200A0A3020044
:10387000BC9C0200FA9502005C8F0200DF88020007
:1038800082820200457C0200277602002770020037
:10389000436A02007C640200D05E02003F590200CD
:1038A000C8530200FFFDFCFAF8F6F4F2F0EEECEA81
:1038B000E9E7E5E3E1E0DEDCDAD9D7D5D4D2D0CF51
:1038C000CDCBCAC8C7C5C3C2C0BFBDBCBAB9B7B6E5
:1038D000B4B3B2B0AFADACAAA9A8A6A5A4A2A1A04A
:1038E0009E9D9C9A99989795949392908F8E8D8B8C
:1038F0008A8988878684838281807F7E7D7B7A79AE
:103900007877767574737271706F6E6D6C6B6A69AF
:103910006867666564636261605F5E5D5C5B5A599F
:1039200058585756555453525150504F4E4D4C4B7A
:103930004A4A4948474646454443424241403F3E41
:103940003E3D3C3B3B3A39383837363535343332F7
:10395000323130302F2E2E2D2C2B2B2A292928279F
:103960002726252524232322212120201F1E1E1D3A
:103970001C1C1B1B1A1919181817161615151413C9
:103980001312121111100F0F0E0E0D0D0C0C0B0A4D
:103990000A090908080707060605050404030302C7
:1039A000020100005761726E696E673A20486F6DC0
:1039B000696E672042756D702044697669736F7215
:1039C000203C20310A006F70656E206661696C656D
:1039D000642C2046696C653A2000544845524D419C
:1039E0004C2052554E4157415900546865726D61E3
:1039F0006C2052756E6177617900706F7765726FB8
:103A0000666600506C65617365205265736574006D
:103A10005052494E5445522048414C54454400258B
:103A2000533A202553004B494C4C45442E2000501E
:103A300072696E7465722068616C7465642E206BA7
:103A4000696C6C28292063616C6C6564210A006FC5
:103A500070656E00545249474745524544006669B7
:103A60006C616D656E74007A5F6D696E00795F6D73
:103A7000696E00785F6D696E005265706F7274696F
:103A80006E6720656E6473746F70207374617475F3
:103A9000730A0020436F756E7420583A004732391C
:103AA00020503420523939392054004732380A47DF
:103AB0003239205031004D313137204D6573682047
:103AC0002569204C6F6164656400473239204C25BC
:103AD00069004D313137204D6573682025692053C9
:103AE000617665640047323920532569004C6F6167
:103AF0006420426564204D657368004D656D6F728A
:103B00007920536C6F74004E6F2053746F7261672D
:103B10006500486F6D696E672058595A0047323901
:103B200020503420582573205925732052256900D0
:103B3000202D2D2D2D2D00473238004732392053AE
:103B40002D31004F6666205072696E746572204296
:103B500061636B757000473239205431004F7574C2
:103B600070757420666F72204353560047323920B7
:103B70005430004F757470757420666F7220486FF2
:103B800073740045646974204D6573680047323969
:103B900020493939390A47323920503220422054DD
:103BA00030004D616E75616C6C79204275696C6492
:103BB000204D65736800372E20536176652042657D
:103BC00064204D65736800362E2046696E6520546A
:103BD000756E6520416C6C00352E2056616C6964F1
:103BE000617465204D65736800342E2046696E65EA
:103BF0002054756E6520416C6C00332E2056616C2C
:103C00006964617465204D657368004732392050DE
:103C10003320543000322E20536D61727420466977
:103C20006C6C2D696E00312E204275696C642043E6
:103C30006F6C64204D657368004C6F6164206D6D1E
:103C400000556E6C6F6164206D6D00416476616E2D
:103C50006365204B00202F002042403A0020403A6C
:103C6000007C3C3E5E2B3D3F2F5B5D3B2C2A225C63
:103C70000002687474703A2F2F6D61726C696E6601
:103C8000772E6F7267004275696C64203435370097
:103C90004D313030302053002020506C616E6E6505
:103CA0007242756666657242797465733A200020C7
:103CB00046726565204D656D6F72793A2000436FDD
:103CC0006D70696C65643A2044656320333120323D
:103CD0003031390A00204C6173742055706461746E
:103CE00065643A20323031392D31322D3139207C22
:103CF00020417574686F723A20285665727461624B
:103D00007265616B6572290A004275696C642034C2
:103D100035370A004D61726C696E0020536F66740E
:103D2000776172652052657365740A00205761746B
:103D30006368646F672052657365740A002042727D
:103D40006F776E206F75742052657365740A00205A
:103D500045787465726E616C2052657365740A00F3
:103D6000506F77657255700A006175746F25632E08
:103D70006700473237006572726F7220777269741C
:103D8000696E6720746F2066696C650A00446F6E07
:103D90006520736176696E672066696C652E0A001E
:103DA0004D323900255320256320256320256320CB
:103DB00025630020593A00656E6473746F70732038
:103DC0006869743A20001FFFFFFFFFFFFF600000DB
:103DD000000001FF400000000000FF800000000024
:103DE000007F83CF00000C303F87FF80000C301F26
:103DF000867980000C000F8C30C7838C30E78C30C4
:103E0000CFC7CC31F38C30DCECEC33B98C30D86CD0
:103E10006C33198C30D06C0C33198C30D86C0C335B
:103E2000198C30DC6C0E3B198C30CF7C079F198CC1
:103E300030C77C038F1940000000000002600000C2
:103E4000000000061FFFFFFFFFFFF85072696E744D
:103E50002066726F6D204D6564696100446973610D
:103E6000626C6552756E6F757400496E736572741D
:103E70002066696C616D656E7420616E6420736587
:103E80006E64204D3130380A00486F6D652025730F
:103E90002573257320466972737400626567696EC5
:103EA0000050757267654D6F726500436F6E74697F
:103EB0006E7565004C6F61642046696C616D656E5E
:103EC0007420540020573A00220A00556E6B6E6F22
:103ED000776E20636F6D6D616E643A2022004F75BE
:103EE00074616765205265636F766572790042611F
:103EF000636B004368616E67652046696C616D6540
:103F00006E7400436F6E66696775726174696F6E77
:103F1000004D313030300053746F70205072696E34
:103F20007400526573756D65205072696E7400532C
:103F3000746F70004D3231004368616E6765204DCB
:103F400065646961004175746F7374617274004EC9
:103F50006F204D656469610054756E65005374612E
:103F60007274205072696E740043616E6E6F7420BB
:103F7000656E746572207375626469723A2000021E
:103F80002E2E005061726B696E672E2E2E0000007F
:103F90005761697420666F720066696C616D656E49
:103FA00074206368616E676500746F20737461725A
:103FB00074005761697420666F720066696C616D88
:103FC000656E7420756E6C6F616400004E6F7A7A56
:103FD0006C652068656174696E6700506C6561731B
:103FE0006520776169742E2E2E0000507265737300
:103FF00020627574746F6E00746F20686561742040
:104000006E6F7A7A6C650000496E73657274206613
:10401000696C616D656E7400616E642070726573A9
:104020007320627574746F6E00746F20636F6E74AA
:10403000696E7565005761697420666F7200666904
:104040006C616D656E74206C6F6164000050726508
:10405000737320427574746F6E00746F2072657391
:10406000756D65207072696E740000576169742007
:10407000666F72207072696E7400746F207265735F
:10408000756D652E2E2E00005761697420666F7263
:104090000066696C616D656E74207075726765008D
:1040A00000453100626564002C2073797374656D7E
:1040B0002073746F70706564212048656174657247
:1040C0005F49443A200048656174696E6720466123
:1040D000696C65640048656174696E672066616932
:1040E0006C656400202D20496E76616C69642065E2
:1040F00078747275646572206E756D6265722021C8
:104100000A004572723A204D415854454D50004DB9
:10411000415854454D5020747269676765726564F3
:10412000004572723A204D494E54454D50004D495C
:104130004E54454D5020747269676765726564001E
:104140004D383420450070012C0190012701B00149
:104150002201C0011D01F0011801100213013002FB
:104160000E016002090190020401C002FF00000379
:10417000FA004003F5008003F000D003EB002004B8
:10418000E6007004E100E004DC004005D700C00553
:10419000D2004006CD00D006C8008007C30030081A
:1041A000BE00F008B900C009B400B00AAF00B00BFF
:1041B000AA00D00CA500000EA000500F9B00C0105C
:1041C00096005012910000148C00C0158700B017A3
:1041D0008200B0197D00D01B7800001E73004020C3
:1041E0006E0090226900F024640040275F0090294F
:1041F0005A00E02B5500102E500020304B0010329A
:104200004600E033410090353C00103737007038ED
:104210003200A0392D00B03A2800A03B2300603CBA
:104220001E00103D1900903D1400103E0F00703E1E
:104230000A00C03E0500003F0000403FFBFF803FFA
:10424000F6FFC03FF1FF4469736D697373005072EC
:10425000696E742050617573656400506175736593
:10426000205072696E74004D656469612052656DFD
:104270006F766564004D6564696120496E7365728F
:10428000746564006E6F74696669636174696F6EEA
:1042900020003344205072696E746572205265614B
:1042A00064792E005072696E74696E672E2E2E002E
:1042B00063616E63656C005072696E742041626F59
:1042C000727465640055492041626F7274656400C0
:1042D0004D323520500A4D323400526573756D658C
:1042E00000554920506175736500726573756D6581
:1042F00000204A00205200454550524F4D20496E43
:10430000697469616C697A65640A004D6573682037
:10431000736176656420696E20736C6F7420003F52
:10432000556E61626C6520746F2073617665206DD7
:1043300065736820646174612E0A0020736C6F7469
:104340003D00206D65736865735F656E643D004573
:1043500032454E443D00206D65736820736C6F7468
:104360007320617661696C61626C652E0A003F4959
:104370006E76616C696420736C6F742E0A004D65F3
:104380007368206C6F616465642066726F6D207362
:104390006C6F7420003F556E61626C6520746F20F5
:1043A0006C6F6164206D65736820646174612E0AAE
:1043B0000048617264636F6465642044656661757A
:1043C0006C742053657474696E6773204C6F6164FC
:1043D00065640A0020286D6D29002028696E290077
:1043E00046616872656E686569740043656C7369DF
:1043F0007573004B656C76696E00556E696669650C
:104400006420426564204C6576656C696E670020A7
:10441000204D363033200020204D343132205300DF
:1044200046696C616D656E742072756E6F7574206F
:1044300073656E736F723A0A0020204D3432352056
:1044400046004261636B6C61736820636F6D7065D9
:104450006E736174696F6E3A0A0020550046696C8C
:10446000616D656E74206C6F61642F756E6C6F6129
:1044700064206C656E677468733A0A0020204D39B9
:104480003030204B004C696E65617220416476616A
:104490006E63653A0A0020204D38353220490053BA
:1044A0006B657720466163746F723A200A002020A2
:1044B0004D343133205300506F7765722D4C6F733C
:1044C00073205265636F766572793A0A0020204D39
:1044D000333034205000204C0020204D3330312028
:1044E00050005049442073657474696E67733A0ACA
:1044F0000020480020204D3134352053004D617498
:10450000657269616C206865617475702070617294
:10451000616D65746572733A0A00206D6573686534
:10452000732E0A0A00454550524F4D2063616E209C
:10453000686F6C6420000A416374697665204D657C
:10454000736820536C6F743A200020204D34323051
:1045500020530020204D323035204200204A3C6A52
:10456000756E635F6465763E00416476616E636577
:10457000643A20423C6D696E5F7365676D656E7469
:104580005F74696D655F75733E20533C6D696E5F46
:1045900066656564726174653E20543C6D696E5F4A
:1045A00074726176656C5F66656564726174653EA0
:1045B0000020204D323034205000416363656C652B
:1045C000726174696F6E2028756E6974732F73320F
:1045D000293A20503C7072696E745F616363656C48
:1045E0003E20523C726574726163745F61636365FF
:1045F0006C3E20543C74726176656C5F61636365E8
:104600006C3E0A0020204D32303120540020204DD5
:104610003230312058004D6178696D756D204163ED
:1046200063656C65726174696F6E2028756E69745C
:10463000732F7332293A0A0020204D323033205430
:104640000020204D3230332058004D6178696D755F
:104650006D206665656472617465732028756E6986
:1046600074732F73293A0A00537465707320706550
:104670007220756E69743A0A00203B20556E697489
:104680007320696E200020204D3134392000203BFA
:10469000002020473200486F6D696E6720466169CF
:1046A0006C65640000004843000048430000A040DF
:1046B0000000F0410000A0420000A0420000C843FA
:1046C0000000D7430000D743D0070000D007000008
:1046D00064000000A00F000000002100240027005B
:1046E0002A002D0030003300010100000401070101
:1046F0000A0100002200250028002B002E003100B6
:10470000340002010000050108010B010000200037
:104710002300260029002C002F0032000001000099
:104720000301060109010505050507050808080834
:10473000020202020A0A0808040404040101010139
:104740000101010103030303030303030407070734
:104750000C0C0C0C0C0C0C0C0202020206060606D9
:10476000060606060B0B0B0B0B0B0B0B01021020A6
:104770002008081020401020408002010201080497
:10478000020101020408102040808040201008042B
:104790000201800402018040201008040201080484
:1047A00002010102040810204080010204081020C8
:1047B000408000000A0B02090C0D0E0807030401DB
:1047C00000000000000000000000000000000000E9
:1047D00000000000000000000000000000001211B6
:1047E00010000000000000000000000000000000B9
:1047F00000000000000000004D6F76652025736DFD
:104800006D004D6F766520302E316D6D004D6F76E9
:104810006520316D6D004D6F76652031306D6D0016
:104820004D6F7665204178697300486F74656E64DA
:1048300020746F6F20636F6C6400457874727564C8
:104840006572004D6F7665205A004D6F7665205970
:10485000004D6F7665205800AB020F0211241FBE79
:10486000CFEFD1E2DEBFCDBF00E00CBF13E0A0E090
:10487000B2E0E2EEF8E303E00BBF02C007900D9256
:10488000A639B107D9F729E1A6E9B3E001C01D9225
:10489000A83CB207E1F714E2CDE2D4E200E006C0A2
:1048A00021970109802FFE010F94E597CC32D107A3
:1048B00080E00807A9F70F94EC840D945F9C0C949A
:1048C00000002F923F924F925F926F927F928F9251
:1048D0009F92AF92BF92CF92DF92EF92FF920F938F
:1048E0001F93CF93DF93CDB7DEB7C255D1090FB673
:1048F000F894DEBF0FBECDBF62968FAF6297209156
:10490000F9172F962FAF2F9721E02093F917809159
:10491000E80D8D3409F44DC5843511F40C94C63678
:10492000873411F00C94EA368091E60D9091E70DF2
:104930008B31910509F419C4A4F48430910509F46C
:10494000E0C01CF4029768F130C58431910509F488
:1049500002C48531910509F403C40C9709F025C5FB
:104960000FC18A32910509F4B0C45CF48C31910511
:1049700009F415C44D9709F018C50E947CCE0C941B
:10498000EC368B35910509F41AC48C35910509F480
:104990001BC48A35910509F008C51092D0100C94FB
:1049A000EC3680919602882311F40C94EC3628E5BD
:1049B000A22E23E0B22E36E5C32E32E0D32E4DE4F4
:1049C000E42E4EE0F42E10E0D5018D915D010E94A1
:1049D000EFC7882349F1812F0E94463D762E872E0E
:1049E000982E092F8091F20C81111EC0812F0E94F8
:1049F000023A882371F0D6012D913D914D915C9141
:104A0000672D782D892D902F0F94EE97762E872E77
:104A100002C0892D902F472D582DBC01F7014083EE
:104A20005183628373830AC0F60180819181A281E0
:104A3000B381F70180839183A283B3831F5FF4E086
:104A4000CF0ED11C24E0E20EF11C133009F0BCCFD4
:104A500085E40E94EFC7882321F183E00E94463D50
:104A60007B018C0183E00E94023A882371F020913F
:104A70006202309163024091640250916502B70175
:104A8000C8010F94EE977B0101C0C801A701BC01CA
:104A90004093590E50935A0E60935B0E70935C0EC8
:104AA00010C08091620290916302A0916402B09163
:104AB00065028093590E90935A0EA0935B0EB093AB
:104AC0005C0E86E40F94A05620E030E0A9010F941C
:104AD000B599181684F40E9499C720E030E040E7A9
:104AE00052E40F947698609352027093530280932D
:104AF0005402909355020E94173C0F946D2B0C9416
:104B0000EC3680E50E94EFC7882329F00E940F420F
:104B10006B017C0103C0C12CD12C760183E50E947E
:104B2000EFC7882361F00E9462C720E030E04AE7C7
:104B300054E40F9450910F94EF986B017C010F9403
:104B4000281A8091B511811105C060E086ED97E0CB
:104B50000F9425710F94DB7EC60ED71EE81EF91E3A
:104B60000F94DB7EDC01CB018C199D09AE09BF09D6
:104B7000B7FD02C00C94EC3680E00E942D6FF0CFA0
:104B80000F94F85881110C94EC3660E070E080E5E9
:104B90000E94863CD82E65E070E083E50E94863C4A
:104BA0007C01382E65E070E084E50E94863C282E6A
:104BB00040E050E060ED70E482E50E940BC84B01DC
:104BC0005C018091E10D87FF02C00C94F936809161
:104BD000E20D837011F00C94F93611E002E0012B24
:104BE0001091D110812F0E94E2C818A619A61AA60A
:104BF0001BA61CA61DA61EA61FA618AA19AA1AAA9D
:104C00001BAA80E090E0A0E2B1EC8C8F9D8FAE8F6C
:104C1000BF8F18A219A21AA21BA21CA21DA21EA21B
:104C20001FA232E0D3120CC0011105C08FED97E036
:104C30000E9437CA8BC21C8E1D8E1E8E1F8E24C0F2
:104C400000FD10C08091560290915702A091580229
:104C5000B09159028C8F9D8FAE8FBF8F88A799A777
:104C6000AAA7BBA701FD10C080915A0290915B02D8
:104C7000A0915C02B0915D0288A399A3AAA3BBA3F3
:104C80008CA79DA7AEA7BFA780915E0290915F02FF
:104C9000A0916002B09161028CA39DA3AEA3BFA3BB
:104CA00088AB99ABAAABBBAB81E0D81629F092E0F8
:104CB000D91609F45EC1F1C128A539A54AA55BA59D
:104CC0006C8D7D8D8E8D9F8D0F94ED974B015C01CA
:104CD00020E030E0A9010F94EA90882309F436C25D
:104CE0002CA53DA54EA55FA568A179A18AA19BA190
:104CF0000F94ED976B017C0120E030E0A9010F9447
:104D0000EA90882309F422C28CE0E6E5F2E0DE01B5
:104D1000119601900D928A95E1F71CAE1DAE1EAE64
:104D20001FAE88E0FE01B896DE01D49601900D9288
:104D30008A95E1F7BE01645C7F4FCE01C4960F9463
:104D4000E929220C20E030E0A901C501B4010F944B
:104D5000B5992401350187FF04C077FA709477F87C
:104D6000709420E030E0A901C701B6010F94B59915
:104D700087FF0AC0D701C601B05828968CAF9DAFF7
:104D8000AEAFBFAF289706C02896CCAEDDAEEEAE74
:104D9000FFAE2897A301920128966CAD7DAD8EAD34
:104DA0009FAD28970F94EA90181614F075016401CE
:104DB000A22DB0E02A96BFAFAEAF2A97BD01BB0FC0
:104DC000880B990B0F94F1909B01AC01C701B601C0
:104DD0000F9476984B015C01D12CD31408F055C187
:104DE00000E0802F002E000C990B2A96EEADFFAD4F
:104DF0002A978E179F070CF05CC000FF05C09E012C
:104E0000245E3F4F790103C0CE0188967C01A30147
:104E1000920128966CAD7DAD8EAD9FAD28970F9415
:104E2000EA90402F002E000C550B660B770B1CAA46
:104E30001DAA1EAA1FAA1816ECF0CB01BA010F94E6
:104E4000F190A50194010F9450919B01AC0168A5CC
:104E500079A58AA59BA50F94EE976CAF7DAF8EAF19
:104E60009FAFB7016C5F7F4FAE014C5C5F4FCE01CF
:104E7000CC961BC0CB01BA010F94F190A50194010F
:104E80000F9450919B01AC016CA57DA58EA59FA5AB
:104E90000F94EE976CAF7DAF8EAF9FAFAE014C5CC1
:104EA0005F4FBE01645C7F4FC7010F94C7290F5F3E
:104EB00098CF022D07FD5BC000FF04C0DE015C96A9
:104EC0007D0103C0FE01B8967F01A30192012896DF
:104ED0006CAD7DAD8EAD9FAD28970F94EA90402FBD
:104EE000002E000C550B660B770B1CAA1DAA1EAAE0
:104EF0001FAA1816ECF0CB01BA010F94F190A5018E
:104F000094010F9450919B01AC0168A579A58AA5E5
:104F10009BA50F94EE976CAF7DAF8EAF9FAFB7019F
:104F20006C5F7F4FAE014C5C5F4FCE01CC961BC0D7
:104F3000CB01BA010F94F190A50194010F94509107
:104F40009B01AC016CA57DA58EA59FA50F94EE9746
:104F50006CAF7DAF8EAF9FAFAE014C5C5F4FBE01BB
:104F6000645C7F4FC7010F94C7290150A3CFD3942E
:104F700034CF332009F4EAC08CE0E6E5F2E0DE014C
:104F8000119601900D928A95E1F71CAE1DAE1EAEF2
:104F90001FAE88E0FE01B896DE01D49601900D9216
:104FA0008A95E1F7BE01645C7F4FCE01C4960F94F1
:104FB000E92900E0E12CF12C24961CAE1DAE1EAEBA
:104FC0001FAE2497B7010F2C000C880B990B0F9480
:104FD000F1902CE739ED40E25FE30F9450912B0103
:104FE0003C010F9471989B01AC01C501B4010F9471
:104FF00050919B01AC0168A179A18AA19BA10F945A
:10500000EE976CAF7DAF8EAF9FAFC301B2010F942F
:105010003D9A9B01AC01C501B4010F9450919B01D5
:10502000AC016C8D7D8D8E8D9F8D0F94EE976CAB4A
:105030007DAB8EAB9FABAE01405C5F4FBE01645C4D
:105040007F4FCE01C4960F94C729FFEFEF1AFF0AD6
:105050002AE0E216F10409F0AFCF0F5F031508F460
:10506000A9CF1CAE1DAE1EAE1FAE88E0FE01B896E5
:10507000DE01D49601900D928A95E1F7BE01645C41
:105080007F4FCE01C4960F94E9291CAA1DAA1EAA1F
:105090001FAABE016C5C7F4F55C08CE0E6E5F2E0D4
:1050A000DE01119601900D928A95E1F71CAE1DAEBE
:1050B0001EAE1FAE88E0FE01B896DE01D4960190C8
:1050C0000D928A95E1F76E0134E3C30ED11CBE0147
:1050D000645C7F4FC6010F94E929FF24F594E7949F
:1050E00000E05601802F90E08E159F0534F51CAE30
:1050F0001DAE1EAE1FAE88E0FE017C96D50101906C
:105100000D928A95E1F7BE01645C7F4FC6010F9452
:10511000E9291CAE1DAE1EAE1FAE88E0FE01B8969A
:10512000D60101900D928A95E1F7BE01645C7F4F34
:10513000C6010F94E9290F5FD5CF1CAA1DAA1EAA8C
:105140001FAAB601CE0101960F94EF29812F0E946C
:10515000E2C80C94EC3681E00F9447080C94EC36CE
:1051600080E00F9447080C94EC360F94F8588111A6
:105170000C94EC368CE0E7EAF2E0DE011196019047
:105180000D928A95E1F760E070E080E50E94863C30
:10519000BE016F5F7F4F0F94566C0C94EC3680917C
:1051A0004C0E8770873011F00C94083760E08FE464
:1051B0000E948C6481110C94EC360C9408378FE0BB
:1051C0008093D0100C94EC368091E50D882351F13A
:1051D000893009F076C0B8E5CB2EB3E0DB2E16E5BA
:1051E000E12E12E0F12E312C00E010E0D6018D917D
:1051F0006D010E94EFC7882371F0812F0E94463D08
:10520000F7016083718382839383133011F401E08B
:1052100002C0332433941F5FF4E0EF0EF11C14300E
:1052200029F744C0F8E5CF2EF3E0DF2EA6E5EA2EFD
:10523000A2E0FA2E312C00E010E0D6018D916D0134
:105240000E94EFC7882361F1812F0E94463D4B01E8
:105250005C01F70120813181428153810F94ED97E8
:105260002B013C012DEB37E346E855EB0F94B59944
:1052700087FD0AC02DEB37E346E855E3C301B201D1
:105280000F94EA90181664F4133011F401E002C090
:1052900033243394D7018D929D92AD92BC92139793
:1052A0001F5FB4E0EB0EF11C143039F6332019F017
:1052B0000F94322A06C0002321F082E692E00F9478
:1052C000391A0F94342A0C94EC3680919602882374
:1052D00011F40C94EC3689E40E94EFC7E82E882381
:1052E00021F00E945EC7F82E01C0F12C8AE40E94D2
:1052F000EFC7082F882321F00E945EC7182F01C036
:1053000010E0EE2019F0E4E0EF1520F0002341F06A
:10531000153030F083E098E00E9437CA0C94EC36E8
:1053200080E1E6E5F2E0ADE4BEE001900D928A9501
:10533000E1F7EE2059F08F2D0E9498C860934D0E32
:1053400070934E0E80934F0E9093500E002359F0A1
:10535000812F0E9498C86093510E7093520E8093D3
:10536000530E9093540E86E40F94A0566B017C016B
:1053700020E030E0A9010F94B59918164CF420E014
:1053800030E040E752E4C701B6010F94769803C0BD
:1053900060E070E0CB0169837A838B839C83CE01CC
:1053A00001960F9464360C94EC360F94CC540C9404
:1053B000EC368091E60D9091E70D8C38910509F45B
:1053C00059C60CF09EC18235910509F493C60CF0C4
:1053D000B0C08B31910509F48CC30CF056C08531F7
:1053E000910509F4E4C2B4F58131910509F4CBC209
:1053F00044F4029710F00C94C3360F9471080C9487
:10540000EC368231910509F483C6449711F00C946F
:10541000C3368AE398E00E9437CA87EF92E10F947F
:10542000B5498BE1E7EFF2E1DE01119601900D92B3
:105430008A95E1F760E070E0CE0101960E94B6BE69
:10544000CE0101960E94AB648BE298E00E9437CABD
:105450000C94EC368831910509F4CAC26CF486319B
:10546000910509F4A8C2479711F00C94C336E09156
:10547000E30DF091E40DACC28931910509F420C32C
:105480004A9709F428C30C94C3368A32910509F46B
:105490006EC4ECF48E31910509F485C37CF48C3133
:1054A000910509F478C34D9711F00C94C33680919F
:1054B000DA128E7F8093DA120C94EC368F319105DC
:1054C00009F4AAC3809709F47EC30C94C3368C34C4
:1054D000910509F4A0C46CF48934910509F46AC4F7
:1054E0008B34910511F00C94C3360E943B6D0C94E3
:1054F000EC368D34910509F491C48135910511F094
:105500000C94C3360F9413630E94A5940F94DC1B74
:105510000E94116D68EE73E080E090E00E9460C927
:105520000E94566D60E084EA98E00F9425710C9417
:10553000EC368E36910509F425C5DCF588369105E3
:1055400009F46FC4E4F48535910509F4E4C554F415
:105550008335910509F4D5C58435910509F4D8C57D
:105560000C94C3368C35910509F4EEC5843691054B
:1055700011F00C94C3360E94D3610C94EC368B3638
:10558000910509F4F2C454F48936910509F4B5C4BF
:105590008A36910509F4C7C40C94C3368C3691053C
:1055A00011F40C94EC368D36910509F455C40C9425
:1055B000C3368537910509F47BC60CF083C081376B
:1055C000910509F435C55CF48F36910509F4EBC4F7
:1055D0008037910511F40C94EC360C94C336823765
:1055E000910509F462C68337910511F00C94C33616
:1055F00081ED99E00E9437CA60E081EC99E00F9458
:10560000060960E08CEA99E00F94060961E08DECF0
:1056100097E10F94060960E081EA99E00F9406098A
:1056200061E081E999E00F94060960E088E899E07B
:105630000F94060961E08EE799E00F94060961E096
:1056400084E799E00F94060960E08CE699E00F94F6
:10565000060961E08EE599E00F94060961E080E5B6
:1056600099E00F94060960E081E499E00F9406093F
:1056700061E083E399E00F94060961E08DE199E030
:105680000F94060961E08CE099E00F94060961E04F
:105690008DEF98E00F94060961E088EE98E00F9492
:1056A000060961E085ED98E00F94060960E088EC5A
:1056B00098E00F94060960E084EB98E00F940609E7
:1056C0000C94EC368837910509F43DC66CF48637A6
:1056D000910509F4FEC58737910511F00C94C33686
:1056E0000F94132B0C94EC368937910509F433C6CB
:1056F0008D37910511F00C94C3360E945B410C94D8
:10570000EC368039F1E09F0711F40C9482340CF0F0
:1057100080C08D3C910509F434C7ECF5853A9105BC
:1057200009F4CFC6CCF48B39910509F4BDC454F407
:105730008139910509F416C68539910509F46BC6BE
:105740000C94C336833A910509F480C6843A9105D6
:1057500009F4A4C60C94C336893C910509F4B7C674
:105760006CF4863A910509F4AFC68E3B910511F0B1
:105770000C94C3360F9483030C94EC368B3C910548
:1057800009F4D6C68C3C910511F00C94C3360E94E6
:10579000BF460C94EC368C32A1E09A0709F4E0C7BE
:1057A000CCF48D3D910509F4FFC654F4833D910579
:1057B00009F4EAC68C3D910509F4E9C60C94C33698
:1057C000823E910509F43BC78232914009F483C7B8
:1057D0000C94C3368F32F1E09F0711F40C947F34A0
:1057E00064F48D3231E0930709F4CFC78E329140D3
:1057F00011F40C943B340C94C3368033B1E09B0716
:1058000009F4C6C78336914011F40C9467360C94A2
:10581000C336883FF1E09F0711F40C9411350CF06A
:1058200055C0893A31E0930711F40C949C341CF56F
:105830008D39B1E09B0711F40C94A9366CF48A39C8
:10584000F1E09F0711F40C94EC368C39914011F47F
:105850000C9485340C94C336843A31E0930711F4E8
:105860000C949934853A914011F00C94C3360E94FF
:10587000CC6A0C94EC36853FB1E09B0711F40C9494
:105880000B357CF4863EF1E09F0711F40C949F34B5
:10589000843F914011F00C94C3360E94D2880C943E
:1058A000EC36863F31E0930711F40C940E35873FB8
:1058B000914011F00C94C33661E083E50E948C6442
:1058C00091E089270F942D780C94EC368E3BB2E052
:1058D0009B0711F40C9428361CF58835F2E09F07DD
:1058E00011F40C94AB356CF48C3032E0930711F466
:1058F0000C9421358F33924011F40C9429350C947B
:10590000C3368B35B2E09B0711F40C94AE358D3B5A
:10591000924011F00C94C3360E94A13E0C94EC36D8
:105920008438F3E09F0711F40C942B366CF4843523
:1059300033E0930711F40C94A8358C36934011F49E
:105940000C94EC360C94C336873EB3E09B0711F4FD
:105950000C949B36883EE3E09E0711F40C94C0360D
:10596000803A934011F00C94C3362091E30D3091AE
:10597000E40D9091DA1292609093DA12C9010E94BC
:105980008ABD0C94EC368091DF0D84FF02C00C942C
:10599000D1388091E10D87FF02C00C94D1388091FD
:1059A000E20D837011F00C94D1380C94E9380E9408
:1059B00000B80C94EC360E948FB78091DA12877F82
:1059C0008093DA120C94EC36803209F4108231960E
:1059D00080818111F9CF60E08091E30D9091E40D19
:1059E0000E94D8BD10927E0D10927D0D0C94EC3665
:1059F00083E50E94EFC7882321F00E944EC70F94D1
:105A00005F0584E50E94EFC78823A9F00E944EC776
:105A10006B017C010E945194C0920305D092040551
:105A2000E0920505F0920605CD28CE28CF2819F082
:105A300081E08093070580912B058823E9F080E0C1
:105A400090E0A8ECB1E489839A83AB83BC831C8E7D
:105A50001D8E1E8E1F8E18A619A61AA61BA620E044
:105A6000AE014F5F5F4FBE01645E7F4FCE018896EF
:105A70000E94FF660C94EC360E94176D882381F01B
:105A80000E94A0B70E943B6D89E391E10E9445B757
:105A90001092E90D1092EA0D1092EB0D1092EC0DA0
:105AA00061E08AEE92E40E94474946E452E46BE4E6
:105AB00078E085E00E94F8660F94FD710C94EC3656
:105AC0008091DA1282FF03C08B7F8093DA120E94EA
:105AD0005B410C94EC368091DA1283FD02C00C9489
