:100000000C9433240C9464240C9464240C94642481
:100010000C9464240C9464240C9464240C94642440
:100020000C9464240C9464240C9464240C94642430
:100030000C9464240D943B580C9464240C94642414
:100040000C9464240D9490160C9464240C946424F1
:100050000C9464240C9464240D9498630D947D7F17
:100060000C9464240C94A45C0C949A5C0C9464240A
:100070000C9464240C9464240C9464240C946424E0
:100080000C9464240C9464240C9464240C946424D0
:100090000C9464240C9464240C9464240C946424C0
:1000A0000C9464240C9464240C9464240C946424B0
:1000B0000C9464240C9464240C9464240C946424A0
:1000C0000C9464240C9464240C9464240C94642490
:1000D0000C9464240C9464240C9464240C94642480
:1000E0000C946424DA5CE05CF25C025D0A5D3A5DCB
:1000F0000E5D3A5D125D165D3A5D1A5D1E5D225D14
:100100002B5D3A5D365D5BD200D139D197D239D1C2
:1001100039D139D139D139D139D139D139D139D18F
:1001200039D139D139D139D139D139D139D139D17F
:1001300039D139D139D139D139D139D139D139D16F
:1001400039D191D239D139D139D139D139D139D106
:1001500039D139D16AD239D139D139D139D139D11D
:1001600039D139D139D139D139D1AED236D13D0297
:10017000EB01CB0203038302F3019B01C1021903CC
:100180001B0351021B028901390151010F026D014C
:10019000BF01B10133024501D1024F01E9018902DA
:1001A000B902BF01CB012503E701E301ED02930290
:1001B0001103D3022D0311023B026501C701A902FD
:1001C0003F0227035D022D0325028B01710105A863
:1001D0004CCDB2D44EB93836A9020C50B9918688AC
:1001E000083CA6AAAA2ABE000000803F0763423648
:1001F000B79BD8A71A39685618AEBAAB558C1D3CB8
:10020000B7CC5763BD6DEDFD753EF6177231BF007B
:100210000000803F08000000BE922449123EABAAB5
:10022000AA2ABECDCCCC4C3E00000080BEABAAAA10
:10023000AA3E00000000BF000000803F0000000058
:1002400000084178D3BB4387D1133D190E3CC3BD91
:100250004282AD2B3E68EC8276BED98FE1A93E4C3E
:1002600080EFFFBE01C4FF7F3F00000000000D943F
:10027000E8420D947D7D0C945BD20C9466C50D9480
:10028000DC450C94E05C0D945F480D948B7D0D94DF
:1002900088490C947CA30C9498DD0C9465700D94A3
:1002A000937D0D946C7D0C946AD20C94E9770D9437
:1002B00016410C94125D0C94AE700C94E1A60D9452
:1002C000A3450D9478830C9481710D94CF7E0D9489
:1002D00046110D940E470D9428460D94767D0C948E
:1002E00097D20D94247F0D9449630C9456A10D94DC
:1002F0003E410D94F0460C94A1DD0D94EF1F0D943A
:1003000046470D94DF720C9408D00D94BF220C94D4
:10031000225D0D947A7D0D941A7F0C94A3700D9438
:100320001E410D9415470C94CA8E0C94FE900C94AB
:10033000898E0C9446760D94B75C0D9436410D94DD
:100340007C490C9439770C9427A10C9465950C94F6
:1003500029A10D9499460D947C0F0C94EAA20D945A
:1003600051400D94817D0D94830E0C940BD00D940F
:100370000B580C9421700C943A5D0C94BFD90D94D9
:10038000B47D0D94E2210C941E5D0D948E490D9464
:10039000D97E0D945E0E0D94A77D0C94DA970D9482
:1003A000DC4B0D9406460C94F2BA0D9436460C9430
:1003B000D89D0C9499970C94F25C0C9431970D9401
:1003C0003A410C94DA5C0D94977E0D9433250D948C
:1003D000AF7D0D94997D0D94A85C0D9476490D9494
:1003E0009A490D9401210D94B45C0C947EA30D9454
:1003F000C1480D9464100C94EB6E0D94E53E0C9482
:10040000ABDD0C9480A30C94F38F0D94590E0C94D7
:100410009DDD0D94700E0C94F0990C9473A30D94C3
:10042000707D0D94BF7E0D9462400D9490480D94A4
:1004300094490D94360E0D94C05C0D946D0E0D9480
:10044000320E0D94E1570C94B5970D94107F0C94D7
:1004500058A10D94B1210D942F240C940E5D0D9490
:10046000730E0D940C230D94857D0C9454A10C9463
:10047000365D0C947AA30D94C77E0D94C85C0D94E0
:10048000ED7E0C94478E0C94D5700C94A8C30D94FB
:1004900082490C9499D00C94F9990D9464490D9467
:1004A00026410D94BD5C0C94A6DD0C94E6970C944B
:1004B000488E0D94624A0D94540E0D94067F0D944F
:1004C00026720C9413730C94229B0D94D3460C94B7
:1004D000659F0C9471A30D944A460D944A470D9460
:1004E000F0230D94AE4A0C94369B0D941A410D9452
:1004F0006B460C94C6D70C9439D10C9436D10C941D
:10050000C2990C94BA970D94B15C0C94FF990D9418
:1005100086460D949D7D0D944F0E0C94E7A80D9486
:10052000AD3D0C94CD700D94A17E0C9449760C9445
:1005300022980C94CC990C94946F0C94FED20D9448
:100540002E410C945AA10C94E0970D9470490D948F
:10055000F2450D94E37E0C94025D0D94DF260D941C
:100560005A400C9496D00D94FC1F0C941A5D0C9478
:10057000165D0D94A17D0C94D4970C9491D20D949A
:100580002A410D94C35C0D943C130C949F970D94D9
:100590005A830D94814A0D94AE5C0C943DC50D9424
:1005A000DE3F0D948F7D0D94B57E0C94F3720C9408
:1005B000C7990C94D58F0D9407470D94EC3D0D947D
:1005C00032410D9478460C94D1990C94DF8E0D94A1
:1005D0001C470D94A6270D941A460D949C7E0C94EE
:1005E000456D0C9477C50D94820F0D945E460C9466
:1005F000506D0D94630E0C9462710D94B6460C947C
:100600002B5D0C945B770D94AB5C0C94D59C0D9496
:100610006A490C94E7D60C940A5D0C94B0970D943B
:10062000A0490D94AB7E0C9484700C9469940C9446
:1006300095D00D94BA5C0D94D55C0C94AB970D9449
:1006400068400C9400D10C94F5920D94AB7D0D9400
:10065000FC7E0D94680E0C94AED20D942E7F0D94FA
:10066000FD3F0D9422410D944C724E414E494E492E
:100670005459494E46CDCCCC3D0AD7233C17B7D16F
:100680003877CC2B329595E6241FB14F0A00002015
:10069000410000C84200401C4620BCBE4CCA1B0E94
:1006A0005AAEC59D7400407A10F35A00A0724E18DD
:1006B000090010A5D4E80000E87648170000E40B14
:1006C00054020000CA9A3B000000E1F505000080DA
:1006D000969800000040420F000000A08601000034
:1006E00000102700000000E8030000000064000084
:1006F0000000000A00000000000100000000002CC3
:1007000076D888DC674F0823DFC1DFAE59E1B1B787
:1007100096E5E3E453C63AE651997696E8E6C28454
:1007200026EB898C9B62ED407C6FFCEFBC9C9F406C
:10073000F2BAA56FA5F490055A2AF75C936B6CF991
:10074000676DC11BFCE0E40D47FEF520E6B500D067
:10075000ED902E0300943577050080841E0800007C
:10076000204E0A000000C80C333333330F986E124A
:10077000831141EF8D2114893BE65516CFFEE6DB50
:1007800018D1844B381BF77C1D901DA4BBE424209A
:100790003284725E228100C9F124ECA1E53D274339
:1007A0004F4D4D554E49434154494F4E00445259C7
:1007B00052554E004552524F5253004543484F0048
:1007C00020643A0020693A0020703A00496E766150
:1007D0006C69642065787472756465720A00536C84
:1007E0006565702E2E2E005761726E696E67203A15
:1007F00020436C65616E20436972636C652072658D
:100800007175697265732058590A004D65736820C7
:10081000706F696E742063616E6E6F742062652004
:100820007265736F6C7665640A004E6F204D6F764B
:10083000652E00456E642066696C65206C69737472
:100840000A00426567696E2066696C65206C697391
:10085000740A00526573756D696E672053440028F1
:100860006E6F2066696C65290043757272656E74DF
:100870002066696C653A2000256979202569642025
:100880002569682025696D20256973005072696E9D
:10089000742074696D653A20004520255300444555
:1008A0004255473A004D31313320530033442050F4
:1008B00072696E746572204F46462E004348414D62
:1008C0004245525F54454D504552415455524500A2
:1008D0004D4F54494F4E5F4D4F444553005448458A
:1008E000524D414C5F50524F54454354494F4E0076
:1008F0004155544F5245504F52545F53445F5354E7
:10090000415455530050524F4D50545F5355505021
:100910004F525400454D455247454E43595F504153
:100920005253455200434153455F4C494748545F39
:100930004252494748544E45535300544F47474C41
:10094000455F4C494748545300534F465457415212
:10095000455F504F574552004255494C445F504502
:100960005243454E54004C4556454C494E475F4412
:10097000415441005A5F50524F4245004155544F37
:100980004C4556454C005052494E545F4A4F420028
:1009900050524F4752455353004155544F524550C2
:1009A0004F52545F54454D5000564F4C554D455491
:1009B0005249430042494E4152595F46494C455FB6
:1009C0005452414E534645520053455249414C5FA3
:1009D000584F4E5F584F4646004649524D57415278
:1009E000455F4E414D453A4D61726C696E204275CE
:1009F000696C64203435372028476974487562294A
:100A000020534F555243455F434F44455F55524C29
:100A10003A68747470733A2F2F6769746875622E20
:100A2000636F6D2F5665727461627265616B2F4DD5
:100A300061726C696E2050524F544F434F4C5F5659
:100A4000455253494F4E3A312E30204D414348498B
:100A50004E455F545950453A3344205072696E7484
:100A600065722045585452554445525F434F554E88
:100A7000543A3120555549443A3833366661393451
:100A8000332D313333372D313333372D3133333742
:100A90002D3938613230646537353630370A002FEA
:100AA0002F20004D31343520533C696E6465783E0B
:100AB000206F7574206F662072616E676520283024
:100AC0002D31290A0020466C6F773A200050726F52
:100AD0007465637465642050696E0A00646973000C
:100AE00043290A0061626C656420286D696E207478
:100AF000656D702000436F6C642065787472756456
:100B0000657320617265200046696C616D656E7465
:100B10002072756E6F75742000454550524F4D2000
:100B20004F4B0A003F284229617564207261746549
:100B300020696D706C61757369626C652E0A0020A6
:100B400053657269616C2030206261756420726146
:100B500074652073657420746F20003F4B207661AC
:100B60006C7565206F7574206F662072616E6765A5
:100B70002028302D3130292E0A00416476616E63C1
:100B800065204B3D0043617365206C696768743A6A
:100B9000200043617365206C696768743A206F6652
:100BA000660A00506F7765722D6C6F7373207265E3
:100BB000636F766572792000BB07AB12B407AD078F
:100BC0009F0720595A3A200020585A3A20002058AE
:100BD000593A2000536B657720466163746F720049
:100BE0006D696E5F736B65775F666163746F723A90
:100BF00020202D31206D61785F736B65775F6661B2
:100C000063746F723A2020310A00416363656C653A
:100C1000726174696F6E3A2050003F4A206F75749C
:100C2000206F662072616E67652028302E3031207B
:100C3000746F20302E33290A0020633A00204D398A
:100C400032205400204D393220580020204D617848
:100C50003A200020204D696E3A2000536F667420C0
:100C6000656E6473746F70733A2000252900257CCB
:100C700000203B2043757272656E74205A00203B41
:100C800020456E6400203B2053746172740020285C
:100C900054004772616469656E74204D6978200064
:100CA0004D32342053256C642054256C6400473940
:100CB000322E3920452573004731204625640047F0
:100CC00031204531204633303030004739322E391B
:100CD000205A2573004731205A30204632303000E8
:100CE0004731205825732059257320463330303042
:100CF0000047312045312046323030004D3432300B
:100D000020532569205A2573004D31303620502557
:100D10006920532569004739322E392045305A3031
:100D20000A47315A320A47323852305859004D3446
:100D30003230205330205A300020496E76616C6981
:100D400064206578747275646572200020496E763F
:100D5000616C696420452073746570706572200051
:100D600020452073746570706572206E6F742073F7
:100D700070656369666965640A003F454550524F76
:100D80004D2073746F72616765206E6F7420617699
:100D900061696C61626C652E0A00486F74656E64EF
:100DA00020746F6F20636F6C640A0053656E64205B
:100DB0004D31303820746F20726573756D650A008F
:100DC00052656865617420446F6E650052656865A0
:100DD0006174696E67005265686561740048656199
:100DE00074657254696D656F75740053656E642027
:100DF0004D31303820746F2068656174206E6F7AD1
:100E00007A6C650A004E6F7A7A6C65205061726B5D
:100E1000656400706175736564004D3630303A204A
:100E2000546F6F20436F6C6400726573756D6564F9
:100E300000526573756D696E6700426564204C658C
:100E400076656C696E6720004661696C6564207424
:100E50006F20656E61626C6520426564204C65762A
:100E6000656C696E670A00496E76616C6964206D15
:100E70006573682E0A0076616C69640A53746F7238
:100E800061676520736C6F743A20004D657368204C
:100E9000697320003F496E76616C69642073746FDA
:100EA0007261676520736C6F742E0A004D343231A5
:100EB00020696E636F727265637420706172616D18
:100EC000657465722075736167650A003F2061640F
:100ED0006472657373203A20002062797465732010
:100EE0006F66206D656D6F727920696E69746961D6
:100EF0006C697A65642E0A0A00556E61626C652021
:100F0000746F20696E697469616C697A652E0A0A6A
:100F100000496E697469616C697A696E67206672EE
:100F20006565206D656D6F727920626C6F636B2EE5
:100F30000A0A0A00747275650A0020726574757277
:100F40006E3D000A4D656D6F727920436F72727548
:100F50007074696F6E20646574656374656420697C
:100F60006E2066726565206D656D6F7279206172A5
:100F700065612E0A002020626C6F636B5F666F757F
:100F80006E643D002020200A002920666F756E6483
:100F90003D002020204D656D6F727920636F727265
:100FA000757074696F6E2064657465637465642020
:100FB0007769746820656E645F667265655F6D65EC
:100FC0006D6F72793C486561700A0020656E645FE0
:100FD000667265655F6D656D6F7279203C2048654E
:100FE000617020002020656E645F667265655F6DCC
:100FF000656D6F72793D000A667265655F6D656D3E
:101000006F72795F73746172743D000A666D632854
:1010100029206E3D00636865636B5F666F725F6673
:101020007265655F6D656D6F72795F636F72727502
:101030007074696F6E2829203D20004D31303020BA
:1010400046200020627974657320617420000A4C88
:10105000617267657374206672656520626C6F6388
:101060006B20697320002062797465732066726555
:10107000652061742000466F756E6420000A436F1E
:101080007272757074696E672061646472657373DF
:101090003A2000436F7272757074696E67206672D1
:1010A0006565206D656D6F727920626C6F636B2E64
:1010B0000A0A000A537461636B20506F696E74658D
:1010C000722020202020202020203A20000A667252
:1010D00065655F6D656D6F72795F656E6420202058
:1010E000202020203A20000A667265655F6D656DDC
:1010F0006F72795F737461727420202020203A200F
:10110000000A6273735F656E642020202020202017
:1011100020202020202020203A200020284E6F74FC
:1011200020796574206D656173757265642900208E
:101130002041766572616765206D656173757265C2
:1011400064206261636B6C61736820286D6D293A5D
:10115000002020536D6F6F7468696E6720286D6D75
:10116000293A20202020202020202020202020205C
:10117000202020530020204261636B6C6173682043
:1011800044697374616E636520286D6D293A20206F
:1011900020202020202000202846312E30203D20F5
:1011A00066756C6C2C2046302E30203D206E6F6EA4
:1011B00065290A002020436F7272656374696F6E3F
:1011C00020416D6F756E742F466164652D6F757467
:1011D0003A202020202046006163746976653A0A2F
:1011E000004261636B6C61736820436F7272656368
:1011F00074696F6E2000206D61783A00206D696E11
:101200003A004178697320005072696E74657220EB
:1012100073746F707065642064756520746F2065E9
:1012200072726F72732E204669782074686520652B
:1012300072726F7220616E6420757365204D39394A
:101240003920746F20726573746172742E20285473
:10125000656D706572617475726520697320726561
:101260007365742E205365742069742061667465FB
:10127000722072657374617274696E67290A004D19
:1012800038373620526573706F6E64696E67205010
:10129000524F4D50545F00554E4B4E4F574E2053BA
:1012A000544154450047434F44455F494E464F0023
:1012B0004C43445F50415553455F524553554D454E
:1012C0000046494C414D454E545F52554E4F555482
:1012D0005F434F4E54494E55450046494C414D459C
:1012E0004E545F52554E4F555400507572676520ED
:1012F0004D6F7265004572726F7220777269746902
:101300006E6720746F20454550524F4D210A006290
:101310007573793A2070617573656420666F722009
:10132000696E7075740A00627573793A2070617520
:1013300073656420666F7220757365720A0062754A
:1013400073793A2070726F63657373696E670A0010
:101350007061757365004D363030002066696C61D0
:101360006D656E745F72756E6F7574200066696C62
:10137000616D656E745F72756E6F75742054004692
:10138000696C616D656E7452756E6F757420540072
:1013900053544F505045442E20004E6F20436865F3
:1013A000636B73756D2077697468206C696E652056
:1013B0006E756D6265722C204C617374204C696E81
:1013C000653A2000636865636B73756D206D6973A2
:1013D0006D617463682C204C617374204C696E6578
:1013E0003A20004C696E65204E756D626572206909
:1013F00073206E6F74204C617374204C696E65208D
:101400004E756D6265722B312C204C617374204CCB
:10141000696E653A20004D313130004D3131370071
:101420004D33310053442072656164206572726FE0
:10143000720A00446F6E65207072696E74696E671F
:101440002066696C650A002121204B494C4C2063C1
:10145000617573656420627920746F6F206D7563A8
:101460006820696E6163746976652074696D6520B2
:101470002D2063757272656E7420636F6D6D616E81
:10148000643A2000252723181F211D1C19171B1E35
:101490002E2C0C312F302B2D2904400AFF4104093A
:1014A000080700016563686F3A004572726F723A0F
:1014B0000020204D3432312049002020473239208D
:1014C0004939390A006163746976650A00205379E5
:1014D0007374656D2076312E303120002020207C01
:1014E0000A004E414E0020202E20202000207C00AB
:1014F0004C43443A0A004353563A0A0020666F723E
:1015000020003A0A0A000A42656420546F706F672F
:101510007261706879205265706F727400446F6EEA
:10152000652E0A003F496E76616C69642073746FA2
:101530007261676520736C6F742E0A3F5573652066
:101540003020746F20004732392050322066696E97
:1015500069736865642E0A005859206F7574736941
:101560006465207072696E7461626C65207261647A
:101570006975732E0A003F4572726F7220696E2082
:10158000427573696E6573732043617264206D6583
:1015900061737572656D656E742E0A004D616E75AE
:1015A000616C6C792070726F62696E6720756E7203
:1015B0006561636861626C65206D657368206C6F3E
:1015C000636174696F6E732E0A004D657368207ACB
:1015D00065726F65642E0A0044656661756C7420DF
:1015E00073746F7261676520736C6F742030207341
:1015F000656C65637465642E0A004C6F6164696E86
:101600006720746573745F7061747465726E2076A0
:10161000616C7565732E0A0A00496E76616C6964A7
:1016200020746573745F7061747465726E20766186
:101630006C75652E20282D3120746F2032290A0AFE
:10164000004C6F636174696F6E7320696E76616CB4
:101650006964617465642E0A0A00456E7469726576
:10166000204D65736820696E76616C69646174658C
:10167000642E0A0A005374616E64617264204465CA
:1016800076696174696F6E3A20004D65616E204D18
:10169000657368204865696768743A200023206F85
:1016A000662073616D706C65733A200020616E6412
:1016B0002074616B652061206D6561737572656D65
:1016C000656E742E0A006D6D20746869636B2E0A56
:1016D00000427573696E657373204361726420699B
:1016E00073200052656D6F76652026204D6561730D
:1016F000757265204265640052656D6F7665207372
:1017000068696D00506C616365207368696D207550
:101710006E646572206E6F7A7A6C650041647661E2
:101720006E6365642053657474696E677300496EF7
:10173000697400496E697469616C697A6520454510
:1017400050524F4D0043616E63656C204F626A6575
:101750006374004261636B6C6173680053746570FD
:10176000732F6D6D004A65726B00416363656C6534
:10177000726174696F6E0056656C6F63697479008D
:10178000536D6F6F7468696E6700436F7272656343
:1017900074696F6E004E65787420506F696E7400C6
:1017A0004E657874004E4F005945530043616E6397
:1017B000656C204F626A656374203D004C69676800
:1017C00074204272696768746E6573730046616E57
:1017D000205370656564004C6F61642053657474B8
:1017E000696E677300526573746F72652066616914
:1017F0006C736166650053746F7265205365747411
:10180000696E677300507265686561742050455455
:101810004720436F6E6600507265686561742050A2
:101820004C4120436F6E660043617365204C6967CD
:1018300068740004000005010003000501000504B0
:101840000000000500030042183D18381833180046
:1018500000000000007F420000FF4200403F4300C4
:10186000007F434D65736820506F696E74204D652D
:101870006173757265642061743A20000A4D657366
:1018800068206F6E6C79207061727469616C6C791C
:1018900020706F70756C617465642E0A00506C6105
:1018A0006365205368696D2026204D6561737572EC
:1018B00065004D6F76696E6720746F206E65787471
:1018C000004D6573682045646974696E67205374C0
:1018D0006F7070656400446F6E652045646974695B
:1018E0006E67204D6573680A00446F6E652045641D
:1018F0006974696E67204D6573680046696E65207E
:1019000054756E696E67204D6573680028582C59B0
:1019100029206F757473696465207072696E7461D3
:10192000626C65207261646975732E0A004F666689
:10193000736574206F7574206F6620626F756E64B6
:10194000732E20283020746F2031306D6D290A0AE3
:1019500000496E76616C6964206D617020747970E5
:10196000652E0A0A003F43616E2774206163746923
:101970007661746520616E64206465616374697664
:10198000617465206174207468652073616D6520E1
:1019900074696D652E0A0A00426F7468205820260B
:1019A0002059206C6F636174696F6E73206D75735D
:1019B00074206265207370656369666965642E0AC8
:1019C0000A00473239204A20616374696F6E2072C1
:1019D0006571756972657320612070726F62652E22
:1019E0000A0A003F285029686173652076616C758A
:1019F0006520696E76616C69642028302D36292E49
:101A00000A0A0047323920503120726571756972B7
:101A1000657320612070726F62652E0A0A003F288C
:101A200056296572626F7365206C6576656C2069F6
:101A30006D706C61757369626C652028302D342976
:101A40002E0A0A003F285229657065746974696F0F
:101A50006E20636F756E7420696E76616C696420A8
:101A600028312B292E0A0A00446F696E67204732FD
:101A70003900646F6E650A00496E73756666696346
:101A800069656E7420646174610A004578747261DE
:101A9000706F6C6174696E67206D6573682E2E2E91
:101AA000005072696E74696E67204F626A65637474
:101AB000002553202569002F2F616374696F6E3AEA
:101AC00000627574746F6E0070726F6D70745F0079
:101AD00073686F7700496E666F2053637265656E39
:101AE00000473239205034205239393920540047C8
:101AF0003239204900496E76616C696461746520F1
:101B0000436C6F7365737400496E76616C696461D0
:101B1000746520416C6C00473239205031204300FD
:101B2000436F6E74696E756520426564204D657300
:101B3000680046696C6C2D696E204D6573680047BE
:101B400032380A473239205031004275696C6420BE
:101B5000437573746F6D204D657368004732380AA2
:101B60004D313930205337300A4D3130392053321E
:101B700035300A4732392050310A4D313034205344
:101B8000300A4D313430205330004275696C642086
:101B90004D65736820285045544729004732380A5C
:101BA0004D313930205336300A4D313039205332DF
:101BB00030300A4732392050310A4D313034205309
:101BC000300A4D313430205330004275696C642046
:101BD0004D6573682028504C4129004D3131372024
:101BE0004D657368202569204C6F6164656400470A
:101BF0003239204C2569004D313137204D657368ED
:101C000020256920536176656400473239205325C9
:101C100069004C6F616420426564204D6573680003
:101C20004D656D6F727920536C6F74004E6F205349
:101C3000746F7261676500486F6D696E67205859EF
:101C40005A004732392050342058257320592573C3
:101C50002052256900202D2D2D2D2D0047323800D2
:101C600047323920532D31004F6666205072696E1D
:101C7000746572204261636B75700047323920547D
:101C800031004F757470757420666F72204353561F
:101C900000473239205430004F75747075742066D7
:101CA0006F7220486F73740045646974204D6573CA
:101CB000680047323920493939390A4732392050CA
:101CC000322042205430004D616E75616C6C792079
:101CD0004275696C64204D65736800372E2053612E
:101CE000766520426564204D65736800362E204677
:101CF000696E652054756E6520416C6C00352E2030
:101D000056616C6964617465204D65736800342E9A
:101D10002046696E652054756E6520416C6C0033F9
:101D20002E2056616C6964617465204D657368008E
:101D300047323920503320543000322E20536D6109
:101D400072742046696C6C2D696E00312E204275CC
:101D5000696C6420436F6C64204D657368004D6945
:101D6000786572003F0043616E63656C004F6E00E2
:101D70002020456E64205A3A005374617274205AD0
:101D80003A00416C69617320562D746F6F6C0020AE
:101D900020456E6420562D746F6F6C005374617211
:101DA0007420562D746F6F6C00436F6D6D697420D5
:101DB000562D746F6F6C204D6978004379636C65A4
:101DC000204D697800436F6D706F6E656E74203DB5
:101DD00000562D746F6F6C732057657265205265C5
:101DE000736574005265766572736520477261642D
:101DF00069656E74005425692D3E5425690052654D
:101E000073657420562D746F6F6C73004163746931
:101E1000766520562D746F6F6C00536F6674204585
:101E20006E6473746F7073004D383400446973616D
:101E3000626C65205374657070657273004C6576D2
:101E4000656C20436F726E65727300473238205A9A
:101E500000486F6D65205A00473238205900486F9E
:101E60006D65205900473238205800486F6D652055
:101E700058004175746F20486F6D6500200820463A
:101E8000616374002008204D6178002008204D69AE
:101E90006E004175746F74656D7000565472617692
:101EA000204D696E00566D696E00566D6178202A6E
:101EB00000566D6178204500566D6178205A0056B5
:101EC0006D6178205900566D6178205800416D6130
:101ED00078202A00416D6178204500416D617820AD
:101EE0005A00416D6178205900416D617820580099
:101EF000412D54726176656C00412D52657472619A
:101F0000637400416363656C004A756E6374696F46
:101F10006E20446576002A73746570732F6D6D00B2
:101F20004573746570732F6D6D005A7374657073AB
:101F30002F6D6D005973746570732F6D6D0058733C
:101F4000746570732F6D6D0000007F4300007F4348
:101F500000007A432062797465733B2063726320CA
:101F60000053657474696E67732053746F7265648F
:101F70002028004E6F20454550524F4D2E0A0045F7
:101F80004550524F4D206461746173697A652065D4
:101F900072726F722E0A003F4D65736820746F6F06
:101FA0002062696720666F7220454550524F4D2E62
:101FB0000A0055424C2072657365740A00206C6FEC
:101FC000616465642066726F6D2073746F726167FF
:101FD000652E0A004D65736820003F43616E2774CB
:101FE00020656E61626C6520002073746F72656499
:101FF0002073657474696E677320726574726965A5
:10200000766564202800202863616C63756C6174B8
:10201000656429210A0020213D2000454550524F8A
:102020004D20435243206D69736D61746368202DA8
:10203000202873746F726564292000496E64657886
:102040003A2000204D61726C696E3D563734290A82
:1020500000454550524F4D2076657273696F6E2072
:102060006D69736D617463682028454550524F4D0A
:102070003D004D6F74696F6E004732392057004F35
:1020800075747075742055424C20496E666F00550A
:10209000424C20546F6F6C73004F757470757420D0
:1020A0004D657368204D6170004D657368205374F1
:1020B0006F72616765004D657368204564697400DF
:1020C000537465702D42792D537465702055424CC0
:1020D000004732392041004163746976617465209C
:1020E00055424C00473239204400446561637469AD
:1020F000766174652055424C001FE03FF03FF03F91
:10210000F01FE01FE03FF03FF03FF00FC0078003FB
:10211000001FE02010201020101020102020102080
:1021200010303008400480030001FF000618C0088A
:102130001F20101F90141F102E1E082F1C082FB8D0
:10214000083FFC083FFFF8207FF8203BE82071E8BB
:1021500020F0E811F05013F01009F0200630C00113
:10216000FF0001FF000630C009F02011F01010F050
:102170001020F0682031E82039E8207FF83FFFF890
:102180003FFC082F38082E18082C1E08101E1010AF
:102190001F10081F200618C001FF0001FF000600E5
:1021A000C00901201783D01783D02FC7E827C7C8DD
:1021B00021FF08207C08207C08207C0821FF0827BC
:1021C000C7C82FC7E81783D01783D009012006009E
:1021D000C001FF00FFFFC0400020200010100008D9
:1021E00008000404000203FFFF022200044400046C
:1021F0004400022200011100FFFFC04088A021110D
:102200001012220808000404000203FFFF20536993
:102210007A653A200043616E6E6F74206F70656E50
:102220002073756264697220005344206361726494
:10223000206F6B0A006F70656E526F6F742066615D
:10224000696C65640A00766F6C756D652E696E69E0
:1022500074206661696C65640A00534420696E6984
:1022600074206661696C0A004D3233202573004684
:10227000696C652073656C65637465640A00466902
:102280006C65206F70656E65643A2000454E442091
:10229000535542524F5554494E450A002220706F03
:1022A00073002220706172656E743A2200535542A9
:1022B000524F5554494E452043414C4C2074617255
:1022C0006765743A2200747279696E6720746F20B2
:1022D00063616C6C207375622D67636F6465206643
:1022E000696C6573207769746820746F6F206D6105
:1022F0006E79206C6576656C732E204D4158206C8C
:102300006576656C2069733A310A005772697469A1
:102310006E6720746F2066696C653A200044656CB6
:102320006574696F6E206661696C65642C2046690E
:102330006C653A200046696C652064656C6574655F
:10234000643A005344207072696E74696E6720624B
:1023500079746520004E6F74205344207072696E4A
:1023600074696E670A00667265736800646F696EEF
:1023700067004E6F7720004572723A207574663898
:1023800020666F6E74206E6F7420696E6974696167
:102390006C697A65642E002568753A253032687557
:1023A00000256875642025303268753A253032681A
:1023B0007500000C0D00FE07022603BC017FFE081D
:1023C000FE08FE05080806000040F0C888889878D6
:1023D00010050808060000C0F88888888888F80575
:1023E00005050600012030F8302005080806000029
:1023F0002070F820202020E00509090600FF207049
:10240000A8A8B888887020050606060001E08CEAB6
:102410008C8A0A0509090600FFF8A8888888888838
:10242000A8F8050A0A0600FE205050505088A8A8B7
:10243000887003030306000340A040FFFFFFFFFF77
:10244000FFFFFFFFFFFFFFFFFFFFFFFFFFFFFFFF9C
:10245000FF0000000605FF010707060200808080DC
:1024600080800080030303060105A0A0A0050606E6
:1024700006000050F85050F8500509090600FF20EA
:1024800070A8A07028A87020050707060000C8C81B
:10249000102040989805070706000040A0A040A81B
:1024A0009068010303060205808080030909060184
:1024B000FF2040408080804040200309090601FF42
:1024C0008040402020204040800507070600002073
:1024D000A8702070A8200505050600012020F8201E
:1024E000200203030601FFC040800501010600032E
:1024F000F8020202060100C0C00507070600000836
:10250000101020404080050707060000708898A83A
:10251000C8887003070706010040C040404040E003
:10252000050707060000708808102040F805070717
:10253000060000F80810300888700507070600003C
:1025400010305090F81010050707060000F880F0D2
:1025500008088870050707060000304080F088886A
:1025600070050707060000F8081010202020050756
:1025700007060000708888708888700507070600C5
:102580000070888878081060020505060100C0C048
:1025900000C0C00206060601FFC0C000C0408003A4
:1025A00005050601012040804020050303060002C6
:1025B000F800F8030505060101804020408005076A
:1025C000070600007088102020002005070706007D
:1025D000007088B8A8B880700507070600007088EA
:1025E00088F8888888050707060000F04848704882
:1025F00048F0050707060000708880808088700515
:102600000707060000F04848484848F00507070655
:102610000000F88080F08080F8050707060000F8C9
:102620008080F08080800507070600007088808029
:10263000988870050707060000888888F8888888C9
:10264000030707060100E04040404040E00507075F
:1026500006000038101010109060050707060000F3
:102660008890A0C0A09088050707060000808080A1
:10267000808080F805070706000088D8A888888829
:10268000880507070600008888C8A8988888050775
:10269000070600007088888888887005070706008C
:1026A00000F08888F08080800507070600007088A9
:1026B0008888A89068050707060000F08888F0A0C1
:1026C00090880507070600007088807008887005EC
:1026D0000707060000F82020202020200507070615
:1026E00000008888888888887005070706000088A9
:1026F0008888885050200507070600008888888849
:10270000A8A8500507070600008888502050888830
:1027100005070706000088885020202020050707AD
:10272000060000F80810204080F80309090601FFA0
:10273000E080808080808080E005070706000080C0
:102740004040201010080309090601FFE020202066
:1027500020202020E0050303060005205088050105
:10276000010600FEF803030306010580402005056D
:1027700005060000700878887805070706000080C5
:1027800080F0888888F00505050600007080808844
:10279000700507070600000808788888887805050E
:1027A000050600007088F0807005070706000030FD
:1027B0004840E04040400507070600FE70888888D2
:1027C0007808700507070600008080F088888888F0
:1027D0000307070601004000C0404040E00409092B
:1027E0000601FE100030101010109060050707065B
:1027F000000080808890E09088030707060100C0F1
:102800004040404040E0050505060000D0A8A8A8CB
:10281000A8050505060000B0C888888805050506D6
:10282000000070888888700507070600FEF0888819
:1028300088F080800507070600FE78888888780879
:1028400008050505060000B0C8808080050505065E
:10285000000078807008F00507070600002020F8C7
:10286000202020180505050600008888889868053E
:10287000050506000088888850200505050600002B
:102880008888A8A8500505050600008850205088B3
:102890000507070600FE888888502040800505054A
:1028A000060000F8102040F80309090601FF204047
:1028B000404080404040200109090602FF8080809E
:1028C0008080808080800309090601FF80404040AD
:1028D000204040408005030306000248A890FF52B4
:1028E000756E6F75742053656E736F7200554E4C24
:1028F0004F41442046494C414D454E540046494CB9
:10290000414D454E54204348414E474500473238DB
:102910000A47323920503420523235350A4732398D
:1029200020410A4D353030004732392050340A4DAD
:10293000353030004D333033205531204530205371
:102940003235302043380A4D353030004D33303386
:1029500020553120452D31205339302043380A4D40
:10296000353030004D393030204B300A4D35303065
:10297000004D393030204B302E320A4D353030008A
:102980004D393030204B302E330A4D353030004D2C
:10299000393030204B302E340A4D353030004D392F
:1029A0003030204B302E350A4D353030004D393027
:1029B00030204B302E360A4D353030004C696E20B9
:1029C000416476204B302E34004C696E2041647691
:1029D000204B302E33004C696E20416476204B3002
:1029E0002E36004C696E20416476204B302E32002A
:1029F0004C696E20416476204F6666004C696E20FB
:102A0000416476204B302E350050494474756E6514
:102A1000204265640050494474756E6520486F74A7
:102A2000656E640041646A75737420506F696E74DA
:102A3000204E656172004D616E75616C2055424C8F
:102A4000004D37303220542564004D36303020425E
:102A50003020542564004D373032203B2564004D32
:102A60003730312054256400556E6C6F6164204608
:102A7000696C616D656E74004C6F61642046696CB1
:102A8000616D656E74005072656865617420437590
:102A900073746F6D004D36303020423020542569FC
:102AA000004D37303120542569004D3730322054E5
:102AB0002569004D37303200556E6C6F61642041DE
:102AC0006C6C004C6F61642046696C616D656E745E
:102AD000202A00556E6C6F61642046696C616D65DB
:102AE0006E74202A004368616E67652046696C61D8
:102AF0006D656E74202A005075726765206D6F7267
:102B00006500524553554D45204F5054494F4E5343
:102B10003A005052494E54205041555345440020EC
:102B2000204E6F7A7A6C653A200024F4D43050C37A
:102B30008E20C2A24017828B7011127A910D816C87
:102B4000D90AA861E108C7586607615143061E4BC0
:102B50005D05C145A7041A411104093D9803713967
:102B600031034036DB0265339102D4305402802EAB
:102B70001D02632CEE01752AC501B028A0011027A3
:102B800081018F2564012B244B01E0223401AC210B
:102B90001F018D200D01801FFC00841EED00971D7C
:102BA000DF00B81CD200E61BC600201BBC00641A64
:102BB000B200B219A8000A19A0006A189900D1172A
:102BC000910040178B00B516840031167E00B315B6
:102BD00079003A157300C7146F0058146A00EE1399
:102BE00066008813630025135E00C7125B006C1239
:102BF000570015125400C111510070114F002111DE
:102C00004B00D61049008D104700461044000210BA
:102C10004200C00F4000800F3E00420F3C00060FF4
:102C20003B00CB0E3800930E37005C0E3500270EAC
:102C30003400F30D3200C10D3100900D3000600DF5
:102C40002E00320D2D00050D2C00D90C2B00AE0CE2
:102C50002900850C29005C0C2700350C27000E0C80
:102C60002600E80B2400C40B2400A00B23007D0BDE
:102C700023005A0B2100390B2100180B2000F80A01
:102C80001F00D90A1E00BB0A1E009D0A1D00800AF3
:102C90001D00630A1C00470A1B002C0A1B00110AB6
:102CA0001A00F7091A00DD091900C4091900AB0957
:102CB0001900920917007B091800630917004C09D5
:102CC000160036091600200916000A091500F50835
:102CD0001500E0081400CC081400B8081400A4087B
:102CE0001400900813007D0812006B0813005808A8
:102CF00012004608120034081100230811001208BF
:102D0000110001081100F0071000E0071000D007C3
:102D10001000C0071000B0070F00A10710009107B6
:102D20000E0083070F0074070F0065070E0057079A
:102D30000E0049070E003B070D002E070E0020076E
:102D40000D0013070D0006070D00F9060C00ED0637
:102D50000D00E0060C00D4060C00C8060C00BC06F2
:102D60000C00B0060C00A4060B0099060C008D06A2
:102D70000B0082060B0077060B006C060B00610649
:102D80000A0057060B004C060A0042060A003806E5
:102D90000A002E060A0024060A001A060A00100677
:102DA000090007060A00FD050900F4050900EB0506
:102DB0000900E2050900D9050900D0050900C70589
:102DC0000900BE050900B5050800AD050800A50508
:102DD00009009C050800940508008C05080084057E
:102DE00008007C050800740508006C0507006505EF
:102DF00008005D050700560508004E050700470559
:102E000007004005080038050700310507002A05BE
:102E10000700230507001C050600160507000F051F
:102E200007000805060002050700FB040600F5047C
:102E30000700EE040600E8040600E2040700DB04D5
:102E40000600D5040600CF040600C9040600C3042A
:102E50000600BD040600B7040600B1040500AC047A
:102E60000600A6040600A00405009B0406009504C5
:102E70000500900406008A0405008504050080040E
:102E800006007A04050075040500700405006B0453
:102E9000050066040500610405005C040500570494
:102EA0000500520405004D040500480405004304D4
:102EB00005003E0404003A04050035040500300412
:102EC00004002C04050027040400230405001E044C
:102ED00004001A04040016040500110404000D0483
:102EE0000400090405000404040000040400FC03B9
:102EF0000400F8030400F4030400F0030400EC03EE
:102F00000400E8030400E4030400E0030400DC031D
:102F10000400D8030400D4030400D0030400CC034D
:102F20000400C8030300C503030024F404D9201BD4
:102F3000C40C5C0E9804C4095F0265077101F405B6
:102F4000F900FB04B30048048700C103690058037B
:102F5000550003034500BE023A00840231005302CB
:102F60002A002902250004022000E4011C00C801F7
:102F70001900AF01170098011400840113007101BA
:102F800010006101100051010E0043010D003601D7
:102F90000B002B010B0020010B00150109000C0197
:102FA000090003010800FB000800F3000800EB0023
:102FB0000700E4000600DE000600D8000600D2008C
:102FC0000600CC000500C7000500C2000500BD00DA
:102FD0000400B9000400B5000400B1000400AD0015
:102FE0000400A9000400A5000300A20003009F0044
:102FF00004009B000300980003009500020093006A
:103000000300900003008D0002008B000300880085
:1030100002008600020084000300810002007F009D
:1030200002007D0002007B000200790002007700B0
:1030300001007600020074000200720001007100BD
:1030400002006F0002006D0001006C0002006A00C7
:1030500001006900020067000100660001006500D0
:1030600001006400020062000100610001006000D4
:1030700001005F0002005D0001005C0001005B00D8
:1030800001005A00010059000100580001005700DA
:1030900001005600010055000100540001005300DA
:1030A00000005300010052000100510001005000D7
:1030B00001004F0001004E0000004E0001004D00D5
:1030C00001004C0001004B0000004B0001004A00D1
:1030D00001004900010048000000480001004700CD
:1030E00001004600000046000100450000004500C8
:1030F00001004400010043000000430001004200C1
:1031000000004200010041000000410001004000B9
:1031100001003F0000003F0001003E0000003E00B3
:1031200001003D0000003D0001003C0000003C00AB
:1031300000003C0001003B0000003B0001003A00A1
:1031400000003A0001003900000039000100380099
:103150000000380000003800010037000000370090
:103160000100360000003600000036000100350086
:10317000000035000000350001003400000034007C
:103180000000340001003300000033000000330071
:103190000100320000003200000032000100310066
:1031A000000031000000310001003000000030005C
:1031B0000000300001002F0000002F0000002F0051
:1031C00000002F0001002E0000002E0000002E0045
:1031D00001002D0000002D0000002D0000002D003A
:1031E00001002C0000002C0000002C0000002C002E
:1031F00001002B0000002B0000002B0000002B0022
:1032000001002A0000002A0000002A0000002A0015
:103210000100290000002900000029000000290009
:1032200000002900010028000000280000002800FC
:1032300000002800000028000100270000002700EF
:1032400000002700000027000000270001002600E2
:1032500000002600000026000000260000002600D6
:1032600001002500000025000000250000002500C9
:1032700000002500000025000100240000002400BB
:1032800000002400000024000000240001002300AE
:1032900000002300000023000000230000002300A2
:1032A0000000230000002300010022000000220093
:1032B0000000220000002200000022000000220086
:1032C0000100210000002100000021000000210079
:1032D000000021000000210000002100010020006A
:1032E000000020000000200000002000000020005E
:1032F00000002000000020000000200001001F004E
:1033000000001F0000001F0000001F0000001F0041
:1033100000001F0000001F0001001E0000001E0032
:1033200000001E0000001E00000042270000A11F38
:103330000000C61600009A0E000082080000A304D8
:1033400000006D0200003E01000020746F6F206CD1
:103350006F6E6720657874727573696F6E20707216
:103360006576656E7465640A0020636F6C64206521
:103370007874727573696F6E2070726576656E749D
:1033800065640A00446966663A200046726F6D53B0
:1033900074703A00537465707065723A00556E4CE3
:1033A0006576656C3A004C6576656C65643A0052EA
:1033B00061773A20202020000A4C6F676963616CB6
:1033C0003A00436F756E7420453A004361703A00CD
:1033D0004D302F3120427265616B2043616C6C650A
:1033E0006400436C69636B20746F20526573756D64
:1033F000652E2E2E00656E7175657565696E672088
:1034000022006F6B00526573656E643A200042655E
:103410006420436F6F6C696E672E2E2E00426564C8
:103420002048656174696E672E2E2E0023646566E0
:10343000696E652044454641554C545F004B6420FD
:10344000004B6920004B70200050494420417574A6
:103450006F74756E652066696E6973686564212096
:1034600050757420746865206C617374204B702CE7
:10347000204B6920616E64204B6420636F6E73740F
:10348000616E74732066726F6D2062656C6F772059
:10349000696E746F20436F6E6669677572617469D7
:1034A0006F6E2E680A00504944204175746F747520
:1034B0006E65206661696C6564212074696D656F55
:1034C00075740A000A20436C617373696320504964
:1034D00044200A00204B643A2000204B693A200027
:1034E000204B703A20000A204E6F206F7665727371
:1034F000686F6F740A002054753A2000204B753AAB
:103500002000206D61783A2000206D696E3A20001D
:1035100020643A200020626961733A2000504944D7
:10352000204175746F74756E652073746172740ACE
:1035300000504944204175746F74756E6520666152
:10354000696C6564212054656D7065726174757273
:103550006520746F6F20686967680A0050494420CD
:103560004175746F74756E65206661696C65642160
:1035700020426164206578747275646572206E758E
:103580006D6265720A0054656D7065726174757262
:10359000650050726568656174205045544700505D
:1035A00072656865617420504C41004E6F7A7A6C88
:1035B00065004D61696E00507265686561742050E8
:1035C0004C4120456E6400507265686561742050FE
:1035D0004C412042656400507265686561742050FA
:1035E00045544720456E64005072656865617420DB
:1035F000504554472042656400436F6F6C646F7799
:103600006E0046616E205370656564203D00426126
:10361000627973746570205A00466C6F7700000001
:1036200020C1000000000000000000002042000057
:103630002042000080400202020000A0400000A0E2
:10364000400000A0400080844300007F4300007AD7
:1036500043FFFFFF000000010000000100008000A8
:10366000555555000000400033333300AAAA2A0004
:103670004992240000002000C7711C00999919008C
:10368000D1451700555515003BB1130024491200D0
:1036900011111100000010000F0F0F00E3380E0091
:1036A00043790D00CCCC0C00C3300C00E8A20B0019
:1036B00064210B00AAAA0A00703D0A009DD80900E7
:1036C000427B090092240900DCD3080088880800A6
:1036D0001042080000000800F0C1070087870700BB
:1036E00075500700711C07003EEB0600A1BC0600E8
:1036F0006990060066660600703E060061180600C6
:1037000017F4050074D105005BB00500B290050008
:10371000627205005555050078390500B81E050090
:10372000050505004EEC040087D40400A1BD04008B
:1037300090A7040049920400C17D0400EE690400D2
:10374000C7560400444404005C320400082104000D
:1037500041100400000004003FF00300F8E0030003
:1037600026D20300C3C30300CCB503003AA803006C
:103770000A9B0300388E0300C08103009F7503007D
:10378000D0690300505E03001D530300344803005A
:10379000913D03003333030016290300381F030053
:1037A00097150300300C0300030303000BFA02001B
:1037B00049F10200BAE802005CE002002DD80200E4
:1037C0002DD0020059C80200B0C0020031B9020079
:1037D000DAB10200AAAA0200A0A30200BC9C020067
:1037E000FA9502005C8F0200DF88020082820200EC
:1037F000457C02002776020027700200436A02001F
:103800007C640200D05E02003F590200C8530200EF
:10381000FFFDFCFAF8F6F4F2F0EEECEAE9E7E5E396
:10382000E1E0DEDCDAD9D7D5D4D2D0CFCDCBCAC84F
:10383000C7C5C3C2C0BFBDBCBAB9B7B6B4B3B2B0D6
:10384000AFADACAAA9A8A6A5A4A2A1A09E9D9C9A32
:1038500099989795949392908F8E8D8B8A8988876B
:103860008684838281807F7E7D7B7A797877767586
:1038700074737271706F6E6D6C6B6A696867666580
:1038800064636261605F5E5D5C5B5A59585857566D
:10389000555453525150504F4E4D4C4B4A4A494843
:1038A000474646454443424241403F3E3E3D3C3B05
:1038B0003B3A3938383736353534333232313030B7
:1038C0002F2E2E2D2C2B2B2A29292827272625255C
:1038D00024232322212120201F1E1E1D1C1C1B1BF4
:1038E0001A19191818171616151514131312121180
:1038F00011100F0F0E0E0D0D0C0C0B0A0A09090802
:103900000807070606050504040303020201000078
:103910005761726E696E673A20486F6D696E6720F5
:1039200042756D702044697669736F72203C203156
:103930000A004D31303920532569004D313930208E
:10394000532569004D65736820456469746F720082
:103950004265642054656D7000486F74656E642024
:1039600054656D70004732392050362043202D00B9
:1039700048656967687420416D6F756E74004164B5
:103980006A757374204D657368204865696768744B
:103990000047323920503420540046696E65205467
:1039A000756E6520436C6F73657374004732362003
:1039B00043204225692048256920500056616C69E2
:1039C0006461746520437573746F6D204D65736811
:1039D000004732380A4732362043204237302048E9
:1039E00032353020500056616C6964617465204D39
:1039F00065736820285045544729004732380A47E4
:103A000032362043204236302048323030205000B9
:103A100056616C6964617465204D65736820285037
:103A20004C412900473239204A2569004C657665AA
:103A30006C204D657368005369646520506F696E32
:103A400074730047726964204D657368204C657615
:103A5000656C696E6700473239204A3000332D505B
:103A60006F696E74204C6576656C696E67004732CD
:103A700039205033205220432E2569004D616E7548
:103A8000616C2046696C6C2D696E0046696C6C2D0A
:103A9000696E20416D6F756E74004D6573682069A5
:103AA0006E76616C6964617465642E0A0000FE00C4
:103AB00003FF8007C7C00701E00000E00000F0003E
:103AC00000700400700E00701F00703F80F00E0048
:103AD000E00F01E007C7C003FF8000FE0000FE000A
:103AE00003FF8007C7C00F01E00E00E03F80F01F1A
:103AF00000700E00700400700000700000F0000004
:103B0000E00701E007C7C003FF8000FE000E000EC3
:103B1000000E000E000E000E000E000E007FC03FD3
:103B2000801F000E00040004000E001F003F807F75
:103B3000C00E000E000E000E000E000E000E000E55
:103B400000FFFFFF7F80FFC0FFC0FFC07F807F803E
:103B5000FFC0FFC0FFC03F001E000C006F70656E0D
:103B6000206661696C65642C2046696C653A2000AA
:103B7000544845524D414C2052554E4157415900F1
:103B8000546865726D616C2052756E617761790061
:103B9000706F7765726F666600506C656173652043
:103BA0005265736574005052494E54455220484145
:103BB0004C5445440025533A202553004B494C4C66
:103BC00045442E20005072696E7465722068616CE5
:103BD0007465642E206B696C6C28292063616C6CA1
:103BE0006564210A006F70656E005452494747456D
:103BF0005245440066696C616D656E74007A5F6D54
:103C0000696E00795F6D696E00785F6D696E005254
:103C100065706F7274696E6720656E6473746F701F
:103C2000207374617475730A0020436F756E74207D
:103C3000583A004F7574616765205265636F766509
:103C40007279004261636B004368616E676520466C
:103C5000696C616D656E7400436F6E66696775723D
:103C60006174696F6E004D313030300053746F7085
:103C7000205072696E7400526573756D65205072C4
:103C8000696E740053746F70004D32310043686187
:103C90006E6765204D65646961004175746F73746A
:103CA0006172740054756E65004E6F204D656469D5
:103CB00061005374617274205072696E74004361C4
:103CC0006E6E6F7420656E746572207375626469C0
:103CD000723A2000022E2E003A202534642E2564EC
:103CE000206D6D005061726B696E672E2E2E000084
:103CF000005761697420666F720066696C616D655A
:103D00006E74206368616E676500746F2073746100
:103D10007274005761697420666F720066696C6125
:103D20006D656E7420756E6C6F616400004E6F7A05
:103D30007A6C652068656174696E6700506C6561B6
:103D4000736520776169742E2E2E000050726573A2
:103D50007320627574746F6E00746F20686561748F
:103D6000206E6F7A7A6C650000496E7365727420FC
:103D700066696C616D656E7400616E642070726559
:103D8000737320627574746F6E00746F20636F6E4E
:103D900074696E7565005761697420666F7200669C
:103DA000696C616D656E74206C6F616400005072A7
:103DB00065737320427574746F6E00746F20726542
:103DC00073756D65207072696E7400005761697457
:103DD00020666F72207072696E7400746F20726555
:103DE00073756D652E2E2E00005761697420666F05
:103DF000720066696C616D656E74207075726765BE
:103E000000004C6F6164206D6D00556E6C6F6164D5
:103E1000206D6D00416476616E6365204B00202F3C
:103E2000002042403A0020403A007C3C3E5E2B3D60
:103E30003F2F5B5D3B2C2A225C0002687474703A51
:103E40002F2F6D61726C696E66772E6F72670042FC
:103E500075696C6420343537004D31303030205373
:103E6000002020506C616E6E6572427566666572E8
:103E700042797465733A20002046726565204D656D
:103E80006D6F72793A2000436F6D70696C65643AAA
:103E90002044656320333120323031390A00204C10
:103EA00061737420557064617465643A20323031F6
:103EB000392D31322D3139207C20417574686F7273
:103EC0003A20285665727461627265616B65722969
:103ED0000A004275696C64203435370A004D6172FE
:103EE0006C696E0020536F6674776172652052654D
:103EF0007365740A00205761746368646F672052A9
:103F0000657365740A002042726F776E206F757456
:103F10002052657365740A002045787465726E617D
:103F20006C2052657365740A00506F776572557026
:103F30000A006175746F25632E670047323700658C
:103F400072726F722077726974696E6720746F2065
:103F500066696C650A00446F6E6520736176696EF0
:103F6000672066696C652E0A004D323900255320A2
:103F700025632025632025632025630020593A000E
:103F8000656E6473746F7073206869743A20001FE3
:103F9000FFFFFFFFFFFF600000000001FF40000087
:103FA000000000FF8000000000007F83CF00000CB5
:103FB000303F87FF80000C301F867980000C000F97
:103FC0008C30C7838C30E78C30CFC7CC31F38C304A
:103FD000DCECEC33B98C30D86C6C33198C30D06C91
:103FE0000C33198C30D86C0C33198C30DC6C0E3BD4
:103FF000198C30CF7C079F198C30C77C038F1940F8
:10400000000000000002600000000000061FFFFF2B
:10401000FFFFFFF85072696E742066726F6D204D5D
:10402000656469610044697361626C6552756E6FA5
:10403000757400496E736572742066696C616D6594
:104040006E7420616E642073656E64204D3130386B
:104050000A00486F6D652025732573257320466916
:1040600072737400626567696E0050757267654DA2
:104070006F726500436F6E74696E7565004C6F6199
:10408000642046696C616D656E7420540020573A57
:1040900000220A00556E6B6E6F776E20636F6D6D38
:1040A000616E643A202200453100626564002C2074
:1040B00073797374656D2073746F707065642120FB
:1040C0004865617465725F49443A200048656174CF
:1040D000696E67204661696C656400486561746952
:1040E0006E67206661696C656400202D20496E76DC
:1040F000616C6964206578747275646572206E7590
:104100006D62657220210A004572723A204D415855
:1041100054454D50004D415854454D5020747269DE
:10412000676765726564004572723A204D494E5466
:10413000454D50004D494E54454D502074726967AD
:104140006765726564004D383420450070012C01AC
:1041500090012701B0012201C0011D01F0011801E9
:104160001002130130020E016002090190020401E5
:10417000C002FF000003FA004003F5008003F000D6
:10418000D003EB002004E6007004E100E004DC0052
:104190004005D700C005D2004006CD00D006C800BB
:1041A0008007C3003008BE00F008B900C009B400A1
:1041B000B00AAF00B00BAA00D00CA500000EA00002
:1041C000500F9B00C01096005012910000148C00FC
:1041D000C0158700B0178200B0197D00D01B780091
:1041E000001E730040206E0090226900F0246400DD
:1041F00040275F0090295A00E02B5500102E5000F8
:1042000020304B0010324600E033410090353C0036
:104210001037370070383200A0392D00B03A28002E
:10422000A03B2300603C1E00103D1900903D14008F
:10423000103E0F00703E0A00C03E0500003F000027
:10424000403FFBFF803FF6FFC03FF1FF4469736DC5
:10425000697373005072696E742050617573656480
:10426000005061757365205072696E74004D65640D
:1042700069612052656D6F766564004D65646961A2
:1042800020496E736572746564006E6F7469666947
:10429000636174696F6E20003344205072696E74DC
:1042A00065722052656164792E005072696E74697E
:1042B0006E672E2E2E0063616E63656C005072690E
:1042C0006E742041626F72746564005549204162CA
:1042D0006F72746564004D323520500A4D323400DF
:1042E000526573756D6500554920506175736500A1
:1042F000726573756D6500204A0020520045455077
:10430000524F4D20496E697469616C697A65640A1F
:10431000004D65736820736176656420696E207353
:104320006C6F7420003F556E61626C6520746F2065
:1043300073617665206D65736820646174612E0A0F
:104340000020736C6F743D00206D65736865735F4A
:10435000656E643D004532454E443D00206D6573F9
:104360006820736C6F747320617661696C61626C34
:10437000652E0A003F496E76616C696420736C6F2C
:10438000742E0A004D657368206C6F61646564204B
:1043900066726F6D20736C6F7420003F556E6162A2
:1043A0006C6520746F206C6F6164206D657368208C
:1043B000646174612E0A0048617264636F646564AD
:1043C0002044656661756C742053657474696E670A
:1043D00073204C6F616465640A0020286D6D2900AC
:1043E0002028696E290046616872656E6865697487
:1043F0000043656C73697573004B656C76696E007C
:10440000556E696669656420426564204C65766511
:104410006C696E670020204D363033200020204D1F
:1044200034313220530046696C616D656E742072C0
:10443000756E6F75742073656E736F723A0A002023
:10444000204D3432352046004261636B6C617368E5
:1044500020636F6D70656E736174696F6E3A0A00E8
:1044600020550046696C616D656E74206C6F6164E7
:104470002F756E6C6F6164206C656E677468733A3B
:104480000A0020204D393030204B004C696E6561A8
:104490007220416476616E63653A0A0020204D38CF
:1044A0003532204900536B657720466163746F7223
:1044B0003A200A0020204D343133205300506F77CA
:1044C00065722D4C6F7373205265636F76657279D8
:1044D0003A0A0020204D333034205000204C002078
:1044E000204D33303120500050494420736574749E
:1044F000696E67733A0A0020480020204D31343538
:104500002053004D6174657269616C206865617447
:10451000757020706172616D65746572733A0A001E
:10452000206D65736865732E0A0A00454550524F29
:104530004D2063616E20686F6C6420000A416374D3
:10454000697665204D65736820536C6F743A20005E
:1045500020204D34323020530020204D3230352081
:104560004200204A3C6A756E635F6465763E004196
:104570006476616E6365643A20423C6D696E5F7378
:1045800065676D656E745F74696D655F75733E20F8
:10459000533C6D696E5F66656564726174653E204B
:1045A000543C6D696E5F74726176656C5F666565BB
:1045B00064726174653E0020204D3230342050001A
:1045C000416363656C65726174696F6E2028756EF6
:1045D0006974732F7332293A20503C7072696E747B
:1045E0005F616363656C3E20523C72657472616307
:1045F000745F616363656C3E20543C7472617665E0
:104600006C5F616363656C3E0A0020204D3230317F
:1046100020540020204D3230312058004D617869FF
:104620006D756D20416363656C65726174696F6E51
:104630002028756E6974732F7332293A0A0020207E
:104640004D32303320540020204D3230332058007A
:104650004D6178696D756D2066656564726174651C
:10466000732028756E6974732F73293A0A00537486
:104670006570732070657220756E69743A0A002047
:104680003B20556E69747320696E200020204D31E7
:1046900034392000203B002020473200486F6D69EC
:1046A0006E67204661696C65640000004843000045
:1046B00048430000A0400000F0410000A04200007C
:1046C000A0420000C8430000D7430000D7430000C9
:1046D000D743D0070000D007000064000000A00FFF
:1046E000000000002100240027002A002D003000D7
:1046F000330001010000040107010A01000022004B
:10470000250028002B002E0031003400020100009B
:10471000050108010B0100002000230026002900EC
:104720002C002F00320000010000030106010901E6
:1047300005050505070508080808020202020A0A1D
:10474000080804040404010101010101010103033B
:10475000030303030303040707070C0C0C0C0C0CE6
:104760000C0C0202020206060606060606060B0BE3
:104770000B0B0B0B0B0B0102102020080810204024
:104780001020408002010201080402010102040815
:1047900010204080804020100804020180040201A3
:1047A00080402010080402010804020101020408EC
:1047B00010204080010204081020408000000A0BF5
:1047C00002090C0D0E0807030401000000000000A0
:1047D00000000000000000000000000000000000D9
:1047E0000000000000000000121110000000000096
:1047F00000000000000000000000000000000000B9
:1048000000004D6F76652025736D6D004D6F7665E8
:1048100020302E316D6D004D6F766520316D6D004D
:104820004D6F76652031306D6D004D6F766520419E
:1048300078697300486F74656E6420746F6F2063CD
:104840006F6C64004578747275646572004D6F76A4
:1048500065205A004D6F76652059004D6F766520B2
:1048600058006101C70211241FBECFEFD1E2DEBFA5
:10487000CDBF00E00CBF13E0A0E0B2E0EEE3FAE34E
:1048800003E00BBF02C007900D92A639B107D9F71C
:104890002AE1A6E9B3E001C01D92A030B207E1F71A
:1048A00014E2C2E3D4E200E006C021970109802FA0
:1048B000FE010F949398C133D10780E00807A9F750
:1048C0000F9482850D940D9D0C9400002F923F92C1
:1048D0004F925F926F927F928F929F92AF92BF9210
:1048E000CF92DF92EF92FF920F931F93CF93DF93BC
:1048F000CDB7DEB7C255D1090FB6F894DEBF0FBEF3
:10490000CDBF62968FAF6297209133182F962FAF4D
:104910002F9721E0209333188091640E8D3409F491
:104920004DC5843511F40C94CB36873411F00C94BA
:10493000EB368091620E9091630E8B31910509F4F4
:1049400019C4A4F48430910509F4E0C01CF4029762
:1049500068F130C58431910509F402C485319105AF
:1049600009F403C40C9709F025C50FC18A329105DB
:1049700009F4B0C45CF48C31910509F415C44D9769
:1049800009F018C50E94E2660C94ED368B3591054E
:1049900009F41AC48C35910509F41BC48A359105B4
:1049A00009F008C5109208110C94ED368091990217
:1049B000882311F40C94ED362EE5A22E23E0B22EBE
:1049C0003AE5C32E32E0D32E46E7E42E4EE0F42E35
:1049D00010E0D5018D915D010E94685F882349F147
:1049E000812F0E94173D762E872E982E092F8091B9
:1049F000A60D81111EC0812F0E94033A882371F0F9
:104A0000D6012D913D914D915C91672D782D892D89
:104A1000902F0F949C98762E872E02C0892D902F70
:104A2000472D582DBC01F701408351836283738366
:104A30000AC0F60180819181A281B381F701808350
:104A40009183A283B3831F5FF4E0CF0ED11C24E0D7
:104A5000E20EF11C133009F0BCCF85E40E94685FC0
:104A6000882321F183E00E94173D7B018C0183E0C4
:104A70000E94033A882371F0209166023091670208
:104A80004091680250916902B701C8010F949C9847
:104A90007B0101C0C801A701BC014093820E509365
:104AA000830E6093840E7093850E10C08091660211
:104AB00090916702A0916802B09169028093820E82
:104AC0009093830EA093840EB093850E86E40F948A
:104AD0005A5E20E030E0A9010F94639A181684F41E
:104AE0000E94125F20E030E040E752E40F942499E6
:104AF0006093560270935702809358029093590224
:104B00000E94CD3B0F9483320C94ED3680E50E94D9
:104B1000685F882329F00E9490416B017C0103C0EB
:104B2000C12CD12C760183E50E94685F882361F057
:104B30000E94DB5E20E030E04AE754E40F94FE91EF
:104B40000F949D996B017C010F947F188091F01157
:104B5000811105C060E08EED97E00F94E2710F9433
:104B6000717FC60ED71EE81EF91E0F94717FDC01FF
:104B7000CB018C199D09AE09BF09B7FD02C00C9489
:104B8000ED3680E00E947B56F0CF0F94B260811129
:104B90000C94ED3660E070E080E50E94573CD82E22
:104BA00065E070E083E50E94573C7C01382E65E0AB
:104BB00070E084E50E94573C282E40E050E060ED14
:104BC00070E482E50E94845F4B015C0180915D0E80
:104BD00087FF02C00C94FA3680915E0E837011F04C
:104BE0000C94FA3611E002E0012B10910911812F8B
:104BF0000E945B6018A619A61AA61BA61CA61DA6D5
:104C00001EA61FA618AA19AA1AAA1BAA80E090E03D
:104C1000A0E2B1EC8C8F9D8FAE8FBF8F18A219A22E
:104C20001AA21BA21CA21DA21EA21FA232E0D31216
:104C30000CC0011105C087EE97E00E94B0618BC2E5
:104C40001C8E1D8E1E8E1F8E24C000FD10C08091F4
:104C50005A0290915B02A0915C02B0915D028C8F30
:104C60009D8FAE8FBF8F88A799A7AAA7BBA701FD6D
:104C700010C080915E0290915F02A0916002B0919D
:104C8000610288A399A3AAA3BBA38CA79DA7AEA7E3
:104C9000BFA78091620290916302A0916402B091DB
:104CA00065028CA39DA3AEA3BFA388AB99ABAAABAF
:104CB000BBAB81E0D81629F092E0D91609F45EC1A9
:104CC000F1C128A539A54AA55BA56C8D7D8D8E8D7A
:104CD0009F8D0F949B984B015C0120E030E0A9016F
:104CE0000F949891882309F436C22CA53DA54EA5B2
:104CF0005FA568A179A18AA19BA10F949B986B01E4
:104D00007C0120E030E0A9010F949891882309F4F8
:104D100022C28CE0EAE5F2E0DE01119601900D92EC
:104D20008A95E1F71CAE1DAE1EAE1FAE88E0FE01F7
:104D3000B896DE01D49601900D928A95E1F7BE01F6
:104D4000645C7F4FCE01C4960F94E830220C20E0C3
:104D500030E0A901C501B4010F94639A2401350123
:104D600087FF04C077FA709477F8709420E030E001
:104D7000A901C701B6010F94639A87FF0AC0D70142
:104D8000C601B05828968CAF9DAFAEAFBFAF289785
:104D900006C02896CCAEDDAEEEAEFFAE2897A301DE
:104DA000920128966CAD7DAD8EAD9FAD28970F9486
:104DB0009891181614F075016401A22DB0E02A969E
:104DC000BFAFAEAF2A97BD01BB0F880B990B0F94F5
:104DD0009F919B01AC01C701B6010F9424994B012F
:104DE0005C01D12CD31408F055C100E0802F002EB7
:104DF000000C990B2A96EEADFFAD2A978E179F07F0
:104E00000CF05CC000FF05C09E01245E3F4F79019D
:104E100003C0CE0188967C01A301920128966CAD57
:104E20007DAD8EAD9FAD28970F949891402F002EA9
:104E3000000C550B660B770B1CAA1DAA1EAA1FAAF5
:104E40001816ECF0CB01BA010F949F91A5019401C3
:104E50000F94FE919B01AC0168A579A58AA59BA53D
:104E60000F949C986CAF7DAF8EAF9FAFB7016C5F16
:104E70007F4FAE014C5C5F4FCE01CC961BC0CB0187
:104E8000BA010F949F91A50194010F94FE919B018B
:104E9000AC016CA57DA58EA59FA50F949C986CAFC9
:104EA0007DAF8EAF9FAFAE014C5C5F4FBE01645CC7
:104EB0007F4FC7010F94C6300F5F98CF022D07FDBB
:104EC0005BC000FF04C0DE015C967D0103C0FE01F3
:104ED000B8967F01A301920128966CAD7DAD8EAD91
:104EE0009FAD28970F949891402F002E000C550BE2
:104EF000660B770B1CAA1DAA1EAA1FAA1816ECF097
:104F0000CB01BA010F949F91A50194010F94FE91DA
:104F10009B01AC0168A579A58AA59BA50F949C98D7
:104F20006CAF7DAF8EAF9FAFB7016C5F7F4FAE01AF
:104F30004C5C5F4FCE01CC961BC0CB01BA010F94E5
:104F40009F91A50194010F94FE919B01AC016CA56A
:104F50007DA58EA59FA50F949C986CAF7DAF8EAF5D
:104F60009FAFAE014C5C5F4FBE01645C7F4FC701D9
:104F70000F94C6300150A3CFD39434CF332009F41B
:104F8000EAC08CE0EAE5F2E0DE01119601900D92B4
:104F90008A95E1F71CAE1DAE1EAE1FAE88E0FE0185
:104FA000B896DE01D49601900D928A95E1F7BE0184
:104FB000645C7F4FCE01C4960F94E83000E0E12C92
:104FC000F12C24961CAE1DAE1EAE1FAE2497B70169
:104FD0000F2C000C880B990B0F949F912CE739ED47
:104FE00040E25FE30F94FE912B013C010F941F9967
:104FF0009B01AC01C501B4010F94FE919B01AC0172
:1050000068A179A18AA19BA10F949C986CAF7DAFF8
:105010008EAF9FAFC301B2010F94EB9A9B01AC011D
:10502000C501B4010F94FE919B01AC016C8D7D8D87
:105030008E8D9F8D0F949C986CAB7DAB8EAB9FAB90
:10504000AE01405C5F4FBE01645C7F4FCE01C496F1
:105050000F94C630FFEFEF1AFF0A2AE0E216F104C0
:1050600009F0AFCF0F5F031508F4A9CF1CAE1DAE3A
:105070001EAE1FAE88E0FE01B896DE01D496019008
:105080000D928A95E1F7BE01645C7F4FCE01C49614
:105090000F94E8301CAA1DAA1EAA1FAABE016C5CB0
:1050A0007F4F55C08CE0EAE5F2E0DE0111960190F9
:1050B0000D928A95E1F71CAE1DAE1EAE1FAE88E0C4
:1050C000FE01B896DE01D49601900D928A95E1F723
:1050D0006E0134E3C30ED11CBE01645C7F4FC60178
:1050E0000F94E830FF24F594E79400E05601802FF8
:1050F00090E08E159F0534F51CAE1DAE1EAE1FAEA2
:1051000088E0FE017C96D50101900D928A95E1F729
:10511000BE01645C7F4FC6010F94E8301CAE1DAE2B
:105120001EAE1FAE88E0FE01B896D60101900D922A
:105130008A95E1F7BE01645C7F4FC6010F94E830A9
:105140000F5FD5CF1CAA1DAA1EAA1FAAB601CE01A9
:1051500001960F94EE30812F0E945B600C94ED3627
:1051600081E00F945B0B0C94ED3680E00F945B0BA9
:105170000C94ED360F94B26081110C94ED368CE0F6
:10518000EAEAF2E0DE01119601900D928A95E1F7CC
:1051900060E070E080E50E94573CBE016F5F7F4F8A
:1051A0000F94136D0C94ED368091750E87708730D7
:1051B00011F00C94093760E08FE40E94854B811157
:1051C0000C94ED360C9409378FE0809308110C9401
:1051D000ED368091610E882351F1893009F076C057
:1051E000BEE5CB2EB3E0DB2E1AE5E12E12E0F12E68
:1051F000312C00E010E0D6018D916D010E94685FB6
:10520000882371F0812F0E94173DF701608371831D
:1052100082839383133011F401E002C0332433946A
:105220001F5FF4E0EF0EF11C143029F744C0FEE5D7
:10523000CF2EF3E0DF2EAAE5EA2EA2E0FA2E312CE3
:1052400000E010E0D6018D916D010E94685F882317
:1052500061F1812F0E94173D4B015C01F701208114
:105260003181428153810F949B982B013C012DEB9E
:1052700037E346E855EB0F94639A87FD0AC02DEBA0
:1052800037E346E855E3C301B2010F94989118162D
:1052900064F4133011F401E002C033243394D701D5
:1052A0008D929D92AD92BC9213971F5FB4E0EB0E6E
:1052B000F11C143039F6332019F00F94313106C047
:1052C000002321F086E692E00F9490180F9433317A
:1052D0000C94ED3680919902882311F40C94ED36EC
:1052E00089E40E94685FE82E882321F00E94D75E3F
:1052F000F82E01C0F12C8AE40E94685F082F8823F1
:1053000021F00E94D75E182F01C010E0EE2019F0A6
:10531000E4E0EF1520F0002341F0153030F08BE091
:1053200098E00E94B0610C94ED3680E1EAE5F2E08D
:10533000A6E7BEE001900D928A95E1F7EE2059F0C4
:105340008F2D0E9411606093760E7093770E80937C
:10535000780E9093790E002359F0812F0E941160EE
:1053600060937A0E70937B0E80937C0E90937D0EEB
:1053700086E40F945A5E6B017C0120E030E0A901C5
:105380000F94639A18164CF420E030E040E752E4A2
:10539000C701B6010F94249903C060E070E0CB010F
:1053A00069837A838B839C83CE0101960F94463D5B
:1053B0000C94ED360F94865C0C94ED368091620E61
:1053C0009091630E8C38910509F459C60CF09EC17A
:1053D0008235910509F493C60CF0B0C08B3191056C
:1053E00009F48CC30CF056C08531910509F4E4C270
:1053F000B4F58131910509F4CBC244F4029710F061
:105400000C94C8360F94850B0C94ED3682319105BF
:1054100009F483C6449711F00C94C83682E498E0EE
:105420000E94B06182E393E10F946F518BE1E2E35C
:10543000F3E1DE01119601900D928A95E1F760E0AB
:1054400070E0CE0101960E9414CFCE0101960E9419
:10545000A44B83E398E00E94B0610C94ED36883150
:10546000910509F4CAC26CF48631910509F4A8C209
:10547000479711F00C94C836E0915F0EF091600EE2
:10548000ACC28931910509F420C34A9709F428C3B5
:105490000C94C8368A32910509F46EC4ECF48E314E
:1054A000910509F485C37CF48C31910509F478C326
:1054B0004D9711F00C94C836809115138E7F809310
:1054C00015130C94ED368F31910509F4AAC380971A
:1054D00009F47EC30C94C8368C34910509F4A0C439
:1054E0006CF48934910509F46AC48B34910511F088
:1054F0000C94C8360E9489540C94ED368D34910575
:1055000009F491C48135910511F00C94C8360F94BB
:10551000D0630E9417B60F94331A0E945F5468EE4E
:1055200073E080E090E00E94D9600E94A45460E0A3
:105530008CEA98E00F94E2710C94ED368E3691056A
:1055400009F425C5DCF58836910509F46FC4E4F447
:105550008535910509F4E4C554F48335910509F4C2
:10556000D5C58435910509F4D8C50C94C8368C3559
:10557000910509F4EEC58436910511F00C94C836F6
:105580000E94CC480C94ED368B36910509F4F2C498
:1055900054F48936910509F4B5C48A36910509F4A5
:1055A000C7C40C94C8368C36910511F40C94ED36B2
:1055B0008D36910509F455C40C94C836853791058C
:1055C00009F47BC60CF083C08137910509F435C519
:1055D0005CF48F36910509F4EBC48037910511F422
:1055E0000C94ED360C94C8368237910509F462C6E6
:1055F0008337910511F00C94C83689ED99E00E942B
:10560000B06160E089EC99E00F941A0C60E084EBE3
:1056100099E00F941A0C61E08EE397E10F941A0C55
:1056200060E089EA99E00F941A0C61E089E999E059
:105630000F941A0C60E080E999E00F941A0C61E075
:1056400086E899E00F941A0C61E08CE799E00F94DA
:105650001A0C60E084E799E00F941A0C61E086E68A
:1056600099E00F941A0C61E088E599E00F941A0C08
:1056700060E089E499E00F941A0C61E08BE399E013
:105680000F941A0C61E085E299E00F941A0C61E026
:1056900084E199E00F941A0C61E085E099E00F94A1
:1056A0001A0C61E080EF98E00F941A0C61E08DED28
:1056B00098E00F941A0C60E080ED98E00F941A0CBB
:1056C00060E08CEB98E00F941A0C0C94ED36883760
:1056D000910509F43DC66CF48637910509F4FEC5C1
:1056E0008737910511F00C94C8360F9412320C9440
:1056F000ED368937910509F433C68D37910511F0E0
:105700000C94C8360E94DC400C94ED368039F1E0F0
:105710009F0711F40C9487340CF080C08D3C9105E8
:1057200009F434C7ECF5853A910509F4CFC6CCF4F9
:105730008B39910509F4BDC454F48139910509F4FC
:1057400016C68539910509F46BC60C94C836833AA0
:10575000910509F480C6843A910509F4A4C60C9415
:10576000C836893C910509F4B7C66CF4863A9105B0
:1057700009F4AFC68E3B910511F00C94C8360F9416
:1057800097060C94ED368B3C910509F4D6C68C3CFB
:10579000910511F00C94C8360E9496460C94ED3693
:1057A0008C32A1E09A0709F4E0C7CCF48D3D910555
:1057B00009F4FFC654F4833D910509F4EAC68C3D13
:1057C000910509F4E9C60C94C836823E910509F4A6
:1057D0003BC78232914009F483C70C94C8368F329C
:1057E000F1E09F0711F40C94843464F48D3231E0BD
:1057F000930709F4CFC78E32914011F40C944034D2
:105800000C94C8368033B1E09B0709F4C6C78336D1
:10581000914011F40C946C360C94C836883FF1E03A
:105820009F0711F40C9416350CF055C0893A31E0FD
:10583000930711F40C94A1341CF58D39B1E09B074A
:1058400011F40C94AE366CF48A39F1E09F0711F430
:105850000C94ED368C39914011F40C948A340C94EC
:10586000C836843A31E0930711F40C949E34853A9B
:10587000914011F00C94C8360E9418520C94ED36E9
:10588000853FB1E09B0711F40C9410357CF4863E03
:10589000F1E09F0711F40C94A434843F914011F07F
:1058A0000C94C8360E9444AA0C94ED36863F31E031
:1058B000930711F40C941335873F914011F00C9429
:1058C000C83661E083E50E94854B91E089270F94FB
:1058D000EB780C94ED368E3BB2E09B0711F40C9400
:1058E0002D361CF58835F2E09F0711F40C94B03585
:1058F0006CF48C3032E0930711F40C9426358F331E
:10590000924011F40C942E350C94C8368B35B2E0CD
:105910009B0711F40C94B3358D3B924011F00C941D
:10592000C8360E94543E0C94ED368438F3E09F074D
:1059300011F40C9430366CF4843533E0930711F491
:105940000C94AD358C36934011F40C94ED360C94D8
:10595000C836873EB3E09B0711F40C94A036883E0E
:10596000E3E09E0711F40C94C536803A934011F0A1
:105970000C94C83620915F0E3091600E90911513F3
:10598000926090931513C9010E94E8CD0C94ED36F6
:1059900080915B0E84FF02C00C94D23880915D0E22
:1059A00087FF02C00C94D23880915E0E837011F094
:1059B0000C94D2380C94EA380E945EC80C94ED36F0
:1059C0000E94EDC780911513877F809315130C9467
:1059D000ED36803209F41082319680818111F9CF41
:1059E00060E080915F0E9091600E0E9436CE109222
:1059F0002905109228050C94ED3683E50E94685F16
:105A0000882321F00E94C75E0F94730884E50E94EA
:105A1000685F8823A9F00E94C75E6B017C010E9429
:105A2000C3B5C0921A05D0921B05E0921C05F092F6
:105A30001D05CD28CE28CF2819F081E080931E05C2
:105A400080916E058823E9F080E090E0A8ECB1E455
:105A500089839A83AB83BC831C8E1D8E1E8E1F8E02
:105A600018A619A61AA61BA620E0AE014F5F5F4F2D
:105A7000BE01645E7F4FCE0188960E94F94D0C9462
:105A8000ED360E946554882381F00E94FEC70E9473
:105A9000895484E791E10E94A3C71092650E109289
:105AA000660E1092670E1092680E61E080EF92E42D
:105AB0000E9459784CE452E463E578E085E00E9466
:105AC000F24D0F94BA720C94ED368091151382FF4B
:105AD00003C08B7F809315130E94DC400C94ED363D
