:100000000C9471230C94A2230C94A2230C94A2238D
:100010000C94A2230C94A2230C94A2230C94A2234C
:100020000C94A2230C94A2230C94A2230C94A2233C
:100030000C94A2230C94EB860C94A2230C94A22380
:100040000C94A2230C9449B30C94A2230C94A223E5
:100050000C94A2230C94A2230D94B6340C9403BEEA
:100060000C94A2230C9446410C943C410C94A22382
:100070000C94A2230C94A2230C94A2230C94A223EC
:100080000C94A2230C94A2230C94A2230C94A223DC
:100090000C94A2230C94A2230C94A2230C94A223CC
:1000A0000C94A2230C94A2230C94A2230C94A223BC
:1000B0000C94A2230C94A2230C94A2230C94A223AC
:1000C0000C94A2230C94A2230C94A2230C94A2239C
:1000D0000C94A2230C94A2230C94A2230C94A2238C
:1000E0000C94A2237C4182419441A441AC41DC4167
:1000F000B041DC41B441B841DC41BC41C041C441E4
:10010000CD41DC41D841B5BCB8BCA7BCABBCB1BC8F
:10011000EFBCBCBCC0BCC6BCCABCCEBCD4BCD8BC8A
:10012000DCBCEFBCE2BCE6BCEABC84F967F96AF966
:1001300087F96DF970F973F97FF976F992F979F920
:100140007CF9D1019902D70127015D01A5013B028C
:10015000A502CF0195026901890139011501A501A7
:10016000F301A3020D0105A84CCDB2D44EB9383627
:10017000A9020C50B9918688083CA6AAAA2ABE00FA
:100180000000803F07634236B79BD8A71A396856EC
:1001900018AEBAAB558C1D3CB7CC5763BD6DEDFDA9
:1001A000753EF6177231BF000000803F0800000066
:1001B000BE922449123EABAAAA2ABECDCCCC4C3E5C
:1001C00000000080BEABAAAAAA3E00000000BF004B
:1001D0000000803F0000000000084178D3BB438747
:1001E000D1133D190E3CC3BD4282AD2B3E68EC825B
:1001F00076BED98FE1A93E4C80EFFFBE01C4FF7FE0
:100200003F00000000000C94E8AA0C94A9F40C94A0
:100210006E540C94A3AA0D9482160D94470F0C945F
:10022000D4BC0C94CBF40C949DA90D94290F0C9480
:10023000C4FD0C94AD420C9494420C9414AA0C94FA
:100240005A670C943D6B0D9454200D9460000D94EE
:10025000CE0E0D9498160C94EA850C9414860C948A
:1002600079F90D9424670C941CAB0C94DCBC0C94B1
:10027000C1430D941F0F0C94ECA90D94EF1D0C9429
:1002800074540D942E1E0C9434860C94D28E0C94BF
:10029000C88E0C9492F90C94C6BC0C9476540C94B1
:1002A0005BAC0D944A200C9497AA0C94CB960C94BA
:1002B00091AA0C949A520C9472540D94D80E0C94EA
:1002C000B2B10C946AF90C94C9AF0C94B1F40C94CB
:1002D000CEF40D94060F0C941B670C9468860D9455
:1002E0003D1E0C9413520C94A7420C94ABBC0C947E
:1002F0007FF90C94B8BC0C9440540D94A51E0C943A
:100300009B920D94691E0C94C8F40C94A5F40C9463
:10031000CBFB0D94100F0C9405AB0C94ADF40C9426
:1003200094410C9400AA0C9422860C9402900C9494
:10033000B5BC0C9467F90C94E0F90D9416250C9457
:10034000A2500C94776A0C94C0BC0D94510F0C947D
:100350005F680C949DAA0C9415900C946DAE0C944F
:10036000CD580C94B8410C9450650C94D9910D94CF
:10037000EE170C94C0410C9421860C945FAC0C9445
:10038000CF580C9482410C943ED20C94AC9C0C94AB
:1003900084F90C941E940C94B0410C9458AA0D94BA
:1003A000F20E0D94BA0E0C94CD8E0C94D8BC0D9414
:1003B000C40E0C945F540C9476F90C94D6A90C944A
:1003C00044AA0D94B0200D94AD170C94B1BC0D94BB
:1003D000381E0C946EAA0C94B5AA0D9483160C9436
:1003E000AA420C94C5F40D94330F0D9445200C943F
:1003F000AFAA0C940D660C94ECF90C9487F90C944C
:10040000C1AA0D94355B0C94B9F40C94CEBC0C9439
:10041000AC410C9400660C94B4410C94F0F70C942D
:100420009A870D943A190C94A5F20C94BBAC0C94D9
:1004300079FA0D94A8200C94EABC0C94AF8E0C941D
:100440004A640C94C4410C94CD410D9463000C9407
:10045000BCBC0C9430AA0D94F31C0C94BC410D94BC
:100460002F180C947C410C9470540C94B5F40C949B
:100470001F8F0C9412900D94E20E0C94E6BC0C9419
:1004800017910C940EFB0C948BAA0C947CF90C9491
:100490002DAB0C9430FA0C94BBAA0C94A5520C947E
:1004A00068AA0C9422AA0C943E660C94D8410C9431
:1004B0004FFA0D94631E0C94A7BC0C94EFBC0D94E2
:1004C0005D1E0C9473F90C9426AB0C9481FA0C9479
:1004D0009CD10D9454230C9418900C949DF40C947E
:1004E000A9AA0C944C860C9438860C945AFA0C9455
:1004F000DC410D94571E0C94CBAA0C9486F20C94FC
:10050000AB8E0C946DF90D944F220C94E2BC0C94BC
:1005100066AA0C94C1F40C94B9550C94A1F40D94F2
:100520008F170C9411910D9467340D94FC0E0C945C
:10053000BDF40D94BF0E0C946AAA0C94AB680C9495
:10054000CABC0C94A4410D943D0F0D94EA0E0D9479
:10055000331E0C9470F90C94419E0D944F200C9412
:100560007AD10C942DFB4E414E494E495459494E77
:1005700046CDCCCC3D0AD7233C17B7D13877CC2B0E
:10058000329595E6241FB14F0A000020410000C8B3
:100590004200401C4620BCBE4CCA1B0E5AAEC59D34
:1005A0007400407A10F35A00A0724E18090010A58A
:1005B000D4E80000E87648170000E40B540200007D
:1005C000CA9A3B000000E1F5050000809698000003
:1005D0000040420F000000A086010000001027002C
:1005E000000000E803000000006400000000000AB2
:1005F00000000000000100000000002C76D888DC1C
:10060000674F0823DFC1DFAE59E1B1B796E5E3E4F8
:1006100053C63AE651997696E8E6C28426EB898C71
:100620009B62ED407C6FFCEFBC9C9F40F2BAA56FD3
:10063000A5F490055A2AF75C936B6CF9676DC11BA2
:10064000FCE0E40D47FEF520E6B500D0ED902E036A
:1006500000943577050080841E080000204E0A00B3
:100660000000C80C333333330F986E12831141EFFF
:100670008D2114893BE65516CFFEE6DB18D1844B5D
:10068000381BF77C1D901DA4BBE424203284725ECD
:10069000228100C9F124ECA1E53D27434F4D4D5582
:1006A0004E49434154494F4E0044525952554E0011
:1006B0004552524F5253004543484F0020643A0080
:1006C00020693A0020703A00496E76616C696420B6
:1006D00065787472756465720A00536C6565702E76
:1006E0002E2E005761726E696E67203A20436C654A
:1006F000616E20436972636C652072657175697201
:1007000065732058590A004D65736820706F696ED3
:10071000742063616E6E6F74206265207265736F02
:100720006C7665640A004D302F3120427265616B32
:100730002043616C6C656400436C69636B20746F6B
:1007400020526573756D652E2E2E004E6F204D6FF5
:1007500076652E00456E642066696C65206C697351
:10076000740A00426567696E2066696C65206C6971
:1007700073740A00526573756D696E672053440087
:10078000286E6F2066696C65290043757272656E0C
:10079000742066696C653A200044656C6574696F05
:1007A0006E206661696C65642C2046696C653A2030
:1007B0000046696C652064656C657465643A002563
:1007C000697920256964202569682025696D2025BF
:1007D0006973005072696E742074696D653A200007
:1007E000452025530044454255473A004D313133A9
:1007F00020530050533A300A0050533A310A005007
:10080000727573612069332050726F2042204F4609
:10081000462E004348414D4245525F54454D504598
:10082000524154555245004D4F54494F4E5F4D4F24
:1008300044455300544845524D414C5F50524F542B
:10084000454354494F4E004155544F5245504F5225
:10085000545F53445F5354415455530050524F4DCD
:1008600050545F535550504F525400454D455247D8
:10087000454E43595F504152534552004341534501
:100880005F4C494748545F4252494748544E45538C
:100890005300544F47474C455F4C49474854530019
:1008A000534F4654574152455F504F5745520042AF
:1008B00055494C445F50455243454E54004C4556B3
:1008C000454C494E475F44415441005A5F50524F96
:1008D0004245004155544F4C4556454C00505249F5
:1008E0004E545F4A4F420050524F475245535300B7
:1008F0004155544F5245504F52545F54454D50004E
:10090000564F4C554D45545249430042494E415271
:10091000595F46494C455F5452414E53464552003B
:1009200053455249414C5F584F4E5F584F46460021
:100930004649524D574152455F4E414D453A4D61F2
:10094000726C696E204275696C64203435372028DA
:100950004769744875622920534F555243455F4398
:100960004F44455F55524C3A68747470733A2F2F58
:100970006769746875622E636F6D2F566572746156
:10098000627265616B2F4D61726C696E2050524FBF
:10099000544F434F4C5F56455253494F4E3A312EB8
:1009A00030204D414348494E455F545950453A50D7
:1009B000727573612069332050726F204220455850
:1009C0005452554445525F434F554E543A31205589
:1009D0005549443A38333666613934332D3133332F
:1009E000372D313333372D313333372D39386132A9
:1009F00030646537353630370A002F2F20004D31EF
:100A0000343520533C696E6465783E206F757420E0
:100A10006F662072616E67652028302D31290A00CB
:100A2000416363656C65726174696F6E3A20500052
:100A300020466C6F773A200050726F74656374655E
:100A4000642050696E0A006469730043290A0061DA
:100A5000626C656420286D696E2074656D7020007D
:100A6000436F6C642065787472756465732061727D
:100A70006520004D34323120696E636F7272656398
:100A80007420706172616D65746572207573616741
:100A9000650A00454550524F4D204F4B0A003F28F4
:100AA0004229617564207261746520696D706C61A2
:100AB000757369626C652E0A002053657269616CFA
:100AC00020302062617564207261746520736574E2
:100AD00020746F20003F4B2076616C7565206F7528
:100AE00074206F662072616E67652028302D31306A
:100AF000292E0A00416476616E6365204B3D00B784
:100B000006BE0BB006A9069B06206D61783A002050
:100B10006D696E3A004178697320005072696E7495
:100B200065722073746F70706564206475652074DD
:100B30006F206572726F72732E2046697820746818
:100B400065206572726F7220616E64207573652016
:100B50004D39393920746F20726573746172742E47
:100B6000202854656D7065726174757265206973B3
:100B70002072657365742E2053657420697420613A
:100B8000667465722072657374617274696E672928
:100B90000A004D38373620526573706F6E64696E87
:100BA000672050524F4D50545F00554E4B4E4F579B
:100BB0004E2053544154450047434F44455F494EEE
:100BC000464F004C43445F50415553455F52455397
:100BD000554D450046494C414D454E545F52554E8A
:100BE0004F55545F434F4E54494E55450046494C6E
:100BF000414D454E545F52554E4F555400507572FD
:100C00006765204D6F7265004572726F7220777252
:100C10006974696E6720746F20454550524F4D21AD
:100C20000A00627573793A20706175736564206695
:100C30006F7220696E7075740A00627573793A205C
:100C400070617573656420666F7220757365720AD2
:100C500000627573793A2070726F63657373696EA1
:100C6000670A0053544F505045442E20004E6F20C9
:100C7000436865636B73756D2077697468206C6970
:100C80006E65206E756D6265722C204C61737420E8
:100C90004C696E653A2000636865636B73756D20FF
:100CA0006D69736D617463682C204C617374204CA2
:100CB000696E653A20004C696E65204E756D6265FF
:100CC00072206973206E6F74204C617374204C69BC
:100CD0006E65204E756D6265722B312C204C6173F0
:100CE00074204C696E653A20004D313130004D3131
:100CF0003137004D33310053442072656164206503
:100D000072726F720A00446F6E65207072696E7441
:100D1000696E672066696C650A002121204B494C89
:100D20004C2063617573656420627920746F6F2055
:100D30006D75636820696E61637469766520746996
:100D40006D65202D2063757272656E7420636F6D02
:100D50006D616E643A200019171B161F211D1A259C
:100D600027231E2B2D29044002FF3E0C04070001FF
:100D700042656420436F6F6C696E672E2E2E0042B1
:100D800065642048656174696E672E2E2E002364A9
:100D90006566696E652044454641554C545F004B7D
:100DA0006420004B6920004B7020005049442041D2
:100DB00075746F74756E652066696E6973686564B5
:100DC000212050757420746865206C617374204B09
:100DD000702C204B6920616E64204B6420636F6E21
:100DE0007374616E74732066726F6D2062656C6FD0
:100DF0007720696E746F20436F6E666967757261E4
:100E000074696F6E2E680A00504944204175746FF2
:100E100074756E65206661696C6564212074696D06
:100E2000656F75740A000A20436C617373696320EF
:100E3000504944200A00204B643A2000204B693A74
:100E40002000204B703A20000A204E6F206F7665FC
:100E50007273686F6F740A002054753A2000204B3B
:100E6000753A2000206D61783A2000206D696E3A55
:100E7000200020643A200020626961733A2000500B
:100E80004944204175746F74756E65207374617286
:100E9000740A00504944204175746F74756E652062
:100EA0006661696C6564212054656D70657261745A
:100EB00075726520746F6F20686967680A00504911
:100EC00044204175746F74756E65206661696C6548
:100ED00064212042616420657874727564657220B3
:100EE0006E756D6265720A007C4D61726C696E7C14
:100EF000002D2D2D2D2D2D00A10000006900A20038
:100F000000006300B00000000900C10000004100C3
:100F1000C20000004100C30000004100C400000006
:100F20004100C50000004100C60000004145C70067
:100F300000004300C80000004500C9000000450053
:100F4000CD0000004900D10000004E00D500000097
:100F50004F00D60000004F00D70000007800DC00F2
:100F600000005500DD0000005900E00000006100B5
:100F7000E10000006100E20000006100E300000009
:100F80006100E40000006100E50000006100E6008F
:100F900000006165E70000006300E80000006500F4
:100FA000E90000006500EA0000006500EB000000B9
:100FB0006500EC0000006900ED0000006900EE0033
:100FC00000006900EF0000006900F10000006E0001
:100FD000F20000006F00F30000006F00F40000005A
:100FE0006F00F50000006F00F60000006F00F800D1
:100FF00000006F00F90000007500FA0000007500A5
:10100000FB0000007500FC0000007500FD00000002
:101010007900FF0000007900040100004100050193
:1010200000006100060100004300070100006300AA
:101030000C01000043000D01000063000E010000E0
:1010400044000F0100006400110100006400190158
:10105000000065001F01000067003001000049002A
:10106000310100006900410100004C004201000014
:101070006C00430100004E00440100006E00480176
:1010800000006E005901000072005A010000530078
:101090005B01000073005F0100007300600100004D
:1010A00053006101000073006501000074006F01CE
:1010B000000075007C0100007A007D0100005A00EC
:1010C0007E0100007A00920100006600E302000049
:1010D00078008403000027008503000027008603B2
:1010E00000004100870300002E0088030000450037
:1010F0008903000048008A03000049008C030000B7
:101100004F008E03000059008F0300004F00900332
:1011100000006900910300004100920300004200BA
:101120009303000054009403000034009503000072
:101130004500960300005A009703000048009803FA
:10114000000030009903000049009A0300004B00A2
:101150009B0300005E009C0300004D009D03000007
:101160004E009E03000033009F0300004F00A003C9
:1011700000006E00A10300005000A3030000450022
:10118000A40300005400A50300005900A6030000BA
:101190007000A70300005800A80300005000A90336
:1011A00000004F00AA0300004900AB0300005900F3
:1011B000AC0300006100AD0300006500AE03000059
:1011C0006E00AF0300006900B00300007600B103B9
:1011D00000006100B20300004200B303000076008B
:1011E000B40300006400B50300006500B60300000E
:1011F0005A00B70300006E00B80300003000B903C6
:1012000000006900BA0300006B00BB0300004C0043
:10121000BC0300007500BD0300007600BE030000A3
:101220006500BF0300006F00C00300006E00C10333
:1012300000007000C20300006300C30300006F00E1
:10124000C40300007400C50300007600C60300005C
:101250007000C70300005800C80300005700C9030E
:1012600000007700CA0300006900CB03000076008D
:10127000CC0300006F00CD0300007600CE03000019
:101280007700010400004500100400004100110433
:101290000000620012040000420013040000540029
:1012A000140400005100150400004500160400005D
:1012B0002A00170400004500180400004E0019041D
:1012C00000004E001A0400004B001B0400005400F4
:1012D0001C0400004D001D04000048001E04000016
:1012E0004F001F0400006E00200400005000210485
:1012F00000004300220400005400230400005900B1
:10130000240400006F00250400005800260400009B
:101310005500270400007900280400005700290424
:10132000000057002A04000062002B040000627CC9
:101330002C04000062002D04000065002E04000053
:101340007C4F2F040000397C300400006100310420
:101350000000360032040000420033040000720036
:10136000340400006100350400006500360400000C
:101370002A003704000065003804000075003904B5
:10138000000075003A0400006B003B0400006E0092
:101390003C0400006D003D04000048003E040000D5
:1013A0006F003F0400006E00400400007000410424
:1013B0000000630042040000740043040000790050
:1013C00044040000717045040000780046040000E9
:1013D00075004704000079004804000077004904C4
:1013E000000077004A04000062004B040000627CA9
:1013F0004C04000062004D04000065004E04000033
:101400007C6F4F040000670051040000650022203B
:1014100000002E001E210000507822210000544DB3
:10142000902100003C2D922100002D3EB0210000B3
:101430000300BB21000004003C2200007E00482283
:1014400000007E3D60220000213D612200003D0041
:10145000642200003C3D652200003E3DF123000077
:101460000700A03000003D0021F301000200C2F49B
:1014700001000500A2000000EC00B0000000DF0049
:10148000E4000000E100F6000000EF00F7000000BB
:10149000FD00FC000000F500E3020000EB00870304
:1014A0000000A5008F030000F40098030000F20084
:1014B0009E030000E300A3030000F600A903000060
:1014C000F400AC030000E000AD030000E300B10352
:1014D0000000E000B2030000E200B5030000E300FA
:1014E000B8030000F200BC030000E400BE030000EB
:1014F000E300C0030000F700C1030000E600C303DF
:101500000000E500902100007F00922100007E0095
:101510001A220000E8001E220000F30088250000C7
:10152000FF0002300000A1000C300000A2000D30CE
:101530000000A3009B300000DE009C300000DF00B4
:10154000A03000003D00A1300000A700A230000044
:10155000B100A3300000A800A4300000B200A53004
:101560000000A900A6300000B300A7300000AA00C8
:10157000A8300000B400A9300000AB00AA30000081
:10158000B500AB300000B600AC300000B6DEAD30C8
:101590000000B700AE300000B7DEAF300000B8008A
:1015A000B0300000B8DEB1300000B900B230000049
:1015B000B9DEB3300000BA00B4300000BADEB53096
:1015C0000000BB00B6300000BBDEB7300000BC003E
:1015D000B8300000BCDEB9300000BD00BA300000F9
:1015E000BDDEBB300000BE00BC300000BEDEBD3042
:1015F0000000BF00BE300000BFDEBF300000C000F2
:10160000C0300000C0DEC1300000C100C2300000A8
:10161000C1DEC3300000AF00C4300000C200C530DE
:101620000000C2DEC6300000C300C7300000C3DEC9
:10163000C8300000C400C9300000C4DECA30000059
:10164000C500CB300000C600CC300000C700CD3054
:101650000000C800CE300000C900CF300000CA0032
:10166000D0300000CADED1300000CADFD230000026
:10167000CB00D3300000CBDED4300000CBDFD53040
:101680000000CC00D6300000CCDED7300000CCDF2C
:10169000D8300000CD00D9300000CDDEDA300000B7
:1016A000CDDFDB300000CE00DC300000CEDEDD30F0
:1016B0000000CEDFDE300000CF00DF300000D000C1
:1016C000E0300000D100E1300000D200E230000044
:1016D000D300E3300000AC00E4300000D400E5307B
:1016E0000000AD00E6300000D500E7300000AE009D
:1016F000E8300000D600E9300000D700EA300000F2
:10170000D800EB300000D900EC300000DA00ED30FA
:101710000000DB00EF300000DC00F2300000A6002B
:10172000F3300000DD00F4300000B3DEF7300000DD
:10173000DCDEFA300000A6DEFB300000A500FC3045
:101740000000B000FD300000A400074E0000FB00C8
:1017500086510000FC0043530000FA0064FF0000C3
:10176000A40065FF0000A50066FF0000A60067FF5B
:101770000000A70068FF0000A80069FF0000A900A2
:101780006AFF0000AA006BFF0000AB006CFF0000C6
:10179000AC006DFF0000AD006EFF0000AE006FFFFB
:1017A0000000AF0070FF0000B00071FF0000B1004A
:1017B00072FF0000B20073FF0000B30074FF00006E
:1017C000B40075FF0000B50076FF0000B60077FF9B
:1017D0000000B70078FF0000B80079FF0000B900F2
:1017E0007AFF0000BA007BFF0000BB007CFF000016
:1017F000BC007DFF0000BD007EFF0000BE007FFF3B
:101800000000BF0080FF0000C00081FF0000C10099
:1018100082FF0000C20083FF0000C30084FF0000BD
:10182000C40085FF0000C50086FF0000C60087FFDA
:101830000000C70088FF0000C80089FF0000C90041
:101840008AFF0000CA008BFF0000CB008CFF000065
:10185000CC008DFF0000CD008EFF0000CE008FFF7A
:101860000000CF0090FF0000D00091FF0000D100E9
:1018700092FF0000D20093FF0000D30094FF00000D
:10188000D40095FF0000D50096FF0000D60097FF1A
:101890000000D70098FF0000D80099FF0000D90091
:1018A0009AFF0000DA009BFF0000DB009CFF0000B5
:1018B000DC009DFF0000DD009EFF0000DE009FFFBA
:1018C0000000DF00E5FF00005C00001010101010A9
:1018D0001000001414141414140000151515151517
:1018E0001500001C1F11111F00000006191803131A
:1018F0000C00040E1F041C000000000E1315110E36
:1019000000001C10181705060500040A0A0A0A112F
:10191000110E0C12120C00000000001F1511151FF3
:10192000000000000000010204040000001C1C0C68
:10193000040404020100000000000408100000007C
:101940000000416D6178204500416D6178205A00AA
:10195000416D6178205900416D6178205800412D1A
:1019600054726176656C00412D52657472616374C6
:1019700000416363656C004A756E6374696F6E2025
:10198000446576004573746570732F6D6D005A73EE
:10199000746570732F6D6D005973746570732F6D5E
:1019A0006D005873746570732F6D6D00496E6974A6
:1019B00000496E697469616C697A652045455052C9
:1019C0004F4D004261636B6C6173680053746570C6
:1019D000732F6D6D004A65726B00416363656C65C2
:1019E000726174696F6E0056656C6F63697479001B
:1019F000536D6F6F7468696E6700436F72726563D1
:101A000074696F6E0024F4D43050C38E20C2A2409B
:101A100017828B7011127A910D816CD90AA861E13D
:101A200008C7586607615143061E4B5D05C145A7AF
:101A3000041A411104093D9803713931034036DB22
:101A40000265339102D4305402802E1D02632CEEC5
:101A500001752AC501B028A001102781018F2564D6
:101A6000012B244B01E0223401AC211F018D200DFC
:101A700001801FFC00841EED00971DDF00B81CD202
:101A800000E61BC600201BBC00641AB200B219A8F5
:101A9000000A19A0006A189900D117910040178B0D
:101AA00000B516840031167E00B31579003A15731F
:101AB00000C7146F0058146A00EE136600881363A1
:101AC0000025135E00C7125B006C125700151254FC
:101AD00000C111510070114F0021114B00D6104967
:101AE000008D1047004610440002104200C00F4015
:101AF00000800F3E00420F3C00060F3B00CB0E382B
:101B000000930E37005C0E3500270E3400F30D32C3
:101B100000C10D3100900D3000600D2E00320D2DF2
:101B200000050D2C00D90C2B00AE0C2900850C29CA
:101B3000005C0C2700350C27000E0C2600E80B2457
:101B400000C40B2400A00B23007D0B23005A0B21A3
:101B500000390B2100180B2000F80A1F00D90A1EBB
:101B600000BB0A1E009D0A1D00800A1D00630A1C9E
:101B700000470A1B002C0A1B00110A1A00F7091A59
:101B800000DD091900C4091900AB091900920917F1
:101B9000007B091800630917004C09160036091666
:101BA00000200916000A091500F5081500E00814C0
:101BB00000CC081400B8081400A4081400900813FE
:101BC000007D0812006B0813005808120046081226
:101BD0000034081100230811001208110001081137
:101BE00000F0071000E0071000D0071000C0071039
:101BF00000B0070F00A107100091070E0083070F28
:101C00000074070F0065070E0057070E0049070E06
:101C1000003B070D002E070E0020070D0013070DD7
:101C20000006070D00F9060C00ED060D00E0060C9D
:101C300000D4060C00C8060C00BC060C00B0060C54
:101C400000A4060B0099060C008D060B0082060B03
:101C50000077060B006C060B0061060A0057060BA6
:101C6000004C060A0042060A0038060A002E060A40
:101C70000024060A001A060A001006090007060AD0
:101C800000FD050900F4050900EB050900E205095E
:101C900000D9050900D0050900C7050900BE0509DE
:101CA00000B5050800AD050800A50509009C05085C
:101CB00000940508008C050800840508007C0508D0
:101CC00000740508006C050700650508005D050740
:101CD00000560508004E05070047050700400508A7
:101CE0000038050700310507002A0507002305070E
:101CF000001C050600160507000F0507000805066D
:101D00000002050700FB040600F5040700EE0406C8
:101D100000E8040600E2040700DB040600D5040620
:101D200000CF040600C9040600C3040600BD040673
:101D300000B7040600B1040500AC040600A60406C2
:101D400000A00405009B040600950405009004060D
:101D5000008A04050085040500800406007A040555
:101D60000075040500700405006B04050066040599
:101D700000610405005C04050057040500520405D9
:101D8000004D04050048040500430405003E04041A
:101D9000003A04050035040500300404002C040555
:101DA0000027040400230405001E0404001A040490
:101DB0000016040500110404000D040400090405C4
:101DC000000404040000040400FC030400F80304FD
:101DD00000F4030400F0030400EC030400E803042F
:101DE00000E4030400E0030400DC030400D803045F
:101DF00000D4030400D0030400CC030400C8030390
:101E000000C503030024F404D9201BC40C5C0E9805
:101E100004C4095F0265077101F405F900FB04B30E
:101E20000048048700C103690058035500030345B7
:101E300000BE023A008402310053022A0029022522
:101E40000004022000E4011C00C8011900AF0117C2
:101E50000098011400840113007101100061011049
:101E60000051010E0043010D0036010B002B010B48
:101E70000020010B00150109000C010900030108F5
:101E800000FB000800F3000800EB000700E4000678
:101E900000DE000600D8000600D2000600CC0005D7
:101EA00000C7000500C2000500BD000400B9000421
:101EB00000B5000400B1000400AD000400A9000456
:101EC00000A5000300A20003009F0004009B000384
:101ED00000980003009500020093000300900003A7
:101EE000008D0002008B00030088000200860002C3
:101EF0000084000300810002007F0002007D0002D8
:101F0000007B0002007900020077000100760002E9
:101F1000007400020072000100710002006F0002F4
:101F2000006D0001006C0002006A000100690002FF
:101F30000067000100660001006500010064000206
:101F4000006200010061000100600001005F00020A
:101F5000005D0001005C0001005B0001005A00010F
:101F6000005900010058000100570001005600010F
:101F7000005500010054000100530000005300010F
:101F8000005200010051000100500001004F00010B
:101F9000004E0000004E0001004D0001004C000109
:101FA000004B0000004B0001004A00010049000105
:101FB0000048000000480001004700010046000002
:101FC00000460001004500000045000100440001FA
:101FD00000430000004300010042000000420001F5
:101FE000004100000041000100400001003F0000EE
:101FF000003F0001003E0000003E0001003D0000E7
:10200000003D0001003C0000003C0000003C0001DD
:10201000003B0000003B0001003A0000003A0001D4
:1020200000390000003900010038000000380000CD
:1020300000380001003700000037000100360000C2
:1020400000360000003600010035000000350000B9
:1020500000350001003400000034000000340001AD
:1020600000330000003300000033000100320000A4
:102070000032000000320001003100000031000099
:10208000003100010030000000300000003000018D
:10209000002F0000002F0000002F0000002F000183
:1020A000002E0000002E0000002E0001002D000078
:1020B000002D0000002D0000002D0001002C00006C
:1020C000002C0000002C0000002C0001002B000060
:1020D000002B0000002B0000002B0001002A000054
:1020E000002A0000002A0000002A00010029000048
:1020F000002900000029000000290000002900013B
:10210000002800000028000000280000002800002F
:102110000028000100270000002700000027000021
:102120000027000000270001002600000026000014
:102130000026000000260000002600010025000007
:1021400000250000002500000025000000250000FB
:1021500000250001002400000024000000240000ED
:1021600000240000002400010023000000230000E0
:1021700000230000002300000023000000230000D3
:1021800000230001002200000022000000220000C5
:1021900000220000002200000022000100210000B7
:1021A00000210000002100000021000000210000AB
:1021B000002100000021000100200000002000009C
:1021C000002000000020000000200000002000008F
:1021D0000020000000200001001F0000001F000080
:1021E000001F0000001F0000001F0000001F000073
:1021F000001F0001001E0000001E0000001E000065
:10220000001E000000232C0000B822000056180019
:10221000003A0F0000B8080000B10400007102008D
:10222000003E010000496E666F2053637265656E63
:10223000004732392050362043202D004865696719
:10224000687420416D6F756E740041646A757374B3
:10225000204D6573682048656967687400473239A6
:1022600020503420540046696E652054756E6520F8
:10227000436C6F73657374004732362043204225E8
:10228000692048256920500056616C696461746555
:1022900020437573746F6D204D6573680047323845
:1022A0000A4732362043204237302048323530202A
:1022B000500056616C6964617465204D65736820D7
:1022C000285045544729004732380A4732362043C0
:1022D00020423630204832303020500056616C6940
:1022E00064617465204D6573682028504C41290055
:1022F000473239204A2569004C6576656C204D656A
:102300007368005369646520506F696E7473004789
:10231000726964204D657368204C6576656C696EE2
:102320006700473239204A3000332D506F696E7490
:10233000204C6576656C696E6700473239205033F2
:10234000205220432E2569004D616E75616C204638
:10235000696C6C2D696E0046696C6C2D696E20414C
:102360006D6F756E74004D65736820696E76616C73
:102370006964617465642E0A004732392049004956
:102380006E76616C696461746520436C6F7365730C
:102390007400496E76616C696461746520416C6C8F
:1023A00000473239205031204300436F6E74696E0C
:1023B000756520426564204D6573680046696C6CE4
:1023C0002D696E204D657368004275696C64204309
:1023D0007573746F6D204D657368004732380A4D10
:1023E000313930205337300A4D31303920533235AE
:1023F000300A4732392050310A4D313034205330C1
:102400000A4D313430205330004275696C64204DE0
:1024100065736820285045544729004732380A4DD3
:10242000313930205336300A4D3130392053323073
:10243000300A4732392050310A4D31303420533080
:102440000A4D313430205330004275696C64204DA0
:102450006573682028504C412900206279746573A7
:102460003B20637263200053657474696E67732048
:1024700053746F7265642028004E6F20454550529A
:102480004F4D2E0A00454550524F4D2064617461F6
:1024900073697A65206572726F722E0A003F4D650E
:1024A000736820746F6F2062696720666F722045C1
:1024B0004550524F4D2E0A0055424C2072657365AF
:1024C000740A00206C6F616465642066726F6D2011
:1024D00073746F726167652E0A004D657368200022
:1024E0003F43616E277420656E61626C6520002039
:1024F00073746F7265642073657474696E6773209A
:1025000072657472696576656420280020286361AD
:102510006C63756C6174656429210A0020213D207B
:1025200000454550524F4D20435243206D69736D15
:1025300061746368202D202873746F72656429208C
:1025400000496E6465783A2000204D61726C696EB6
:102550003D563734290A00454550524F4D20766587
:102560007273696F6E206D69736D61746368202882
:10257000454550524F4D3D006563686F3A004572C6
:10258000726F723A0020204D3432312049002020F1
:10259000473239204939390A006163746976650A1E
:1025A000002053797374656D2076312E3031200010
:1025B0002020207C0A004E414E0020202E2020208A
:1025C00000207C004C43443A0A004353563A0A0028
:1025D00020666F7220003A0A0A000A42656420549D
:1025E0006F706F677261706879205265706F727476
:1025F00000446F6E652E0A003F496E76616C696417
:102600002073746F7261676520736C6F742E0A3F5C
:10261000557365203020746F2000473239205032C6
:102620002066696E69736865642E0A005859206FC8
:10263000757473696465207072696E7461626C652B
:10264000207261646975732E0A003F4572726F7261
:1026500020696E20427573696E65737320436172E1
:1026600064206D6561737572656D656E742E0A0008
:102670004D616E75616C6C792070726F62696E6706
:1026800020756E726561636861626C65206D65734B
:1026900068206C6F636174696F6E732E0A004D65FC
:1026A0007368207A65726F65642E0A0044656661FE
:1026B000756C742073746F7261676520736C6F74CE
:1026C00020302073656C65637465642E0A004C6F5E
:1026D0006164696E6720746573745F70617474659A
:1026E000726E2076616C7565732E0A0A00496E76EB
:1026F000616C696420746573745F70617474657271
:102700006E2076616C75652E20282D3120746F2027
:1027100032290A0A004C6F636174696F6E73206915
:102720006E76616C6964617465642E0A0A00456E98
:1027300074697265204D65736820696E76616C6995
:1027400064617465642E0A0A002053697A653A2030
:102750000043616E6E6F74206F70656E20737562DA
:10276000646972200053442063617264206F6B0AB5
:10277000006F70656E526F6F74206661696C65647E
:102780000A00766F6C756D652E696E6974206661DE
:10279000696C65640A00534420696E69742066613F
:1027A000696C0A004D32332025730046696C652040
:1027B00073656C65637465640A0046696C65206FB7
:1027C00070656E65643A2000454E44205355425270
:1027D0004F5554494E450A002220706F7300222045
:1027E000706172656E743A2200535542524F5554CF
:1027F000494E452043414C4C207461726765743AE0
:102800002200747279696E6720746F2063616C6C4A
:10281000207375622D67636F64652066696C6573EC
:10282000207769746820746F6F206D616E79206CF9
:102830006576656C732E204D4158206C6576656C0D
:102840002069733A310A0057726974696E6720749F
:102850006F2066696C653A20005344207072696E7F
:1028600074696E67206279746520004E6F7420531E
:1028700044207072696E74696E670A0066726573CF
:102880006800646F696E67004E6F772000025465C0
:102890006D70657261747572650046616E2053706B
:1028A000656564004E6F7A7A6C65004D61696E00F3
:1028B0005072656865617420504C41204265640027
:1028C0005072656865617420504C4120456E64000B
:1028D00050726568656174205045544720456E64A8
:1028E0000050726568656174205045544720426508
:1028F0006400436F6F6C646F776E0042616279733E
:10290000746570205A00466C6F77004D65736820BF
:10291000456469746F72004D313039205325690068
:102920004D31393020532569004265642054656D6E
:102930007000486F74656E642054656D7000473296
:102940003920503420523939392054004732380A5E
:10295000473239205031004D6F74696F6E00372E49
:10296000205361766520426564204D6573680036AA
:102970002E2046696E652054756E6520416C6C0092
:10298000352E2056616C6964617465204D657368ED
:1029900000342E2046696E652054756E6520416CAA
:1029A0006C00332E2056616C6964617465204D653E
:1029B00073680047323920503320543000322E20C3
:1029C000536D6172742046696C6C2D696E00312EF6
:1029D000204275696C6420436F6C64204D65736898
:1029E000004732392057004F757470757420554276
:1029F0004C20496E666F0055424C20546F6F6C73CB
:102A0000004F7574707574204D657368204D61704A
:102A1000004D6573682053746F72616765004D6582
:102A20007368204564697400537465702D42792D74
:102A3000537465702055424C0047323920410041A3
:102A4000637469766174652055424C0047323920C1
:102A50004400446561637469766174652055424C35
:102A6000002568753A253032687500253032687562
:102A70003A2530326875005072696E742066726F44
:102A80006D204D65646961004D6F76652025736D1D
:102A90006D004D6F766520302E316D6D004D6F7677
:102AA0006520316D6D004D6F76652031306D6D00A4
:102AB0004D6F7665204178697300486F74656E6468
:102AC00020746F6F20636F6C640045787472756456
:102AD0006572004D6F7665205A004D6F76652059FE
:102AE000004D6F76652058004368616E676520462B
:102AF000696C616D656E7400556E6C6F6164204623
:102B0000696C616D656E74004C6F61642046696C20
:102B1000616D656E74005072656865617420504522
:102B20005447005072656865617420504C410050F4
:102B300072656865617420437573746F6D004261DE
:102B4000636B00486F6D65202573257325732046E0
:102B50006972737400626567696E005075726765AB
:102B60004D6F726500436F6E74696E7565004C6FD2
:102B700061642046696C616D656E74205400496E15
:102B8000736572742066696C616D656E7420616E28
:102B9000642073656E64204D3130380A00220A00CB
:102BA000556E6B6E6F776E20636F6D6D616E643AFC
:102BB0002022004C6F6164206D6D00556E6C6F615A
:102BC00064206D6D00416476616E6365204B00206A
:102BD000022046616374002002204D6178002002CB
:102BE000204D696E004175746F74656D70005654A8
:102BF000726176204D696E00566D696E00566D618A
:102C000078204500566D6178205A00566D61782015
:102C10005900566D61782058000000000000000047
:102C2000000000000000004843000048430000345A
:102C300043000020420000204200008040020202C7
:102C40000000A0400000A0400000A040FFFFFF00E7
:102C500000000100000001000080005555550000F3
:102C600000400033333300AAAA2A0049922400000E
:102C7000002000C7711C0099991900D14517005513
:102C80005515003BB1130024491200111111000029
:102C90000010000F0F0F00E3380E0043790D00CC39
:102CA000CC0C00C3300C00E8A20B0064210B00AA7E
:102CB000AA0A00703D0A009DD80900427B090092D3
:102CC000240900DCD30800888808001042080000AE
:102CD000000800F0C10700878707007550070071E2
:102CE0001C07003EEB0600A1BC06006990060066CA
:102CF000660600703E06006118060017F4050074B1
:102D0000D105005BB00500B2900500627205005568
:102D100055050078390500B81E0500050505004E6B
:102D2000EC040087D40400A1BD040090A70400496E
:102D3000920400C17D0400EE690400C756040044FB
:102D40004404005C32040008210400411004000027
:102D50000004003FF00300F8E0030026D20300C3A4
:102D6000C30300CCB503003AA803000A9B03003854
:102D70008E0300C08103009F750300D069030050DB
:102D80005E03001D53030034480300913D030033EC
:102D900033030016290300381F0300971503003082
:102DA0000C0300030303000BFA020049F10200BA0E
:102DB000E802005CE002002DD802002DD00200598C
:102DC000C80200B0C0020031B90200DAB10200AAA4
:102DD000AA0200A0A30200BC9C0200FA9502005CBB
:102DE0008F0200DF88020082820200457C020027F9
:102DF00076020027700200436A02007C640200D061
:102E00005E02003F590200C8530200FFFDFCFAF8C1
:102E1000F6F4F2F0EEECEAE9E7E5E3E1E0DEDCDA35
:102E2000D9D7D5D4D2D0CFCDCBCAC8C7C5C3C2C0DD
:102E3000BFBDBCBAB9B7B6B4B3B2B0AFADACAAA956
:102E4000A8A6A5A4A2A1A09E9D9C9A9998979594A6
:102E50009392908F8E8D8B8A8988878684838281D6
:102E6000807F7E7D7B7A79787776757473727170E6
:102E70006F6E6D6C6B6A69686766656463626160DA
:102E80005F5E5D5C5B5A59585857565554535251C2
:102E900050504F4E4D4C4B4A4A4948474646454490
:102EA00043424241403F3E3E3D3C3B3B3A3938384D
:102EB00037363535343332323130302F2E2E2D2CFB
:102EC0002B2B2A292928272726252524232322219D
:102ED0002120201F1E1E1D1C1C1B1B1A191918182F
:102EE000171616151514131312121111100F0F0EB9
:102EF0000E0D0D0C0C0B0A0A090908080707060637
:102F000005050404030302020100005761726E69A3
:102F10006E673A20486F6D696E672042756D70204C
:102F200044697669736F72203C20310A00687474BA
:102F3000703A2F2F6D61726C696E66772E6F7267B3
:102F400000204275696C6420343537002020506CB5
:102F5000616E6E65724275666665724279746573FC
:102F60003A20002046726565204D656D6F72793A92
:102F70002000436F6D70696C65643A20446563207E
:102F8000333120323031390A00204C6173742055BE
:102F90007064617465643A20323031392D31322DDC
:102FA0003139207C20417574686F723A202856654B
:102FB000727461627265616B6572290A004275699B
:102FC0006C64203435370A004D61726C696E0020E4
:102FD000536F6674776172652052657365740A0079
:102FE000205761746368646F672052657365740A63
:102FF000002042726F776E206F7574205265736582
:10300000740A002045787465726E616C2052657395
:1030100065740A00506F77657255700A00617574A7
:103020006F25632E6700473237006572726F72201A
:1030300077726974696E6720746F2066696C650ABF
:1030400000446F6E6520736176696E672066696CF7
:10305000652E0A004D323900255320256320256353
:1030600020256320256300205A3A0020593A006544
:103070006E6473746F7073206869743A2000000086
:103080002100240027002A002D0030003300010118
:103090000000040107010A010000220025002800A9
:1030A0002B002E0031003400020100000501080150
:1030B0000B01000020002300260029002C002F0017
:1030C00032000001000003010601090105050505A4
:1030D000070508080808020202020A0A0808040490
:1030E00004040101010101010101030303030303BE
:1030F0000303040707070C0C0C0C0C0C0C0C02024D
:10310000020206060606060606060B0B0B0B0B0B49
:103110000B0B0102102020080810204010204080D6
:10312000020102010804020101020408102040808B
:103130008040201008040201800402018040201019
:103140000804020108040201010204081020408062
:10315000010204081020408000000A0B02090C0D37
:103160000E0807030401000000000000000000003A
:10317000000000000000000000000000000000004F
:10318000000000001211100000000000000000000C
:103190000000000000000000000000000000202FE0
:1031A000002042403A0020403A0020573A007C3C40
:1031B0003E5E2B3D3F2F5B5D3B2C2A225C00446929
:1031C000736D697373005072696E7420506175730A
:1031D0006564005061757365205072696E74004DAE
:1031E000656469612052656D6F766564004D656444
:1031F000696120496E736572746564006E6F7469ED
:103200006669636174696F6E200050727573612026
:1032100069332050726F20422052656164792E001C
:103220005072696E74696E672E2E2E0063616E6334
:10323000656C005072696E742041626F72746564CF
:103240000055492041626F72746564004D3235202B
:10325000500A4D323400526573756D650055492032
:10326000506175736500726573756D650020746FCC
:103270006F206C6F6E6720657874727573696F6EFE
:103280002070726576656E7465640A0020636F6CE9
:103290006420657874727573696F6E2070726576DC
:1032A000656E7465640A00486F74656E6420746F9F
:1032B0006F20636F6C640A003F454550524F4D20AC
:1032C00073746F72616765206E6F742061766169D7
:1032D0006C61626C652E0A00706175736564004DE7
:1032E0003630303A20546F6F20436F6C6400726543
:1032F00073756D656400526573756D696E67004224
:103300006564204C6576656C696E6720004661696E
:103310006C656420746F20656E61626C6520426527
:1033200064204C6576656C696E670A00496E76614B
:103330006C6964206D6573682E0A0076616C69643F
:103340000A53746F7261676520736C6F743A200062
:103350004D65736820697320003F496E76616C6922
:10336000642073746F7261676520736C6F742E0ACA
:10337000003F2061646472657373203A200020620C
:1033800079746573206F66206D656D6F7279206941
:103390006E697469616C697A65642E0A0A00556EFB
:1033A00061626C6520746F20696E697469616C6913
:1033B0007A652E0A0A00496E697469616C697A69D6
:1033C0006E672066726565206D656D6F727920622B
:1033D0006C6F636B2E0A0A0A00747275650A00200E
:1033E00072657475726E3D000A4D656D6F7279205D
:1033F000436F7272757074696F6E20646574656373
:1034000074656420696E2066726565206D656D6FF8
:10341000727920617265612E0A002020626C6F63F0
:103420006B5F666F756E643D002020200A002920C6
:10343000666F756E643D002020204D656D6F72795A
:1034400020636F7272757074696F6E206465746545
:1034500063746564207769746820656E645F667262
:1034600065655F6D656D6F72793C486561700A00D6
:1034700020656E645F667265655F6D656D6F7279FC
:10348000203C204865617020002020656E645F66E6
:103490007265655F6D656D6F72793D000A66726574
:1034A000655F6D656D6F72795F73746172743D00F5
:1034B0000A666D632829206E3D00636865636B5F53
:1034C000666F725F667265655F6D656D6F72795F5D
:1034D000636F7272757074696F6E2829203D2000C9
:1034E0004D313030204620002062797465732061B0
:1034F0007420000A4C61726765737420667265659A
:1035000020626C6F636B20697320002062797465A0
:103510007320667265652061742000466F756E6465
:1035200020000A436F7272757074696E672061645F
:1035300064726573733A2000436F727275707469B8
:103540006E672066726565206D656D6F72792062A9
:103550006C6F636B2E0A0A000A537461636B205010
:103560006F696E7465722020202020202020203A70
:1035700020000A667265655F6D656D6F72795F65C3
:103580006E64202020202020203A20000A667265E8
:10359000655F6D656D6F72795F7374617274202001
:1035A0002020203A20000A6273735F656E64202039
:1035B000202020202020202020202020203A200011
:1035C00020284E6F7420796574206D656173757263
:1035D00065642900202041766572616765206D650C
:1035E000617375726564206261636B6C61736820DE
:1035F000286D6D293A002020536D6F6F7468696ED5
:103600006720286D6D293A202020202020202020AE
:103610002020202020202020530020204261636BA6
:103620006C6173682044697374616E636520286DF2
:103630006D293A20202020202020200020284631FB
:103640002E30203D2066756C6C2C2046302E3020AC
:103650003D206E6F6E65290A002020436F727265EF
:103660006374696F6E20416D6F756E742F4661646F
:10367000652D6F75743A2020202020460061637408
:103680006976653A0A004261636B6C617368204336
:103690006F7272656374696F6E200020595A3A2008
:1036A0000020585A3A20002058593A2000536B65A0
:1036B0007720466163746F72006D696E5F736B652E
:1036C000775F666163746F723A20202D31206D61DF
:1036D000785F736B65775F666163746F723A202001
:1036E000310A00554E4C4F41442046494C414D450E
:1036F0004E540046494C414D454E54204348414E9E
:10370000474500436F6E66696775726174696F6ED5
:10371000004D37303220542564004D363030204281
:103720003020542564004D373032203B2564004D55
:1037300037303120542564004D373032004D37305A
:1037400031004D36303020423000507572676520B0
:103750006D6F726500524553554D45204F50544989
:103760004F4E533A005052494E5420504155534504
:10377000440020204E6F7A7A6C653A200053746FB3
:1037800070004D3231004368616E6765204D65649D
:103790006961004175746F7374617274004D3830E3
:1037A0000053776974636820506F776572204F6E9D
:1037B000004D38310053776974636820506F776526
:1037C00072204F666600526573756D652050726990
:1037D0006E740054756E650053746F70205072697A
:1037E0006E74004E6F204D65646961005061726BAC
:1037F000696E672E2E2E0000005761697420666F77
:10380000720066696C616D656E74206368616E67D5
:103810006500746F2073746172740057616974205D
:10382000666F720066696C616D656E7420756E6C92
:103830006F616400004E6F7A7A6C65206865617410
:10384000696E6700506C6561736520776169742EDD
:103850002E2E0000507265737320627574746F6E43
:1038600000746F2068656174206E6F7A7A6C6500F1
:1038700000496E736572742066696C616D656E7463
:1038800000616E6420707265737320627574746F6A
:103890006E00746F20636F6E74696E75650057619A
:1038A000697420666F720066696C616D656E742064
:1038B0006C6F61640000507265737320427574749C
:1038C0006F6E00746F20726573756D65207072691C
:1038D0006E7400005761697420666F72207072699F
:1038E0006E7400746F20726573756D652E2E2E00D8
:1038F000005761697420666F720066696C616D655E
:103900006E74207075726765000043616E63656C4C
:10391000204F626A65637400416476616E6365641A
:103920002053657474696E6773004E657874205017
:103930006F696E74004E657874004E4F00594553A0
:103940000043616E63656C204F626A656374203D5D
:10395000004C6F61642053657474696E6773005224
:103960006573746F7265206661696C73616665006A
:1039700053746F72652053657474696E6773005079
:10398000726568656174205045544720436F6E66C8
:10399000005072656865617420504C4120436F6E21
:1039A00066004732380A47323920503420523235C7
:1039B000350A47323920410A4D3530300047323917
:1039C0002050340A4D353030004D333033205531DE
:1039D00020453020533235302043380A4D353030C1
:1039E000004D33303320553120452D3120533930AF
:1039F0002043380A4D353030004D393030204B30BF
:103A00000A4D353030004D393030204B302E320ADF
:103A10004D353030004D393030204B302E330A4D8B
:103A2000353030004D393030204B302E340A4D3592
:103A30003030004D393030204B302E350A4D353086
:103A400030004D393030204B302E360A4D35303075
:103A5000004C696E20416476204B302E34004C6956
:103A60006E20416476204B302E33004C696E20412D
:103A70006476204B302E35004C696E2041647620F0
:103A80004B302E32004C696E20416476204F6666C2
:103A9000004C696E20416476204B302E3600504930
:103AA0004474756E65204265640050494474756EB7
:103AB0006520486F74656E640041646A7573742094
:103AC000506F696E74204E656172004D616E756154
:103AD0006C2055424C006F70656E00545249474748
:103AE00045524544007A5F6D696E00795F6D696E7D
:103AF00000785F6D696E005265706F7274696E67F1
:103B000020656E6473746F70207374617475730ACA
:103B10000020436F756E7420583A003F4A206F753D
:103B200074206F662072616E67652028302E3031F8
:103B300020746F20302E33290A0020633A00204D74
:103B4000393220580020204D61783A200020204D45
:103B5000696E3A2000536F667420656E6473746FEB
:103B600070733A200020496E76616C696420657834
:103B700074727564657220004D313137204D657364
:103B800068202569204C6F616465640047323920E4
:103B90004C2569004D313137204D6573682025690A
:103BA0002053617665640047323920532569004C03
:103BB0006F616420426564204D657368004D656DDA
:103BC0006F727920536C6F74004E6F2053746F7254
:103BD00061676500486F6D696E672058595A0047E4
:103BE000323920503420582573205925732052250E
:103BF0006900202D2D2D2D2D0047323800473239F8
:103C000020532D31004F6666205072696E746572C4
:103C1000204261636B757000473239205431004F88
:103C2000757470757420666F722043535600473266
:103C300039205430004F757470757420666F72208F
:103C4000486F73740045646974204D65736800475C
:103C5000323920493939390A473239205032204225
:103C6000205430004D616E75616C6C79204275692D
:103C70006C64204D657368003F0043616E63656C42
:103C8000005374617274205072696E740043616EE7
:103C90006E6F7420656E74657220737562646972EC
:103CA0003A2000052E2E00536F667420456E647313
:103CB000746F7073004D38340044697361626C65D1
:103CC000205374657070657273004C6576656C2066
:103CD000436F726E65727300473238205A00486F26
:103CE0006D65205A00473238205900486F6D6520B5
:103CF0005900473238205800486F6D652058004100
:103D000075746F20486F6D65005374616E646172E5
:103D10006420446576696174696F6E3A20004D6570
:103D2000616E204D657368204865696768743A2044
:103D30000023206F662073616D706C65733A2000FC
:103D400020616E642074616B652061206D65617314
:103D50007572656D656E742E0A006D6D20746869EC
:103D6000636B2E0A00427573696E6573732043613D
:103D70007264206973200052656D6F76652026207D
:103D80004D656173757265204265640052656D6FA3
:103D90007665207368696D00506C61636520736897
:103DA000696D20756E646572206E6F7A7A6C65003D
:103DB0004D65736820506F696E74204D6561737531
:103DC0007265642061743A20000A4D657368206F43
:103DD0006E6C79207061727469616C6C7920706F9F
:103DE00070756C617465642E0A00506C61636520A7
:103DF0005368696D2026204D656173757265004DAD
:103E00006F76696E6720746F206E657874004D65FB
:103E100073682045646974696E672053746F7070AD
:103E2000656400446F6E652045646974696E67203F
:103E30004D6573680A00446F6E6520456469746956
:103E40006E67204D6573680046696E652054756E17
:103E5000696E67204D6573680028582C5929206FBA
:103E6000757473696465207072696E7461626C65E3
:103E7000207261646975732E0A004F6666736574FB
:103E8000206F7574206F6620626F756E64732E20CC
:103E9000283020746F2031306D6D290A0A00496E78
:103EA00076616C6964206D617020747970652E0A8A
:103EB0000A003F43616E2774206163746976617400
:103EC0006520616E64206465616374697661746500
:103ED000206174207468652073616D652074696D5C
:103EE000652E0A0A00426F74682058202620592047
:103EF0006C6F636174696F6E73206D75737420628B
:103F000065207370656369666965642E0A0A0047F7
:103F10003239204A20616374696F6E207265717551
:103F20006972657320612070726F62652E0A0A00E3
:103F30003F285029686173652076616C756520693A
:103F40006E76616C69642028302D36292E0A0A00AD
:103F5000473239205031207265717569726573205E
:103F6000612070726F62652E0A0A003F285629652B
:103F700072626F7365206C6576656C20696D706C1C
:103F800061757369626C652028302D34292E0A0A08
:103F9000003F285229657065746974696F6E2063EB
:103FA0006F756E7420696E76616C69642028312BA0
:103FB000292E0A0A00446F696E672047323900458E
:103FC0003100626564002C2073797374656D207311
:103FD000746F7070656421204865617465725F4913
:103FE000443A200048656174696E67204661696CD7
:103FF00065640048656174696E67206661696C6517
:104000006400202D20496E76616C696420657874A7
:104010007275646572206E756D62657220210A008A
:104020004572723A204D415854454D50004D41580B
:1040300054454D5020747269676765726564004528
:1040400072723A204D494E54454D50004D494E54E0
:10405000454D5020747269676765726564004D381C
:104060003420450070012C0190012701B00122018C
:10407000C0011D01F00118011002130130020E01F0
:104080006002090190020401C002FF000003FA006F
:104090004003F5008003F000D003EB002004E600AD
:1040A0007004E100E004DC004005D700C005D20048
:1040B0004006CD00D006C8008007C3003008BE000F
:1040C000F008B900C009B400B00AAF00B00BAA00F4
:1040D000D00CA500000EA000500F9B00C010960051
:1040E0005012910000148C00C0158700B017820098
:1040F000B0197D00D01B7800001E730040206E00B8
:1041000090226900F024640040275F0090295A0043
:10411000E02B5500102E500020304B00103246008E
:10412000E033410090353C001037370070383200E2
:10413000A0392D00B03A2800A03B2300603C1E00AF
:10414000103D1900903D1400103E0F00703E0A0013
:10415000C03E0500003F0000403FFBFF803FF6FFF0
:10416000C03FF1FF204A00205200454550524F4DBC
:1041700020496E697469616C697A65640A004D65ED
:10418000736820736176656420696E20736C6F7448
:1041900020003F556E61626C6520746F20736176FC
:1041A00065206D65736820646174612E0A00207358
:1041B0006C6F743D00206D65736865735F656E6438
:1041C0003D004532454E443D00206D6573682073C7
:1041D0006C6F747320617661696C61626C652E0A24
:1041E000003F496E76616C696420736C6F742E0AAF
:1041F000004D657368206C6F616465642066726F42
:104200006D20736C6F7420003F556E61626C652089
:10421000746F206C6F6164206D65736820646174D5
:10422000612E0A0048617264636F646564204465AE
:104230006661756C742053657474696E6773204C85
:104240006F616465640A0020286D6D29002028696B
:104250006E290046616872656E6865697400436521
:104260006C73697573004B656C76696E00556E6989
:104270006669656420426564204C6576656C696E8C
:10428000670020204D363033200020204D34323559
:104290002046004261636B6C61736820636F6D70D0
:1042A000656E736174696F6E3A0A00205500466945
:1042B0006C616D656E74206C6F61642F756E6C6FD0
:1042C0006164206C656E677468733A0A0020204D43
:1042D000393030204B004C696E6561722041647644
:1042E000616E63653A0A0020204D3835322049005E
:1042F000536B657720466163746F723A200A002021
:10430000204D333034205000204C0020204D3330DD
:10431000312050005049442073657474696E67738E
:104320003A0A0020480020204D3134352053004DFA
:104330006174657269616C20686561747570207064
:104340006172616D65746572733A0A00206D657300
:104350006865732E0A0A00454550524F4D2063612F
:104360006E20686F6C6420000A4163746976652072
:104370004D65736820536C6F743A200020204D34D3
:10438000323020530020204D323035204200204A68
:104390003C6A756E635F6465763E00416476616E6B
:1043A0006365643A20423C6D696E5F7365676D6555
:1043B0006E745F74696D655F75733E20533C6D6903
:1043C0006E5F66656564726174653E20543C6D691C
:1043D0006E5F74726176656C5F6665656472617448
:1043E000653E0020204D323034205000416363652B
:1043F0006C65726174696F6E2028756E6974732FB5
:104400007332293A20503C7072696E745F61636345
:10441000656C3E20523C726574726163745F6163C7
:1044200063656C3E20543C74726176656C5F6163B9
:1044300063656C3E0A0020204D3230312058004D1B
:104440006178696D756D20416363656C6572617437
:10445000696F6E2028756E6974732F7332293A0A5A
:104460000020204D3230332058004D6178696D7541
:104470006D206665656472617465732028756E6968
:1044800074732F73293A0A00537465707320706532
:104490007220756E69743A0A00203B20556E69746B
:1044A0007320696E200020204D3134392000203BDC
:1044B000002020473200486F6D696E6720466169B1
:1044C0006C65640000004843000048430000A040C1
:1044D0000000F0410000A0420000A0420000C843DC
:1044E0000000C442D0070000D007000064000000B4
:1044F000A00F0000040000050100030005010005F5
:1045000004000000050003000345FE44F944F444A0
:1045100000000000000048420000C84200001643AE
:1045200000004843646F6E650A00496E73756666E5
:10453000696369656E7420646174610A004578740A
:104540007261706F6C6174696E67206D6573682E3F
:104550002E2E005072696E74696E67204F626A6514
:104560006374002553202569002F2F616374696FE0
:104570006E3A00627574746F6E0070726F6D707455
:104580005F0073686F770053656E64204D3130387B
:1045900020746F20726573756D650A0052656865D9
:1045A000617420446F6E6500526568656174696E60
:1045B000670052656865617400486561746572548E
:1045C000696D656F75740053656E64204D313038C8
:1045D00020746F2068656174206E6F7A7A6C650A4A
:1045E000004E6F7A7A6C65205061726B656400448E
:1045F0006966663A200046726F6D5374703A0053D4
:104600007465707065723A00556E4C6576656C3AEB
:10461000004C6576656C65643A005261773A2020FB
:104620002020000A4C6F676963616C3A00436F7524
:104630006E7420453A004361703A00656E7175658D
:104640007565696E672022006F6B00526573656E39
:10465000643A20006F70656E206661696C65642C39
:104660002046696C653A2000544845524D414C2023
:1046700052554E4157415900546865726D616C2026
:1046800052756E6177617900706F7765726F6666DB
:1046900000506C65617365205265736574005052FB
:1046A000494E5445522048414C5445440025533A04
:1046B000202553004B494C4C45442E200050726934
:1046C0006E7465722068616C7465642E206B696C11
:1046D0006C28292063616C6C6564210A000031013B
:1046E000010211241FBECFEFD1E2DEBFCDBF00E03B
:1046F0000CBF13E0A0E0B2E0E0E8F1EF02E00BBF96
:1047000002C007900D92A438B107D9F726E1A4E8BA
:10471000B3E001C01D92A63BB207E1F713E2C0E788
:10472000D3E200E006C021970109802FFE010F941B
:104730003474CF36D10780E00807A9F70F94796069
:104740000D94AE780C9400002F923F924F925F929E
:104750006F927F928F929F92AF92BF92CF92DF9291
:10476000EF92FF920F931F93CF93DF93CDB7DEB7F6
:10477000C055D1090FB6F894DEBF0FBECDBF60960D
:104780008FAF609720915F062D962FAF2D9721E078
:1047900020935F068091EE118D3409F462C2843556
:1047A00011F40C949E33873411F00C94B93380913A
:1047B000EC119091ED118B31910509F45CC1A4F4D9
:1047C0008430910509F4DEC01CF4029768F145C2FB
:1047D0008431910509F445C18531910509F446C13B
:1047E0000C9709F03AC20DC18A32910509F4C5C18E
:1047F0005CF48C31910509F458C14D9709F02DC234
:104800000E94877F0C94BB338B35910509F45DC101
:104810008C35910509F45EC18A35910509F01DC2F8
:10482000109292030C94BB3380916E02882311F492
:104830000C94BB3357EFA52E52E0B52E6FE6C62E73
:1048400066E0D62E72E9E72E76E0F72E10E0D5016D
:104850008D915D010E94D37A882349F1812F0F94B5
:104860009C10762E872E982E092F8091C80F8111CB
:104870001EC0812F0F94370E882371F0D6012D9121
:104880003D914D915C91672D782D892D902F0F943E
:104890003D74762E872E02C0892D902F472D582DDE
:1048A000BC01F70140835183628373830AC0F60120
:1048B00080819181A281B381F70180839183A2835A
:1048C000B3831F5FF4E0CF0ED11C24E0E20EF11C95
:1048D000133009F0BCCF85E40E94D37A882321F1FC
:1048E00083E00F949C107B018C0183E00F94370EC2
:1048F000882371F020917B0630917C0640917D06E3
:1049000050917E06B701C8010F943D747B0101C030
:10491000C801A701BC0140939E0650939F06609377
:10492000A0067093A10610C080917B0690917C0632
:10493000A0917D06B0917E0680939E0690939F067F
:10494000A093A006B093A10686E40E9492A320E063
:1049500030E0A9010F940476181684F40E947D7A41
:1049600020E030E040E752E40F94C57460936502A4
:104970007093660280936702909368020F940F030E
:104980000C94BB3380E50E94D37A882329F00E94DF
:104990000FEA6B017C0103C0C12CD12C760183E5A9
:1049A0000E94D37A882361F00E94467A20E030E0AA
:1049B0004AE754E40F949F6D0F943E756B017C01A0
:1049C0000E9431B58091FF11811105C060E08AED30
:1049D00096E00E942AD10E94F7BDC60ED71EE81E9F
:1049E000F91E0E94F7BDDC01CB018C199D09AE09AF
:1049F000BF09B7FD02C00C94BB3380E00E94983B16
:104A0000F0CF0E949CA581110C94BB3360E070E054
:104A100080E50F94500EF82E65E070E083E50F946A
:104A2000500E6C01382E65E070E084E50F94500E56
:104A3000282E40E050E060ED70E482E50E94EF7ABD
:104A40004B015C018091E81187FF02C00C94C833D0
:104A50008091E911837011F00C94C83311E00C942B
:104A60008F3681E00F9429540C94BB3380E00F946F
:104A700029540C94BB330E949CA581110C94BB3328
:104A80008CE0E3E7F2E0DE01119601900D928A9549
:104A9000E1F760E070E080E50F94500EBE016F5FBB
:104AA0007F4F0E942DCC0C94BB3380919106877070
:104AB000873011F00C94913660E08FE40E94FBEE99
:104AC00081110C94BB330C9491368FE08093920348
:104AD0000C94BB3397EFC92E92E0D92E2FE6E22E2D
:104AE00026E0F22E00E0312C10E0D6018D916D0110
:104AF0000E94D37A882361F1812F0F949C104B017F
:104B00005C01F70120813181428153810F943C7413
:104B10002B013C012DEB37E346E855EB0F9404766F
:104B200087FD0AC02DEB37E346E855E3C301B20128
:104B30000F94396D181664F4133019F0332433943C
:104B400001C001E0D7018D929D92AD92BC92139766
:104B50001F5FB4E0EB0EF11C143039F6332019F06E
:104B60000F940A0206C0002321F08BE796E00E9412
:104B700042B50F940C020C94BB3380916E028823D3
:104B800011F40C94BB3389E40E94D37AE82E882375
:104B900021F00E94427AF82E01C0F12C8AE40E9492
:104BA000D37A082F882321F00E94427A182F01C05F
:104BB00010E0EE2019F0E4E0EF1520F0002341F0C2
:104BC000153030F087E097E00E94767C0C94BB3380
:104BD00080E1EFE6F6E0A2E9B6E001900D928A9559
:104BE000E1F7EE2059F08F2D0E941D7B6093920615
:104BF000709393068093940690939506002359F042
:104C0000812F0E941D7B6093960670939706809378
:104C100098069093990686E40E9492A36B017C010A
:104C200020E030E0A9010F94047618164CF420E03F
:104C300030E040E752E4C701B6010F94C57403C0E9
:104C400060E070E0CB0169837A838B839C83CE0123
:104C500001960F94A70D0C94BB330E9484A30C946F
:104C6000BB338091EC119091ED118737910509F4D8
:104C700071C70CF0F5C08D34910509F4F6C40CF041
:104C80006AC08A31910509F41DC39CF584319105F0
:104C900009F498C27CF48131910509F47FC22CF4A7
:104CA000029708F4F8C10C949B33429709F48AC622
:104CB0000C949B338731910509F4A9C28CF485319A
:104CC000910509F4A0C2469711F00C949B330E9401
:104CD0004C8880915414877F809354140C94BB3378
:104CE0008831910509F4AAC2499709F4E0C20C94ED
:104CF0009B338F31910509F4F6C37CF48C31910517
:104D000009F440C30CF4ECC28D31910509F442C39F
:104D10004E9709F446C30C949B338934910509F4EA
:104D20008DC464F48032910509F49AC38A9711F016
:104D30000C949B330F94630E0C94BB338B3491050E
:104D400009F48FC48C34910511F00C949B330E94AC
:104D5000EF770C94BB338A36910509F425C5ECF541
:104D60008435910509F42EC6E4F48135910509F4E2
:104D70000CC634F48035910509F4EFC50C949B33CF
:104D80008235910509F417C68335910511F00C940D
:104D90009B33809192038F7E8062809392030C9468
:104DA000BB338436910509F464C46CF485359105F0
:104DB00009F40BC68C35910511F00C949B330F94BC
:104DC000E2140C94BB338836910509F456C4893635
:104DD000910509F4D3C40C949B338037910511F4E9
:104DE0000C94BB33D4F48D36910509F46AC45CF499
:104DF0008B36910509F4F4C48C36910511F40C94AA
:104E0000BB330C949B338E36910509F4F1C48F3675
:104E1000910509F4FEC40C949B338337910509F482
:104E2000EDC56CF48137910509F437C582379105DA
:104E300011F00C949B330F946D540C94BB33853755
:104E4000910509F444C68637910511F00C949B3303
:104E50000091EA111091EB1194E0F12C40E05EC654
:104E60008033F1E09F0711F40C94B82F0CF072C05E
:104E70008C3C910509F43EC774F58139910509F41C
:104E80007BC684F48937910509F46FC60CF465C6B6
:104E90008D37910509F45EC58C38910509F41FC55D
:104EA0000C949B338E3B910509F42BC554F4853942
:104EB000910509F4BAC68B39910509F425C50C94FE
:104EC0009B33893C910509F4CBC68B3C910509F4D1
:104ED000EEC60C949B33823E910509F49AC7C4F444
:104EE000833D910509F43AC74CF48D3C910511F0CE
:104EF0000C949B330F94F40F0C94BB338C3D9105B1
:104F000009F42FC78D3D910509F438C70C949B33E4
:104F10008D32A1E09A0711F40C94B52F64F482321B
:104F2000E1E09E0709F4C1C78C32914011F40C9462
:104F3000A02F0C949B338E3221E0920711F40C9435
:104F40002B308F32914011F00C949B330E946149B9
:104F50000C94BB33883FA1E09A0711F40C947D3187
:104F60000CF04FC0893AE1E09E0711F40C9408312F
:104F7000ECF48A3921E0920711F40C94BB334CF421
:104F80008039914011F00C949B330E9431B50C9400
:104F9000BB33843AB1E09B0711F40C946F30853A2F
:104FA000914011F40C9472300C949B33853FF1E0E6
:104FB0009F0711F40C9477317CF4863E31E093071F
:104FC00011F40C940B31843F914011F00C949B33FD
:104FD0000E942E6C0C94BB33863FB1E09B0711F40A
:104FE0000C947A31873F914011F00C949B3361E02F
:104FF00083E50E94FBEE91E089270F9471400C94A9
:10500000BB338E3BF2E09F0711F40C9494321CF5F5
:10501000883532E0930711F40C9417326CF48C301D
:10502000B2E09B0711F40C948D318F33924011F450
:105030000C9495310C949B338B35F2E09F0711F45F
:105040000C941A328D3B924011F00C949B330F94C8
:10505000BB100C94BB33843833E0930711F40C94E9
:1050600051336CF48435B3E09B0711F40C94143283
:105070008C36934011F40C94BB330C949B33803AE0
:10508000F3E09F0709F421C2873E934011F40C948A
:105090008D330C949B33A090EA11B090EB1180E516
:1050A0000E94D37A882359F00E940FEA6B017C0199
:1050B00011E0672B682B692B31F410E004C010E07D
:1050C000C12CD12C760183E50E94D37A882311F478
:1050D0000C9460380E94467A20E030E04AE754E4BD
:1050E0000F949F6D0F943E756B017C0111110BC0E5
:1050F000672B682B692B39F4A114B10421F0D50179
:105100008C91811102C010E001C011E00E9431B504
:10511000112329F061E0C5010E94DBD105C060E0E8
:1051200088E397E00E942AD110915F0683E0809384
:105130005F0681E080935E0645E65BE266E277E02B
:1051400082E00F947B46C114D104E104F104B1F074
:105150000E94F7BDC60ED71EE81EF91E0E94F7BDBD
:10516000DC01CB018C199D09AE09BF09B7FF0EC048
:1051700080915E0681110C94653808C080915E06AE
:10518000882321F080E00E94983BF8CF0E9419D23A
:1051900010925E0610935F060C94BB338091E6116B
:1051A00084FF02C00C946A388091E81187FF02C026
:1051B0000C946A388091E911837011F00C946A386C
:1051C0000C94813883E697E00E94767C89EA92E12C
:1051D0000E9416C18BE1E9EAF2E1DE01119601902D
:1051E0000D928A95E1F760E070E0CE0101960E9491
:1051F000C48BCE0101960E941BC184E597E00E94FA
:10520000767C0C94BB330E94BD880C94BB33E09138
:10521000EA11F091EB118081882329F0803209F4A2
:1052200010823196F8CF60E08091EA119091EB11F5
:105230000E94A98A1092E4080C94BB3380914E0519
:105240008823E9F080E090E0A0EAB0E488A799A77D
:10525000AAA7BBA71C8E1D8E1E8E1F8E19821A82B6
:105260001B821C8220E0AE01485D5F4FBE01645E80
:105270007F4FCE0101960E942DEF0C94BB330E940C
:105280008A39882321F00E945D880E94AE3961E04E
:1052900086E692E30F941F464EEB51E364E777E016
:1052A00085E00F9430470E9419D20C94BB33809153
:1052B000541482FF03C08B7F809354140F94FC120C
:1052C0000C94BB338091541483FD02C00C94BB3307
:1052D00083E50E94D37A81110C948D380C94BB33F2
:1052E00083E40E948A7A882319F18AE897E00E9471
:1052F000767C80915312882391F0BE016F5F7F4FBF
:1053000080E592E10E94DDBF8E010F5F1F4FF80123
:1053100081918F01882339F00E94553AF8CF80E8B7
:1053200097E00E94767C8AE00E94553A0C94BB3349
:1053300083E50E94D37A882309F10E94D7EE182FC3
:1053400090E0CD970CF01CE3109388030E94F7BD0A
:105350006B017C01212F30E0A8EEB3E00F94E373E2
:10536000C60ED71EE81EF91EC0928403D092850394
:10537000E0928603F09287030C94BB330E94258849
:105380000C94BB338091EA119091EB110E945B8ADF
:105390000C94BB33809154148E7F809354140C94DE
:1053A000BB338091541483FD02C00C94BB330E9424
:1053B0006AA38091541483FD02C00C94BB336091A6
:1053C000EA117091EB11CE014C960F944A588C0162
:1053D000009711F40C94BB336C8D7D8D19821C8267
:1053E00022E0AC01CE0101960E94CAC5811102C023
:1053F000F12C14C0CE0101960F94B8578823C1F345
:1054000061E0CE0101960E9485BF009789F325EEE9
:10541000DC012C931C820E94B88CF82ECE010196E0
:105420000E941BC1B801FF2089F081EB97E00E9428
:105430000C7F8AE00E94553A109250141092511439
:1054400010925214109253140C94BB3389E997E0D4
:105450000E940C7F81EF9AE00E94767C0C94BB3313
:105460008091541482FD0E9431B58091541483FDC3
:1054700002C00C94BB3360E080E50E94FBEE182F65
:10548000682F8091EA119091EB110E94A98A83E51F
:105490000E94D37A882381F00E94327AAB01BC014A
:1054A00040935014509351146093521470935314BA
:1054B00080E592E10E949BBE0E945D8811110C94D0
:1054C000BB330E94AE390C94BB332091EA1130916A
:1054D000EB1190915414926090935414C9010E945E
:1054E0005B8A0C94BB330E947C777B018C0120E8A3
:1054F00031E541E050E00F948F73C9016DE671E032
:105500000F940C744B015C01C801B70120E13EE02F
:1055100040E050E00F948F73CA01B90128E130E0F8
:1055200040E050E00F948F73762E672EC62ED72E54
:105530008CE3282E312C412C512CC801B701A2013B
:1055400091010F948F73F62EE72ECA01B901A201C3
:1055500091010F948F73CB018E010F5F1F4F811448
:10556000910499F0EF92FF927F936F936F927F92E5
:10557000BF92AF929F928F928FEB97E09F938F9302
:105580001F930F930F94D16C13C0A114B104B1F009
:10559000EF92FF927F936F936F927F92BF92AF9241
:1055A00083EC97E09F938F931F930F930F94D16C8D
:1055B0000FB6F894DEBF0FBECDBF30C0CD2879F056
:1055C000EF92FF927F936F936F927F9287EC97E0B9
:1055D0009F938F931F930F930F94D16CE9CF892BD7
:1055E00069F0EF92FF927F936F938BEC97E09F931C
:1055F0008F931F930F930F94D16CDACFEF92FF929A
:105600008FEC97E09F938F931F930F930F94D16C20
:105610000F900F900F900F900F900F9060E0C801C7
:105620000E94DBD10E94237FB80183ED97E00E94A6
:105630000C7F8AE00E94553A0C94BB3380E50E94AF
:105640008A7A882311F40C94BB330E94D7EE90E041
:105650008536910510F084E690E08093E4080C9480
:10566000BB330E94AE390C94BB330E9404780C9477
:10567000BB330E944EEC0C94BB338091C90F83FF67
:1056800002C00C94BB330F940E0E87FF02C00C9423
:10569000BB3383E50E94D37A882379F00F94C00F3F
:1056A0000F9437758B01CB010E94BBC60C341105DA
:1056B00024F40E9404780E9419D20F94125F0C9473
:1056C000BB338091C90F83FF02C00C94BB330F948E
:1056D0000E0EF82E87FF02C00C94BB3383E50E94A8
:1056E000D37A082F811106C082E50E94D37A182F41
:1056F0008823C1F10F94C00F0F943775CB010E941E
:10570000BBC60F94C00F20E030E046E952E40F948E
:10571000396D181614F40C949E380E9404780E9477
:1057200019D26091510970915209072E000C880B13
:10573000990B0F94406D4B015C0140904D095090C6
:105740004E0960904F0970905009A30192010F9487
:105750000476181614F40C94A238002311F40C9457
:10576000B43811E00F94125F112311F40C94BB3381
:10577000602F8F2D0E9490C70C94BB330F940E0E98
:10578000182F87FD0AC088E496E40E94767C812F5A
:105790000E94F3C68AE00E94553A2D96BFAD2D9720
:1057A000B0935F060C94283980E50E94ACA4811167
:1057B000E2C781E40E948A7A882321F06091370948
:1057C00070E002C06FEF70E083E50F94500E8F3FE2
:1057D000910519F010F08FEF90E080933709CBC757
:1057E00080E50E94ACA48111C6C710923709C3C7D7
:1057F0008EE40E94D37A882309F4BDC70E94327ACE
:105800006093F1117093F2118093F3119093F4115E
:10581000B2C783E50E948A7A882329F083E50E9433
:10582000ACA48093C90F0E94237F85EE97E00E946D
:10583000767C8091C90F882369F11FEFE12E1AE071
:10584000F12E00E010E020E08091C90F90E0A0E090
:10585000B0E0002E04C0B695A795979587950A9459
:10586000D2F780FF0EC0DD24D394D20E222319F08C
:105870008CE20E94553AF701859194910E94767CC2
:105880002D2D0F5F1F4FE2E0EE0EF11C05301105CC
:10589000D9F649CD8DE896E444CD83E50E94D37ACC
:1058A000882371F00E94D7EE282F30E02D33310588
:1058B0001CF4809300025FC78CE3809300025BC7F7
:1058C0000E94237F4091000250E060E070E08CEE87
:1058D00097E00E94C07E8AE00E94553A4CC78091B2
:1058E000C90F83FD48C783E50E94D37A882309F452
:1058F00042C70F94C00F0F943775CB010F946D51B1
:105900003AC70E94D04E37C783E50E94D37A8823D6
:1059100009F431C70E94D7EE182F90E0CD970CF014
:105920001CE310938D030E94F7BD6B017C01212FB6
:1059300030E0A8EEB3E00F94E373C60ED71EE81E66
:10594000F91EC0928903D0928A03E0928B03F092F1
:105950008C0311C70F94FC120EC783E50E948A7A4C
:10596000882361F080910B07811103C083EF97E0DA
:1059700002C089EF97E00E94767CFDC60E9419EF75
:10598000809A889A0E9419D2F6C60F94EE340E942B
:1059900004780E94E1B60E94873968EE73E080E0E7
:1059A00090E00E94E57B0E94C13960E08FEF97E0B4
:1059B0000E942AD1E0C6809192038F7D80618093FE
:1059C0009203D9C60F94660FD6C683E50E948A7AE1
:1059D000882309F4D0C60E94467A20E030E04AE7E6
:1059E00054E40F949F6D0F943E7560938E037093F3
:1059F0008F038093900390939103BDC680E399E059
:105A00000E94767C60E080E299E00F94535460E05D
:105A10008BE099E00F94535461E08CEB99E10F9483
:105A2000535460E080E099E00F94535461E080EFBC
:105A300098E00F94535460E087EE98E00F9453542D
:105A400061E08DED98E00F94535461E083ED98E0B0
:105A50000F94535460E08BEC98E00F94535461E042
:105A60008DEB98E00F94535461E08FEA98E00F9427
:105A7000535461E080EA98E00F94535460E082E967
:105A800098E00F94535460E08CE798E00F945354DF
:105A900061E08BE698E00F94535461E08CE598E068
:105AA0000F94535461E087E498E00F94535461E0FD
:105AB00084E398E00F94535460E087E298E00F94F9
:105AC000535460E083E198E00F94535454C680919E
:105AD000EA119091EB11009741F0DC012C91222307
