:100000000C94AB230C94DC230C94DC230C94DC23A5
:100010000C94DC230C94DC230C94DC230C94DC2364
:100020000C94DC230C94DC230C94DC230C94DC2354
:100030000C94DC230D946D190C94DC230C94DC23BC
:100040000C94DC230C9420EB0C94DC230C94DC2328
:100050000C94DC230C94DC230D94812F0D94D85246
:100060000C94DC230C943E640C9434640C94DC23D8
:100070000C94DC230C94DC230C94DC230C94DC2304
:100080000C94DC230C94DC230C94DC230C94DC23F4
:100090000C94DC230C94DC230C94DC230C94DC23E4
:1000A0000C94DC230C94DC230C94DC230C94DC23D4
:1000B0000C94DC230C94DC230C94DC230C94DC23C4
:1000C0000C94DC230C94DC230C94DC230C94DC23B4
:1000D0000C94DC230C94DC230C94DC230C94DC23A4
:1000E0000C94DC2374647A648C649C64A464D4648B
:1000F000A864D464AC64B064D464B464B864BC640C
:10010000C564D464D064B9018B02A3010B02A102BF
:10011000AF0243023701F9012B0127014701950284
:100120008501A901350115023B010B0109023102CC
:100130009D01B502A501BF012F023B017301090119
:10014000590147024F02330177016D014D010F0143
:1001500017012B02A9029901F1011302E9014D01D6
:100160001D016302B70205A84CCDB2D44EB9383692
:10017000A9020C50B9918688083CA6AAAA2ABE00FA
:100180000000803F07634236B79BD8A71A396856EC
:1001900018AEBAAB558C1D3CB7CC5763BD6DEDFDA9
:1001A000753EF6177231BF000000803F0800000066
:1001B000BE922449123EABAAAA2ABECDCCCC4C3E5C
:1001C00000000080BEABAAAAAA3E00000000BF004B
:1001D0000000803F0000000000084178D3BB438747
:1001E000D1133D190E3CC3BD4282AD2B3E68EC825B
:1001F00076BED98FE1A93E4C80EFFFBE01C4FF7FE0
:100200003F00000000000D943A090C9435390C941D
:1002100046A10D94F4500D94CA500C9431A60D943F
:100220001A520C941E3C0C9441DF0C948F390D949F
:1002300022520C94B2C30D9431090D946B520D945B
:10024000C6270C9436A60D94295F0C943BA60D94FA
:10025000E50D0D9415090D94FE0D0C9452C10C94EE
:1002600040A60D94A92C0D94FC510D94B9500D94F9
:10027000EB0D0C94B74E0D94FD500C94A8A00D946A
:1002800011090C94B7390C94A3390C94BC3B0D9410
:10029000E80D0C94EE800C9424810D9489520C94FA
:1002A0004B390C949E410C945A9F0C9488A70C9443
:1002B0002F3A0D94F8500C94CFBD0C9467820C9497
:1002C0009E3A0C94D03D0C94A33E0C9445A60C94FD
:1002D00040DF0C94A23A0C94733E0D9410520D948E
:1002E000E4140C947F3E0D94F0500C9474C60D945D
:1002F00006520D94BE6A0C94BAC10C947EBC0C9448
:10030000C0C10C94A8C30C947A640D94C6500C948C
:10031000B4640C94463A0C9474BA0C94743A0C94E9
:1003200061C00C94B8640C94F5390C94C89F0C947B
:1003300035DC0D943E520C94C5640D94D8500C9449
:10034000BC640C949C640D94D60D0D94E2500C94F6
:1003500079C70D94B5500D941D090C949BC10C9454
:100360009BBF0C94A4640C94EF9F0C9422810C947A
:100370002CA60D94F00D0D94C5270C9445AB0D944F
:10038000E6500C9484A80C94AC640C9485A70C944F
:1003900073390C94703A0C947F410C9474640C94EF
:1003A000C5390D9401190C94D8390C94D4640C946B
:1003B000CADD0C9407A60C946F820C94C6C10C94F1
:1003C000793E0C943FBC0C9463660C946EB90C940B
:1003D000A0C10D9461520C948C640C943FA30D94B5
:1003E000D2280D9448520C940EA60C9408C20C947A
:1003F0000BC40D94E20D0C94123A0C94DF430C9450
:10040000DB3E0C948AA80C94B7C30D948B2C0C94EF
:100410005F390D94CE500D94F30D0C94ADC30C9434
:1004200024BB0D942D090D9457520D94BF500C947C
:1004300081390C94D5C40C94E79F0C94BD9F0C9407
:1004400031BB0C9492A60C9454D60C944CA90C94E9
:10045000853E0C944F7D0D942A520C9469820D9424
:10046000EA500D94D4500D9406150C9483BD0C9451
:100470006D820C94C17E0C9453DF0C940D810D940D
:10048000322F0D940D090D94DF0D0C948BA70D9454
:10049000F2510D94DB270C94A8640C94CCC10D94FC
:1004A000F7510C9491C10D9411070C946B820C942C
:1004B000B19E0C9420810C94487F0C9439400D948B
:1004C0002B2D0D9422190D9475520C94ED3B0C9428
:1004D00013C40D945C0C0D94F2060C9496C10D940B
:1004E00034090D94A8150C949D3E0C949E9F0C9479
:1004F000913E0C9427A60D943E190C94B0640C9474
:1005000075A70C9404A60C94D0640D9419090C944E
:10051000B3DF0D9421090D94D30D0D94EA2C0D94A5
:100520000E190C948B3E0D94D7180D94C3500C9457
:10053000537F0C94FC380C941E810D9429090D9462
:100540004C0E0D94D90D0C9489A00C941C810D9423
:1005500037090D9434520C9462BB0C940AA60D9486
:10056000DC0D0D9425090C94973E0D94DC500D94F0
:100570007F520D94362E0D9409090C94BA4E4E41BB
:100580004E494E495459494E46CDCCCC3D0AD7230D
:100590003C17B7D13877CC2B329595E6241FB14F55
:1005A0000A000020410000C84200401C4620BCBE9A
:1005B0004CCA1B0E5AAEC59D7400407A10F35A0007
:1005C000A0724E18090010A5D4E80000E87648177C
:1005D0000000E40B54020000CA9A3B000000E1F561
:1005E00005000080969800000040420F000000A027
:1005F0008601000000102700000000E80300000052
:10060000006400000000000A00000000000100007B
:100610000000002C76D888DC674F0823DFC1DFAEEE
:1006200059E1B1B796E5E3E453C63AE651997696B7
:10063000E8E6C28426EB898C9B62ED407C6FFCEF80
:10064000BC9C9F40F2BAA56FA5F490055A2AF75CAE
:10065000936B6CF9676DC11BFCE0E40D47FEF52060
:10066000E6B500D0ED902E03009435770500808428
:100670001E080000204E0A000000C80C333333333C
:100680000F986E12831141EF8D2114893BE65516A8
:10069000CFFEE6DB18D1844B381BF77C1D901DA4E0
:1006A000BBE424203284725E228100C9F124ECA1D3
:1006B000E53D27434F4D4D554E49434154494F4E1B
:1006C0000044525952554E004552524F5253004524
:1006D00043484F0020643A0020693A0020703A00F5
:1006E000496E76616C6964206578747275646572B0
:1006F0000A00536C6565702E2E2E005761726E696C
:100700006E67203A20436C65616E20436972636CAA
:10071000652072657175697265732058590A004DBC
:1007200065736820706F696E742063616E6E6F749C
:10073000206265207265736F6C7665640A004E6F87
:10074000204D6F76652E00456E642066696C6520CD
:100750006C6973740A00426567696E2066696C652E
:10076000206C6973740A00526573756D696E672039
:10077000534400286E6F2066696C652900437572CA
:1007800072656E742066696C653A200044656C651C
:1007900074696F6E206661696C65642C2046696CB3
:1007A000653A200046696C652064656C6574656413
:1007B0003A00256979202569642025696820256922
:1007C0006D20256973005072696E742074696D65BF
:1007D0003A2000452025530044454255473A004DF4
:1007E00031313320530050533A300A0050533A31DC
:1007F0000A003344205072696E746572204F464679
:100800002E004348414D4245525F54454D5045529C
:100810004154555245004D4F54494F4E5F4D4F4442
:10082000455300544845524D414C5F50524F54453A
:100830004354494F4E004155544F5245504F525426
:100840005F53445F5354415455530050524F4D50E1
:10085000545F535550504F525400454D45524745F3
:100860004E43595F50415253455200434153455FF7
:100870004C494748545F4252494748544E455353A8
:1008800000544F47474C455F4C4947485453005329
:100890004F4654574152455F504F574552004255BD
:1008A000494C445F50455243454E54004C455645D3
:1008B0004C494E475F44415441005A5F50524F42A9
:1008C00045004155544F4C4556454C005052494EF9
:1008D000545F4A4F420050524F47524553530041D4
:1008E00055544F5245504F52545F54454D50005649
:1008F0004F4C554D45545249430042494E4152597F
:100900005F46494C455F5452414E53464552005351
:10091000455249414C5F584F4E5F584F464600463E
:1009200049524D574152455F4E414D453A4D6172D6
:100930006C696E204275696C642034353720284715
:1009400069744875622920534F555243455F434FA0
:1009500044455F55524C3A68747470733A2F2F6750
:1009600069746875622E636F6D2F5665727461626B
:100970007265616B2F4D61726C696E2050524F54DD
:100980004F434F4C5F56455253494F4E3A312E30EC
:10099000204D414348494E455F545950453A3344F0
:1009A000205072696E746572204558545255444502
:1009B000525F434F554E543A3120555549443A38C9
:1009C000333666613934332D313333372D31333398
:1009D000372D313333372D3938613230646537354F
:1009E0003630370A002F2F20004D31343520533C4C
:1009F000696E6465783E206F7574206F6620726141
:100A00006E67652028302D31290A0020466C6F77EB
:100A10003A200050726F7465637465642050696E8B
:100A20000A006469730043290A0061626C656420EE
:100A3000286D696E2074656D702000436F6C6420B2
:100A400065787472756465732061726520004D3439
:100A5000323120696E636F727265637420706172E7
:100A6000616D657465722075736167650A0045453F
:100A700050524F4D204F4B0A003F28422961756468
:100A8000207261746520696D706C61757369626C48
:100A9000652E0A002053657269616C203020626106
:100AA000756420726174652073657420746F200012
:100AB0003F4B2076616C7565206F7574206F6620E2
:100AC00072616E67652028302D3130292E0A004171
:100AD0006476616E6365204B3D0043617365206CF5
:100AE000696768743A200043617365206C696768C0
:100AF000743A206F66660A00CF06BD1BC806C106A1
:100B0000B3064C6F6164206D6D00556E6C6F61644F
:100B1000206D6D00416476616E6365204B0020029C
:100B20002046616374002002204D6178002002207D
:100B30004D696E004175746F74656D700056547226
:100B40006176204D696E00566D696E00566D617854
:100B5000204500566D6178205A00566D6178205905
:100B600000566D61782058003F454550524F4D204A
:100B700073746F72616765206E6F7420617661694E
:100B80006C61626C652E0A005072696E74696E67E2
:100B9000204F626A656374002553202569002F2F5A
:100BA000616374696F6E3A00627574746F6E007081
:100BB000726F6D70745F0073686F7700486F746553
:100BC0006E6420746F6F20636F6C640A0053656EEF
:100BD00064204D31303820746F20726573756D65F7
:100BE0000A0052656865617420446F6E6500526545
:100BF00068656174696E6700526568656174004874
:100C0000656174657254696D656F75740053656EC6
:100C100064204D31303820746F2068656174206E17
:100C20006F7A7A6C650A004E6F7A7A6C6520506133
:100C3000726B656400706175736564004D363030A9
:100C40003A20546F6F20436F6C6400726573756D4A
:100C5000656400526573756D696E67004265642056
:100C60004C6576656C696E6720004661696C6564E9
:100C700020746F20656E61626C6520426564204C53
:100C80006576656C696E670A00496E76616C6964A9
:100C9000206D6573682E0A0076616C69640A53746E
:100CA0006F7261676520736C6F743A20004D6573D5
:100CB0006820697320003F496E76616C6964207317
:100CC000746F7261676520736C6F742E0A003F2029
:100CD00061646472657373203A20002062797465E0
:100CE00073206F66206D656D6F727920696E69740F
:100CF00069616C697A65642E0A0A00556E61626CDE
:100D00006520746F20696E697469616C697A652EFB
:100D10000A0A00496E697469616C697A696E6720B4
:100D200066726565206D656D6F727920626C6F63A8
:100D30006B2E0A0A0A00747275650A0020726574C7
:100D400075726E3D000A4D656D6F727920436F724A
:100D500072757074696F6E20646574656374656420
:100D600020696E2066726565206D656D6F727920F1
:100D7000617265612E0A002020626C6F636B5F6692
:100D80006F756E643D002020200A002920666F7573
:100D90006E643D002020204D656D6F727920636F79
:100DA0007272757074696F6E2064657465637465C2
:100DB00064207769746820656E645F667265655F3C
:100DC0006D656D6F72793C486561700A0020656ED3
:100DD000645F667265655F6D656D6F7279203C203A
:100DE0004865617020002020656E645F66726565ED
:100DF0005F6D656D6F72793D000A667265655F6D46
:100E0000656D6F72795F73746172743D000A666D0F
:100E1000632829206E3D00636865636B5F666F72AF
:100E20005F667265655F6D656D6F72795F636F7226
:100E300072757074696F6E2829203D20004D313025
:100E40003020462000206279746573206174200090
:100E50000A4C617267657374206672656520626C06
:100E60006F636B206973200020627974657320665C
:100E70007265652061742000466F756E6420000AFB
:100E8000436F7272757074696E6720616464726515
:100E900073733A2000436F7272757074696E6720C5
:100EA00066726565206D656D6F727920626C6F6327
:100EB0006B2E0A0A000A537461636B20506F696ECF
:100EC0007465722020202020202020203A20000A53
:100ED000667265655F6D656D6F72795F656E6420C2
:100EE0002020202020203A20000A667265655F6D70
:100EF000656D6F72795F7374617274202020202099
:100F00003A20000A6273735F656E642020202020FF
:100F1000202020202020202020203A2000656E71F3
:100F200075657565696E672022006F6B0052657389
:100F3000656E643A200042656420436F6F6C696E91
:100F4000672E2E2E004265642048656174696E67C5
:100F50002E2E2E0023646566696E65204445464149
:100F6000554C545F004B6420004B6920004B7020AF
:100F700000504944204175746F74756E6520666930
:100F80006E697368656421205075742074686520EB
:100F90006C617374204B702C204B6920616E64204F
:100FA0004B6420636F6E7374616E74732066726F2E
:100FB0006D2062656C6F7720696E746F20436F6E71
:100FC00066696775726174696F6E2E680A005049B0
:100FD00044204175746F74756E65206661696C6537
:100FE00064212074696D656F75740A000A20436C72
:100FF000617373696320504944200A00204B643AAE
:101000002000204B693A2000204B703A20000A2033
:101010004E6F206F76657273686F6F740A0020548C
:10102000753A2000204B753A2000206D61783A20F7
:1010300000206D696E3A200020643A200020626929
:1010400061733A2000504944204175746F74756E85
:10105000652073746172740A0050494420417574AC
:101060006F74756E65206661696C656421205465D6
:101070006D706572617475726520746F6F20686938
:1010800067680A00504944204175746F74756E6535
:10109000206661696C656421204261642065787412
:1010A0007275646572206E756D6265720A007C4DA2
:1010B00061726C696E7C002D2D2D2D2D2D00A100EF
:1010C00000006900A20000006300B00000000900F9
:1010D000C10000004100C20000004100C300000048
:1010E0004100C40000004100C50000004100C600EE
:1010F00000004145C70000004300C8000000450053
:10110000C90000004500CD0000004900D1000000EA
:101110004E00D50000004F00D60000004F00D70061
:1011200000007800DC0000005500DD0000005900E0
:10113000E00000006100E10000006100E20000004A
:101140006100E30000006100E40000006100E500D0
:1011500000006100E60000006165E7000000630038
:10116000E80000006500E90000006500EA000000FA
:101170006500EB0000006500EC0000006900ED0078
:1011800000006900EE0000006900EF000000690047
:10119000F10000006E00F20000006F00F30000009C
:1011A0006F00F40000006F00F50000006F00F60013
:1011B00000006F00F80000006F00F90000007500EB
:1011C000FA0000007500FB0000007500FC00000044
:1011D0007500FD0000007900FF00000079000401A7
:1011E000000041000501000061000601000043000D
:1011F0000701000063000C01000043000D01000026
:1012000063000E01000044000F01000064001101A2
:10121000000064001901000065001F010000670064
:101220003001000049003101000069004101000067
:101230004C00420100006C00430100004E004401DC
:1012400000006E00480100006E00590100007200AD
:101250005A01000053005B01000073005F010000B1
:10126000730060010000530061010000730065011C
:10127000000074006F01000075007C0100007A001E
:101280007D0100005A007E0100007A0092010000FA
:101290006600E30200007800840300002700850355
:1012A00000002700860300004100870300002E0095
:1012B0008803000045008903000048008A030000FD
:1012C00049008C0300004F008E03000059008F037B
:1012D00000004F00900300006900910300004100EE
:1012E00092030000420093030000540094030000A6
:1012F0003400950300004500960300005A00970350
:1013000000004800980300003000990300004900E5
:101310009A0300004B009B0300005E009C0300004A
:101320004D009D0300004E009E03000033009F030C
:1013300000004F00A00300006E00A1030000500059
:10134000A30300004500A40300005400A50300000F
:101350005900A60300007000A70300005800A8036E
:1013600000005000A90300004F00AA03000049003C
:10137000AB0300005900AC0300006100AD030000A6
:101380006500AE0300006E00AF0300006900B0030B
:1013900000007600B10300006100B20300004200CB
:1013A000B30300007600B40300006400B50300003E
:1013B0006500B60300005A00B70300006E00B803D2
:1013C00000003000B90300006900BA0300006B00A0
:1013D000BB0300004C00BC0300007500BD0300000F
:1013E0007600BE0300006500BF0300006F00C0036D
:1013F00000006E00C10300007000C2030000630023
:10140000C30300006F00C40300007400C5030000A4
:101410007600C60300007000C70300005800C80330
:1014200000005700C90300007700CA0300006900EC
:10143000CB0300007600CC0300006F00CD0300005A
:101440007600CE0300007700010400004500100480
:10145000000041001104000062001204000042007C
:10146000130400005400140400005100150400008F
:101470004500160400002A00170400004500180467
:1014800000004E00190400004E001A0400004B003A
:101490001B04000054001C0400004D001D0400004B
:1014A00048001E0400004F001F0400006E002004CE
:1014B00000005000210400004300220400005400FA
:1014C000230400005900240400006F0025040000DC
:1014D0005800260400005500270400007900280465
:1014E000000057002904000057002A040000620091
:1014F0002B040000627C2C04000062002D0400001C
:1015000065002E0400007C4F2F040000397C30045D
:101510000000610031040000360032040000420087
:101520003304000072003404000061003504000040
:101530006500360400002A00370400006500380406
:10154000000075003904000075003A0400006B00CB
:101550003B0400006E003C0400006D003D040000F0
:1015600048003E0400006F003F0400006E0040048D
:101570000000700041040000630042040000740099
:101580004304000079004404000071704504000029
:101590007800460400007500470400007900480404
:1015A000000077004904000077004A040000620050
:1015B0004B040000627C4C04000062004D040000FB
:1015C00065004E0400007C6F4F040000670051046A
:1015D00000006500222000002E001E21000050782F
:1015E00022210000544D902100003C2D922100004A
:1015F0002D3EB02100000300BB21000004003C226E
:1016000000007E00482200007E3D60220000213D57
:10161000612200003D00642200003C3D6522000084
:101620003E3DF12300000700A03000003D0021F303
:1016300001000200C2F401000500A2000000EC005D
:10164000B0000000DF00E4000000E100F600000050
:10165000EF00F7000000FD00FC000000F500E302D1
:101660000000EB0087030000A5008F030000F400DA
:1016700098030000F2009E030000E300A3030000B3
:10168000F600A9030000F400AC030000E000AD0385
:101690000000E300B1030000E000B2030000E2003C
:1016A000B5030000E300B8030000F200BC03000033
:1016B000E400BE030000E300C0030000F700C10324
:1016C0000000E600C3030000E500902100007F0059
:1016D000922100007E001A220000E8001E22000075
:1016E000F30088250000FF0002300000A1000C304C
:1016F0000000A2000D300000A3009B300000DE00BF
:101700009C300000DF00A03000003D00A130000050
:10171000A700A2300000B100A3300000A800A43050
:101720000000B200A5300000A900A6300000B30000
:10173000A7300000AA00A8300000B400A9300000C3
:10174000AB00AA300000B500AB300000B600AC30F2
:101750000000B6DEAD300000B700AE300000B7DEEE
:10176000AF300000B800B0300000B8DEB13000008B
:10177000B900B2300000B9DEB3300000BA00B430B6
:101780000000BADEB5300000BB00B6300000BBDEA2
:10179000B7300000BC00B8300000BCDEB93000003B
:1017A000BD00BA300000BDDEBB300000BE00BC3062
:1017B0000000BEDEBD300000BF00BE300000BFDE56
:1017C000BF300000C000C0300000C0DEC1300000EB
:1017D000C100C2300000C1DEC3300000AF00C43021
:1017E0000000C200C5300000C2DEC6300000C300E9
:1017F000C7300000C3DEC8300000C400C93000009C
:10180000C4DECA300000C500CB300000C600CC30BA
:101810000000C700CD300000C800CE300000C90075
:10182000CF300000CA00D0300000CADED130000046
:10183000CADFD2300000CB00D3300000CBDED43082
:101840000000CBDFD5300000CC00D6300000CCDE6D
:10185000D7300000CCDFD8300000CD00D9300000F8
:10186000CDDEDA300000CDDFDB300000CE00DC3032
:101870000000CEDEDD300000CEDFDE300000CF0025
:10188000DF300000D000E0300000D100E130000087
:10189000D200E2300000D300E3300000AC00E430BE
:1018A0000000D400E5300000AD00E6300000D500B7
:1018B000E7300000AE00E8300000D600E93000005C
:1018C000D700EA300000D800EB300000D900EC303F
:1018D0000000DA00ED300000DB00EF300000DC003B
:1018E000F2300000A600F3300000DD00F43000000C
:1018F000B3DEF7300000DCDEFA300000A6DEFB309D
:101900000000A500FC300000B000FD300000A40085
:10191000074E0000FB0086510000FC00435300000E
:10192000FA0064FF0000A40065FF0000A50066FF48
:101930000000A60067FF0000A70068FF0000A800E5
:1019400069FF0000A9006AFF0000AA006BFF000009
:10195000AB006CFF0000AC006DFF0000AD006EFF3F
:101960000000AE006FFF0000AF0070FF0000B0008D
:1019700071FF0000B10072FF0000B20073FF0000B1
:10198000B30074FF0000B40075FF0000B50076FFDF
:101990000000B60077FF0000B70078FF0000B80035
:1019A00079FF0000B9007AFF0000BA007BFF000059
:1019B000BB007CFF0000BC007DFF0000BD007EFF7F
:1019C0000000BE007FFF0000BF0080FF0000C000DD
:1019D00081FF0000C10082FF0000C20083FF000001
:1019E000C30084FF0000C40085FF0000C50086FF1F
:1019F0000000C60087FF0000C70088FF0000C80085
:101A000089FF0000C9008AFF0000CA008BFF0000A8
:101A1000CB008CFF0000CC008DFF0000CD008EFFBE
:101A20000000CE008FFF0000CF0090FF0000D0002C
:101A300091FF0000D10092FF0000D20093FF000050
:101A4000D30094FF0000D40095FF0000D50096FF5E
:101A50000000D60097FF0000D70098FF0000D800D4
:101A600099FF0000D9009AFF0000DA009BFF0000F8
:101A7000DB009CFF0000DC009DFF0000DD009EFFFE
:101A80000000DE009FFF0000DF00E5FF00005C00BB
:101A9000001010101010100000141414141414006E
:101AA0000015151515151500001C1F11111F00003C
:101AB0000006191803130C00040E1F041C0000007C
:101AC000000E1315110E00001C1018170506050056
:101AD000040A0A0A0A11110E0C12120C000000006E
:101AE000001F1511151F0000000000000102040472
:101AF0000000001C1C0C0404040201000000000093
:101B00000408100000000000206D61783A00206D8C
:101B1000696E3A004178697320005072696E74658D
:101B2000722073746F707065642064756520746FC3
:101B3000206572726F72732E204669782074686512
:101B4000206572726F7220616E6420757365204D1E
:101B500039393920746F20726573746172742E2064
:101B60002854656D706572617475726520697320A3
:101B700072657365742E20536574206974206166E4
:101B80007465722072657374617274696E67290A74
:101B9000004D38373620526573706F6E64696E671A
:101BA0002050524F4D50545F00554E4B4E4F574EA4
:101BB0002053544154450047434F44455F494E46E6
:101BC0004F004C43445F50415553455F5245535578
:101BD0004D450046494C414D454E545F52554E4F80
:101BE00055545F434F4E54494E55450046494C416C
:101BF0004D454E545F52554E4F55540050757267C7
:101C000065204D6F7265004572726F722077726940
:101C100074696E6720746F20454550524F4D210AFC
:101C200000627573793A2070617573656420666F20
:101C30007220696E7075740A00627573793A20704B
:101C4000617573656420666F7220757365720A0032
:101C5000627573793A2070726F63657373696E672A
:101C60000A0053544F505045442E20004E6F2043DD
:101C70006865636B73756D2077697468206C696E35
:101C800065206E756D6265722C204C617374204CFA
:101C9000696E653A2000636865636B73756D206DCE
:101CA00069736D617463682C204C617374204C6996
:101CB0006E653A20004C696E65204E756D626572E6
:101CC000206973206E6F74204C617374204C696EB0
:101CD00065204E756D6265722B312C204C617374DA
:101CE000204C696E653A20004D313130004D313164
:101CF00037004D33310053442072656164206572B2
:101D0000726F720A00446F6E65207072696E74693A
:101D10006E672066696C650A002121204B494C4C96
:101D20002063617573656420627920746F6F206D24
:101D300075636820696E6163746976652074696D86
:101D400065202D2063757272656E7420636F6D6DF2
:101D5000616E643A2000252723181F211D1C1917C6
:101D60001B1E2E2C0C04400AFF410C04090807001E
:101D70000104000005010003000501000504000046
:101D80000005000300801D7B1D761D711D000000F5
:101D900000000025420000A5420080F74200002517
:101DA000430000000000001B4200009B420080E84E
:101DB0004200001B435374616E6461726420446589
:101DC00076696174696F6E3A20004D65616E204DD1
:101DD000657368204865696768743A200023206F3E
:101DE000662073616D706C65733A200020616E64CB
:101DF0002074616B652061206D6561737572656D1E
:101E0000656E742E0A006D6D20746869636B2E0A0E
:101E100000427573696E6573732043617264206953
:101E200073200052656D6F76652026204D656173C5
:101E3000757265204265640052656D6F766520732A
:101E400068696D00506C616365207368696D207509
:101E50006E646572206E6F7A7A6C65004D6573688A
:101E600020506F696E74204D6561737572656420D2
:101E700061743A20000A4D657368206F6E6C79209A
:101E80007061727469616C6C7920706F70756C61CF
:101E90007465642E0A00506C616365205368696D37
:101EA0002026204D656173757265004D6F76696EF1
:101EB0006720746F206E657874004D6573682045E7
:101EC000646974696E672053746F70706564004450
:101ED0006F6E652045646974696E67204D6573682F
:101EE0000A00446F6E652045646974696E67204D11
:101EF0006573680046696E652054756E696E67206B
:101F00004D6573680028582C5929206F75747369C2
:101F10006465207072696E7461626C6520726164C0
:101F20006975732E0A004F6666736574206F757449
:101F3000206F6620626F756E64732E2028302074C7
:101F40006F2031306D6D290A0A00496E76616C6927
:101F500064206D617020747970652E0A0A003F4319
:101F6000616E277420616374697661746520616EA7
:101F700064206465616374697661746520617420AE
:101F80007468652073616D652074696D652E0A0A39
:101F900000426F7468205820262059206C6F6361BE
:101FA00074696F6E73206D75737420626520737031
:101FB000656369666965642E0A0A00473239204AFA
:101FC00020616374696F6E207265717569726573E3
:101FD00020612070726F62652E0A0A003F28502926
:101FE000686173652076616C756520696E76616CD9
:101FF00069642028302D36292E0A0A0047323920FC
:10200000503120726571756972657320612070723C
:102010006F62652E0A0A003F2856296572626F7347
:1020200065206C6576656C20696D706C617573698F
:10203000626C652028302D34292E0A0A003F285270
:1020400029657065746974696F6E20636F756E744D
:1020500020696E76616C69642028312B292E0A0A6A
:1020600000446F696E672047323900646F6E650AFD
:1020700000496E73756666696369656E7420646194
:1020800074610A004578747261706F6C6174696E76
:1020900067206D6573682E2E2E00416D6178204596
:1020A00000416D6178205A00416D617820590041EE
:1020B0006D6178205800412D54726176656C004145
:1020C0002D5265747261637400416363656C004AEC
:1020D000756E6374696F6E20446576004573746530
:1020E00070732F6D6D005A73746570732F6D6D0072
:1020F0005973746570732F6D6D00587374657073C8
:102100002F6D6D00496E697400496E697469616C68
:10211000697A6520454550524F4D004261636B6CB2
:102120006173680053746570732F6D6D004A65723A
:102130006B00416363656C65726174696F6E005614
:10214000656C6F6369747900536D6F6F7468696E45
:102150006700436F7272656374696F6E0000000000
:102160000000000000000000002062797465733BED
:1021700020637263200053657474696E6773205323
:10218000746F7265642028004E6F20454550524F91
:102190004D2E0A00454550524F4D206461746173C5
:1021A000697A65206572726F722E0A003F4D657301
:1021B0006820746F6F2062696720666F72204545E2
:1021C00050524F4D2E0A0055424C20726573657473
:1021D0000A00206C6F616465642066726F6D207305
:1021E000746F726167652E0A004D65736820003F49
:1021F00043616E277420656E61626C6520002073F8
:10220000746F7265642073657474696E677320728D
:102210006574726965766564202800202863616CA6
:1022200063756C6174656429210A0020213D2000DA
:10223000454550524F4D20435243206D69736D61A7
:10224000746368202D202873746F726564292000E0
:10225000496E6465783A2000204D61726C696E3D6C
:10226000563734290A00454550524F4D2076657245
:1022700073696F6E206D69736D61746368202845A2
:102280004550524F4D3D0020284E6F7420796574A3
:10229000206D656173757265642900202041766543
:1022A00072616765206D6561737572656420626136
:1022B000636B6C61736820286D6D293A0020205390
:1022C0006D6F6F7468696E6720286D6D293A2020E4
:1022D00020202020202020202020202020202053CB
:1022E0000020204261636B6C6173682044697374E1
:1022F000616E636520286D6D293A20202020202002
:10230000202000202846312E30203D2066756C6C40
:102310002C2046302E30203D206E6F6E65290A003D
:102320002020436F7272656374696F6E20416D6F18
:10233000756E742F466164652D6F75743A20202088
:10234000202046006163746976653A0A0042616341
:102350006B6C61736820436F7272656374696F6E32
:10236000200020595A3A200020585A3A200020587C
:10237000593A2000536B657720466163746F720091
:102380006D696E5F736B65775F666163746F723AD8
:1023900020202D31206D61785F736B65775F6661FA
:1023A00063746F723A2020310A00416363656C6583
:1023B000726174696F6E3A2050003F4A206F7574E5
:1023C000206F662072616E67652028302E303120C4
:1023D000746F20302E33290A0020633A00204D39D3
:1023E0003220580020204D61783A200020204D698D
:1023F0006E3A2000536F667420656E6473746F705C
:10240000733A200020496E76616C696420657874A7
:102410007275646572200043616E63656C204F6263
:102420006A65637400416476616E63656420536518
:102430007474696E6773004E65787420506F696EAE
:1024400074004E657874004E4F0059455300436147
:102450006E63656C204F626A656374203D004C6951
:10246000676874204272696768746E6573730046AA
:10247000616E205370656564004C6F616420536524
:102480007474696E677300526573746F7265206649
:1024900061696C736166650053746F726520536582
:1024A0007474696E6773005072656865617420505A
:1024B00045544720436F6E660050726568656174CD
:1024C00020504C4120436F6E660043617365204C81
:1024D00069676874004732380A473239205034201F
:1024E000523235350A47323920410A4D35303000F5
:1024F0004732392050340A4D353030004D333033B7
:1025000020553120453020533235302043380A4D94
:10251000353030004D33303320553120452D3120BA
:102520005339302043380A4D353030004D39303082
:10253000204B300A4D353030004D393030204B3093
:102540002E320A4D353030004D393030204B302E90
:10255000330A4D353030004D393030204B302E3479
:102560000A4D353030004D393030204B302E350A91
:102570004D353030004D393030204B302E360A4D3D
:10258000353030004C696E20416476204B302E345B
:10259000004C696E20416476204B302E33004C692C
:1025A0006E20416476204B302E32004C696E204103
:1025B0006476204F6666004C696E20416476204B3D
:1025C000302E350050494474756E652042656400B4
:1025D00050494474756E6520486F74656E6400419F
:1025E000646A75737420506F696E74204E656172F1
:1025F000004D616E75616C2055424C004C696E2037
:10260000416476204B302E360054656D70657261E2
:1026100074757265004E6F7A7A6C65004D61696EF3
:102620000050726568656174205045544720456EBE
:1026300064005072656865617420504554472042BB
:10264000656400436F6F6C646F776E0046616E2047
:102650005370656564203D004261627973746570F2
:10266000205A00466C6F77004D6573682045646999
:10267000746F72004D31303920532569004D313966
:102680003020532569004265642054656D70004810
:102690006F74656E642054656D700024F4D43050FE
:1026A000C38E20C2A24017828B7011127A910D81C5
:1026B0006CD90AA861E108C7586607615143061E34
:1026C0004B5D05C145A7041A411104093D980371EA
:1026D0003931034036DB0265339102D43054028035
:1026E0002E1D02632CEE01752AC501B028A0011031
:1026F0002781018F2564012B244B01E0223401AC9A
:10270000211F018D200D01801FFC00841EED00970C
:102710001DDF00B81CD200E61BC600201BBC0064F5
:102720001AB200B219A8000A19A0006A189900D1BB
:1027300017910040178B00B516840031167E00B348
:102740001579003A157300C7146F0058146A00EE2B
:102750001366008813630025135E00C7125B006CCC
:1027600012570015125400C111510070114F002171
:10277000114B00D61049008D10470046104400024E
:10278000104200C00F4000800F3E00420F3C000688
:102790000F3B00CB0E3800930E37005C0E35002740
:1027A0000E3400F30D3200C10D3100900D30006089
:1027B0000D2E00320D2D00050D2C00D90C2B00AE76
:1027C0000C2900850C29005C0C2700350C27000E15
:1027D0000C2600E80B2400C40B2400A00B23007D72
:1027E0000B23005A0B2100390B2100180B2000F895
:1027F0000A1F00D90A1E00BB0A1E009D0A1D008088
:102800000A1D00630A1C00470A1B002C0A1B00114A
:102810000A1A00F7091A00DD091900C4091900ABEA
:10282000091900920917007B091800630917004C69
:1028300009160036091600200916000A091500F5C8
:10284000081500E0081400CC081400B8081400A40F
:10285000081400900813007D0812006B081300583C
:102860000812004608120034081100230811001253
:1028700008110001081100F0071000E0071000D057
:10288000071000C0071000B0070F00A1071000914B
:10289000070E0083070F0074070F0065070E00572F
:1028A000070E0049070E003B070D002E070E002003
:1028B000070D0013070D0006070D00F9060C00EDCB
:1028C000060D00E0060C00D4060C00C8060C00BC87
:1028D000060C00B0060C00A4060B0099060C008D37
:1028E000060B0082060B0077060B006C060B0061DE
:1028F000060A0057060B004C060A0042060A00387A
:10290000060A002E060A0024060A001A060A00100B
:1029100006090007060A00FD050900F4050900EB99
:10292000050900E2050900D9050900D0050900C71D
:10293000050900BE050900B5050800AD050800A59C
:102940000509009C050800940508008C0508008412
:102950000508007C050800740508006C0507006583
:102960000508005D050700560508004E05070047ED
:102970000507004005080038050700310507002A53
:10298000050700230507001C050600160507000FB4
:102990000507000805060002050700FB040600F510
:1029A000040700EE040600E8040600E2040700DB6A
:1029B000040600D5040600CF040600C9040600C3BF
:1029C000040600BD040600B7040600B1040500AC0F
:1029D000040600A6040600A00405009B040600955A
:1029E000040500900406008A0405008504050080A3
:1029F0000406007A04050075040500700405006BE8
:102A000004050066040500610405005C0405005728
:102A1000040500520405004D040500480405004368
:102A20000405003E0404003A0405003504050030A6
:102A30000404002C04050027040400230405001EE0
:102A40000404001A04040016040500110404000D17
:102A5000040400090405000404040000040400FC4C
:102A6000030400F8030400F4030400F0030400EC82
:102A7000030400E8030400E4030400E0030400DCB2
:102A8000030400D8030400D4030400D0030400CCE2
:102A9000030400C8030300C503030024F404D92081
:102AA0001BC40C5C0E9804C4095F0265077101F435
:102AB00005F900FB04B30048048700C1036900580E
:102AC00003550003034500BE023A0084023100535F
:102AD000022A002902250004022000E4011C00C88B
:102AE000011900AF0117009801140084011300714F
:102AF0000110006101100051010E0043010D00366C
:102B0000010B002B010B0020010B00150109000C2B
:102B100001090003010800FB000800F3000800EBB6
:102B2000000700E4000600DE000600D8000600D220
:102B3000000600CC000500C7000500C2000500BD6E
:102B4000000400B9000400B5000400B1000400ADA9
:102B5000000400A9000400A5000300A20003009FD8
:102B60000004009B000300980003009500020093FE
:102B7000000300900003008D0002008B000300881A
:102B80000002008600020084000300810002007F32
:102B90000002007D0002007B000200790002007745
:102BA0000001007600020074000200720001007152
:102BB0000002006F0002006D0001006C0002006A5C
:102BC0000001006900020067000100660001006565
:102BD0000001006400020062000100610001006069
:102BE0000001005F0002005D0001005C0001005B6D
:102BF0000001005A0001005900010058000100576F
:102C0000000100560001005500010054000100536E
:102C1000000000530001005200010051000100506B
:102C20000001004F0001004E0000004E0001004D69
:102C30000001004C0001004B0000004B0001004A65
:102C40000001004900010048000000480001004761
:102C5000000100460000004600010045000000455C
:102C60000001004400010043000000430001004255
:102C7000000000420001004100000041000100404E
:102C80000001003F0000003F0001003E0000003E48
:102C90000001003D0000003D0001003C0000003C40
:102CA0000000003C0001003B0000003B0001003A36
:102CB0000000003A0001003900000039000100382E
:102CC0000000003800000038000100370000003725
:102CD000000100360000003600000036000100351B
:102CE0000000003500000035000100340000003411
:102CF0000000003400010033000000330000003306
:102D000000010032000000320000003200010031FA
:102D100000000031000000310001003000000030F0
:102D2000000000300001002F0000002F0000002FE5
:102D30000000002F0001002E0000002E0000002ED9
:102D40000001002D0000002D0000002D0000002DCE
:102D50000001002C0000002C0000002C0000002CC2
:102D60000001002B0000002B0000002B0000002BB6
:102D70000001002A0000002A0000002A0000002AAA
:102D8000000100290000002900000029000000299E
:102D90000000002900010028000000280000002891
:102DA0000000002800000028000100270000002784
:102DB0000000002700000027000000270001002677
:102DC000000000260000002600000026000000266B
:102DD000000100250000002500000025000000255E
:102DE0000000002500000025000100240000002450
:102DF0000000002400000024000000240001002343
:102E00000000002300000023000000230000002336
:102E10000000002300000023000100220000002227
:102E2000000000220000002200000022000000221A
:102E3000000100210000002100000021000000210D
:102E400000000021000000210000002100010020FE
:102E500000000020000000200000002000000020F2
:102E60000000002000000020000000200001001FE2
:102E70000000001F0000001F0000001F0000001FD6
:102E80000000001F0000001F0001001E0000001EC7
:102E90000000001E0000001E000000232C0000B8EF
:102EA000220000561800003A0F0000B8080000B1D8
:102EB000040000710200003E010000496E666F20B0
:102EC00053637265656E00473239205036204320C7
:102ED0002D0048656967687420416D6F756E7400D8
:102EE00041646A757374204D65736820486569672D
:102EF00068740047323920503420540046696E65AA
:102F00002054756E6520436C6F736573740047328F
:102F1000362043204225692048256920500056610B
:102F20006C696461746520437573746F6D204D65C1
:102F30007368004732380A47323620432042373020
:102F4000204832353020500056616C6964617465E8
:102F5000204D657368202850455447290047323872
:102F60000A47323620432042363020483230302063
:102F7000500056616C6964617465204D657368200A
:102F800028504C412900473239204A2569004C65B8
:102F900076656C204D657368005369646520506FD9
:102FA000696E74730047726964204D657368204CC4
:102FB0006576656C696E6700473239204A300033A8
:102FC0002D506F696E74204C6576656C696E670074
:102FD000473239205033205220432E2569004D615D
:102FE0006E75616C2046696C6C2D696E0046696C6B
:102FF0006C2D696E20416D6F756E74004D65736840
:1030000020696E76616C6964617465642E0A00479C
:103010003239204900496E76616C696461746520BB
:10302000436C6F7365737400496E76616C6964619B
:10303000746520416C6C00473239205031204300C8
:10304000436F6E74696E756520426564204D6573CB
:10305000680046696C6C2D696E204D65736800428E
:1030600075696C6420437573746F6D204D6573686A
:10307000004732380A4D313930205337300A4D314C
:10308000303920533235300A4732392050310A4D19
:103090003130342053300A4D313430205330004227
:1030A00075696C64204D6573682028504554472924
:1030B000004732380A4D313930205336300A4D310D
:1030C000303920533230300A4732392050310A4DDE
:1030D0003130342053300A4D3134302053300042E7
:1030E00075696C64204D6573682028504C41290037
:1030F0003F0043616E63656C0053746172742050CD
:1031000072696E740043616E6E6F7420656E7465D3
:1031100072207375626469723A2000052E2E005386
:103120006F667420456E6473746F7073004D38342D
:103130000044697361626C652053746570706572D8
:1031400073004C6576656C20436F726E6572730018
:10315000473238205A00486F6D65205A0047323890
:10316000205900486F6D65205900473238205800BB
:10317000486F6D652058004175746F20486F6D650C
:10318000005072656865617420504C4120456E6442
:10319000005072656865617420504C41204265643E
:1031A000006563686F3A004572726F723A002020C2
:1031B0004D343231204900202047323920493939F5
:1031C0000A006163746976650A0020537973746537
:1031D0006D2076312E303120002020207C0A004ED8
:1031E000414E0020202E20202000207C004C434413
:1031F0003A0A004353563A0A0020666F7220003A9A
:103200000A0A000A42656420546F706F6772617029
:103210006879205265706F727400446F6E652E0A73
:10322000003F496E76616C69642073746F726167E8
:103230006520736C6F742E0A3F55736520302074BF
:103240006F20004732392050322066696E697368FA
:1032500065642E0A005859206F757473696465207F
:103260007072696E7461626C6520726164697573F5
:103270002E0A003F4572726F7220696E204275738C
:10328000696E6573732043617264206D6561737547
:1032900072656D656E742E0A004D616E75616C6CA1
:1032A000792070726F62696E6720756E72656163F6
:1032B0006861626C65206D657368206C6F63617412
:1032C000696F6E732E0A004D657368207A65726FA0
:1032D00065642E0A0044656661756C742073746FB2
:1032E0007261676520736C6F7420302073656C6544
:1032F000637465642E0A004C6F6164696E672074A4
:103300006573745F7061747465726E2076616C753C
:1033100065732E0A0A00496E76616C6964207465D3
:1033200073745F7061747465726E2076616C75651C
:103330002E20282D3120746F2032290A0A004C6F6C
:10334000636174696F6E7320696E76616C69646124
:103350007465642E0A0A00456E74697265204D65B5
:10336000736820696E76616C6964617465642E0AA5
:103370000A0047323920503420523939392054005C
:103380004732380A473239205031004D6F74696F27
:103390006E00372E205361766520426564204D65AE
:1033A000736800362E2046696E652054756E652060
:1033B000416C6C00352E2056616C69646174652027
:1033C0004D65736800342E2046696E652054756E15
:1033D0006520416C6C00332E2056616C6964617409
:1033E00065204D65736800473239205033205430D2
:1033F00000322E20536D6172742046696C6C2D6909
:103400006E00312E204275696C6420436F6C64201D
:103410004D657368004732392057004F75747075D9
:10342000742055424C20496E666F0055424C205422
:103430006F6F6C73004F7574707574204D65736891
:10344000204D6170004D6573682053746F72616721
:1034500065004D6573682045646974005374657038
:103460002D42792D537465702055424C00473239F6
:1034700020410041637469766174652055424C00B7
:10348000473239204400446561637469766174652C
:103490002055424C002568753A2530326875002564
:1034A000303268753A2530326875002053697A6584
:1034B0003A200043616E6E6F74206F70656E2073EA
:1034C0007562646972200053442063617264206FE6
:1034D0006B0A006F70656E526F6F74206661696C65
:1034E00065640A00766F6C756D652E696E6974206F
:1034F0006661696C65640A00534420696E697420D2
:103500006661696C0A004D32332025730046696C90
:10351000652073656C65637465640A0046696C6553
:10352000206F70656E65643A2000454E4420535507
:1035300042524F5554494E450A002220706F730085
:103540002220706172656E743A2200535542524FC8
:103550005554494E452043414C4C20746172676577
:10356000743A2200747279696E6720746F20636107
:103570006C6C207375622D67636F64652066696C7F
:103580006573207769746820746F6F206D616E7940
:10359000206C6576656C732E204D4158206C6576E5
:1035A000656C2069733A310A0057726974696E67F5
:1035B00020746F2066696C653A2000534420707255
:1035C000696E74696E67206279746520004E6F744D
:1035D000205344207072696E74696E670A006672C7
:1035E00065736800646F696E67004E6F7720000036
:1035F000001B430000254300001B4300001B430049
:10360000002543000000000000204200002042008E
:103610000080400202020000A0400000A040000024
:10362000A0400101FF000000010000000100008037
:1036300000555555000000400033333300AAAA2A34
:10364000004992240000002000C7711C00999919BC
:1036500000D1451700555515003BB1130024491200
:103660000011111100000010000F0F0F00E3380EC1
:103670000043790D00CCCC0C00C3300C00E8A20B49
:103680000064210B00AAAA0A00703D0A009DD80917
:1036900000427B090092240900DCD30800888808D6
:1036A000001042080000000800F0C10700878707EB
:1036B0000075500700711C07003EEB0600A1BC0618
:1036C000006990060066660600703E0600611806F6
:1036D0000017F4050074D105005BB00500B2900539
:1036E00000627205005555050078390500B81E05C1
:1036F00000050505004EEC040087D40400A1BD04BC
:103700000090A7040049920400C17D0400EE690402
:1037100000C7560400444404005C3204000821043D
:103720000041100400000004003FF00300F8E00333
:103730000026D20300C3C30300CCB503003AA8039C
:10374000000A9B0300388E0300C08103009F7503AD
:1037500000D0690300505E03001D5303003448038A
:1037600000913D03003333030016290300381F0383
:103770000097150300300C0300030303000BFA024B
:103780000049F10200BAE802005CE002002DD80214
:10379000002DD0020059C80200B0C0020031B902A9
:1037A00000DAB10200AAAA0200A0A30200BC9C0297
:1037B00000FA9502005C8F0200DF8802008282021C
:1037C00000457C02002776020027700200436A024F
:1037D000007C640200D05E02003F590200C8530220
:1037E00000FFFDFCFAF8F6F4F2F0EEECEAE9E7E5AA
:1037F000E3E1E0DEDCDAD9D7D5D4D2D0CFCDCBCA65
:10380000C8C7C5C3C2C0BFBDBCBAB9B7B6B4B3B2EE
:10381000B0AFADACAAA9A8A6A5A4A2A1A09E9D9C4C
:103820009A99989795949392908F8E8D8B8A898888
:10383000878684838281807F7E7D7B7A79787776A4
:103840007574737271706F6E6D6C6B6A69686766A0
:103850006564636261605F5E5D5C5B5A595858578E
:1038600056555453525150504F4E4D4C4B4A4A4965
:1038700048474646454443424241403F3E3E3D3C28
:103880003B3B3A39383837363535343332323130DC
:10389000302F2E2E2D2C2B2B2A2929282727262581
:1038A0002524232322212120201F1E1E1D1C1C1B1A
:1038B0001B1A1919181817161615151413131212A6
:1038C0001111100F0F0E0E0D0D0C0C0B0A0A090929
:1038D00008080707060605050404030302020100A1
:1038E000005761726E696E673A20486F6D696E6746
:1038F0002042756D702044697669736F72203C2098
:10390000310A0020746F6F206C6F6E6720657874C9
:10391000727573696F6E2070726576656E7465641A
:103920000A0020636F6C6420657874727573696F28
:103930006E2070726576656E7465640A00554E4C33
:103940004F41442046494C414D454E540046494C58
:10395000414D454E54204348414E474500436F6E0C
:1039600066696775726174696F6E004D3730322019
:10397000542564004D3630302042302054256400F8
:103980004D373032203B2564004D373031205425EF
:1039900064004D373032004D373031004D36303015
:1039A000204230005075726765206D6F726500525D
:1039B0004553554D45204F5054494F4E533A0050B2
:1039C00052494E54205041555345440020204E6FDB
:1039D0007A7A6C653A200053746F70004D32310072
:1039E0004368616E6765204D656469610041757467
:1039F0006F7374617274004D38300053776974636B
:103A00006820506F776572204F6E004D383100533B
:103A1000776974636820506F776572204F6666001F
:103A2000526573756D65205072696E74004E6F201B
:103A30004D656469610054756E650053746F702044
:103A40005072696E74005061726B696E672E2E2E13
:103A50000000005761697420666F720066696C61CE
:103A60006D656E74206368616E676500746F2073A6
:103A700074617274005761697420666F72006669C0
:103A80006C616D656E7420756E6C6F616400004EC4
:103A90006F7A7A6C652068656174696E6700506C36
:103AA0006561736520776169742E2E2E0000507257
:103AB00065737320627574746F6E00746F2068652F
:103AC0006174206E6F7A7A6C650000496E7365725E
:103AD000742066696C616D656E7400616E6420703F
:103AE0007265737320627574746F6E00746F2063F7
:103AF0006F6E74696E7565005761697420666F72C8
:103B00000066696C616D656E74206C6F61640000A5
:103B1000507265737320427574746F6E00746F20F9
:103B2000726573756D65207072696E7400005761FF
:103B3000697420666F72207072696E7400746F20F1
:103B4000726573756D652E2E2E00005761697420A5
:103B5000666F720066696C616D656E742070757257
:103B6000676500004469736D697373005072696E14
:103B700074205061757365640050617573652050E1
:103B800072696E74004D656469612052656D6F766F
:103B90006564004D6564696120496E736572746582
:103BA00064006E6F74696669636174696F6E20008A
:103BB0003344205072696E74657220526561647975
:103BC0002E005072696E74696E672E2E2E0063612E
:103BD0006E63656C005072696E742041626F72741E
:103BE00065640055492041626F72746564004D320E
:103BF0003520500A4D323400526573756D6500559D
:103C00004920506175736500726573756D650002BA
:103C1000687474703A2F2F6D61726C696E66772EBE
:103C20006F726700204275696C642034353700205C
:103C300020506C616E6E657242756666657242797F
:103C40007465733A20002046726565204D656D6F7E
:103C500072793A2000436F6D70696C65643A204454
:103C6000656320333120323031390A00204C6173D2
:103C70007420557064617465643A20323031392D96
:103C800031322D3139207C20417574686F723A20B1
:103C9000285665727461627265616B6572290A00EB
:103CA0004275696C64203435370A004D61726C6965
:103CB0006E0020536F66747761726520526573657C
:103CC000740A00205761746368646F6720526573DB
:103CD00065740A002042726F776E206F75742052EF
:103CE000657365740A002045787465726E616C2096
:103CF00052657365740A00506F77657255700A00DB
:103D00006175746F25632E670047323700657272E4
:103D10006F722077726974696E6720746F206669AC
:103D20006C650A00446F6E6520736176696E67206A
:103D300066696C652E0A004D3239002553202563D3
:103D400020256320256320256300205A3A0020594E
:103D50003A00656E6473746F7073206869743A20FA
:103D6000006F70656E005452494747455245440004
:103D70007A5F6D696E00795F6D617800785F6D6163
:103D800078005265706F7274696E6720656E647337
:103D9000746F70207374617475730A0020436F75BB
:103DA0006E7420583A004D313137204D65736820CC
:103DB0002569204C6F6164656400473239204C25C9
:103DC00069004D313137204D6573682025692053D6
:103DD000617665640047323920532569004C6F6174
:103DE0006420426564204D657368004D656D6F7297
:103DF0007920536C6F74004E6F2053746F7261673B
:103E00006500486F6D696E672058595A004732390E
:103E100020503420582573205925732052256900DD
:103E2000202D2D2D2D2D00473238004732392053BB
:103E30002D31004F6666205072696E7465722042A3
:103E400061636B757000473239205431004F7574CF
:103E500070757420666F72204353560047323920C4
:103E60005430004F757470757420666F7220486FFF
:103E700073740045646974204D6573680047323976
:103E800020493939390A47323920503220422054EA
:103E900030004D616E75616C6C79204275696C649F
:103EA000204D65736800453100626564002C207305
:103EB000797374656D2073746F7070656421204828
:103EC00065617465725F49443A20004865617469B0
:103ED0006E67204661696C65640048656174696E4F
:103EE00067206661696C656400202D20496E7661EB
:103EF0006C6964206578747275646572206E756D86
:103F000062657220210A004572723A204D41585470
:103F1000454D50004D415854454D502074726967CD
:103F20006765726564004572723A204D494E54458A
:103F30004D50004D494E54454D502074726967678D
:103F400065726564004D383420450070012C019085
:103F5000012701B0012201C0011D01F0011801106B
:103F600002130130020E016002090190020401C037
:103F700002FF000003FA004003F5008003F000D0C8
:103F800003EB002004E6007004E100E004DC0040E4
:103F900005D700C005D2004006CD00D006C800807D
:103FA00007C3003008BE00F008B900C009B400B073
:103FB0000AAF00B00BAA00D00CA500000EA0005064
:103FC0000F9B00C01096005012910000148C00C08E
:103FD000158700B0178200B0197D00D01B78000053
:103FE0001E730040206E0090226900F0246400409F
:103FF000275F0090295A00E02B5500102E5000201A
:10400000304B0010324600E033410090353C001048
:1040100037370070383200A0392D00B03A2800A0A0
:104020003B2300603C1E00103D1900903D14001021
:104030003E0F00703E0A00C03E0500003F000040F9
:104040003FFBFF803FF6FFC03FF1FF202F002042E3
:10405000403A0020403A0020573A007C3C3E5E2B1C
:104060003D3F2F5B5D3B2C2A225C005072696E74D1
:104070002066726F6D204D65646961004368616EF2
:1040800067652046696C616D656E7400556E6C6F76
:1040900061642046696C616D656E74004C6F61648B
:1040A0002046696C616D656E74005072656865616B
:1040B0007420504554470050726568656174205003
:1040C0004C41005072656865617420437573746F6C
:1040D0006D004261636B00486F6D65202573257329
:1040E000257320466972737400626567696E0050BB
:1040F000757267654D6F726500436F6E74696E759A
:1041000065004C6F61642046696C616D656E74205A
:104110005400496E736572742066696C616D656EDA
:104120007420616E642073656E64204D3130380AEE
:1041300000220A00556E6B6E6F776E20636F6D6D97
:10414000616E643A202200204A002052004545500A
:10415000524F4D20496E697469616C697A65640AD1
:10416000004D65736820736176656420696E207305
:104170006C6F7420003F556E61626C6520746F2017
:1041800073617665206D65736820646174612E0AC1
:104190000020736C6F743D00206D65736865735FFC
:1041A000656E643D004532454E443D00206D6573AB
:1041B0006820736C6F747320617661696C61626CE6
:1041C000652E0A003F496E76616C696420736C6FDE
:1041D000742E0A004D657368206C6F6164656420FD
:1041E00066726F6D20736C6F7420003F556E616254
:1041F0006C6520746F206C6F6164206D657368203E
:10420000646174612E0A0048617264636F6465645E
:104210002044656661756C742053657474696E67BB
:1042200073204C6F616465640A0020286D6D29005D
:104230002028696E290046616872656E6865697438
:104240000043656C73697573004B656C76696E002D
:10425000556E696669656420426564204C657665C3
:104260006C696E670020204D363033200020204DD1
:104270003432352046004261636B6C6173682063A1
:104280006F6D70656E736174696F6E3A0A002055C8
:104290000046696C616D656E74206C6F61642F758A
:1042A0006E6C6F6164206C656E677468733A0A00A7
:1042B00020204D393030204B004C696E65617220F2
:1042C000416476616E63653A0A0020204D383532CC
:1042D000204900536B657720466163746F723A2002
:1042E0000A0020204D333034205000204C00202084
:1042F0004D33303120500050494420736574746947
:104300006E67733A0A0020480020204D3134352072
:1043100053004D6174657269616C206865617475E4
:104320007020706172616D65746572733A0A002065
:104330006D65736865732E0A0A00454550524F4DEE
:104340002063616E20686F6C6420000A41637469A9
:104350007665204D65736820536C6F743A20002099
:10436000204D34323020530020204D323035204251
:1043700000204A3C6A756E635F6465763E00416466
:1043800076616E6365643A20423C6D696E5F736569
:10439000676D656E745F74696D655F75733E2053FC
:1043A0003C6D696E5F66656564726174653E20543C
:1043B0003C6D696E5F74726176656C5F666565649D
:1043C000726174653E0020204D323034205000412F
:1043D0006363656C65726174696F6E2028756E69C0
:1043E00074732F7332293A20503C7072696E745F77
:1043F000616363656C3E20523C72657472616374E4
:104400005F616363656C3E20543C74726176656CD9
:104410005F616363656C3E0A0020204D32303120BD
:1044200058004D6178696D756D20416363656C65F9
:10443000726174696F6E2028756E6974732F7332A0
:10444000293A0A0020204D3230332058004D61783F
:10445000696D756D20666565647261746573202889
:10446000756E6974732F73293A0A005374657073FB
:104470002070657220756E69743A0A00203B2055E1
:104480006E69747320696E200020204D313439200C
:1044900000203B002020473200486F6D696E672086
:1044A0004661696C656400000048430000484300B1
:1044B00000A0400000F0410000A0420000A0420027
:1044C00000C8430000C442D0070000D007000064C9
:1044D000000000A00F000000002100240027002A97
:1044E000002D003000330001010000040107010A23
:1044F0000100002200250028002B002E003100348E
:104500000002010000050108010B0100002000234A
:1045100000260029002C002F0032000001000003BB
:104520000106010901050505050705080808080237
:104530000202020A0A08080404040401010101013C
:104540000101010303030303030303040707070C2B
:104550000C0C0C0C0C0C0C020202020606060606E1
:104560000606060B0B0B0B0B0B0B0B01021020208E
:1045700008081020401020408002010201080402B7
:10458000010102040810204080804020100804022D
:104590000180040201804020100804020108040286
:1045A000010102040810204080010204081020408C
:1045B0008000000A0B02090C0D0E0807030401001D
:1045C00000000000000000000000000000000000EB
:1045D00000000000000000000000000000121110A8
:1045E00000000000000000000000000000000000CB
:1045F000000000000000004D6F76652025736D6D92
:10460000004D6F766520302E316D6D004D6F7665F3
:1046100020316D6D004D6F76652031306D6D004D30
:104620006F7665204178697300486F74656E642009
:10463000746F6F20636F6C64004578747275646585
:1046400072004D6F7665205A004D6F7665205900D7
:104650004D6F76652058006F70656E206661696CDD
:1046600065642C2046696C653A2000544845524DDB
:10467000414C2052554E4157415900546865726D66
:10468000616C2052756E6177617900706F77657229
:104690006F666600506C6561736520526573657462
:1046A000005052494E5445522048414C5445440014
:1046B00025533A202553004B494C4C45442E2000AD
:1046C0005072696E7465722068616C7465642E2026
:1046D0006B696C6C28292063616C6C6564210A002D
:1046E000446966663A200046726F6D5374703A00F2
:1046F000537465707065723A00556E4C6576656CE2
:104700003A004C6576656C65643A005261773A20F0
:10471000202020000A4C6F676963616C3A00436F88
:10472000756E7420453A004361703A004D302F3168
:1047300020427265616B2043616C6C656400436C60
:1047400069636B20746F20526573756D652E2E2E14
:1047500000007901230111241FBECFEFD1E2DEBF9B
:10476000CDBF00E00CBF13E0A0E0B2E0E4EBF8EF57
:1047700002E00BBF02C007900D92A439B107D9F730
:1047800026E1A4E9B3E001C01D92A13EB207E1F722
:1047900013E2CAEAD3E200E006C021970109802FA4
:1047A000FE010F94CE77C93AD10780E00807A9F738
:1047B0000F9439600D94487C0C9400002F923F9226
:1047C0004F925F926F927F928F929F92AF92BF9221
:1047D000CF92DF92EF92FF920F931F93CF93DF93CD
:1047E000CDB7DEB7C055D1090FB6F894DEBF0FBE06
:1047F000CDBF60968FAF60972091B7112D962FAFE8
:104800002D9721E02093B7118091CF148D3409F4B6
:1048100062C2843511F40C948933873411F00C94FE
:10482000A4338091CD149091CE148B31910509F46D
:104830005CC1A4F48430910509F4DEC01CF4029735
:1048400068F145C28431910509F445C1853191056E
:1048500009F446C10C9709F03AC20DC18A3291059C
:1048600009F4C5C15CF48C31910509F458C14D9728
:1048700009F02DC20E947ECF0C94A6338B35910592
:1048800009F45DC18C35910509F45EC18A35910545
:1048900009F01DC21092A3030C94A63380916D02FF
:1048A000882311F40C94A6335FE3A52E53E0B52EB4
:1048B00064E7C62E62E0D62E75E4E72E76E0F72E8A
:1048C00010E0D5018D915D010E949DCA882349F1B8
:1048D000812F0E946E95762E872E982E092F80911B
:1048E0009E0D81111EC0812F0E94B494882371F007
:1048F000D6012D913D914D915C91672D782D892D9B
:10490000902F0F94D777762E872E02C0892D902F67
:10491000472D582DBC01F701408351836283738377
:104920000AC0F60180819181A281B381F701808361
:104930009183A283B3831F5FF4E0CF0ED11C24E0E8
:10494000E20EF11C133009F0BCCF85E40E949DCA31
:10495000882321F183E00E946E957B018C0183E026
:104960000E94B494882371F02091800230918102DA
:104970004091820250918302B701C8010F94D7770A
:104980007B0101C0C801A701BC01409351065093AF
:104990005206609353067093540610C080918002B3
:1049A00090918102A0918202B0918302809351067E
:1049B00090935206A0935306B093540686E40F9446
:1049C000504620E030E0A9010F949E79181684F437
:1049D0000E9447CA20E030E040E752E40F945F783D
:1049E000609368027093690280936A0290936B02ED
:1049F0000F943F1A0C94A63380E50E949DCA882329
:104A000029F00E9483986B017C0103C0C12CD12C3A
:104A1000760183E50E949DCA882361F00E9410CA36
:104A200020E030E04AE754E40F9439710F94D878CD
:104A30006B017C010E9408ED80910712811105C075
:104A400060E082EF96E00F9494140F94CC52C60E5F
:104A5000D71EE81EF91E0F94CC52DC01CB018C1935
:104A60009D09AE09BF09B7FD02C00C94A63380E0D2
:104A70000E94405EF0CF0F945A4881110C94A633E7
:104A800060E070E080E50E94CD94F82E65E070E073
:104A900083E50E94CD946C01382E65E070E084E5DA
:104AA0000E94CD94282E40E050E060ED70E482E555
:104AB0000E94B9CA4B015C018091C91487FF02C0F2
:104AC0000C94B3338091CA14837011F00C94B333F7
:104AD00011E00C947A3681E00F94525A0C94A6336C
:104AE00080E00F94525A0C94A6330F945A488111C7
:104AF0000C94A6338CE0E4E8F2E0DE01119601901C
:104B00000D928A95E1F760E070E080E50E94CD9417
:104B1000BE016F5F7F4F0F94970F0C94A633809167
:104B200044068770873011F00C947C3660E08FE487
:104B30000E94A84681110C94A6330C947C368FE019
:104B40008093A3030C94A6339FE3C92E93E0D92E40
:104B500024E7E22E22E0F22E00E0312C10E0D60114
:104B60008D916D010E949DCA882361F1812F0E9461
:104B70006E954B015C01F7012081318142815381A7
:104B80000F94D6772B013C012DEB37E346E855EB2C
:104B90000F949E7987FD0AC02DEB37E346E855E375
:104BA000C301B2010F94D370181664F4133019F0D6
:104BB0003324339401C001E0D7018D929D92AD92D0
:104BC000BC9213971F5FB4E0EB0EF11C143039F662
:104BD000332019F00F94B72606C0002321F080E897
:104BE00092E00E9419ED0F94B9260C94A63380919F
:104BF0006D02882311F40C94A63389E40E949DCAA7
:104C0000E82E882321F00E940CCAF82E01C0F12C56
:104C10008AE40E949DCA082F882321F00E940CCAB2
:104C2000182F01C010E0EE2019F0E4E0EF1520F09D
:104C3000002341F0153030F08FE197E00E946DCCF9
:104C40000C94A63380E1E4E7F2E0A5E4B6E001903D
:104C50000D928A95E1F7EE2059F08F2D0E9414CB2A
:104C600060934506709346068093470690934806E6
:104C7000002359F0812F0E94E7CA60934906709380
:104C80004A0680934B0690934C0686E40F94504658
:104C90006B017C0120E030E0A9010F949E79181689
:104CA0004CF420E030E040E752E4C701B6010F9435
:104CB0005F7803C060E070E0CB0169837A838B8307
:104CC0009C83CE0101960F94D7240C94A6330F94A5
:104CD00042460C94A6338091CD149091CE14873720
:104CE000910509F41FC70CF0F5C08D34910509F446
:104CF0009AC40CF06AC08A31910509F49EC2B4F5D9
:104D00008431910509F419C294F48131910509F4B3
:104D100000C244F4029710F00C9486330F947C5A2E
:104D20000C94A633429709F435C60C948633873128
:104D3000910509F427C28CF48531910509F41EC24E
:104D4000469711F00C9486330E9465E080915C14C4
:104D5000877F80935C140C94A6338831910509F405
:104D600028C2499709F45EC20C9486338F319105AD
:104D700009F474C37CF48C31910509F4BEC20CF4BF
:104D80006AC28D31910509F4C0C24E9709F4C4C2BC
:104D90000C9486338934910509F42EC44CF4803286
:104DA000910509F418C38A9709F403C40C94863357
:104DB0008B34910509F433C48C34910511F00C94B3
:104DC00086330E944A910C94A6338A36910509F4E1
:104DD000C9C4ECF58435910509F4DCC5E4F48135EA
:104DE000910509F4BAC534F48035910509F49DC5DF
:104DF0000C9486338235910509F4C5C58335910538
:104E000011F00C9486338091A3038F7E806280938F
:104E1000A3030C94A6338436910509F408C46CF4FA
:104E20008535910509F4B9C58C35910511F00C94BF
:104E300086330E94779B0C94A6338836910509F43B
:104E4000FAC38936910509F477C40C948633803708
:104E5000910511F40C94A633D4F48D36910509F420
:104E60000EC45CF48B36910509F49EC48C36910512
:104E700011F40C94A6330C9486338E36910509F404
:104E80009FC48F36910509F4ACC40C9486338337E4
:104E9000910509F49BC56CF48137910509F4E5C4CB
:104EA0008237910511F00C9486330F942B5B0C9490
:104EB000A6338537910509F4F2C58637910511F0BF
:104EC0000C9486330091CB141091CC1494E0F12C07
:104ED00040E00CC68336F1E09F0711F40C94443394
:104EE0000CF076C08C3C910509F4ECC674F5813960
:104EF000910509F429C684F48937910509F41DC682
:104F00000CF413C68D37910509F40CC58C38910546
:104F100009F4CDC40C9486338E3B910509F4D9C4B1
:104F200054F48539910509F468C68B39910509F463
:104F3000D3C40C948633893C910509F479C68B3C23
:104F4000910509F49CC60C9486338232A1E09A073D
:104F500009F462C7E4F48C3D910509F4B9C66CF418
:104F60008D3C910509F4B1C6833D910511F00C9477
:104F700086330E94469A0C94A6338D3D910509F420
:104F8000B4C6823E910509F4FBC60C9486338E327A
:104F9000E1E09E0711F40C94DF2F74F48C3221E0D1
:104FA000920709F484C78D32914011F00C94863336
:104FB0000E94569C0C94A6338F32A1E09A0711F4FC
:104FC0000C9423308033914009F486C70C948633C7
:104FD000883FE1E09E0711F40C9434310CF04FC08F
:104FE000893A21E0920711F40C94BF30ECF48A392D
:104FF000A1E09A0711F40C94A6334CF48039914047
:1050000011F00C9486330E9408ED0C94A633843A78
:10501000F1E09F0711F40C942630853A914011F489
:105020000C9429300C948633853F31E0930711F4BA
:105030000C942E317CF4863EB1E09B0711F40C9465
:10504000C230843F914011F00C9486330E948985D0
:105050000C94A633863FF1E09F0711F40C94313194
:10506000873F914011F00C94863361E083E50E9404
:10507000A84691E089270F94864C0C94A6338E3B6A
:1050800032E0930711F40C944B321CF58835B2E0F2
:105090009B0711F40C94CE316CF48C30F2E09F0736
:1050A00011F40C9444318F33924011F40C944C3130
:1050B0000C9486338B3532E0930711F40C94D13184
:1050C0008D3B924011F00C9486330E948D950C9488
:1050D000A6338438B3E09B0711F40C9408336CF4C6
:1050E0008435F3E09F0711F40C94CB318C36934058
:1050F00011F40C94A6330C948633803A33E0930772
:1051000009F49EC1873E934011F40C9478330C94BB
:1051100086338091C71484FF02C00C944B38809171
:10512000C91487FF02C00C944B388091CA14837055
:1051300011F00C944B380C94623886E597E00E948D
:105140006DCC81EB92E10F94F73A8BE1E1EBF2E168
:10515000DE01119601900D928A95E1F760E070E012
:10516000CE0101960E9419E7CE0101960F94FC3AF8
:1051700087E497E00E946DCC0C94A6330E94D6E0A1
:105180000C94A633E091CB14F091CC148081882349
:1051900029F0803209F410823196F8CF60E08091D6
:1051A000CB149091CC140E94FEE51092210E0C9429
:1051B000A6338091D6058823E9F080E090E0A0EA4C
:1051C000B0E488A799A7AAA7BBA71C8E1D8E1E8E28
:1051D0001F8E19821A821B821C8220E0AE01485D5C
:1051E0005F4FBE01645E7F4FCE0101960E9467490A
:1051F0000C94A6330E94325C882321F00E9476E052
:105200000E94565C61E088E09CE30E944F4844E6BF
:105210005BE367E677E085E00E9460490F948315C1
:105220000C94A63380915C1482FF03C08B7F809323
:105230005C140E94CE970C94A63380915C1483FD7D
:1052400002C00C94A63383E50E949DCA81110C9480
:105250006E380C94A63383E40E9454CA882319F153
:105260008DE797E00E946DCC80915B12882391F0CE
:10527000BE016F5F7F4F88E592E10F94BE398E01CA
:105280000F5F1F4FF80181918F01882339F00E9431
:10529000FD5CF8CF83E797E00E946DCC8AE00E9426
:1052A000FD5C0C94A63383E50E949DCA882309F116
:1052B0000E948446182F90E0CD970CF01CE31093C9
:1052C00098030F94CC526B017C01212F30E0A8EEA3
:1052D000B3E00F947D77C60ED71EE81EF91EC0926C
:1052E0009403D0929503E0929603F09297030C9466
:1052F000A6330E943EE00C94A6338091CB1490918B
:10530000CC140E94B0E50C94A63380915C148E7F7F
:1053100080935C140C94A63380915C1483FD02C0CE
:105320000C94A6330F94284680915C1483FD02C030
:105330000C94A6336091CB147091CC14CE014C9692
:105340000F94E2578C01009711F40C94A6336C8DE6
:105350007D8D19821C8222E0AC01CE0101960F9452
:105360002C3F811102C0F12C14C0CE0101960F9484
:1053700050578823C1F361E0CE0101960F94A23902
:10538000009789F325EEDC012C931C820E942CE20D
:10539000F82ECE0101960F94FC3AB801FF2089F057
:1053A00084EA97E00E9403CF8AE00E94FD5C10929D
:1053B00058141092591410925A1410925B140C94B1
:1053C000A6338CE897E00E9403CF8CEC9AE00E9411
:1053D0006DCC0C94A63380915C1482FD0E9408ED84
:1053E00080915C1483FD02C00C94A63360E080E5DC
:1053F0000E94A846182F682F8091CB149091CC144E
:105400000E94FEE583E50E949DCA882381F00E94E8
:10541000FCC9AB01BC0140935814509359146093DC
:105420005A1470935B1488E592E10E9452E40E9442
:1054300076E011110C94A6330E94565C0C94A633AE
:105440002091CB143091CC1490915C149260909385
:105450005C14C9010E94B0E50C94A6330E94D79059
:105460007B018C0120E831E541E050E00F94297781
:10547000C9016DE671E00F94A6774B015C01C8018C
:10548000B70120E13EE040E050E00F942977CA01E7
:10549000B90128E130E040E050E00F942977762E02
:1054A000672EC62ED72E8CE3282E312C412C512C62
:1054B000C801B701A20191010F942977F62EE72EBA
:1054C000CA01B901A20191010F942977CB018E0184
:1054D0000F5F1F4F8114910499F0EF92FF927F9319
:1054E0006F936F927F92BF92AF929F928F9282EB57
:1054F00097E09F938F931F930F930F946B7013C03C
:10550000A114B104B1F0EF92FF927F936F936F9269
:105510007F92BF92AF9286EB97E09F938F931F93FA
:105520000F930F946B700FB6F894DEBF0FBECDBF14
:1055300030C0CD2879F0EF92FF927F936F936F92F6
:105540007F928AEB97E09F938F931F930F930F9413
:105550006B70E9CF892B69F0EF92FF927F936F9385
:105560008EEB97E09F938F931F930F930F946B7025
:10557000DACFEF92FF9282EC97E09F938F931F9385
:105580000F930F946B700F900F900F900F900F90E0
:105590000F9060E0C8010F9445150E941ACFB80122
:1055A00086EC97E00E9403CF8AE00E94FD5C0C9499
:1055B000A63383E50E949DCA882311F40C94A63378
:1055C0000E948446F82E66E070E080E50E94AACA38
:1055D0008C0197FF02C00C94A633E82E60E089E4AA
:1055E0000E94A84681110C947F38802F0F94E75EAB
:1055F0008111E3C30C947F3880E50E9454CA88234C
:1056000011F40C94A6330E94844690E085369105EF
:1056100010F084E690E08093210E0C94A6330E9453
:10562000565C0C94A6330E945F910C94A6330E94A2
:10563000FB430C94A63380919F0D83FF02C00C9412
:10564000A6330E948B9487FF02C00C94A63383E597
:105650000E949DCA882379F00E943A950F94D178D0
:105660008B01CB010F941D400C34110524F40E94D2
:105670005F910F9483150F94435F0C94A633809130
:105680009F0D83FF02C00C94A6330E948B94F82ECA
:1056900087FF02C00C94A63383E50E949DCA082FA1
:1056A000811106C082E50E949DCA182F8823C1F18E
:1056B0000E943A950F94D178CB010F941D400E941F
:1056C0003A9520E030E046E952E40F94D370181682
:1056D00014F40C949E380E945F910F94831560918E
:1056E000070770910807072E000C880B990B0F9481
:1056F000DA704B015C014090030750900407609002
:10570000050770900607A30192010F949E79181661
:1057100014F40C94A238002311F40C94B43811E062
:105720000F94435F112311F40C94A633602F8F2D37
:105730000F94F2400C94A6330E948B94182F87FD8F
:105740000AC08AE29FE00E946DCC812F0F945540E1
:105750008AE00E94FD5C2D96BFAD2D97B093B711E6
:105760000C94E23880E50F946A47182F833010F0CC
:105770000C94A63381E40E9454CA882321F06091DE
:10578000EB0670E002C06FEF70E083E50E94CD94FD
:10579000E12FF0E0E551F94F8F3F910519F010F03E
:1057A0008FEF90E08083D2C780E50F946A47833003
:1057B00008F0CCC7E82FF0E0E551F94F1082C6C7DA
:1057C0008EE40E949DCA882309F4C0C70E94FCC9C8
:1057D0006093100470931104809312049093130447
:1057E000B5C783E50E9454CA882329F083E50F9446
:1057F0006A4780939F0D0E941ACF88ED97E00E9420
:105800006DCC80919F0D882369F118EFE12E1AE08D
:10581000F12E00E010E020E080919F0D90E0A0E0EC
:10582000B0E0002E04C0B695A795979587950A9489
:10583000D2F780FF0EC0DD24D394D20E222319F0BC
:105840008CE20E94FD5CF701859194910E946DCCE1
:105850002D2D0F5F1F4FE2E0EE0EF11C05301105FC
:10586000D9F61CCD80E996E417CD83E50E949DCA48
:10587000882371F00E948446282F30E02D333105B3
:105880001CF48093000262C78CE3809300025EC721
:105890000E941ACF4091000250E060E070E08FED6E
:1058A00097E00E94B7CE8AE00E94FD5C4FC78091CE
:1058B0009F0D83FD4BC783E50E949DCA882309F491
:1058C00045C70E943A950F94D178CB010E94EB58BE
:1058D0003DC70E9400593AC783E50E949DCA8823AC
:1058E00009F434C70E948446182F90E0CD970CF03D
:1058F0001CE310939D030F94CC526B017C01212F6C
:1059000030E0A8EEB3E00F947D77C60ED71EE81EF8
:10591000F91EC0929903D0929A03E0929B03F092F1
:105920009C0314C70E94CE9711C783E50E9454CAF6
:10593000882361F080914E0E811103C086EE97E0BE
:1059400002C08CEE97E00E946DCC00C70E94C64654
:10595000809A889A0F948315F9C60F94B92F0E94E4
:105960005F910E94B8EE0E942C5C68EE73E080E0CC
:1059700090E00E94DCCB0E94695C60E082EF97E0DF
:105980000F949414E3C68091A3038F7D806180936C
:10599000A303DCC60E94E094D9C683E50E9454CAE2
:1059A000882309F4D3C60E9410CA20E030E04AE7F9
:1059B00054E40F9439710F94D87860939E037093D8
:1059C0009F038093A0039093A103C0C68FE199E049
:1059D0000E946DCC60E08FE099E00F94115B60E075
:1059E0008AEF98E00F94115B61E084E191E20F94FB
:1059F000115B60E08FEE98E00F94115B61E08FED3A
:105A000098E00F94115B60E086ED98E00F94115BD5
:105A100061E08CEC98E00F94115B61E082EC98E01F
:105A20000F94115B60E08AEB98E00F94115B61E0EA
:105A30008CEA98E00F94115B61E08EE998E00F9496
:105A4000115B61E08FE898E00F94115B61E081E801
:105A500098E00F94115B61E08BE698E00F94115B86
:105A600061E08AE598E00F94115B61E08BE498E0D7
:105A70000F94115B61E086E398E00F94115B61E0A5
:105A800083E298E00F94115B60E086E198E00F9468
:105A9000115B60E082E098E00F94115B57C6809143
:105AA000CB149091CC14009741F0DC012C9122236F
:105AB00021F060E00F94451549C60F94831546C642
:105AC000F8018081282F2B7F213499F08035E9F46B
:105AD000818180538A30C8F498012E5F3F4F89013D
